{
  "contractName": "ContractMock",
  "abi": [
    {
      "payable": true,
      "stateMutability": "payable",
      "type": "fallback"
    },
    {
      "anonymous": false,
      "inputs": [
        {
          "indexed": false,
          "name": "sender",
          "type": "address"
        },
        {
          "indexed": false,
          "name": "origin",
          "type": "address"
        },
        {
          "indexed": false,
          "name": "value",
          "type": "uint256"
        },
        {
          "indexed": false,
          "name": "data",
          "type": "bytes"
        }
      ],
      "name": "LogMsg",
      "type": "event"
    },
    {
      "anonymous": false,
      "inputs": [
        {
          "indexed": false,
          "name": "funcName",
          "type": "string"
        },
        {
          "indexed": false,
          "name": "sender",
          "type": "address"
        },
        {
          "indexed": false,
          "name": "value",
          "type": "uint256"
        },
        {
          "indexed": false,
          "name": "data",
          "type": "bytes"
        }
      ],
      "name": "LogFuncCall",
      "type": "event"
    },
    {
      "constant": false,
      "inputs": [],
      "name": "testMe",
      "outputs": [
        {
          "name": "",
          "type": "bool"
        }
      ],
      "payable": true,
      "stateMutability": "payable",
      "type": "function"
    },
    {
      "constant": false,
      "inputs": [
        {
          "name": "_address",
          "type": "address"
        },
        {
          "name": "_data",
          "type": "bytes"
        }
      ],
      "name": "testMeWithParams",
      "outputs": [
        {
          "name": "",
          "type": "bool"
        }
      ],
      "payable": true,
      "stateMutability": "payable",
      "type": "function"
    },
    {
      "constant": false,
      "inputs": [],
      "name": "throwMe",
      "outputs": [
        {
          "name": "",
          "type": "bool"
        }
      ],
      "payable": true,
      "stateMutability": "payable",
      "type": "function"
    },
    {
      "constant": false,
      "inputs": [],
      "name": "revertMe",
      "outputs": [
        {
          "name": "",
          "type": "bool"
        }
      ],
      "payable": true,
      "stateMutability": "payable",
      "type": "function"
    },
    {
      "constant": false,
      "inputs": [
        {
          "name": "_max",
          "type": "uint256"
        }
      ],
      "name": "computeMe",
      "outputs": [
        {
          "name": "",
          "type": "bool"
        }
      ],
      "payable": true,
      "stateMutability": "payable",
      "type": "function"
    }
  ],
  "bytecode": "0x608060405234801561001057600080fd5b5061057a806100206000396000f30060806040526004361061006d576000357c0100000000000000000000000000000000000000000000000000000000900463ffffffff16806317f4c4c51461013157806320594c9c146101695780632ef4d922146101cf57806352415840146101f1578063bb75a2a914610213575b7fffc962513814e0e7bc4c75a93ff9cacc02128bf3152b6f81b5f3eff3a74e7230333234600036604051808673ffffffffffffffffffffffffffffffffffffffff1673ffffffffffffffffffffffffffffffffffffffff1681526020018573ffffffffffffffffffffffffffffffffffffffff1673ffffffffffffffffffffffffffffffffffffffff1681526020018481526020018060200182810382528484828181526020019250808284378201915050965050505050505060405180910390a1005b61014f60048036038101908080359060200190929190505050610235565b604051808215151515815260200191505060405180910390f35b6101b5600480360381019080803573ffffffffffffffffffffffffffffffffffffffff16906020019092919080359060200190820180359060200191909192939192939050505061031f565b604051808215151515815260200191505060405180910390f35b6101d7610404565b604051808215151515815260200191505060405180910390f35b6101f9610474565b604051808215151515815260200191505060405180910390f35b61021b610540565b604051808215151515815260200191505060405180910390f35b600080600090505b8281101561025257808060010191505061023d565b7fbcab7f4d76c5d7802b150996069f92e9b34516b4acf5202240050f8a9df4e841333460003660405180806020018673ffffffffffffffffffffffffffffffffffffffff1673ffffffffffffffffffffffffffffffffffffffff16815260200185815260200180602001838103835260098152602001807f636f6d707574654d65000000000000000000000000000000000000000000000081525060200183810382528585828181526020019250808284378201915050965050505050505060405180910390a150919050565b60007fbcab7f4d76c5d7802b150996069f92e9b34516b4acf5202240050f8a9df4e841338573ffffffffffffffffffffffffffffffffffffffff16858560405180806020018673ffffffffffffffffffffffffffffffffffffffff1673ffffffffffffffffffffffffffffffffffffffff16815260200185815260200180602001838103835260108152602001807f746573744d6557697468506172616d730000000000000000000000000000000081525060200183810382528585828181526020019250808284378201915050965050505050505060405180910390a19392505050565b60006040517f08c379a000000000000000000000000000000000000000000000000000000000815260040180806020018281038252600b8152602001807f526576657274696e67202100000000000000000000000000000000000000000081525060200191505060405180910390fd5b60007fbcab7f4d76c5d7802b150996069f92e9b34516b4acf5202240050f8a9df4e841333460003660405180806020018673ffffffffffffffffffffffffffffffffffffffff1673ffffffffffffffffffffffffffffffffffffffff16815260200185815260200180602001838103835260068152602001807f746573744d65000000000000000000000000000000000000000000000000000081525060200183810382528585828181526020019250808284378201915050965050505050505060405180910390a190565b600080151561054b57fe5b905600a165627a7a723058206cdb5dc0d85bf0f62644a3f8fbfb2bd66b5e21a2aea65e77dbfa281a4fcb7f5b0029",
  "source": "pragma solidity ^0.4.24;\n\n\n/**\n * @title ContractMock\n * @dev ContractMock allows testing of contract interacting\n *\n * @author cyril.lapinte@mtpelerin.com\n */\ncontract ContractMock {\n\n  function () external payable {\n    emit LogMsg(\n      msg.sender,\n      // solium-disable-next-line security/no-tx-origin\n      tx.origin,\n      msg.value,\n      msg.data\n    );\n  }\n\n  function testMe() external payable returns (bool) {\n    emit LogFuncCall(\n      \"testMe\",\n      msg.sender,\n      msg.value,\n      msg.data);\n  }\n\n  function testMeWithParams(address _address, bytes _data)\n    external payable returns (bool)\n  {\n    emit LogFuncCall(\n      \"testMeWithParams\",\n      msg.sender,\n      uint256(_address),\n      _data);\n  }\n\n  function throwMe() external payable returns (bool) {\n    assert(false);\n  }\n\n  function revertMe() external payable returns (bool) {\n    revert(\"Reverting !\");\n  }\n\n  function computeMe(uint256 _max) external payable returns (bool) {\n    for (uint i = 0; i < _max; i++) {}\n    emit LogFuncCall(\n      \"computeMe\",\n      msg.sender,\n      msg.value,\n      msg.data\n    );\n  }\n\n  event LogMsg(address sender, address origin, uint256 value, bytes data);\n  event LogFuncCall(string funcName, address sender, uint256 value,\n  bytes data);\n}\n",
  "sourcePath": "/home/node/project/contracts/mock/ContractMock.sol",
  "compiler": {
    "name": "solc",
    "version": "0.4.24+commit.e67f0147.Emscripten.clang"
  },
  "schemaVersion": "2.0.1",
  "updatedAt": "2018-08-15T14:19:55.908Z"
}