{
  "contractName": "DemoShare",
  "abi": [
    {
      "constant": false,
      "inputs": [
        {
          "name": "_shareholders",
          "type": "address[]"
        }
      ],
      "name": "updateShareholders",
      "outputs": [],
      "payable": false,
      "stateMutability": "nonpayable",
      "type": "function"
    },
    {
      "constant": true,
      "inputs": [],
      "name": "shareholders",
      "outputs": [
        {
          "name": "",
          "type": "address[]"
        }
      ],
      "payable": false,
      "stateMutability": "view",
      "type": "function"
    },
    {
      "constant": false,
      "inputs": [],
      "name": "renounceOwnership",
      "outputs": [],
      "payable": false,
      "stateMutability": "nonpayable",
      "type": "function"
    },
    {
      "constant": true,
      "inputs": [],
      "name": "owner",
      "outputs": [
        {
          "name": "",
          "type": "address"
        }
      ],
      "payable": false,
      "stateMutability": "view",
      "type": "function"
    },
    {
      "constant": true,
      "inputs": [
        {
          "name": "",
          "type": "uint256"
        }
      ],
      "name": "shareholders",
      "outputs": [
        {
          "name": "",
          "type": "address"
        }
      ],
      "payable": false,
      "stateMutability": "view",
      "type": "function"
    },
    {
      "constant": true,
      "inputs": [
        {
          "name": "_address",
          "type": "address"
        }
      ],
      "name": "isShareholder",
      "outputs": [
        {
          "name": "",
          "type": "bool"
        }
      ],
      "payable": false,
      "stateMutability": "view",
      "type": "function"
    },
    {
      "constant": false,
      "inputs": [
        {
          "name": "_newOwner",
          "type": "address"
        }
      ],
      "name": "transferOwnership",
      "outputs": [],
      "payable": false,
      "stateMutability": "nonpayable",
      "type": "function"
    },
    {
      "inputs": [
        {
          "name": "_token",
          "type": "address"
        }
      ],
      "payable": false,
      "stateMutability": "nonpayable",
      "type": "constructor"
    },
    {
      "anonymous": false,
      "inputs": [
        {
          "indexed": false,
          "name": "proposalId",
          "type": "uint256"
        }
      ],
      "name": "NewProposal",
      "type": "event"
    },
    {
      "anonymous": false,
      "inputs": [
        {
          "indexed": false,
          "name": "proposalId",
          "type": "uint256"
        },
        {
          "indexed": false,
          "name": "total",
          "type": "uint256"
        },
        {
          "indexed": false,
          "name": "approvals",
          "type": "uint256"
        },
        {
          "indexed": false,
          "name": "rejections",
          "type": "uint256"
        }
      ],
      "name": "Approved",
      "type": "event"
    },
    {
      "anonymous": false,
      "inputs": [
        {
          "indexed": false,
          "name": "proposalId",
          "type": "uint256"
        },
        {
          "indexed": false,
          "name": "total",
          "type": "uint256"
        },
        {
          "indexed": false,
          "name": "approvals",
          "type": "uint256"
        },
        {
          "indexed": false,
          "name": "rejections",
          "type": "uint256"
        }
      ],
      "name": "Rejected",
      "type": "event"
    },
    {
      "anonymous": false,
      "inputs": [
        {
          "indexed": false,
          "name": "proposalId",
          "type": "uint256"
        },
        {
          "indexed": false,
          "name": "token",
          "type": "address"
        },
        {
          "indexed": false,
          "name": "dividendAmount",
          "type": "uint256"
        }
      ],
      "name": "Distribution",
      "type": "event"
    },
    {
      "anonymous": false,
      "inputs": [
        {
          "indexed": true,
          "name": "previousOwner",
          "type": "address"
        }
      ],
      "name": "OwnershipRenounced",
      "type": "event"
    },
    {
      "anonymous": false,
      "inputs": [
        {
          "indexed": true,
          "name": "previousOwner",
          "type": "address"
        },
        {
          "indexed": true,
          "name": "newOwner",
          "type": "address"
        }
      ],
      "name": "OwnershipTransferred",
      "type": "event"
    },
    {
      "constant": true,
      "inputs": [],
      "name": "token",
      "outputs": [
        {
          "name": "",
          "type": "address"
        }
      ],
      "payable": false,
      "stateMutability": "view",
      "type": "function"
    },
    {
      "constant": false,
      "inputs": [
        {
          "name": "_token",
          "type": "address"
        }
      ],
      "name": "updateToken",
      "outputs": [],
      "payable": false,
      "stateMutability": "nonpayable",
      "type": "function"
    },
    {
      "constant": true,
      "inputs": [],
      "name": "currentProposalId",
      "outputs": [
        {
          "name": "",
          "type": "uint256"
        }
      ],
      "payable": false,
      "stateMutability": "view",
      "type": "function"
    },
    {
      "constant": true,
      "inputs": [],
      "name": "currentUrl",
      "outputs": [
        {
          "name": "",
          "type": "string"
        }
      ],
      "payable": false,
      "stateMutability": "view",
      "type": "function"
    },
    {
      "constant": true,
      "inputs": [],
      "name": "currentHash",
      "outputs": [
        {
          "name": "",
          "type": "uint256"
        }
      ],
      "payable": false,
      "stateMutability": "view",
      "type": "function"
    },
    {
      "constant": true,
      "inputs": [],
      "name": "currentDividendToken",
      "outputs": [
        {
          "name": "",
          "type": "address"
        }
      ],
      "payable": false,
      "stateMutability": "view",
      "type": "function"
    },
    {
      "constant": true,
      "inputs": [],
      "name": "startedAt",
      "outputs": [
        {
          "name": "",
          "type": "uint256"
        }
      ],
      "payable": false,
      "stateMutability": "view",
      "type": "function"
    },
    {
      "constant": true,
      "inputs": [],
      "name": "closedAt",
      "outputs": [
        {
          "name": "",
          "type": "uint256"
        }
      ],
      "payable": false,
      "stateMutability": "view",
      "type": "function"
    },
    {
      "constant": true,
      "inputs": [],
      "name": "voteApprovals",
      "outputs": [
        {
          "name": "",
          "type": "uint256"
        }
      ],
      "payable": false,
      "stateMutability": "view",
      "type": "function"
    },
    {
      "constant": true,
      "inputs": [],
      "name": "voteRejections",
      "outputs": [
        {
          "name": "",
          "type": "uint256"
        }
      ],
      "payable": false,
      "stateMutability": "view",
      "type": "function"
    },
    {
      "constant": true,
      "inputs": [
        {
          "name": "_address",
          "type": "address"
        }
      ],
      "name": "hasVoted",
      "outputs": [
        {
          "name": "",
          "type": "bool"
        }
      ],
      "payable": false,
      "stateMutability": "view",
      "type": "function"
    },
    {
      "constant": false,
      "inputs": [
        {
          "name": "_url",
          "type": "string"
        },
        {
          "name": "_hash",
          "type": "uint256"
        },
        {
          "name": "_dividendToken",
          "type": "address"
        }
      ],
      "name": "proposeVote",
      "outputs": [],
      "payable": false,
      "stateMutability": "nonpayable",
      "type": "function"
    },
    {
      "constant": false,
      "inputs": [],
      "name": "closeVote",
      "outputs": [],
      "payable": false,
      "stateMutability": "nonpayable",
      "type": "function"
    },
    {
      "constant": false,
      "inputs": [],
      "name": "closeVoteApproval",
      "outputs": [],
      "payable": false,
      "stateMutability": "nonpayable",
      "type": "function"
    },
    {
      "constant": false,
      "inputs": [],
      "name": "closeVoteRejection",
      "outputs": [],
      "payable": false,
      "stateMutability": "nonpayable",
      "type": "function"
    },
    {
      "constant": false,
      "inputs": [],
      "name": "forceCloseVoteNoActions",
      "outputs": [],
      "payable": false,
      "stateMutability": "nonpayable",
      "type": "function"
    },
    {
      "constant": false,
      "inputs": [],
      "name": "approveProposal",
      "outputs": [],
      "payable": false,
      "stateMutability": "nonpayable",
      "type": "function"
    },
    {
      "constant": false,
      "inputs": [],
      "name": "rejectProposal",
      "outputs": [],
      "payable": false,
      "stateMutability": "nonpayable",
      "type": "function"
    },
    {
      "constant": false,
      "inputs": [],
      "name": "distribute",
      "outputs": [
        {
          "name": "",
          "type": "bool"
        }
      ],
      "payable": false,
      "stateMutability": "nonpayable",
      "type": "function"
    },
    {
      "constant": false,
      "inputs": [
        {
          "name": "_dividendAmount",
          "type": "uint256"
        },
        {
          "name": "_token",
          "type": "address"
        },
        {
          "name": "_addresses",
          "type": "address[]"
        }
      ],
      "name": "distributeSpecial",
      "outputs": [
        {
          "name": "",
          "type": "bool"
        }
      ],
      "payable": false,
      "stateMutability": "nonpayable",
      "type": "function"
    }
  ],
  "bytecode": "0x608060405234801561001057600080fd5b50604051602080612b3283398101806040528101908080519060200190929190505050336000806101000a81548173ffffffffffffffffffffffffffffffffffffffff021916908373ffffffffffffffffffffffffffffffffffffffff16021790555080600b60006101000a81548173ffffffffffffffffffffffffffffffffffffffff021916908373ffffffffffffffffffffffffffffffffffffffff16021790555050612a6e806100c46000396000f30060806040526004361061015f576000357c0100000000000000000000000000000000000000000000000000000000900463ffffffff168063061c92081461016457806309eef43e1461018f57806329df65d1146101ea5780632e8a171614610250578063329d33461461027b5780633723bc0e146102925780633856d185146102fe5780634238cf0b146103915780636e39d151146103a8578063715018a6146103bf5780637ad3def2146103d65780637e056b911461041957806389732353146104305780638da5cb5b1461048757806392535a8e146104de5780639be4cc8c146104f55780639ef27b001461050c578063a5aa56ef14610537578063ab377daa146105df578063b89a73cb1461064c578063d2bbc790146106a7578063e08cf07c146106d2578063e4fc6b6d14610762578063f21f537d14610791578063f2fde38b146107bc578063fc0c546a146107ff578063feac729d14610856575b600080fd5b34801561017057600080fd5b50610179610881565b6040518082815260200191505060405180910390f35b34801561019b57600080fd5b506101d0600480360381019080803573ffffffffffffffffffffffffffffffffffffffff16906020019092919050505061088e565b604051808215151515815260200191505060405180910390f35b3480156101f657600080fd5b5061024e600480360381019080803590602001908201803590602001908080602002602001604051908101604052809392919081815260200183836020028082843782019150505050505091929192905050506108f7565b005b34801561025c57600080fd5b5061026561096c565b6040518082815260200191505060405180910390f35b34801561028757600080fd5b50610290610979565b005b34801561029e57600080fd5b506102a7610c0d565b6040518080602001828103825283818151815260200191508051906020019060200280838360005b838110156102ea5780820151818401526020810190506102cf565b505050509050019250505060405180910390f35b34801561030a57600080fd5b5061038f600480360381019080803590602001908201803590602001908080601f016020809104026020016040519081016040528093929190818152602001838380828437820191505050505050919291929080359060200190929190803573ffffffffffffffffffffffffffffffffffffffff169060200190929190505050610c9b565b005b34801561039d57600080fd5b506103a6610f17565b005b3480156103b457600080fd5b506103bd61101a565b005b3480156103cb57600080fd5b506103d461122c565b005b3480156103e257600080fd5b50610417600480360381019080803573ffffffffffffffffffffffffffffffffffffffff16906020019092919050505061132e565b005b34801561042557600080fd5b5061042e611372565b005b34801561043c57600080fd5b5061044561173e565b604051808273ffffffffffffffffffffffffffffffffffffffff1673ffffffffffffffffffffffffffffffffffffffff16815260200191505060405180910390f35b34801561049357600080fd5b5061049c61176a565b604051808273ffffffffffffffffffffffffffffffffffffffff1673ffffffffffffffffffffffffffffffffffffffff16815260200191505060405180910390f35b3480156104ea57600080fd5b506104f361178f565b005b34801561050157600080fd5b5061050a6119a1565b005b34801561051857600080fd5b50610521611cea565b6040518082815260200191505060405180910390f35b34801561054357600080fd5b506105c560048036038101908080359060200190929190803573ffffffffffffffffffffffffffffffffffffffff16906020019092919080359060200190820180359060200190808060200260200160405190810160405280939291908181526020018383602002808284378201915050505050509192919290505050611cf7565b604051808215151515815260200191505060405180910390f35b3480156105eb57600080fd5b5061060a60048036038101908080359060200190929190505050611d68565b604051808273ffffffffffffffffffffffffffffffffffffffff1673ffffffffffffffffffffffffffffffffffffffff16815260200191505060405180910390f35b34801561065857600080fd5b5061068d600480360381019080803573ffffffffffffffffffffffffffffffffffffffff169060200190929190505050611da6565b604051808215151515815260200191505060405180910390f35b3480156106b357600080fd5b506106bc611e49565b6040518082815260200191505060405180910390f35b3480156106de57600080fd5b506106e7611e56565b6040518080602001828103825283818151815260200191508051906020019080838360005b8381101561072757808201518184015260208101905061070c565b50505050905090810190601f1680156107545780820380516001836020036101000a031916815260200191505b509250505060405180910390f35b34801561076e57600080fd5b50610777611efb565b604051808215151515815260200191505060405180910390f35b34801561079d57600080fd5b506107a661218b565b6040518082815260200191505060405180910390f35b3480156107c857600080fd5b506107fd600480360381019080803573ffffffffffffffffffffffffffffffffffffffff169060200190929190505050612198565b005b34801561080b57600080fd5b506108146121ff565b604051808273ffffffffffffffffffffffffffffffffffffffff1673ffffffffffffffffffffffffffffffffffffffff16815260200191505060405180910390f35b34801561086257600080fd5b5061086b612229565b6040518082815260200191505060405180910390f35b6000600260060154905090565b600060096000600a54815260200190815260200160002060008373ffffffffffffffffffffffffffffffffffffffff1673ffffffffffffffffffffffffffffffffffffffff16815260200190815260200160002060009054906101000a900460ff169050919050565b6000809054906101000a900473ffffffffffffffffffffffffffffffffffffffff1673ffffffffffffffffffffffffffffffffffffffff163373ffffffffffffffffffffffffffffffffffffffff1614151561095257600080fd5b8060019080519060200190610968929190612888565b5050565b6000600260010154905090565b60008060009054906101000a900473ffffffffffffffffffffffffffffffffffffffff1673ffffffffffffffffffffffffffffffffffffffff163373ffffffffffffffffffffffffffffffffffffffff161415156109d657600080fd5b6109de612233565b600260040154111515610a59576040517f08c379a00000000000000000000000000000000000000000000000000000000081526004018080602001828103825260038152602001807f453032000000000000000000000000000000000000000000000000000000000081525060200191505060405180910390fd5b600b60009054906101000a900473ffffffffffffffffffffffffffffffffffffffff1673ffffffffffffffffffffffffffffffffffffffff166318160ddd6040518163ffffffff167c0100000000000000000000000000000000000000000000000000000000028152600401602060405180830381600087803b158015610adf57600080fd5b505af1158015610af3573d6000803e3d6000fd5b505050506040513d6020811015610b0957600080fd5b81019080805190602001909291905050509050806002600501546002021115610b9d577fa27b68f190419f4f7243c6cac4321df8e895737918e69cd924167a613a84e776600a54826002600501546002600601546040518085815260200184815260200183815260200182815260200194505050505060405180910390a1610b8f612233565b600260040181905550610c0a565b7f600d2d6cc90151ad8f438bbd2ea92b6dc142a84516f407919814a5ef5e2d1af2600a54826002600501546002600601546040518085815260200184815260200183815260200182815260200194505050505060405180910390a1610c00612233565b6002600401819055505b50565b60606001805480602002602001604051908101604052809291908181526020018280548015610c9157602002820191906000526020600020905b8160009054906101000a900473ffffffffffffffffffffffffffffffffffffffff1673ffffffffffffffffffffffffffffffffffffffff1681526020019060010190808311610c47575b5050505050905090565b6000809054906101000a900473ffffffffffffffffffffffffffffffffffffffff1673ffffffffffffffffffffffffffffffffffffffff163373ffffffffffffffffffffffffffffffffffffffff16141515610cf657600080fd5b610cfe612233565b600260040154101515610d79576040517f08c379a00000000000000000000000000000000000000000000000000000000081526004018080602001828103825260038152602001807f453031000000000000000000000000000000000000000000000000000000000081525060200191505060405180910390fd5b6000600a541115610de957600260008082016000610d979190612912565b60018201600090556002820160006101000a81549073ffffffffffffffffffffffffffffffffffffffff0219169055600382016000905560048201600090556005820160009055600682016000905550505b60e0604051908101604052808481526020018381526020018273ffffffffffffffffffffffffffffffffffffffff168152602001610e25612233565b8152602001600019815260200160008152602001600081525060026000820151816000019080519060200190610e5c92919061295a565b506020820151816001015560408201518160020160006101000a81548173ffffffffffffffffffffffffffffffffffffffff021916908373ffffffffffffffffffffffffffffffffffffffff160217905550606082015181600301556080820151816004015560a0820151816005015560c082015181600601559050507f9a863892f20a6b9c6cec64d611b5864be6373191ce2cacc3b05a299bce3bf80e600a546040518082815260200191505060405180910390a1505050565b6000809054906101000a900473ffffffffffffffffffffffffffffffffffffffff1673ffffffffffffffffffffffffffffffffffffffff163373ffffffffffffffffffffffffffffffffffffffff16141515610f7257600080fd5b610f7a612233565b600260040154111515610ff5576040517f08c379a00000000000000000000000000000000000000000000000000000000081526004018080602001828103825260038152602001807f453032000000000000000000000000000000000000000000000000000000000081525060200191505060405180910390fd5b610ffd612233565b600260040181905550600a60008154809291906001019190505550565b60008060009054906101000a900473ffffffffffffffffffffffffffffffffffffffff1673ffffffffffffffffffffffffffffffffffffffff163373ffffffffffffffffffffffffffffffffffffffff1614151561107757600080fd5b61107f612233565b6002600401541115156110fa576040517f08c379a00000000000000000000000000000000000000000000000000000000081526004018080602001828103825260038152602001807f453032000000000000000000000000000000000000000000000000000000000081525060200191505060405180910390fd5b600b60009054906101000a900473ffffffffffffffffffffffffffffffffffffffff1673ffffffffffffffffffffffffffffffffffffffff166318160ddd6040518163ffffffff167c0100000000000000000000000000000000000000000000000000000000028152600401602060405180830381600087803b15801561118057600080fd5b505af1158015611194573d6000803e3d6000fd5b505050506040513d60208110156111aa57600080fd5b810190808051906020019092919050505090507f600d2d6cc90151ad8f438bbd2ea92b6dc142a84516f407919814a5ef5e2d1af2600a54826002600501546002600601546040518085815260200184815260200183815260200182815260200194505050505060405180910390a1611220612233565b60026004018190555050565b6000809054906101000a900473ffffffffffffffffffffffffffffffffffffffff1673ffffffffffffffffffffffffffffffffffffffff163373ffffffffffffffffffffffffffffffffffffffff1614151561128757600080fd5b6000809054906101000a900473ffffffffffffffffffffffffffffffffffffffff1673ffffffffffffffffffffffffffffffffffffffff167ff8df31144d9c2f0f6b59d69b8b98abd5459d07f2742c4df920b25aae33c6482060405160405180910390a260008060006101000a81548173ffffffffffffffffffffffffffffffffffffffff021916908373ffffffffffffffffffffffffffffffffffffffff160217905550565b80600b60006101000a81548173ffffffffffffffffffffffffffffffffffffffff021916908373ffffffffffffffffffffffffffffffffffffffff16021790555050565b600061137c612233565b6002600401541115156113f7576040517f08c379a00000000000000000000000000000000000000000000000000000000081526004018080602001828103825260038152602001807f453032000000000000000000000000000000000000000000000000000000000081525060200191505060405180910390fd5b60096000600a54815260200190815260200160002060003373ffffffffffffffffffffffffffffffffffffffff1673ffffffffffffffffffffffffffffffffffffffff16815260200190815260200160002060009054906101000a900460ff161515156114cc576040517f08c379a00000000000000000000000000000000000000000000000000000000081526004018080602001828103825260038152602001807f453033000000000000000000000000000000000000000000000000000000000081525060200191505060405180910390fd5b600b60009054906101000a900473ffffffffffffffffffffffffffffffffffffffff1673ffffffffffffffffffffffffffffffffffffffff166370a08231336040518263ffffffff167c0100000000000000000000000000000000000000000000000000000000028152600401808273ffffffffffffffffffffffffffffffffffffffff1673ffffffffffffffffffffffffffffffffffffffff168152602001915050602060405180830381600087803b15801561158957600080fd5b505af115801561159d573d6000803e3d6000fd5b505050506040513d60208110156115b357600080fd5b8101908080519060200190929190505050905060008111151561163e576040517f08c379a00000000000000000000000000000000000000000000000000000000081526004018080602001828103825260038152602001807f453034000000000000000000000000000000000000000000000000000000000081525060200191505060405180910390fd5b6000600a5411156116af57600960006001600a5403815260200190815260200160002060003373ffffffffffffffffffffffffffffffffffffffff1673ffffffffffffffffffffffffffffffffffffffff16815260200190815260200160002060006101000a81549060ff02191690555b6116c78160026005015461223b90919063ffffffff16565b600260050181905550600160096000600a54815260200190815260200160002060003373ffffffffffffffffffffffffffffffffffffffff1673ffffffffffffffffffffffffffffffffffffffff16815260200190815260200160002060006101000a81548160ff02191690831515021790555050565b60006002800160009054906101000a900473ffffffffffffffffffffffffffffffffffffffff16905090565b6000809054906101000a900473ffffffffffffffffffffffffffffffffffffffff1681565b60008060009054906101000a900473ffffffffffffffffffffffffffffffffffffffff1673ffffffffffffffffffffffffffffffffffffffff163373ffffffffffffffffffffffffffffffffffffffff161415156117ec57600080fd5b6117f4612233565b60026004015411151561186f576040517f08c379a00000000000000000000000000000000000000000000000000000000081526004018080602001828103825260038152602001807f453032000000000000000000000000000000000000000000000000000000000081525060200191505060405180910390fd5b600b60009054906101000a900473ffffffffffffffffffffffffffffffffffffffff1673ffffffffffffffffffffffffffffffffffffffff166318160ddd6040518163ffffffff167c0100000000000000000000000000000000000000000000000000000000028152600401602060405180830381600087803b1580156118f557600080fd5b505af1158015611909573d6000803e3d6000fd5b505050506040513d602081101561191f57600080fd5b810190808051906020019092919050505090507fa27b68f190419f4f7243c6cac4321df8e895737918e69cd924167a613a84e776600a54826002600501546002600601546040518085815260200184815260200183815260200182815260200194505050505060405180910390a1611995612233565b60026004018190555050565b600060096000600a54815260200190815260200160002060003373ffffffffffffffffffffffffffffffffffffffff1673ffffffffffffffffffffffffffffffffffffffff16815260200190815260200160002060009054906101000a900460ff16151515611a78576040517f08c379a00000000000000000000000000000000000000000000000000000000081526004018080602001828103825260038152602001807f453033000000000000000000000000000000000000000000000000000000000081525060200191505060405180910390fd5b600b60009054906101000a900473ffffffffffffffffffffffffffffffffffffffff1673ffffffffffffffffffffffffffffffffffffffff166370a08231336040518263ffffffff167c0100000000000000000000000000000000000000000000000000000000028152600401808273ffffffffffffffffffffffffffffffffffffffff1673ffffffffffffffffffffffffffffffffffffffff168152602001915050602060405180830381600087803b158015611b3557600080fd5b505af1158015611b49573d6000803e3d6000fd5b505050506040513d6020811015611b5f57600080fd5b81019080805190602001909291905050509050600081111515611bea576040517f08c379a00000000000000000000000000000000000000000000000000000000081526004018080602001828103825260038152602001807f453034000000000000000000000000000000000000000000000000000000000081525060200191505060405180910390fd5b6000600a541115611c5b57600960006001600a5403815260200190815260200160002060003373ffffffffffffffffffffffffffffffffffffffff1673ffffffffffffffffffffffffffffffffffffffff16815260200190815260200160002060006101000a81549060ff02191690555b611c738160026006015461223b90919063ffffffff16565b600260060181905550600160096000600a54815260200190815260200160002060003373ffffffffffffffffffffffffffffffffffffffff1673ffffffffffffffffffffffffffffffffffffffff16815260200190815260200160002060006101000a81548160ff02191690831515021790555050565b6000600260040154905090565b60008060009054906101000a900473ffffffffffffffffffffffffffffffffffffffff1673ffffffffffffffffffffffffffffffffffffffff163373ffffffffffffffffffffffffffffffffffffffff16141515611d5457600080fd5b611d5f848484612257565b90509392505050565b600181815481101515611d7757fe5b906000526020600020016000915054906101000a900473ffffffffffffffffffffffffffffffffffffffff1681565b600080600090505b600180549050811015611e3e578273ffffffffffffffffffffffffffffffffffffffff16600182815481101515611de157fe5b9060005260206000200160009054906101000a900473ffffffffffffffffffffffffffffffffffffffff1673ffffffffffffffffffffffffffffffffffffffff161415611e315760019150611e43565b8080600101915050611dae565b600091505b50919050565b6000600260050154905090565b606060026000018054600181600116156101000203166002900480601f016020809104026020016040519081016040528092919081815260200182805460018160011615610100020316600290048015611ef15780601f10611ec657610100808354040283529160200191611ef1565b820191906000526020600020905b815481529060010190602001808311611ed457829003601f168201915b5050505050905090565b60008060008060009054906101000a900473ffffffffffffffffffffffffffffffffffffffff1673ffffffffffffffffffffffffffffffffffffffff163373ffffffffffffffffffffffffffffffffffffffff16141515611f5b57600080fd5b611f63612233565b60026004015411151515611fdf576040517f08c379a00000000000000000000000000000000000000000000000000000000081526004018080602001828103825260038152602001807f453035000000000000000000000000000000000000000000000000000000000081525060200191505060405180910390fd5b6002800160009054906101000a900473ffffffffffffffffffffffffffffffffffffffff1691508173ffffffffffffffffffffffffffffffffffffffff166370a08231306040518263ffffffff167c0100000000000000000000000000000000000000000000000000000000028152600401808273ffffffffffffffffffffffffffffffffffffffff1673ffffffffffffffffffffffffffffffffffffffff168152602001915050602060405180830381600087803b1580156120a157600080fd5b505af11580156120b5573d6000803e3d6000fd5b505050506040513d60208110156120cb57600080fd5b8101908080519060200190929190505050905061216f8183600180548060200260200160405190810160405280929190818152602001828054801561216557602002820191906000526020600020905b8160009054906101000a900473ffffffffffffffffffffffffffffffffffffffff1673ffffffffffffffffffffffffffffffffffffffff168152602001906001019080831161211b575b5050505050612257565b50600a6000815480929190600101919050555060019250505090565b6000600260030154905090565b6000809054906101000a900473ffffffffffffffffffffffffffffffffffffffff1673ffffffffffffffffffffffffffffffffffffffff163373ffffffffffffffffffffffffffffffffffffffff161415156121f357600080fd5b6121fc81612740565b50565b6000600b60009054906101000a900473ffffffffffffffffffffffffffffffffffffffff16905090565b6000600a54905090565b600042905090565b6000818301905082811015151561224e57fe5b80905092915050565b6000806000808573ffffffffffffffffffffffffffffffffffffffff166370a08231306040518263ffffffff167c0100000000000000000000000000000000000000000000000000000000028152600401808273ffffffffffffffffffffffffffffffffffffffff1673ffffffffffffffffffffffffffffffffffffffff168152602001915050602060405180830381600087803b1580156122f857600080fd5b505af115801561230c573d6000803e3d6000fd5b505050506040513d602081101561232257600080fd5b810190808051906020019092919050505092508683101515156123ad576040517f08c379a00000000000000000000000000000000000000000000000000000000081526004018080602001828103825260038152602001807f453036000000000000000000000000000000000000000000000000000000000081525060200191505060405180910390fd5b600091505b84518210156126bd576125ae600b60009054906101000a900473ffffffffffffffffffffffffffffffffffffffff1673ffffffffffffffffffffffffffffffffffffffff166318160ddd6040518163ffffffff167c0100000000000000000000000000000000000000000000000000000000028152600401602060405180830381600087803b15801561244457600080fd5b505af1158015612458573d6000803e3d6000fd5b505050506040513d602081101561246e57600080fd5b81019080805190602001909291905050506125a0600b60009054906101000a900473ffffffffffffffffffffffffffffffffffffffff1673ffffffffffffffffffffffffffffffffffffffff166370a0823189878151811015156124ce57fe5b906020019060200201516040518263ffffffff167c0100000000000000000000000000000000000000000000000000000000028152600401808273ffffffffffffffffffffffffffffffffffffffff1673ffffffffffffffffffffffffffffffffffffffff168152602001915050602060405180830381600087803b15801561255657600080fd5b505af115801561256a573d6000803e3d6000fd5b505050506040513d602081101561258057600080fd5b81019080805190602001909291905050508a61283a90919063ffffffff16565b61287290919063ffffffff16565b905060008111156126b0578573ffffffffffffffffffffffffffffffffffffffff1663a9059cbb86848151811015156125e357fe5b90602001906020020151836040518363ffffffff167c0100000000000000000000000000000000000000000000000000000000028152600401808373ffffffffffffffffffffffffffffffffffffffff1673ffffffffffffffffffffffffffffffffffffffff16815260200182815260200192505050602060405180830381600087803b15801561267357600080fd5b505af1158015612687573d6000803e3d6000fd5b505050506040513d602081101561269d57600080fd5b8101908080519060200190929190505050505b81806001019250506123b2565b7fb6bcab815b7a952b8759f2f92fc9981dc1156f6c11bf4dc7e9cb3036495e653a600a548789604051808481526020018373ffffffffffffffffffffffffffffffffffffffff1673ffffffffffffffffffffffffffffffffffffffff168152602001828152602001935050505060405180910390a1600193505050509392505050565b600073ffffffffffffffffffffffffffffffffffffffff168173ffffffffffffffffffffffffffffffffffffffff161415151561277c57600080fd5b8073ffffffffffffffffffffffffffffffffffffffff166000809054906101000a900473ffffffffffffffffffffffffffffffffffffffff1673ffffffffffffffffffffffffffffffffffffffff167f8be0079c531659141344cd1fd0a4f28419497f9722a3daafe3b4186f6b6457e060405160405180910390a3806000806101000a81548173ffffffffffffffffffffffffffffffffffffffff021916908373ffffffffffffffffffffffffffffffffffffffff16021790555050565b60008083141561284d576000905061286c565b818302905081838281151561285e57fe5b0414151561286857fe5b8090505b92915050565b6000818381151561287f57fe5b04905092915050565b828054828255906000526020600020908101928215612901579160200282015b828111156129005782518260006101000a81548173ffffffffffffffffffffffffffffffffffffffff021916908373ffffffffffffffffffffffffffffffffffffffff160217905550916020019190600101906128a8565b5b50905061290e91906129da565b5090565b50805460018160011615610100020316600290046000825580601f106129385750612957565b601f0160209004906000526020600020908101906129569190612a1d565b5b50565b828054600181600116156101000203166002900490600052602060002090601f016020900481019282601f1061299b57805160ff19168380011785556129c9565b828001600101855582156129c9579182015b828111156129c85782518255916020019190600101906129ad565b5b5090506129d69190612a1d565b5090565b612a1a91905b80821115612a1657600081816101000a81549073ffffffffffffffffffffffffffffffffffffffff0219169055506001016129e0565b5090565b90565b612a3f91905b80821115612a3b576000816000905550600101612a23565b5090565b905600a165627a7a7230582093127c7e7a35d0bbcc059dfa2df0acb485f52896c19aa2b36b37651b6f540bc80029",
  "source": "pragma solidity ^0.4.24;\n\nimport \"../zeppelin/token/ERC20/ERC20.sol\";\nimport \"../zeppelin/ownership/Ownable.sol\";\nimport \"../zeppelin/math/SafeMath.sol\";\nimport \"./Shareholder.sol\";\n\n\n/**\n * @title DemoShare\n * @dev DemoShare contract\n *\n * Voting mechanism to distribute shares\n *\n * @author Cyril Lapinte - <cyril.lapinte@mtpelerin.com>\n *\n * Error messages\n * E01: Previous vote must be closed\n * E02: Current vote must be open\n * E03: Participant has already voted\n * E04: Participant has no tokens\n * E05: Current vote must be closed\n * E06: Cannot distribute more ETH than available\n*/\ncontract DemoShare is Shareholder {\n  using SafeMath for uint256;\n  uint256 constant UINT256_MAX = ~uint256(0);\n\n  struct Proposal {\n    string url;\n    uint256 hash;\n    ERC20 dividendToken;\n    uint256 startedAt;\n    uint256 closedAt;\n    uint256 approvals;\n    uint256 rejections;\n  }\n  Proposal internal currentProposal;\n\n  mapping(uint256 => mapping(address => bool)) participants;\n  uint256 internal proposalCount;\n\n  ERC20 public token;\n\n  /**\n   * @dev constructor\n   **/\n  constructor(ERC20 _token) public {\n    token = _token;\n  }\n\n  /**\n   * @dev token\n   */\n  function token() public view returns (ERC20) {\n    return token;\n  }\n\n  /**\n   * @dev update token\n   */\n  function updateToken(ERC20 _token) public {\n    token = _token;\n  }\n\n  /**\n   * @dev current proposal id\n   */\n  function currentProposalId() public view returns (uint256) {\n    return proposalCount;\n  }\n\n  /**\n   * @dev current proposal url\n   */\n  function currentUrl() public view returns (string) {\n    return currentProposal.url;\n  }\n\n  /**\n   * @dev current proposal hash\n   */\n  function currentHash() public view returns (uint256) {\n    return currentProposal.hash;\n  }\n\n  /**\n   * @dev current proposal dividend token\n   */\n  function currentDividendToken() public view returns (ERC20) {\n    return currentProposal.dividendToken;\n  }\n\n  /**\n   * @dev current proposal started at\n  */\n  function startedAt() public view returns (uint256) {\n    return currentProposal.startedAt;\n  }\n\n  /**\n   * @dev current proposal closed at\n   */\n  function closedAt() public view returns (uint256) {\n    return currentProposal.closedAt;\n  }\n\n  /**\n   * @dev current proposal approvals\n   */\n  function voteApprovals() public view returns (uint256) {\n    return currentProposal.approvals;\n  }\n\n  /**\n   * @dev current proposal rejections\n   */\n  function voteRejections() public view returns (uint256) {\n    return currentProposal.rejections;\n  }\n\n  /**\n   * @dev current proposal hasVoted\n   */\n  function hasVoted(address _address) public view returns (bool) {\n    return participants[proposalCount][_address];\n  }\n\n  /**\n   * @dev propose a new vote. Owner only\n   */\n  function proposeVote(\n    string _url,\n    uint256 _hash,\n    ERC20 _dividendToken) public onlyOwner\n  {\n    require(currentProposal.closedAt < currentTime(), \"E01\");\n\n    if (proposalCount > 0) {\n      delete currentProposal;\n    }\n    currentProposal = Proposal(\n      _url,\n      _hash,\n      _dividendToken,\n      currentTime(),\n      UINT256_MAX,\n      0,\n      0\n    );\n    emit NewProposal(proposalCount);\n  }\n\n  /**\n   * @dev close the current vote. Owner only\n   */\n  function closeVote() public onlyOwner {\n    require(currentProposal.closedAt > currentTime(), \"E02\");\n \n    //ERC20 dividendToken = currentProposal.dividendToken;\n    //uint256 balance = dividendToken.balanceOf(this);\n    uint256 totalSupply = token.totalSupply();\n\n    if ((2*currentProposal.approvals) > totalSupply) {\n//     if (distributeInternal(balance, dividendToken, shareholders)) {\n      emit Approved(\n        proposalCount,\n        totalSupply,\n        currentProposal.approvals,\n        currentProposal.rejections\n      );\n      currentProposal.closedAt = currentTime();\n     //}\n    } else {\n//      if (balance == 0 || dividendToken.transfer(owner, balance)) {\n      emit Rejected(\n        proposalCount,\n        totalSupply,\n        currentProposal.approvals,\n        currentProposal.rejections\n      );\n      currentProposal.closedAt = currentTime();\n    // }\n    }\n  }\n\n  /**\n   * @dev close the current if approval. Owner only\n   */\n  function closeVoteApproval() public onlyOwner {\n    require(currentProposal.closedAt > currentTime(), \"E02\");\n    uint256 totalSupply = token.totalSupply();\n\n    emit Approved(\n      proposalCount,\n      totalSupply,\n      currentProposal.approvals,\n      currentProposal.rejections\n    );\n    currentProposal.closedAt = currentTime();\n  }\n\n  /**\n   * @dev close the current vote. Owner only\n   */\n  function closeVoteRejection() public onlyOwner {\n    require(currentProposal.closedAt > currentTime(), \"E02\");\n    uint256 totalSupply = token.totalSupply();\n\n    emit Rejected(\n      proposalCount,\n      totalSupply,\n      currentProposal.approvals,\n      currentProposal.rejections\n    );\n    currentProposal.closedAt = currentTime();\n  }\n\n  /**\n   * @dev close the current vote. Owner only\n   */\n  function forceCloseVoteNoActions() public onlyOwner {\n    require(currentProposal.closedAt > currentTime(), \"E02\");\n    currentProposal.closedAt = currentTime();\n    proposalCount++;\n  }\n\n  /**\n   * @dev approve the current vote\n   */\n  function approveProposal() public {\n    require(currentProposal.closedAt > currentTime(), \"E02\");\n    require(!participants[proposalCount][msg.sender], \"E03\");\n    uint256 balance = token.balanceOf(msg.sender);\n    require(balance > 0, \"E04\");\n\n    if (proposalCount > 0) {\n      delete participants[proposalCount-1][msg.sender];\n    }\n \n    currentProposal.approvals = currentProposal.approvals.add(balance);\n    participants[proposalCount][msg.sender] = true;\n  }\n\n  /**\n   * @dev reject the current vote\n   */\n  function rejectProposal() public {\n    require(!participants[proposalCount][msg.sender], \"E03\");\n    uint256 balance = token.balanceOf(msg.sender);\n    require(balance > 0, \"E04\");\n\n    if (proposalCount > 0) {\n      delete participants[proposalCount-1][msg.sender];\n    }\n\n    currentProposal.rejections = currentProposal.rejections.add(balance);\n    participants[proposalCount][msg.sender] = true;\n  }\n\n  /**\n   * @dev Distribute token dividend\n   */\n  function distribute() public onlyOwner returns (bool) {\n    require(currentProposal.closedAt <= currentTime(), \"E05\");\n    \n    ERC20 dividendToken = currentProposal.dividendToken;\n    uint256 balance = dividendToken.balanceOf(this);\n    distributeInternal(balance, dividendToken, shareholders);\n    proposalCount++;\n    return true;\n  }\n\n  /**\n   * @dev Distribute special dividend\n   */\n  function distributeSpecial(\n    uint256 _dividendAmount,\n    ERC20 _token, address[] _addresses) public onlyOwner returns (bool)\n  {\n    return distributeInternal(_dividendAmount, _token, _addresses);\n  }\n\n  /**\n   * @dev distribute internal\n   */\n  function distributeInternal(\n    uint256 _dividendAmount,\n    ERC20 _token, address[] _addresses) internal returns (bool)\n  {\n    uint256 balance = _token.balanceOf(this);\n    require(balance >= _dividendAmount, \"E06\");\n\n    for (uint256 i = 0; i < _addresses.length; i++) {\n      uint256 value = _dividendAmount.mul(\n        token.balanceOf(_addresses[i])).div(token.totalSupply()\n      );\n      if (value > 0) {\n        _token.transfer(_addresses[i], value);\n      }\n    }\n\n    emit Distribution(proposalCount, address(_token), _dividendAmount);\n    return true;\n  }\n\n  /**\n   * @dev currentTime\n   */\n  function currentTime() internal view returns (uint256) {\n    // solium-disable-next-line security/no-block-members\n    return block.timestamp;\n  }\n\n  event NewProposal(uint256 proposalId);\n  event Approved(\n    uint256 proposalId,\n    uint256 total,\n    uint256 approvals,\n    uint256 rejections\n  );\n  event Rejected(\n    uint256 proposalId,\n    uint256 total,\n    uint256 approvals,\n    uint256 rejections\n  );\n  event Distribution(\n    uint256 proposalId,\n    address token,\n    uint256 dividendAmount\n  );\n}\n",
  "sourcePath": "/home/node/project/contracts/demo/DemoShare.sol",
  "compiler": {
    "name": "solc",
    "version": "0.4.24+commit.e67f0147.Emscripten.clang"
  },
  "schemaVersion": "2.0.1",
  "updatedAt": "2018-08-15T14:19:55.872Z"
}