{
  "contractName": "DemoVoting",
  "abi": [
    {
      "constant": false,
      "inputs": [],
      "name": "renounceOwnership",
      "outputs": [],
      "payable": false,
      "stateMutability": "nonpayable",
      "type": "function"
    },
    {
      "constant": true,
      "inputs": [],
      "name": "owner",
      "outputs": [
        {
          "name": "",
          "type": "address"
        }
      ],
      "payable": false,
      "stateMutability": "view",
      "type": "function"
    },
    {
      "constant": false,
      "inputs": [
        {
          "name": "_newOwner",
          "type": "address"
        }
      ],
      "name": "transferOwnership",
      "outputs": [],
      "payable": false,
      "stateMutability": "nonpayable",
      "type": "function"
    },
    {
      "inputs": [
        {
          "name": "_token",
          "type": "address"
        }
      ],
      "payable": false,
      "stateMutability": "nonpayable",
      "type": "constructor"
    },
    {
      "anonymous": false,
      "inputs": [
        {
          "indexed": false,
          "name": "proposalId",
          "type": "uint256"
        }
      ],
      "name": "NewProposal",
      "type": "event"
    },
    {
      "anonymous": false,
      "inputs": [
        {
          "indexed": false,
          "name": "proposalId",
          "type": "uint256"
        },
        {
          "indexed": false,
          "name": "total",
          "type": "uint256"
        },
        {
          "indexed": false,
          "name": "approvals",
          "type": "uint256"
        },
        {
          "indexed": false,
          "name": "rejections",
          "type": "uint256"
        }
      ],
      "name": "Approved",
      "type": "event"
    },
    {
      "anonymous": false,
      "inputs": [
        {
          "indexed": false,
          "name": "proposalId",
          "type": "uint256"
        },
        {
          "indexed": false,
          "name": "total",
          "type": "uint256"
        },
        {
          "indexed": false,
          "name": "approvals",
          "type": "uint256"
        },
        {
          "indexed": false,
          "name": "rejections",
          "type": "uint256"
        }
      ],
      "name": "Rejected",
      "type": "event"
    },
    {
      "anonymous": false,
      "inputs": [
        {
          "indexed": true,
          "name": "previousOwner",
          "type": "address"
        }
      ],
      "name": "OwnershipRenounced",
      "type": "event"
    },
    {
      "anonymous": false,
      "inputs": [
        {
          "indexed": true,
          "name": "previousOwner",
          "type": "address"
        },
        {
          "indexed": true,
          "name": "newOwner",
          "type": "address"
        }
      ],
      "name": "OwnershipTransferred",
      "type": "event"
    },
    {
      "constant": true,
      "inputs": [],
      "name": "votingToken",
      "outputs": [
        {
          "name": "",
          "type": "address"
        }
      ],
      "payable": false,
      "stateMutability": "view",
      "type": "function"
    },
    {
      "constant": true,
      "inputs": [],
      "name": "currentProposalId",
      "outputs": [
        {
          "name": "",
          "type": "uint256"
        }
      ],
      "payable": false,
      "stateMutability": "view",
      "type": "function"
    },
    {
      "constant": true,
      "inputs": [],
      "name": "currentUrl",
      "outputs": [
        {
          "name": "",
          "type": "string"
        }
      ],
      "payable": false,
      "stateMutability": "view",
      "type": "function"
    },
    {
      "constant": true,
      "inputs": [],
      "name": "currentHash",
      "outputs": [
        {
          "name": "",
          "type": "uint256"
        }
      ],
      "payable": false,
      "stateMutability": "view",
      "type": "function"
    },
    {
      "constant": true,
      "inputs": [],
      "name": "startedAt",
      "outputs": [
        {
          "name": "",
          "type": "uint256"
        }
      ],
      "payable": false,
      "stateMutability": "view",
      "type": "function"
    },
    {
      "constant": true,
      "inputs": [],
      "name": "closedAt",
      "outputs": [
        {
          "name": "",
          "type": "uint256"
        }
      ],
      "payable": false,
      "stateMutability": "view",
      "type": "function"
    },
    {
      "constant": true,
      "inputs": [],
      "name": "voteApprovals",
      "outputs": [
        {
          "name": "",
          "type": "uint256"
        }
      ],
      "payable": false,
      "stateMutability": "view",
      "type": "function"
    },
    {
      "constant": true,
      "inputs": [],
      "name": "voteRejections",
      "outputs": [
        {
          "name": "",
          "type": "uint256"
        }
      ],
      "payable": false,
      "stateMutability": "view",
      "type": "function"
    },
    {
      "constant": true,
      "inputs": [
        {
          "name": "_address",
          "type": "address"
        }
      ],
      "name": "hasVoted",
      "outputs": [
        {
          "name": "",
          "type": "bool"
        }
      ],
      "payable": false,
      "stateMutability": "view",
      "type": "function"
    },
    {
      "constant": false,
      "inputs": [
        {
          "name": "url",
          "type": "string"
        },
        {
          "name": "hash",
          "type": "uint256"
        }
      ],
      "name": "proposeVote",
      "outputs": [],
      "payable": false,
      "stateMutability": "nonpayable",
      "type": "function"
    },
    {
      "constant": false,
      "inputs": [],
      "name": "closeVote",
      "outputs": [],
      "payable": false,
      "stateMutability": "nonpayable",
      "type": "function"
    },
    {
      "constant": false,
      "inputs": [],
      "name": "approveProposal",
      "outputs": [],
      "payable": false,
      "stateMutability": "nonpayable",
      "type": "function"
    },
    {
      "constant": false,
      "inputs": [],
      "name": "rejectProposal",
      "outputs": [],
      "payable": false,
      "stateMutability": "nonpayable",
      "type": "function"
    }
  ],
  "bytecode": "0x608060405234801561001057600080fd5b506040516020806113ff83398101806040528101908080519060200190929190505050336000806101000a81548173ffffffffffffffffffffffffffffffffffffffff021916908373ffffffffffffffffffffffffffffffffffffffff16021790555080600960006101000a81548173ffffffffffffffffffffffffffffffffffffffff021916908373ffffffffffffffffffffffffffffffffffffffff1602179055505061133b806100c46000396000f3006080604052600436106100e6576000357c0100000000000000000000000000000000000000000000000000000000900463ffffffff168063061c9208146100eb57806309eef43e146101165780632e8a171614610171578063329d33461461019c578063715018a6146101b35780637e056b91146101ca5780638da5cb5b146101e15780639be4cc8c146102385780639ef27b001461024f578063b03401231461027a578063d2bbc790146102d1578063e08cf07c146102fc578063e393173e1461038c578063f21f537d146103ff578063f2fde38b1461042a578063feac729d1461046d575b600080fd5b3480156100f757600080fd5b50610100610498565b6040518082815260200191505060405180910390f35b34801561012257600080fd5b50610157600480360381019080803573ffffffffffffffffffffffffffffffffffffffff1690602001909291905050506104a5565b604051808215151515815260200191505060405180910390f35b34801561017d57600080fd5b506101866104fe565b6040518082815260200191505060405180910390f35b3480156101a857600080fd5b506101b161050a565b005b3480156101bf57600080fd5b506101c8610713565b005b3480156101d657600080fd5b506101df610815565b005b3480156101ed57600080fd5b506101f6610b4f565b604051808273ffffffffffffffffffffffffffffffffffffffff1673ffffffffffffffffffffffffffffffffffffffff16815260200191505060405180910390f35b34801561024457600080fd5b5061024d610b74565b005b34801561025b57600080fd5b50610264610eae565b6040518082815260200191505060405180910390f35b34801561028657600080fd5b5061028f610ebb565b604051808273ffffffffffffffffffffffffffffffffffffffff1673ffffffffffffffffffffffffffffffffffffffff16815260200191505060405180910390f35b3480156102dd57600080fd5b506102e6610ee5565b6040518082815260200191505060405180910390f35b34801561030857600080fd5b50610311610ef2565b6040518080602001828103825283818151815260200191508051906020019080838360005b83811015610351578082015181840152602081019050610336565b50505050905090810190601f16801561037e5780820380516001836020036101000a031916815260200191505b509250505060405180910390f35b34801561039857600080fd5b506103fd600480360381019080803590602001908201803590602001908080601f016020809104026020016040519081016040528093929190818152602001838380828437820191505050505050919291929080359060200190929190505050610f97565b005b34801561040b57600080fd5b506104146110ce565b6040518082815260200191505060405180910390f35b34801561043657600080fd5b5061046b600480360381019080803573ffffffffffffffffffffffffffffffffffffffff1690602001909291905050506110db565b005b34801561047957600080fd5b50610482611142565b6040518082815260200191505060405180910390f35b6000600160050154905090565b6000600160060160008373ffffffffffffffffffffffffffffffffffffffff1673ffffffffffffffffffffffffffffffffffffffff16815260200190815260200160002060009054906101000a900460ff169050919050565b60006001800154905090565b60008060009054906101000a900473ffffffffffffffffffffffffffffffffffffffff1673ffffffffffffffffffffffffffffffffffffffff163373ffffffffffffffffffffffffffffffffffffffff1614151561056757600080fd5b600960009054906101000a900473ffffffffffffffffffffffffffffffffffffffff1673ffffffffffffffffffffffffffffffffffffffff166318160ddd6040518163ffffffff167c0100000000000000000000000000000000000000000000000000000000028152600401602060405180830381600087803b1580156105ed57600080fd5b505af1158015610601573d6000803e3d6000fd5b505050506040513d602081101561061757600080fd5b8101908080519060200190929190505050905060028181151561063657fe5b0460016004015411156106a3577fa27b68f190419f4f7243c6cac4321df8e895737918e69cd924167a613a84e776600854826001600401546001600501546040518085815260200184815260200183815260200182815260200194505050505060405180910390a16106ff565b7f600d2d6cc90151ad8f438bbd2ea92b6dc142a84516f407919814a5ef5e2d1af2600854826001600401546001600501546040518085815260200184815260200183815260200182815260200194505050505060405180910390a15b61070761114c565b60016003018190555050565b6000809054906101000a900473ffffffffffffffffffffffffffffffffffffffff1673ffffffffffffffffffffffffffffffffffffffff163373ffffffffffffffffffffffffffffffffffffffff1614151561076e57600080fd5b6000809054906101000a900473ffffffffffffffffffffffffffffffffffffffff1673ffffffffffffffffffffffffffffffffffffffff167ff8df31144d9c2f0f6b59d69b8b98abd5459d07f2742c4df920b25aae33c6482060405160405180910390a260008060006101000a81548173ffffffffffffffffffffffffffffffffffffffff021916908373ffffffffffffffffffffffffffffffffffffffff160217905550565b600061081f61114c565b60016003015411151561089a576040517f08c379a00000000000000000000000000000000000000000000000000000000081526004018080602001828103825260038152602001807f453031000000000000000000000000000000000000000000000000000000000081525060200191505060405180910390fd5b600160060160003373ffffffffffffffffffffffffffffffffffffffff1673ffffffffffffffffffffffffffffffffffffffff16815260200190815260200160002060009054906101000a900460ff1615151561095f576040517f08c379a00000000000000000000000000000000000000000000000000000000081526004018080602001828103825260038152602001807f453032000000000000000000000000000000000000000000000000000000000081525060200191505060405180910390fd5b600960009054906101000a900473ffffffffffffffffffffffffffffffffffffffff1673ffffffffffffffffffffffffffffffffffffffff166370a08231336040518263ffffffff167c0100000000000000000000000000000000000000000000000000000000028152600401808273ffffffffffffffffffffffffffffffffffffffff1673ffffffffffffffffffffffffffffffffffffffff168152602001915050602060405180830381600087803b158015610a1c57600080fd5b505af1158015610a30573d6000803e3d6000fd5b505050506040513d6020811015610a4657600080fd5b81019080805190602001909291905050509050600081111515610ad1576040517f08c379a00000000000000000000000000000000000000000000000000000000081526004018080602001828103825260038152602001807f453033000000000000000000000000000000000000000000000000000000000081525060200191505060405180910390fd5b610ae98160016004015461115490919063ffffffff16565b60016004018190555060018060060160003373ffffffffffffffffffffffffffffffffffffffff1673ffffffffffffffffffffffffffffffffffffffff16815260200190815260200160002060006101000a81548160ff02191690831515021790555050565b6000809054906101000a900473ffffffffffffffffffffffffffffffffffffffff1681565b6000610b7e61114c565b600160030154111515610bf9576040517f08c379a00000000000000000000000000000000000000000000000000000000081526004018080602001828103825260038152602001807f453031000000000000000000000000000000000000000000000000000000000081525060200191505060405180910390fd5b600160060160003373ffffffffffffffffffffffffffffffffffffffff1673ffffffffffffffffffffffffffffffffffffffff16815260200190815260200160002060009054906101000a900460ff16151515610cbe576040517f08c379a00000000000000000000000000000000000000000000000000000000081526004018080602001828103825260038152602001807f453032000000000000000000000000000000000000000000000000000000000081525060200191505060405180910390fd5b600960009054906101000a900473ffffffffffffffffffffffffffffffffffffffff1673ffffffffffffffffffffffffffffffffffffffff166370a08231336040518263ffffffff167c0100000000000000000000000000000000000000000000000000000000028152600401808273ffffffffffffffffffffffffffffffffffffffff1673ffffffffffffffffffffffffffffffffffffffff168152602001915050602060405180830381600087803b158015610d7b57600080fd5b505af1158015610d8f573d6000803e3d6000fd5b505050506040513d6020811015610da557600080fd5b81019080805190602001909291905050509050600081111515610e30576040517f08c379a00000000000000000000000000000000000000000000000000000000081526004018080602001828103825260038152602001807f453033000000000000000000000000000000000000000000000000000000000081525060200191505060405180910390fd5b610e488160016005015461115490919063ffffffff16565b60016005018190555060018060060160003373ffffffffffffffffffffffffffffffffffffffff1673ffffffffffffffffffffffffffffffffffffffff16815260200190815260200160002060006101000a81548160ff02191690831515021790555050565b6000600160030154905090565b6000600960009054906101000a900473ffffffffffffffffffffffffffffffffffffffff16905090565b6000600160040154905090565b606060016000018054600181600116156101000203166002900480601f016020809104026020016040519081016040528092919081815260200182805460018160011615610100020316600290048015610f8d5780601f10610f6257610100808354040283529160200191610f8d565b820191906000526020600020905b815481529060010190602001808311610f7057829003601f168201915b5050505050905090565b6000809054906101000a900473ffffffffffffffffffffffffffffffffffffffff1673ffffffffffffffffffffffffffffffffffffffff163373ffffffffffffffffffffffffffffffffffffffff16141515610ff257600080fd5b60c06040519081016040528083815260200182815260200161101261114c565b815260200160001981526020016000815260200160008152506001600082015181600001908051906020019061104992919061126a565b506020820151816001015560408201518160020155606082015181600301556080820151816004015560a082015181600501559050506008600081548092919060010191905055507f9a863892f20a6b9c6cec64d611b5864be6373191ce2cacc3b05a299bce3bf80e6008546040518082815260200191505060405180910390a15050565b6000600160020154905090565b6000809054906101000a900473ffffffffffffffffffffffffffffffffffffffff1673ffffffffffffffffffffffffffffffffffffffff163373ffffffffffffffffffffffffffffffffffffffff1614151561113657600080fd5b61113f81611170565b50565b6000600854905090565b600042905090565b6000818301905082811015151561116757fe5b80905092915050565b600073ffffffffffffffffffffffffffffffffffffffff168173ffffffffffffffffffffffffffffffffffffffff16141515156111ac57600080fd5b8073ffffffffffffffffffffffffffffffffffffffff166000809054906101000a900473ffffffffffffffffffffffffffffffffffffffff1673ffffffffffffffffffffffffffffffffffffffff167f8be0079c531659141344cd1fd0a4f28419497f9722a3daafe3b4186f6b6457e060405160405180910390a3806000806101000a81548173ffffffffffffffffffffffffffffffffffffffff021916908373ffffffffffffffffffffffffffffffffffffffff16021790555050565b828054600181600116156101000203166002900490600052602060002090601f016020900481019282601f106112ab57805160ff19168380011785556112d9565b828001600101855582156112d9579182015b828111156112d85782518255916020019190600101906112bd565b5b5090506112e691906112ea565b5090565b61130c91905b808211156113085760008160009055506001016112f0565b5090565b905600a165627a7a72305820804e25bafb3ed9e3dc6fbc729cd62ec4942e1d73a9cce6cef8cdc90f088c4ea90029",
  "source": "pragma solidity ^0.4.24;\n\nimport \"../zeppelin/token/ERC20/ERC20Basic.sol\";\nimport \"../zeppelin/ownership/Ownable.sol\";\nimport \"../zeppelin/math/SafeMath.sol\";\n\n\n/**\n * @title DemoVoting\n * @dev DemoVoting contract\n *\n * @author Cyril Lapinte - <cyril.lapinte@mtpelerin.com>\n *\n * Error messages\n * E01: Vote must be open\n * E02: Participant has already voted\n * E03: Participant has no voting tokens\n */\ncontract DemoVoting is Ownable {\n  using SafeMath for uint256;\n  uint256 constant UINT256_MAX = ~uint256(0);\n\n  struct Proposal {\n    string url;\n    uint256 hash;\n    uint256 startedAt;\n    uint256 closedAt;\n    uint256 approvals;\n    uint256 rejections;\n    mapping(address => bool) participants;\n  }\n  Proposal internal currentProposal;\n  uint256 internal proposalCount;\n\n  ERC20Basic public votingToken;\n\n  /**\n   * @dev constructor\n   **/\n  constructor(ERC20Basic _token) public {\n    votingToken = _token;\n  }\n\n  /**\n   * @dev voting token\n   */\n  function votingToken() public view returns (ERC20Basic) {\n    return votingToken;\n  }\n\n  /**\n   * @dev current proposal id\n   */\n  function currentProposalId() public view returns (uint256) {\n    return proposalCount;\n  }\n\n  /**\n   * @dev current proposal url\n   */\n  function currentUrl() public view returns (string) {\n    return currentProposal.url;\n  }\n\n  /**\n   * @dev current proposal hash\n   */\n  function currentHash() public view returns (uint256) {\n    return currentProposal.hash;\n  }\n\n  /**\n   * @dev current proposal started at\n  */\n  function startedAt() public view returns (uint256) {\n    return currentProposal.startedAt;\n  }\n\n  /**\n   * @dev current proposal closed at\n   */\n  function closedAt() public view returns (uint256) {\n    return currentProposal.closedAt;\n  }\n\n  /**\n   * @dev current proposal approvals\n   */\n  function voteApprovals() public view returns (uint256) {\n    return currentProposal.approvals;\n  }\n\n  /**\n   * @dev current proposal rejections\n   */\n  function voteRejections() public view returns (uint256) {\n    return currentProposal.rejections;\n  }\n\n  /**\n   * @dev current proposal hasVoted\n   */\n  function hasVoted(address _address) public view returns (bool) {\n    return currentProposal.participants[_address];\n  }\n\n  /**\n   * @dev propose a new vote. Owner only\n   */\n  function proposeVote(string url, uint256 hash) public onlyOwner {\n    currentProposal = Proposal(\n      url,\n      hash,\n      currentTime(),\n      UINT256_MAX,\n      0,\n      0\n    );\n    proposalCount++;\n    emit NewProposal(proposalCount);\n  }\n\n  /**\n   * @dev close the current vote. Owner only\n   */\n  function closeVote() public onlyOwner {\n    uint256 totalSupply = votingToken.totalSupply();\n    if (currentProposal.approvals > totalSupply / 2) {\n      emit Approved(\n        proposalCount,\n        totalSupply,\n        currentProposal.approvals,\n        currentProposal.rejections\n      );\n    } else {\n      emit Rejected(\n        proposalCount,\n        totalSupply,\n        currentProposal.approvals,\n        currentProposal.rejections\n      );\n    }\n    currentProposal.closedAt = currentTime();\n  }\n\n  /**\n   * @dev approve the current vote\n   */\n  function approveProposal() public {\n    require(currentProposal.closedAt > currentTime(), \"E01\");\n    require(!currentProposal.participants[msg.sender], \"E02\");\n    uint256 balance = votingToken.balanceOf(msg.sender);\n    require(balance > 0, \"E03\");\n\n    currentProposal.approvals = currentProposal.approvals.add(balance);\n    currentProposal.participants[msg.sender] = true;\n  }\n\n  /**\n   * @dev reject the current vote\n   */\n  function rejectProposal() public {\n    require(currentProposal.closedAt > currentTime(), \"E01\");\n    require(!currentProposal.participants[msg.sender], \"E02\");\n    uint256 balance = votingToken.balanceOf(msg.sender);\n    require(balance > 0, \"E03\");\n\n    currentProposal.rejections = currentProposal.rejections.add(balance);\n    currentProposal.participants[msg.sender] = true;\n  }\n\n  /**\n   * @dev currentTime\n   */\n  function currentTime() internal view returns (uint256) {\n    // solium-disable-next-line security/no-block-members\n    return block.timestamp;\n  }\n\n  event NewProposal(uint256 proposalId);\n  event Approved(\n  uint256 proposalId,\n  uint256 total,\n  uint256 approvals,\n  uint256 rejections);\n  event Rejected(\n  uint256 proposalId,\n  uint256 total,\n  uint256 approvals,\n  uint256 rejections);\n}\n",
  "sourcePath": "/home/node/project/contracts/demo/DemoVoting.sol",
  "compiler": {
    "name": "solc",
    "version": "0.4.24+commit.e67f0147.Emscripten.clang"
  },
  "schemaVersion": "2.0.1",
  "updatedAt": "2018-08-15T14:19:55.867Z"
}