{
  "contractName": "Dividend",
  "abi": [
    {
      "constant": false,
      "inputs": [],
      "name": "renounceOwnership",
      "outputs": [],
      "payable": false,
      "stateMutability": "nonpayable",
      "type": "function"
    },
    {
      "constant": true,
      "inputs": [],
      "name": "owner",
      "outputs": [
        {
          "name": "",
          "type": "address"
        }
      ],
      "payable": false,
      "stateMutability": "view",
      "type": "function"
    },
    {
      "constant": false,
      "inputs": [
        {
          "name": "_newOwner",
          "type": "address"
        }
      ],
      "name": "transferOwnership",
      "outputs": [],
      "payable": false,
      "stateMutability": "nonpayable",
      "type": "function"
    },
    {
      "inputs": [
        {
          "name": "_token",
          "type": "address"
        }
      ],
      "payable": false,
      "stateMutability": "nonpayable",
      "type": "constructor"
    },
    {
      "anonymous": false,
      "inputs": [
        {
          "indexed": true,
          "name": "id",
          "type": "uint256"
        },
        {
          "indexed": false,
          "name": "payToken",
          "type": "address"
        },
        {
          "indexed": false,
          "name": "amount",
          "type": "uint256"
        }
      ],
      "name": "DividendAdded",
      "type": "event"
    },
    {
      "anonymous": false,
      "inputs": [
        {
          "indexed": true,
          "name": "id",
          "type": "uint256"
        },
        {
          "indexed": true,
          "name": "holder",
          "type": "address"
        },
        {
          "indexed": false,
          "name": "amount",
          "type": "uint256"
        }
      ],
      "name": "DividendClaimed",
      "type": "event"
    },
    {
      "anonymous": false,
      "inputs": [
        {
          "indexed": false,
          "name": "token",
          "type": "address"
        }
      ],
      "name": "TokenUpdated",
      "type": "event"
    },
    {
      "anonymous": false,
      "inputs": [
        {
          "indexed": true,
          "name": "previousOwner",
          "type": "address"
        }
      ],
      "name": "OwnershipRenounced",
      "type": "event"
    },
    {
      "anonymous": false,
      "inputs": [
        {
          "indexed": true,
          "name": "previousOwner",
          "type": "address"
        },
        {
          "indexed": true,
          "name": "newOwner",
          "type": "address"
        }
      ],
      "name": "OwnershipTransferred",
      "type": "event"
    },
    {
      "anonymous": false,
      "inputs": [
        {
          "indexed": true,
          "name": "id",
          "type": "uint256"
        },
        {
          "indexed": true,
          "name": "holder",
          "type": "uint256"
        },
        {
          "indexed": false,
          "name": "amount",
          "type": "uint256"
        }
      ],
      "name": "DividendClaimed",
      "type": "event"
    },
    {
      "constant": true,
      "inputs": [],
      "name": "token",
      "outputs": [
        {
          "name": "",
          "type": "address"
        }
      ],
      "payable": false,
      "stateMutability": "view",
      "type": "function"
    },
    {
      "constant": true,
      "inputs": [],
      "name": "dividendsCount",
      "outputs": [
        {
          "name": "",
          "type": "uint256"
        }
      ],
      "payable": false,
      "stateMutability": "view",
      "type": "function"
    },
    {
      "constant": true,
      "inputs": [
        {
          "name": "_dividendId",
          "type": "uint256"
        }
      ],
      "name": "dividendPayToken",
      "outputs": [
        {
          "name": "",
          "type": "address"
        }
      ],
      "payable": false,
      "stateMutability": "view",
      "type": "function"
    },
    {
      "constant": true,
      "inputs": [
        {
          "name": "_dividendId",
          "type": "uint256"
        }
      ],
      "name": "dividendAmount",
      "outputs": [
        {
          "name": "",
          "type": "uint256"
        }
      ],
      "payable": false,
      "stateMutability": "view",
      "type": "function"
    },
    {
      "constant": true,
      "inputs": [
        {
          "name": "_dividendId",
          "type": "uint256"
        }
      ],
      "name": "dividendTotalSupply",
      "outputs": [
        {
          "name": "",
          "type": "uint256"
        }
      ],
      "payable": false,
      "stateMutability": "view",
      "type": "function"
    },
    {
      "constant": true,
      "inputs": [
        {
          "name": "_dividendId",
          "type": "uint256"
        }
      ],
      "name": "dividendCreatedAt",
      "outputs": [
        {
          "name": "",
          "type": "uint256"
        }
      ],
      "payable": false,
      "stateMutability": "view",
      "type": "function"
    },
    {
      "constant": true,
      "inputs": [
        {
          "name": "_dividendId",
          "type": "uint256"
        },
        {
          "name": "_address",
          "type": "address"
        }
      ],
      "name": "dividendClaimed",
      "outputs": [
        {
          "name": "",
          "type": "uint256"
        }
      ],
      "payable": false,
      "stateMutability": "view",
      "type": "function"
    },
    {
      "constant": true,
      "inputs": [
        {
          "name": "_dividendId",
          "type": "uint256"
        },
        {
          "name": "_address",
          "type": "address"
        }
      ],
      "name": "dividendAvailable",
      "outputs": [
        {
          "name": "",
          "type": "uint256"
        }
      ],
      "payable": false,
      "stateMutability": "view",
      "type": "function"
    },
    {
      "constant": true,
      "inputs": [
        {
          "name": "_dividendId",
          "type": "uint256"
        },
        {
          "name": "_address",
          "type": "address"
        },
        {
          "name": "_proofId",
          "type": "uint256"
        }
      ],
      "name": "dividendAvailableWithProof",
      "outputs": [
        {
          "name": "",
          "type": "uint256"
        }
      ],
      "payable": false,
      "stateMutability": "view",
      "type": "function"
    },
    {
      "constant": false,
      "inputs": [
        {
          "name": "_dividendId",
          "type": "uint256"
        }
      ],
      "name": "claimDividend",
      "outputs": [],
      "payable": false,
      "stateMutability": "nonpayable",
      "type": "function"
    },
    {
      "constant": false,
      "inputs": [
        {
          "name": "_dividendId",
          "type": "uint256"
        },
        {
          "name": "_proofId",
          "type": "uint256"
        }
      ],
      "name": "claimDividendWithProof",
      "outputs": [],
      "payable": false,
      "stateMutability": "nonpayable",
      "type": "function"
    },
    {
      "constant": false,
      "inputs": [
        {
          "name": "_payToken",
          "type": "address"
        },
        {
          "name": "_vault",
          "type": "address"
        },
        {
          "name": "_amount",
          "type": "uint256"
        }
      ],
      "name": "createDividend",
      "outputs": [],
      "payable": false,
      "stateMutability": "nonpayable",
      "type": "function"
    },
    {
      "constant": false,
      "inputs": [
        {
          "name": "_token",
          "type": "address"
        }
      ],
      "name": "updateToken",
      "outputs": [],
      "payable": false,
      "stateMutability": "nonpayable",
      "type": "function"
    }
  ],
  "bytecode": "0x608060405234801561001057600080fd5b50604051602080611a2983398101806040528101908080519060200190929190505050336000806101000a81548173ffffffffffffffffffffffffffffffffffffffff021916908373ffffffffffffffffffffffffffffffffffffffff16021790555080600160006101000a81548173ffffffffffffffffffffffffffffffffffffffff021916908373ffffffffffffffffffffffffffffffffffffffff16021790555050611965806100c46000396000f3006080604052600436106100e6576000357c0100000000000000000000000000000000000000000000000000000000900463ffffffff1680630b4bd56c146100eb578063182894971461015657806328662d21146101c357806329b97ca314610230578063715018a6146102915780637ad3def2146102a857806380873321146102eb5780638da5cb5b14610316578063940265dd1461036d5780639abd3572146103ce5780639f9d9f02146103fb578063b260d96b14610432578063c079a51114610473578063dd9552af146104b4578063f2fde38b146104f5578063fc0c546a14610538575b600080fd5b3480156100f757600080fd5b5061014060048036038101908080359060200190929190803573ffffffffffffffffffffffffffffffffffffffff1690602001909291908035906020019092919050505061058f565b6040518082815260200191505060405180910390f35b34801561016257600080fd5b50610181600480360381019080803590602001909291905050506106c2565b604051808273ffffffffffffffffffffffffffffffffffffffff1673ffffffffffffffffffffffffffffffffffffffff16815260200191505060405180910390f35b3480156101cf57600080fd5b5061022e600480360381019080803573ffffffffffffffffffffffffffffffffffffffff169060200190929190803573ffffffffffffffffffffffffffffffffffffffff16906020019092919080359060200190929190505050610702565b005b34801561023c57600080fd5b5061027b60048036038101908080359060200190929190803573ffffffffffffffffffffffffffffffffffffffff169060200190929190505050610c88565b6040518082815260200191505060405180910390f35b34801561029d57600080fd5b506102a6610ce6565b005b3480156102b457600080fd5b506102e9600480360381019080803573ffffffffffffffffffffffffffffffffffffffff169060200190929190505050610de8565b005b3480156102f757600080fd5b50610300610f0c565b6040518082815260200191505060405180910390f35b34801561032257600080fd5b5061032b610f16565b604051808273ffffffffffffffffffffffffffffffffffffffff1673ffffffffffffffffffffffffffffffffffffffff16815260200191505060405180910390f35b34801561037957600080fd5b506103b860048036038101908080359060200190929190803573ffffffffffffffffffffffffffffffffffffffff169060200190929190505050610f3b565b6040518082815260200191505060405180910390f35b3480156103da57600080fd5b506103f960048036038101908080359060200190929190505050611047565b005b34801561040757600080fd5b50610430600480360381019080803590602001909291908035906020019092919050505061105d565b005b34801561043e57600080fd5b5061045d60048036038101908080359060200190929190505050611075565b6040518082815260200191505060405180910390f35b34801561047f57600080fd5b5061049e60048036038101908080359060200190929190505050611095565b6040518082815260200191505060405180910390f35b3480156104c057600080fd5b506104df600480360381019080803590602001909291905050506110b5565b6040518082815260200191505060405180910390f35b34801561050157600080fd5b50610536600480360381019080803573ffffffffffffffffffffffffffffffffffffffff1690602001909291905050506110d5565b005b34801561054457600080fd5b5061054d61113c565b604051808273ffffffffffffffffffffffffffffffffffffffff1673ffffffffffffffffffffffffffffffffffffffff16815260200191505060405180910390f35b60006106b98484600160009054906101000a900473ffffffffffffffffffffffffffffffffffffffff1673ffffffffffffffffffffffffffffffffffffffff1663a7341e758787600260008c8152602001908152602001600020600401546040518463ffffffff167c0100000000000000000000000000000000000000000000000000000000028152600401808473ffffffffffffffffffffffffffffffffffffffff1673ffffffffffffffffffffffffffffffffffffffff1681526020018381526020018281526020019350505050602060405180830381600087803b15801561067957600080fd5b505af115801561068d573d6000803e3d6000fd5b505050506040513d60208110156106a357600080fd5b8101908080519060200190929190505050611166565b90509392505050565b60006002600083815260200190815260200160002060000160009054906101000a900473ffffffffffffffffffffffffffffffffffffffff169050919050565b6000809054906101000a900473ffffffffffffffffffffffffffffffffffffffff1673ffffffffffffffffffffffffffffffffffffffff163373ffffffffffffffffffffffffffffffffffffffff1614151561075d57600080fd5b808373ffffffffffffffffffffffffffffffffffffffff1663dd62ed3e84306040518363ffffffff167c0100000000000000000000000000000000000000000000000000000000028152600401808373ffffffffffffffffffffffffffffffffffffffff1673ffffffffffffffffffffffffffffffffffffffff1681526020018273ffffffffffffffffffffffffffffffffffffffff1673ffffffffffffffffffffffffffffffffffffffff16815260200192505050602060405180830381600087803b15801561082d57600080fd5b505af1158015610841573d6000803e3d6000fd5b505050506040513d602081101561085757600080fd5b8101908080519060200190929190505050101515156108de576040517f08c379a00000000000000000000000000000000000000000000000000000000081526004018080602001828103825260038152602001807f453031000000000000000000000000000000000000000000000000000000000081525060200191505060405180910390fd5b808373ffffffffffffffffffffffffffffffffffffffff166370a08231846040518263ffffffff167c0100000000000000000000000000000000000000000000000000000000028152600401808273ffffffffffffffffffffffffffffffffffffffff1673ffffffffffffffffffffffffffffffffffffffff168152602001915050602060405180830381600087803b15801561097a57600080fd5b505af115801561098e573d6000803e3d6000fd5b505050506040513d60208110156109a457600080fd5b810190808051906020019092919050505010151515610a2b576040517f08c379a00000000000000000000000000000000000000000000000000000000081526004018080602001828103825260038152602001807f453032000000000000000000000000000000000000000000000000000000000081525060200191505060405180910390fd5b60a0604051908101604052808473ffffffffffffffffffffffffffffffffffffffff1681526020018373ffffffffffffffffffffffffffffffffffffffff168152602001828152602001600160009054906101000a900473ffffffffffffffffffffffffffffffffffffffff1673ffffffffffffffffffffffffffffffffffffffff166318160ddd6040518163ffffffff167c0100000000000000000000000000000000000000000000000000000000028152600401602060405180830381600087803b158015610afb57600080fd5b505af1158015610b0f573d6000803e3d6000fd5b505050506040513d6020811015610b2557600080fd5b810190808051906020019092919050505081526020014281525060026000600354815260200190815260200160002060008201518160000160006101000a81548173ffffffffffffffffffffffffffffffffffffffff021916908373ffffffffffffffffffffffffffffffffffffffff16021790555060208201518160010160006101000a81548173ffffffffffffffffffffffffffffffffffffffff021916908373ffffffffffffffffffffffffffffffffffffffff1602179055506040820151816002015560608201518160030155608082015181600401559050506003547ffe6f7545fe6ac276e2864f881dca80053ec63a585035e5fbc2d206fdee2b978c8483604051808373ffffffffffffffffffffffffffffffffffffffff1673ffffffffffffffffffffffffffffffffffffffff1681526020018281526020019250505060405180910390a2600360008154809291906001019190505550505050565b60006002600084815260200190815260200160002060050160008373ffffffffffffffffffffffffffffffffffffffff1673ffffffffffffffffffffffffffffffffffffffff16815260200190815260200160002054905092915050565b6000809054906101000a900473ffffffffffffffffffffffffffffffffffffffff1673ffffffffffffffffffffffffffffffffffffffff163373ffffffffffffffffffffffffffffffffffffffff16141515610d4157600080fd5b6000809054906101000a900473ffffffffffffffffffffffffffffffffffffffff1673ffffffffffffffffffffffffffffffffffffffff167ff8df31144d9c2f0f6b59d69b8b98abd5459d07f2742c4df920b25aae33c6482060405160405180910390a260008060006101000a81548173ffffffffffffffffffffffffffffffffffffffff021916908373ffffffffffffffffffffffffffffffffffffffff160217905550565b6000809054906101000a900473ffffffffffffffffffffffffffffffffffffffff1673ffffffffffffffffffffffffffffffffffffffff163373ffffffffffffffffffffffffffffffffffffffff16141515610e4357600080fd5b80600160006101000a81548173ffffffffffffffffffffffffffffffffffffffff021916908373ffffffffffffffffffffffffffffffffffffffff1602179055507f5ba6b30cd4b2f9e9e67f4feb9b9df10d5da3b057598e6901b217b7d590345e30600160009054906101000a900473ffffffffffffffffffffffffffffffffffffffff16604051808273ffffffffffffffffffffffffffffffffffffffff1673ffffffffffffffffffffffffffffffffffffffff16815260200191505060405180910390a150565b6000600354905090565b6000809054906101000a900473ffffffffffffffffffffffffffffffffffffffff1681565b600061103f8383600160009054906101000a900473ffffffffffffffffffffffffffffffffffffffff1673ffffffffffffffffffffffffffffffffffffffff166370a08231866040518263ffffffff167c0100000000000000000000000000000000000000000000000000000000028152600401808273ffffffffffffffffffffffffffffffffffffffff1673ffffffffffffffffffffffffffffffffffffffff168152602001915050602060405180830381600087803b158015610fff57600080fd5b505af1158015611013573d6000803e3d6000fd5b505050506040513d602081101561102957600080fd5b8101908080519060200190929190505050611166565b905092915050565b61105a816110558333610f3b565b61132d565b50565b6110718261106c84338561058f565b61132d565b5050565b600060026000838152602001908152602001600020600201549050919050565b600060026000838152602001908152602001600020600301549050919050565b600060026000838152602001908152602001600020600401549050919050565b6000809054906101000a900473ffffffffffffffffffffffffffffffffffffffff1673ffffffffffffffffffffffffffffffffffffffff163373ffffffffffffffffffffffffffffffffffffffff1614151561113057600080fd5b611139816117d8565b50565b6000600160009054906101000a900473ffffffffffffffffffffffffffffffffffffffff16905090565b60008060006002600087815260200190815260200160002091508160040154600160009054906101000a900473ffffffffffffffffffffffffffffffffffffffff1673ffffffffffffffffffffffffffffffffffffffff166318ec53b2876040518263ffffffff167c0100000000000000000000000000000000000000000000000000000000028152600401808273ffffffffffffffffffffffffffffffffffffffff1673ffffffffffffffffffffffffffffffffffffffff168152602001915050602060405180830381600087803b15801561124257600080fd5b505af1158015611256573d6000803e3d6000fd5b505050506040513d602081101561126c57600080fd5b8101908080519060200190929190505050101561131f576002600087815260200190815260200160002060050160008673ffffffffffffffffffffffffffffffffffffffff1673ffffffffffffffffffffffffffffffffffffffff1681526020019081526020016000205490506113188161130a84600301546112fc8660020154896118d290919063ffffffff16565b61190a90919063ffffffff16565b61192090919063ffffffff16565b9250611324565b600092505b50509392505050565b6000808211156117d357600260008481526020019081526020016000209050818160000160009054906101000a900473ffffffffffffffffffffffffffffffffffffffff1673ffffffffffffffffffffffffffffffffffffffff166370a082318360010160009054906101000a900473ffffffffffffffffffffffffffffffffffffffff166040518263ffffffff167c0100000000000000000000000000000000000000000000000000000000028152600401808273ffffffffffffffffffffffffffffffffffffffff1673ffffffffffffffffffffffffffffffffffffffff168152602001915050602060405180830381600087803b15801561143057600080fd5b505af1158015611444573d6000803e3d6000fd5b505050506040513d602081101561145a57600080fd5b8101908080519060200190929190505050101580156115ca5750818160000160009054906101000a900473ffffffffffffffffffffffffffffffffffffffff1673ffffffffffffffffffffffffffffffffffffffff1663dd62ed3e8360010160009054906101000a900473ffffffffffffffffffffffffffffffffffffffff16306040518363ffffffff167c0100000000000000000000000000000000000000000000000000000000028152600401808373ffffffffffffffffffffffffffffffffffffffff1673ffffffffffffffffffffffffffffffffffffffff1681526020018273ffffffffffffffffffffffffffffffffffffffff1673ffffffffffffffffffffffffffffffffffffffff16815260200192505050602060405180830381600087803b15801561158c57600080fd5b505af11580156115a0573d6000803e3d6000fd5b505050506040513d60208110156115b657600080fd5b810190808051906020019092919050505010155b156117d2578060000160009054906101000a900473ffffffffffffffffffffffffffffffffffffffff1673ffffffffffffffffffffffffffffffffffffffff166323b872dd8260010160009054906101000a900473ffffffffffffffffffffffffffffffffffffffff1633856040518463ffffffff167c0100000000000000000000000000000000000000000000000000000000028152600401808473ffffffffffffffffffffffffffffffffffffffff1673ffffffffffffffffffffffffffffffffffffffff1681526020018373ffffffffffffffffffffffffffffffffffffffff1673ffffffffffffffffffffffffffffffffffffffff1681526020018281526020019350505050602060405180830381600087803b1580156116ee57600080fd5b505af1158015611702573d6000803e3d6000fd5b505050506040513d602081101561171857600080fd5b810190808051906020019092919050505050816002600085815260200190815260200160002060050160003373ffffffffffffffffffffffffffffffffffffffff1673ffffffffffffffffffffffffffffffffffffffff168152602001908152602001600020819055503373ffffffffffffffffffffffffffffffffffffffff16837fa1594d215a577c1905bcb0b5b186a40a0104714277441d4b2ac428c89bf7f4b1846040518082815260200191505060405180910390a35b5b505050565b600073ffffffffffffffffffffffffffffffffffffffff168173ffffffffffffffffffffffffffffffffffffffff161415151561181457600080fd5b8073ffffffffffffffffffffffffffffffffffffffff166000809054906101000a900473ffffffffffffffffffffffffffffffffffffffff1673ffffffffffffffffffffffffffffffffffffffff167f8be0079c531659141344cd1fd0a4f28419497f9722a3daafe3b4186f6b6457e060405160405180910390a3806000806101000a81548173ffffffffffffffffffffffffffffffffffffffff021916908373ffffffffffffffffffffffffffffffffffffffff16021790555050565b6000808314156118e55760009050611904565b81830290508183828115156118f657fe5b0414151561190057fe5b8090505b92915050565b6000818381151561191757fe5b04905092915050565b600082821115151561192e57fe5b8183039050929150505600a165627a7a7230582002b9e73d5bde4c2d9a62c88ec3b5ed0fa39702bdb5715b81c46d5551b05538240029",
  "source": "pragma solidity ^0.4.24;\n\nimport \"../zeppelin/ownership/Ownable.sol\";\nimport \"../zeppelin/token/ERC20/ERC20.sol\";\nimport \"../zeppelin/math/SafeMath.sol\";\nimport \"../token/ProvableOwnershipToken.sol\";\nimport \"../interface/IDividend.sol\";\n\n\n/**\n * @title Dividend\n * @dev Dividend contract\n *\n * @author Cyril Lapinte - <cyril.lapinte@mtpelerin.com>\n *\n * Error messages\n * E01: This contract must have access to the funds\n * E02: Not enough funds have been provided\n*/\ncontract Dividend is IDividend, Ownable {\n  using SafeMath for uint256;\n\n  // Dividends are distributed proportionnaly to ownership of (token)\n  ProvableOwnershipToken public token;\n\n  struct DividendRecord {\n    // Token to be distributed as dividend\n    ERC20 payToken;\n    // Address containing the payTokens\n    address vault;\n    // Amount of payToken to be distributed\n    uint256 amount;\n    // Total Supply of ProvableOwnershipToken at Dividend distribution time\n    uint256 totalSupply;\n    // Dividend distribution time\n    uint256 createdAt;\n    // have the user claimed his dividends\n    mapping(address => uint256) claimed;\n  }\n  mapping(uint256 => DividendRecord) internal dividends;\n  uint256 public dividendsCount;\n\n  /**\n   * @dev constructor\n   */\n  constructor(ProvableOwnershipToken _token) public { \n    token = _token;\n  }\n\n  /**\n   * @dev returns the token representing\n   * the part of the dividend to be distributed\n   */\n  function token() public view returns (ProvableOwnershipToken) {\n    return token;\n  }\n\n  /**\n   * @dev number of dividends which have been created\n   */\n  function dividendsCount() public view returns (uint256) {\n    return dividendsCount;\n  }\n\n  /**\n   * @dev token in which the dividend will be payed\n   */\n  function dividendPayToken(uint256 _dividendId)\n    public view returns (ERC20)\n  {\n    return dividends[_dividendId].payToken;\n  }\n\n  /**\n   * @dev  amount of a dividend to be distributed among the parties\n   */\n  function dividendAmount(uint256 _dividendId)\n    public view returns (uint256)\n  {\n    return dividends[_dividendId].amount;\n  }\n\n  /**\n   * @dev total supply of dividend\n   */\n  function dividendTotalSupply(uint256 _dividendId)\n    public view returns (uint256)\n  {\n    return dividends[_dividendId].totalSupply;\n  }\n\n  /**\n   * @dev dividend creation date\n   */\n  function dividendCreatedAt(uint256 _dividendId)\n    public view returns (uint256)\n  {\n    return dividends[_dividendId].createdAt;\n  }\n\n  /**\n   * @dev dividend claimed\n   */\n  function dividendClaimed(uint256 _dividendId, address _address)\n    public view returns (uint256)\n  {\n    return dividends[_dividendId].claimed[_address];\n  }\n\n  /**\n   * @dev dividend available\n   */\n  function dividendAvailable(uint256 _dividendId, address _address)\n    public view returns (uint256)\n  {\n    return evalDividendAvailable(\n      _dividendId,\n      _address,\n      token.balanceOf(_address)\n    );\n  }\n\n  /**\n   * @dev dividend available with proof\n   */\n  function dividendAvailableWithProof(\n    uint256 _dividendId,\n    address _address,\n    uint256 _proofId) public view returns (uint256)\n  {\n    return evalDividendAvailable(\n      _dividendId,\n      _address,\n      token.checkProof(_address, _proofId, dividends[_dividendId].createdAt)\n    );\n  }\n\n  /**\n   * @dev claim the dividend _dividendId without a proof of ownership\n   */\n  function claimDividend(uint256 _dividendId) public {\n    processDividendDistribution(\n      _dividendId,\n      dividendAvailable(_dividendId, msg.sender));\n  }\n\n  /**\n   * @dev claim the dividend _dividendId with a proof of ownership\n   */\n  function claimDividendWithProof(uint256 _dividendId, uint256 _proofId)\n    public\n  {\n    processDividendDistribution(\n      _dividendId,\n      dividendAvailableWithProof(_dividendId, msg.sender, _proofId)\n    );\n  }\n\n  /**\n   * @dev create a new dividend\n   */\n  function createDividend(ERC20 _payToken, address _vault, uint256 _amount)\n    public onlyOwner\n  {\n    require(_payToken.allowance(_vault, address(this)) >= _amount, \"E01\");\n    require(_payToken.balanceOf(_vault) >= _amount, \"E02\");\n    dividends[dividendsCount] = DividendRecord(\n      _payToken,\n      _vault,\n      _amount,\n      token.totalSupply(),\n      // solium-disable-next-line security/no-block-members\n      now\n    );\n    emit DividendAdded(dividendsCount, _payToken, _amount);\n    dividendsCount++;\n  }\n\n  /**\n   * @dev number of dividends created\n   */\n  function updateToken(ProvableOwnershipToken _token) public onlyOwner {\n    token = _token;\n    emit TokenUpdated(token);\n  }\n\n  /**\n   * @dev distribute the dividend corresponding to the ownership of the token\n   * found for that specific address\n   */\n  function processDividendDistribution(\n    uint256 _dividendId,\n    uint256 _amountClaimed) internal\n  {\n    if (_amountClaimed > 0) {\n      DividendRecord storage dividend = dividends[_dividendId];\n      if (dividend.payToken.balanceOf(dividend.vault) >= _amountClaimed &&\n        dividend.payToken.allowance(\n          dividend.vault, address(this)) >= _amountClaimed)\n      {\n        dividend.payToken.transferFrom(\n          dividend.vault, msg.sender, _amountClaimed);\n        dividends[_dividendId].claimed[msg.sender] = _amountClaimed;\n        emit DividendClaimed(_dividendId, msg.sender, _amountClaimed);\n      }\n    }\n  }\n\n  /**\n   * @dev dividend available\n   */\n  function evalDividendAvailable(\n    uint256 _dividendId,\n    address _address,\n    uint256 _addressBalance) private view returns (uint256)\n  {\n    DividendRecord storage dividend = dividends[_dividendId];\n    if (token.lastTransactionAt(_address) < dividend.createdAt) {\n      uint256 alreadyClaimed = dividends[_dividendId].claimed[_address];\n      return _addressBalance.mul(dividend.amount)\n        .div(dividend.totalSupply).sub(alreadyClaimed);\n    }\n    return 0;\n  }\n\n  event DividendAdded(uint256 indexed id, address payToken, uint256 amount);\n  event DividendClaimed(uint256 indexed id, address indexed holder,\n  uint256 amount);\n  event TokenUpdated(ProvableOwnershipToken token);\n}\n",
  "sourcePath": "/home/node/project/contracts/dividend/Dividend.sol",
  "compiler": {
    "name": "solc",
    "version": "0.4.24+commit.e67f0147.Emscripten.clang"
  },
  "schemaVersion": "2.0.1",
  "updatedAt": "2018-08-15T14:19:55.884Z"
}