{
  "contractName": "DividendWithRules",
  "abi": [
    {
      "constant": false,
      "inputs": [
        {
          "name": "_rules",
          "type": "address[]"
        }
      ],
      "name": "addManyRules",
      "outputs": [],
      "payable": false,
      "stateMutability": "nonpayable",
      "type": "function"
    },
    {
      "constant": true,
      "inputs": [
        {
          "name": "_dividendId",
          "type": "uint256"
        },
        {
          "name": "_address",
          "type": "address"
        },
        {
          "name": "_proofId",
          "type": "uint256"
        }
      ],
      "name": "dividendAvailableWithProof",
      "outputs": [
        {
          "name": "",
          "type": "uint256"
        }
      ],
      "payable": false,
      "stateMutability": "view",
      "type": "function"
    },
    {
      "constant": true,
      "inputs": [
        {
          "name": "_dividendId",
          "type": "uint256"
        }
      ],
      "name": "dividendPayToken",
      "outputs": [
        {
          "name": "",
          "type": "address"
        }
      ],
      "payable": false,
      "stateMutability": "view",
      "type": "function"
    },
    {
      "constant": false,
      "inputs": [
        {
          "name": "_payToken",
          "type": "address"
        },
        {
          "name": "_vault",
          "type": "address"
        },
        {
          "name": "_amount",
          "type": "uint256"
        }
      ],
      "name": "createDividend",
      "outputs": [],
      "payable": false,
      "stateMutability": "nonpayable",
      "type": "function"
    },
    {
      "constant": true,
      "inputs": [
        {
          "name": "_dividendId",
          "type": "uint256"
        },
        {
          "name": "_address",
          "type": "address"
        }
      ],
      "name": "dividendClaimed",
      "outputs": [
        {
          "name": "",
          "type": "uint256"
        }
      ],
      "payable": false,
      "stateMutability": "view",
      "type": "function"
    },
    {
      "constant": true,
      "inputs": [
        {
          "name": "_address",
          "type": "address"
        }
      ],
      "name": "validateAddress",
      "outputs": [
        {
          "name": "",
          "type": "bool"
        }
      ],
      "payable": false,
      "stateMutability": "view",
      "type": "function"
    },
    {
      "constant": false,
      "inputs": [],
      "name": "renounceOwnership",
      "outputs": [],
      "payable": false,
      "stateMutability": "nonpayable",
      "type": "function"
    },
    {
      "constant": false,
      "inputs": [
        {
          "name": "_token",
          "type": "address"
        }
      ],
      "name": "updateToken",
      "outputs": [],
      "payable": false,
      "stateMutability": "nonpayable",
      "type": "function"
    },
    {
      "constant": true,
      "inputs": [],
      "name": "dividendsCount",
      "outputs": [
        {
          "name": "",
          "type": "uint256"
        }
      ],
      "payable": false,
      "stateMutability": "view",
      "type": "function"
    },
    {
      "constant": true,
      "inputs": [],
      "name": "owner",
      "outputs": [
        {
          "name": "",
          "type": "address"
        }
      ],
      "payable": false,
      "stateMutability": "view",
      "type": "function"
    },
    {
      "constant": true,
      "inputs": [
        {
          "name": "_dividendId",
          "type": "uint256"
        },
        {
          "name": "_address",
          "type": "address"
        }
      ],
      "name": "dividendAvailable",
      "outputs": [
        {
          "name": "",
          "type": "uint256"
        }
      ],
      "payable": false,
      "stateMutability": "view",
      "type": "function"
    },
    {
      "constant": true,
      "inputs": [
        {
          "name": "_dividendId",
          "type": "uint256"
        }
      ],
      "name": "dividendAmount",
      "outputs": [
        {
          "name": "",
          "type": "uint256"
        }
      ],
      "payable": false,
      "stateMutability": "view",
      "type": "function"
    },
    {
      "constant": true,
      "inputs": [],
      "name": "ruleLength",
      "outputs": [
        {
          "name": "",
          "type": "uint256"
        }
      ],
      "payable": false,
      "stateMutability": "view",
      "type": "function"
    },
    {
      "constant": true,
      "inputs": [
        {
          "name": "_dividendId",
          "type": "uint256"
        }
      ],
      "name": "dividendTotalSupply",
      "outputs": [
        {
          "name": "",
          "type": "uint256"
        }
      ],
      "payable": false,
      "stateMutability": "view",
      "type": "function"
    },
    {
      "constant": true,
      "inputs": [
        {
          "name": "_from",
          "type": "address"
        },
        {
          "name": "_to",
          "type": "address"
        },
        {
          "name": "_amount",
          "type": "uint256"
        }
      ],
      "name": "validateTransfer",
      "outputs": [
        {
          "name": "",
          "type": "bool"
        }
      ],
      "payable": false,
      "stateMutability": "view",
      "type": "function"
    },
    {
      "constant": false,
      "inputs": [
        {
          "name": "_ruleId",
          "type": "uint256"
        }
      ],
      "name": "removeRule",
      "outputs": [],
      "payable": false,
      "stateMutability": "nonpayable",
      "type": "function"
    },
    {
      "constant": true,
      "inputs": [
        {
          "name": "_ruleId",
          "type": "uint256"
        }
      ],
      "name": "rule",
      "outputs": [
        {
          "name": "",
          "type": "address"
        }
      ],
      "payable": false,
      "stateMutability": "view",
      "type": "function"
    },
    {
      "constant": true,
      "inputs": [
        {
          "name": "_dividendId",
          "type": "uint256"
        }
      ],
      "name": "dividendCreatedAt",
      "outputs": [
        {
          "name": "",
          "type": "uint256"
        }
      ],
      "payable": false,
      "stateMutability": "view",
      "type": "function"
    },
    {
      "constant": false,
      "inputs": [
        {
          "name": "_rule",
          "type": "address"
        }
      ],
      "name": "addRule",
      "outputs": [],
      "payable": false,
      "stateMutability": "nonpayable",
      "type": "function"
    },
    {
      "constant": false,
      "inputs": [
        {
          "name": "_newOwner",
          "type": "address"
        }
      ],
      "name": "transferOwnership",
      "outputs": [],
      "payable": false,
      "stateMutability": "nonpayable",
      "type": "function"
    },
    {
      "constant": true,
      "inputs": [],
      "name": "token",
      "outputs": [
        {
          "name": "",
          "type": "address"
        }
      ],
      "payable": false,
      "stateMutability": "view",
      "type": "function"
    },
    {
      "inputs": [
        {
          "name": "_token",
          "type": "address"
        },
        {
          "name": "_rules",
          "type": "address[]"
        }
      ],
      "payable": false,
      "stateMutability": "nonpayable",
      "type": "constructor"
    },
    {
      "anonymous": false,
      "inputs": [
        {
          "indexed": false,
          "name": "ruleId",
          "type": "uint256"
        }
      ],
      "name": "RuleAdded",
      "type": "event"
    },
    {
      "anonymous": false,
      "inputs": [
        {
          "indexed": false,
          "name": "ruleId",
          "type": "uint256"
        }
      ],
      "name": "RuleRemoved",
      "type": "event"
    },
    {
      "anonymous": false,
      "inputs": [
        {
          "indexed": true,
          "name": "id",
          "type": "uint256"
        },
        {
          "indexed": false,
          "name": "payToken",
          "type": "address"
        },
        {
          "indexed": false,
          "name": "amount",
          "type": "uint256"
        }
      ],
      "name": "DividendAdded",
      "type": "event"
    },
    {
      "anonymous": false,
      "inputs": [
        {
          "indexed": true,
          "name": "id",
          "type": "uint256"
        },
        {
          "indexed": true,
          "name": "holder",
          "type": "address"
        },
        {
          "indexed": false,
          "name": "amount",
          "type": "uint256"
        }
      ],
      "name": "DividendClaimed",
      "type": "event"
    },
    {
      "anonymous": false,
      "inputs": [
        {
          "indexed": false,
          "name": "token",
          "type": "address"
        }
      ],
      "name": "TokenUpdated",
      "type": "event"
    },
    {
      "anonymous": false,
      "inputs": [
        {
          "indexed": true,
          "name": "previousOwner",
          "type": "address"
        }
      ],
      "name": "OwnershipRenounced",
      "type": "event"
    },
    {
      "anonymous": false,
      "inputs": [
        {
          "indexed": true,
          "name": "previousOwner",
          "type": "address"
        },
        {
          "indexed": true,
          "name": "newOwner",
          "type": "address"
        }
      ],
      "name": "OwnershipTransferred",
      "type": "event"
    },
    {
      "anonymous": false,
      "inputs": [
        {
          "indexed": true,
          "name": "id",
          "type": "uint256"
        },
        {
          "indexed": true,
          "name": "holder",
          "type": "uint256"
        },
        {
          "indexed": false,
          "name": "amount",
          "type": "uint256"
        }
      ],
      "name": "DividendClaimed",
      "type": "event"
    },
    {
      "constant": false,
      "inputs": [
        {
          "name": "_dividendId",
          "type": "uint256"
        }
      ],
      "name": "claimDividend",
      "outputs": [],
      "payable": false,
      "stateMutability": "nonpayable",
      "type": "function"
    },
    {
      "constant": false,
      "inputs": [
        {
          "name": "_dividendId",
          "type": "uint256"
        },
        {
          "name": "_proofId",
          "type": "uint256"
        }
      ],
      "name": "claimDividendWithProof",
      "outputs": [],
      "payable": false,
      "stateMutability": "nonpayable",
      "type": "function"
    }
  ],
  "bytecode": "0x60806040523480156200001157600080fd5b50604051620026513803806200265183398101806040528101908080519060200190929190805182019291905050508082336000806101000a81548173ffffffffffffffffffffffffffffffffffffffff021916908373ffffffffffffffffffffffffffffffffffffffff16021790555080600160006101000a81548173ffffffffffffffffffffffffffffffffffffffff021916908373ffffffffffffffffffffffffffffffffffffffff160217905550508060049080519060200190620000dc929190620000e6565b50505050620001bb565b82805482825590600052602060002090810192821562000162579160200282015b82811115620001615782518260006101000a81548173ffffffffffffffffffffffffffffffffffffffff021916908373ffffffffffffffffffffffffffffffffffffffff1602179055509160200191906001019062000107565b5b50905062000171919062000175565b5090565b620001b891905b80821115620001b457600081816101000a81549073ffffffffffffffffffffffffffffffffffffffff0219169055506001016200017c565b5090565b90565b61248680620001cb6000396000f300608060405260043610610133576000357c0100000000000000000000000000000000000000000000000000000000900463ffffffff1680630ad8f8ee146101385780630b4bd56c1461019e578063182894971461020957806328662d211461027657806329b97ca3146102e35780635e8e30a614610344578063715018a61461039f5780637ad3def2146103b657806380873321146103f95780638da5cb5b14610424578063940265dd1461047b5780639abd3572146104dc5780639f9d9f0214610509578063b260d96b14610540578063b462741614610581578063c079a511146105ac578063c6946a12146105ed578063d70da38b14610672578063db18af6c1461069f578063dd9552af1461070c578063e3c4602c1461074d578063f2fde38b14610790578063fc0c546a146107d3575b600080fd5b34801561014457600080fd5b5061019c6004803603810190808035906020019082018035906020019080806020026020016040519081016040528093929190818152602001838360200280828437820191505050505050919291929050505061082a565b005b3480156101aa57600080fd5b506101f360048036038101908080359060200190929190803573ffffffffffffffffffffffffffffffffffffffff169060200190929190803590602001909291905050506108d6565b6040518082815260200191505060405180910390f35b34801561021557600080fd5b5061023460048036038101908080359060200190929190505050610a09565b604051808273ffffffffffffffffffffffffffffffffffffffff1673ffffffffffffffffffffffffffffffffffffffff16815260200191505060405180910390f35b34801561028257600080fd5b506102e1600480360381019080803573ffffffffffffffffffffffffffffffffffffffff169060200190929190803573ffffffffffffffffffffffffffffffffffffffff16906020019092919080359060200190929190505050610a49565b005b3480156102ef57600080fd5b5061032e60048036038101908080359060200190929190803573ffffffffffffffffffffffffffffffffffffffff169060200190929190505050610fcf565b6040518082815260200191505060405180910390f35b34801561035057600080fd5b50610385600480360381019080803573ffffffffffffffffffffffffffffffffffffffff16906020019092919050505061102d565b604051808215151515815260200191505060405180910390f35b3480156103ab57600080fd5b506103b4611178565b005b3480156103c257600080fd5b506103f7600480360381019080803573ffffffffffffffffffffffffffffffffffffffff16906020019092919050505061127a565b005b34801561040557600080fd5b5061040e61139e565b6040518082815260200191505060405180910390f35b34801561043057600080fd5b506104396113a8565b604051808273ffffffffffffffffffffffffffffffffffffffff1673ffffffffffffffffffffffffffffffffffffffff16815260200191505060405180910390f35b34801561048757600080fd5b506104c660048036038101908080359060200190929190803573ffffffffffffffffffffffffffffffffffffffff1690602001909291905050506113cd565b6040518082815260200191505060405180910390f35b3480156104e857600080fd5b50610507600480360381019080803590602001909291905050506114d9565b005b34801561051557600080fd5b5061053e6004803603810190808035906020019092919080359060200190929190505050611564565b005b34801561054c57600080fd5b5061056b600480360381019080803590602001909291905050506115f1565b6040518082815260200191505060405180910390f35b34801561058d57600080fd5b50610596611611565b6040518082815260200191505060405180910390f35b3480156105b857600080fd5b506105d76004803603810190808035906020019092919050505061161e565b6040518082815260200191505060405180910390f35b3480156105f957600080fd5b50610658600480360381019080803573ffffffffffffffffffffffffffffffffffffffff169060200190929190803573ffffffffffffffffffffffffffffffffffffffff1690602001909291908035906020019092919050505061163e565b604051808215151515815260200191505060405180910390f35b34801561067e57600080fd5b5061069d600480360381019080803590602001909291905050506117c7565b005b3480156106ab57600080fd5b506106ca600480360381019080803590602001909291905050506119d5565b604051808273ffffffffffffffffffffffffffffffffffffffff1673ffffffffffffffffffffffffffffffffffffffff16815260200191505060405180910390f35b34801561071857600080fd5b5061073760048036038101908080359060200190929190505050611a18565b6040518082815260200191505060405180910390f35b34801561075957600080fd5b5061078e600480360381019080803573ffffffffffffffffffffffffffffffffffffffff169060200190929190505050611a38565b005b34801561079c57600080fd5b506107d1600480360381019080803573ffffffffffffffffffffffffffffffffffffffff169060200190929190505050611b77565b005b3480156107df57600080fd5b506107e8611bde565b604051808273ffffffffffffffffffffffffffffffffffffffff1673ffffffffffffffffffffffffffffffffffffffff16815260200191505060405180910390f35b60008060009054906101000a900473ffffffffffffffffffffffffffffffffffffffff1673ffffffffffffffffffffffffffffffffffffffff163373ffffffffffffffffffffffffffffffffffffffff1614151561088757600080fd5b6000825111151561089757600080fd5b600090505b81518110156108d2576108c582828151811015156108b657fe5b90602001906020020151611a38565b808060010191505061089c565b5050565b6000610a008484600160009054906101000a900473ffffffffffffffffffffffffffffffffffffffff1673ffffffffffffffffffffffffffffffffffffffff1663a7341e758787600260008c8152602001908152602001600020600401546040518463ffffffff167c0100000000000000000000000000000000000000000000000000000000028152600401808473ffffffffffffffffffffffffffffffffffffffff1673ffffffffffffffffffffffffffffffffffffffff1681526020018381526020018281526020019350505050602060405180830381600087803b1580156109c057600080fd5b505af11580156109d4573d6000803e3d6000fd5b505050506040513d60208110156109ea57600080fd5b8101908080519060200190929190505050611c08565b90509392505050565b60006002600083815260200190815260200160002060000160009054906101000a900473ffffffffffffffffffffffffffffffffffffffff169050919050565b6000809054906101000a900473ffffffffffffffffffffffffffffffffffffffff1673ffffffffffffffffffffffffffffffffffffffff163373ffffffffffffffffffffffffffffffffffffffff16141515610aa457600080fd5b808373ffffffffffffffffffffffffffffffffffffffff1663dd62ed3e84306040518363ffffffff167c0100000000000000000000000000000000000000000000000000000000028152600401808373ffffffffffffffffffffffffffffffffffffffff1673ffffffffffffffffffffffffffffffffffffffff1681526020018273ffffffffffffffffffffffffffffffffffffffff1673ffffffffffffffffffffffffffffffffffffffff16815260200192505050602060405180830381600087803b158015610b7457600080fd5b505af1158015610b88573d6000803e3d6000fd5b505050506040513d6020811015610b9e57600080fd5b810190808051906020019092919050505010151515610c25576040517f08c379a00000000000000000000000000000000000000000000000000000000081526004018080602001828103825260038152602001807f453031000000000000000000000000000000000000000000000000000000000081525060200191505060405180910390fd5b808373ffffffffffffffffffffffffffffffffffffffff166370a08231846040518263ffffffff167c0100000000000000000000000000000000000000000000000000000000028152600401808273ffffffffffffffffffffffffffffffffffffffff1673ffffffffffffffffffffffffffffffffffffffff168152602001915050602060405180830381600087803b158015610cc157600080fd5b505af1158015610cd5573d6000803e3d6000fd5b505050506040513d6020811015610ceb57600080fd5b810190808051906020019092919050505010151515610d72576040517f08c379a00000000000000000000000000000000000000000000000000000000081526004018080602001828103825260038152602001807f453032000000000000000000000000000000000000000000000000000000000081525060200191505060405180910390fd5b60a0604051908101604052808473ffffffffffffffffffffffffffffffffffffffff1681526020018373ffffffffffffffffffffffffffffffffffffffff168152602001828152602001600160009054906101000a900473ffffffffffffffffffffffffffffffffffffffff1673ffffffffffffffffffffffffffffffffffffffff166318160ddd6040518163ffffffff167c0100000000000000000000000000000000000000000000000000000000028152600401602060405180830381600087803b158015610e4257600080fd5b505af1158015610e56573d6000803e3d6000fd5b505050506040513d6020811015610e6c57600080fd5b810190808051906020019092919050505081526020014281525060026000600354815260200190815260200160002060008201518160000160006101000a81548173ffffffffffffffffffffffffffffffffffffffff021916908373ffffffffffffffffffffffffffffffffffffffff16021790555060208201518160010160006101000a81548173ffffffffffffffffffffffffffffffffffffffff021916908373ffffffffffffffffffffffffffffffffffffffff1602179055506040820151816002015560608201518160030155608082015181600401559050506003547ffe6f7545fe6ac276e2864f881dca80053ec63a585035e5fbc2d206fdee2b978c8483604051808373ffffffffffffffffffffffffffffffffffffffff1673ffffffffffffffffffffffffffffffffffffffff1681526020018281526020019250505060405180910390a2600360008154809291906001019190505550505050565b60006002600084815260200190815260200160002060050160008373ffffffffffffffffffffffffffffffffffffffff1673ffffffffffffffffffffffffffffffffffffffff16815260200190815260200160002054905092915050565b600080600090505b60048054905081101561116d5760048181548110151561105157fe5b9060005260206000200160009054906101000a900473ffffffffffffffffffffffffffffffffffffffff1673ffffffffffffffffffffffffffffffffffffffff1663cf31ff86846040518263ffffffff167c0100000000000000000000000000000000000000000000000000000000028152600401808273ffffffffffffffffffffffffffffffffffffffff1673ffffffffffffffffffffffffffffffffffffffff168152602001915050602060405180830381600087803b15801561111657600080fd5b505af115801561112a573d6000803e3d6000fd5b505050506040513d602081101561114057600080fd5b810190808051906020019092919050505015156111605760009150611172565b8080600101915050611035565b600191505b50919050565b6000809054906101000a900473ffffffffffffffffffffffffffffffffffffffff1673ffffffffffffffffffffffffffffffffffffffff163373ffffffffffffffffffffffffffffffffffffffff161415156111d357600080fd5b6000809054906101000a900473ffffffffffffffffffffffffffffffffffffffff1673ffffffffffffffffffffffffffffffffffffffff167ff8df31144d9c2f0f6b59d69b8b98abd5459d07f2742c4df920b25aae33c6482060405160405180910390a260008060006101000a81548173ffffffffffffffffffffffffffffffffffffffff021916908373ffffffffffffffffffffffffffffffffffffffff160217905550565b6000809054906101000a900473ffffffffffffffffffffffffffffffffffffffff1673ffffffffffffffffffffffffffffffffffffffff163373ffffffffffffffffffffffffffffffffffffffff161415156112d557600080fd5b80600160006101000a81548173ffffffffffffffffffffffffffffffffffffffff021916908373ffffffffffffffffffffffffffffffffffffffff1602179055507f5ba6b30cd4b2f9e9e67f4feb9b9df10d5da3b057598e6901b217b7d590345e30600160009054906101000a900473ffffffffffffffffffffffffffffffffffffffff16604051808273ffffffffffffffffffffffffffffffffffffffff1673ffffffffffffffffffffffffffffffffffffffff16815260200191505060405180910390a150565b6000600354905090565b6000809054906101000a900473ffffffffffffffffffffffffffffffffffffffff1681565b60006114d18383600160009054906101000a900473ffffffffffffffffffffffffffffffffffffffff1673ffffffffffffffffffffffffffffffffffffffff166370a08231866040518263ffffffff167c0100000000000000000000000000000000000000000000000000000000028152600401808273ffffffffffffffffffffffffffffffffffffffff1673ffffffffffffffffffffffffffffffffffffffff168152602001915050602060405180830381600087803b15801561149157600080fd5b505af11580156114a5573d6000803e3d6000fd5b505050506040513d60208110156114bb57600080fd5b8101908080519060200190929190505050611c08565b905092915050565b336114e38161102d565b1515611557576040517f08c379a000000000000000000000000000000000000000000000000000000000815260040180806020018281038252600c8152602001807f5749544852554c45535f3031000000000000000000000000000000000000000081525060200191505060405180910390fd5b61156082611dcf565b5050565b3361156e8161102d565b15156115e2576040517f08c379a000000000000000000000000000000000000000000000000000000000815260040180806020018281038252600c8152602001807f5749544852554c45535f3031000000000000000000000000000000000000000081525060200191505060405180910390fd5b6115ec8383611de5565b505050565b600060026000838152602001908152602001600020600201549050919050565b6000600480549050905090565b600060026000838152602001908152602001600020600301549050919050565b600080600090505b6004805490508110156117ba5760048181548110151561166257fe5b9060005260206000200160009054906101000a900473ffffffffffffffffffffffffffffffffffffffff1673ffffffffffffffffffffffffffffffffffffffff166340ecb7f28686866040518463ffffffff167c0100000000000000000000000000000000000000000000000000000000028152600401808473ffffffffffffffffffffffffffffffffffffffff1673ffffffffffffffffffffffffffffffffffffffff1681526020018373ffffffffffffffffffffffffffffffffffffffff1673ffffffffffffffffffffffffffffffffffffffff1681526020018281526020019350505050602060405180830381600087803b15801561176357600080fd5b505af1158015611777573d6000803e3d6000fd5b505050506040513d602081101561178d57600080fd5b810190808051906020019092919050505015156117ad57600091506117bf565b8080600101915050611646565b600191505b509392505050565b6000809054906101000a900473ffffffffffffffffffffffffffffffffffffffff1673ffffffffffffffffffffffffffffffffffffffff163373ffffffffffffffffffffffffffffffffffffffff1614151561182257600080fd5b6004805490508110151561189e576040517f08c379a000000000000000000000000000000000000000000000000000000000815260040180806020018281038252600c8152602001807f5749544852554c45535f3033000000000000000000000000000000000000000081525060200191505060405180910390fd5b6004818154811015156118ad57fe5b9060005260206000200160006101000a81549073ffffffffffffffffffffffffffffffffffffffff02191690556001600480549050038114151561198557600460016004805490500381548110151561190257fe5b9060005260206000200160009054906101000a900473ffffffffffffffffffffffffffffffffffffffff1660048281548110151561193c57fe5b9060005260206000200160006101000a81548173ffffffffffffffffffffffffffffffffffffffff021916908373ffffffffffffffffffffffffffffffffffffffff1602179055505b600480548091906001900361199a9190612409565b507f77541af0dd2301e15fec88d72dd3f4aa2f9e5aaaaf8bb55c947241b8aa6d2960816040518082815260200191505060405180910390a150565b60006004828154811015156119e657fe5b9060005260206000200160009054906101000a900473ffffffffffffffffffffffffffffffffffffffff169050919050565b600060026000838152602001908152602001600020600401549050919050565b6000809054906101000a900473ffffffffffffffffffffffffffffffffffffffff1673ffffffffffffffffffffffffffffffffffffffff163373ffffffffffffffffffffffffffffffffffffffff16141515611a9357600080fd5b600073ffffffffffffffffffffffffffffffffffffffff168173ffffffffffffffffffffffffffffffffffffffff1614151515611acf57600080fd5b60048190806001815401808255809150509060018203906000526020600020016000909192909190916101000a81548173ffffffffffffffffffffffffffffffffffffffff021916908373ffffffffffffffffffffffffffffffffffffffff160217905550507fa88439494cfc042ca92b5192ccdaed0691a1321dffd0c4cda4df3b052c73c9186001600480549050036040518082815260200191505060405180910390a150565b6000809054906101000a900473ffffffffffffffffffffffffffffffffffffffff1673ffffffffffffffffffffffffffffffffffffffff163373ffffffffffffffffffffffffffffffffffffffff16141515611bd257600080fd5b611bdb81611dfd565b50565b6000600160009054906101000a900473ffffffffffffffffffffffffffffffffffffffff16905090565b60008060006002600087815260200190815260200160002091508160040154600160009054906101000a900473ffffffffffffffffffffffffffffffffffffffff1673ffffffffffffffffffffffffffffffffffffffff166318ec53b2876040518263ffffffff167c0100000000000000000000000000000000000000000000000000000000028152600401808273ffffffffffffffffffffffffffffffffffffffff1673ffffffffffffffffffffffffffffffffffffffff168152602001915050602060405180830381600087803b158015611ce457600080fd5b505af1158015611cf8573d6000803e3d6000fd5b505050506040513d6020811015611d0e57600080fd5b81019080805190602001909291905050501015611dc1576002600087815260200190815260200160002060050160008673ffffffffffffffffffffffffffffffffffffffff1673ffffffffffffffffffffffffffffffffffffffff168152602001908152602001600020549050611dba81611dac8460030154611d9e866002015489611ef790919063ffffffff16565b611f2f90919063ffffffff16565b611f4590919063ffffffff16565b9250611dc6565b600092505b50509392505050565b611de281611ddd83336113cd565b611f5e565b50565b611df982611df48433856108d6565b611f5e565b5050565b600073ffffffffffffffffffffffffffffffffffffffff168173ffffffffffffffffffffffffffffffffffffffff1614151515611e3957600080fd5b8073ffffffffffffffffffffffffffffffffffffffff166000809054906101000a900473ffffffffffffffffffffffffffffffffffffffff1673ffffffffffffffffffffffffffffffffffffffff167f8be0079c531659141344cd1fd0a4f28419497f9722a3daafe3b4186f6b6457e060405160405180910390a3806000806101000a81548173ffffffffffffffffffffffffffffffffffffffff021916908373ffffffffffffffffffffffffffffffffffffffff16021790555050565b600080831415611f0a5760009050611f29565b8183029050818382811515611f1b57fe5b04141515611f2557fe5b8090505b92915050565b60008183811515611f3c57fe5b04905092915050565b6000828211151515611f5357fe5b818303905092915050565b60008082111561240457600260008481526020019081526020016000209050818160000160009054906101000a900473ffffffffffffffffffffffffffffffffffffffff1673ffffffffffffffffffffffffffffffffffffffff166370a082318360010160009054906101000a900473ffffffffffffffffffffffffffffffffffffffff166040518263ffffffff167c0100000000000000000000000000000000000000000000000000000000028152600401808273ffffffffffffffffffffffffffffffffffffffff1673ffffffffffffffffffffffffffffffffffffffff168152602001915050602060405180830381600087803b15801561206157600080fd5b505af1158015612075573d6000803e3d6000fd5b505050506040513d602081101561208b57600080fd5b8101908080519060200190929190505050101580156121fb5750818160000160009054906101000a900473ffffffffffffffffffffffffffffffffffffffff1673ffffffffffffffffffffffffffffffffffffffff1663dd62ed3e8360010160009054906101000a900473ffffffffffffffffffffffffffffffffffffffff16306040518363ffffffff167c0100000000000000000000000000000000000000000000000000000000028152600401808373ffffffffffffffffffffffffffffffffffffffff1673ffffffffffffffffffffffffffffffffffffffff1681526020018273ffffffffffffffffffffffffffffffffffffffff1673ffffffffffffffffffffffffffffffffffffffff16815260200192505050602060405180830381600087803b1580156121bd57600080fd5b505af11580156121d1573d6000803e3d6000fd5b505050506040513d60208110156121e757600080fd5b810190808051906020019092919050505010155b15612403578060000160009054906101000a900473ffffffffffffffffffffffffffffffffffffffff1673ffffffffffffffffffffffffffffffffffffffff166323b872dd8260010160009054906101000a900473ffffffffffffffffffffffffffffffffffffffff1633856040518463ffffffff167c0100000000000000000000000000000000000000000000000000000000028152600401808473ffffffffffffffffffffffffffffffffffffffff1673ffffffffffffffffffffffffffffffffffffffff1681526020018373ffffffffffffffffffffffffffffffffffffffff1673ffffffffffffffffffffffffffffffffffffffff1681526020018281526020019350505050602060405180830381600087803b15801561231f57600080fd5b505af1158015612333573d6000803e3d6000fd5b505050506040513d602081101561234957600080fd5b810190808051906020019092919050505050816002600085815260200190815260200160002060050160003373ffffffffffffffffffffffffffffffffffffffff1673ffffffffffffffffffffffffffffffffffffffff168152602001908152602001600020819055503373ffffffffffffffffffffffffffffffffffffffff16837fa1594d215a577c1905bcb0b5b186a40a0104714277441d4b2ac428c89bf7f4b1846040518082815260200191505060405180910390a35b5b505050565b8154818355818111156124305781836000526020600020918201910161242f9190612435565b5b505050565b61245791905b8082111561245357600081600090555060010161243b565b5090565b905600a165627a7a7230582048bc98830591b445613d4c523e8c786cf206eacecd5f9487733ee877e08911ea0029",
  "source": "pragma solidity ^0.4.24;\n\nimport \"../zeppelin/ownership/Ownable.sol\";\nimport \"../zeppelin/token/ERC20/ERC20.sol\";\nimport \"../zeppelin/math/SafeMath.sol\";\nimport \"../token/ProvableOwnershipToken.sol\";\nimport \"../dividend/Dividend.sol\";\nimport \"../rule/WithRules.sol\";\n\n\n/**\n * @title DividendWithRules\n * @dev DividendWithRules contract\n *\n * @author Cyril Lapinte - <cyril.lapinte@mtpelerin.com>\n */\ncontract DividendWithRules is Dividend, WithRules {\n\n  /**\n   * @dev constructor\n   */\n  constructor(ProvableOwnershipToken _token, IRule[] _rules) public\n    Dividend(_token) WithRules(_rules)\n  { }\n\n  /**\n   * @dev claim the next dividend without a proof of ownership\n   */\n  function claimDividend(uint256 _dividendId) public\n    whenAddressRulesAreValid(msg.sender)\n  {\n    super.claimDividend(_dividendId);\n  }\n\n  /**\n   * @dev claim the next dividend with a proof of ownership\n   */\n  function claimDividendWithProof(uint256 _dividendId, uint256 _proofId) public\n    whenAddressRulesAreValid(msg.sender)\n  {\n    super.claimDividendWithProof(_dividendId, _proofId);\n  }\n}\n",
  "sourcePath": "/home/node/project/contracts/dividend/DividendWithRules.sol",
  "compiler": {
    "name": "solc",
    "version": "0.4.24+commit.e67f0147.Emscripten.clang"
  },
  "schemaVersion": "2.0.1",
  "updatedAt": "2018-08-15T14:19:55.920Z"
}