{
  "contractName": "DividendWithRulesClaimable",
  "abi": [
    {
      "constant": false,
      "inputs": [
        {
          "name": "_rules",
          "type": "address[]"
        }
      ],
      "name": "addManyRules",
      "outputs": [],
      "payable": false,
      "stateMutability": "nonpayable",
      "type": "function"
    },
    {
      "constant": true,
      "inputs": [
        {
          "name": "_dividendId",
          "type": "uint256"
        },
        {
          "name": "_address",
          "type": "address"
        },
        {
          "name": "_proofId",
          "type": "uint256"
        }
      ],
      "name": "dividendAvailableWithProof",
      "outputs": [
        {
          "name": "",
          "type": "uint256"
        }
      ],
      "payable": false,
      "stateMutability": "view",
      "type": "function"
    },
    {
      "constant": true,
      "inputs": [
        {
          "name": "_dividendId",
          "type": "uint256"
        }
      ],
      "name": "dividendPayToken",
      "outputs": [
        {
          "name": "",
          "type": "address"
        }
      ],
      "payable": false,
      "stateMutability": "view",
      "type": "function"
    },
    {
      "constant": false,
      "inputs": [
        {
          "name": "_payToken",
          "type": "address"
        },
        {
          "name": "_vault",
          "type": "address"
        },
        {
          "name": "_amount",
          "type": "uint256"
        }
      ],
      "name": "createDividend",
      "outputs": [],
      "payable": false,
      "stateMutability": "nonpayable",
      "type": "function"
    },
    {
      "constant": true,
      "inputs": [
        {
          "name": "_dividendId",
          "type": "uint256"
        },
        {
          "name": "_address",
          "type": "address"
        }
      ],
      "name": "dividendClaimed",
      "outputs": [
        {
          "name": "",
          "type": "uint256"
        }
      ],
      "payable": false,
      "stateMutability": "view",
      "type": "function"
    },
    {
      "constant": true,
      "inputs": [
        {
          "name": "_address",
          "type": "address"
        }
      ],
      "name": "validateAddress",
      "outputs": [
        {
          "name": "",
          "type": "bool"
        }
      ],
      "payable": false,
      "stateMutability": "view",
      "type": "function"
    },
    {
      "constant": false,
      "inputs": [],
      "name": "renounceOwnership",
      "outputs": [],
      "payable": false,
      "stateMutability": "nonpayable",
      "type": "function"
    },
    {
      "constant": false,
      "inputs": [
        {
          "name": "_token",
          "type": "address"
        }
      ],
      "name": "updateToken",
      "outputs": [],
      "payable": false,
      "stateMutability": "nonpayable",
      "type": "function"
    },
    {
      "constant": true,
      "inputs": [],
      "name": "dividendsCount",
      "outputs": [
        {
          "name": "",
          "type": "uint256"
        }
      ],
      "payable": false,
      "stateMutability": "view",
      "type": "function"
    },
    {
      "constant": true,
      "inputs": [],
      "name": "owner",
      "outputs": [
        {
          "name": "",
          "type": "address"
        }
      ],
      "payable": false,
      "stateMutability": "view",
      "type": "function"
    },
    {
      "constant": true,
      "inputs": [
        {
          "name": "_dividendId",
          "type": "uint256"
        },
        {
          "name": "_address",
          "type": "address"
        }
      ],
      "name": "dividendAvailable",
      "outputs": [
        {
          "name": "",
          "type": "uint256"
        }
      ],
      "payable": false,
      "stateMutability": "view",
      "type": "function"
    },
    {
      "constant": false,
      "inputs": [
        {
          "name": "_dividendId",
          "type": "uint256"
        }
      ],
      "name": "claimDividend",
      "outputs": [],
      "payable": false,
      "stateMutability": "nonpayable",
      "type": "function"
    },
    {
      "constant": false,
      "inputs": [
        {
          "name": "_dividendId",
          "type": "uint256"
        },
        {
          "name": "_proofId",
          "type": "uint256"
        }
      ],
      "name": "claimDividendWithProof",
      "outputs": [],
      "payable": false,
      "stateMutability": "nonpayable",
      "type": "function"
    },
    {
      "constant": true,
      "inputs": [
        {
          "name": "_dividendId",
          "type": "uint256"
        }
      ],
      "name": "dividendAmount",
      "outputs": [
        {
          "name": "",
          "type": "uint256"
        }
      ],
      "payable": false,
      "stateMutability": "view",
      "type": "function"
    },
    {
      "constant": true,
      "inputs": [],
      "name": "ruleLength",
      "outputs": [
        {
          "name": "",
          "type": "uint256"
        }
      ],
      "payable": false,
      "stateMutability": "view",
      "type": "function"
    },
    {
      "constant": true,
      "inputs": [
        {
          "name": "_dividendId",
          "type": "uint256"
        }
      ],
      "name": "dividendTotalSupply",
      "outputs": [
        {
          "name": "",
          "type": "uint256"
        }
      ],
      "payable": false,
      "stateMutability": "view",
      "type": "function"
    },
    {
      "constant": true,
      "inputs": [
        {
          "name": "_from",
          "type": "address"
        },
        {
          "name": "_to",
          "type": "address"
        },
        {
          "name": "_amount",
          "type": "uint256"
        }
      ],
      "name": "validateTransfer",
      "outputs": [
        {
          "name": "",
          "type": "bool"
        }
      ],
      "payable": false,
      "stateMutability": "view",
      "type": "function"
    },
    {
      "constant": false,
      "inputs": [
        {
          "name": "_ruleId",
          "type": "uint256"
        }
      ],
      "name": "removeRule",
      "outputs": [],
      "payable": false,
      "stateMutability": "nonpayable",
      "type": "function"
    },
    {
      "constant": true,
      "inputs": [
        {
          "name": "_ruleId",
          "type": "uint256"
        }
      ],
      "name": "rule",
      "outputs": [
        {
          "name": "",
          "type": "address"
        }
      ],
      "payable": false,
      "stateMutability": "view",
      "type": "function"
    },
    {
      "constant": true,
      "inputs": [
        {
          "name": "_dividendId",
          "type": "uint256"
        }
      ],
      "name": "dividendCreatedAt",
      "outputs": [
        {
          "name": "",
          "type": "uint256"
        }
      ],
      "payable": false,
      "stateMutability": "view",
      "type": "function"
    },
    {
      "constant": false,
      "inputs": [
        {
          "name": "_rule",
          "type": "address"
        }
      ],
      "name": "addRule",
      "outputs": [],
      "payable": false,
      "stateMutability": "nonpayable",
      "type": "function"
    },
    {
      "constant": false,
      "inputs": [
        {
          "name": "_newOwner",
          "type": "address"
        }
      ],
      "name": "transferOwnership",
      "outputs": [],
      "payable": false,
      "stateMutability": "nonpayable",
      "type": "function"
    },
    {
      "constant": true,
      "inputs": [],
      "name": "token",
      "outputs": [
        {
          "name": "",
          "type": "address"
        }
      ],
      "payable": false,
      "stateMutability": "view",
      "type": "function"
    },
    {
      "inputs": [
        {
          "name": "_token",
          "type": "address"
        },
        {
          "name": "_rules",
          "type": "address[]"
        }
      ],
      "payable": false,
      "stateMutability": "nonpayable",
      "type": "constructor"
    },
    {
      "anonymous": false,
      "inputs": [
        {
          "indexed": false,
          "name": "ruleId",
          "type": "uint256"
        }
      ],
      "name": "RuleAdded",
      "type": "event"
    },
    {
      "anonymous": false,
      "inputs": [
        {
          "indexed": false,
          "name": "ruleId",
          "type": "uint256"
        }
      ],
      "name": "RuleRemoved",
      "type": "event"
    },
    {
      "anonymous": false,
      "inputs": [
        {
          "indexed": true,
          "name": "id",
          "type": "uint256"
        },
        {
          "indexed": false,
          "name": "payToken",
          "type": "address"
        },
        {
          "indexed": false,
          "name": "amount",
          "type": "uint256"
        }
      ],
      "name": "DividendAdded",
      "type": "event"
    },
    {
      "anonymous": false,
      "inputs": [
        {
          "indexed": true,
          "name": "id",
          "type": "uint256"
        },
        {
          "indexed": true,
          "name": "holder",
          "type": "address"
        },
        {
          "indexed": false,
          "name": "amount",
          "type": "uint256"
        }
      ],
      "name": "DividendClaimed",
      "type": "event"
    },
    {
      "anonymous": false,
      "inputs": [
        {
          "indexed": false,
          "name": "token",
          "type": "address"
        }
      ],
      "name": "TokenUpdated",
      "type": "event"
    },
    {
      "anonymous": false,
      "inputs": [
        {
          "indexed": true,
          "name": "previousOwner",
          "type": "address"
        }
      ],
      "name": "OwnershipRenounced",
      "type": "event"
    },
    {
      "anonymous": false,
      "inputs": [
        {
          "indexed": true,
          "name": "previousOwner",
          "type": "address"
        },
        {
          "indexed": true,
          "name": "newOwner",
          "type": "address"
        }
      ],
      "name": "OwnershipTransferred",
      "type": "event"
    },
    {
      "anonymous": false,
      "inputs": [
        {
          "indexed": true,
          "name": "id",
          "type": "uint256"
        },
        {
          "indexed": true,
          "name": "holder",
          "type": "uint256"
        },
        {
          "indexed": false,
          "name": "amount",
          "type": "uint256"
        }
      ],
      "name": "DividendClaimed",
      "type": "event"
    },
    {
      "constant": true,
      "inputs": [
        {
          "name": "",
          "type": "address"
        },
        {
          "name": "_at",
          "type": "uint256"
        }
      ],
      "name": "hasClaimsSince",
      "outputs": [
        {
          "name": "",
          "type": "bool"
        }
      ],
      "payable": false,
      "stateMutability": "view",
      "type": "function"
    }
  ],
  "bytecode": "0x60806040523480156200001157600080fd5b50604051620026ed380380620026ed833981018060405281019080805190602001909291908051820192919050505081818082336000806101000a81548173ffffffffffffffffffffffffffffffffffffffff021916908373ffffffffffffffffffffffffffffffffffffffff16021790555080600160006101000a81548173ffffffffffffffffffffffffffffffffffffffff021916908373ffffffffffffffffffffffffffffffffffffffff160217905550508060049080519060200190620000de929190620000ea565b505050505050620001bf565b82805482825590600052602060002090810192821562000166579160200282015b82811115620001655782518260006101000a81548173ffffffffffffffffffffffffffffffffffffffff021916908373ffffffffffffffffffffffffffffffffffffffff160217905550916020019190600101906200010b565b5b50905062000175919062000179565b5090565b620001bc91905b80821115620001b857600081816101000a81549073ffffffffffffffffffffffffffffffffffffffff02191690555060010162000180565b5090565b90565b61251e80620001cf6000396000f30060806040526004361061013e576000357c0100000000000000000000000000000000000000000000000000000000900463ffffffff1680630ad8f8ee146101435780630b4bd56c146101a9578063182894971461021457806328662d211461028157806329b97ca3146102ee5780635e8e30a61461034f578063715018a6146103aa5780637ad3def2146103c157806380873321146104045780638da5cb5b1461042f578063940265dd146104865780639abd3572146104e75780639f9d9f0214610514578063b260d96b1461054b578063b46274161461058c578063c079a511146105b7578063c6946a12146105f8578063d70da38b1461067d578063db18af6c146106aa578063dd9552af14610717578063e3c4602c14610758578063f2fde38b1461079b578063f63ae8f3146107de578063fc0c546a14610843575b600080fd5b34801561014f57600080fd5b506101a76004803603810190808035906020019082018035906020019080806020026020016040519081016040528093929190818152602001838360200280828437820191505050505050919291929050505061089a565b005b3480156101b557600080fd5b506101fe60048036038101908080359060200190929190803573ffffffffffffffffffffffffffffffffffffffff16906020019092919080359060200190929190505050610946565b6040518082815260200191505060405180910390f35b34801561022057600080fd5b5061023f60048036038101908080359060200190929190505050610a79565b604051808273ffffffffffffffffffffffffffffffffffffffff1673ffffffffffffffffffffffffffffffffffffffff16815260200191505060405180910390f35b34801561028d57600080fd5b506102ec600480360381019080803573ffffffffffffffffffffffffffffffffffffffff169060200190929190803573ffffffffffffffffffffffffffffffffffffffff16906020019092919080359060200190929190505050610ab9565b005b3480156102fa57600080fd5b5061033960048036038101908080359060200190929190803573ffffffffffffffffffffffffffffffffffffffff16906020019092919050505061103f565b6040518082815260200191505060405180910390f35b34801561035b57600080fd5b50610390600480360381019080803573ffffffffffffffffffffffffffffffffffffffff16906020019092919050505061109d565b604051808215151515815260200191505060405180910390f35b3480156103b657600080fd5b506103bf6111e8565b005b3480156103cd57600080fd5b50610402600480360381019080803573ffffffffffffffffffffffffffffffffffffffff1690602001909291905050506112ea565b005b34801561041057600080fd5b5061041961140e565b6040518082815260200191505060405180910390f35b34801561043b57600080fd5b50610444611418565b604051808273ffffffffffffffffffffffffffffffffffffffff1673ffffffffffffffffffffffffffffffffffffffff16815260200191505060405180910390f35b34801561049257600080fd5b506104d160048036038101908080359060200190929190803573ffffffffffffffffffffffffffffffffffffffff16906020019092919050505061143d565b6040518082815260200191505060405180910390f35b3480156104f357600080fd5b5061051260048036038101908080359060200190929190505050611549565b005b34801561052057600080fd5b5061054960048036038101908080359060200190929190803590602001909291905050506115d4565b005b34801561055757600080fd5b5061057660048036038101908080359060200190929190505050611661565b6040518082815260200191505060405180910390f35b34801561059857600080fd5b506105a1611681565b6040518082815260200191505060405180910390f35b3480156105c357600080fd5b506105e26004803603810190808035906020019092919050505061168e565b6040518082815260200191505060405180910390f35b34801561060457600080fd5b50610663600480360381019080803573ffffffffffffffffffffffffffffffffffffffff169060200190929190803573ffffffffffffffffffffffffffffffffffffffff169060200190929190803590602001909291905050506116ae565b604051808215151515815260200191505060405180910390f35b34801561068957600080fd5b506106a860048036038101908080359060200190929190505050611837565b005b3480156106b657600080fd5b506106d560048036038101908080359060200190929190505050611a45565b604051808273ffffffffffffffffffffffffffffffffffffffff1673ffffffffffffffffffffffffffffffffffffffff16815260200191505060405180910390f35b34801561072357600080fd5b5061074260048036038101908080359060200190929190505050611a88565b6040518082815260200191505060405180910390f35b34801561076457600080fd5b50610799600480360381019080803573ffffffffffffffffffffffffffffffffffffffff169060200190929190505050611aa8565b005b3480156107a757600080fd5b506107dc600480360381019080803573ffffffffffffffffffffffffffffffffffffffff169060200190929190505050611be7565b005b3480156107ea57600080fd5b50610829600480360381019080803573ffffffffffffffffffffffffffffffffffffffff16906020019092919080359060200190929190505050611c4e565b604051808215151515815260200191505060405180910390f35b34801561084f57600080fd5b50610858611c76565b604051808273ffffffffffffffffffffffffffffffffffffffff1673ffffffffffffffffffffffffffffffffffffffff16815260200191505060405180910390f35b60008060009054906101000a900473ffffffffffffffffffffffffffffffffffffffff1673ffffffffffffffffffffffffffffffffffffffff163373ffffffffffffffffffffffffffffffffffffffff161415156108f757600080fd5b6000825111151561090757600080fd5b600090505b815181101561094257610935828281518110151561092657fe5b90602001906020020151611aa8565b808060010191505061090c565b5050565b6000610a708484600160009054906101000a900473ffffffffffffffffffffffffffffffffffffffff1673ffffffffffffffffffffffffffffffffffffffff1663a7341e758787600260008c8152602001908152602001600020600401546040518463ffffffff167c0100000000000000000000000000000000000000000000000000000000028152600401808473ffffffffffffffffffffffffffffffffffffffff1673ffffffffffffffffffffffffffffffffffffffff1681526020018381526020018281526020019350505050602060405180830381600087803b158015610a3057600080fd5b505af1158015610a44573d6000803e3d6000fd5b505050506040513d6020811015610a5a57600080fd5b8101908080519060200190929190505050611ca0565b90509392505050565b60006002600083815260200190815260200160002060000160009054906101000a900473ffffffffffffffffffffffffffffffffffffffff169050919050565b6000809054906101000a900473ffffffffffffffffffffffffffffffffffffffff1673ffffffffffffffffffffffffffffffffffffffff163373ffffffffffffffffffffffffffffffffffffffff16141515610b1457600080fd5b808373ffffffffffffffffffffffffffffffffffffffff1663dd62ed3e84306040518363ffffffff167c0100000000000000000000000000000000000000000000000000000000028152600401808373ffffffffffffffffffffffffffffffffffffffff1673ffffffffffffffffffffffffffffffffffffffff1681526020018273ffffffffffffffffffffffffffffffffffffffff1673ffffffffffffffffffffffffffffffffffffffff16815260200192505050602060405180830381600087803b158015610be457600080fd5b505af1158015610bf8573d6000803e3d6000fd5b505050506040513d6020811015610c0e57600080fd5b810190808051906020019092919050505010151515610c95576040517f08c379a00000000000000000000000000000000000000000000000000000000081526004018080602001828103825260038152602001807f453031000000000000000000000000000000000000000000000000000000000081525060200191505060405180910390fd5b808373ffffffffffffffffffffffffffffffffffffffff166370a08231846040518263ffffffff167c0100000000000000000000000000000000000000000000000000000000028152600401808273ffffffffffffffffffffffffffffffffffffffff1673ffffffffffffffffffffffffffffffffffffffff168152602001915050602060405180830381600087803b158015610d3157600080fd5b505af1158015610d45573d6000803e3d6000fd5b505050506040513d6020811015610d5b57600080fd5b810190808051906020019092919050505010151515610de2576040517f08c379a00000000000000000000000000000000000000000000000000000000081526004018080602001828103825260038152602001807f453032000000000000000000000000000000000000000000000000000000000081525060200191505060405180910390fd5b60a0604051908101604052808473ffffffffffffffffffffffffffffffffffffffff1681526020018373ffffffffffffffffffffffffffffffffffffffff168152602001828152602001600160009054906101000a900473ffffffffffffffffffffffffffffffffffffffff1673ffffffffffffffffffffffffffffffffffffffff166318160ddd6040518163ffffffff167c0100000000000000000000000000000000000000000000000000000000028152600401602060405180830381600087803b158015610eb257600080fd5b505af1158015610ec6573d6000803e3d6000fd5b505050506040513d6020811015610edc57600080fd5b810190808051906020019092919050505081526020014281525060026000600354815260200190815260200160002060008201518160000160006101000a81548173ffffffffffffffffffffffffffffffffffffffff021916908373ffffffffffffffffffffffffffffffffffffffff16021790555060208201518160010160006101000a81548173ffffffffffffffffffffffffffffffffffffffff021916908373ffffffffffffffffffffffffffffffffffffffff1602179055506040820151816002015560608201518160030155608082015181600401559050506003547ffe6f7545fe6ac276e2864f881dca80053ec63a585035e5fbc2d206fdee2b978c8483604051808373ffffffffffffffffffffffffffffffffffffffff1673ffffffffffffffffffffffffffffffffffffffff1681526020018281526020019250505060405180910390a2600360008154809291906001019190505550505050565b60006002600084815260200190815260200160002060050160008373ffffffffffffffffffffffffffffffffffffffff1673ffffffffffffffffffffffffffffffffffffffff16815260200190815260200160002054905092915050565b600080600090505b6004805490508110156111dd576004818154811015156110c157fe5b9060005260206000200160009054906101000a900473ffffffffffffffffffffffffffffffffffffffff1673ffffffffffffffffffffffffffffffffffffffff1663cf31ff86846040518263ffffffff167c0100000000000000000000000000000000000000000000000000000000028152600401808273ffffffffffffffffffffffffffffffffffffffff1673ffffffffffffffffffffffffffffffffffffffff168152602001915050602060405180830381600087803b15801561118657600080fd5b505af115801561119a573d6000803e3d6000fd5b505050506040513d60208110156111b057600080fd5b810190808051906020019092919050505015156111d057600091506111e2565b80806001019150506110a5565b600191505b50919050565b6000809054906101000a900473ffffffffffffffffffffffffffffffffffffffff1673ffffffffffffffffffffffffffffffffffffffff163373ffffffffffffffffffffffffffffffffffffffff1614151561124357600080fd5b6000809054906101000a900473ffffffffffffffffffffffffffffffffffffffff1673ffffffffffffffffffffffffffffffffffffffff167ff8df31144d9c2f0f6b59d69b8b98abd5459d07f2742c4df920b25aae33c6482060405160405180910390a260008060006101000a81548173ffffffffffffffffffffffffffffffffffffffff021916908373ffffffffffffffffffffffffffffffffffffffff160217905550565b6000809054906101000a900473ffffffffffffffffffffffffffffffffffffffff1673ffffffffffffffffffffffffffffffffffffffff163373ffffffffffffffffffffffffffffffffffffffff1614151561134557600080fd5b80600160006101000a81548173ffffffffffffffffffffffffffffffffffffffff021916908373ffffffffffffffffffffffffffffffffffffffff1602179055507f5ba6b30cd4b2f9e9e67f4feb9b9df10d5da3b057598e6901b217b7d590345e30600160009054906101000a900473ffffffffffffffffffffffffffffffffffffffff16604051808273ffffffffffffffffffffffffffffffffffffffff1673ffffffffffffffffffffffffffffffffffffffff16815260200191505060405180910390a150565b6000600354905090565b6000809054906101000a900473ffffffffffffffffffffffffffffffffffffffff1681565b60006115418383600160009054906101000a900473ffffffffffffffffffffffffffffffffffffffff1673ffffffffffffffffffffffffffffffffffffffff166370a08231866040518263ffffffff167c0100000000000000000000000000000000000000000000000000000000028152600401808273ffffffffffffffffffffffffffffffffffffffff1673ffffffffffffffffffffffffffffffffffffffff168152602001915050602060405180830381600087803b15801561150157600080fd5b505af1158015611515573d6000803e3d6000fd5b505050506040513d602081101561152b57600080fd5b8101908080519060200190929190505050611ca0565b905092915050565b336115538161109d565b15156115c7576040517f08c379a000000000000000000000000000000000000000000000000000000000815260040180806020018281038252600c8152602001807f5749544852554c45535f3031000000000000000000000000000000000000000081525060200191505060405180910390fd5b6115d082611e67565b5050565b336115de8161109d565b1515611652576040517f08c379a000000000000000000000000000000000000000000000000000000000815260040180806020018281038252600c8152602001807f5749544852554c45535f3031000000000000000000000000000000000000000081525060200191505060405180910390fd5b61165c8383611e7d565b505050565b600060026000838152602001908152602001600020600201549050919050565b6000600480549050905090565b600060026000838152602001908152602001600020600301549050919050565b600080600090505b60048054905081101561182a576004818154811015156116d257fe5b9060005260206000200160009054906101000a900473ffffffffffffffffffffffffffffffffffffffff1673ffffffffffffffffffffffffffffffffffffffff166340ecb7f28686866040518463ffffffff167c0100000000000000000000000000000000000000000000000000000000028152600401808473ffffffffffffffffffffffffffffffffffffffff1673ffffffffffffffffffffffffffffffffffffffff1681526020018373ffffffffffffffffffffffffffffffffffffffff1673ffffffffffffffffffffffffffffffffffffffff1681526020018281526020019350505050602060405180830381600087803b1580156117d357600080fd5b505af11580156117e7573d6000803e3d6000fd5b505050506040513d60208110156117fd57600080fd5b8101908080519060200190929190505050151561181d576000915061182f565b80806001019150506116b6565b600191505b509392505050565b6000809054906101000a900473ffffffffffffffffffffffffffffffffffffffff1673ffffffffffffffffffffffffffffffffffffffff163373ffffffffffffffffffffffffffffffffffffffff1614151561189257600080fd5b6004805490508110151561190e576040517f08c379a000000000000000000000000000000000000000000000000000000000815260040180806020018281038252600c8152602001807f5749544852554c45535f3033000000000000000000000000000000000000000081525060200191505060405180910390fd5b60048181548110151561191d57fe5b9060005260206000200160006101000a81549073ffffffffffffffffffffffffffffffffffffffff0219169055600160048054905003811415156119f557600460016004805490500381548110151561197257fe5b9060005260206000200160009054906101000a900473ffffffffffffffffffffffffffffffffffffffff166004828154811015156119ac57fe5b9060005260206000200160006101000a81548173ffffffffffffffffffffffffffffffffffffffff021916908373ffffffffffffffffffffffffffffffffffffffff1602179055505b6004805480919060019003611a0a91906124a1565b507f77541af0dd2301e15fec88d72dd3f4aa2f9e5aaaaf8bb55c947241b8aa6d2960816040518082815260200191505060405180910390a150565b6000600482815481101515611a5657fe5b9060005260206000200160009054906101000a900473ffffffffffffffffffffffffffffffffffffffff169050919050565b600060026000838152602001908152602001600020600401549050919050565b6000809054906101000a900473ffffffffffffffffffffffffffffffffffffffff1673ffffffffffffffffffffffffffffffffffffffff163373ffffffffffffffffffffffffffffffffffffffff16141515611b0357600080fd5b600073ffffffffffffffffffffffffffffffffffffffff168173ffffffffffffffffffffffffffffffffffffffff1614151515611b3f57600080fd5b60048190806001815401808255809150509060018203906000526020600020016000909192909190916101000a81548173ffffffffffffffffffffffffffffffffffffffff021916908373ffffffffffffffffffffffffffffffffffffffff160217905550507fa88439494cfc042ca92b5192ccdaed0691a1321dffd0c4cda4df3b052c73c9186001600480549050036040518082815260200191505060405180910390a150565b6000809054906101000a900473ffffffffffffffffffffffffffffffffffffffff1673ffffffffffffffffffffffffffffffffffffffff163373ffffffffffffffffffffffffffffffffffffffff16141515611c4257600080fd5b611c4b81611e95565b50565b6000600260006001600354038152602001908152602001600020600401548210905092915050565b6000600160009054906101000a900473ffffffffffffffffffffffffffffffffffffffff16905090565b60008060006002600087815260200190815260200160002091508160040154600160009054906101000a900473ffffffffffffffffffffffffffffffffffffffff1673ffffffffffffffffffffffffffffffffffffffff166318ec53b2876040518263ffffffff167c0100000000000000000000000000000000000000000000000000000000028152600401808273ffffffffffffffffffffffffffffffffffffffff1673ffffffffffffffffffffffffffffffffffffffff168152602001915050602060405180830381600087803b158015611d7c57600080fd5b505af1158015611d90573d6000803e3d6000fd5b505050506040513d6020811015611da657600080fd5b81019080805190602001909291905050501015611e59576002600087815260200190815260200160002060050160008673ffffffffffffffffffffffffffffffffffffffff1673ffffffffffffffffffffffffffffffffffffffff168152602001908152602001600020549050611e5281611e448460030154611e36866002015489611f8f90919063ffffffff16565b611fc790919063ffffffff16565b611fdd90919063ffffffff16565b9250611e5e565b600092505b50509392505050565b611e7a81611e75833361143d565b611ff6565b50565b611e9182611e8c843385610946565b611ff6565b5050565b600073ffffffffffffffffffffffffffffffffffffffff168173ffffffffffffffffffffffffffffffffffffffff1614151515611ed157600080fd5b8073ffffffffffffffffffffffffffffffffffffffff166000809054906101000a900473ffffffffffffffffffffffffffffffffffffffff1673ffffffffffffffffffffffffffffffffffffffff167f8be0079c531659141344cd1fd0a4f28419497f9722a3daafe3b4186f6b6457e060405160405180910390a3806000806101000a81548173ffffffffffffffffffffffffffffffffffffffff021916908373ffffffffffffffffffffffffffffffffffffffff16021790555050565b600080831415611fa25760009050611fc1565b8183029050818382811515611fb357fe5b04141515611fbd57fe5b8090505b92915050565b60008183811515611fd457fe5b04905092915050565b6000828211151515611feb57fe5b818303905092915050565b60008082111561249c57600260008481526020019081526020016000209050818160000160009054906101000a900473ffffffffffffffffffffffffffffffffffffffff1673ffffffffffffffffffffffffffffffffffffffff166370a082318360010160009054906101000a900473ffffffffffffffffffffffffffffffffffffffff166040518263ffffffff167c0100000000000000000000000000000000000000000000000000000000028152600401808273ffffffffffffffffffffffffffffffffffffffff1673ffffffffffffffffffffffffffffffffffffffff168152602001915050602060405180830381600087803b1580156120f957600080fd5b505af115801561210d573d6000803e3d6000fd5b505050506040513d602081101561212357600080fd5b8101908080519060200190929190505050101580156122935750818160000160009054906101000a900473ffffffffffffffffffffffffffffffffffffffff1673ffffffffffffffffffffffffffffffffffffffff1663dd62ed3e8360010160009054906101000a900473ffffffffffffffffffffffffffffffffffffffff16306040518363ffffffff167c0100000000000000000000000000000000000000000000000000000000028152600401808373ffffffffffffffffffffffffffffffffffffffff1673ffffffffffffffffffffffffffffffffffffffff1681526020018273ffffffffffffffffffffffffffffffffffffffff1673ffffffffffffffffffffffffffffffffffffffff16815260200192505050602060405180830381600087803b15801561225557600080fd5b505af1158015612269573d6000803e3d6000fd5b505050506040513d602081101561227f57600080fd5b810190808051906020019092919050505010155b1561249b578060000160009054906101000a900473ffffffffffffffffffffffffffffffffffffffff1673ffffffffffffffffffffffffffffffffffffffff166323b872dd8260010160009054906101000a900473ffffffffffffffffffffffffffffffffffffffff1633856040518463ffffffff167c0100000000000000000000000000000000000000000000000000000000028152600401808473ffffffffffffffffffffffffffffffffffffffff1673ffffffffffffffffffffffffffffffffffffffff1681526020018373ffffffffffffffffffffffffffffffffffffffff1673ffffffffffffffffffffffffffffffffffffffff1681526020018281526020019350505050602060405180830381600087803b1580156123b757600080fd5b505af11580156123cb573d6000803e3d6000fd5b505050506040513d60208110156123e157600080fd5b810190808051906020019092919050505050816002600085815260200190815260200160002060050160003373ffffffffffffffffffffffffffffffffffffffff1673ffffffffffffffffffffffffffffffffffffffff168152602001908152602001600020819055503373ffffffffffffffffffffffffffffffffffffffff16837fa1594d215a577c1905bcb0b5b186a40a0104714277441d4b2ac428c89bf7f4b1846040518082815260200191505060405180910390a35b5b505050565b8154818355818111156124c8578183600052602060002091820191016124c791906124cd565b5b505050565b6124ef91905b808211156124eb5760008160009055506001016124d3565b5090565b905600a165627a7a72305820e76d90fd345726136a7786e74cf05a247a77d782ad14a2da5bb27dff6bd375a60029",
  "source": "pragma solidity ^0.4.24;\n\nimport \"../interface/IClaimable.sol\";\nimport \"../dividend/DividendWithRules.sol\";\n\n\n/**\n * @title DividendWithRulesClaimable\n * @dev DividendWithRulesClaimable contract\n *\n * @author Cyril Lapinte - <cyril.lapinte@mtpelerin.com>\n */\ncontract DividendWithRulesClaimable is IClaimable, DividendWithRules {\n\n  /**\n   * @dev constructor\n   */\n  constructor(ProvableOwnershipToken _token, IRule[] _rules)\n  DividendWithRules(_token, _rules) public { }\n\n  /**\n   * @dev implements has claims\n   *\n   * Returns true if there was at least a dividend created after that date\n   */\n  function hasClaimsSince(address /*_address*/, uint256 _at)\n    public view returns (bool)\n  {\n    return _at < dividends[dividendsCount-1].createdAt;\n  }\n}\n",
  "sourcePath": "/home/node/project/contracts/claimable/DividendWithRulesClaimable.sol",
  "compiler": {
    "name": "solc",
    "version": "0.4.24+commit.e67f0147.Emscripten.clang"
  },
  "schemaVersion": "2.0.1",
  "updatedAt": "2018-08-15T14:19:55.865Z"
}