{
  "contractName": "EmptyClaimable",
  "abi": [
    {
      "constant": true,
      "inputs": [],
      "name": "active",
      "outputs": [
        {
          "name": "",
          "type": "bool"
        }
      ],
      "payable": false,
      "stateMutability": "view",
      "type": "function"
    },
    {
      "inputs": [
        {
          "name": "_active",
          "type": "bool"
        }
      ],
      "payable": false,
      "stateMutability": "nonpayable",
      "type": "constructor"
    },
    {
      "constant": true,
      "inputs": [
        {
          "name": "",
          "type": "address"
        },
        {
          "name": "",
          "type": "uint256"
        }
      ],
      "name": "hasClaimsSince",
      "outputs": [
        {
          "name": "",
          "type": "bool"
        }
      ],
      "payable": false,
      "stateMutability": "view",
      "type": "function"
    }
  ],
  "bytecode": "0x608060405234801561001057600080fd5b5060405160208061019883398101806040528101908080519060200190929190505050806000806101000a81548160ff0219169083151502179055505061013c8061005c6000396000f30060806040526004361061004c576000357c0100000000000000000000000000000000000000000000000000000000900463ffffffff16806302fb0c5e14610051578063f63ae8f314610080575b600080fd5b34801561005d57600080fd5b506100666100e5565b604051808215151515815260200191505060405180910390f35b34801561008c57600080fd5b506100cb600480360381019080803573ffffffffffffffffffffffffffffffffffffffff169060200190929190803590602001909291905050506100f7565b604051808215151515815260200191505060405180910390f35b6000809054906101000a900460ff1681565b60008060009054906101000a900460ff169050929150505600a165627a7a7230582028e40fe531838b51bb6b5863b161173c11be35ba12bb2fa84fd08aaed7dde3070029",
  "source": "pragma solidity ^0.4.24;\n\nimport \"../interface/IClaimable.sol\";\n\n\n/**\n * @title EmptyClaimable\n * @dev EmptyClaimable interface\n *\n * This contract provide an empty claim\n * Usefull for testing IWithClaims implementation\n *\n * @author Cyril Lapinte - <cyril.lapinte@mtpelerin.com>\n */\ncontract EmptyClaimable is IClaimable {\n  bool public active;\n\n  constructor(bool _active) public {\n    active = _active;\n  }\n  \n  function hasClaimsSince(address /*_address*/, uint256 /*_at*/)\n    public view returns (bool)\n  {\n    return active;\n  }\n}\n",
  "sourcePath": "/home/node/project/contracts/claimable/EmptyClaimable.sol",
  "compiler": {
    "name": "solc",
    "version": "0.4.24+commit.e67f0147.Emscripten.clang"
  },
  "schemaVersion": "2.0.1",
  "updatedAt": "2018-08-15T14:19:55.855Z"
}