{
  "contractName": "KnowYourCustomer",
  "abi": [
    {
      "constant": false,
      "inputs": [],
      "name": "renounceOwnership",
      "outputs": [],
      "payable": false,
      "stateMutability": "nonpayable",
      "type": "function"
    },
    {
      "constant": true,
      "inputs": [],
      "name": "owner",
      "outputs": [
        {
          "name": "",
          "type": "address"
        }
      ],
      "payable": false,
      "stateMutability": "view",
      "type": "function"
    },
    {
      "constant": false,
      "inputs": [
        {
          "name": "_newOwner",
          "type": "address"
        }
      ],
      "name": "transferOwnership",
      "outputs": [],
      "payable": false,
      "stateMutability": "nonpayable",
      "type": "function"
    },
    {
      "anonymous": false,
      "inputs": [
        {
          "indexed": true,
          "name": "previousOwner",
          "type": "address"
        }
      ],
      "name": "OwnershipRenounced",
      "type": "event"
    },
    {
      "anonymous": false,
      "inputs": [
        {
          "indexed": true,
          "name": "previousOwner",
          "type": "address"
        },
        {
          "indexed": true,
          "name": "newOwner",
          "type": "address"
        }
      ],
      "name": "OwnershipTransferred",
      "type": "event"
    },
    {
      "constant": true,
      "inputs": [
        {
          "name": "_address",
          "type": "address"
        }
      ],
      "name": "isKYCValid",
      "outputs": [
        {
          "name": "",
          "type": "bool"
        }
      ],
      "payable": false,
      "stateMutability": "view",
      "type": "function"
    },
    {
      "constant": true,
      "inputs": [
        {
          "name": "_address",
          "type": "address"
        }
      ],
      "name": "validUntil",
      "outputs": [
        {
          "name": "",
          "type": "uint256"
        }
      ],
      "payable": false,
      "stateMutability": "view",
      "type": "function"
    },
    {
      "constant": false,
      "inputs": [
        {
          "name": "_address",
          "type": "address"
        },
        {
          "name": "_timestamp",
          "type": "uint256"
        }
      ],
      "name": "validateKYCUntil",
      "outputs": [],
      "payable": false,
      "stateMutability": "nonpayable",
      "type": "function"
    },
    {
      "constant": false,
      "inputs": [
        {
          "name": "_addresses",
          "type": "address[]"
        },
        {
          "name": "_timestamp",
          "type": "uint256"
        }
      ],
      "name": "validateManyKYCUntil",
      "outputs": [],
      "payable": false,
      "stateMutability": "nonpayable",
      "type": "function"
    }
  ],
  "bytecode": "0x6080604052336000806101000a81548173ffffffffffffffffffffffffffffffffffffffff021916908373ffffffffffffffffffffffffffffffffffffffff1602179055506107d1806100536000396000f300608060405260043610610083576000357c0100000000000000000000000000000000000000000000000000000000900463ffffffff16806337ec942614610088578063715018a6146100f85780638da5cb5b1461010f5780639604fd8514610166578063c03812f0146101bd578063cf0e0f9d1461020a578063f2fde38b14610265575b600080fd5b34801561009457600080fd5b506100f660048036038101908080359060200190820180359060200190808060200260200160405190810160405280939291908181526020018383602002808284378201915050505050509192919290803590602001909291905050506102a8565b005b34801561010457600080fd5b5061010d610380565b005b34801561011b57600080fd5b50610124610482565b604051808273ffffffffffffffffffffffffffffffffffffffff1673ffffffffffffffffffffffffffffffffffffffff16815260200191505060405180910390f35b34801561017257600080fd5b506101a7600480360381019080803573ffffffffffffffffffffffffffffffffffffffff1690602001909291905050506104a7565b6040518082815260200191505060405180910390f35b3480156101c957600080fd5b50610208600480360381019080803573ffffffffffffffffffffffffffffffffffffffff169060200190929190803590602001909291905050506104f0565b005b34801561021657600080fd5b5061024b600480360381019080803573ffffffffffffffffffffffffffffffffffffffff169060200190929190505050610593565b604051808215151515815260200191505060405180910390f35b34801561027157600080fd5b506102a6600480360381019080803573ffffffffffffffffffffffffffffffffffffffff16906020019092919050505061063c565b005b60008060009054906101000a900473ffffffffffffffffffffffffffffffffffffffff1673ffffffffffffffffffffffffffffffffffffffff163373ffffffffffffffffffffffffffffffffffffffff1614151561030557600080fd5b600090505b825181101561037b578160016000858481518110151561032657fe5b9060200190602002015173ffffffffffffffffffffffffffffffffffffffff1673ffffffffffffffffffffffffffffffffffffffff16815260200190815260200160002081905550808060010191505061030a565b505050565b6000809054906101000a900473ffffffffffffffffffffffffffffffffffffffff1673ffffffffffffffffffffffffffffffffffffffff163373ffffffffffffffffffffffffffffffffffffffff161415156103db57600080fd5b6000809054906101000a900473ffffffffffffffffffffffffffffffffffffffff1673ffffffffffffffffffffffffffffffffffffffff167ff8df31144d9c2f0f6b59d69b8b98abd5459d07f2742c4df920b25aae33c6482060405160405180910390a260008060006101000a81548173ffffffffffffffffffffffffffffffffffffffff021916908373ffffffffffffffffffffffffffffffffffffffff160217905550565b6000809054906101000a900473ffffffffffffffffffffffffffffffffffffffff1681565b6000600160008373ffffffffffffffffffffffffffffffffffffffff1673ffffffffffffffffffffffffffffffffffffffff168152602001908152602001600020549050919050565b6000809054906101000a900473ffffffffffffffffffffffffffffffffffffffff1673ffffffffffffffffffffffffffffffffffffffff163373ffffffffffffffffffffffffffffffffffffffff1614151561054b57600080fd5b80600160008473ffffffffffffffffffffffffffffffffffffffff1673ffffffffffffffffffffffffffffffffffffffff168152602001908152602001600020819055505050565b600061059d6106a3565b600160008473ffffffffffffffffffffffffffffffffffffffff1673ffffffffffffffffffffffffffffffffffffffff16815260200190815260200160002054118061063557506000809054906101000a900473ffffffffffffffffffffffffffffffffffffffff1673ffffffffffffffffffffffffffffffffffffffff168273ffffffffffffffffffffffffffffffffffffffff16145b9050919050565b6000809054906101000a900473ffffffffffffffffffffffffffffffffffffffff1673ffffffffffffffffffffffffffffffffffffffff163373ffffffffffffffffffffffffffffffffffffffff1614151561069757600080fd5b6106a0816106ab565b50565b600042905090565b600073ffffffffffffffffffffffffffffffffffffffff168173ffffffffffffffffffffffffffffffffffffffff16141515156106e757600080fd5b8073ffffffffffffffffffffffffffffffffffffffff166000809054906101000a900473ffffffffffffffffffffffffffffffffffffffff1673ffffffffffffffffffffffffffffffffffffffff167f8be0079c531659141344cd1fd0a4f28419497f9722a3daafe3b4186f6b6457e060405160405180910390a3806000806101000a81548173ffffffffffffffffffffffffffffffffffffffff021916908373ffffffffffffffffffffffffffffffffffffffff160217905550505600a165627a7a72305820693c73763e2909a8216aec5c82abb3a9a941e5bb667babfae9f3997c549ed71e0029",
  "source": "pragma solidity ^0.4.24;\n\nimport \"../zeppelin/ownership/Ownable.sol\";\n\n\n/**\n * @title KnowYourCustomer\n * @dev KnowYourCustomer contract\n * @dev Base contract which allows children to rely on a Know Your Customer mecanism.\n *\n * @author Cyril Lapinte - <cyril.lapinte@mtpelerin.com>\n *\n * Error messages\n * E01: User KYC is not valid anymore\n */\ncontract KnowYourCustomer is Ownable {\n\n  mapping(address => uint256) validUntil_;\n\n  /**\n   * @dev Modifier to make a function callable only when the sender Kyc is still valid.\n   */\n  modifier whenKYCisValid(address _holder) {\n    require(\n      validUntil_[_holder] > currentTime() || _holder == owner,\n      \"E01\");\n    _;\n  }\n\n  /**\n   * @dev function returns if the kyc is valid\n   */\n  function isKYCValid(address _address) public view returns (bool) {\n    return (validUntil_[_address] > currentTime() || _address == owner);\n  }\n\n  /**\n   * @dev function returns the KYC validity end date\n   */\n  function validUntil(address _address) public view returns (uint256) {\n    return validUntil_[_address];\n  }\n\n  /**\n   * @dev called by the owner to validate the KYC of an address until a certain date\n   */\n  function validateKYCUntil(\n    address _address,\n    uint256 _timestamp) public onlyOwner\n  {\n    validUntil_[_address] = _timestamp;\n  }\n\n  /**\n   * @dev called by the owner to validate the KYC of an address until a certain date\n   */\n  function validateManyKYCUntil(\n    address[] _addresses,\n    uint256 _timestamp) public onlyOwner\n  {\n    for (uint256 i = 0; i < _addresses.length; i++) {\n      validUntil_[_addresses[i]] = _timestamp;\n    }\n  }\n\n  /**\n   * @dev currentTime\n   */\n  function currentTime() internal view returns (uint256) {\n    // solium-disable-next-line security/no-block-members\n    return block.timestamp;\n  }\n}\n",
  "sourcePath": "/home/node/project/contracts/demo/KnowYourCustomer.sol",
  "compiler": {
    "name": "solc",
    "version": "0.4.24+commit.e67f0147.Emscripten.clang"
  },
  "schemaVersion": "2.0.1",
  "updatedAt": "2018-08-15T14:19:55.878Z"
}