{
  "contractName": "MPLDryRunSaleConfig",
  "abi": [
    {
      "constant": true,
      "inputs": [],
      "name": "tokensaleLot2SharePercent",
      "outputs": [
        {
          "name": "",
          "type": "uint256"
        }
      ],
      "payable": false,
      "stateMutability": "pure",
      "type": "function"
    },
    {
      "constant": true,
      "inputs": [],
      "name": "tokensaleLot1HardCapCHF",
      "outputs": [
        {
          "name": "",
          "type": "uint256"
        }
      ],
      "payable": false,
      "stateMutability": "pure",
      "type": "function"
    },
    {
      "constant": true,
      "inputs": [],
      "name": "TOKENIZED_SHARE_PERCENT",
      "outputs": [
        {
          "name": "",
          "type": "uint256"
        }
      ],
      "payable": false,
      "stateMutability": "view",
      "type": "function"
    },
    {
      "constant": true,
      "inputs": [],
      "name": "DURATION",
      "outputs": [
        {
          "name": "",
          "type": "uint256"
        }
      ],
      "payable": false,
      "stateMutability": "view",
      "type": "function"
    },
    {
      "constant": true,
      "inputs": [],
      "name": "termsOfSaleHash",
      "outputs": [
        {
          "name": "",
          "type": "bytes32"
        }
      ],
      "payable": false,
      "stateMutability": "pure",
      "type": "function"
    },
    {
      "constant": true,
      "inputs": [],
      "name": "TOKENSALE_LOT1_HARDCAP_CHF_CENT",
      "outputs": [
        {
          "name": "",
          "type": "uint256"
        }
      ],
      "payable": false,
      "stateMutability": "view",
      "type": "function"
    },
    {
      "constant": true,
      "inputs": [],
      "name": "RESERVED_SUPPLY",
      "outputs": [
        {
          "name": "",
          "type": "uint256"
        }
      ],
      "payable": false,
      "stateMutability": "view",
      "type": "function"
    },
    {
      "constant": true,
      "inputs": [],
      "name": "MINT_DELAY",
      "outputs": [
        {
          "name": "",
          "type": "uint256"
        }
      ],
      "payable": false,
      "stateMutability": "view",
      "type": "function"
    },
    {
      "constant": true,
      "inputs": [],
      "name": "reservedSupply",
      "outputs": [
        {
          "name": "",
          "type": "uint256"
        }
      ],
      "payable": false,
      "stateMutability": "pure",
      "type": "function"
    },
    {
      "constant": true,
      "inputs": [],
      "name": "OPENING_TIME",
      "outputs": [
        {
          "name": "",
          "type": "uint256"
        }
      ],
      "payable": false,
      "stateMutability": "view",
      "type": "function"
    },
    {
      "constant": true,
      "inputs": [],
      "name": "minimalETHInvestment",
      "outputs": [
        {
          "name": "",
          "type": "uint256"
        }
      ],
      "payable": false,
      "stateMutability": "pure",
      "type": "function"
    },
    {
      "constant": true,
      "inputs": [],
      "name": "TOKENSALE_LOT2_SUPPLY",
      "outputs": [
        {
          "name": "",
          "type": "uint256"
        }
      ],
      "payable": false,
      "stateMutability": "view",
      "type": "function"
    },
    {
      "constant": true,
      "inputs": [],
      "name": "TOKENS_AMOUNT_PER_CHF_CENT",
      "outputs": [
        {
          "name": "",
          "type": "uint256"
        }
      ],
      "payable": false,
      "stateMutability": "view",
      "type": "function"
    },
    {
      "constant": true,
      "inputs": [],
      "name": "MINIMAL_ETH_INVESTMENT",
      "outputs": [
        {
          "name": "",
          "type": "uint256"
        }
      ],
      "payable": false,
      "stateMutability": "view",
      "type": "function"
    },
    {
      "constant": true,
      "inputs": [],
      "name": "tokensAmountPerCHF",
      "outputs": [
        {
          "name": "",
          "type": "uint256"
        }
      ],
      "payable": false,
      "stateMutability": "pure",
      "type": "function"
    },
    {
      "constant": true,
      "inputs": [],
      "name": "tokensaleLot1SharePercent",
      "outputs": [
        {
          "name": "",
          "type": "uint256"
        }
      ],
      "payable": false,
      "stateMutability": "pure",
      "type": "function"
    },
    {
      "constant": true,
      "inputs": [],
      "name": "tokensaleLot1Supply",
      "outputs": [
        {
          "name": "",
          "type": "uint256"
        }
      ],
      "payable": false,
      "stateMutability": "pure",
      "type": "function"
    },
    {
      "constant": true,
      "inputs": [],
      "name": "tokenSupply",
      "outputs": [
        {
          "name": "",
          "type": "uint256"
        }
      ],
      "payable": false,
      "stateMutability": "pure",
      "type": "function"
    },
    {
      "constant": true,
      "inputs": [],
      "name": "tokensaleLot2Supply",
      "outputs": [
        {
          "name": "",
          "type": "uint256"
        }
      ],
      "payable": false,
      "stateMutability": "pure",
      "type": "function"
    },
    {
      "constant": true,
      "inputs": [],
      "name": "TERMS_OF_SALE_HASH",
      "outputs": [
        {
          "name": "",
          "type": "bytes32"
        }
      ],
      "payable": false,
      "stateMutability": "view",
      "type": "function"
    },
    {
      "constant": true,
      "inputs": [],
      "name": "TOKEN_SUPPLY",
      "outputs": [
        {
          "name": "",
          "type": "uint256"
        }
      ],
      "payable": false,
      "stateMutability": "view",
      "type": "function"
    },
    {
      "constant": true,
      "inputs": [],
      "name": "tokenizedSharePercent",
      "outputs": [
        {
          "name": "",
          "type": "uint256"
        }
      ],
      "payable": false,
      "stateMutability": "pure",
      "type": "function"
    },
    {
      "constant": true,
      "inputs": [],
      "name": "TOKENSALE_LOT1_SHARE_PERCENT",
      "outputs": [
        {
          "name": "",
          "type": "uint256"
        }
      ],
      "payable": false,
      "stateMutability": "view",
      "type": "function"
    },
    {
      "constant": true,
      "inputs": [],
      "name": "TOKENSALE_LOT2_SHARE_PERCENT",
      "outputs": [
        {
          "name": "",
          "type": "uint256"
        }
      ],
      "payable": false,
      "stateMutability": "view",
      "type": "function"
    },
    {
      "constant": true,
      "inputs": [],
      "name": "TOKENSALE_LOT1_SUPPLY",
      "outputs": [
        {
          "name": "",
          "type": "uint256"
        }
      ],
      "payable": false,
      "stateMutability": "view",
      "type": "function"
    },
    {
      "constant": true,
      "inputs": [],
      "name": "openingTime",
      "outputs": [
        {
          "name": "",
          "type": "uint256"
        }
      ],
      "payable": false,
      "stateMutability": "view",
      "type": "function"
    },
    {
      "constant": true,
      "inputs": [],
      "name": "duration",
      "outputs": [
        {
          "name": "",
          "type": "uint256"
        }
      ],
      "payable": false,
      "stateMutability": "view",
      "type": "function"
    },
    {
      "constant": true,
      "inputs": [],
      "name": "closingTime",
      "outputs": [
        {
          "name": "",
          "type": "uint256"
        }
      ],
      "payable": false,
      "stateMutability": "view",
      "type": "function"
    },
    {
      "constant": true,
      "inputs": [],
      "name": "mintingDelay",
      "outputs": [
        {
          "name": "",
          "type": "uint256"
        }
      ],
      "payable": false,
      "stateMutability": "view",
      "type": "function"
    }
  ],
  "bytecode": "0x608060405234801561001057600080fd5b506108b4806100206000396000f300608060405260043610610174576000357c0100000000000000000000000000000000000000000000000000000000900463ffffffff168062ecf1ed146101795780630fb5a6b4146101a45780631924f551146101cf5780631bb8d2f2146101fa5780631be052891461022557806325cf7f161461025057806327d95ce81461028357806331a53e9a146102ae57806344439244146102d957806344d19d2b146103045780634b6753bc1461032f5780635200d6431461035a5780635bcdb342146103855780635becf4b7146103b057806363265a0a146103db578063686054ac14610406578063699eb5e3146104315780636b5724ff1461045c5780636e493cfe146104875780637824407f146104b257806399c04e05146104dd578063a5e717c114610508578063b152f6cf1461053b578063b7a8807c14610566578063cea1c81514610591578063d9080011146105bc578063dd9dd56f146105e7578063fa2d41bc14610612578063ffbfb7c71461063d575b600080fd5b34801561018557600080fd5b5061018e610668565b6040518082815260200191505060405180910390f35b3480156101b057600080fd5b506101b961067e565b6040518082815260200191505060405180910390f35b3480156101db57600080fd5b506101e4610688565b6040518082815260200191505060405180910390f35b34801561020657600080fd5b5061020f610694565b6040518082815260200191505060405180910390f35b34801561023157600080fd5b5061023a610699565b6040518082815260200191505060405180910390f35b34801561025c57600080fd5b5061026561069f565b60405180826000191660001916815260200191505060405180910390f35b34801561028f57600080fd5b506102986106ca565b6040518082815260200191505060405180910390f35b3480156102ba57600080fd5b506102c36106d2565b6040518082815260200191505060405180910390f35b3480156102e557600080fd5b506102ee6106fb565b6040518082815260200191505060405180910390f35b34801561031057600080fd5b50610319610701565b6040518082815260200191505060405180910390f35b34801561033b57600080fd5b5061034461072e565b6040518082815260200191505060405180910390f35b34801561036657600080fd5b5061036f61073e565b6040518082815260200191505060405180910390f35b34801561039157600080fd5b5061039a610746565b6040518082815260200191505060405180910390f35b3480156103bc57600080fd5b506103c5610756565b6040518082815260200191505060405180910390f35b3480156103e757600080fd5b506103f0610765565b6040518082815260200191505060405180910390f35b34801561041257600080fd5b5061041b610783565b6040518082815260200191505060405180910390f35b34801561043d57600080fd5b5061044661078f565b6040518082815260200191505060405180910390f35b34801561046857600080fd5b506104716107b1565b6040518082815260200191505060405180910390f35b34801561049357600080fd5b5061049c6107c7565b6040518082815260200191505060405180910390f35b3480156104be57600080fd5b506104c76107da565b6040518082815260200191505060405180910390f35b3480156104e957600080fd5b506104f26107ed565b6040518082815260200191505060405180910390f35b34801561051457600080fd5b5061051d610800565b60405180826000191660001916815260200191505060405180910390f35b34801561054757600080fd5b50610550610827565b6040518082815260200191505060405180910390f35b34801561057257600080fd5b5061057b610836565b6040518082815260200191505060405180910390f35b34801561059d57600080fd5b506105a6610842565b6040518082815260200191505060405180910390f35b3480156105c857600080fd5b506105d161084b565b6040518082815260200191505060405180910390f35b3480156105f357600080fd5b506105fc61085d565b6040518082815260200191505060405180910390f35b34801561061e57600080fd5b5061062761086f565b6040518082815260200191505060405180910390f35b34801561064957600080fd5b5061065261087e565b6040518082815260200191505060405180910390f35b6000601561057881151561067857fe5b04905090565b6000611c20905090565b6000630ee6b280905090565b601581565b611c2081565b60007fe3b0c44298fc1c149afbf4c8996fb92427ae41e4649b934ca495991b7852b855600102905090565b630ee6b28081565b6a0b949d854f34fece0000006a0422ca8b0a00a425000000016a115eec47f6cf7e350000000381565b611c2081565b60006a0b949d854f34fece0000006a0422ca8b0a00a425000000016a115eec47f6cf7e3500000003905090565b6000611c20635c2aad8001905090565b635c2aad8081565b600067016345785d8a0000905090565b6a0b949d854f34fece00000081565b630ee6b2806a0422ca8b0a00a42500000081151561077f57fe5b0481565b67016345785d8a000081565b6000630ee6b2806a0422ca8b0a00a4250000008115156107ab57fe5b04905090565b600060156101f48115156107c157fe5b04905090565b60006a0422ca8b0a00a425000000905090565b60006a115eec47f6cf7e35000000905090565b60006a0b949d854f34fece000000905090565b7fe3b0c44298fc1c149afbf4c8996fb92427ae41e4649b934ca495991b7852b85560010281565b6a115eec47f6cf7e3500000081565b6000635c2aad80905090565b60006015905090565b60156101f481151561085957fe5b0481565b601561057881151561086b57fe5b0481565b6a0422ca8b0a00a42500000081565b6000611c209050905600a165627a7a72305820546898b83bfe0276789a88989b38eda073faaa4caa7416d2d0aa4524964349c20029",
  "source": "pragma solidity ^0.4.24;\n\nimport \"./MPLSaleConfig.sol\";\n\n\n/**\n * @title MPLDryRunConfig\n * @dev MPLDryRunConfig contract\n * The contract configure the MPL tokensale\n *\n * @author Cyril Lapinte - <cyril.lapinte@mtpelerin.com>\n */\ncontract MPLDryRunSaleConfig is MPLSaleConfig {\n\n  // 2 Days: duration of the sale\n  uint256 constant public DURATION = 2*3600;\n\n  // 2 Days: delay for mint self\n  uint256 constant public MINT_DELAY = 2*3600;\n\n  /**\n   * @dev getter need to be declared to comply with ISaleConfig interface\n   */\n  function openingTime() public view returns (uint256) {\n    return OPENING_TIME;\n  }\n\n  /**\n   * @dev getter need to be declared to comply with ISaleConfig interface\n   */\n  function duration() public view returns (uint256) {\n    return DURATION;\n  }\n\n  /**\n   * @dev closing time for the sale\n   * It is no more possible to send any ETH after\n   */\n  function closingTime() public view returns (uint256) {\n    return OPENING_TIME + DURATION;\n  }\n\n  /**\n   * @dev delay for investors to mint their tokens\n   */\n  function mintingDelay() public view returns (uint256) {\n    return MINT_DELAY;\n  }\n}\n",
  "sourcePath": "/home/node/project/contracts/tokensale/MPLDryRunSaleConfig.sol",
  "compiler": {
    "name": "solc",
    "version": "0.4.24+commit.e67f0147.Emscripten.clang"
  },
  "schemaVersion": "2.0.1",
  "updatedAt": "2018-08-15T14:19:55.990Z"
}