{
  "contractName": "MPLTokensalePlanMock",
  "abi": [
    {
      "constant": true,
      "inputs": [
        {
          "name": "",
          "type": "uint256"
        }
      ],
      "name": "mockSteps",
      "outputs": [
        {
          "name": "stepTime",
          "type": "uint256"
        },
        {
          "name": "transitionEndTime",
          "type": "uint256"
        },
        {
          "name": "transitionDelay",
          "type": "uint256"
        }
      ],
      "payable": false,
      "stateMutability": "view",
      "type": "function"
    },
    {
      "constant": true,
      "inputs": [],
      "name": "stepsCount",
      "outputs": [
        {
          "name": "",
          "type": "uint256"
        }
      ],
      "payable": false,
      "stateMutability": "view",
      "type": "function"
    },
    {
      "constant": false,
      "inputs": [
        {
          "name": "_newOpeningTime",
          "type": "uint256"
        }
      ],
      "name": "updateSaleOpeningTime",
      "outputs": [],
      "payable": false,
      "stateMutability": "nonpayable",
      "type": "function"
    },
    {
      "constant": true,
      "inputs": [
        {
          "name": "_stepId",
          "type": "uint256"
        }
      ],
      "name": "stepTime",
      "outputs": [
        {
          "name": "",
          "type": "uint256"
        }
      ],
      "payable": false,
      "stateMutability": "view",
      "type": "function"
    },
    {
      "constant": true,
      "inputs": [
        {
          "name": "_stepId",
          "type": "uint256"
        }
      ],
      "name": "transitionEndTime",
      "outputs": [
        {
          "name": "",
          "type": "uint256"
        }
      ],
      "payable": false,
      "stateMutability": "view",
      "type": "function"
    },
    {
      "constant": false,
      "inputs": [],
      "name": "plan",
      "outputs": [],
      "payable": false,
      "stateMutability": "nonpayable",
      "type": "function"
    },
    {
      "constant": true,
      "inputs": [],
      "name": "currentStep",
      "outputs": [
        {
          "name": "",
          "type": "uint256"
        }
      ],
      "payable": false,
      "stateMutability": "view",
      "type": "function"
    },
    {
      "constant": true,
      "inputs": [
        {
          "name": "_stepId",
          "type": "uint256"
        },
        {
          "name": "_startedAt",
          "type": "uint256"
        }
      ],
      "name": "stepEndTime",
      "outputs": [
        {
          "name": "",
          "type": "uint256"
        }
      ],
      "payable": false,
      "stateMutability": "view",
      "type": "function"
    },
    {
      "constant": false,
      "inputs": [],
      "name": "renounceOwnership",
      "outputs": [],
      "payable": false,
      "stateMutability": "nonpayable",
      "type": "function"
    },
    {
      "constant": true,
      "inputs": [],
      "name": "owner",
      "outputs": [
        {
          "name": "",
          "type": "address"
        }
      ],
      "payable": false,
      "stateMutability": "view",
      "type": "function"
    },
    {
      "constant": true,
      "inputs": [],
      "name": "saleConfig",
      "outputs": [
        {
          "name": "",
          "type": "address"
        }
      ],
      "payable": false,
      "stateMutability": "view",
      "type": "function"
    },
    {
      "constant": false,
      "inputs": [
        {
          "name": "_newOwner",
          "type": "address"
        }
      ],
      "name": "transferOwnership",
      "outputs": [],
      "payable": false,
      "stateMutability": "nonpayable",
      "type": "function"
    },
    {
      "constant": true,
      "inputs": [
        {
          "name": "_stepId",
          "type": "uint256"
        }
      ],
      "name": "transitionDelay",
      "outputs": [
        {
          "name": "",
          "type": "uint256"
        }
      ],
      "payable": false,
      "stateMutability": "view",
      "type": "function"
    },
    {
      "inputs": [
        {
          "name": "_saleConfig",
          "type": "address"
        }
      ],
      "payable": false,
      "stateMutability": "nonpayable",
      "type": "constructor"
    },
    {
      "anonymous": false,
      "inputs": [
        {
          "indexed": true,
          "name": "previousOwner",
          "type": "address"
        }
      ],
      "name": "OwnershipRenounced",
      "type": "event"
    },
    {
      "anonymous": false,
      "inputs": [
        {
          "indexed": true,
          "name": "previousOwner",
          "type": "address"
        },
        {
          "indexed": true,
          "name": "newOwner",
          "type": "address"
        }
      ],
      "name": "OwnershipTransferred",
      "type": "event"
    },
    {
      "constant": true,
      "inputs": [
        {
          "name": "_stepId",
          "type": "uint256"
        }
      ],
      "name": "mockedStepTransitionEndTime",
      "outputs": [
        {
          "name": "",
          "type": "uint256"
        }
      ],
      "payable": false,
      "stateMutability": "view",
      "type": "function"
    },
    {
      "constant": true,
      "inputs": [
        {
          "name": "_stepId",
          "type": "uint256"
        }
      ],
      "name": "mockedStepTransitionDelay",
      "outputs": [
        {
          "name": "",
          "type": "uint256"
        }
      ],
      "payable": false,
      "stateMutability": "view",
      "type": "function"
    },
    {
      "constant": true,
      "inputs": [
        {
          "name": "_name",
          "type": "uint8"
        }
      ],
      "name": "dummyWhenStepIs",
      "outputs": [
        {
          "name": "",
          "type": "bool"
        }
      ],
      "payable": false,
      "stateMutability": "view",
      "type": "function"
    },
    {
      "constant": true,
      "inputs": [
        {
          "name": "_from",
          "type": "uint8"
        },
        {
          "name": "_to",
          "type": "uint8"
        }
      ],
      "name": "dummyWhenBetweenSteps",
      "outputs": [
        {
          "name": "",
          "type": "bool"
        }
      ],
      "payable": false,
      "stateMutability": "view",
      "type": "function"
    },
    {
      "constant": false,
      "inputs": [],
      "name": "nextStepPublic",
      "outputs": [],
      "payable": false,
      "stateMutability": "nonpayable",
      "type": "function"
    }
  ],
  "bytecode": "0x608060405234801561001057600080fd5b506040516020806118288339810180604052810190808051906020019092919050505080336000806101000a81548173ffffffffffffffffffffffffffffffffffffffff021916908373ffffffffffffffffffffffffffffffffffffffff16021790555080600260016101000a81548173ffffffffffffffffffffffffffffffffffffffff021916908373ffffffffffffffffffffffffffffffffffffffff1602179055505050611762806100c66000396000f3006080604052600436106100fc576000357c0100000000000000000000000000000000000000000000000000000000900463ffffffff16806309851e35146101015780631daf65f8146101505780632479c15c1461017b57806345ed72d7146101a8578063467bb355146101e957806349509f361461022a57806353e065711461027f5780635bc34f711461029657806368b080a4146102c1578063715018a61461030c5780638752e00f146103235780638da5cb5b1461036457806390aa0b0f146103bb578063a6bbe4ac14610412578063cb9e4d1a1461045a578063f2fde38b1461049b578063f93bf625146104de578063ff5810941461051f575b600080fd5b34801561010d57600080fd5b5061012c60048036038101908080359060200190929190505050610536565b60405180848152602001838152602001828152602001935050505060405180910390f35b34801561015c57600080fd5b5061016561056f565b6040518082815260200191505060405180910390f35b34801561018757600080fd5b506101a66004803603810190808035906020019092919050505061057c565b005b3480156101b457600080fd5b506101d360048036038101908080359060200190929190505050610687565b6040518082815260200191505060405180910390f35b3480156101f557600080fd5b50610214600480360381019080803590602001909291905050506106b1565b6040518082815260200191505060405180910390f35b34801561023657600080fd5b50610265600480360381019080803560ff169060200190929190803560ff1690602001909291905050506106db565b604051808215151515815260200191505060405180910390f35b34801561028b57600080fd5b506102946108ac565b005b3480156102a257600080fd5b506102ab610c41565b6040518082815260200191505060405180910390f35b3480156102cd57600080fd5b506102f66004803603810190808035906020019092919080359060200190929190505050610d6f565b6040518082815260200191505060405180910390f35b34801561031857600080fd5b50610321610e20565b005b34801561032f57600080fd5b5061034e60048036038101908080359060200190929190505050610f22565b6040518082815260200191505060405180910390f35b34801561037057600080fd5b50610379610f4c565b604051808273ffffffffffffffffffffffffffffffffffffffff1673ffffffffffffffffffffffffffffffffffffffff16815260200191505060405180910390f35b3480156103c757600080fd5b506103d0610f71565b604051808273ffffffffffffffffffffffffffffffffffffffff1673ffffffffffffffffffffffffffffffffffffffff16815260200191505060405180910390f35b34801561041e57600080fd5b50610440600480360381019080803560ff169060200190929190505050610f9b565b604051808215151515815260200191505060405180910390f35b34801561046657600080fd5b5061048560048036038101908080359060200190929190505050611047565b6040518082815260200191505060405180910390f35b3480156104a757600080fd5b506104dc600480360381019080803573ffffffffffffffffffffffffffffffffffffffff169060200190929190505050611071565b005b3480156104ea57600080fd5b50610509600480360381019080803590602001909291905050506110d8565b6040518082815260200191505060405180910390f35b34801561052b57600080fd5b50610534611102565b005b60038181548110151561054557fe5b90600052602060002090600302016000915090508060000154908060010154908060020154905083565b6000600180549050905090565b6000809054906101000a900473ffffffffffffffffffffffffffffffffffffffff1673ffffffffffffffffffffffffffffffffffffffff163373ffffffffffffffffffffffffffffffffffffffff161415156105d757600080fd5b60016105e1610c41565b60078111156105ec57fe5b60078111156105f757fe5b81600781111561060357fe5b141515610678576040517f08c379a00000000000000000000000000000000000000000000000000000000081526004018080602001828103825260038152602001807f453031000000000000000000000000000000000000000000000000000000000081525060200191505060405180910390fd5b610683826000611167565b5050565b600060018281548110151561069857fe5b9060005260206000209060030201600001549050919050565b60006001828154811015156106c257fe5b9060005260206000209060030201600101549050919050565b6000828260008160078111156106ed57fe5b8360078111156106f957fe5b10151561076e576040517f08c379a00000000000000000000000000000000000000000000000000000000081526004018080602001828103825260038152602001807f453032000000000000000000000000000000000000000000000000000000000081525060200191505060405180910390fd5b610776610c41565b600781111561078157fe5b905082600781111561078f57fe5b81600781111561079b57fe5b10151515610811576040517f08c379a00000000000000000000000000000000000000000000000000000000081526004018080602001828103825260038152602001807f453033000000000000000000000000000000000000000000000000000000000081525060200191505060405180910390fd5b81600781111561081d57fe5b81600781111561082957fe5b1115151561089f576040517f08c379a00000000000000000000000000000000000000000000000000000000081526004018080602001828103825260038152602001807f453034000000000000000000000000000000000000000000000000000000000081525060200191505060405180910390fd5b6001935050505092915050565b60008060008060009054906101000a900473ffffffffffffffffffffffffffffffffffffffff1673ffffffffffffffffffffffffffffffffffffffff163373ffffffffffffffffffffffffffffffffffffffff1614151561090c57600080fd5b600061091661056f565b14151561098b576040517f08c379a00000000000000000000000000000000000000000000000000000000081526004018080602001828103825260038152602001807f453035000000000000000000000000000000000000000000000000000000000081525060200191505060405180910390fd5b600260019054906101000a900473ffffffffffffffffffffffffffffffffffffffff1673ffffffffffffffffffffffffffffffffffffffff1663b7a8807c6040518163ffffffff167c0100000000000000000000000000000000000000000000000000000000028152600401602060405180830381600087803b158015610a1157600080fd5b505af1158015610a25573d6000803e3d6000fd5b505050506040513d6020811015610a3b57600080fd5b81019080805190602001909291905050509250600260019054906101000a900473ffffffffffffffffffffffffffffffffffffffff1673ffffffffffffffffffffffffffffffffffffffff16630fb5a6b46040518163ffffffff167c0100000000000000000000000000000000000000000000000000000000028152600401602060405180830381600087803b158015610ad457600080fd5b505af1158015610ae8573d6000803e3d6000fd5b505050506040513d6020811015610afe57600080fd5b81019080805190602001909291905050509150600260019054906101000a900473ffffffffffffffffffffffffffffffffffffffff1673ffffffffffffffffffffffffffffffffffffffff1663ffbfb7c76040518163ffffffff167c0100000000000000000000000000000000000000000000000000000000028152600401602060405180830381600087803b158015610b9757600080fd5b505af1158015610bab573d6000803e3d6000fd5b505050506040513d6020811015610bc157600080fd5b81019080805190602001909291905050509050610be1600080600061121d565b610bee600184600061121d565b610bfb600260008461121d565b610c08600360008061121d565b610c15600460008061121d565b610c22600560008361121d565b610c2f600660008061121d565b610c3c600760008061121d565b505050565b600080600080600080600180549050111515610cc5576040517f08c379a00000000000000000000000000000000000000000000000000000000081526004018080602001828103825260038152602001807f453031000000000000000000000000000000000000000000000000000000000081525060200191505060405180910390fd5b600260009054906101000a900460ff1660ff1693506001600260009054906101000a900460ff1660ff16815481101515610cfb57fe5b90600052602060002090600302016000015492508391505b600180549050821015610d6557610d2a8284610d6f565b9050610d346112c3565b81101580610d485750600180805490500382145b15610d5557819350610d65565b8092508180600101925050610d13565b8394505050505090565b600080610d7a611714565b6000199150600185815481101515610d8e57fe5b9060005260206000209060030201606060405190810160405290816000820154815260200160018201548152602001600282015481525050905060008160400151141515610df057610ded8160400151856112cb90919063ffffffff16565b91505b6000816020015114158015610e085750818160200151105b15610e1557806020015191505b819250505092915050565b6000809054906101000a900473ffffffffffffffffffffffffffffffffffffffff1673ffffffffffffffffffffffffffffffffffffffff163373ffffffffffffffffffffffffffffffffffffffff16141515610e7b57600080fd5b6000809054906101000a900473ffffffffffffffffffffffffffffffffffffffff1673ffffffffffffffffffffffffffffffffffffffff167ff8df31144d9c2f0f6b59d69b8b98abd5459d07f2742c4df920b25aae33c6482060405160405180910390a260008060006101000a81548173ffffffffffffffffffffffffffffffffffffffff021916908373ffffffffffffffffffffffffffffffffffffffff160217905550565b6000600382815481101515610f3357fe5b9060005260206000209060030201600101549050919050565b6000809054906101000a900473ffffffffffffffffffffffffffffffffffffffff1681565b6000600260019054906101000a900473ffffffffffffffffffffffffffffffffffffffff16905090565b600081610fa6610c41565b6007811115610fb157fe5b6007811115610fbc57fe5b816007811115610fc857fe5b14151561103d576040517f08c379a00000000000000000000000000000000000000000000000000000000081526004018080602001828103825260038152602001807f453031000000000000000000000000000000000000000000000000000000000081525060200191505060405180910390fd5b6001915050919050565b600060038281548110151561105857fe5b9060005260206000209060030201600201549050919050565b6000809054906101000a900473ffffffffffffffffffffffffffffffffffffffff1673ffffffffffffffffffffffffffffffffffffffff163373ffffffffffffffffffffffffffffffffffffffff161415156110cc57600080fd5b6110d5816112e7565b50565b60006001828154811015156110e957fe5b9060005260206000209060030201600201549050919050565b6000809054906101000a900473ffffffffffffffffffffffffffffffffffffffff1673ffffffffffffffffffffffffffffffffffffffff163373ffffffffffffffffffffffffffffffffffffffff1614151561115d57600080fd5b6111656113e1565b565b60008060009054906101000a900473ffffffffffffffffffffffffffffffffffffffff1673ffffffffffffffffffffffffffffffffffffffff163373ffffffffffffffffffffffffffffffffffffffff161415156111c457600080fd5b6111cc610c41565b9050826003828154811015156111de57fe5b9060005260206000209060030201600101819055508160038281548110151561120357fe5b906000526020600020906003020160020181905550505050565b611227828261159e565b600781111561123257fe5b600781111561123d57fe5b83600781111561124957fe5b1415156112be576040517f08c379a00000000000000000000000000000000000000000000000000000000081526004018080602001828103825260038152602001807f453036000000000000000000000000000000000000000000000000000000000081525060200191505060405180910390fd5b505050565b600042905090565b600081830190508281101515156112de57fe5b80905092915050565b600073ffffffffffffffffffffffffffffffffffffffff168173ffffffffffffffffffffffffffffffffffffffff161415151561132357600080fd5b8073ffffffffffffffffffffffffffffffffffffffff166000809054906101000a900473ffffffffffffffffffffffffffffffffffffffff1673ffffffffffffffffffffffffffffffffffffffff167f8be0079c531659141344cd1fd0a4f28419497f9722a3daafe3b4186f6b6457e060405160405180910390a3806000806101000a81548173ffffffffffffffffffffffffffffffffffffffff021916908373ffffffffffffffffffffffffffffffffffffffff16021790555050565b60006113eb610c41565b905060018080549050038110151561146b576040517f08c379a000000000000000000000000000000000000000000000000000000000815260040180806020018281038252600f8152602001807f534154455f4d414348494e455f3036000000000000000000000000000000000081525060200191505060405180910390fd5b600060018281548110151561147c57fe5b9060005260206000209060030201600101541480156114bb575060006001828154811015156114a757fe5b906000526020600020906003020160020154145b151561152f576040517f08c379a00000000000000000000000000000000000000000000000000000000081526004018080602001828103825260038152602001807f453037000000000000000000000000000000000000000000000000000000000081525060200191505060405180910390fd5b6115436001826112cb90919063ffffffff16565b600260006101000a81548160ff021916908360ff1602179055506115656112c3565b6001600260009054906101000a900460ff1660ff1681548110151561158657fe5b90600052602060002090600302016000018190555050565b6000600360606040519081016040528060008152602001858152602001848152509080600181540180825580915050906001820390600052602060002090600302016000909192909190915060008201518160000155602082015181600101556040820151816002015550505061161660008061161e565b905092915050565b6000806000809054906101000a900473ffffffffffffffffffffffffffffffffffffffff1673ffffffffffffffffffffffffffffffffffffffff163373ffffffffffffffffffffffffffffffffffffffff1614151561167c57600080fd5b6000905060006001805490501415611699576116966112c3565b90505b60016060604051908101604052808381526020018681526020018581525090806001815401808255809150509060018203906000526020600020906003020160009091929091909150600082015181600001556020820151816001015560408201518160020155505050600180805490500391505092915050565b60606040519081016040528060008152602001600081526020016000815250905600a165627a7a72305820c483ad6fe65069007ca71e2b441a1a299eabf3b839ededc8c54081eae98a8d6d0029",
  "source": "pragma solidity ^0.4.24;\n\nimport \"../interface/ISaleConfig.sol\";\nimport \"../tokensale/MPLTokensalePlan.sol\";\n\n\n/**\n * @title MPLTokensalePlanMock\n * @dev MPLTokensalePlanMock contract\n *\n * @author Cyril Lapinte - <cyril.lapinte@mtpelerin.com>\n */\ncontract MPLTokensalePlanMock is MPLTokensalePlan {\n\n  Step[] public mockSteps;\n\n  constructor(ISaleConfig _saleConfig)\n    MPLTokensalePlan(_saleConfig) public\n  {\n  }\n\n  function mockedStepTransitionEndTime(uint256 _stepId)\n    public view returns (uint256)\n  {\n    return mockSteps[_stepId].transitionEndTime;\n  }\n\n  function mockedStepTransitionDelay(uint256 _stepId)\n    public view returns (uint256)\n  {\n    return mockSteps[_stepId].transitionDelay;\n  }\n\n  function dummyWhenStepIs(Stepname _name)\n    public whenStepIs(_name) view returns (bool)\n  {\n    return true;\n  }\n\n  function dummyWhenBetweenSteps(Stepname _from, Stepname _to)\n    public whenBetweenSteps(_from, _to) view returns (bool)\n  {\n    return true;\n  }\n\n  function nextStepPublic() public onlyOwner {\n    nextStep();\n  }\n\n  /**\n   * @dev to allow easy testing by pass the constraints\n   * on time and delay and allow full manual testing\n   * Value provided should be tested but the engine itself\n   * should have been tested to ensure the value would be properly\n   * executed\n   **/\n  function addStep(\n    uint256 _transitionEndTime,\n    uint256 _transitionDelay) internal returns (uint256)\n  {\n    mockSteps.push(Step(0, _transitionEndTime, _transitionDelay));\n    return super.addStep(0,0);\n  }\n\n  function updateCurrentStep(\n    uint256 _transitionEndTime,\n    uint256 _transitionDelay) internal onlyOwner\n  {\n    uint256 currentStepId = currentStep();\n    mockSteps[currentStepId].transitionEndTime = _transitionEndTime;\n    mockSteps[currentStepId].transitionDelay = _transitionDelay;\n  }\n}\n",
  "sourcePath": "/home/node/project/contracts/mock/MPLTokensalePlanMock.sol",
  "compiler": {
    "name": "solc",
    "version": "0.4.24+commit.e67f0147.Emscripten.clang"
  },
  "schemaVersion": "2.0.1",
  "updatedAt": "2018-08-15T14:19:55.912Z"
}