{
  "contractName": "MPLTokensale",
  "abi": [
    {
      "constant": true,
      "inputs": [],
      "name": "REFUND_PRECISION",
      "outputs": [
        {
          "name": "",
          "type": "uint256"
        }
      ],
      "payable": false,
      "stateMutability": "view",
      "type": "function"
    },
    {
      "constant": true,
      "inputs": [],
      "name": "stepsCount",
      "outputs": [
        {
          "name": "",
          "type": "uint256"
        }
      ],
      "payable": false,
      "stateMutability": "view",
      "type": "function"
    },
    {
      "constant": false,
      "inputs": [
        {
          "name": "_newOpeningTime",
          "type": "uint256"
        }
      ],
      "name": "updateSaleOpeningTime",
      "outputs": [],
      "payable": false,
      "stateMutability": "nonpayable",
      "type": "function"
    },
    {
      "constant": true,
      "inputs": [
        {
          "name": "_stepId",
          "type": "uint256"
        }
      ],
      "name": "stepTime",
      "outputs": [
        {
          "name": "",
          "type": "uint256"
        }
      ],
      "payable": false,
      "stateMutability": "view",
      "type": "function"
    },
    {
      "constant": true,
      "inputs": [
        {
          "name": "_stepId",
          "type": "uint256"
        }
      ],
      "name": "transitionEndTime",
      "outputs": [
        {
          "name": "",
          "type": "uint256"
        }
      ],
      "payable": false,
      "stateMutability": "view",
      "type": "function"
    },
    {
      "constant": false,
      "inputs": [],
      "name": "plan",
      "outputs": [],
      "payable": false,
      "stateMutability": "nonpayable",
      "type": "function"
    },
    {
      "constant": true,
      "inputs": [],
      "name": "currentStep",
      "outputs": [
        {
          "name": "",
          "type": "uint256"
        }
      ],
      "payable": false,
      "stateMutability": "view",
      "type": "function"
    },
    {
      "constant": true,
      "inputs": [
        {
          "name": "_stepId",
          "type": "uint256"
        },
        {
          "name": "_startedAt",
          "type": "uint256"
        }
      ],
      "name": "stepEndTime",
      "outputs": [
        {
          "name": "",
          "type": "uint256"
        }
      ],
      "payable": false,
      "stateMutability": "view",
      "type": "function"
    },
    {
      "constant": false,
      "inputs": [],
      "name": "renounceOwnership",
      "outputs": [],
      "payable": false,
      "stateMutability": "nonpayable",
      "type": "function"
    },
    {
      "constant": true,
      "inputs": [],
      "name": "owner",
      "outputs": [
        {
          "name": "",
          "type": "address"
        }
      ],
      "payable": false,
      "stateMutability": "view",
      "type": "function"
    },
    {
      "constant": true,
      "inputs": [],
      "name": "saleConfig",
      "outputs": [
        {
          "name": "",
          "type": "address"
        }
      ],
      "payable": false,
      "stateMutability": "view",
      "type": "function"
    },
    {
      "constant": false,
      "inputs": [
        {
          "name": "_newOwner",
          "type": "address"
        }
      ],
      "name": "transferOwnership",
      "outputs": [],
      "payable": false,
      "stateMutability": "nonpayable",
      "type": "function"
    },
    {
      "constant": true,
      "inputs": [
        {
          "name": "_stepId",
          "type": "uint256"
        }
      ],
      "name": "transitionDelay",
      "outputs": [
        {
          "name": "",
          "type": "uint256"
        }
      ],
      "payable": false,
      "stateMutability": "view",
      "type": "function"
    },
    {
      "inputs": [
        {
          "name": "_vault",
          "type": "address"
        },
        {
          "name": "_saleConfig",
          "type": "address"
        },
        {
          "name": "_userRegistry",
          "type": "address"
        }
      ],
      "payable": false,
      "stateMutability": "nonpayable",
      "type": "constructor"
    },
    {
      "payable": true,
      "stateMutability": "payable",
      "type": "fallback"
    },
    {
      "anonymous": false,
      "inputs": [
        {
          "indexed": true,
          "name": "investor",
          "type": "address"
        },
        {
          "indexed": false,
          "name": "amountETH",
          "type": "uint256"
        },
        {
          "indexed": false,
          "name": "amountCHF",
          "type": "uint256"
        }
      ],
      "name": "Investment",
      "type": "event"
    },
    {
      "anonymous": false,
      "inputs": [
        {
          "indexed": true,
          "name": "investor",
          "type": "address"
        },
        {
          "indexed": false,
          "name": "amount",
          "type": "uint256"
        }
      ],
      "name": "InvestmentETHRejected",
      "type": "event"
    },
    {
      "anonymous": false,
      "inputs": [
        {
          "indexed": true,
          "name": "investor",
          "type": "address"
        },
        {
          "indexed": false,
          "name": "amount",
          "type": "uint256"
        }
      ],
      "name": "InvestmentCHFRejected",
      "type": "event"
    },
    {
      "anonymous": false,
      "inputs": [
        {
          "indexed": false,
          "name": "raisedCHF",
          "type": "uint256"
        },
        {
          "indexed": false,
          "name": "refundETH",
          "type": "uint256"
        }
      ],
      "name": "SaleProcessed",
      "type": "event"
    },
    {
      "anonymous": false,
      "inputs": [
        {
          "indexed": false,
          "name": "amount",
          "type": "uint256"
        }
      ],
      "name": "WithdrawETH",
      "type": "event"
    },
    {
      "anonymous": false,
      "inputs": [
        {
          "indexed": true,
          "name": "previousOwner",
          "type": "address"
        }
      ],
      "name": "OwnershipRenounced",
      "type": "event"
    },
    {
      "anonymous": false,
      "inputs": [
        {
          "indexed": true,
          "name": "previousOwner",
          "type": "address"
        },
        {
          "indexed": true,
          "name": "newOwner",
          "type": "address"
        }
      ],
      "name": "OwnershipTransferred",
      "type": "event"
    },
    {
      "constant": true,
      "inputs": [
        {
          "name": "_rateETHCHF",
          "type": "uint256"
        },
        {
          "name": "_rateETHCHFDecimal",
          "type": "uint256"
        }
      ],
      "name": "convertFromETHCHF",
      "outputs": [
        {
          "name": "",
          "type": "uint256"
        }
      ],
      "payable": false,
      "stateMutability": "pure",
      "type": "function"
    },
    {
      "constant": true,
      "inputs": [
        {
          "name": "_rateWEIPerCHFCent",
          "type": "uint256"
        },
        {
          "name": "_rateETHCHFDecimal",
          "type": "uint256"
        }
      ],
      "name": "convertToETHCHF",
      "outputs": [
        {
          "name": "",
          "type": "uint256"
        }
      ],
      "payable": false,
      "stateMutability": "pure",
      "type": "function"
    },
    {
      "constant": false,
      "inputs": [
        {
          "name": "_minter",
          "type": "address"
        }
      ],
      "name": "setupMinter",
      "outputs": [],
      "payable": false,
      "stateMutability": "nonpayable",
      "type": "function"
    },
    {
      "constant": true,
      "inputs": [],
      "name": "vault",
      "outputs": [
        {
          "name": "",
          "type": "address"
        }
      ],
      "payable": false,
      "stateMutability": "view",
      "type": "function"
    },
    {
      "constant": true,
      "inputs": [],
      "name": "minter",
      "outputs": [
        {
          "name": "",
          "type": "address"
        }
      ],
      "payable": false,
      "stateMutability": "view",
      "type": "function"
    },
    {
      "constant": true,
      "inputs": [],
      "name": "userRegistry",
      "outputs": [
        {
          "name": "",
          "type": "address"
        }
      ],
      "payable": false,
      "stateMutability": "view",
      "type": "function"
    },
    {
      "constant": true,
      "inputs": [
        {
          "name": "_userId",
          "type": "uint256"
        }
      ],
      "name": "investorDepositETH",
      "outputs": [
        {
          "name": "",
          "type": "uint256"
        }
      ],
      "payable": false,
      "stateMutability": "view",
      "type": "function"
    },
    {
      "constant": true,
      "inputs": [
        {
          "name": "_userId",
          "type": "uint256"
        }
      ],
      "name": "investorDepositCHF",
      "outputs": [
        {
          "name": "",
          "type": "uint256"
        }
      ],
      "payable": false,
      "stateMutability": "view",
      "type": "function"
    },
    {
      "constant": true,
      "inputs": [
        {
          "name": "_userId",
          "type": "uint256"
        }
      ],
      "name": "investorDestination",
      "outputs": [
        {
          "name": "",
          "type": "address"
        }
      ],
      "payable": false,
      "stateMutability": "view",
      "type": "function"
    },
    {
      "constant": true,
      "inputs": [
        {
          "name": "_userId",
          "type": "uint256"
        }
      ],
      "name": "investorTokens",
      "outputs": [
        {
          "name": "",
          "type": "uint256"
        }
      ],
      "payable": false,
      "stateMutability": "view",
      "type": "function"
    },
    {
      "constant": true,
      "inputs": [
        {
          "name": "_userId",
          "type": "uint256"
        }
      ],
      "name": "investorIsRefunded",
      "outputs": [
        {
          "name": "",
          "type": "bool"
        }
      ],
      "payable": false,
      "stateMutability": "view",
      "type": "function"
    },
    {
      "constant": true,
      "inputs": [
        {
          "name": "_userId",
          "type": "uint256"
        }
      ],
      "name": "investorIsPrepared",
      "outputs": [
        {
          "name": "",
          "type": "bool"
        }
      ],
      "payable": false,
      "stateMutability": "view",
      "type": "function"
    },
    {
      "constant": true,
      "inputs": [
        {
          "name": "_userId",
          "type": "uint256"
        }
      ],
      "name": "investorIsMinted",
      "outputs": [
        {
          "name": "",
          "type": "bool"
        }
      ],
      "payable": false,
      "stateMutability": "view",
      "type": "function"
    },
    {
      "constant": true,
      "inputs": [],
      "name": "investorCount",
      "outputs": [
        {
          "name": "",
          "type": "uint256"
        }
      ],
      "payable": false,
      "stateMutability": "view",
      "type": "function"
    },
    {
      "constant": true,
      "inputs": [],
      "name": "contributorCount",
      "outputs": [
        {
          "name": "",
          "type": "uint256"
        }
      ],
      "payable": false,
      "stateMutability": "view",
      "type": "function"
    },
    {
      "constant": true,
      "inputs": [],
      "name": "preparedCount",
      "outputs": [
        {
          "name": "",
          "type": "uint256"
        }
      ],
      "payable": false,
      "stateMutability": "view",
      "type": "function"
    },
    {
      "constant": true,
      "inputs": [],
      "name": "mintedCount",
      "outputs": [
        {
          "name": "",
          "type": "uint256"
        }
      ],
      "payable": false,
      "stateMutability": "view",
      "type": "function"
    },
    {
      "constant": true,
      "inputs": [],
      "name": "rateWEIPerCHFCent",
      "outputs": [
        {
          "name": "",
          "type": "uint256"
        }
      ],
      "payable": false,
      "stateMutability": "view",
      "type": "function"
    },
    {
      "constant": true,
      "inputs": [
        {
          "name": "_rateETHCHFDecimal",
          "type": "uint256"
        }
      ],
      "name": "rateETHCHF",
      "outputs": [
        {
          "name": "",
          "type": "uint256"
        }
      ],
      "payable": false,
      "stateMutability": "view",
      "type": "function"
    },
    {
      "constant": true,
      "inputs": [],
      "name": "raisedCHF",
      "outputs": [
        {
          "name": "",
          "type": "uint256"
        }
      ],
      "payable": false,
      "stateMutability": "view",
      "type": "function"
    },
    {
      "constant": true,
      "inputs": [],
      "name": "totalRaisedCHF",
      "outputs": [
        {
          "name": "",
          "type": "uint256"
        }
      ],
      "payable": false,
      "stateMutability": "view",
      "type": "function"
    },
    {
      "constant": true,
      "inputs": [],
      "name": "raisedETH",
      "outputs": [
        {
          "name": "",
          "type": "uint256"
        }
      ],
      "payable": false,
      "stateMutability": "view",
      "type": "function"
    },
    {
      "constant": true,
      "inputs": [],
      "name": "refundETH",
      "outputs": [
        {
          "name": "",
          "type": "uint256"
        }
      ],
      "payable": false,
      "stateMutability": "view",
      "type": "function"
    },
    {
      "constant": true,
      "inputs": [],
      "name": "refundRatio",
      "outputs": [
        {
          "name": "",
          "type": "uint256"
        }
      ],
      "payable": false,
      "stateMutability": "view",
      "type": "function"
    },
    {
      "constant": true,
      "inputs": [],
      "name": "refundPrecision",
      "outputs": [
        {
          "name": "",
          "type": "uint256"
        }
      ],
      "payable": false,
      "stateMutability": "pure",
      "type": "function"
    },
    {
      "constant": false,
      "inputs": [],
      "name": "investETH",
      "outputs": [],
      "payable": true,
      "stateMutability": "payable",
      "type": "function"
    },
    {
      "constant": false,
      "inputs": [
        {
          "name": "_investor",
          "type": "address"
        },
        {
          "name": "_amountCHF",
          "type": "uint256"
        }
      ],
      "name": "addOffChainInvestment",
      "outputs": [],
      "payable": false,
      "stateMutability": "nonpayable",
      "type": "function"
    },
    {
      "constant": false,
      "inputs": [
        {
          "name": "_userId",
          "type": "uint256"
        },
        {
          "name": "_amount",
          "type": "uint256"
        }
      ],
      "name": "rejectETHFunds",
      "outputs": [],
      "payable": false,
      "stateMutability": "nonpayable",
      "type": "function"
    },
    {
      "constant": false,
      "inputs": [
        {
          "name": "_userId",
          "type": "uint256"
        },
        {
          "name": "_amount",
          "type": "uint256"
        }
      ],
      "name": "rejectCHFFunds",
      "outputs": [],
      "payable": false,
      "stateMutability": "nonpayable",
      "type": "function"
    },
    {
      "constant": false,
      "inputs": [
        {
          "name": "_rateETHCHF",
          "type": "uint256"
        },
        {
          "name": "_rateETHCHFDecimal",
          "type": "uint256"
        }
      ],
      "name": "defineRate",
      "outputs": [],
      "payable": false,
      "stateMutability": "nonpayable",
      "type": "function"
    },
    {
      "constant": false,
      "inputs": [],
      "name": "processSale",
      "outputs": [],
      "payable": false,
      "stateMutability": "nonpayable",
      "type": "function"
    },
    {
      "constant": false,
      "inputs": [
        {
          "name": "_userId",
          "type": "uint256"
        }
      ],
      "name": "prepareMinting",
      "outputs": [],
      "payable": false,
      "stateMutability": "nonpayable",
      "type": "function"
    },
    {
      "constant": false,
      "inputs": [
        {
          "name": "_userIds",
          "type": "uint256[]"
        }
      ],
      "name": "prepareMintingForManyUsers",
      "outputs": [],
      "payable": false,
      "stateMutability": "nonpayable",
      "type": "function"
    },
    {
      "constant": false,
      "inputs": [],
      "name": "enableMinting",
      "outputs": [],
      "payable": false,
      "stateMutability": "nonpayable",
      "type": "function"
    },
    {
      "constant": false,
      "inputs": [],
      "name": "mintSelf",
      "outputs": [],
      "payable": false,
      "stateMutability": "nonpayable",
      "type": "function"
    },
    {
      "constant": false,
      "inputs": [
        {
          "name": "_userId",
          "type": "uint256"
        }
      ],
      "name": "mint",
      "outputs": [],
      "payable": false,
      "stateMutability": "nonpayable",
      "type": "function"
    },
    {
      "constant": false,
      "inputs": [
        {
          "name": "_userIds",
          "type": "uint256[]"
        }
      ],
      "name": "mintForManyUsers",
      "outputs": [],
      "payable": false,
      "stateMutability": "nonpayable",
      "type": "function"
    },
    {
      "constant": false,
      "inputs": [],
      "name": "withdrawETHFunds",
      "outputs": [],
      "payable": false,
      "stateMutability": "nonpayable",
      "type": "function"
    },
    {
      "constant": false,
      "inputs": [],
      "name": "finishDistribution",
      "outputs": [],
      "payable": false,
      "stateMutability": "nonpayable",
      "type": "function"
    }
  ],
  "bytecode": "0x608060405234801561001057600080fd5b50604051606080620056d783398101806040528101908080519060200190929190805190602001909291908051906020019092919050505081336000806101000a81548173ffffffffffffffffffffffffffffffffffffffff021916908373ffffffffffffffffffffffffffffffffffffffff16021790555080600260016101000a81548173ffffffffffffffffffffffffffffffffffffffff021916908373ffffffffffffffffffffffffffffffffffffffff1602179055505082600360006101000a81548173ffffffffffffffffffffffffffffffffffffffff021916908373ffffffffffffffffffffffffffffffffffffffff16021790555080600560006101000a81548173ffffffffffffffffffffffffffffffffffffffff021916908373ffffffffffffffffffffffffffffffffffffffff16021790555050505061557780620001606000396000f300608060405260043610610272576000357c0100000000000000000000000000000000000000000000000000000000900463ffffffff1680630562ac27146102f7578063075461721461033857806308510f181461038f5780630ac37bd6146103ba5780630d8b19cc146103e557806312210e8a1461041c578063171129a4146104475780631daf65f81461047257806322ed7b851461049d5780632479c15c146104e25780632a486a281461050f5780632d1bc65c1461053a578063318851191461056557806341587d251461057c57806345ed72d7146105c1578063467bb3551461060257806353e06571146106435780635bc34f711461065a5780635beb892d146106855780635c7460d6146106f25780635cf590d914610749578063629f349d1461077457806368b080a41461078b578063715018a6146107d657806376dacf60146107ed5780637e37a4fe14610824578063837fd8cc1461085157806387135dca1461089c5780638da5cb5b146108e15780638f3bfe2f1461093857806390aa0b0f1461097b57806395b6de79146109d25780639b1cbccc14610a385780639e2d2c0d14610a4f578063a0712d6814610a86578063a39cfae614610ab3578063abcf302914610abd578063b957fe2a14610b23578063c709b4e714610b3a578063cd9d535314610b7b578063cf721b1514610bc8578063d3b7c65114610bf3578063d7e64c0014610c1e578063ddab00a214610c49578063e797ec1b14610c94578063ecfd892814610cab578063ef2119d214610cd6578063f2fde38b14610d01578063f93bf62514610d44578063fbfa77cf14610d85578063fdbd1a1a14610ddc578063ffb8b2c014610e1d575b6000803690501415156102ed576040517f08c379a00000000000000000000000000000000000000000000000000000000081526004018080602001828103825260038152602001807f453031000000000000000000000000000000000000000000000000000000000081525060200191505060405180910390fd5b6102f5610e5e565b005b34801561030357600080fd5b5061032260048036038101908080359060200190929190505050610f0e565b6040518082815260200191505060405180910390f35b34801561034457600080fd5b5061034d610f2e565b604051808273ffffffffffffffffffffffffffffffffffffffff1673ffffffffffffffffffffffffffffffffffffffff16815260200191505060405180910390f35b34801561039b57600080fd5b506103a4610f58565b6040518082815260200191505060405180910390f35b3480156103c657600080fd5b506103cf610f62565b6040518082815260200191505060405180910390f35b3480156103f157600080fd5b5061041a6004803603810190808035906020019092919080359060200190929190505050610f6c565b005b34801561042857600080fd5b506104316110fe565b6040518082815260200191505060405180910390f35b34801561045357600080fd5b5061045c611108565b6040518082815260200191505060405180910390f35b34801561047e57600080fd5b50610487611110565b6040518082815260200191505060405180910390f35b3480156104a957600080fd5b506104c86004803603810190808035906020019092919050505061111d565b604051808215151515815260200191505060405180910390f35b3480156104ee57600080fd5b5061050d6004803603810190808035906020019092919050505061114a565b005b34801561051b57600080fd5b50610524611255565b6040518082815260200191505060405180910390f35b34801561054657600080fd5b5061054f61125f565b6040518082815260200191505060405180910390f35b34801561057157600080fd5b5061057a611269565b005b34801561058857600080fd5b506105a760048036038101908080359060200190929190505050611413565b604051808215151515815260200191505060405180910390f35b3480156105cd57600080fd5b506105ec60048036038101908080359060200190929190505050611440565b6040518082815260200191505060405180910390f35b34801561060e57600080fd5b5061062d6004803603810190808035906020019092919050505061146a565b6040518082815260200191505060405180910390f35b34801561064f57600080fd5b50610658611494565b005b34801561066657600080fd5b5061066f611829565b6040518082815260200191505060405180910390f35b34801561069157600080fd5b506106b060048036038101908080359060200190929190505050611957565b604051808273ffffffffffffffffffffffffffffffffffffffff1673ffffffffffffffffffffffffffffffffffffffff16815260200191505060405180910390f35b3480156106fe57600080fd5b50610707611997565b604051808273ffffffffffffffffffffffffffffffffffffffff1673ffffffffffffffffffffffffffffffffffffffff16815260200191505060405180910390f35b34801561075557600080fd5b5061075e6119c1565b6040518082815260200191505060405180910390f35b34801561078057600080fd5b506107896119cb565b005b34801561079757600080fd5b506107c06004803603810190808035906020019092919080359060200190929190505050611ae5565b6040518082815260200191505060405180910390f35b3480156107e257600080fd5b506107eb611b96565b005b3480156107f957600080fd5b506108226004803603810190808035906020019092919080359060200190929190505050611c98565b005b34801561083057600080fd5b5061084f6004803603810190808035906020019092919050505061204e565b005b34801561085d57600080fd5b506108866004803603810190808035906020019092919080359060200190929190505050612528565b6040518082815260200191505060405180910390f35b3480156108a857600080fd5b506108c76004803603810190808035906020019092919050505061256d565b604051808215151515815260200191505060405180910390f35b3480156108ed57600080fd5b506108f661259a565b604051808273ffffffffffffffffffffffffffffffffffffffff1673ffffffffffffffffffffffffffffffffffffffff16815260200191505060405180910390f35b34801561094457600080fd5b50610979600480360381019080803573ffffffffffffffffffffffffffffffffffffffff1690602001909291905050506125bf565b005b34801561098757600080fd5b506109906129c8565b604051808273ffffffffffffffffffffffffffffffffffffffff1673ffffffffffffffffffffffffffffffffffffffff16815260200191505060405180910390f35b3480156109de57600080fd5b50610a36600480360381019080803590602001908201803590602001908080602002602001604051908101604052809392919081815260200183836020028082843782019150505050505091929192905050506129f2565b005b348015610a4457600080fd5b50610a4d612b30565b005b348015610a5b57600080fd5b50610a8460048036038101908080359060200190929190803590602001909291905050506132e0565b005b348015610a9257600080fd5b50610ab160048036038101908080359060200190929190505050613646565b005b610abb610e5e565b005b348015610ac957600080fd5b50610b2160048036038101908080359060200190820180359060200190808060200260200160405190810160405280939291908181526020018383602002808284378201915050505050509192919290505050613a2c565b005b348015610b2f57600080fd5b50610b38613c8f565b005b348015610b4657600080fd5b50610b6560048036038101908080359060200190929190505050613e5c565b6040518082815260200191505060405180910390f35b348015610b8757600080fd5b50610bc6600480360381019080803573ffffffffffffffffffffffffffffffffffffffff16906020019092919080359060200190929190505050613e71565b005b348015610bd457600080fd5b50610bdd6140a3565b6040518082815260200191505060405180910390f35b348015610bff57600080fd5b50610c086140ad565b6040518082815260200191505060405180910390f35b348015610c2a57600080fd5b50610c336140b9565b6040518082815260200191505060405180910390f35b348015610c5557600080fd5b50610c7e60048036038101908080359060200190929190803590602001909291905050506140c3565b6040518082815260200191505060405180910390f35b348015610ca057600080fd5b50610ca9614108565b005b348015610cb757600080fd5b50610cc061428a565b6040518082815260200191505060405180910390f35b348015610ce257600080fd5b50610ceb614294565b6040518082815260200191505060405180910390f35b348015610d0d57600080fd5b50610d42600480360381019080803573ffffffffffffffffffffffffffffffffffffffff16906020019092919050505061429e565b005b348015610d5057600080fd5b50610d6f60048036038101908080359060200190929190505050614305565b6040518082815260200191505060405180910390f35b348015610d9157600080fd5b50610d9a61432f565b604051808273ffffffffffffffffffffffffffffffffffffffff1673ffffffffffffffffffffffffffffffffffffffff16815260200191505060405180910390f35b348015610de857600080fd5b50610e0760048036038101908080359060200190929190505050614359565b6040518082815260200191505060405180910390f35b348015610e2957600080fd5b50610e4860048036038101908080359060200190929190505050614379565b6040518082815260200191505060405180910390f35b6002610e68611829565b6007811115610e7357fe5b6007811115610e7e57fe5b816007811115610e8a57fe5b141515610eff576040517f08c379a00000000000000000000000000000000000000000000000000000000081526004018080602001828103825260038152602001807f453031000000000000000000000000000000000000000000000000000000000081525060200191505060405180910390fd5b610f0b33346000614399565b50565b600060066000838152602001908152602001600020600201549050919050565b6000600460009054906101000a900473ffffffffffffffffffffffffffffffffffffffff16905090565b6000600c54905090565b6000600b54905090565b6000809054906101000a900473ffffffffffffffffffffffffffffffffffffffff1673ffffffffffffffffffffffffffffffffffffffff163373ffffffffffffffffffffffffffffffffffffffff16141515610fc757600080fd5b6003610fd1611829565b6007811115610fdc57fe5b6007811115610fe757fe5b816007811115610ff357fe5b141515611068576040517f08c379a00000000000000000000000000000000000000000000000000000000081526004018080602001828103825260038152602001807f453031000000000000000000000000000000000000000000000000000000000081525060200191505060405180910390fd5b600083141515156110e1576040517f08c379a00000000000000000000000000000000000000000000000000000000081526004018080602001828103825260038152602001807f453037000000000000000000000000000000000000000000000000000000000081525060200191505060405180910390fd5b6110eb8383612528565b600b819055506110f9614bf8565b505050565b6000600f54905090565b633b9aca0081565b6000600180549050905090565b60006006600083815260200190815260200160002060030160149054906101000a900460ff169050919050565b6000809054906101000a900473ffffffffffffffffffffffffffffffffffffffff1673ffffffffffffffffffffffffffffffffffffffff163373ffffffffffffffffffffffffffffffffffffffff161415156111a557600080fd5b60016111af611829565b60078111156111ba57fe5b60078111156111c557fe5b8160078111156111d157fe5b141515611246576040517f08c379a00000000000000000000000000000000000000000000000000000000081526004018080602001828103825260038152602001807f453031000000000000000000000000000000000000000000000000000000000081525060200191505060405180910390fd5b611251826000614dd3565b5050565b6000600d54905090565b6000600e54905090565b60006005611275611829565b600781111561128057fe5b600781111561128b57fe5b81600781111561129757fe5b14151561130c576040517f08c379a00000000000000000000000000000000000000000000000000000000081526004018080602001828103825260038152602001807f453031000000000000000000000000000000000000000000000000000000000081525060200191505060405180910390fd5b600560009054906101000a900473ffffffffffffffffffffffffffffffffffffffff1673ffffffffffffffffffffffffffffffffffffffff1663376fe102336040518263ffffffff167c0100000000000000000000000000000000000000000000000000000000028152600401808273ffffffffffffffffffffffffffffffffffffffff1673ffffffffffffffffffffffffffffffffffffffff168152602001915050602060405180830381600087803b1580156113c957600080fd5b505af11580156113dd573d6000803e3d6000fd5b505050506040513d60208110156113f357600080fd5b8101908080519060200190929190505050915061140f82613646565b5050565b60006006600083815260200190815260200160002060030160159054906101000a900460ff169050919050565b600060018281548110151561145157fe5b9060005260206000209060030201600001549050919050565b600060018281548110151561147b57fe5b9060005260206000209060030201600101549050919050565b60008060008060009054906101000a900473ffffffffffffffffffffffffffffffffffffffff1673ffffffffffffffffffffffffffffffffffffffff163373ffffffffffffffffffffffffffffffffffffffff161415156114f457600080fd5b60006114fe611110565b141515611573576040517f08c379a00000000000000000000000000000000000000000000000000000000081526004018080602001828103825260038152602001807f453035000000000000000000000000000000000000000000000000000000000081525060200191505060405180910390fd5b600260019054906101000a900473ffffffffffffffffffffffffffffffffffffffff1673ffffffffffffffffffffffffffffffffffffffff1663b7a8807c6040518163ffffffff167c0100000000000000000000000000000000000000000000000000000000028152600401602060405180830381600087803b1580156115f957600080fd5b505af115801561160d573d6000803e3d6000fd5b505050506040513d602081101561162357600080fd5b81019080805190602001909291905050509250600260019054906101000a900473ffffffffffffffffffffffffffffffffffffffff1673ffffffffffffffffffffffffffffffffffffffff16630fb5a6b46040518163ffffffff167c0100000000000000000000000000000000000000000000000000000000028152600401602060405180830381600087803b1580156116bc57600080fd5b505af11580156116d0573d6000803e3d6000fd5b505050506040513d60208110156116e657600080fd5b81019080805190602001909291905050509150600260019054906101000a900473ffffffffffffffffffffffffffffffffffffffff1673ffffffffffffffffffffffffffffffffffffffff1663ffbfb7c76040518163ffffffff167c0100000000000000000000000000000000000000000000000000000000028152600401602060405180830381600087803b15801561177f57600080fd5b505af1158015611793573d6000803e3d6000fd5b505050506040513d60208110156117a957600080fd5b810190808051906020019092919050505090506117c9600080600061504b565b6117d6600184600061504b565b6117e3600260008461504b565b6117f0600360008061504b565b6117fd600460008061504b565b61180a600560008361504b565b611817600660008061504b565b611824600760008061504b565b505050565b6000806000806000806001805490501115156118ad576040517f08c379a00000000000000000000000000000000000000000000000000000000081526004018080602001828103825260038152602001807f453031000000000000000000000000000000000000000000000000000000000081525060200191505060405180910390fd5b600260009054906101000a900460ff1660ff1693506001600260009054906101000a900460ff1660ff168154811015156118e357fe5b90600052602060002090600302016000015492508391505b60018054905082101561194d576119128284611ae5565b905061191c6150f1565b811015806119305750600180805490500382145b1561193d5781935061194d565b80925081806001019250506118fb565b8394505050505090565b60006006600083815260200190815260200160002060030160009054906101000a900473ffffffffffffffffffffffffffffffffffffffff169050919050565b6000600560009054906101000a900473ffffffffffffffffffffffffffffffffffffffff16905090565b6000601054905090565b60008060009054906101000a900473ffffffffffffffffffffffffffffffffffffffff1673ffffffffffffffffffffffffffffffffffffffff163373ffffffffffffffffffffffffffffffffffffffff16141515611a2857600080fd5b3073ffffffffffffffffffffffffffffffffffffffff16319050600360009054906101000a900473ffffffffffffffffffffffffffffffffffffffff1673ffffffffffffffffffffffffffffffffffffffff166108fc829081150290604051600060405180830381858888f19350505050158015611aaa573d6000803e3d6000fd5b507f94effa14ea3a1ef396fa2fd829336d1597f1d76b548c26bfa2332869706638af816040518082815260200191505060405180910390a150565b600080611af0615529565b6000199150600185815481101515611b0457fe5b9060005260206000209060030201606060405190810160405290816000820154815260200160018201548152602001600282015481525050905060008160400151141515611b6657611b638160400151856150f990919063ffffffff16565b91505b6000816020015114158015611b7e5750818160200151105b15611b8b57806020015191505b819250505092915050565b6000809054906101000a900473ffffffffffffffffffffffffffffffffffffffff1673ffffffffffffffffffffffffffffffffffffffff163373ffffffffffffffffffffffffffffffffffffffff16141515611bf157600080fd5b6000809054906101000a900473ffffffffffffffffffffffffffffffffffffffff1673ffffffffffffffffffffffffffffffffffffffff167ff8df31144d9c2f0f6b59d69b8b98abd5459d07f2742c4df920b25aae33c6482060405160405180910390a260008060006101000a81548173ffffffffffffffffffffffffffffffffffffffff021916908373ffffffffffffffffffffffffffffffffffffffff160217905550565b60008060009054906101000a900473ffffffffffffffffffffffffffffffffffffffff1673ffffffffffffffffffffffffffffffffffffffff163373ffffffffffffffffffffffffffffffffffffffff16141515611cf557600080fd5b600160036000816007811115611d0757fe5b836007811115611d1357fe5b101515611d88576040517f08c379a00000000000000000000000000000000000000000000000000000000081526004018080602001828103825260038152602001807f453032000000000000000000000000000000000000000000000000000000000081525060200191505060405180910390fd5b611d90611829565b6007811115611d9b57fe5b9050826007811115611da957fe5b816007811115611db557fe5b10151515611e2b576040517f08c379a00000000000000000000000000000000000000000000000000000000081526004018080602001828103825260038152602001807f453033000000000000000000000000000000000000000000000000000000000081525060200191505060405180910390fd5b816007811115611e3757fe5b816007811115611e4357fe5b11151515611eb9576040517f08c379a00000000000000000000000000000000000000000000000000000000081526004018080602001828103825260038152602001807f453034000000000000000000000000000000000000000000000000000000000081525060200191505060405180910390fd5b60066000878152602001908152602001600020935084846000015410151515611f4a576040517f08c379a00000000000000000000000000000000000000000000000000000000081526004018080602001828103825260038152602001807f453035000000000000000000000000000000000000000000000000000000000081525060200191505060405180910390fd5b611f6185856000015461511590919063ffffffff16565b84600001819055508360030160009054906101000a900473ffffffffffffffffffffffffffffffffffffffff1673ffffffffffffffffffffffffffffffffffffffff166108fc869081150290604051600060405180830381858888f19350505050158015611fd3573d6000803e3d6000fd5b508360030160009054906101000a900473ffffffffffffffffffffffffffffffffffffffff1673ffffffffffffffffffffffffffffffffffffffff167f9480f63de8d74c57f8d0b3e7508d5ad1af141f486e78ea2d15c427dabb321881866040518082815260200191505060405180910390a2505050505050565b6000806000806000809054906101000a900473ffffffffffffffffffffffffffffffffffffffff1673ffffffffffffffffffffffffffffffffffffffff163373ffffffffffffffffffffffffffffffffffffffff161415156120af57600080fd5b60046120b9611829565b60078111156120c457fe5b60078111156120cf57fe5b8160078111156120db57fe5b141515612150576040517f08c379a00000000000000000000000000000000000000000000000000000000081526004018080602001828103825260038152602001807f453031000000000000000000000000000000000000000000000000000000000081525060200191505060405180910390fd5b600660008781526020019081526020016000209450600073ffffffffffffffffffffffffffffffffffffffff168560030160009054906101000a900473ffffffffffffffffffffffffffffffffffffffff1673ffffffffffffffffffffffffffffffffffffffff161415151561222e576040517f08c379a00000000000000000000000000000000000000000000000000000000081526004018080602001828103825260038152602001807f453039000000000000000000000000000000000000000000000000000000000081525060200191505060405180910390fd5b8460030160149054906101000a900460ff161515156122b5576040517f08c379a00000000000000000000000000000000000000000000000000000000081526004018080602001828103825260038152602001807f453130000000000000000000000000000000000000000000000000000000000081525060200191505060405180910390fd5b600093508460010154925060008560000154111561234d576000601054111561230a576123076010546122f9633b9aca00886000015461512e90919063ffffffff16565b61516690919063ffffffff16565b93505b612335600b5461232786886000015461511590919063ffffffff16565b61516690919063ffffffff16565b915061234a82846150f990919063ffffffff16565b92505b600083111561244457612429600260019054906101000a900473ffffffffffffffffffffffffffffffffffffffff1673ffffffffffffffffffffffffffffffffffffffff1663699eb5e36040518163ffffffff167c0100000000000000000000000000000000000000000000000000000000028152600401602060405180830381600087803b1580156123df57600080fd5b505af11580156123f3573d6000803e3d6000fd5b505050506040513d602081101561240957600080fd5b81019080805190602001909291905050508461512e90919063ffffffff16565b85600201819055506008600081548092919060010191905055505b8460030160159054906101000a900460ff161580156124635750600084115b156124f15760018560030160156101000a81548160ff0219169083151502179055508460030160009054906101000a900473ffffffffffffffffffffffffffffffffffffffff1673ffffffffffffffffffffffffffffffffffffffff166108fc859081150290604051600060405180830381858888f193505050501580156124ef573d6000803e3d6000fd5b505b60018560030160146101000a81548160ff021916908315150217905550600960008154809291906001019190505550505050505050565b60008083141561253b5760009050612567565b612564836125536010856150f990919063ffffffff16565b600a0a61516690919063ffffffff16565b90505b92915050565b60006006600083815260200190815260200160002060030160169054906101000a900460ff169050919050565b6000809054906101000a900473ffffffffffffffffffffffffffffffffffffffff1681565b60006125c9611829565b60078111156125d457fe5b60078111156125df57fe5b8160078111156125eb57fe5b141515612660576040517f08c379a00000000000000000000000000000000000000000000000000000000081526004018080602001828103825260038152602001807f453031000000000000000000000000000000000000000000000000000000000081525060200191505060405180910390fd5b600073ffffffffffffffffffffffffffffffffffffffff16600460009054906101000a900473ffffffffffffffffffffffffffffffffffffffff1673ffffffffffffffffffffffffffffffffffffffff16141515612726576040517f08c379a00000000000000000000000000000000000000000000000000000000081526004018080602001828103825260038152602001807f453032000000000000000000000000000000000000000000000000000000000081525060200191505060405180910390fd5b3073ffffffffffffffffffffffffffffffffffffffff168273ffffffffffffffffffffffffffffffffffffffff16638da5cb5b6040518163ffffffff167c0100000000000000000000000000000000000000000000000000000000028152600401602060405180830381600087803b1580156127a157600080fd5b505af11580156127b5573d6000803e3d6000fd5b505050506040513d60208110156127cb57600080fd5b810190808051906020019092919050505073ffffffffffffffffffffffffffffffffffffffff16141515612867576040517f08c379a00000000000000000000000000000000000000000000000000000000081526004018080602001828103825260038152602001807f453033000000000000000000000000000000000000000000000000000000000081525060200191505060405180910390fd5b8173ffffffffffffffffffffffffffffffffffffffff166305d2035b6040518163ffffffff167c0100000000000000000000000000000000000000000000000000000000028152600401602060405180830381600087803b1580156128cb57600080fd5b505af11580156128df573d6000803e3d6000fd5b505050506040513d60208110156128f557600080fd5b810190808051906020019092919050505015151561297b576040517f08c379a00000000000000000000000000000000000000000000000000000000081526004018080602001828103825260038152602001807f453034000000000000000000000000000000000000000000000000000000000081525060200191505060405180910390fd5b81600460006101000a81548173ffffffffffffffffffffffffffffffffffffffff021916908373ffffffffffffffffffffffffffffffffffffffff1602179055506129c461517c565b5050565b6000600260019054906101000a900473ffffffffffffffffffffffffffffffffffffffff16905090565b60008060009054906101000a900473ffffffffffffffffffffffffffffffffffffffff1673ffffffffffffffffffffffffffffffffffffffff163373ffffffffffffffffffffffffffffffffffffffff16141515612a4f57600080fd5b6004612a59611829565b6007811115612a6457fe5b6007811115612a6f57fe5b816007811115612a7b57fe5b141515612af0576040517f08c379a00000000000000000000000000000000000000000000000000000000081526004018080602001828103825260038152602001807f453031000000000000000000000000000000000000000000000000000000000081525060200191505060405180910390fd5b600091505b8251821015612b2b57612b1e8383815181101515612b0f57fe5b9060200190602002015161204e565b8180600101925050612af5565b505050565b6006612b3a611829565b6007811115612b4557fe5b6007811115612b5057fe5b816007811115612b5c57fe5b141515612bd1576040517f08c379a00000000000000000000000000000000000000000000000000000000081526004018080602001828103825260038152602001807f453031000000000000000000000000000000000000000000000000000000000081525060200191505060405180910390fd5b6000809054906101000a900473ffffffffffffffffffffffffffffffffffffffff1673ffffffffffffffffffffffffffffffffffffffff163373ffffffffffffffffffffffffffffffffffffffff16141515612c2c57600080fd5b600854600a54141515612ca7576040517f08c379a00000000000000000000000000000000000000000000000000000000081526004018080602001828103825260038152602001807f453133000000000000000000000000000000000000000000000000000000000081525060200191505060405180910390fd5b600460009054906101000a900473ffffffffffffffffffffffffffffffffffffffff1673ffffffffffffffffffffffffffffffffffffffff166305d2035b6040518163ffffffff167c0100000000000000000000000000000000000000000000000000000000028152600401602060405180830381600087803b158015612d2d57600080fd5b505af1158015612d41573d6000803e3d6000fd5b505050506040513d6020811015612d5757600080fd5b81019080805190602001909291905050501515612e3157600460009054906101000a900473ffffffffffffffffffffffffffffffffffffffff1673ffffffffffffffffffffffffffffffffffffffff16637d64bcb46040518163ffffffff167c0100000000000000000000000000000000000000000000000000000000028152600401602060405180830381600087803b158015612df457600080fd5b505af1158015612e08573d6000803e3d6000fd5b505050506040513d6020811015612e1e57600080fd5b8101908080519060200190929190505050505b3073ffffffffffffffffffffffffffffffffffffffff16600460009054906101000a900473ffffffffffffffffffffffffffffffffffffffff1673ffffffffffffffffffffffffffffffffffffffff16638da5cb5b6040518163ffffffff167c0100000000000000000000000000000000000000000000000000000000028152600401602060405180830381600087803b158015612ece57600080fd5b505af1158015612ee2573d6000803e3d6000fd5b505050506040513d6020811015612ef857600080fd5b810190808051906020019092919050505073ffffffffffffffffffffffffffffffffffffffff16141561301c57600460009054906101000a900473ffffffffffffffffffffffffffffffffffffffff1673ffffffffffffffffffffffffffffffffffffffff1663f2fde38b6000809054906101000a900473ffffffffffffffffffffffffffffffffffffffff166040518263ffffffff167c0100000000000000000000000000000000000000000000000000000000028152600401808273ffffffffffffffffffffffffffffffffffffffff1673ffffffffffffffffffffffffffffffffffffffff168152602001915050600060405180830381600087803b15801561300357600080fd5b505af1158015613017573d6000803e3d6000fd5b505050505b600460009054906101000a900473ffffffffffffffffffffffffffffffffffffffff1673ffffffffffffffffffffffffffffffffffffffff166305d2035b6040518163ffffffff167c0100000000000000000000000000000000000000000000000000000000028152600401602060405180830381600087803b1580156130a257600080fd5b505af11580156130b6573d6000803e3d6000fd5b505050506040513d60208110156130cc57600080fd5b81019080805190602001909291905050501515613151576040517f08c379a00000000000000000000000000000000000000000000000000000000081526004018080602001828103825260038152602001807f453134000000000000000000000000000000000000000000000000000000000081525060200191505060405180910390fd5b6000809054906101000a900473ffffffffffffffffffffffffffffffffffffffff1673ffffffffffffffffffffffffffffffffffffffff16600460009054906101000a900473ffffffffffffffffffffffffffffffffffffffff1673ffffffffffffffffffffffffffffffffffffffff16638da5cb5b6040518163ffffffff167c0100000000000000000000000000000000000000000000000000000000028152600401602060405180830381600087803b15801561320f57600080fd5b505af1158015613223573d6000803e3d6000fd5b505050506040513d602081101561323957600080fd5b810190808051906020019092919050505073ffffffffffffffffffffffffffffffffffffffff161415156132d5576040517f08c379a00000000000000000000000000000000000000000000000000000000081526004018080602001828103825260038152602001807f453135000000000000000000000000000000000000000000000000000000000081525060200191505060405180910390fd5b6132dd61517c565b50565b60008060009054906101000a900473ffffffffffffffffffffffffffffffffffffffff1673ffffffffffffffffffffffffffffffffffffffff163373ffffffffffffffffffffffffffffffffffffffff1614151561333d57600080fd5b60016003600081600781111561334f57fe5b83600781111561335b57fe5b1015156133d0576040517f08c379a00000000000000000000000000000000000000000000000000000000081526004018080602001828103825260038152602001807f453032000000000000000000000000000000000000000000000000000000000081525060200191505060405180910390fd5b6133d8611829565b60078111156133e357fe5b90508260078111156133f157fe5b8160078111156133fd57fe5b10151515613473576040517f08c379a00000000000000000000000000000000000000000000000000000000081526004018080602001828103825260038152602001807f453033000000000000000000000000000000000000000000000000000000000081525060200191505060405180910390fd5b81600781111561347f57fe5b81600781111561348b57fe5b11151515613501576040517f08c379a00000000000000000000000000000000000000000000000000000000081526004018080602001828103825260038152602001807f453034000000000000000000000000000000000000000000000000000000000081525060200191505060405180910390fd5b60066000878152602001908152602001600020935084846001015410151515613592576040517f08c379a00000000000000000000000000000000000000000000000000000000081526004018080602001828103825260038152602001807f453036000000000000000000000000000000000000000000000000000000000081525060200191505060405180910390fd5b6135a985856001015461511590919063ffffffff16565b84600101819055506135c685600c5461511590919063ffffffff16565b600c819055508360030160009054906101000a900473ffffffffffffffffffffffffffffffffffffffff1673ffffffffffffffffffffffffffffffffffffffff167f7b92cb7f5356bbf5575f79f177a23648a0e43829b1527e142f7dac7784fa220e866040518082815260200191505060405180910390a2505050505050565b60006005613652611829565b600781111561365d57fe5b600781111561366857fe5b81600781111561367457fe5b1415156136e9576040517f08c379a00000000000000000000000000000000000000000000000000000000081526004018080602001828103825260038152602001807f453031000000000000000000000000000000000000000000000000000000000081525060200191505060405180910390fd5b600660008481526020019081526020016000209150600073ffffffffffffffffffffffffffffffffffffffff168260030160009054906101000a900473ffffffffffffffffffffffffffffffffffffffff1673ffffffffffffffffffffffffffffffffffffffff16141515156137c7576040517f08c379a00000000000000000000000000000000000000000000000000000000081526004018080602001828103825260038152602001807f453039000000000000000000000000000000000000000000000000000000000081525060200191505060405180910390fd5b60008260020154111515613843576040517f08c379a00000000000000000000000000000000000000000000000000000000081526004018080602001828103825260038152602001807f453139000000000000000000000000000000000000000000000000000000000081525060200191505060405180910390fd5b8160030160169054906101000a900460ff161515156138ca576040517f08c379a00000000000000000000000000000000000000000000000000000000081526004018080602001828103825260038152602001807f453132000000000000000000000000000000000000000000000000000000000081525060200191505060405180910390fd5b600460009054906101000a900473ffffffffffffffffffffffffffffffffffffffff1673ffffffffffffffffffffffffffffffffffffffff166340c10f198360030160009054906101000a900473ffffffffffffffffffffffffffffffffffffffff1684600201546040518363ffffffff167c0100000000000000000000000000000000000000000000000000000000028152600401808373ffffffffffffffffffffffffffffffffffffffff1673ffffffffffffffffffffffffffffffffffffffff16815260200182815260200192505050602060405180830381600087803b1580156139b757600080fd5b505af11580156139cb573d6000803e3d6000fd5b505050506040513d60208110156139e157600080fd5b810190808051906020019092919050505015613a275760018260030160166101000a81548160ff021916908315150217905550600a600081548092919060010191905055505b505050565b60008060009054906101000a900473ffffffffffffffffffffffffffffffffffffffff1673ffffffffffffffffffffffffffffffffffffffff163373ffffffffffffffffffffffffffffffffffffffff16141515613a8957600080fd5b600560066000816007811115613a9b57fe5b836007811115613aa757fe5b101515613b1c576040517f08c379a00000000000000000000000000000000000000000000000000000000081526004018080602001828103825260038152602001807f453032000000000000000000000000000000000000000000000000000000000081525060200191505060405180910390fd5b613b24611829565b6007811115613b2f57fe5b9050826007811115613b3d57fe5b816007811115613b4957fe5b10151515613bbf576040517f08c379a00000000000000000000000000000000000000000000000000000000081526004018080602001828103825260038152602001807f453033000000000000000000000000000000000000000000000000000000000081525060200191505060405180910390fd5b816007811115613bcb57fe5b816007811115613bd757fe5b11151515613c4d576040517f08c379a00000000000000000000000000000000000000000000000000000000081526004018080602001828103825260038152602001807f453034000000000000000000000000000000000000000000000000000000000081525060200191505060405180910390fd5b600093505b8451841015613c8857613c7b8585815181101515613c6c57fe5b90602001906020020151613646565b8380600101945050613c52565b5050505050565b6000809054906101000a900473ffffffffffffffffffffffffffffffffffffffff1673ffffffffffffffffffffffffffffffffffffffff163373ffffffffffffffffffffffffffffffffffffffff16141515613cea57600080fd5b6003613cf4611829565b6007811115613cff57fe5b6007811115613d0a57fe5b816007811115613d1657fe5b141515613d8b576040517f08c379a00000000000000000000000000000000000000000000000000000000081526004018080602001828103825260038152602001807f453031000000000000000000000000000000000000000000000000000000000081525060200191505060405180910390fd5b6000600b5414151515613e06576040517f08c379a00000000000000000000000000000000000000000000000000000000081526004018080602001828103825260038152602001807f453038000000000000000000000000000000000000000000000000000000000081525060200191505060405180910390fd5b613e0e614bf8565b613e1661517c565b7ffd491c5d781031930df21797fa49d7d103b1fe359d46f7d885e7e90b21f03b4e600e54600f54604051808381526020018281526020019250505060405180910390a150565b6000613e6a600b54836140c3565b9050919050565b6000809054906101000a900473ffffffffffffffffffffffffffffffffffffffff1673ffffffffffffffffffffffffffffffffffffffff163373ffffffffffffffffffffffffffffffffffffffff16141515613ecc57600080fd5b600160036000816007811115613ede57fe5b836007811115613eea57fe5b101515613f5f576040517f08c379a00000000000000000000000000000000000000000000000000000000081526004018080602001828103825260038152602001807f453032000000000000000000000000000000000000000000000000000000000081525060200191505060405180910390fd5b613f67611829565b6007811115613f7257fe5b9050826007811115613f8057fe5b816007811115613f8c57fe5b10151515614002576040517f08c379a00000000000000000000000000000000000000000000000000000000081526004018080602001828103825260038152602001807f453033000000000000000000000000000000000000000000000000000000000081525060200191505060405180910390fd5b81600781111561400e57fe5b81600781111561401a57fe5b11151515614090576040517f08c379a00000000000000000000000000000000000000000000000000000000081526004018080602001828103825260038152602001807f453034000000000000000000000000000000000000000000000000000000000081525060200191505060405180910390fd5b61409c85600086614399565b5050505050565b6000600a54905090565b6000633b9aca00905090565b6000600754905090565b6000808314156140d65760009050614102565b6140ff836140ee6010856150f990919063ffffffff16565b600a0a61516690919063ffffffff16565b90505b92915050565b6000809054906101000a900473ffffffffffffffffffffffffffffffffffffffff1673ffffffffffffffffffffffffffffffffffffffff163373ffffffffffffffffffffffffffffffffffffffff1614151561416357600080fd5b600461416d611829565b600781111561417857fe5b600781111561418357fe5b81600781111561418f57fe5b141515614204576040517f08c379a00000000000000000000000000000000000000000000000000000000081526004018080602001828103825260038152602001807f453031000000000000000000000000000000000000000000000000000000000081525060200191505060405180910390fd5b60075460095414151561427f576040517f08c379a00000000000000000000000000000000000000000000000000000000081526004018080602001828103825260038152602001807f453130000000000000000000000000000000000000000000000000000000000081525060200191505060405180910390fd5b61428761517c565b50565b6000600854905090565b6000600954905090565b6000809054906101000a900473ffffffffffffffffffffffffffffffffffffffff1673ffffffffffffffffffffffffffffffffffffffff163373ffffffffffffffffffffffffffffffffffffffff161415156142f957600080fd5b61430281615339565b50565b600060018281548110151561431657fe5b9060005260206000209060030201600201549050919050565b6000600360009054906101000a900473ffffffffffffffffffffffffffffffffffffffff16905090565b600060066000838152602001908152602001600020600001549050919050565b600060066000838152602001908152602001600020600101549050919050565b600080600560009054906101000a900473ffffffffffffffffffffffffffffffffffffffff1673ffffffffffffffffffffffffffffffffffffffff1663376fe102866040518263ffffffff167c0100000000000000000000000000000000000000000000000000000000028152600401808273ffffffffffffffffffffffffffffffffffffffff1673ffffffffffffffffffffffffffffffffffffffff168152602001915050602060405180830381600087803b15801561445957600080fd5b505af115801561446d573d6000803e3d6000fd5b505050506040513d602081101561448357600080fd5b81019080805190602001909291905050509150600560009054906101000a900473ffffffffffffffffffffffffffffffffffffffff1673ffffffffffffffffffffffffffffffffffffffff1663f577a500836040518263ffffffff167c010000000000000000000000000000000000000000000000000000000002815260040180828152602001915050602060405180830381600087803b15801561452757600080fd5b505af115801561453b573d6000803e3d6000fd5b505050506040513d602081101561455157600080fd5b810190808051906020019092919050505015156145d6576040517f08c379a00000000000000000000000000000000000000000000000000000000081526004018080602001828103825260038152602001807f453136000000000000000000000000000000000000000000000000000000000081525060200191505060405180910390fd5b60066000838152602001908152602001600020905060008311156147455761460983600c546150f990919063ffffffff16565b600260019054906101000a900473ffffffffffffffffffffffffffffffffffffffff1673ffffffffffffffffffffffffffffffffffffffff16631924f5516040518163ffffffff167c0100000000000000000000000000000000000000000000000000000000028152600401602060405180830381600087803b15801561468f57600080fd5b505af11580156146a3573d6000803e3d6000fd5b505050506040513d60208110156146b957600080fd5b810190808051906020019092919050505010151515614740576040517f08c379a00000000000000000000000000000000000000000000000000000000081526004018080602001828103825260038152602001807f453137000000000000000000000000000000000000000000000000000000000081525060200191505060405180910390fd5b61487d565b600260019054906101000a900473ffffffffffffffffffffffffffffffffffffffff1673ffffffffffffffffffffffffffffffffffffffff16635bcdb3426040518163ffffffff167c0100000000000000000000000000000000000000000000000000000000028152600401602060405180830381600087803b1580156147cb57600080fd5b505af11580156147df573d6000803e3d6000fd5b505050506040513d60208110156147f557600080fd5b81019080805190602001909291905050508411151561487c576040517f08c379a00000000000000000000000000000000000000000000000000000000081526004018080602001828103825260038152602001807f453138000000000000000000000000000000000000000000000000000000000081525060200191505060405180910390fd5b5b600073ffffffffffffffffffffffffffffffffffffffff168160030160009054906101000a900473ffffffffffffffffffffffffffffffffffffffff1673ffffffffffffffffffffffffffffffffffffffff161415614a8d5760e060405190810160405280858152602001848152602001600081526020018673ffffffffffffffffffffffffffffffffffffffff168152602001600015158152602001600015158152602001600015158152506006600084815260200190815260200160002060008201518160000155602082015181600101556040820151816002015560608201518160030160006101000a81548173ffffffffffffffffffffffffffffffffffffffff021916908373ffffffffffffffffffffffffffffffffffffffff16021790555060808201518160030160146101000a81548160ff02191690831515021790555060a08201518160030160156101000a81548160ff02191690831515021790555060c08201518160030160166101000a81548160ff021916908315150217905550905050614a1a83600c546150f990919063ffffffff16565b600c819055506007600081548092919060010191905055508473ffffffffffffffffffffffffffffffffffffffff167f8514357b17ccbde354811f827b94585a7ab01b4034aa86a807b7cc2c100b7be88585604051808381526020018281526020019250505060405180910390a2614bf1565b6000841115614b3157614aad8482600001546150f990919063ffffffff16565b81600001819055508060030160009054906101000a900473ffffffffffffffffffffffffffffffffffffffff1673ffffffffffffffffffffffffffffffffffffffff167f8514357b17ccbde354811f827b94585a7ab01b4034aa86a807b7cc2c100b7be8856000604051808381526020018281526020019250505060405180910390a25b6000831115614bf057614b518382600101546150f990919063ffffffff16565b8160010181905550614b6e83600c546150f990919063ffffffff16565b600c819055508060030160009054906101000a900473ffffffffffffffffffffffffffffffffffffffff1673ffffffffffffffffffffffffffffffffffffffff167f8514357b17ccbde354811f827b94585a7ab01b4034aa86a807b7cc2c100b7be8600085604051808381526020018281526020019250505060405180910390a25b5b5050505050565b600080600e819055503073ffffffffffffffffffffffffffffffffffffffff1631600d81905550614d08600b54614cfa600c54600260019054906101000a900473ffffffffffffffffffffffffffffffffffffffff1673ffffffffffffffffffffffffffffffffffffffff16631924f5516040518163ffffffff167c0100000000000000000000000000000000000000000000000000000000028152600401602060405180830381600087803b158015614cb157600080fd5b505af1158015614cc5573d6000803e3d6000fd5b505050506040513d6020811015614cdb57600080fd5b810190808051906020019092919050505061511590919063ffffffff16565b61512e90919063ffffffff16565b90506000600f8190555080600d541115614d9e57614d3181600d5461511590919063ffffffff16565b600f81905550614d64600f54614d56633b9aca00600d5461512e90919063ffffffff16565b61516690919063ffffffff16565b601081905550614d93614d82600b548361516690919063ffffffff16565b600c546150f990919063ffffffff16565b600e81905550614dd0565b614dc9614db8600b54600d5461516690919063ffffffff16565b600c546150f990919063ffffffff16565b600e819055505b50565b60008060009054906101000a900473ffffffffffffffffffffffffffffffffffffffff1673ffffffffffffffffffffffffffffffffffffffff163373ffffffffffffffffffffffffffffffffffffffff16141515614e3057600080fd5b614e38611829565b90506000831115614f7f576000600182815481101515614e5457fe5b906000526020600020906003020160010154111515614edb576040517f08c379a00000000000000000000000000000000000000000000000000000000081526004018080602001828103825260038152602001807f453034000000000000000000000000000000000000000000000000000000000081525060200191505060405180910390fd5b614ee36150f1565b83111515614f59576040517f08c379a00000000000000000000000000000000000000000000000000000000081526004018080602001828103825260038152602001807f453035000000000000000000000000000000000000000000000000000000000081525060200191505060405180910390fd5b82600182815481101515614f6957fe5b9060005260206000209060030201600101819055505b6000821115615046576000600182815481101515614f9957fe5b906000526020600020906003020160020154111515615020576040517f08c379a00000000000000000000000000000000000000000000000000000000081526004018080602001828103825260038152602001807f453034000000000000000000000000000000000000000000000000000000000081525060200191505060405180910390fd5b8160018281548110151561503057fe5b9060005260206000209060030201600201819055505b505050565b6150558282615433565b600781111561506057fe5b600781111561506b57fe5b83600781111561507757fe5b1415156150ec576040517f08c379a00000000000000000000000000000000000000000000000000000000081526004018080602001828103825260038152602001807f453036000000000000000000000000000000000000000000000000000000000081525060200191505060405180910390fd5b505050565b600042905090565b6000818301905082811015151561510c57fe5b80905092915050565b600082821115151561512357fe5b818303905092915050565b6000808314156151415760009050615160565b818302905081838281151561515257fe5b0414151561515c57fe5b8090505b92915050565b6000818381151561517357fe5b04905092915050565b6000615186611829565b9050600180805490500381101515615206576040517f08c379a000000000000000000000000000000000000000000000000000000000815260040180806020018281038252600f8152602001807f534154455f4d414348494e455f3036000000000000000000000000000000000081525060200191505060405180910390fd5b600060018281548110151561521757fe5b9060005260206000209060030201600101541480156152565750600060018281548110151561524257fe5b906000526020600020906003020160020154145b15156152ca576040517f08c379a00000000000000000000000000000000000000000000000000000000081526004018080602001828103825260038152602001807f453037000000000000000000000000000000000000000000000000000000000081525060200191505060405180910390fd5b6152de6001826150f990919063ffffffff16565b600260006101000a81548160ff021916908360ff1602179055506153006150f1565b6001600260009054906101000a900460ff1660ff1681548110151561532157fe5b90600052602060002090600302016000018190555050565b600073ffffffffffffffffffffffffffffffffffffffff168173ffffffffffffffffffffffffffffffffffffffff161415151561537557600080fd5b8073ffffffffffffffffffffffffffffffffffffffff166000809054906101000a900473ffffffffffffffffffffffffffffffffffffffff1673ffffffffffffffffffffffffffffffffffffffff167f8be0079c531659141344cd1fd0a4f28419497f9722a3daafe3b4186f6b6457e060405160405180910390a3806000806101000a81548173ffffffffffffffffffffffffffffffffffffffff021916908373ffffffffffffffffffffffffffffffffffffffff16021790555050565b6000806000809054906101000a900473ffffffffffffffffffffffffffffffffffffffff1673ffffffffffffffffffffffffffffffffffffffff163373ffffffffffffffffffffffffffffffffffffffff1614151561549157600080fd5b60009050600060018054905014156154ae576154ab6150f1565b90505b60016060604051908101604052808381526020018681526020018581525090806001815401808255809150509060018203906000526020600020906003020160009091929091909150600082015181600001556020820151816001015560408201518160020155505050600180805490500391505092915050565b60606040519081016040528060008152602001600081526020016000815250905600a165627a7a723058203b94cbd271062bb59b1661a5e3adb1f1690f44a79965d6681baea76e6723ab760029",
  "source": "pragma solidity ^0.4.24;\n\nimport \"../interface/ISaleConfig.sol\";\nimport \"../interface/IMPLTokensale.sol\";\nimport \"../interface/IMintable.sol\";\nimport \"../interface/IUserRegistry.sol\";\nimport \"./TokenMinter.sol\";\nimport \"./MPLTokensalePlan.sol\";\n\n\n/**\n * @title MPLTokensale\n * @dev MPLTokensale contract\n * This contract manage a sale as follow:\n *  - sale happens between a open and close date\n *  - ETHCHF in the form of WEI/Cent) rate is provided\n *    once the sale is over\n *  - investors must be first registred in order to invest\n *  - investors must claim their tokens at the end of the sale\n *    before the distribution is over.\n *  - The minter is given back to contract owner after the sale\n *    It is the minter contract responsability to handle\n *    the non distributed tokens\n *\n * Below a more technical view of the different events:\n *  - The contract is created with a sale configuration and a user\n *    registry\n *  - The minter contract is then set with the ownership\n *    given to the private sale\n *  - The sales happens and the contract receive ETH from investors\n *    During the sales, CHF investment may be added as they are received\n *  - At the end of the sales non-ETH, non-CHF investments are\n *    all converted into CHF and are then added by the admin.\n *    This includes Bitcoin, USD, EUR, ...\n *    Please contact the sale operator for more details on execution rates\n *  - Investments are reviewed for compliance by the admin\n *    and rejected if required\n *  - The ETHCHF rate is defined and if the conversion shows that \n *    too much CHF were raised then a refund ratio is defined to\n *    compensate ETH investors\n *  - During the preparation of mint, the extra ETH received is refunfed\n *    and the number of tokens is defined\n *  - The minting can finally occures\n *  - After the distribution period, the minter is given back to the\n *    contract owner.\n *  - Minter contract should be look to see how more token\n *    may be minted.\n *\n * @author Cyril Lapinte - <cyril.lapinte@mtpelerin.com>\n *\n * Error messages\n * E01: No data are expected for the default function\n * E02: Minter must not be defined already\n * E03: Ownership of minter must be given to this contract\n * E04: Minter must be able to mint\n * E05: Not enough ETH to reject\n * E06: Not enough CHF to rejct\n * E07: ETHCHF rate must be greater than 0\n * E08: ETHCHF rate must be defined\n * E09: Investor must exist\n * E10: Investor has already been prepared\n * E11: Not all investors has been prepared\n * E12: Tokens have already been minted\n * E13: Not all investors have received their tokens\n * E14: Minter continue to allow token minting\n * E15: Minter ownership has not been given back to owner\n * E16: User must be valid\n * E17: Enough CHF is already raised\n * E18: Investment in ETH must be above the minimal investment\n * E19: Investor has no tokens\n */\ncontract MPLTokensale is IMPLTokensale, MPLTokensalePlan {\n\n  address public vault;\n  TokenMinter public minter;\n  IUserRegistry public userRegistry;\n\n  struct Investor {\n    // ETH invested. The unit used is the Wei\n    uint256 depositETH;\n\n    // CHF invested (this includes as well depositETH\n    // once converted into CHF). The unit used is the cents\n    uint256 depositCHF;\n\n    // Tokens to be minted for the investors\n    uint256 tokens;\n\n    // Address to which ERC20 will be minted.\n    // ETH in excess will also be refunded to this address.\n    address destination;\n\n    // Investor is prepared for minting\n    bool prepared;\n    // Investor has been refunded\n    bool refunded;\n    // Investor's tokens has been minted\n    bool minted;\n  }\n  mapping(uint256 => Investor) investors; // userId => Investor\n\n  uint256 public investorCount;\n  uint256 public contributorCount;\n  uint256 public preparedCount;\n  uint256 public mintedCount;\n\n  // WEICHF rate is in ETH_wei/CHF_cents with no fractional parts\n  uint256 public rateWEIPerCHFCent;\n  uint256 public raisedCHF; // The unit is the cent\n  uint256 public raisedETH;\n\n  // total with raisedCHF and raisedETH converted in CHF\n  uint256 public totalRaisedCHF;\n  uint256 public refundETH;\n\n  uint256 public refundRatio;\n  uint256 constant public REFUND_PRECISION = 10 ** 9;\n \n  /**\n   * @dev Configure the MPL tokensale\n   */\n  constructor(\n    address _vault,\n    ISaleConfig _saleConfig,\n    IUserRegistry _userRegistry\n    ) MPLTokensalePlan(_saleConfig) public\n  {\n    vault = _vault;\n    userRegistry = _userRegistry;\n  }\n\n  /**\n   * @dev fallback function\n   */\n  function () external payable {\n    require(msg.data.length == 0, \"E01\");\n    investETH();\n  }\n\n  /**\n   * @dev convert rate from ETH/CHF to WEI/CHFCents\n   */\n  function convertFromETHCHF(\n    uint256 _rateETHCHF,\n    uint256 _rateETHCHFDecimal) public pure returns (uint256)\n  {\n    if (_rateETHCHF == 0) {\n      return 0;\n    }\n\n    return uint256(\n      10**(_rateETHCHFDecimal.add(18 - 2))\n    ).div(_rateETHCHF);\n  }\n\n  /**\n   * @dev convert rate to ETH/CHF from WEI/CHFCents\n   */\n  function convertToETHCHF(\n    uint256 _rateWEIPerCHFCent,\n    uint256 _rateETHCHFDecimal) public pure returns (uint256)\n  {\n    if (_rateWEIPerCHFCent == 0) {\n      return 0;\n    }\n\n    return uint256(\n      10**(_rateETHCHFDecimal.add(18 - 2))\n    ).div(_rateWEIPerCHFCent);\n  }\n\n  /**\n   * @dev setup the token minter\n   the MPL tokensale\n   */\n  function setupMinter(TokenMinter _minter)\n    public whenStepIs(Stepname.CREATED)\n  {\n    require(address(minter) == address(0), \"E02\");\n    require(_minter.owner() == address(this), \"E03\");\n    require(!_minter.mintingFinished(), \"E04\");\n    minter = _minter;\n    nextStep();\n  }\n\n  /**\n   * @dev getter need to be declared to comply with IMPLTokensale interface\n   */\n  function vault() public view returns (address) {\n    return vault;\n  }\n\n  /**\n   * @dev getter need to be declared to comply with IMPLTokensale interface\n   */\n  function minter() public view returns (IMintable) {\n    return minter;\n  }\n\n  /**\n   * @dev getter need to be declared to comply with IMPLTokensale interface\n   */\n  function userRegistry() public view returns (IUserRegistry) {\n    return userRegistry;\n  }\n\n  /**\n   * @dev investor's depositETH\n   */\n  function investorDepositETH(uint256 _userId)\n    public view returns (uint256)\n  {\n    return investors[_userId].depositETH;\n  }\n\n  /**\n   * @dev investor's depositCHF\n   */\n  function investorDepositCHF(uint256 _userId)\n    public view returns (uint256)\n  {\n    return investors[_userId].depositCHF;\n  }\n\n  /**\n   * @dev investor's destination\n   */\n  function investorDestination(uint256 _userId)\n    public view returns (address)\n  {\n    return investors[_userId].destination;\n  }\n\n  /**\n   * @dev investor's tokens\n   */\n  function investorTokens(uint256 _userId)\n    public view returns (uint256)\n  {\n    return investors[_userId].tokens;\n  }\n\n  /**\n   * @dev investor is refunded\n   */\n  function investorIsRefunded(uint256 _userId)\n    public view returns (bool)\n  {\n    return investors[_userId].refunded;\n  }\n\n  /**\n   * @dev investor's tokens have been prepared\n   */\n  function investorIsPrepared(uint256 _userId)\n    public view returns (bool)\n  {\n    return investors[_userId].prepared;\n  }\n\n  /**\n   * @dev investor's tokens have been minted\n   */\n  function investorIsMinted(uint256 _userId)\n    public view returns (bool)\n  {\n    return investors[_userId].minted;\n  }\n\n  /**\n   * @dev count of investors\n   */\n  function investorCount() public view returns (uint256) {\n    return investorCount;\n  }\n\n  /**\n   * @dev count of contributors\n   */\n  function contributorCount() public view returns (uint256) {\n    return contributorCount;\n  }\n\n  /**\n   * @dev count of prepared investors\n   */\n  function preparedCount() public view returns (uint256) {\n    return preparedCount;\n  }\n\n  /**\n   * @dev count of minted investors\n   */\n  function mintedCount() public view returns (uint256) {\n    return mintedCount;\n  }\n\n  /**\n   * @dev getter need to be declared to comply with IMPLTokensale interface\n   */\n  function rateWEIPerCHFCent() public view returns (uint256) {\n    return rateWEIPerCHFCent;\n  }\n\n  /**\n   * @dev getter need to be declared to comply with IMPLTokensale interface\n   */\n  function rateETHCHF(uint256 _rateETHCHFDecimal)\n    public view returns (uint256)\n  {\n    return convertToETHCHF(rateWEIPerCHFCent, _rateETHCHFDecimal);\n  }\n\n  /**\n   * @dev getter need to be declared to comply with IMPLTokensale interface\n   */\n  function raisedCHF() public view returns (uint256) {\n    return raisedCHF;\n  }\n\n  /**\n   * @dev getter need to be declared to comply with IMPLTokensale interface\n   */\n  function totalRaisedCHF() public view returns (uint256) {\n    return totalRaisedCHF;\n  }\n\n  /**\n   * @dev getter need to be declared to comply with IMPLTokensale interface\n   */\n  function raisedETH() public view returns (uint256) {\n    return raisedETH;\n  }\n\n  /**\n   * @dev getter need to be declared to comply with IMPLTokensale interface\n   */\n  function refundETH() public view returns (uint256) {\n    return refundETH;\n  }\n\n  /**\n   * @dev getter need to be declared to comply with IMPLTokensale interface\n   */\n  function refundRatio() public view returns (uint256) {\n    return refundRatio;\n  }\n\n  /**\n   * @dev getter need to be declared to comply with IMPLTokensale interface\n   */\n  function refundPrecision() public pure returns (uint256) {\n    return REFUND_PRECISION;\n  }\n\n  /**\n   * @dev Invest ETH callable by any registred participants\n   */\n  function investETH() public payable whenStepIs(Stepname.LIVE) {\n    invest(msg.sender, msg.value, 0);\n  }\n\n  /**\n   * @dev Add off chain investments with their CHF counter value\n   * The operation is done by the contract owner\n   * It may be done outside the sale timeframes\n   * as depending on the investments\n   * origin extra compliance checks may be needed.\n   */\n  function addOffChainInvestment(address _investor, uint256 _amountCHF)\n    public onlyOwner whenBetweenSteps(Stepname.READY, Stepname.REVIEW)\n  {\n    invest(_investor, 0, _amountCHF);\n  }\n\n /**\n   * @dev reject ETH funds in case of unability to meet compliance\n   * requirements or simply if an investor sent too much ETH\n   */\n  function rejectETHFunds(uint256 _userId, uint256 _amount)\n    public onlyOwner whenBetweenSteps(Stepname.READY, Stepname.REVIEW)\n  {\n    Investor storage investor = investors[_userId];\n    require(investor.depositETH >= _amount, \"E05\");\n    investor.depositETH = investor.depositETH.sub(_amount);\n    investor.destination.transfer(_amount);\n    emit InvestmentETHRejected(investor.destination, _amount);\n  }\n\n  /**\n   * @dev reject CHF funds in case of unability to meet\n   * financial compliance requirements\n   */\n  function rejectCHFFunds(uint256 _userId, uint256 _amount)\n    public onlyOwner whenBetweenSteps(Stepname.READY, Stepname.REVIEW)\n  {\n    Investor storage investor = investors[_userId];\n    require(investor.depositCHF >= _amount, \"E06\");\n    investor.depositCHF = investor.depositCHF.sub(_amount);\n    raisedCHF = raisedCHF.sub(_amount);\n    emit InvestmentCHFRejected(investor.destination, _amount);\n  }\n\n  /**\n   * @dev Convert raised ETH to CHF and define the refund ratio\n   * The function should be callable many times in order to correct\n   * input errors on the ETHCHF rate\n   *\n   * @param _rateETHCHF rate (price of 1 ETH in CHF)\n   * @param _rateETHCHFDecimal is the number of decimals in the first parameter \n   * Ex: 512.34 is provided as (51234, 2)\n   */\n  function defineRate(uint256 _rateETHCHF, uint256 _rateETHCHFDecimal)\n    public onlyOwner whenStepIs(Stepname.REVIEW) \n  {\n    require(_rateETHCHF != 0, \"E07\");\n    // The rate is inverted to maximize the decimals stored\n    rateWEIPerCHFCent = convertFromETHCHF(_rateETHCHF, _rateETHCHFDecimal);\n\n    evaluateSale();\n  }\n\n  /**\n   * @dev processSale\n   * Investments have been reviewed. The ETHCHF rate is fixed\n   */\n  function processSale()\n    public onlyOwner whenStepIs(Stepname.REVIEW)\n  {\n    require(rateWEIPerCHFCent != 0, \"E08\");\n    evaluateSale();\n\n    nextStep();\n    emit SaleProcessed(totalRaisedCHF, refundETH);\n  }\n\n /**\n   * @dev Prepare minting the tokens for an investor\n   * This operation will define the number of tokens mintable\n   * for that investor\n   * This operation also triggers the ETH refund\n   */\n  function prepareMinting(uint256 _userId)\n    public onlyOwner whenStepIs(Stepname.PREPARE)\n  {\n    Investor storage investor = investors[_userId];\n    require(investor.destination != address(0), \"E09\");\n    require(!investor.prepared, \"E10\");\n\n    uint256 refundETHAmount = 0;\n    uint256 contributionCHF = investor.depositCHF;\n\n    if (investor.depositETH > 0) {\n      if (refundRatio > 0) {\n        refundETHAmount = investor.depositETH.mul(\n          REFUND_PRECISION).div(refundRatio);\n      }\n\n      uint256 convertedCHFDeposit = (\n        investor.depositETH.sub(refundETHAmount)).div(rateWEIPerCHFCent);\n      contributionCHF = contributionCHF.add(convertedCHFDeposit);\n    }\n\n    if (contributionCHF > 0) {\n      investor.tokens = contributionCHF.mul(saleConfig.tokensAmountPerCHF());\n      contributorCount++;\n    }\n\n    if (!investor.refunded && refundETHAmount > 0) {\n      investor.refunded = true;\n      investor.destination.transfer(refundETHAmount);\n    }\n\n    investor.prepared = true;\n    preparedCount++;\n  }\n\n  /**\n   * @dev prepare minting tokens for many users\n   */\n  function prepareMintingForManyUsers(uint256[] _userIds)\n    public onlyOwner whenStepIs(Stepname.PREPARE)\n  {\n    for (uint256 i = 0; i < _userIds.length; i++) {\n      prepareMinting(_userIds[i]);\n    }\n  }\n\n  /**\n   * @dev enable minting\n   **/\n  function enableMinting() public onlyOwner whenStepIs(Stepname.PREPARE) {\n    require(preparedCount == investorCount, \"E10\");\n    nextStep();\n  }\n\n  /**\n   * @dev mint tokens for a user\n   */\n  function mintSelf() public whenStepIs(Stepname.MINT) {\n    uint256 userId = userRegistry.userId(msg.sender);\n    mint(userId);\n  }\n\n  /**\n   * @dev mint tokens for a user\n   */\n  function mint(uint256 _userId) public whenStepIs(Stepname.MINT) {\n    Investor storage investor = investors[_userId];\n    require(investor.destination != address(0), \"E09\");\n    require(investor.tokens > 0, \"E19\");\n    require(!investor.minted, \"E12\");\n    if (minter.mint(investor.destination, investor.tokens)) {\n      investor.minted = true;\n      mintedCount++;\n    }\n  }\n\n  /**\n   * @dev mint tokens for many users\n   */\n  function mintForManyUsers(uint256[] _userIds)\n    public onlyOwner whenBetweenSteps(Stepname.MINT, Stepname.FINALIZE)\n  {\n    for (uint256 i = 0; i < _userIds.length; i++) {\n      mint(_userIds[i]);\n    }\n  }\n\n  /**\n   * @dev withdraw ETH funds from the MPL tokensale\n   */\n  function withdrawETHFunds() public onlyOwner {\n    uint256 balance = address(this).balance;\n    vault.transfer(balance);\n    emit WithdrawETH(balance);\n  }\n\n  /**\n   * @dev finish the distribution and release the minter ownership\n   */\n  function finishDistribution() public\n    whenStepIs(Stepname.FINALIZE) onlyOwner\n  {\n    require(mintedCount == contributorCount, \"E13\");\n\n    if (!minter.mintingFinished()) {\n      minter.finishMinting();\n    }\n\n    if (minter.owner() == address(this)) {\n      minter.transferOwnership(owner);\n    }\n\n    require(minter.mintingFinished(), \"E14\");\n    require(minter.owner() == owner, \"E15\");\n    nextStep();\n  }\n\n  /**\n   * @dev invest ETH callable by any registred participants\n   */\n  function invest(\n    address _destination,\n    uint256 _depositETH,\n    uint256 _depositCHF) internal\n  {\n    uint256 userId = userRegistry.userId(_destination);\n    require(userRegistry.isValid(userId), \"E16\");\n    Investor storage investor = investors[userId];\n\n    if (_depositCHF > 0) {\n      require(\n        saleConfig.tokensaleLot1HardCapCHF() >= raisedCHF.add(_depositCHF),\n        \"E17\"\n      );\n    } else {\n      require(_depositETH > saleConfig.minimalETHInvestment(), \"E18\");\n    }\n\n    if (investor.destination == address(0)) {\n      investors[userId] = Investor(\n        _depositETH,\n        _depositCHF,\n        0,\n        _destination,\n        false,\n        false,\n        false\n      );\n      raisedCHF = raisedCHF.add(_depositCHF);\n      investorCount++;\n      emit Investment(_destination, _depositETH, _depositCHF);\n    } else {\n      if (_depositETH > 0) {\n        investor.depositETH = investor.depositETH.add(_depositETH);\n        emit Investment(investor.destination, _depositETH, 0);\n      }\n\n      if (_depositCHF > 0) {\n        investor.depositCHF = investor.depositCHF.add(_depositCHF);\n        raisedCHF = raisedCHF.add(_depositCHF);\n        emit Investment(investor.destination, 0, _depositCHF); \n      }\n    }\n  }\n\n  /**\n   * @dev evaluate the value of the sale\n   * The function should be callable many times in order to correct any input errors\n   *\n   */\n  function evaluateSale() private {\n    totalRaisedCHF = 0;\n    raisedETH = address(this).balance;\n    uint256 admissibleETH = (\n      saleConfig.tokensaleLot1HardCapCHF().sub(raisedCHF)).mul(rateWEIPerCHFCent);\n    refundETH = 0;\n    if ( raisedETH > admissibleETH ) {\n      // Due to variability in the ETHCHF rate too many ETH were raised\n      // Excess ETHs are refunded equally amoung ETH investors\n      refundETH = raisedETH.sub(admissibleETH); \n      refundRatio = raisedETH.mul(REFUND_PRECISION).div(refundETH);\n      totalRaisedCHF = raisedCHF.add(admissibleETH.div(rateWEIPerCHFCent));\n    } else {\n      totalRaisedCHF = raisedCHF.add(raisedETH.div(rateWEIPerCHFCent));\n    }\n  }\n\n  event Investment(\n    address indexed investor,\n    uint256 amountETH,\n    uint256 amountCHF\n  );\n  event InvestmentETHRejected(address indexed investor, uint256 amount);\n  event InvestmentCHFRejected(address indexed investor, uint256 amount);\n  event SaleProcessed(uint256 raisedCHF, uint256 refundETH);\n  event WithdrawETH(uint256 amount);\n}\n",
  "sourcePath": "/home/node/project/contracts/tokensale/MPLTokensale.sol",
  "compiler": {
    "name": "solc",
    "version": "0.4.24+commit.e67f0147.Emscripten.clang"
  },
  "schemaVersion": "2.0.1",
  "updatedAt": "2018-08-15T14:19:55.993Z"
}