{
  "contractName": "MPLTokensaleMock",
  "abi": [
    {
      "constant": true,
      "inputs": [
        {
          "name": "_userId",
          "type": "uint256"
        }
      ],
      "name": "investorTokens",
      "outputs": [
        {
          "name": "",
          "type": "uint256"
        }
      ],
      "payable": false,
      "stateMutability": "view",
      "type": "function"
    },
    {
      "constant": true,
      "inputs": [],
      "name": "minter",
      "outputs": [
        {
          "name": "",
          "type": "address"
        }
      ],
      "payable": false,
      "stateMutability": "view",
      "type": "function"
    },
    {
      "constant": true,
      "inputs": [],
      "name": "raisedCHF",
      "outputs": [
        {
          "name": "",
          "type": "uint256"
        }
      ],
      "payable": false,
      "stateMutability": "view",
      "type": "function"
    },
    {
      "constant": true,
      "inputs": [],
      "name": "rateWEIPerCHFCent",
      "outputs": [
        {
          "name": "",
          "type": "uint256"
        }
      ],
      "payable": false,
      "stateMutability": "view",
      "type": "function"
    },
    {
      "constant": false,
      "inputs": [
        {
          "name": "_rateETHCHF",
          "type": "uint256"
        },
        {
          "name": "_rateETHCHFDecimal",
          "type": "uint256"
        }
      ],
      "name": "defineRate",
      "outputs": [],
      "payable": false,
      "stateMutability": "nonpayable",
      "type": "function"
    },
    {
      "constant": true,
      "inputs": [],
      "name": "refundETH",
      "outputs": [
        {
          "name": "",
          "type": "uint256"
        }
      ],
      "payable": false,
      "stateMutability": "view",
      "type": "function"
    },
    {
      "constant": true,
      "inputs": [],
      "name": "REFUND_PRECISION",
      "outputs": [
        {
          "name": "",
          "type": "uint256"
        }
      ],
      "payable": false,
      "stateMutability": "view",
      "type": "function"
    },
    {
      "constant": true,
      "inputs": [],
      "name": "stepsCount",
      "outputs": [
        {
          "name": "",
          "type": "uint256"
        }
      ],
      "payable": false,
      "stateMutability": "view",
      "type": "function"
    },
    {
      "constant": true,
      "inputs": [
        {
          "name": "_userId",
          "type": "uint256"
        }
      ],
      "name": "investorIsPrepared",
      "outputs": [
        {
          "name": "",
          "type": "bool"
        }
      ],
      "payable": false,
      "stateMutability": "view",
      "type": "function"
    },
    {
      "constant": false,
      "inputs": [
        {
          "name": "_newOpeningTime",
          "type": "uint256"
        }
      ],
      "name": "updateSaleOpeningTime",
      "outputs": [],
      "payable": false,
      "stateMutability": "nonpayable",
      "type": "function"
    },
    {
      "constant": true,
      "inputs": [],
      "name": "raisedETH",
      "outputs": [
        {
          "name": "",
          "type": "uint256"
        }
      ],
      "payable": false,
      "stateMutability": "view",
      "type": "function"
    },
    {
      "constant": true,
      "inputs": [],
      "name": "totalRaisedCHF",
      "outputs": [
        {
          "name": "",
          "type": "uint256"
        }
      ],
      "payable": false,
      "stateMutability": "view",
      "type": "function"
    },
    {
      "constant": false,
      "inputs": [],
      "name": "mintSelf",
      "outputs": [],
      "payable": false,
      "stateMutability": "nonpayable",
      "type": "function"
    },
    {
      "constant": true,
      "inputs": [
        {
          "name": "_userId",
          "type": "uint256"
        }
      ],
      "name": "investorIsRefunded",
      "outputs": [
        {
          "name": "",
          "type": "bool"
        }
      ],
      "payable": false,
      "stateMutability": "view",
      "type": "function"
    },
    {
      "constant": true,
      "inputs": [
        {
          "name": "_stepId",
          "type": "uint256"
        }
      ],
      "name": "stepTime",
      "outputs": [
        {
          "name": "",
          "type": "uint256"
        }
      ],
      "payable": false,
      "stateMutability": "view",
      "type": "function"
    },
    {
      "constant": true,
      "inputs": [
        {
          "name": "_stepId",
          "type": "uint256"
        }
      ],
      "name": "transitionEndTime",
      "outputs": [
        {
          "name": "",
          "type": "uint256"
        }
      ],
      "payable": false,
      "stateMutability": "view",
      "type": "function"
    },
    {
      "constant": false,
      "inputs": [],
      "name": "plan",
      "outputs": [],
      "payable": false,
      "stateMutability": "nonpayable",
      "type": "function"
    },
    {
      "constant": true,
      "inputs": [],
      "name": "currentStep",
      "outputs": [
        {
          "name": "",
          "type": "uint256"
        }
      ],
      "payable": false,
      "stateMutability": "view",
      "type": "function"
    },
    {
      "constant": true,
      "inputs": [
        {
          "name": "_userId",
          "type": "uint256"
        }
      ],
      "name": "investorDestination",
      "outputs": [
        {
          "name": "",
          "type": "address"
        }
      ],
      "payable": false,
      "stateMutability": "view",
      "type": "function"
    },
    {
      "constant": true,
      "inputs": [],
      "name": "userRegistry",
      "outputs": [
        {
          "name": "",
          "type": "address"
        }
      ],
      "payable": false,
      "stateMutability": "view",
      "type": "function"
    },
    {
      "constant": true,
      "inputs": [],
      "name": "refundRatio",
      "outputs": [
        {
          "name": "",
          "type": "uint256"
        }
      ],
      "payable": false,
      "stateMutability": "view",
      "type": "function"
    },
    {
      "constant": false,
      "inputs": [],
      "name": "withdrawETHFunds",
      "outputs": [],
      "payable": false,
      "stateMutability": "nonpayable",
      "type": "function"
    },
    {
      "constant": true,
      "inputs": [
        {
          "name": "_stepId",
          "type": "uint256"
        },
        {
          "name": "_startedAt",
          "type": "uint256"
        }
      ],
      "name": "stepEndTime",
      "outputs": [
        {
          "name": "",
          "type": "uint256"
        }
      ],
      "payable": false,
      "stateMutability": "view",
      "type": "function"
    },
    {
      "constant": false,
      "inputs": [],
      "name": "renounceOwnership",
      "outputs": [],
      "payable": false,
      "stateMutability": "nonpayable",
      "type": "function"
    },
    {
      "constant": false,
      "inputs": [
        {
          "name": "_userId",
          "type": "uint256"
        },
        {
          "name": "_amount",
          "type": "uint256"
        }
      ],
      "name": "rejectETHFunds",
      "outputs": [],
      "payable": false,
      "stateMutability": "nonpayable",
      "type": "function"
    },
    {
      "constant": false,
      "inputs": [
        {
          "name": "_userId",
          "type": "uint256"
        }
      ],
      "name": "prepareMinting",
      "outputs": [],
      "payable": false,
      "stateMutability": "nonpayable",
      "type": "function"
    },
    {
      "constant": true,
      "inputs": [
        {
          "name": "_rateETHCHF",
          "type": "uint256"
        },
        {
          "name": "_rateETHCHFDecimal",
          "type": "uint256"
        }
      ],
      "name": "convertFromETHCHF",
      "outputs": [
        {
          "name": "",
          "type": "uint256"
        }
      ],
      "payable": false,
      "stateMutability": "pure",
      "type": "function"
    },
    {
      "constant": true,
      "inputs": [
        {
          "name": "_userId",
          "type": "uint256"
        }
      ],
      "name": "investorIsMinted",
      "outputs": [
        {
          "name": "",
          "type": "bool"
        }
      ],
      "payable": false,
      "stateMutability": "view",
      "type": "function"
    },
    {
      "constant": true,
      "inputs": [],
      "name": "owner",
      "outputs": [
        {
          "name": "",
          "type": "address"
        }
      ],
      "payable": false,
      "stateMutability": "view",
      "type": "function"
    },
    {
      "constant": false,
      "inputs": [
        {
          "name": "_minter",
          "type": "address"
        }
      ],
      "name": "setupMinter",
      "outputs": [],
      "payable": false,
      "stateMutability": "nonpayable",
      "type": "function"
    },
    {
      "constant": true,
      "inputs": [],
      "name": "saleConfig",
      "outputs": [
        {
          "name": "",
          "type": "address"
        }
      ],
      "payable": false,
      "stateMutability": "view",
      "type": "function"
    },
    {
      "constant": false,
      "inputs": [
        {
          "name": "_userIds",
          "type": "uint256[]"
        }
      ],
      "name": "prepareMintingForManyUsers",
      "outputs": [],
      "payable": false,
      "stateMutability": "nonpayable",
      "type": "function"
    },
    {
      "constant": false,
      "inputs": [],
      "name": "finishDistribution",
      "outputs": [],
      "payable": false,
      "stateMutability": "nonpayable",
      "type": "function"
    },
    {
      "constant": false,
      "inputs": [
        {
          "name": "_userId",
          "type": "uint256"
        },
        {
          "name": "_amount",
          "type": "uint256"
        }
      ],
      "name": "rejectCHFFunds",
      "outputs": [],
      "payable": false,
      "stateMutability": "nonpayable",
      "type": "function"
    },
    {
      "constant": false,
      "inputs": [
        {
          "name": "_userId",
          "type": "uint256"
        }
      ],
      "name": "mint",
      "outputs": [],
      "payable": false,
      "stateMutability": "nonpayable",
      "type": "function"
    },
    {
      "constant": false,
      "inputs": [],
      "name": "investETH",
      "outputs": [],
      "payable": true,
      "stateMutability": "payable",
      "type": "function"
    },
    {
      "constant": false,
      "inputs": [
        {
          "name": "_userIds",
          "type": "uint256[]"
        }
      ],
      "name": "mintForManyUsers",
      "outputs": [],
      "payable": false,
      "stateMutability": "nonpayable",
      "type": "function"
    },
    {
      "constant": false,
      "inputs": [],
      "name": "processSale",
      "outputs": [],
      "payable": false,
      "stateMutability": "nonpayable",
      "type": "function"
    },
    {
      "constant": true,
      "inputs": [
        {
          "name": "_rateETHCHFDecimal",
          "type": "uint256"
        }
      ],
      "name": "rateETHCHF",
      "outputs": [
        {
          "name": "",
          "type": "uint256"
        }
      ],
      "payable": false,
      "stateMutability": "view",
      "type": "function"
    },
    {
      "constant": false,
      "inputs": [
        {
          "name": "_investor",
          "type": "address"
        },
        {
          "name": "_amountCHF",
          "type": "uint256"
        }
      ],
      "name": "addOffChainInvestment",
      "outputs": [],
      "payable": false,
      "stateMutability": "nonpayable",
      "type": "function"
    },
    {
      "constant": true,
      "inputs": [],
      "name": "mintedCount",
      "outputs": [
        {
          "name": "",
          "type": "uint256"
        }
      ],
      "payable": false,
      "stateMutability": "view",
      "type": "function"
    },
    {
      "constant": true,
      "inputs": [],
      "name": "refundPrecision",
      "outputs": [
        {
          "name": "",
          "type": "uint256"
        }
      ],
      "payable": false,
      "stateMutability": "pure",
      "type": "function"
    },
    {
      "constant": true,
      "inputs": [],
      "name": "investorCount",
      "outputs": [
        {
          "name": "",
          "type": "uint256"
        }
      ],
      "payable": false,
      "stateMutability": "view",
      "type": "function"
    },
    {
      "constant": true,
      "inputs": [
        {
          "name": "_rateWEIPerCHFCent",
          "type": "uint256"
        },
        {
          "name": "_rateETHCHFDecimal",
          "type": "uint256"
        }
      ],
      "name": "convertToETHCHF",
      "outputs": [
        {
          "name": "",
          "type": "uint256"
        }
      ],
      "payable": false,
      "stateMutability": "pure",
      "type": "function"
    },
    {
      "constant": false,
      "inputs": [],
      "name": "enableMinting",
      "outputs": [],
      "payable": false,
      "stateMutability": "nonpayable",
      "type": "function"
    },
    {
      "constant": true,
      "inputs": [],
      "name": "contributorCount",
      "outputs": [
        {
          "name": "",
          "type": "uint256"
        }
      ],
      "payable": false,
      "stateMutability": "view",
      "type": "function"
    },
    {
      "constant": true,
      "inputs": [],
      "name": "preparedCount",
      "outputs": [
        {
          "name": "",
          "type": "uint256"
        }
      ],
      "payable": false,
      "stateMutability": "view",
      "type": "function"
    },
    {
      "constant": false,
      "inputs": [
        {
          "name": "_newOwner",
          "type": "address"
        }
      ],
      "name": "transferOwnership",
      "outputs": [],
      "payable": false,
      "stateMutability": "nonpayable",
      "type": "function"
    },
    {
      "constant": true,
      "inputs": [
        {
          "name": "_stepId",
          "type": "uint256"
        }
      ],
      "name": "transitionDelay",
      "outputs": [
        {
          "name": "",
          "type": "uint256"
        }
      ],
      "payable": false,
      "stateMutability": "view",
      "type": "function"
    },
    {
      "constant": true,
      "inputs": [],
      "name": "vault",
      "outputs": [
        {
          "name": "",
          "type": "address"
        }
      ],
      "payable": false,
      "stateMutability": "view",
      "type": "function"
    },
    {
      "constant": true,
      "inputs": [
        {
          "name": "_userId",
          "type": "uint256"
        }
      ],
      "name": "investorDepositETH",
      "outputs": [
        {
          "name": "",
          "type": "uint256"
        }
      ],
      "payable": false,
      "stateMutability": "view",
      "type": "function"
    },
    {
      "constant": true,
      "inputs": [
        {
          "name": "_userId",
          "type": "uint256"
        }
      ],
      "name": "investorDepositCHF",
      "outputs": [
        {
          "name": "",
          "type": "uint256"
        }
      ],
      "payable": false,
      "stateMutability": "view",
      "type": "function"
    },
    {
      "inputs": [
        {
          "name": "_vault",
          "type": "address"
        },
        {
          "name": "_saleConfig",
          "type": "address"
        },
        {
          "name": "_userRegistry",
          "type": "address"
        }
      ],
      "payable": false,
      "stateMutability": "nonpayable",
      "type": "constructor"
    },
    {
      "payable": true,
      "stateMutability": "payable",
      "type": "fallback"
    },
    {
      "anonymous": false,
      "inputs": [
        {
          "indexed": true,
          "name": "investor",
          "type": "address"
        },
        {
          "indexed": false,
          "name": "amountETH",
          "type": "uint256"
        },
        {
          "indexed": false,
          "name": "amountCHF",
          "type": "uint256"
        }
      ],
      "name": "Investment",
      "type": "event"
    },
    {
      "anonymous": false,
      "inputs": [
        {
          "indexed": true,
          "name": "investor",
          "type": "address"
        },
        {
          "indexed": false,
          "name": "amount",
          "type": "uint256"
        }
      ],
      "name": "InvestmentETHRejected",
      "type": "event"
    },
    {
      "anonymous": false,
      "inputs": [
        {
          "indexed": true,
          "name": "investor",
          "type": "address"
        },
        {
          "indexed": false,
          "name": "amount",
          "type": "uint256"
        }
      ],
      "name": "InvestmentCHFRejected",
      "type": "event"
    },
    {
      "anonymous": false,
      "inputs": [
        {
          "indexed": false,
          "name": "raisedCHF",
          "type": "uint256"
        },
        {
          "indexed": false,
          "name": "refundETH",
          "type": "uint256"
        }
      ],
      "name": "SaleProcessed",
      "type": "event"
    },
    {
      "anonymous": false,
      "inputs": [
        {
          "indexed": false,
          "name": "amount",
          "type": "uint256"
        }
      ],
      "name": "WithdrawETH",
      "type": "event"
    },
    {
      "anonymous": false,
      "inputs": [
        {
          "indexed": true,
          "name": "previousOwner",
          "type": "address"
        }
      ],
      "name": "OwnershipRenounced",
      "type": "event"
    },
    {
      "anonymous": false,
      "inputs": [
        {
          "indexed": true,
          "name": "previousOwner",
          "type": "address"
        },
        {
          "indexed": true,
          "name": "newOwner",
          "type": "address"
        }
      ],
      "name": "OwnershipTransferred",
      "type": "event"
    },
    {
      "constant": false,
      "inputs": [
        {
          "name": "_name",
          "type": "uint8"
        }
      ],
      "name": "setStep",
      "outputs": [],
      "payable": false,
      "stateMutability": "nonpayable",
      "type": "function"
    },
    {
      "constant": false,
      "inputs": [],
      "name": "nextStepPublic",
      "outputs": [],
      "payable": false,
      "stateMutability": "nonpayable",
      "type": "function"
    }
  ],
  "bytecode": "0x608060405234801561001057600080fd5b506040516060806200583a83398101806040528101908080519060200190929190805190602001909291908051906020019092919050505082828281336000806101000a81548173ffffffffffffffffffffffffffffffffffffffff021916908373ffffffffffffffffffffffffffffffffffffffff16021790555080600260016101000a81548173ffffffffffffffffffffffffffffffffffffffff021916908373ffffffffffffffffffffffffffffffffffffffff1602179055505082600360006101000a81548173ffffffffffffffffffffffffffffffffffffffff021916908373ffffffffffffffffffffffffffffffffffffffff16021790555080600560006101000a81548173ffffffffffffffffffffffffffffffffffffffff021916908373ffffffffffffffffffffffffffffffffffffffff1602179055505050505050506156d480620001666000396000f300608060405260043610610288576000357c0100000000000000000000000000000000000000000000000000000000900463ffffffff1680630562ac271461030d578063075461721461034e57806308510f18146103a55780630ac37bd6146103d05780630d8b19cc146103fb57806312210e8a14610432578063171129a41461045d5780631daf65f81461048857806322ed7b85146104b35780632479c15c146104f85780632a486a28146105255780632d1bc65c14610550578063318851191461057b57806341587d251461059257806345ed72d7146105d7578063467bb3551461061857806353e06571146106595780635bc34f71146106705780635beb892d1461069b5780635c7460d6146107085780635cf590d91461075f578063629f349d1461078a57806368b080a4146107a1578063715018a6146107ec57806376dacf60146108035780637e37a4fe1461083a578063837fd8cc1461086757806387135dca146108b25780638da5cb5b146108f75780638f3bfe2f1461094e57806390aa0b0f1461099157806395b6de79146109e85780639b1cbccc14610a4e5780639e2d2c0d14610a65578063a0712d6814610a9c578063a39cfae614610ac9578063abcf302914610ad3578063b957fe2a14610b39578063c709b4e714610b50578063cd9d535314610b91578063cf721b1514610bde578063d3b7c65114610c09578063d7e64c0014610c34578063ddab00a214610c5f578063e797ec1b14610caa578063ecfd892814610cc1578063ef2119d214610cec578063f2fde38b14610d17578063f8b89dfb14610d5a578063f93bf62514610d8a578063fbfa77cf14610dcb578063fdbd1a1a14610e22578063ff58109414610e63578063ffb8b2c014610e7a575b600080369050141515610303576040517f08c379a00000000000000000000000000000000000000000000000000000000081526004018080602001828103825260038152602001807f453031000000000000000000000000000000000000000000000000000000000081525060200191505060405180910390fd5b61030b610ebb565b005b34801561031957600080fd5b5061033860048036038101908080359060200190929190505050610f6b565b6040518082815260200191505060405180910390f35b34801561035a57600080fd5b50610363610f8b565b604051808273ffffffffffffffffffffffffffffffffffffffff1673ffffffffffffffffffffffffffffffffffffffff16815260200191505060405180910390f35b3480156103b157600080fd5b506103ba610fb5565b6040518082815260200191505060405180910390f35b3480156103dc57600080fd5b506103e5610fbf565b6040518082815260200191505060405180910390f35b34801561040757600080fd5b506104306004803603810190808035906020019092919080359060200190929190505050610fc9565b005b34801561043e57600080fd5b5061044761115b565b6040518082815260200191505060405180910390f35b34801561046957600080fd5b50610472611165565b6040518082815260200191505060405180910390f35b34801561049457600080fd5b5061049d61116d565b6040518082815260200191505060405180910390f35b3480156104bf57600080fd5b506104de6004803603810190808035906020019092919050505061117a565b604051808215151515815260200191505060405180910390f35b34801561050457600080fd5b50610523600480360381019080803590602001909291905050506111a7565b005b34801561053157600080fd5b5061053a6112b2565b6040518082815260200191505060405180910390f35b34801561055c57600080fd5b506105656112bc565b6040518082815260200191505060405180910390f35b34801561058757600080fd5b506105906112c6565b005b34801561059e57600080fd5b506105bd60048036038101908080359060200190929190505050611470565b604051808215151515815260200191505060405180910390f35b3480156105e357600080fd5b506106026004803603810190808035906020019092919050505061149d565b6040518082815260200191505060405180910390f35b34801561062457600080fd5b50610643600480360381019080803590602001909291905050506114c7565b6040518082815260200191505060405180910390f35b34801561066557600080fd5b5061066e6114f1565b005b34801561067c57600080fd5b50610685611886565b6040518082815260200191505060405180910390f35b3480156106a757600080fd5b506106c6600480360381019080803590602001909291905050506119b4565b604051808273ffffffffffffffffffffffffffffffffffffffff1673ffffffffffffffffffffffffffffffffffffffff16815260200191505060405180910390f35b34801561071457600080fd5b5061071d6119f4565b604051808273ffffffffffffffffffffffffffffffffffffffff1673ffffffffffffffffffffffffffffffffffffffff16815260200191505060405180910390f35b34801561076b57600080fd5b50610774611a1e565b6040518082815260200191505060405180910390f35b34801561079657600080fd5b5061079f611a28565b005b3480156107ad57600080fd5b506107d66004803603810190808035906020019092919080359060200190929190505050611b42565b6040518082815260200191505060405180910390f35b3480156107f857600080fd5b50610801611bf3565b005b34801561080f57600080fd5b506108386004803603810190808035906020019092919080359060200190929190505050611cf5565b005b34801561084657600080fd5b50610865600480360381019080803590602001909291905050506120ab565b005b34801561087357600080fd5b5061089c6004803603810190808035906020019092919080359060200190929190505050612585565b6040518082815260200191505060405180910390f35b3480156108be57600080fd5b506108dd600480360381019080803590602001909291905050506125ca565b604051808215151515815260200191505060405180910390f35b34801561090357600080fd5b5061090c6125f7565b604051808273ffffffffffffffffffffffffffffffffffffffff1673ffffffffffffffffffffffffffffffffffffffff16815260200191505060405180910390f35b34801561095a57600080fd5b5061098f600480360381019080803573ffffffffffffffffffffffffffffffffffffffff16906020019092919050505061261c565b005b34801561099d57600080fd5b506109a6612a25565b604051808273ffffffffffffffffffffffffffffffffffffffff1673ffffffffffffffffffffffffffffffffffffffff16815260200191505060405180910390f35b3480156109f457600080fd5b50610a4c60048036038101908080359060200190820180359060200190808060200260200160405190810160405280939291908181526020018383602002808284378201915050505050509192919290505050612a4f565b005b348015610a5a57600080fd5b50610a63612b8d565b005b348015610a7157600080fd5b50610a9a600480360381019080803590602001909291908035906020019092919050505061333d565b005b348015610aa857600080fd5b50610ac7600480360381019080803590602001909291905050506136a3565b005b610ad1610ebb565b005b348015610adf57600080fd5b50610b3760048036038101908080359060200190820180359060200190808060200260200160405190810160405280939291908181526020018383602002808284378201915050505050509192919290505050613a89565b005b348015610b4557600080fd5b50610b4e613cec565b005b348015610b5c57600080fd5b50610b7b60048036038101908080359060200190929190505050613eb9565b6040518082815260200191505060405180910390f35b348015610b9d57600080fd5b50610bdc600480360381019080803573ffffffffffffffffffffffffffffffffffffffff16906020019092919080359060200190929190505050613ece565b005b348015610bea57600080fd5b50610bf3614100565b6040518082815260200191505060405180910390f35b348015610c1557600080fd5b50610c1e61410a565b6040518082815260200191505060405180910390f35b348015610c4057600080fd5b50610c49614116565b6040518082815260200191505060405180910390f35b348015610c6b57600080fd5b50610c946004803603810190808035906020019092919080359060200190929190505050614120565b6040518082815260200191505060405180910390f35b348015610cb657600080fd5b50610cbf614165565b005b348015610ccd57600080fd5b50610cd66142e7565b6040518082815260200191505060405180910390f35b348015610cf857600080fd5b50610d016142f1565b6040518082815260200191505060405180910390f35b348015610d2357600080fd5b50610d58600480360381019080803573ffffffffffffffffffffffffffffffffffffffff1690602001909291905050506142fb565b005b348015610d6657600080fd5b50610d88600480360381019080803560ff169060200190929190505050614362565b005b348015610d9657600080fd5b50610db5600480360381019080803590602001909291905050506143e8565b6040518082815260200191505060405180910390f35b348015610dd757600080fd5b50610de0614412565b604051808273ffffffffffffffffffffffffffffffffffffffff1673ffffffffffffffffffffffffffffffffffffffff16815260200191505060405180910390f35b348015610e2e57600080fd5b50610e4d6004803603810190808035906020019092919050505061443c565b6040518082815260200191505060405180910390f35b348015610e6f57600080fd5b50610e7861445c565b005b348015610e8657600080fd5b50610ea5600480360381019080803590602001909291905050506144c1565b6040518082815260200191505060405180910390f35b6002610ec5611886565b6007811115610ed057fe5b6007811115610edb57fe5b816007811115610ee757fe5b141515610f5c576040517f08c379a00000000000000000000000000000000000000000000000000000000081526004018080602001828103825260038152602001807f453031000000000000000000000000000000000000000000000000000000000081525060200191505060405180910390fd5b610f68333460006144e1565b50565b600060066000838152602001908152602001600020600201549050919050565b6000600460009054906101000a900473ffffffffffffffffffffffffffffffffffffffff16905090565b6000600c54905090565b6000600b54905090565b6000809054906101000a900473ffffffffffffffffffffffffffffffffffffffff1673ffffffffffffffffffffffffffffffffffffffff163373ffffffffffffffffffffffffffffffffffffffff1614151561102457600080fd5b600361102e611886565b600781111561103957fe5b600781111561104457fe5b81600781111561105057fe5b1415156110c5576040517f08c379a00000000000000000000000000000000000000000000000000000000081526004018080602001828103825260038152602001807f453031000000000000000000000000000000000000000000000000000000000081525060200191505060405180910390fd5b6000831415151561113e576040517f08c379a00000000000000000000000000000000000000000000000000000000081526004018080602001828103825260038152602001807f453037000000000000000000000000000000000000000000000000000000000081525060200191505060405180910390fd5b6111488383612585565b600b81905550611156614d40565b505050565b6000600f54905090565b633b9aca0081565b6000600180549050905090565b60006006600083815260200190815260200160002060030160149054906101000a900460ff169050919050565b6000809054906101000a900473ffffffffffffffffffffffffffffffffffffffff1673ffffffffffffffffffffffffffffffffffffffff163373ffffffffffffffffffffffffffffffffffffffff1614151561120257600080fd5b600161120c611886565b600781111561121757fe5b600781111561122257fe5b81600781111561122e57fe5b1415156112a3576040517f08c379a00000000000000000000000000000000000000000000000000000000081526004018080602001828103825260038152602001807f453031000000000000000000000000000000000000000000000000000000000081525060200191505060405180910390fd5b6112ae826000614f1b565b5050565b6000600d54905090565b6000600e54905090565b600060056112d2611886565b60078111156112dd57fe5b60078111156112e857fe5b8160078111156112f457fe5b141515611369576040517f08c379a00000000000000000000000000000000000000000000000000000000081526004018080602001828103825260038152602001807f453031000000000000000000000000000000000000000000000000000000000081525060200191505060405180910390fd5b600560009054906101000a900473ffffffffffffffffffffffffffffffffffffffff1673ffffffffffffffffffffffffffffffffffffffff1663376fe102336040518263ffffffff167c0100000000000000000000000000000000000000000000000000000000028152600401808273ffffffffffffffffffffffffffffffffffffffff1673ffffffffffffffffffffffffffffffffffffffff168152602001915050602060405180830381600087803b15801561142657600080fd5b505af115801561143a573d6000803e3d6000fd5b505050506040513d602081101561145057600080fd5b8101908080519060200190929190505050915061146c826136a3565b5050565b60006006600083815260200190815260200160002060030160159054906101000a900460ff169050919050565b60006001828154811015156114ae57fe5b9060005260206000209060030201600001549050919050565b60006001828154811015156114d857fe5b9060005260206000209060030201600101549050919050565b60008060008060009054906101000a900473ffffffffffffffffffffffffffffffffffffffff1673ffffffffffffffffffffffffffffffffffffffff163373ffffffffffffffffffffffffffffffffffffffff1614151561155157600080fd5b600061155b61116d565b1415156115d0576040517f08c379a00000000000000000000000000000000000000000000000000000000081526004018080602001828103825260038152602001807f453035000000000000000000000000000000000000000000000000000000000081525060200191505060405180910390fd5b600260019054906101000a900473ffffffffffffffffffffffffffffffffffffffff1673ffffffffffffffffffffffffffffffffffffffff1663b7a8807c6040518163ffffffff167c0100000000000000000000000000000000000000000000000000000000028152600401602060405180830381600087803b15801561165657600080fd5b505af115801561166a573d6000803e3d6000fd5b505050506040513d602081101561168057600080fd5b81019080805190602001909291905050509250600260019054906101000a900473ffffffffffffffffffffffffffffffffffffffff1673ffffffffffffffffffffffffffffffffffffffff16630fb5a6b46040518163ffffffff167c0100000000000000000000000000000000000000000000000000000000028152600401602060405180830381600087803b15801561171957600080fd5b505af115801561172d573d6000803e3d6000fd5b505050506040513d602081101561174357600080fd5b81019080805190602001909291905050509150600260019054906101000a900473ffffffffffffffffffffffffffffffffffffffff1673ffffffffffffffffffffffffffffffffffffffff1663ffbfb7c76040518163ffffffff167c0100000000000000000000000000000000000000000000000000000000028152600401602060405180830381600087803b1580156117dc57600080fd5b505af11580156117f0573d6000803e3d6000fd5b505050506040513d602081101561180657600080fd5b810190808051906020019092919050505090506118266000806000615193565b6118336001846000615193565b6118406002600084615193565b61184d6003600080615193565b61185a6004600080615193565b6118676005600083615193565b6118746006600080615193565b6118816007600080615193565b505050565b60008060008060008060018054905011151561190a576040517f08c379a00000000000000000000000000000000000000000000000000000000081526004018080602001828103825260038152602001807f453031000000000000000000000000000000000000000000000000000000000081525060200191505060405180910390fd5b600260009054906101000a900460ff1660ff1693506001600260009054906101000a900460ff1660ff1681548110151561194057fe5b90600052602060002090600302016000015492508391505b6001805490508210156119aa5761196f8284611b42565b9050611979615239565b8110158061198d5750600180805490500382145b1561199a578193506119aa565b8092508180600101925050611958565b8394505050505090565b60006006600083815260200190815260200160002060030160009054906101000a900473ffffffffffffffffffffffffffffffffffffffff169050919050565b6000600560009054906101000a900473ffffffffffffffffffffffffffffffffffffffff16905090565b6000601054905090565b60008060009054906101000a900473ffffffffffffffffffffffffffffffffffffffff1673ffffffffffffffffffffffffffffffffffffffff163373ffffffffffffffffffffffffffffffffffffffff16141515611a8557600080fd5b3073ffffffffffffffffffffffffffffffffffffffff16319050600360009054906101000a900473ffffffffffffffffffffffffffffffffffffffff1673ffffffffffffffffffffffffffffffffffffffff166108fc829081150290604051600060405180830381858888f19350505050158015611b07573d6000803e3d6000fd5b507f94effa14ea3a1ef396fa2fd829336d1597f1d76b548c26bfa2332869706638af816040518082815260200191505060405180910390a150565b600080611b4d615686565b6000199150600185815481101515611b6157fe5b9060005260206000209060030201606060405190810160405290816000820154815260200160018201548152602001600282015481525050905060008160400151141515611bc357611bc081604001518561524190919063ffffffff16565b91505b6000816020015114158015611bdb5750818160200151105b15611be857806020015191505b819250505092915050565b6000809054906101000a900473ffffffffffffffffffffffffffffffffffffffff1673ffffffffffffffffffffffffffffffffffffffff163373ffffffffffffffffffffffffffffffffffffffff16141515611c4e57600080fd5b6000809054906101000a900473ffffffffffffffffffffffffffffffffffffffff1673ffffffffffffffffffffffffffffffffffffffff167ff8df31144d9c2f0f6b59d69b8b98abd5459d07f2742c4df920b25aae33c6482060405160405180910390a260008060006101000a81548173ffffffffffffffffffffffffffffffffffffffff021916908373ffffffffffffffffffffffffffffffffffffffff160217905550565b60008060009054906101000a900473ffffffffffffffffffffffffffffffffffffffff1673ffffffffffffffffffffffffffffffffffffffff163373ffffffffffffffffffffffffffffffffffffffff16141515611d5257600080fd5b600160036000816007811115611d6457fe5b836007811115611d7057fe5b101515611de5576040517f08c379a00000000000000000000000000000000000000000000000000000000081526004018080602001828103825260038152602001807f453032000000000000000000000000000000000000000000000000000000000081525060200191505060405180910390fd5b611ded611886565b6007811115611df857fe5b9050826007811115611e0657fe5b816007811115611e1257fe5b10151515611e88576040517f08c379a00000000000000000000000000000000000000000000000000000000081526004018080602001828103825260038152602001807f453033000000000000000000000000000000000000000000000000000000000081525060200191505060405180910390fd5b816007811115611e9457fe5b816007811115611ea057fe5b11151515611f16576040517f08c379a00000000000000000000000000000000000000000000000000000000081526004018080602001828103825260038152602001807f453034000000000000000000000000000000000000000000000000000000000081525060200191505060405180910390fd5b60066000878152602001908152602001600020935084846000015410151515611fa7576040517f08c379a00000000000000000000000000000000000000000000000000000000081526004018080602001828103825260038152602001807f453035000000000000000000000000000000000000000000000000000000000081525060200191505060405180910390fd5b611fbe85856000015461525d90919063ffffffff16565b84600001819055508360030160009054906101000a900473ffffffffffffffffffffffffffffffffffffffff1673ffffffffffffffffffffffffffffffffffffffff166108fc869081150290604051600060405180830381858888f19350505050158015612030573d6000803e3d6000fd5b508360030160009054906101000a900473ffffffffffffffffffffffffffffffffffffffff1673ffffffffffffffffffffffffffffffffffffffff167f9480f63de8d74c57f8d0b3e7508d5ad1af141f486e78ea2d15c427dabb321881866040518082815260200191505060405180910390a2505050505050565b6000806000806000809054906101000a900473ffffffffffffffffffffffffffffffffffffffff1673ffffffffffffffffffffffffffffffffffffffff163373ffffffffffffffffffffffffffffffffffffffff1614151561210c57600080fd5b6004612116611886565b600781111561212157fe5b600781111561212c57fe5b81600781111561213857fe5b1415156121ad576040517f08c379a00000000000000000000000000000000000000000000000000000000081526004018080602001828103825260038152602001807f453031000000000000000000000000000000000000000000000000000000000081525060200191505060405180910390fd5b600660008781526020019081526020016000209450600073ffffffffffffffffffffffffffffffffffffffff168560030160009054906101000a900473ffffffffffffffffffffffffffffffffffffffff1673ffffffffffffffffffffffffffffffffffffffff161415151561228b576040517f08c379a00000000000000000000000000000000000000000000000000000000081526004018080602001828103825260038152602001807f453039000000000000000000000000000000000000000000000000000000000081525060200191505060405180910390fd5b8460030160149054906101000a900460ff16151515612312576040517f08c379a00000000000000000000000000000000000000000000000000000000081526004018080602001828103825260038152602001807f453130000000000000000000000000000000000000000000000000000000000081525060200191505060405180910390fd5b60009350846001015492506000856000015411156123aa576000601054111561236757612364601054612356633b9aca00886000015461527690919063ffffffff16565b6152ae90919063ffffffff16565b93505b612392600b5461238486886000015461525d90919063ffffffff16565b6152ae90919063ffffffff16565b91506123a7828461524190919063ffffffff16565b92505b60008311156124a157612486600260019054906101000a900473ffffffffffffffffffffffffffffffffffffffff1673ffffffffffffffffffffffffffffffffffffffff1663699eb5e36040518163ffffffff167c0100000000000000000000000000000000000000000000000000000000028152600401602060405180830381600087803b15801561243c57600080fd5b505af1158015612450573d6000803e3d6000fd5b505050506040513d602081101561246657600080fd5b81019080805190602001909291905050508461527690919063ffffffff16565b85600201819055506008600081548092919060010191905055505b8460030160159054906101000a900460ff161580156124c05750600084115b1561254e5760018560030160156101000a81548160ff0219169083151502179055508460030160009054906101000a900473ffffffffffffffffffffffffffffffffffffffff1673ffffffffffffffffffffffffffffffffffffffff166108fc859081150290604051600060405180830381858888f1935050505015801561254c573d6000803e3d6000fd5b505b60018560030160146101000a81548160ff021916908315150217905550600960008154809291906001019190505550505050505050565b60008083141561259857600090506125c4565b6125c1836125b060108561524190919063ffffffff16565b600a0a6152ae90919063ffffffff16565b90505b92915050565b60006006600083815260200190815260200160002060030160169054906101000a900460ff169050919050565b6000809054906101000a900473ffffffffffffffffffffffffffffffffffffffff1681565b6000612626611886565b600781111561263157fe5b600781111561263c57fe5b81600781111561264857fe5b1415156126bd576040517f08c379a00000000000000000000000000000000000000000000000000000000081526004018080602001828103825260038152602001807f453031000000000000000000000000000000000000000000000000000000000081525060200191505060405180910390fd5b600073ffffffffffffffffffffffffffffffffffffffff16600460009054906101000a900473ffffffffffffffffffffffffffffffffffffffff1673ffffffffffffffffffffffffffffffffffffffff16141515612783576040517f08c379a00000000000000000000000000000000000000000000000000000000081526004018080602001828103825260038152602001807f453032000000000000000000000000000000000000000000000000000000000081525060200191505060405180910390fd5b3073ffffffffffffffffffffffffffffffffffffffff168273ffffffffffffffffffffffffffffffffffffffff16638da5cb5b6040518163ffffffff167c0100000000000000000000000000000000000000000000000000000000028152600401602060405180830381600087803b1580156127fe57600080fd5b505af1158015612812573d6000803e3d6000fd5b505050506040513d602081101561282857600080fd5b810190808051906020019092919050505073ffffffffffffffffffffffffffffffffffffffff161415156128c4576040517f08c379a00000000000000000000000000000000000000000000000000000000081526004018080602001828103825260038152602001807f453033000000000000000000000000000000000000000000000000000000000081525060200191505060405180910390fd5b8173ffffffffffffffffffffffffffffffffffffffff166305d2035b6040518163ffffffff167c0100000000000000000000000000000000000000000000000000000000028152600401602060405180830381600087803b15801561292857600080fd5b505af115801561293c573d6000803e3d6000fd5b505050506040513d602081101561295257600080fd5b81019080805190602001909291905050501515156129d8576040517f08c379a00000000000000000000000000000000000000000000000000000000081526004018080602001828103825260038152602001807f453034000000000000000000000000000000000000000000000000000000000081525060200191505060405180910390fd5b81600460006101000a81548173ffffffffffffffffffffffffffffffffffffffff021916908373ffffffffffffffffffffffffffffffffffffffff160217905550612a216152c4565b5050565b6000600260019054906101000a900473ffffffffffffffffffffffffffffffffffffffff16905090565b60008060009054906101000a900473ffffffffffffffffffffffffffffffffffffffff1673ffffffffffffffffffffffffffffffffffffffff163373ffffffffffffffffffffffffffffffffffffffff16141515612aac57600080fd5b6004612ab6611886565b6007811115612ac157fe5b6007811115612acc57fe5b816007811115612ad857fe5b141515612b4d576040517f08c379a00000000000000000000000000000000000000000000000000000000081526004018080602001828103825260038152602001807f453031000000000000000000000000000000000000000000000000000000000081525060200191505060405180910390fd5b600091505b8251821015612b8857612b7b8383815181101515612b6c57fe5b906020019060200201516120ab565b8180600101925050612b52565b505050565b6006612b97611886565b6007811115612ba257fe5b6007811115612bad57fe5b816007811115612bb957fe5b141515612c2e576040517f08c379a00000000000000000000000000000000000000000000000000000000081526004018080602001828103825260038152602001807f453031000000000000000000000000000000000000000000000000000000000081525060200191505060405180910390fd5b6000809054906101000a900473ffffffffffffffffffffffffffffffffffffffff1673ffffffffffffffffffffffffffffffffffffffff163373ffffffffffffffffffffffffffffffffffffffff16141515612c8957600080fd5b600854600a54141515612d04576040517f08c379a00000000000000000000000000000000000000000000000000000000081526004018080602001828103825260038152602001807f453133000000000000000000000000000000000000000000000000000000000081525060200191505060405180910390fd5b600460009054906101000a900473ffffffffffffffffffffffffffffffffffffffff1673ffffffffffffffffffffffffffffffffffffffff166305d2035b6040518163ffffffff167c0100000000000000000000000000000000000000000000000000000000028152600401602060405180830381600087803b158015612d8a57600080fd5b505af1158015612d9e573d6000803e3d6000fd5b505050506040513d6020811015612db457600080fd5b81019080805190602001909291905050501515612e8e57600460009054906101000a900473ffffffffffffffffffffffffffffffffffffffff1673ffffffffffffffffffffffffffffffffffffffff16637d64bcb46040518163ffffffff167c0100000000000000000000000000000000000000000000000000000000028152600401602060405180830381600087803b158015612e5157600080fd5b505af1158015612e65573d6000803e3d6000fd5b505050506040513d6020811015612e7b57600080fd5b8101908080519060200190929190505050505b3073ffffffffffffffffffffffffffffffffffffffff16600460009054906101000a900473ffffffffffffffffffffffffffffffffffffffff1673ffffffffffffffffffffffffffffffffffffffff16638da5cb5b6040518163ffffffff167c0100000000000000000000000000000000000000000000000000000000028152600401602060405180830381600087803b158015612f2b57600080fd5b505af1158015612f3f573d6000803e3d6000fd5b505050506040513d6020811015612f5557600080fd5b810190808051906020019092919050505073ffffffffffffffffffffffffffffffffffffffff16141561307957600460009054906101000a900473ffffffffffffffffffffffffffffffffffffffff1673ffffffffffffffffffffffffffffffffffffffff1663f2fde38b6000809054906101000a900473ffffffffffffffffffffffffffffffffffffffff166040518263ffffffff167c0100000000000000000000000000000000000000000000000000000000028152600401808273ffffffffffffffffffffffffffffffffffffffff1673ffffffffffffffffffffffffffffffffffffffff168152602001915050600060405180830381600087803b15801561306057600080fd5b505af1158015613074573d6000803e3d6000fd5b505050505b600460009054906101000a900473ffffffffffffffffffffffffffffffffffffffff1673ffffffffffffffffffffffffffffffffffffffff166305d2035b6040518163ffffffff167c0100000000000000000000000000000000000000000000000000000000028152600401602060405180830381600087803b1580156130ff57600080fd5b505af1158015613113573d6000803e3d6000fd5b505050506040513d602081101561312957600080fd5b810190808051906020019092919050505015156131ae576040517f08c379a00000000000000000000000000000000000000000000000000000000081526004018080602001828103825260038152602001807f453134000000000000000000000000000000000000000000000000000000000081525060200191505060405180910390fd5b6000809054906101000a900473ffffffffffffffffffffffffffffffffffffffff1673ffffffffffffffffffffffffffffffffffffffff16600460009054906101000a900473ffffffffffffffffffffffffffffffffffffffff1673ffffffffffffffffffffffffffffffffffffffff16638da5cb5b6040518163ffffffff167c0100000000000000000000000000000000000000000000000000000000028152600401602060405180830381600087803b15801561326c57600080fd5b505af1158015613280573d6000803e3d6000fd5b505050506040513d602081101561329657600080fd5b810190808051906020019092919050505073ffffffffffffffffffffffffffffffffffffffff16141515613332576040517f08c379a00000000000000000000000000000000000000000000000000000000081526004018080602001828103825260038152602001807f453135000000000000000000000000000000000000000000000000000000000081525060200191505060405180910390fd5b61333a6152c4565b50565b60008060009054906101000a900473ffffffffffffffffffffffffffffffffffffffff1673ffffffffffffffffffffffffffffffffffffffff163373ffffffffffffffffffffffffffffffffffffffff1614151561339a57600080fd5b6001600360008160078111156133ac57fe5b8360078111156133b857fe5b10151561342d576040517f08c379a00000000000000000000000000000000000000000000000000000000081526004018080602001828103825260038152602001807f453032000000000000000000000000000000000000000000000000000000000081525060200191505060405180910390fd5b613435611886565b600781111561344057fe5b905082600781111561344e57fe5b81600781111561345a57fe5b101515156134d0576040517f08c379a00000000000000000000000000000000000000000000000000000000081526004018080602001828103825260038152602001807f453033000000000000000000000000000000000000000000000000000000000081525060200191505060405180910390fd5b8160078111156134dc57fe5b8160078111156134e857fe5b1115151561355e576040517f08c379a00000000000000000000000000000000000000000000000000000000081526004018080602001828103825260038152602001807f453034000000000000000000000000000000000000000000000000000000000081525060200191505060405180910390fd5b600660008781526020019081526020016000209350848460010154101515156135ef576040517f08c379a00000000000000000000000000000000000000000000000000000000081526004018080602001828103825260038152602001807f453036000000000000000000000000000000000000000000000000000000000081525060200191505060405180910390fd5b61360685856001015461525d90919063ffffffff16565b846001018190555061362385600c5461525d90919063ffffffff16565b600c819055508360030160009054906101000a900473ffffffffffffffffffffffffffffffffffffffff1673ffffffffffffffffffffffffffffffffffffffff167f7b92cb7f5356bbf5575f79f177a23648a0e43829b1527e142f7dac7784fa220e866040518082815260200191505060405180910390a2505050505050565b600060056136af611886565b60078111156136ba57fe5b60078111156136c557fe5b8160078111156136d157fe5b141515613746576040517f08c379a00000000000000000000000000000000000000000000000000000000081526004018080602001828103825260038152602001807f453031000000000000000000000000000000000000000000000000000000000081525060200191505060405180910390fd5b600660008481526020019081526020016000209150600073ffffffffffffffffffffffffffffffffffffffff168260030160009054906101000a900473ffffffffffffffffffffffffffffffffffffffff1673ffffffffffffffffffffffffffffffffffffffff1614151515613824576040517f08c379a00000000000000000000000000000000000000000000000000000000081526004018080602001828103825260038152602001807f453039000000000000000000000000000000000000000000000000000000000081525060200191505060405180910390fd5b600082600201541115156138a0576040517f08c379a00000000000000000000000000000000000000000000000000000000081526004018080602001828103825260038152602001807f453139000000000000000000000000000000000000000000000000000000000081525060200191505060405180910390fd5b8160030160169054906101000a900460ff16151515613927576040517f08c379a00000000000000000000000000000000000000000000000000000000081526004018080602001828103825260038152602001807f453132000000000000000000000000000000000000000000000000000000000081525060200191505060405180910390fd5b600460009054906101000a900473ffffffffffffffffffffffffffffffffffffffff1673ffffffffffffffffffffffffffffffffffffffff166340c10f198360030160009054906101000a900473ffffffffffffffffffffffffffffffffffffffff1684600201546040518363ffffffff167c0100000000000000000000000000000000000000000000000000000000028152600401808373ffffffffffffffffffffffffffffffffffffffff1673ffffffffffffffffffffffffffffffffffffffff16815260200182815260200192505050602060405180830381600087803b158015613a1457600080fd5b505af1158015613a28573d6000803e3d6000fd5b505050506040513d6020811015613a3e57600080fd5b810190808051906020019092919050505015613a845760018260030160166101000a81548160ff021916908315150217905550600a600081548092919060010191905055505b505050565b60008060009054906101000a900473ffffffffffffffffffffffffffffffffffffffff1673ffffffffffffffffffffffffffffffffffffffff163373ffffffffffffffffffffffffffffffffffffffff16141515613ae657600080fd5b600560066000816007811115613af857fe5b836007811115613b0457fe5b101515613b79576040517f08c379a00000000000000000000000000000000000000000000000000000000081526004018080602001828103825260038152602001807f453032000000000000000000000000000000000000000000000000000000000081525060200191505060405180910390fd5b613b81611886565b6007811115613b8c57fe5b9050826007811115613b9a57fe5b816007811115613ba657fe5b10151515613c1c576040517f08c379a00000000000000000000000000000000000000000000000000000000081526004018080602001828103825260038152602001807f453033000000000000000000000000000000000000000000000000000000000081525060200191505060405180910390fd5b816007811115613c2857fe5b816007811115613c3457fe5b11151515613caa576040517f08c379a00000000000000000000000000000000000000000000000000000000081526004018080602001828103825260038152602001807f453034000000000000000000000000000000000000000000000000000000000081525060200191505060405180910390fd5b600093505b8451841015613ce557613cd88585815181101515613cc957fe5b906020019060200201516136a3565b8380600101945050613caf565b5050505050565b6000809054906101000a900473ffffffffffffffffffffffffffffffffffffffff1673ffffffffffffffffffffffffffffffffffffffff163373ffffffffffffffffffffffffffffffffffffffff16141515613d4757600080fd5b6003613d51611886565b6007811115613d5c57fe5b6007811115613d6757fe5b816007811115613d7357fe5b141515613de8576040517f08c379a00000000000000000000000000000000000000000000000000000000081526004018080602001828103825260038152602001807f453031000000000000000000000000000000000000000000000000000000000081525060200191505060405180910390fd5b6000600b5414151515613e63576040517f08c379a00000000000000000000000000000000000000000000000000000000081526004018080602001828103825260038152602001807f453038000000000000000000000000000000000000000000000000000000000081525060200191505060405180910390fd5b613e6b614d40565b613e736152c4565b7ffd491c5d781031930df21797fa49d7d103b1fe359d46f7d885e7e90b21f03b4e600e54600f54604051808381526020018281526020019250505060405180910390a150565b6000613ec7600b5483614120565b9050919050565b6000809054906101000a900473ffffffffffffffffffffffffffffffffffffffff1673ffffffffffffffffffffffffffffffffffffffff163373ffffffffffffffffffffffffffffffffffffffff16141515613f2957600080fd5b600160036000816007811115613f3b57fe5b836007811115613f4757fe5b101515613fbc576040517f08c379a00000000000000000000000000000000000000000000000000000000081526004018080602001828103825260038152602001807f453032000000000000000000000000000000000000000000000000000000000081525060200191505060405180910390fd5b613fc4611886565b6007811115613fcf57fe5b9050826007811115613fdd57fe5b816007811115613fe957fe5b1015151561405f576040517f08c379a00000000000000000000000000000000000000000000000000000000081526004018080602001828103825260038152602001807f453033000000000000000000000000000000000000000000000000000000000081525060200191505060405180910390fd5b81600781111561406b57fe5b81600781111561407757fe5b111515156140ed576040517f08c379a00000000000000000000000000000000000000000000000000000000081526004018080602001828103825260038152602001807f453034000000000000000000000000000000000000000000000000000000000081525060200191505060405180910390fd5b6140f9856000866144e1565b5050505050565b6000600a54905090565b6000633b9aca00905090565b6000600754905090565b600080831415614133576000905061415f565b61415c8361414b60108561524190919063ffffffff16565b600a0a6152ae90919063ffffffff16565b90505b92915050565b6000809054906101000a900473ffffffffffffffffffffffffffffffffffffffff1673ffffffffffffffffffffffffffffffffffffffff163373ffffffffffffffffffffffffffffffffffffffff161415156141c057600080fd5b60046141ca611886565b60078111156141d557fe5b60078111156141e057fe5b8160078111156141ec57fe5b141515614261576040517f08c379a00000000000000000000000000000000000000000000000000000000081526004018080602001828103825260038152602001807f453031000000000000000000000000000000000000000000000000000000000081525060200191505060405180910390fd5b6007546009541415156142dc576040517f08c379a00000000000000000000000000000000000000000000000000000000081526004018080602001828103825260038152602001807f453130000000000000000000000000000000000000000000000000000000000081525060200191505060405180910390fd5b6142e46152c4565b50565b6000600854905090565b6000600954905090565b6000809054906101000a900473ffffffffffffffffffffffffffffffffffffffff1673ffffffffffffffffffffffffffffffffffffffff163373ffffffffffffffffffffffffffffffffffffffff1614151561435657600080fd5b61435f81615481565b50565b6000809054906101000a900473ffffffffffffffffffffffffffffffffffffffff1673ffffffffffffffffffffffffffffffffffffffff163373ffffffffffffffffffffffffffffffffffffffff161415156143bd57600080fd5b5b8060078111156143ca57fe5b6143d2611886565b10156143e5576143e06152c4565b6143be565b50565b60006001828154811015156143f957fe5b9060005260206000209060030201600201549050919050565b6000600360009054906101000a900473ffffffffffffffffffffffffffffffffffffffff16905090565b600060066000838152602001908152602001600020600001549050919050565b6000809054906101000a900473ffffffffffffffffffffffffffffffffffffffff1673ffffffffffffffffffffffffffffffffffffffff163373ffffffffffffffffffffffffffffffffffffffff161415156144b757600080fd5b6144bf6152c4565b565b600060066000838152602001908152602001600020600101549050919050565b600080600560009054906101000a900473ffffffffffffffffffffffffffffffffffffffff1673ffffffffffffffffffffffffffffffffffffffff1663376fe102866040518263ffffffff167c0100000000000000000000000000000000000000000000000000000000028152600401808273ffffffffffffffffffffffffffffffffffffffff1673ffffffffffffffffffffffffffffffffffffffff168152602001915050602060405180830381600087803b1580156145a157600080fd5b505af11580156145b5573d6000803e3d6000fd5b505050506040513d60208110156145cb57600080fd5b81019080805190602001909291905050509150600560009054906101000a900473ffffffffffffffffffffffffffffffffffffffff1673ffffffffffffffffffffffffffffffffffffffff1663f577a500836040518263ffffffff167c010000000000000000000000000000000000000000000000000000000002815260040180828152602001915050602060405180830381600087803b15801561466f57600080fd5b505af1158015614683573d6000803e3d6000fd5b505050506040513d602081101561469957600080fd5b8101908080519060200190929190505050151561471e576040517f08c379a00000000000000000000000000000000000000000000000000000000081526004018080602001828103825260038152602001807f453136000000000000000000000000000000000000000000000000000000000081525060200191505060405180910390fd5b600660008381526020019081526020016000209050600083111561488d5761475183600c5461524190919063ffffffff16565b600260019054906101000a900473ffffffffffffffffffffffffffffffffffffffff1673ffffffffffffffffffffffffffffffffffffffff16631924f5516040518163ffffffff167c0100000000000000000000000000000000000000000000000000000000028152600401602060405180830381600087803b1580156147d757600080fd5b505af11580156147eb573d6000803e3d6000fd5b505050506040513d602081101561480157600080fd5b810190808051906020019092919050505010151515614888576040517f08c379a00000000000000000000000000000000000000000000000000000000081526004018080602001828103825260038152602001807f453137000000000000000000000000000000000000000000000000000000000081525060200191505060405180910390fd5b6149c5565b600260019054906101000a900473ffffffffffffffffffffffffffffffffffffffff1673ffffffffffffffffffffffffffffffffffffffff16635bcdb3426040518163ffffffff167c0100000000000000000000000000000000000000000000000000000000028152600401602060405180830381600087803b15801561491357600080fd5b505af1158015614927573d6000803e3d6000fd5b505050506040513d602081101561493d57600080fd5b8101908080519060200190929190505050841115156149c4576040517f08c379a00000000000000000000000000000000000000000000000000000000081526004018080602001828103825260038152602001807f453138000000000000000000000000000000000000000000000000000000000081525060200191505060405180910390fd5b5b600073ffffffffffffffffffffffffffffffffffffffff168160030160009054906101000a900473ffffffffffffffffffffffffffffffffffffffff1673ffffffffffffffffffffffffffffffffffffffff161415614bd55760e060405190810160405280858152602001848152602001600081526020018673ffffffffffffffffffffffffffffffffffffffff168152602001600015158152602001600015158152602001600015158152506006600084815260200190815260200160002060008201518160000155602082015181600101556040820151816002015560608201518160030160006101000a81548173ffffffffffffffffffffffffffffffffffffffff021916908373ffffffffffffffffffffffffffffffffffffffff16021790555060808201518160030160146101000a81548160ff02191690831515021790555060a08201518160030160156101000a81548160ff02191690831515021790555060c08201518160030160166101000a81548160ff021916908315150217905550905050614b6283600c5461524190919063ffffffff16565b600c819055506007600081548092919060010191905055508473ffffffffffffffffffffffffffffffffffffffff167f8514357b17ccbde354811f827b94585a7ab01b4034aa86a807b7cc2c100b7be88585604051808381526020018281526020019250505060405180910390a2614d39565b6000841115614c7957614bf584826000015461524190919063ffffffff16565b81600001819055508060030160009054906101000a900473ffffffffffffffffffffffffffffffffffffffff1673ffffffffffffffffffffffffffffffffffffffff167f8514357b17ccbde354811f827b94585a7ab01b4034aa86a807b7cc2c100b7be8856000604051808381526020018281526020019250505060405180910390a25b6000831115614d3857614c9983826001015461524190919063ffffffff16565b8160010181905550614cb683600c5461524190919063ffffffff16565b600c819055508060030160009054906101000a900473ffffffffffffffffffffffffffffffffffffffff1673ffffffffffffffffffffffffffffffffffffffff167f8514357b17ccbde354811f827b94585a7ab01b4034aa86a807b7cc2c100b7be8600085604051808381526020018281526020019250505060405180910390a25b5b5050505050565b600080600e819055503073ffffffffffffffffffffffffffffffffffffffff1631600d81905550614e50600b54614e42600c54600260019054906101000a900473ffffffffffffffffffffffffffffffffffffffff1673ffffffffffffffffffffffffffffffffffffffff16631924f5516040518163ffffffff167c0100000000000000000000000000000000000000000000000000000000028152600401602060405180830381600087803b158015614df957600080fd5b505af1158015614e0d573d6000803e3d6000fd5b505050506040513d6020811015614e2357600080fd5b810190808051906020019092919050505061525d90919063ffffffff16565b61527690919063ffffffff16565b90506000600f8190555080600d541115614ee657614e7981600d5461525d90919063ffffffff16565b600f81905550614eac600f54614e9e633b9aca00600d5461527690919063ffffffff16565b6152ae90919063ffffffff16565b601081905550614edb614eca600b54836152ae90919063ffffffff16565b600c5461524190919063ffffffff16565b600e81905550614f18565b614f11614f00600b54600d546152ae90919063ffffffff16565b600c5461524190919063ffffffff16565b600e819055505b50565b60008060009054906101000a900473ffffffffffffffffffffffffffffffffffffffff1673ffffffffffffffffffffffffffffffffffffffff163373ffffffffffffffffffffffffffffffffffffffff16141515614f7857600080fd5b614f80611886565b905060008311156150c7576000600182815481101515614f9c57fe5b906000526020600020906003020160010154111515615023576040517f08c379a00000000000000000000000000000000000000000000000000000000081526004018080602001828103825260038152602001807f453034000000000000000000000000000000000000000000000000000000000081525060200191505060405180910390fd5b61502b615239565b831115156150a1576040517f08c379a00000000000000000000000000000000000000000000000000000000081526004018080602001828103825260038152602001807f453035000000000000000000000000000000000000000000000000000000000081525060200191505060405180910390fd5b826001828154811015156150b157fe5b9060005260206000209060030201600101819055505b600082111561518e5760006001828154811015156150e157fe5b906000526020600020906003020160020154111515615168576040517f08c379a00000000000000000000000000000000000000000000000000000000081526004018080602001828103825260038152602001807f453034000000000000000000000000000000000000000000000000000000000081525060200191505060405180910390fd5b8160018281548110151561517857fe5b9060005260206000209060030201600201819055505b505050565b61519d828261557b565b60078111156151a857fe5b60078111156151b357fe5b8360078111156151bf57fe5b141515615234576040517f08c379a00000000000000000000000000000000000000000000000000000000081526004018080602001828103825260038152602001807f453036000000000000000000000000000000000000000000000000000000000081525060200191505060405180910390fd5b505050565b600042905090565b6000818301905082811015151561525457fe5b80905092915050565b600082821115151561526b57fe5b818303905092915050565b60008083141561528957600090506152a8565b818302905081838281151561529a57fe5b041415156152a457fe5b8090505b92915050565b600081838115156152bb57fe5b04905092915050565b60006152ce611886565b905060018080549050038110151561534e576040517f08c379a000000000000000000000000000000000000000000000000000000000815260040180806020018281038252600f8152602001807f534154455f4d414348494e455f3036000000000000000000000000000000000081525060200191505060405180910390fd5b600060018281548110151561535f57fe5b90600052602060002090600302016001015414801561539e5750600060018281548110151561538a57fe5b906000526020600020906003020160020154145b1515615412576040517f08c379a00000000000000000000000000000000000000000000000000000000081526004018080602001828103825260038152602001807f453037000000000000000000000000000000000000000000000000000000000081525060200191505060405180910390fd5b61542660018261524190919063ffffffff16565b600260006101000a81548160ff021916908360ff160217905550615448615239565b6001600260009054906101000a900460ff1660ff1681548110151561546957fe5b90600052602060002090600302016000018190555050565b600073ffffffffffffffffffffffffffffffffffffffff168173ffffffffffffffffffffffffffffffffffffffff16141515156154bd57600080fd5b8073ffffffffffffffffffffffffffffffffffffffff166000809054906101000a900473ffffffffffffffffffffffffffffffffffffffff1673ffffffffffffffffffffffffffffffffffffffff167f8be0079c531659141344cd1fd0a4f28419497f9722a3daafe3b4186f6b6457e060405160405180910390a3806000806101000a81548173ffffffffffffffffffffffffffffffffffffffff021916908373ffffffffffffffffffffffffffffffffffffffff16021790555050565b6000615588600080615590565b905092915050565b6000806000809054906101000a900473ffffffffffffffffffffffffffffffffffffffff1673ffffffffffffffffffffffffffffffffffffffff163373ffffffffffffffffffffffffffffffffffffffff161415156155ee57600080fd5b600090506000600180549050141561560b57615608615239565b90505b60016060604051908101604052808381526020018681526020018581525090806001815401808255809150509060018203906000526020600020906003020160009091929091909150600082015181600001556020820151816001015560408201518160020155505050600180805490500391505092915050565b60606040519081016040528060008152602001600081526020016000815250905600a165627a7a723058206555726d24063035bc3a564e47d842ee950a12e39434fe3a9e4a0f08b7f8240e0029",
  "source": "pragma solidity ^0.4.24;\n\nimport \"../interface/ISaleConfig.sol\";\nimport \"../interface/IUserRegistry.sol\";\nimport \"../tokensale/MPLTokensale.sol\";\n\n\n/**\n * @title MPLTokensaleMock\n * @dev MPLTokensaleMock contract\n *\n * @author Cyril Lapinte - <cyril.lapinte@mtpelerin.com>\n */\ncontract MPLTokensaleMock is MPLTokensale {\n\n  constructor(\n    address _vault, \n    ISaleConfig _saleConfig,\n    IUserRegistry _userRegistry)\n    MPLTokensale(_vault, _saleConfig, _userRegistry) public\n  {\n  }\n\n  function setStep(Stepname _name) public onlyOwner {\n    while (currentStep() < uint256(_name)) {\n      nextStep();\n    }\n  }\n\n  function nextStepPublic() public onlyOwner {\n    nextStep();\n  }\n\n  /**\n   * @dev to allow easy testing by pass the constraints\n   * on time and delay and allow full manual testing\n   * Value provided should be tested but the engine itself\n   * should have been tested to ensure the value would be properly\n   * executed\n   **/\n  function addStep(\n    uint256 /*_transitionEndTime*/,\n    uint256 /*_transitionDelay*/) internal returns (uint256)\n  {\n    return super.addStep(0,0);\n  }\n}\n",
  "sourcePath": "/home/node/project/contracts/mock/MPLTokensaleMock.sol",
  "compiler": {
    "name": "solc",
    "version": "0.4.24+commit.e67f0147.Emscripten.clang"
  },
  "schemaVersion": "2.0.1",
  "updatedAt": "2018-08-15T14:19:55.910Z"
}