{
  "contractName": "MPLTokensalePlan",
  "abi": [
    {
      "constant": true,
      "inputs": [],
      "name": "stepsCount",
      "outputs": [
        {
          "name": "",
          "type": "uint256"
        }
      ],
      "payable": false,
      "stateMutability": "view",
      "type": "function"
    },
    {
      "constant": true,
      "inputs": [
        {
          "name": "_stepId",
          "type": "uint256"
        }
      ],
      "name": "stepTime",
      "outputs": [
        {
          "name": "",
          "type": "uint256"
        }
      ],
      "payable": false,
      "stateMutability": "view",
      "type": "function"
    },
    {
      "constant": true,
      "inputs": [
        {
          "name": "_stepId",
          "type": "uint256"
        }
      ],
      "name": "transitionEndTime",
      "outputs": [
        {
          "name": "",
          "type": "uint256"
        }
      ],
      "payable": false,
      "stateMutability": "view",
      "type": "function"
    },
    {
      "constant": true,
      "inputs": [],
      "name": "currentStep",
      "outputs": [
        {
          "name": "",
          "type": "uint256"
        }
      ],
      "payable": false,
      "stateMutability": "view",
      "type": "function"
    },
    {
      "constant": true,
      "inputs": [
        {
          "name": "_stepId",
          "type": "uint256"
        },
        {
          "name": "_startedAt",
          "type": "uint256"
        }
      ],
      "name": "stepEndTime",
      "outputs": [
        {
          "name": "",
          "type": "uint256"
        }
      ],
      "payable": false,
      "stateMutability": "view",
      "type": "function"
    },
    {
      "constant": false,
      "inputs": [],
      "name": "renounceOwnership",
      "outputs": [],
      "payable": false,
      "stateMutability": "nonpayable",
      "type": "function"
    },
    {
      "constant": true,
      "inputs": [],
      "name": "owner",
      "outputs": [
        {
          "name": "",
          "type": "address"
        }
      ],
      "payable": false,
      "stateMutability": "view",
      "type": "function"
    },
    {
      "constant": false,
      "inputs": [
        {
          "name": "_newOwner",
          "type": "address"
        }
      ],
      "name": "transferOwnership",
      "outputs": [],
      "payable": false,
      "stateMutability": "nonpayable",
      "type": "function"
    },
    {
      "constant": true,
      "inputs": [
        {
          "name": "_stepId",
          "type": "uint256"
        }
      ],
      "name": "transitionDelay",
      "outputs": [
        {
          "name": "",
          "type": "uint256"
        }
      ],
      "payable": false,
      "stateMutability": "view",
      "type": "function"
    },
    {
      "inputs": [
        {
          "name": "_saleConfig",
          "type": "address"
        }
      ],
      "payable": false,
      "stateMutability": "nonpayable",
      "type": "constructor"
    },
    {
      "anonymous": false,
      "inputs": [
        {
          "indexed": true,
          "name": "previousOwner",
          "type": "address"
        }
      ],
      "name": "OwnershipRenounced",
      "type": "event"
    },
    {
      "anonymous": false,
      "inputs": [
        {
          "indexed": true,
          "name": "previousOwner",
          "type": "address"
        },
        {
          "indexed": true,
          "name": "newOwner",
          "type": "address"
        }
      ],
      "name": "OwnershipTransferred",
      "type": "event"
    },
    {
      "constant": true,
      "inputs": [],
      "name": "saleConfig",
      "outputs": [
        {
          "name": "",
          "type": "address"
        }
      ],
      "payable": false,
      "stateMutability": "view",
      "type": "function"
    },
    {
      "constant": false,
      "inputs": [],
      "name": "plan",
      "outputs": [],
      "payable": false,
      "stateMutability": "nonpayable",
      "type": "function"
    },
    {
      "constant": false,
      "inputs": [
        {
          "name": "_newOpeningTime",
          "type": "uint256"
        }
      ],
      "name": "updateSaleOpeningTime",
      "outputs": [],
      "payable": false,
      "stateMutability": "nonpayable",
      "type": "function"
    }
  ],
  "bytecode": "0x608060405234801561001057600080fd5b5060405160208061127583398101806040528101908080519060200190929190505050336000806101000a81548173ffffffffffffffffffffffffffffffffffffffff021916908373ffffffffffffffffffffffffffffffffffffffff16021790555080600260016101000a81548173ffffffffffffffffffffffffffffffffffffffff021916908373ffffffffffffffffffffffffffffffffffffffff160217905550506111b1806100c46000396000f3006080604052600436106100ba576000357c0100000000000000000000000000000000000000000000000000000000900463ffffffff1680631daf65f8146100bf5780632479c15c146100ea57806345ed72d714610117578063467bb3551461015857806353e06571146101995780635bc34f71146101b057806368b080a4146101db578063715018a6146102265780638da5cb5b1461023d57806390aa0b0f14610294578063f2fde38b146102eb578063f93bf6251461032e575b600080fd5b3480156100cb57600080fd5b506100d461036f565b6040518082815260200191505060405180910390f35b3480156100f657600080fd5b506101156004803603810190808035906020019092919050505061037c565b005b34801561012357600080fd5b5061014260048036038101908080359060200190929190505050610487565b6040518082815260200191505060405180910390f35b34801561016457600080fd5b50610183600480360381019080803590602001909291905050506104b1565b6040518082815260200191505060405180910390f35b3480156101a557600080fd5b506101ae6104db565b005b3480156101bc57600080fd5b506101c5610870565b6040518082815260200191505060405180910390f35b3480156101e757600080fd5b50610210600480360381019080803590602001909291908035906020019092919050505061099e565b6040518082815260200191505060405180910390f35b34801561023257600080fd5b5061023b610a4f565b005b34801561024957600080fd5b50610252610b51565b604051808273ffffffffffffffffffffffffffffffffffffffff1673ffffffffffffffffffffffffffffffffffffffff16815260200191505060405180910390f35b3480156102a057600080fd5b506102a9610b76565b604051808273ffffffffffffffffffffffffffffffffffffffff1673ffffffffffffffffffffffffffffffffffffffff16815260200191505060405180910390f35b3480156102f757600080fd5b5061032c600480360381019080803573ffffffffffffffffffffffffffffffffffffffff169060200190929190505050610ba0565b005b34801561033a57600080fd5b5061035960048036038101908080359060200190929190505050610c07565b6040518082815260200191505060405180910390f35b6000600180549050905090565b6000809054906101000a900473ffffffffffffffffffffffffffffffffffffffff1673ffffffffffffffffffffffffffffffffffffffff163373ffffffffffffffffffffffffffffffffffffffff161415156103d757600080fd5b60016103e1610870565b60078111156103ec57fe5b60078111156103f757fe5b81600781111561040357fe5b141515610478576040517f08c379a00000000000000000000000000000000000000000000000000000000081526004018080602001828103825260038152602001807f453031000000000000000000000000000000000000000000000000000000000081525060200191505060405180910390fd5b610483826000610c31565b5050565b600060018281548110151561049857fe5b9060005260206000209060030201600001549050919050565b60006001828154811015156104c257fe5b9060005260206000209060030201600101549050919050565b60008060008060009054906101000a900473ffffffffffffffffffffffffffffffffffffffff1673ffffffffffffffffffffffffffffffffffffffff163373ffffffffffffffffffffffffffffffffffffffff1614151561053b57600080fd5b600061054561036f565b1415156105ba576040517f08c379a00000000000000000000000000000000000000000000000000000000081526004018080602001828103825260038152602001807f453035000000000000000000000000000000000000000000000000000000000081525060200191505060405180910390fd5b600260019054906101000a900473ffffffffffffffffffffffffffffffffffffffff1673ffffffffffffffffffffffffffffffffffffffff1663b7a8807c6040518163ffffffff167c0100000000000000000000000000000000000000000000000000000000028152600401602060405180830381600087803b15801561064057600080fd5b505af1158015610654573d6000803e3d6000fd5b505050506040513d602081101561066a57600080fd5b81019080805190602001909291905050509250600260019054906101000a900473ffffffffffffffffffffffffffffffffffffffff1673ffffffffffffffffffffffffffffffffffffffff16630fb5a6b46040518163ffffffff167c0100000000000000000000000000000000000000000000000000000000028152600401602060405180830381600087803b15801561070357600080fd5b505af1158015610717573d6000803e3d6000fd5b505050506040513d602081101561072d57600080fd5b81019080805190602001909291905050509150600260019054906101000a900473ffffffffffffffffffffffffffffffffffffffff1673ffffffffffffffffffffffffffffffffffffffff1663ffbfb7c76040518163ffffffff167c0100000000000000000000000000000000000000000000000000000000028152600401602060405180830381600087803b1580156107c657600080fd5b505af11580156107da573d6000803e3d6000fd5b505050506040513d60208110156107f057600080fd5b810190808051906020019092919050505090506108106000806000610ea9565b61081d6001846000610ea9565b61082a6002600084610ea9565b6108376003600080610ea9565b6108446004600080610ea9565b6108516005600083610ea9565b61085e6006600080610ea9565b61086b6007600080610ea9565b505050565b6000806000806000806001805490501115156108f4576040517f08c379a00000000000000000000000000000000000000000000000000000000081526004018080602001828103825260038152602001807f453031000000000000000000000000000000000000000000000000000000000081525060200191505060405180910390fd5b600260009054906101000a900460ff1660ff1693506001600260009054906101000a900460ff1660ff1681548110151561092a57fe5b90600052602060002090600302016000015492508391505b60018054905082101561099457610959828461099e565b9050610963610f4f565b811015806109775750600180805490500382145b1561098457819350610994565b8092508180600101925050610942565b8394505050505090565b6000806109a9611163565b60001991506001858154811015156109bd57fe5b9060005260206000209060030201606060405190810160405290816000820154815260200160018201548152602001600282015481525050905060008160400151141515610a1f57610a1c816040015185610f5790919063ffffffff16565b91505b6000816020015114158015610a375750818160200151105b15610a4457806020015191505b819250505092915050565b6000809054906101000a900473ffffffffffffffffffffffffffffffffffffffff1673ffffffffffffffffffffffffffffffffffffffff163373ffffffffffffffffffffffffffffffffffffffff16141515610aaa57600080fd5b6000809054906101000a900473ffffffffffffffffffffffffffffffffffffffff1673ffffffffffffffffffffffffffffffffffffffff167ff8df31144d9c2f0f6b59d69b8b98abd5459d07f2742c4df920b25aae33c6482060405160405180910390a260008060006101000a81548173ffffffffffffffffffffffffffffffffffffffff021916908373ffffffffffffffffffffffffffffffffffffffff160217905550565b6000809054906101000a900473ffffffffffffffffffffffffffffffffffffffff1681565b6000600260019054906101000a900473ffffffffffffffffffffffffffffffffffffffff16905090565b6000809054906101000a900473ffffffffffffffffffffffffffffffffffffffff1673ffffffffffffffffffffffffffffffffffffffff163373ffffffffffffffffffffffffffffffffffffffff16141515610bfb57600080fd5b610c0481610f73565b50565b6000600182815481101515610c1857fe5b9060005260206000209060030201600201549050919050565b60008060009054906101000a900473ffffffffffffffffffffffffffffffffffffffff1673ffffffffffffffffffffffffffffffffffffffff163373ffffffffffffffffffffffffffffffffffffffff16141515610c8e57600080fd5b610c96610870565b90506000831115610ddd576000600182815481101515610cb257fe5b906000526020600020906003020160010154111515610d39576040517f08c379a00000000000000000000000000000000000000000000000000000000081526004018080602001828103825260038152602001807f453034000000000000000000000000000000000000000000000000000000000081525060200191505060405180910390fd5b610d41610f4f565b83111515610db7576040517f08c379a00000000000000000000000000000000000000000000000000000000081526004018080602001828103825260038152602001807f453035000000000000000000000000000000000000000000000000000000000081525060200191505060405180910390fd5b82600182815481101515610dc757fe5b9060005260206000209060030201600101819055505b6000821115610ea4576000600182815481101515610df757fe5b906000526020600020906003020160020154111515610e7e576040517f08c379a00000000000000000000000000000000000000000000000000000000081526004018080602001828103825260038152602001807f453034000000000000000000000000000000000000000000000000000000000081525060200191505060405180910390fd5b81600182815481101515610e8e57fe5b9060005260206000209060030201600201819055505b505050565b610eb3828261106d565b6007811115610ebe57fe5b6007811115610ec957fe5b836007811115610ed557fe5b141515610f4a576040517f08c379a00000000000000000000000000000000000000000000000000000000081526004018080602001828103825260038152602001807f453036000000000000000000000000000000000000000000000000000000000081525060200191505060405180910390fd5b505050565b600042905090565b60008183019050828110151515610f6a57fe5b80905092915050565b600073ffffffffffffffffffffffffffffffffffffffff168173ffffffffffffffffffffffffffffffffffffffff1614151515610faf57600080fd5b8073ffffffffffffffffffffffffffffffffffffffff166000809054906101000a900473ffffffffffffffffffffffffffffffffffffffff1673ffffffffffffffffffffffffffffffffffffffff167f8be0079c531659141344cd1fd0a4f28419497f9722a3daafe3b4186f6b6457e060405160405180910390a3806000806101000a81548173ffffffffffffffffffffffffffffffffffffffff021916908373ffffffffffffffffffffffffffffffffffffffff16021790555050565b6000806000809054906101000a900473ffffffffffffffffffffffffffffffffffffffff1673ffffffffffffffffffffffffffffffffffffffff163373ffffffffffffffffffffffffffffffffffffffff161415156110cb57600080fd5b60009050600060018054905014156110e8576110e5610f4f565b90505b60016060604051908101604052808381526020018681526020018581525090806001815401808255809150509060018203906000526020600020906003020160009091929091909150600082015181600001556020820151816001015560408201518160020155505050600180805490500391505092915050565b60606040519081016040528060008152602001600081526020016000815250905600a165627a7a72305820574229b5f4d6cd5584d29a5faa42b974367407975533c2c14ad3cf5c1fb3ab8b0029",
  "source": "pragma solidity ^0.4.24;\n\nimport \"../zeppelin/ownership/Ownable.sol\";\nimport \"../interface/ISaleConfig.sol\";\nimport \"../StateMachine.sol\";\n\n\n/**\n * @title MPLTokensalePlan\n * @dev MPLTokensalePlan contract\n * Handle the sale plan\n * The step always evolve forward\n *\n * @author Cyril Lapinte - <cyril.lapinte@mtpelerin.com>\n *\n * Error messages\n * E01: Not the current step\n * E02: Interval ends before it start\n * E03: Current step is before\n * E04: Current step is after\n * E05: A plan already exists\n * E06: Steps are defined in wrong order\n*/\ncontract MPLTokensalePlan is StateMachine {\n  // The Step enum defines the plan of the sale\n  enum Stepname {\n    // Contract have been created\n    CREATED,\n    // Contract is configured:\n    // - token is not premint and is locked\n    // - sale will go live at the configured date\n    READY,\n    // The sale is live\n    LIVE, // Automatic step\n    // The sale is over. Investments are being reviewed\n    REVIEW, // Automatic step\n    // Preparation of the Minting\n    // Refunds of users who have over invested\n    PREPARE,\n    // Minting of the token. \n    MINT, // Automatic step\n    // Finalize remaining minting\n    FINALIZE,\n    // Terminate the minting\n    // Release the token\n    RELEASED\n  }\n\n  ISaleConfig public saleConfig;\n\n  constructor(ISaleConfig _saleConfig) public {\n    saleConfig = _saleConfig;\n  }\n\n  modifier whenStepIs(Stepname _name) {\n    require(_name == Stepname(currentStep()), \"E01\");\n    _;\n  }\n\n  modifier whenBetweenSteps(Stepname _start, Stepname _end) {\n    // check call parameters \n    require(_start < _end, \"E02\");\n\n    // check current step value\n    Stepname _step = Stepname(currentStep());\n    require(_step >= _start, \"E03\");\n    require(_step <= _end, \"E04\");\n    _;\n  }\n\n  /**\n   * @dev getter need to be declared to comply with IMPLTokensale interface\n   */\n  function saleConfig() public view returns (ISaleConfig) {\n    return saleConfig;\n  }\n\n  /**\n   * @dev define the plan for the tokensale\n   **/\n  function plan() public onlyOwner {\n    require(stepsCount() == 0, \"E05\");\n\n    uint256 saleLiveAt = saleConfig.openingTime();\n    uint256 duration = saleConfig.duration();\n    uint256 mintDuration = saleConfig.mintingDelay();\n\n    evalNewStep(Stepname.CREATED, 0, 0);\n    evalNewStep(Stepname.READY, saleLiveAt, 0);\n    evalNewStep(Stepname.LIVE, 0, duration);\n    evalNewStep(Stepname.REVIEW, 0, 0);\n    evalNewStep(Stepname.PREPARE, 0, 0);\n    evalNewStep(Stepname.MINT, 0, mintDuration);\n    evalNewStep(Stepname.FINALIZE, 0, 0);\n    evalNewStep(Stepname.RELEASED, 0, 0);\n  }\n\n  /**\n   * @dev allow an adjustment of the starting date\n   **/\n  function updateSaleOpeningTime(\n    uint256 _newOpeningTime)\n    public onlyOwner whenStepIs(Stepname.READY)\n  {\n    updateCurrentStep(_newOpeningTime, 0);\n  }\n\n  /**\n   * @dev As we are relying on enum ordering\n   * It's safer to check that each step is correctly\n   * declared with its correct name\n   **/\n  function evalNewStep(\n    Stepname _name, uint256 _endTime, uint256 _delay\n  ) private \n  {\n    require(\n      _name == Stepname(addStep(_endTime, _delay)),\n      \"E06\");\n  }\n}\n",
  "sourcePath": "/home/node/project/contracts/tokensale/MPLTokensalePlan.sol",
  "compiler": {
    "name": "solc",
    "version": "0.4.24+commit.e67f0147.Emscripten.clang"
  },
  "schemaVersion": "2.0.1",
  "updatedAt": "2018-08-15T14:19:56.025Z"
}