{
  "contractName": "MultiSig",
  "abi": [
    {
      "constant": false,
      "inputs": [],
      "name": "renounceOwnership",
      "outputs": [],
      "payable": false,
      "stateMutability": "nonpayable",
      "type": "function"
    },
    {
      "constant": true,
      "inputs": [],
      "name": "owner",
      "outputs": [
        {
          "name": "",
          "type": "address"
        }
      ],
      "payable": false,
      "stateMutability": "view",
      "type": "function"
    },
    {
      "constant": true,
      "inputs": [],
      "name": "transactionCount",
      "outputs": [
        {
          "name": "",
          "type": "uint256"
        }
      ],
      "payable": false,
      "stateMutability": "view",
      "type": "function"
    },
    {
      "constant": false,
      "inputs": [
        {
          "name": "_newOwner",
          "type": "address"
        }
      ],
      "name": "transferOwnership",
      "outputs": [],
      "payable": false,
      "stateMutability": "nonpayable",
      "type": "function"
    },
    {
      "inputs": [
        {
          "name": "_threshold",
          "type": "uint256"
        },
        {
          "name": "_duration",
          "type": "uint256"
        },
        {
          "name": "_participants",
          "type": "address[]"
        },
        {
          "name": "_weights",
          "type": "uint256[]"
        }
      ],
      "payable": false,
      "stateMutability": "nonpayable",
      "type": "constructor"
    },
    {
      "payable": true,
      "stateMutability": "payable",
      "type": "fallback"
    },
    {
      "anonymous": false,
      "inputs": [
        {
          "indexed": false,
          "name": "transactionId",
          "type": "uint256"
        }
      ],
      "name": "TransactionAdded",
      "type": "event"
    },
    {
      "anonymous": false,
      "inputs": [
        {
          "indexed": false,
          "name": "transactionId",
          "type": "uint256"
        }
      ],
      "name": "TransactionCancelled",
      "type": "event"
    },
    {
      "anonymous": false,
      "inputs": [
        {
          "indexed": false,
          "name": "transactionId",
          "type": "uint256"
        }
      ],
      "name": "TransactionLocked",
      "type": "event"
    },
    {
      "anonymous": false,
      "inputs": [
        {
          "indexed": false,
          "name": "transactionId",
          "type": "uint256"
        }
      ],
      "name": "TransactionUnlocked",
      "type": "event"
    },
    {
      "anonymous": false,
      "inputs": [
        {
          "indexed": false,
          "name": "transactionId",
          "type": "uint256"
        }
      ],
      "name": "TransactionConfirmed",
      "type": "event"
    },
    {
      "anonymous": false,
      "inputs": [
        {
          "indexed": false,
          "name": "transactionId",
          "type": "uint256"
        }
      ],
      "name": "TransactionUnconfirmed",
      "type": "event"
    },
    {
      "anonymous": false,
      "inputs": [
        {
          "indexed": true,
          "name": "transactionId",
          "type": "uint256"
        }
      ],
      "name": "Execution",
      "type": "event"
    },
    {
      "anonymous": false,
      "inputs": [
        {
          "indexed": true,
          "name": "transactionId",
          "type": "uint256"
        }
      ],
      "name": "ExecutionFailure",
      "type": "event"
    },
    {
      "anonymous": false,
      "inputs": [
        {
          "indexed": true,
          "name": "participant",
          "type": "address"
        },
        {
          "indexed": false,
          "name": "weight",
          "type": "uint256"
        }
      ],
      "name": "ParticipantAdded",
      "type": "event"
    },
    {
      "anonymous": false,
      "inputs": [
        {
          "indexed": true,
          "name": "participant",
          "type": "address"
        },
        {
          "indexed": false,
          "name": "weight",
          "type": "uint256"
        }
      ],
      "name": "ParticipantUpdated",
      "type": "event"
    },
    {
      "anonymous": false,
      "inputs": [
        {
          "indexed": false,
          "name": "threshold",
          "type": "uint256"
        },
        {
          "indexed": false,
          "name": "duration",
          "type": "uint256"
        }
      ],
      "name": "ConfigurationUpdated",
      "type": "event"
    },
    {
      "anonymous": false,
      "inputs": [
        {
          "indexed": true,
          "name": "previousOwner",
          "type": "address"
        }
      ],
      "name": "OwnershipRenounced",
      "type": "event"
    },
    {
      "anonymous": false,
      "inputs": [
        {
          "indexed": true,
          "name": "previousOwner",
          "type": "address"
        },
        {
          "indexed": true,
          "name": "newOwner",
          "type": "address"
        }
      ],
      "name": "OwnershipTransferred",
      "type": "event"
    },
    {
      "constant": true,
      "inputs": [],
      "name": "threshold",
      "outputs": [
        {
          "name": "",
          "type": "uint256"
        }
      ],
      "payable": false,
      "stateMutability": "view",
      "type": "function"
    },
    {
      "constant": true,
      "inputs": [],
      "name": "duration",
      "outputs": [
        {
          "name": "",
          "type": "uint256"
        }
      ],
      "payable": false,
      "stateMutability": "view",
      "type": "function"
    },
    {
      "constant": true,
      "inputs": [],
      "name": "participantCount",
      "outputs": [
        {
          "name": "",
          "type": "uint256"
        }
      ],
      "payable": false,
      "stateMutability": "view",
      "type": "function"
    },
    {
      "constant": true,
      "inputs": [
        {
          "name": "_address",
          "type": "address"
        }
      ],
      "name": "participantWeight",
      "outputs": [
        {
          "name": "",
          "type": "uint256"
        }
      ],
      "payable": false,
      "stateMutability": "view",
      "type": "function"
    },
    {
      "constant": true,
      "inputs": [
        {
          "name": "_transactionId",
          "type": "uint256"
        }
      ],
      "name": "isConfirmed",
      "outputs": [
        {
          "name": "",
          "type": "bool"
        }
      ],
      "payable": false,
      "stateMutability": "view",
      "type": "function"
    },
    {
      "constant": true,
      "inputs": [
        {
          "name": "_transactionId",
          "type": "uint256"
        },
        {
          "name": "_participationId",
          "type": "address"
        }
      ],
      "name": "hasParticipated",
      "outputs": [
        {
          "name": "",
          "type": "bool"
        }
      ],
      "payable": false,
      "stateMutability": "view",
      "type": "function"
    },
    {
      "constant": true,
      "inputs": [
        {
          "name": "_transactionId",
          "type": "uint256"
        }
      ],
      "name": "isLocked",
      "outputs": [
        {
          "name": "",
          "type": "bool"
        }
      ],
      "payable": false,
      "stateMutability": "view",
      "type": "function"
    },
    {
      "constant": true,
      "inputs": [
        {
          "name": "_transactionId",
          "type": "uint256"
        }
      ],
      "name": "isExpired",
      "outputs": [
        {
          "name": "",
          "type": "bool"
        }
      ],
      "payable": false,
      "stateMutability": "view",
      "type": "function"
    },
    {
      "constant": true,
      "inputs": [
        {
          "name": "_transactionId",
          "type": "uint256"
        }
      ],
      "name": "toBeExpiredAt",
      "outputs": [
        {
          "name": "",
          "type": "uint256"
        }
      ],
      "payable": false,
      "stateMutability": "view",
      "type": "function"
    },
    {
      "constant": true,
      "inputs": [
        {
          "name": "_transactionId",
          "type": "uint256"
        }
      ],
      "name": "isCancelled",
      "outputs": [
        {
          "name": "",
          "type": "bool"
        }
      ],
      "payable": false,
      "stateMutability": "view",
      "type": "function"
    },
    {
      "constant": true,
      "inputs": [
        {
          "name": "_transactionId",
          "type": "uint256"
        }
      ],
      "name": "transactionCreator",
      "outputs": [
        {
          "name": "",
          "type": "address"
        }
      ],
      "payable": false,
      "stateMutability": "view",
      "type": "function"
    },
    {
      "constant": true,
      "inputs": [
        {
          "name": "_transactionId",
          "type": "uint256"
        }
      ],
      "name": "transactionCreatedAt",
      "outputs": [
        {
          "name": "",
          "type": "uint256"
        }
      ],
      "payable": false,
      "stateMutability": "view",
      "type": "function"
    },
    {
      "constant": true,
      "inputs": [
        {
          "name": "_transactionId",
          "type": "uint256"
        }
      ],
      "name": "isExecutable",
      "outputs": [
        {
          "name": "",
          "type": "bool"
        }
      ],
      "payable": false,
      "stateMutability": "view",
      "type": "function"
    },
    {
      "constant": true,
      "inputs": [
        {
          "name": "_transactionId",
          "type": "uint256"
        }
      ],
      "name": "isExecuted",
      "outputs": [
        {
          "name": "",
          "type": "bool"
        }
      ],
      "payable": false,
      "stateMutability": "view",
      "type": "function"
    },
    {
      "constant": false,
      "inputs": [
        {
          "name": "_transactionId",
          "type": "uint256"
        }
      ],
      "name": "execute",
      "outputs": [
        {
          "name": "",
          "type": "bool"
        }
      ],
      "payable": false,
      "stateMutability": "nonpayable",
      "type": "function"
    },
    {
      "constant": false,
      "inputs": [
        {
          "name": "_destination",
          "type": "address"
        },
        {
          "name": "_value",
          "type": "uint256"
        },
        {
          "name": "_data",
          "type": "bytes"
        }
      ],
      "name": "suggest",
      "outputs": [
        {
          "name": "",
          "type": "bool"
        }
      ],
      "payable": false,
      "stateMutability": "nonpayable",
      "type": "function"
    },
    {
      "constant": false,
      "inputs": [
        {
          "name": "_transactionId",
          "type": "uint256"
        },
        {
          "name": "_locked",
          "type": "bool"
        }
      ],
      "name": "lockTransaction",
      "outputs": [
        {
          "name": "",
          "type": "bool"
        }
      ],
      "payable": false,
      "stateMutability": "nonpayable",
      "type": "function"
    },
    {
      "constant": false,
      "inputs": [
        {
          "name": "_transactionId",
          "type": "uint256"
        }
      ],
      "name": "cancelTransaction",
      "outputs": [
        {
          "name": "",
          "type": "bool"
        }
      ],
      "payable": false,
      "stateMutability": "nonpayable",
      "type": "function"
    },
    {
      "constant": false,
      "inputs": [
        {
          "name": "_transactionId",
          "type": "uint256"
        }
      ],
      "name": "approve",
      "outputs": [
        {
          "name": "",
          "type": "bool"
        }
      ],
      "payable": false,
      "stateMutability": "nonpayable",
      "type": "function"
    },
    {
      "constant": false,
      "inputs": [
        {
          "name": "_transactionId",
          "type": "uint256"
        }
      ],
      "name": "revokeApproval",
      "outputs": [
        {
          "name": "",
          "type": "bool"
        }
      ],
      "payable": false,
      "stateMutability": "nonpayable",
      "type": "function"
    },
    {
      "constant": false,
      "inputs": [
        {
          "name": "_participant",
          "type": "address"
        },
        {
          "name": "_weight",
          "type": "uint256"
        }
      ],
      "name": "addParticipant",
      "outputs": [
        {
          "name": "",
          "type": "bool"
        }
      ],
      "payable": false,
      "stateMutability": "nonpayable",
      "type": "function"
    },
    {
      "constant": false,
      "inputs": [
        {
          "name": "_participants",
          "type": "address[]"
        },
        {
          "name": "_weights",
          "type": "uint256[]"
        }
      ],
      "name": "addManyParticipants",
      "outputs": [
        {
          "name": "",
          "type": "bool"
        }
      ],
      "payable": false,
      "stateMutability": "nonpayable",
      "type": "function"
    },
    {
      "constant": false,
      "inputs": [
        {
          "name": "_participant",
          "type": "address"
        },
        {
          "name": "_weight",
          "type": "uint256"
        }
      ],
      "name": "updateParticipant",
      "outputs": [
        {
          "name": "",
          "type": "bool"
        }
      ],
      "payable": false,
      "stateMutability": "nonpayable",
      "type": "function"
    },
    {
      "constant": false,
      "inputs": [
        {
          "name": "_participants",
          "type": "address[]"
        },
        {
          "name": "_weights",
          "type": "uint256[]"
        }
      ],
      "name": "updateManyParticipants",
      "outputs": [
        {
          "name": "",
          "type": "bool"
        }
      ],
      "payable": false,
      "stateMutability": "nonpayable",
      "type": "function"
    },
    {
      "constant": false,
      "inputs": [
        {
          "name": "_newThreshold",
          "type": "uint256"
        },
        {
          "name": "_newDuration",
          "type": "uint256"
        }
      ],
      "name": "updateConfiguration",
      "outputs": [
        {
          "name": "",
          "type": "bool"
        }
      ],
      "payable": false,
      "stateMutability": "nonpayable",
      "type": "function"
    }
  ],
  "bytecode": "0x60806040523480156200001157600080fd5b5060405162002def38038062002def83398101806040528101908080519060200190929190805190602001909291908051820192919060200180518201929190505050336000806101000a81548173ffffffffffffffffffffffffffffffffffffffff021916908373ffffffffffffffffffffffffffffffffffffffff1602179055508360018190555082600281905550620000bd828262000108640100000000026401000000009004565b50306000806101000a81548173ffffffffffffffffffffffffffffffffffffffff021916908373ffffffffffffffffffffffffffffffffffffffff16021790555050505050620002ff565b6000806000809054906101000a900473ffffffffffffffffffffffffffffffffffffffff1673ffffffffffffffffffffffffffffffffffffffff163373ffffffffffffffffffffffffffffffffffffffff161415156200016757600080fd5b600090505b8351811015620001d057620001c184828151811015156200018957fe5b906020019060200201518483815181101515620001a257fe5b90602001906020020151620001db640100000000026401000000009004565b5080806001019150506200016c565b600191505092915050565b60008060009054906101000a900473ffffffffffffffffffffffffffffffffffffffff1673ffffffffffffffffffffffffffffffffffffffff163373ffffffffffffffffffffffffffffffffffffffff161415156200023957600080fd5b60206040519081016040528083815250600360008573ffffffffffffffffffffffffffffffffffffffff1673ffffffffffffffffffffffffffffffffffffffff168152602001908152602001600020600082015181600001559050506004600081548092919060010191905055508273ffffffffffffffffffffffffffffffffffffffff167f287ab65235aa9a0baeed5b973fda48c77ebdc6f3dd931cfda1c082c0aecc1e73836040518082815260200191505060405180910390a26001905092915050565b612ae0806200030f6000396000f300608060405260043610610175576000357c0100000000000000000000000000000000000000000000000000000000900463ffffffff16806301e7fefe146101775780630fb5a6b4146101dc57806322081203146102075780633380c0d8146102c8578063362f04c01461030d57806342cde4e81461033857806349847c7a146103635780634e395e2a146103c8578063579b538a1461040d578063715018a6146104b857806376a6bf52146104cf578063784547a7146105145780637fc0031f146105595780638da5cb5b146105aa5780639f0d483314610601578063a34398a2146106c2578063b1e130fc14610727578063b3e3813f1461076c578063b759f954146107bb578063b77bf60014610800578063cdf92c271461082b578063d42a03ae14610870578063d4e7242f146108c7578063d9548e5314610934578063f0687c7f14610979578063f2fde38b146109ba578063f683c883146109fd578063f6aacfb114610a3e578063fe0d94c114610a83575b005b34801561018357600080fd5b506101c2600480360381019080803573ffffffffffffffffffffffffffffffffffffffff16906020019092919080359060200190929190505050610ac8565b604051808215151515815260200191505060405180910390f35b3480156101e857600080fd5b506101f1610beb565b6040518082815260200191505060405180910390f35b34801561021357600080fd5b506102ae6004803603810190808035906020019082018035906020019080806020026020016040519081016040528093929190818152602001838360200280828437820191505050505050919291929080359060200190820180359060200190808060200260200160405190810160405280939291908181526020018383602002808284378201915050505050509192919290505050610bf5565b604051808215151515815260200191505060405180910390f35b3480156102d457600080fd5b506102f360048036038101908080359060200190929190505050610cb2565b604051808215151515815260200191505060405180910390f35b34801561031957600080fd5b50610322610fe4565b6040518082815260200191505060405180910390f35b34801561034457600080fd5b5061034d610fee565b6040518082815260200191505060405180910390f35b34801561036f57600080fd5b506103ae600480360381019080803573ffffffffffffffffffffffffffffffffffffffff16906020019092919080359060200190929190505050610ff8565b604051808215151515815260200191505060405180910390f35b3480156103d457600080fd5b506103f3600480360381019080803590602001909291905050506110f4565b604051808215151515815260200191505060405180910390f35b34801561041957600080fd5b5061049e600480360381019080803573ffffffffffffffffffffffffffffffffffffffff16906020019092919080359060200190929190803590602001908201803590602001908080601f01602080910402602001604051908101604052809392919081815260200183838082843782019150505050505091929192905050506111b2565b604051808215151515815260200191505060405180910390f35b3480156104c457600080fd5b506104cd6113c6565b005b3480156104db57600080fd5b506104fa600480360381019080803590602001909291905050506114c8565b604051808215151515815260200191505060405180910390f35b34801561052057600080fd5b5061053f600480360381019080803590602001909291905050506114f5565b604051808215151515815260200191505060405180910390f35b34801561056557600080fd5b506105906004803603810190808035906020019092919080351515906020019092919050505061151a565b604051808215151515815260200191505060405180910390f35b3480156105b657600080fd5b506105bf611892565b604051808273ffffffffffffffffffffffffffffffffffffffff1673ffffffffffffffffffffffffffffffffffffffff16815260200191505060405180910390f35b34801561060d57600080fd5b506106a860048036038101908080359060200190820180359060200190808060200260200160405190810160405280939291908181526020018383602002808284378201915050505050509192919290803590602001908201803590602001908080602002602001604051908101604052809392919081815260200183836020028082843782019150505050505091929192905050506118b7565b604051808215151515815260200191505060405180910390f35b3480156106ce57600080fd5b5061070d60048036038101908080359060200190929190803573ffffffffffffffffffffffffffffffffffffffff169060200190929190505050611974565b604051808215151515815260200191505060405180910390f35b34801561073357600080fd5b50610752600480360381019080803590602001909291905050506119df565b604051808215151515815260200191505060405180910390f35b34801561077857600080fd5b506107a16004803603810190808035906020019092919080359060200190929190505050611e56565b604051808215151515815260200191505060405180910390f35b3480156107c757600080fd5b506107e660048036038101908080359060200190929190505050611f0e565b604051808215151515815260200191505060405180910390f35b34801561080c57600080fd5b506108156122a8565b6040518082815260200191505060405180910390f35b34801561083757600080fd5b50610856600480360381019080803590602001909291905050506122ae565b604051808215151515815260200191505060405180910390f35b34801561087c57600080fd5b506108b1600480360381019080803573ffffffffffffffffffffffffffffffffffffffff1690602001909291905050506122db565b6040518082815260200191505060405180910390f35b3480156108d357600080fd5b506108f260048036038101908080359060200190929190505050612327565b604051808273ffffffffffffffffffffffffffffffffffffffff1673ffffffffffffffffffffffffffffffffffffffff16815260200191505060405180910390f35b34801561094057600080fd5b5061095f60048036038101908080359060200190929190505050612367565b604051808215151515815260200191505060405180910390f35b34801561098557600080fd5b506109a46004803603810190808035906020019092919050505061239d565b6040518082815260200191505060405180910390f35b3480156109c657600080fd5b506109fb600480360381019080803573ffffffffffffffffffffffffffffffffffffffff1690602001909291905050506123bd565b005b348015610a0957600080fd5b50610a2860048036038101908080359060200190929190505050612424565b6040518082815260200191505060405180910390f35b348015610a4a57600080fd5b50610a6960048036038101908080359060200190929190505050612458565b604051808215151515815260200191505060405180910390f35b348015610a8f57600080fd5b50610aae60048036038101908080359060200190929190505050612485565b604051808215151515815260200191505060405180910390f35b60008060009054906101000a900473ffffffffffffffffffffffffffffffffffffffff1673ffffffffffffffffffffffffffffffffffffffff163373ffffffffffffffffffffffffffffffffffffffff16141515610b2557600080fd5b60206040519081016040528083815250600360008573ffffffffffffffffffffffffffffffffffffffff1673ffffffffffffffffffffffffffffffffffffffff168152602001908152602001600020600082015181600001559050506004600081548092919060010191905055508273ffffffffffffffffffffffffffffffffffffffff167f287ab65235aa9a0baeed5b973fda48c77ebdc6f3dd931cfda1c082c0aecc1e73836040518082815260200191505060405180910390a26001905092915050565b6000600254905090565b6000806000809054906101000a900473ffffffffffffffffffffffffffffffffffffffff1673ffffffffffffffffffffffffffffffffffffffff163373ffffffffffffffffffffffffffffffffffffffff16141515610c5357600080fd5b600090505b8351811015610ca757610c998482815181101515610c7257fe5b906020019060200201518483815181101515610c8a57fe5b90602001906020020151610ff8565b508080600101915050610c58565b600191505092915050565b600081610cbe81612367565b151515610d33576040517f08c379a00000000000000000000000000000000000000000000000000000000081526004018080602001828103825260038152602001807f453031000000000000000000000000000000000000000000000000000000000081525060200191505060405180910390fd5b6005600082815260200190815260200160002060040160019054906101000a900460ff16151515610dcc576040517f08c379a00000000000000000000000000000000000000000000000000000000081526004018080602001828103825260038152602001807f453032000000000000000000000000000000000000000000000000000000000081525060200191505060405180910390fd5b6005600082815260200190815260200160002060060160009054906101000a900460ff16151515610e65576040517f08c379a00000000000000000000000000000000000000000000000000000000081526004018080602001828103825260038152602001807f453033000000000000000000000000000000000000000000000000000000000081525060200191505060405180910390fd5b3373ffffffffffffffffffffffffffffffffffffffff166005600085815260200190815260200160002060040160029054906101000a900473ffffffffffffffffffffffffffffffffffffffff1673ffffffffffffffffffffffffffffffffffffffff161480610f0057503073ffffffffffffffffffffffffffffffffffffffff163373ffffffffffffffffffffffffffffffffffffffff16145b1515610f74576040517f08c379a00000000000000000000000000000000000000000000000000000000081526004018080602001828103825260038152602001807f453037000000000000000000000000000000000000000000000000000000000081525060200191505060405180910390fd5b60016005600085815260200190815260200160002060040160016101000a81548160ff0219169083151502179055507f956fb32199d8b882b2039a14e1be35ab14f7a80b9089fc223f14b43937173e60836040518082815260200191505060405180910390a16001915050919050565b6000600454905090565b6000600154905090565b60008060009054906101000a900473ffffffffffffffffffffffffffffffffffffffff1673ffffffffffffffffffffffffffffffffffffffff163373ffffffffffffffffffffffffffffffffffffffff1614151561105557600080fd5b81600360008573ffffffffffffffffffffffffffffffffffffffff1673ffffffffffffffffffffffffffffffffffffffff168152602001908152602001600020600001819055508273ffffffffffffffffffffffffffffffffffffffff167f48ac2a3af64ca340a363a997123357e082107e05b9636e980cbe045d81352fc6836040518082815260200191505060405180910390a26001905092915050565b60006005600083815260200190815260200160002060040160009054906101000a900460ff1615801561114857506005600083815260200190815260200160002060040160019054906101000a900460ff16155b801561117557506005600083815260200190815260200160002060060160009054906101000a900460ff16155b8015611187575061118582612367565b155b80156111ab5750600154600560008481526020019081526020016000206003015410155b9050919050565b6000610120604051908101604052808573ffffffffffffffffffffffffffffffffffffffff168152602001848152602001838152602001600081526020016000151581526020016000151581526020013373ffffffffffffffffffffffffffffffffffffffff1681526020014281526020016000151581525060056000600654815260200190815260200160002060008201518160000160006101000a81548173ffffffffffffffffffffffffffffffffffffffff021916908373ffffffffffffffffffffffffffffffffffffffff1602179055506020820151816001015560408201518160020190805190602001906112ad929190612a0f565b506060820151816003015560808201518160040160006101000a81548160ff02191690831515021790555060a08201518160040160016101000a81548160ff02191690831515021790555060c08201518160040160026101000a81548173ffffffffffffffffffffffffffffffffffffffff021916908373ffffffffffffffffffffffffffffffffffffffff16021790555060e082015181600501556101008201518160060160006101000a81548160ff0219169083151502179055509050506006600081548092919060010191905055507fbe5d398e1f60a26f14ee5d56c44adcb6e833f644dfbe3dd0927d59fadbf8b2336001600654036040518082815260200191505060405180910390a1600190509392505050565b6000809054906101000a900473ffffffffffffffffffffffffffffffffffffffff1673ffffffffffffffffffffffffffffffffffffffff163373ffffffffffffffffffffffffffffffffffffffff1614151561142157600080fd5b6000809054906101000a900473ffffffffffffffffffffffffffffffffffffffff1673ffffffffffffffffffffffffffffffffffffffff167ff8df31144d9c2f0f6b59d69b8b98abd5459d07f2742c4df920b25aae33c6482060405160405180910390a260008060006101000a81548173ffffffffffffffffffffffffffffffffffffffff021916908373ffffffffffffffffffffffffffffffffffffffff160217905550565b60006005600083815260200190815260200160002060060160009054906101000a900460ff169050919050565b6000600154600560008481526020019081526020016000206003015410159050919050565b60008261152681612367565b15151561159b576040517f08c379a00000000000000000000000000000000000000000000000000000000081526004018080602001828103825260038152602001807f453031000000000000000000000000000000000000000000000000000000000081525060200191505060405180910390fd5b6005600082815260200190815260200160002060040160019054906101000a900460ff16151515611634576040517f08c379a00000000000000000000000000000000000000000000000000000000081526004018080602001828103825260038152602001807f453032000000000000000000000000000000000000000000000000000000000081525060200191505060405180910390fd5b6005600082815260200190815260200160002060060160009054906101000a900460ff161515156116cd576040517f08c379a00000000000000000000000000000000000000000000000000000000081526004018080602001828103825260038152602001807f453033000000000000000000000000000000000000000000000000000000000081525060200191505060405180910390fd5b3373ffffffffffffffffffffffffffffffffffffffff166005600086815260200190815260200160002060040160029054906101000a900473ffffffffffffffffffffffffffffffffffffffff1673ffffffffffffffffffffffffffffffffffffffff161415156117a6576040517f08c379a00000000000000000000000000000000000000000000000000000000081526004018080602001828103825260038152602001807f453036000000000000000000000000000000000000000000000000000000000081525060200191505060405180910390fd5b8215156005600086815260200190815260200160002060040160009054906101000a900460ff16151514156117de576001915061188b565b826005600086815260200190815260200160002060040160006101000a81548160ff021916908315150217905550821561184e577f70fdc37312cccdca7197defdb32fc4d258bd47ff742f1ffc41819b7e0259c175846040518082815260200191505060405180910390a1611886565b7fb93d7d9b4f24e58ec11830debc7491343d539976ca95c822b22e90b4a4dd8423846040518082815260200191505060405180910390a15b600191505b5092915050565b6000809054906101000a900473ffffffffffffffffffffffffffffffffffffffff1681565b6000806000809054906101000a900473ffffffffffffffffffffffffffffffffffffffff1673ffffffffffffffffffffffffffffffffffffffff163373ffffffffffffffffffffffffffffffffffffffff1614151561191557600080fd5b600090505b83518110156119695761195b848281518110151561193457fe5b90602001906020020151848381518110151561194c57fe5b90602001906020020151610ac8565b50808060010191505061191a565b600191505092915050565b60006005600084815260200190815260200160002060070160008373ffffffffffffffffffffffffffffffffffffffff1673ffffffffffffffffffffffffffffffffffffffff16815260200190815260200160002060009054906101000a900460ff16905092915050565b600080826119ec81612367565b151515611a61576040517f08c379a00000000000000000000000000000000000000000000000000000000081526004018080602001828103825260038152602001807f453031000000000000000000000000000000000000000000000000000000000081525060200191505060405180910390fd5b6005600082815260200190815260200160002060040160019054906101000a900460ff16151515611afa576040517f08c379a00000000000000000000000000000000000000000000000000000000081526004018080602001828103825260038152602001807f453032000000000000000000000000000000000000000000000000000000000081525060200191505060405180910390fd5b6005600082815260200190815260200160002060060160009054906101000a900460ff16151515611b93576040517f08c379a00000000000000000000000000000000000000000000000000000000081526004018080602001828103825260038152602001807f453033000000000000000000000000000000000000000000000000000000000081525060200191505060405180910390fd5b60065484101515611c0c576040517f08c379a00000000000000000000000000000000000000000000000000000000081526004018080602001828103825260038152602001807f453039000000000000000000000000000000000000000000000000000000000081525060200191505060405180910390fd5b6005600085815260200190815260200160002091508160070160003373ffffffffffffffffffffffffffffffffffffffff1673ffffffffffffffffffffffffffffffffffffffff16815260200190815260200160002060009054906101000a900460ff161515611ce4576040517f08c379a00000000000000000000000000000000000000000000000000000000081526004018080602001828103825260038152602001807f453130000000000000000000000000000000000000000000000000000000000081525060200191505060405180910390fd5b611d3d600360003373ffffffffffffffffffffffffffffffffffffffff1673ffffffffffffffffffffffffffffffffffffffff1681526020019081526020016000206000015483600301546128e090919063ffffffff16565b826003018190555060008260070160003373ffffffffffffffffffffffffffffffffffffffff1673ffffffffffffffffffffffffffffffffffffffff16815260200190815260200160002060006101000a81548160ff0219169083151502179055506001548260030154108015611e0e5750600154611e0b600360003373ffffffffffffffffffffffffffffffffffffffff1673ffffffffffffffffffffffffffffffffffffffff1681526020019081526020016000206000015484600301546128f990919063ffffffff16565b10155b15611e4b577f7bb089bc5225944997a26324bf52623a51631b7c5171f0dfb1c49bb396f3081a846040518082815260200191505060405180910390a15b600192505050919050565b60008060009054906101000a900473ffffffffffffffffffffffffffffffffffffffff1673ffffffffffffffffffffffffffffffffffffffff163373ffffffffffffffffffffffffffffffffffffffff16141515611eb357600080fd5b82600181905550816002819055507fef1efc2eb4c3919acff49f1baa43e65b34b152dd75ac70025e825092d576ed68600154600254604051808381526020018281526020019250505060405180910390a16001905092915050565b60008082611f1b81612367565b151515611f90576040517f08c379a00000000000000000000000000000000000000000000000000000000081526004018080602001828103825260038152602001807f453031000000000000000000000000000000000000000000000000000000000081525060200191505060405180910390fd5b6005600082815260200190815260200160002060040160019054906101000a900460ff16151515612029576040517f08c379a00000000000000000000000000000000000000000000000000000000081526004018080602001828103825260038152602001807f453032000000000000000000000000000000000000000000000000000000000081525060200191505060405180910390fd5b6005600082815260200190815260200160002060060160009054906101000a900460ff161515156120c2576040517f08c379a00000000000000000000000000000000000000000000000000000000081526004018080602001828103825260038152602001807f453033000000000000000000000000000000000000000000000000000000000081525060200191505060405180910390fd5b6005600085815260200190815260200160002091508160070160003373ffffffffffffffffffffffffffffffffffffffff1673ffffffffffffffffffffffffffffffffffffffff16815260200190815260200160002060009054906101000a900460ff1615151561219b576040517f08c379a00000000000000000000000000000000000000000000000000000000081526004018080602001828103825260038152602001807f453038000000000000000000000000000000000000000000000000000000000081525060200191505060405180910390fd5b6121f4600360003373ffffffffffffffffffffffffffffffffffffffff1673ffffffffffffffffffffffffffffffffffffffff1681526020019081526020016000206000015483600301546128f990919063ffffffff16565b826003018190555060018260070160003373ffffffffffffffffffffffffffffffffffffffff1673ffffffffffffffffffffffffffffffffffffffff16815260200190815260200160002060006101000a81548160ff021916908315150217905550600154826003015410151561229d577fef524c298d730e7d5714dbe2fce9d4eca7de755a12628704719170afda39678b846040518082815260200191505060405180910390a15b600192505050919050565b60065481565b60006005600083815260200190815260200160002060040160019054906101000a900460ff169050919050565b6000600360008373ffffffffffffffffffffffffffffffffffffffff1673ffffffffffffffffffffffffffffffffffffffff168152602001908152602001600020600001549050919050565b60006005600083815260200190815260200160002060040160029054906101000a900473ffffffffffffffffffffffffffffffffffffffff169050919050565b60004261239560025460056000868152602001908152602001600020600501546128f990919063ffffffff16565b109050919050565b600060056000838152602001908152602001600020600501549050919050565b6000809054906101000a900473ffffffffffffffffffffffffffffffffffffffff1673ffffffffffffffffffffffffffffffffffffffff163373ffffffffffffffffffffffffffffffffffffffff1614151561241857600080fd5b61242181612915565b50565b600061245160025460056000858152602001908152602001600020600501546128f990919063ffffffff16565b9050919050565b60006005600083815260200190815260200160002060040160009054906101000a900460ff169050919050565b6000808261249281612367565b151515612507576040517f08c379a00000000000000000000000000000000000000000000000000000000081526004018080602001828103825260038152602001807f453031000000000000000000000000000000000000000000000000000000000081525060200191505060405180910390fd5b6005600082815260200190815260200160002060040160019054906101000a900460ff161515156125a0576040517f08c379a00000000000000000000000000000000000000000000000000000000081526004018080602001828103825260038152602001807f453032000000000000000000000000000000000000000000000000000000000081525060200191505060405180910390fd5b6005600082815260200190815260200160002060060160009054906101000a900460ff16151515612639576040517f08c379a00000000000000000000000000000000000000000000000000000000081526004018080602001828103825260038152602001807f453033000000000000000000000000000000000000000000000000000000000081525060200191505060405180910390fd5b6005600085815260200190815260200160002060040160009054906101000a900460ff161515156126d2576040517f08c379a00000000000000000000000000000000000000000000000000000000081526004018080602001828103825260038152602001807f453034000000000000000000000000000000000000000000000000000000000081525060200191505060405180910390fd5b600154600560008681526020019081526020016000206003015410151515612762576040517f08c379a00000000000000000000000000000000000000000000000000000000081526004018080602001828103825260038152602001807f453035000000000000000000000000000000000000000000000000000000000081525060200191505060405180910390fd5b60056000858152602001908152602001600020915060018260060160006101000a81548160ff0219169083151502179055508160000160009054906101000a900473ffffffffffffffffffffffffffffffffffffffff1673ffffffffffffffffffffffffffffffffffffffff16826001015483600201604051808280546001816001161561010002031660029004801561283d5780601f106128125761010080835404028352916020019161283d565b820191906000526020600020905b81548152906001019060200180831161282057829003601f168201915b505091505060006040518083038185875af1925050501561288a57837f33e13ecb54c3076d8e8bb8c2881800a4d972b792045ffae98fdf46df365fed7560405160405180910390a26128d5565b60008260060160006101000a81548160ff021916908315150217905550837f526441bb6c1aba3c9a4a6ca1d6545da9c2333c8c48343ef398eb858d72b7923660405160405180910390a25b600192505050919050565b60008282111515156128ee57fe5b818303905092915050565b6000818301905082811015151561290c57fe5b80905092915050565b600073ffffffffffffffffffffffffffffffffffffffff168173ffffffffffffffffffffffffffffffffffffffff161415151561295157600080fd5b8073ffffffffffffffffffffffffffffffffffffffff166000809054906101000a900473ffffffffffffffffffffffffffffffffffffffff1673ffffffffffffffffffffffffffffffffffffffff167f8be0079c531659141344cd1fd0a4f28419497f9722a3daafe3b4186f6b6457e060405160405180910390a3806000806101000a81548173ffffffffffffffffffffffffffffffffffffffff021916908373ffffffffffffffffffffffffffffffffffffffff16021790555050565b828054600181600116156101000203166002900490600052602060002090601f016020900481019282601f10612a5057805160ff1916838001178555612a7e565b82800160010185558215612a7e579182015b82811115612a7d578251825591602001919060010190612a62565b5b509050612a8b9190612a8f565b5090565b612ab191905b80821115612aad576000816000905550600101612a95565b5090565b905600a165627a7a72305820f913e9aacd373f5db15ab9afe27dcc7ba665126f11cec405c27f6da893f5661e0029",
  "source": "pragma solidity ^0.4.24;\n\nimport \"../zeppelin/ownership/Ownable.sol\";\nimport \"../zeppelin/math/SafeMath.sol\";\nimport \"../interface/IMultiSig.sol\";\n\n\n/**\n * @title MultiSig\n * @dev MultiSig contract\n * @author Cyril Lapinte - <cyril.lapinte@mtpelerin.com>\n *\n * Error messages\n * E01: Transaction is expired\n * E02: Transaction is cancelled\n * E03: Transaction is executed\n * E04: Transaction is locked\n * E05: Transaction is not confirmed\n * E06: Only creator can lock a transaction\n * E07: Only creator or owner can cancel a transaction\n * E08: Transaction is already confirmed\n * E09: Invalid transaction id\n * E10: Transaction is already unapproved\n */\ncontract MultiSig is IMultiSig, Ownable {\n  using SafeMath for uint256;\n\n  uint256 public threshold;\n  uint256 public duration;\n\n  struct Participant {\n    uint256 weight;\n  }\n  mapping(address => Participant) internal participants;\n  uint256 public participantCount;\n\n  struct Transaction {\n    address destination;\n    uint256 value;\n    bytes data;\n    uint256 confirmed;\n    bool locked;\n    bool cancelled;\n    address creator;\n    uint256 createdAt;\n    bool executed;\n    mapping(address => bool) confirmations;\n  }\n  mapping(uint256 => Transaction) internal transactions;\n  uint256 public transactionCount;\n\n  /**\n   * @dev Modifier for active transaction\n   */\n  modifier whenActive(uint256 _transactionId) {\n    require(!isExpired(_transactionId), \"E01\");\n    require(!transactions[_transactionId].cancelled, \"E02\");\n    require(!transactions[_transactionId].executed, \"E03\");\n    _;\n  }\n\n  /**\n   * @dev contructor\n   **/\n  constructor(\n    uint256 _threshold,\n    uint256 _duration,\n    address[] _participants,\n    uint256[] _weights\n  ) public\n  {\n    threshold = _threshold;\n    duration = _duration;\n\n    addManyParticipants(_participants, _weights);\n    owner = address(this);\n  }\n\n  function () external payable {}\n\n  function threshold() public view returns (uint256) {\n    return threshold;\n  }\n\n  function duration() public view returns (uint256) {\n    return duration;\n  }\n\n  function participantCount() public view returns (uint256) {\n    return participantCount;\n  }\n\n  function participantWeight(address _address) public view returns (uint256) {\n    return participants[_address].weight;\n  }\n\n  function isConfirmed(uint256 _transactionId) public view returns (bool) {\n    return transactions[_transactionId].confirmed >= threshold;\n  }\n\n  function hasParticipated(uint256 _transactionId, address _participationId)\n    public view returns (bool)\n  {\n    return transactions[_transactionId].confirmations[_participationId];\n  }\n\n  function isLocked(uint256 _transactionId) public view returns (bool) {\n    return transactions[_transactionId].locked;\n  }\n\n  function isExpired(uint256 _transactionId) public view returns (bool) {\n    // solium-disable-next-line security/no-block-members\n    return transactions[_transactionId].createdAt.add(duration) < now;\n  }\n\n  function toBeExpiredAt(uint256 _transactionId)\n    public view returns (uint256)\n  {\n    return transactions[_transactionId].createdAt.add(duration);\n  }\n\n  function isCancelled(uint256 _transactionId) public view returns (bool) {\n    return transactions[_transactionId].cancelled;\n  }\n\n  function transactionCreator(uint256 _transactionId)\n    public view returns (address)\n  {\n    return transactions[_transactionId].creator;\n  }\n\n  function transactionCreatedAt(uint256 _transactionId)\n    public view returns (uint256)\n  {\n    return transactions[_transactionId].createdAt;\n  }\n\n  function isExecutable(uint256 _transactionId) public view returns (bool) {\n    return !transactions[_transactionId].locked && (\n      !transactions[_transactionId].cancelled) && ( \n      !transactions[_transactionId].executed) && (\n      !isExpired(_transactionId)) && (\n      transactions[_transactionId].confirmed >= threshold);\n  }\n\n  function isExecuted(uint256 _transactionId) public view returns (bool) {\n    return transactions[_transactionId].executed;\n  }\n\n  function execute(uint256 _transactionId)\n    public whenActive(_transactionId) returns (bool)\n  {\n    require(!transactions[_transactionId].locked, \"E04\");\n    require(\n      transactions[_transactionId].confirmed >= threshold,\n      \"E05\");\n\n    Transaction storage transaction = transactions[_transactionId];\n    transaction.executed = true;\n    if (\n      // solium-disable-next-line security/no-call-value\n      transaction.destination.call.value(transaction.value)(transaction.data))\n    {\n      emit Execution(_transactionId);\n    } else {\n      transaction.executed = false;\n      emit ExecutionFailure(_transactionId);\n    }\n    return true;\n  }\n\n  function suggest(address _destination, uint256 _value, bytes _data)\n    public returns (bool)\n  {\n    transactions[transactionCount] = Transaction(\n      _destination,\n      _value,\n      _data,\n      0,\n      false,\n      false,\n      msg.sender,\n      // solium-disable-next-line security/no-block-members\n      now,\n      false\n    );\n    transactionCount++;\n    emit TransactionAdded(transactionCount-1);\n    return true;\n  }\n\n  function lockTransaction(uint256 _transactionId, bool _locked)\n    public whenActive(_transactionId) returns (bool)\n  {\n    require(\n      transactions[_transactionId].creator == msg.sender,\n      \"E06\");\n\n    if (transactions[_transactionId].locked == _locked) {\n      return true;\n    }\n\n    transactions[_transactionId].locked = _locked;\n    if (_locked) {\n      emit TransactionLocked(_transactionId);\n    } else {\n      emit TransactionUnlocked(_transactionId);\n    }\n    return true;\n  }\n\n  function cancelTransaction(uint256 _transactionId)\n    public whenActive(_transactionId) returns (bool)\n  {\n    require(\n      transactions[_transactionId].creator == msg.sender ||\n      msg.sender == address(this),\n      \"E07\"\n    );\n\n    transactions[_transactionId].cancelled = true;\n    emit TransactionCancelled(_transactionId);\n    return true;\n  }\n\n  function approve(uint256 _transactionId)\n    public whenActive(_transactionId) returns (bool)\n  {\n    Transaction storage transaction = transactions[_transactionId];\n    require(!transaction.confirmations[msg.sender], \"E08\");\n\n    transaction.confirmed = transaction.confirmed.add(\n      participants[msg.sender].weight);\n    transaction.confirmations[msg.sender] = true;\n\n    if (transaction.confirmed >= threshold) {\n      emit TransactionConfirmed(_transactionId);\n    }\n    return true;\n  }\n\n  function revokeApproval(uint256 _transactionId)\n    public whenActive(_transactionId) returns (bool)\n  {\n    require(_transactionId < transactionCount, \"E09\");\n    Transaction storage transaction = transactions[_transactionId];\n    require(transaction.confirmations[msg.sender], \"E10\");\n\n    transaction.confirmed = transaction.confirmed.sub(\n      participants[msg.sender].weight);\n    transaction.confirmations[msg.sender] = false;\n\n    if (transaction.confirmed < threshold &&\n        transaction.confirmed.add(\n          participants[msg.sender].weight) >= threshold)\n    {\n      emit TransactionUnconfirmed(_transactionId);\n    }\n    return true;\n  }\n\n  function addParticipant(address _participant, uint256 _weight)\n    public onlyOwner returns (bool)\n  {\n    participants[_participant] = Participant(_weight);\n    participantCount++;\n\n    emit ParticipantAdded(_participant, _weight);\n    return true;\n  }\n\n  function addManyParticipants(address[] _participants, uint256[] _weights)\n    public onlyOwner returns (bool)\n  {\n    for (uint256 i = 0; i < _participants.length; i++) {\n      addParticipant(_participants[i], _weights[i]);\n    }\n    return true;\n  }\n\n  function updateParticipant(address _participant, uint256 _weight)\n    public onlyOwner returns (bool)\n  {\n    participants[_participant].weight = _weight;\n    emit ParticipantUpdated(_participant, _weight);\n    return true;\n  }\n\n  function updateManyParticipants(address[] _participants, uint256[] _weights)\n    public onlyOwner returns (bool)\n  {\n    for (uint256 i = 0; i < _participants.length; i++) {\n      updateParticipant(_participants[i], _weights[i]);\n    }\n    return true;\n  }\n\n  function updateConfiguration(uint256 _newThreshold, uint256 _newDuration)\n    public onlyOwner returns (bool)\n  {\n    threshold = _newThreshold;\n    duration = _newDuration;\n\n    emit ConfigurationUpdated(threshold, duration);\n    return true;\n  }\n\n  event TransactionAdded(uint256 transactionId);\n  event TransactionCancelled(uint256 transactionId);\n  event TransactionLocked(uint256 transactionId);\n  event TransactionUnlocked(uint256 transactionId);\n  event TransactionConfirmed(uint256 transactionId);\n  event TransactionUnconfirmed(uint256 transactionId);\n\n  event Execution(uint256 indexed transactionId);\n  event ExecutionFailure(uint256 indexed transactionId);\n  event ParticipantAdded(address indexed participant, uint256 weight);\n  event ParticipantUpdated(address indexed participant, uint256 weight);\n  event ConfigurationUpdated(uint256 threshold, uint256 duration);\n}\n",
  "sourcePath": "/home/node/project/contracts/multisig/MultiSig.sol",
  "compiler": {
    "name": "solc",
    "version": "0.4.24+commit.e67f0147.Emscripten.clang"
  },
  "schemaVersion": "2.0.1",
  "updatedAt": "2018-08-15T14:19:55.940Z"
}