{
  "contractName": "MultiSigWithRBAC",
  "abi": [
    {
      "constant": true,
      "inputs": [],
      "name": "duration",
      "outputs": [
        {
          "name": "",
          "type": "uint256"
        }
      ],
      "payable": false,
      "stateMutability": "view",
      "type": "function"
    },
    {
      "constant": false,
      "inputs": [
        {
          "name": "_participants",
          "type": "address[]"
        },
        {
          "name": "_weights",
          "type": "uint256[]"
        }
      ],
      "name": "updateManyParticipants",
      "outputs": [
        {
          "name": "",
          "type": "bool"
        }
      ],
      "payable": false,
      "stateMutability": "nonpayable",
      "type": "function"
    },
    {
      "constant": false,
      "inputs": [
        {
          "name": "_transactionId",
          "type": "uint256"
        }
      ],
      "name": "cancelTransaction",
      "outputs": [
        {
          "name": "",
          "type": "bool"
        }
      ],
      "payable": false,
      "stateMutability": "nonpayable",
      "type": "function"
    },
    {
      "constant": true,
      "inputs": [],
      "name": "participantCount",
      "outputs": [
        {
          "name": "",
          "type": "uint256"
        }
      ],
      "payable": false,
      "stateMutability": "view",
      "type": "function"
    },
    {
      "constant": true,
      "inputs": [],
      "name": "threshold",
      "outputs": [
        {
          "name": "",
          "type": "uint256"
        }
      ],
      "payable": false,
      "stateMutability": "view",
      "type": "function"
    },
    {
      "constant": false,
      "inputs": [
        {
          "name": "_participant",
          "type": "address"
        },
        {
          "name": "_weight",
          "type": "uint256"
        }
      ],
      "name": "updateParticipant",
      "outputs": [
        {
          "name": "",
          "type": "bool"
        }
      ],
      "payable": false,
      "stateMutability": "nonpayable",
      "type": "function"
    },
    {
      "constant": true,
      "inputs": [
        {
          "name": "_transactionId",
          "type": "uint256"
        }
      ],
      "name": "isExecutable",
      "outputs": [
        {
          "name": "",
          "type": "bool"
        }
      ],
      "payable": false,
      "stateMutability": "view",
      "type": "function"
    },
    {
      "constant": false,
      "inputs": [],
      "name": "renounceOwnership",
      "outputs": [],
      "payable": false,
      "stateMutability": "nonpayable",
      "type": "function"
    },
    {
      "constant": true,
      "inputs": [
        {
          "name": "_transactionId",
          "type": "uint256"
        }
      ],
      "name": "isExecuted",
      "outputs": [
        {
          "name": "",
          "type": "bool"
        }
      ],
      "payable": false,
      "stateMutability": "view",
      "type": "function"
    },
    {
      "constant": true,
      "inputs": [
        {
          "name": "_transactionId",
          "type": "uint256"
        }
      ],
      "name": "isConfirmed",
      "outputs": [
        {
          "name": "",
          "type": "bool"
        }
      ],
      "payable": false,
      "stateMutability": "view",
      "type": "function"
    },
    {
      "constant": false,
      "inputs": [
        {
          "name": "_transactionId",
          "type": "uint256"
        },
        {
          "name": "_locked",
          "type": "bool"
        }
      ],
      "name": "lockTransaction",
      "outputs": [
        {
          "name": "",
          "type": "bool"
        }
      ],
      "payable": false,
      "stateMutability": "nonpayable",
      "type": "function"
    },
    {
      "constant": true,
      "inputs": [],
      "name": "owner",
      "outputs": [
        {
          "name": "",
          "type": "address"
        }
      ],
      "payable": false,
      "stateMutability": "view",
      "type": "function"
    },
    {
      "constant": true,
      "inputs": [
        {
          "name": "_transactionId",
          "type": "uint256"
        },
        {
          "name": "_participationId",
          "type": "address"
        }
      ],
      "name": "hasParticipated",
      "outputs": [
        {
          "name": "",
          "type": "bool"
        }
      ],
      "payable": false,
      "stateMutability": "view",
      "type": "function"
    },
    {
      "constant": false,
      "inputs": [
        {
          "name": "_newThreshold",
          "type": "uint256"
        },
        {
          "name": "_newDuration",
          "type": "uint256"
        }
      ],
      "name": "updateConfiguration",
      "outputs": [
        {
          "name": "",
          "type": "bool"
        }
      ],
      "payable": false,
      "stateMutability": "nonpayable",
      "type": "function"
    },
    {
      "constant": true,
      "inputs": [],
      "name": "transactionCount",
      "outputs": [
        {
          "name": "",
          "type": "uint256"
        }
      ],
      "payable": false,
      "stateMutability": "view",
      "type": "function"
    },
    {
      "constant": true,
      "inputs": [
        {
          "name": "_transactionId",
          "type": "uint256"
        }
      ],
      "name": "isCancelled",
      "outputs": [
        {
          "name": "",
          "type": "bool"
        }
      ],
      "payable": false,
      "stateMutability": "view",
      "type": "function"
    },
    {
      "constant": true,
      "inputs": [
        {
          "name": "_address",
          "type": "address"
        }
      ],
      "name": "participantWeight",
      "outputs": [
        {
          "name": "",
          "type": "uint256"
        }
      ],
      "payable": false,
      "stateMutability": "view",
      "type": "function"
    },
    {
      "constant": true,
      "inputs": [
        {
          "name": "_transactionId",
          "type": "uint256"
        }
      ],
      "name": "transactionCreator",
      "outputs": [
        {
          "name": "",
          "type": "address"
        }
      ],
      "payable": false,
      "stateMutability": "view",
      "type": "function"
    },
    {
      "constant": true,
      "inputs": [
        {
          "name": "_transactionId",
          "type": "uint256"
        }
      ],
      "name": "isExpired",
      "outputs": [
        {
          "name": "",
          "type": "bool"
        }
      ],
      "payable": false,
      "stateMutability": "view",
      "type": "function"
    },
    {
      "constant": true,
      "inputs": [
        {
          "name": "_transactionId",
          "type": "uint256"
        }
      ],
      "name": "transactionCreatedAt",
      "outputs": [
        {
          "name": "",
          "type": "uint256"
        }
      ],
      "payable": false,
      "stateMutability": "view",
      "type": "function"
    },
    {
      "constant": false,
      "inputs": [
        {
          "name": "_newOwner",
          "type": "address"
        }
      ],
      "name": "transferOwnership",
      "outputs": [],
      "payable": false,
      "stateMutability": "nonpayable",
      "type": "function"
    },
    {
      "constant": true,
      "inputs": [
        {
          "name": "_transactionId",
          "type": "uint256"
        }
      ],
      "name": "toBeExpiredAt",
      "outputs": [
        {
          "name": "",
          "type": "uint256"
        }
      ],
      "payable": false,
      "stateMutability": "view",
      "type": "function"
    },
    {
      "constant": true,
      "inputs": [
        {
          "name": "_transactionId",
          "type": "uint256"
        }
      ],
      "name": "isLocked",
      "outputs": [
        {
          "name": "",
          "type": "bool"
        }
      ],
      "payable": false,
      "stateMutability": "view",
      "type": "function"
    },
    {
      "inputs": [
        {
          "name": "_threshold",
          "type": "uint256"
        },
        {
          "name": "_duration",
          "type": "uint256"
        },
        {
          "name": "_participants",
          "type": "address[]"
        },
        {
          "name": "_weights",
          "type": "uint256[]"
        },
        {
          "name": "_suggesters",
          "type": "bool[]"
        },
        {
          "name": "_approvers",
          "type": "bool[]"
        },
        {
          "name": "_executers",
          "type": "bool[]"
        }
      ],
      "payable": false,
      "stateMutability": "nonpayable",
      "type": "constructor"
    },
    {
      "payable": true,
      "stateMutability": "payable",
      "type": "fallback"
    },
    {
      "anonymous": false,
      "inputs": [
        {
          "indexed": true,
          "name": "participant",
          "type": "address"
        },
        {
          "indexed": false,
          "name": "_suggester",
          "type": "bool"
        },
        {
          "indexed": false,
          "name": "_approver",
          "type": "bool"
        },
        {
          "indexed": false,
          "name": "_executer",
          "type": "bool"
        }
      ],
      "name": "ParticipantRolesUpdated",
      "type": "event"
    },
    {
      "anonymous": false,
      "inputs": [
        {
          "indexed": false,
          "name": "transactionId",
          "type": "uint256"
        }
      ],
      "name": "TransactionAdded",
      "type": "event"
    },
    {
      "anonymous": false,
      "inputs": [
        {
          "indexed": false,
          "name": "transactionId",
          "type": "uint256"
        }
      ],
      "name": "TransactionCancelled",
      "type": "event"
    },
    {
      "anonymous": false,
      "inputs": [
        {
          "indexed": false,
          "name": "transactionId",
          "type": "uint256"
        }
      ],
      "name": "TransactionLocked",
      "type": "event"
    },
    {
      "anonymous": false,
      "inputs": [
        {
          "indexed": false,
          "name": "transactionId",
          "type": "uint256"
        }
      ],
      "name": "TransactionUnlocked",
      "type": "event"
    },
    {
      "anonymous": false,
      "inputs": [
        {
          "indexed": false,
          "name": "transactionId",
          "type": "uint256"
        }
      ],
      "name": "TransactionConfirmed",
      "type": "event"
    },
    {
      "anonymous": false,
      "inputs": [
        {
          "indexed": false,
          "name": "transactionId",
          "type": "uint256"
        }
      ],
      "name": "TransactionUnconfirmed",
      "type": "event"
    },
    {
      "anonymous": false,
      "inputs": [
        {
          "indexed": true,
          "name": "transactionId",
          "type": "uint256"
        }
      ],
      "name": "Execution",
      "type": "event"
    },
    {
      "anonymous": false,
      "inputs": [
        {
          "indexed": true,
          "name": "transactionId",
          "type": "uint256"
        }
      ],
      "name": "ExecutionFailure",
      "type": "event"
    },
    {
      "anonymous": false,
      "inputs": [
        {
          "indexed": true,
          "name": "participant",
          "type": "address"
        },
        {
          "indexed": false,
          "name": "weight",
          "type": "uint256"
        }
      ],
      "name": "ParticipantAdded",
      "type": "event"
    },
    {
      "anonymous": false,
      "inputs": [
        {
          "indexed": true,
          "name": "participant",
          "type": "address"
        },
        {
          "indexed": false,
          "name": "weight",
          "type": "uint256"
        }
      ],
      "name": "ParticipantUpdated",
      "type": "event"
    },
    {
      "anonymous": false,
      "inputs": [
        {
          "indexed": false,
          "name": "threshold",
          "type": "uint256"
        },
        {
          "indexed": false,
          "name": "duration",
          "type": "uint256"
        }
      ],
      "name": "ConfigurationUpdated",
      "type": "event"
    },
    {
      "anonymous": false,
      "inputs": [
        {
          "indexed": true,
          "name": "previousOwner",
          "type": "address"
        }
      ],
      "name": "OwnershipRenounced",
      "type": "event"
    },
    {
      "anonymous": false,
      "inputs": [
        {
          "indexed": true,
          "name": "previousOwner",
          "type": "address"
        },
        {
          "indexed": true,
          "name": "newOwner",
          "type": "address"
        }
      ],
      "name": "OwnershipTransferred",
      "type": "event"
    },
    {
      "constant": true,
      "inputs": [
        {
          "name": "_address",
          "type": "address"
        }
      ],
      "name": "isParticipantSuggester",
      "outputs": [
        {
          "name": "",
          "type": "bool"
        }
      ],
      "payable": false,
      "stateMutability": "view",
      "type": "function"
    },
    {
      "constant": true,
      "inputs": [
        {
          "name": "_address",
          "type": "address"
        }
      ],
      "name": "isParticipantApprover",
      "outputs": [
        {
          "name": "",
          "type": "bool"
        }
      ],
      "payable": false,
      "stateMutability": "view",
      "type": "function"
    },
    {
      "constant": true,
      "inputs": [
        {
          "name": "_address",
          "type": "address"
        }
      ],
      "name": "isParticipantExecuter",
      "outputs": [
        {
          "name": "",
          "type": "bool"
        }
      ],
      "payable": false,
      "stateMutability": "view",
      "type": "function"
    },
    {
      "constant": false,
      "inputs": [
        {
          "name": "_transactionId",
          "type": "uint256"
        }
      ],
      "name": "execute",
      "outputs": [
        {
          "name": "",
          "type": "bool"
        }
      ],
      "payable": false,
      "stateMutability": "nonpayable",
      "type": "function"
    },
    {
      "constant": false,
      "inputs": [
        {
          "name": "_destination",
          "type": "address"
        },
        {
          "name": "_value",
          "type": "uint256"
        },
        {
          "name": "_data",
          "type": "bytes"
        }
      ],
      "name": "suggest",
      "outputs": [
        {
          "name": "",
          "type": "bool"
        }
      ],
      "payable": false,
      "stateMutability": "nonpayable",
      "type": "function"
    },
    {
      "constant": false,
      "inputs": [
        {
          "name": "_transactionId",
          "type": "uint256"
        }
      ],
      "name": "approve",
      "outputs": [
        {
          "name": "",
          "type": "bool"
        }
      ],
      "payable": false,
      "stateMutability": "nonpayable",
      "type": "function"
    },
    {
      "constant": false,
      "inputs": [
        {
          "name": "_transactionId",
          "type": "uint256"
        }
      ],
      "name": "revokeApproval",
      "outputs": [
        {
          "name": "",
          "type": "bool"
        }
      ],
      "payable": false,
      "stateMutability": "nonpayable",
      "type": "function"
    },
    {
      "constant": false,
      "inputs": [
        {
          "name": "_participant",
          "type": "address"
        },
        {
          "name": "_weight",
          "type": "uint256"
        }
      ],
      "name": "addParticipant",
      "outputs": [
        {
          "name": "",
          "type": "bool"
        }
      ],
      "payable": false,
      "stateMutability": "nonpayable",
      "type": "function"
    },
    {
      "constant": false,
      "inputs": [
        {
          "name": "_participants",
          "type": "address[]"
        },
        {
          "name": "_weights",
          "type": "uint256[]"
        }
      ],
      "name": "addManyParticipants",
      "outputs": [
        {
          "name": "",
          "type": "bool"
        }
      ],
      "payable": false,
      "stateMutability": "nonpayable",
      "type": "function"
    },
    {
      "constant": false,
      "inputs": [
        {
          "name": "_participant",
          "type": "address"
        },
        {
          "name": "_weight",
          "type": "uint256"
        },
        {
          "name": "_suggester",
          "type": "bool"
        },
        {
          "name": "_approver",
          "type": "bool"
        },
        {
          "name": "_executer",
          "type": "bool"
        }
      ],
      "name": "addParticipantWithRBAC",
      "outputs": [
        {
          "name": "",
          "type": "bool"
        }
      ],
      "payable": false,
      "stateMutability": "nonpayable",
      "type": "function"
    },
    {
      "constant": false,
      "inputs": [
        {
          "name": "_participants",
          "type": "address[]"
        },
        {
          "name": "_weights",
          "type": "uint256[]"
        },
        {
          "name": "_suggesters",
          "type": "bool[]"
        },
        {
          "name": "_approvers",
          "type": "bool[]"
        },
        {
          "name": "_executers",
          "type": "bool[]"
        }
      ],
      "name": "addManyParticipantsWithRBAC",
      "outputs": [
        {
          "name": "",
          "type": "bool"
        }
      ],
      "payable": false,
      "stateMutability": "nonpayable",
      "type": "function"
    },
    {
      "constant": false,
      "inputs": [
        {
          "name": "_participant",
          "type": "address"
        },
        {
          "name": "_suggester",
          "type": "bool"
        },
        {
          "name": "_approver",
          "type": "bool"
        },
        {
          "name": "_executer",
          "type": "bool"
        }
      ],
      "name": "updateParticipantRBAC",
      "outputs": [
        {
          "name": "",
          "type": "bool"
        }
      ],
      "payable": false,
      "stateMutability": "nonpayable",
      "type": "function"
    },
    {
      "constant": false,
      "inputs": [
        {
          "name": "_participants",
          "type": "address[]"
        },
        {
          "name": "_suggesters",
          "type": "bool[]"
        },
        {
          "name": "_approvers",
          "type": "bool[]"
        },
        {
          "name": "_executers",
          "type": "bool[]"
        }
      ],
      "name": "updateManyParticipantsRBAC",
      "outputs": [
        {
          "name": "",
          "type": "bool"
        }
      ],
      "payable": false,
      "stateMutability": "nonpayable",
      "type": "function"
    }
  ],
  "bytecode": "0x60806040523480156200001157600080fd5b5060405162004045380380620040458339810180604052810190808051906020019092919080519060200190929190805182019291906020018051820192919060200180518201929190602001805182019291906020018051820192919050505086868686336000806101000a81548173ffffffffffffffffffffffffffffffffffffffff021916908373ffffffffffffffffffffffffffffffffffffffff1602179055508360018190555082600281905550620000df82826200014f640100000000026401000000009004565b50306000806101000a81548173ffffffffffffffffffffffffffffffffffffffff021916908373ffffffffffffffffffffffffffffffffffffffff16021790555050505050620001418584848462000227640100000000026401000000009004565b5050505050505050620006c7565b6000806000809054906101000a900473ffffffffffffffffffffffffffffffffffffffff1673ffffffffffffffffffffffffffffffffffffffff163373ffffffffffffffffffffffffffffffffffffffff16141515620001ae57600080fd5b600090505b83518110156200021c576200020d8482815181101515620001d057fe5b906020019060200201518483815181101515620001e957fe5b9060200190602002015160008060006200032e640100000000026401000000009004565b508080600101915050620001b3565b600191505092915050565b6000806000809054906101000a900473ffffffffffffffffffffffffffffffffffffffff1673ffffffffffffffffffffffffffffffffffffffff163373ffffffffffffffffffffffffffffffffffffffff161415156200028657600080fd5b600090505b85518110156200032157620003128682815181101515620002a857fe5b906020019060200201518683815181101515620002c157fe5b906020019060200201518684815181101515620002da57fe5b906020019060200201518685815181101515620002f357fe5b90602001906020020151620003d8640100000000026401000000009004565b5080806001019150506200028b565b6001915050949350505050565b60008060009054906101000a900473ffffffffffffffffffffffffffffffffffffffff1673ffffffffffffffffffffffffffffffffffffffff163373ffffffffffffffffffffffffffffffffffffffff161415156200038c57600080fd5b620003ac8686620005a364010000000002620029df176401000000009004565b50620003ca86858585620003d8640100000000026401000000009004565b506001905095945050505050565b6000806000809054906101000a900473ffffffffffffffffffffffffffffffffffffffff1673ffffffffffffffffffffffffffffffffffffffff163373ffffffffffffffffffffffffffffffffffffffff161415156200043757600080fd5b600760008773ffffffffffffffffffffffffffffffffffffffff1673ffffffffffffffffffffffffffffffffffffffff16815260200190815260200160002090508415158160000160009054906101000a900460ff161515141515620004b457848160000160006101000a81548160ff0219169083151502179055505b8315158160000160019054906101000a900460ff161515141515620004f057838160000160016101000a81548160ff0219169083151502179055505b8215158160000160029054906101000a900460ff1615151415156200052c57828160000160026101000a81548160ff0219169083151502179055505b8573ffffffffffffffffffffffffffffffffffffffff167fb53551be1e3243fb12d8da7dd09cce514ef048ad93f83eb3994432b10606c1a586868660405180841515151581526020018315151515815260200182151515158152602001935050505060405180910390a26001915050949350505050565b60008060009054906101000a900473ffffffffffffffffffffffffffffffffffffffff1673ffffffffffffffffffffffffffffffffffffffff163373ffffffffffffffffffffffffffffffffffffffff161415156200060157600080fd5b60206040519081016040528083815250600360008573ffffffffffffffffffffffffffffffffffffffff1673ffffffffffffffffffffffffffffffffffffffff168152602001908152602001600020600082015181600001559050506004600081548092919060010191905055508273ffffffffffffffffffffffffffffffffffffffff167f287ab65235aa9a0baeed5b973fda48c77ebdc6f3dd931cfda1c082c0aecc1e73836040518082815260200191505060405180910390a26001905092915050565b61396e80620006d76000396000f3006080604052600436106101c2576000357c0100000000000000000000000000000000000000000000000000000000900463ffffffff16806301e7fefe146101c45780630a8ae146146102295780630fb5a6b414610370578063220812031461039b5780632f4e73621461045c5780633380c0d8146104b7578063362f04c0146104fc57806339a60630146105275780633b409c071461058257806342cde4e81461070c57806349847c7a146107375780634e395e2a1461079c578063579b538a146107e15780635ecd0ba41461088c578063715018a61461091557806376a6bf521461092c578063784547a7146109715780637fc0031f146109b65780638da5cb5b14610a0757806393ee87ba14610a5e5780639f0d483314610add5780639f8b7e9814610b9e578063a34398a214610bf9578063b1e130fc14610c5e578063b3e3813f14610ca3578063b759f95414610cf2578063b77bf60014610d37578063cdf92c2714610d62578063d42a03ae14610da7578063d4e7242f14610dfe578063d9548e5314610e6b578063f0687c7f14610eb0578063f2fde38b14610ef1578063f683c88314610f34578063f6aacfb114610f75578063fe0d94c114610fba575b005b3480156101d057600080fd5b5061020f600480360381019080803573ffffffffffffffffffffffffffffffffffffffff16906020019092919080359060200190929190505050610fff565b604051808215151515815260200191505060405180910390f35b34801561023557600080fd5b5061035660048036038101908080359060200190820180359060200190808060200260200160405190810160405280939291908181526020018383602002808284378201915050505050509192919290803590602001908201803590602001908080602002602001604051908101604052809392919081815260200183836020028082843782019150505050505091929192908035906020019082018035906020019080806020026020016040519081016040528093929190818152602001838360200280828437820191505050505050919291929080359060200190820180359060200190808060200260200160405190810160405280939291908181526020018383602002808284378201915050505050509192919290505050611073565b604051808215151515815260200191505060405180910390f35b34801561037c57600080fd5b50610385611162565b6040518082815260200191505060405180910390f35b3480156103a757600080fd5b50610442600480360381019080803590602001908201803590602001908080602002602001604051908101604052809392919081815260200183836020028082843782019150505050505091929192908035906020019082018035906020019080806020026020016040519081016040528093929190818152602001838360200280828437820191505050505050919291929050505061116c565b604051808215151515815260200191505060405180910390f35b34801561046857600080fd5b5061049d600480360381019080803573ffffffffffffffffffffffffffffffffffffffff169060200190929190505050611229565b604051808215151515815260200191505060405180910390f35b3480156104c357600080fd5b506104e260048036038101908080359060200190929190505050611282565b604051808215151515815260200191505060405180910390f35b34801561050857600080fd5b506105116115b4565b6040518082815260200191505060405180910390f35b34801561053357600080fd5b50610568600480360381019080803573ffffffffffffffffffffffffffffffffffffffff1690602001909291905050506115be565b604051808215151515815260200191505060405180910390f35b34801561058e57600080fd5b506106f26004803603810190808035906020019082018035906020019080806020026020016040519081016040528093929190818152602001838360200280828437820191505050505050919291929080359060200190820180359060200190808060200260200160405190810160405280939291908181526020018383602002808284378201915050505050509192919290803590602001908201803590602001908080602002602001604051908101604052809392919081815260200183836020028082843782019150505050505091929192908035906020019082018035906020019080806020026020016040519081016040528093929190818152602001838360200280828437820191505050505050919291929080359060200190820180359060200190808060200260200160405190810160405280939291908181526020018383602002808284378201915050505050509192919290505050611617565b604051808215151515815260200191505060405180910390f35b34801561071857600080fd5b50610721611699565b6040518082815260200191505060405180910390f35b34801561074357600080fd5b50610782600480360381019080803573ffffffffffffffffffffffffffffffffffffffff169060200190929190803590602001909291905050506116a3565b604051808215151515815260200191505060405180910390f35b3480156107a857600080fd5b506107c76004803603810190808035906020019092919050505061179f565b604051808215151515815260200191505060405180910390f35b3480156107ed57600080fd5b50610872600480360381019080803573ffffffffffffffffffffffffffffffffffffffff16906020019092919080359060200190929190803590602001908201803590602001908080601f016020809104026020016040519081016040528093929190818152602001838380828437820191505050505050919291929050505061185d565b604051808215151515815260200191505060405180910390f35b34801561089857600080fd5b506108fb600480360381019080803573ffffffffffffffffffffffffffffffffffffffff16906020019092919080359060200190929190803515159060200190929190803515159060200190929190803515159060200190929190505050611937565b604051808215151515815260200191505060405180910390f35b34801561092157600080fd5b5061092a6119b9565b005b34801561093857600080fd5b5061095760048036038101908080359060200190929190505050611abb565b604051808215151515815260200191505060405180910390f35b34801561097d57600080fd5b5061099c60048036038101908080359060200190929190505050611ae8565b604051808215151515815260200191505060405180910390f35b3480156109c257600080fd5b506109ed60048036038101908080359060200190929190803515159060200190929190505050611b0d565b604051808215151515815260200191505060405180910390f35b348015610a1357600080fd5b50610a1c611e85565b604051808273ffffffffffffffffffffffffffffffffffffffff1673ffffffffffffffffffffffffffffffffffffffff16815260200191505060405180910390f35b348015610a6a57600080fd5b50610ac3600480360381019080803573ffffffffffffffffffffffffffffffffffffffff169060200190929190803515159060200190929190803515159060200190929190803515159060200190929190505050611eaa565b604051808215151515815260200191505060405180910390f35b348015610ae957600080fd5b50610b846004803603810190808035906020019082018035906020019080806020026020016040519081016040528093929190818152602001838360200280828437820191505050505050919291929080359060200190820180359060200190808060200260200160405190810160405280939291908181526020018383602002808284378201915050505050509192919290505050612071565b604051808215151515815260200191505060405180910390f35b348015610baa57600080fd5b50610bdf600480360381019080803573ffffffffffffffffffffffffffffffffffffffff169060200190929190505050612133565b604051808215151515815260200191505060405180910390f35b348015610c0557600080fd5b50610c4460048036038101908080359060200190929190803573ffffffffffffffffffffffffffffffffffffffff16906020019092919050505061218c565b604051808215151515815260200191505060405180910390f35b348015610c6a57600080fd5b50610c89600480360381019080803590602001909291905050506121f7565b604051808215151515815260200191505060405180910390f35b348015610caf57600080fd5b50610cd860048036038101908080359060200190929190803590602001909291905050506122cd565b604051808215151515815260200191505060405180910390f35b348015610cfe57600080fd5b50610d1d60048036038101908080359060200190929190505050612385565b604051808215151515815260200191505060405180910390f35b348015610d4357600080fd5b50610d4c61245b565b6040518082815260200191505060405180910390f35b348015610d6e57600080fd5b50610d8d60048036038101908080359060200190929190505050612461565b604051808215151515815260200191505060405180910390f35b348015610db357600080fd5b50610de8600480360381019080803573ffffffffffffffffffffffffffffffffffffffff16906020019092919050505061248e565b6040518082815260200191505060405180910390f35b348015610e0a57600080fd5b50610e29600480360381019080803590602001909291905050506124da565b604051808273ffffffffffffffffffffffffffffffffffffffff1673ffffffffffffffffffffffffffffffffffffffff16815260200191505060405180910390f35b348015610e7757600080fd5b50610e966004803603810190808035906020019092919050505061251a565b604051808215151515815260200191505060405180910390f35b348015610ebc57600080fd5b50610edb60048036038101908080359060200190929190505050612550565b6040518082815260200191505060405180910390f35b348015610efd57600080fd5b50610f32600480360381019080803573ffffffffffffffffffffffffffffffffffffffff169060200190929190505050612570565b005b348015610f4057600080fd5b50610f5f600480360381019080803590602001909291905050506125d7565b6040518082815260200191505060405180910390f35b348015610f8157600080fd5b50610fa06004803603810190808035906020019092919050505061260b565b604051808215151515815260200191505060405180910390f35b348015610fc657600080fd5b50610fe560048036038101908080359060200190929190505050612638565b604051808215151515815260200191505060405180910390f35b60008060009054906101000a900473ffffffffffffffffffffffffffffffffffffffff1673ffffffffffffffffffffffffffffffffffffffff163373ffffffffffffffffffffffffffffffffffffffff1614151561105c57600080fd5b61106b83836000806000611937565b905092915050565b6000806000809054906101000a900473ffffffffffffffffffffffffffffffffffffffff1673ffffffffffffffffffffffffffffffffffffffff163373ffffffffffffffffffffffffffffffffffffffff161415156110d157600080fd5b600090505b85518110156111555761114786828151811015156110f057fe5b90602001906020020151868381518110151561110857fe5b90602001906020020151868481518110151561112057fe5b90602001906020020151868581518110151561113857fe5b90602001906020020151611eaa565b5080806001019150506110d6565b6001915050949350505050565b6000600254905090565b6000806000809054906101000a900473ffffffffffffffffffffffffffffffffffffffff1673ffffffffffffffffffffffffffffffffffffffff163373ffffffffffffffffffffffffffffffffffffffff161415156111ca57600080fd5b600090505b835181101561121e5761121084828151811015156111e957fe5b90602001906020020151848381518110151561120157fe5b906020019060200201516116a3565b5080806001019150506111cf565b600191505092915050565b6000600760008373ffffffffffffffffffffffffffffffffffffffff1673ffffffffffffffffffffffffffffffffffffffff16815260200190815260200160002060000160029054906101000a900460ff169050919050565b60008161128e8161251a565b151515611303576040517f08c379a00000000000000000000000000000000000000000000000000000000081526004018080602001828103825260038152602001807f453031000000000000000000000000000000000000000000000000000000000081525060200191505060405180910390fd5b6005600082815260200190815260200160002060040160019054906101000a900460ff1615151561139c576040517f08c379a00000000000000000000000000000000000000000000000000000000081526004018080602001828103825260038152602001807f453032000000000000000000000000000000000000000000000000000000000081525060200191505060405180910390fd5b6005600082815260200190815260200160002060060160009054906101000a900460ff16151515611435576040517f08c379a00000000000000000000000000000000000000000000000000000000081526004018080602001828103825260038152602001807f453033000000000000000000000000000000000000000000000000000000000081525060200191505060405180910390fd5b3373ffffffffffffffffffffffffffffffffffffffff166005600085815260200190815260200160002060040160029054906101000a900473ffffffffffffffffffffffffffffffffffffffff1673ffffffffffffffffffffffffffffffffffffffff1614806114d057503073ffffffffffffffffffffffffffffffffffffffff163373ffffffffffffffffffffffffffffffffffffffff16145b1515611544576040517f08c379a00000000000000000000000000000000000000000000000000000000081526004018080602001828103825260038152602001807f453037000000000000000000000000000000000000000000000000000000000081525060200191505060405180910390fd5b60016005600085815260200190815260200160002060040160016101000a81548160ff0219169083151502179055507f956fb32199d8b882b2039a14e1be35ab14f7a80b9089fc223f14b43937173e60836040518082815260200191505060405180910390a16001915050919050565b6000600454905090565b6000600760008373ffffffffffffffffffffffffffffffffffffffff1673ffffffffffffffffffffffffffffffffffffffff16815260200190815260200160002060000160009054906101000a900460ff169050919050565b60008060009054906101000a900473ffffffffffffffffffffffffffffffffffffffff1673ffffffffffffffffffffffffffffffffffffffff163373ffffffffffffffffffffffffffffffffffffffff1614151561167457600080fd5b61167e868661270e565b5061168b86858585611073565b506001905095945050505050565b6000600154905090565b60008060009054906101000a900473ffffffffffffffffffffffffffffffffffffffff1673ffffffffffffffffffffffffffffffffffffffff163373ffffffffffffffffffffffffffffffffffffffff1614151561170057600080fd5b81600360008573ffffffffffffffffffffffffffffffffffffffff1673ffffffffffffffffffffffffffffffffffffffff168152602001908152602001600020600001819055508273ffffffffffffffffffffffffffffffffffffffff167f48ac2a3af64ca340a363a997123357e082107e05b9636e980cbe045d81352fc6836040518082815260200191505060405180910390a26001905092915050565b60006005600083815260200190815260200160002060040160009054906101000a900460ff161580156117f357506005600083815260200190815260200160002060040160019054906101000a900460ff16155b801561182057506005600083815260200190815260200160002060060160009054906101000a900460ff16155b801561183257506118308261251a565b155b80156118565750600154600560008481526020019081526020016000206003015410155b9050919050565b6000600760003373ffffffffffffffffffffffffffffffffffffffff1673ffffffffffffffffffffffffffffffffffffffff16815260200190815260200160002060000160009054906101000a900460ff161515611923576040517f08c379a00000000000000000000000000000000000000000000000000000000081526004018080602001828103825260038152602001807f453031000000000000000000000000000000000000000000000000000000000081525060200191505060405180910390fd5b61192e8484846127cb565b90509392505050565b60008060009054906101000a900473ffffffffffffffffffffffffffffffffffffffff1673ffffffffffffffffffffffffffffffffffffffff163373ffffffffffffffffffffffffffffffffffffffff1614151561199457600080fd5b61199e86866129df565b506119ab86858585611eaa565b506001905095945050505050565b6000809054906101000a900473ffffffffffffffffffffffffffffffffffffffff1673ffffffffffffffffffffffffffffffffffffffff163373ffffffffffffffffffffffffffffffffffffffff16141515611a1457600080fd5b6000809054906101000a900473ffffffffffffffffffffffffffffffffffffffff1673ffffffffffffffffffffffffffffffffffffffff167ff8df31144d9c2f0f6b59d69b8b98abd5459d07f2742c4df920b25aae33c6482060405160405180910390a260008060006101000a81548173ffffffffffffffffffffffffffffffffffffffff021916908373ffffffffffffffffffffffffffffffffffffffff160217905550565b60006005600083815260200190815260200160002060060160009054906101000a900460ff169050919050565b6000600154600560008481526020019081526020016000206003015410159050919050565b600082611b198161251a565b151515611b8e576040517f08c379a00000000000000000000000000000000000000000000000000000000081526004018080602001828103825260038152602001807f453031000000000000000000000000000000000000000000000000000000000081525060200191505060405180910390fd5b6005600082815260200190815260200160002060040160019054906101000a900460ff16151515611c27576040517f08c379a00000000000000000000000000000000000000000000000000000000081526004018080602001828103825260038152602001807f453032000000000000000000000000000000000000000000000000000000000081525060200191505060405180910390fd5b6005600082815260200190815260200160002060060160009054906101000a900460ff16151515611cc0576040517f08c379a00000000000000000000000000000000000000000000000000000000081526004018080602001828103825260038152602001807f453033000000000000000000000000000000000000000000000000000000000081525060200191505060405180910390fd5b3373ffffffffffffffffffffffffffffffffffffffff166005600086815260200190815260200160002060040160029054906101000a900473ffffffffffffffffffffffffffffffffffffffff1673ffffffffffffffffffffffffffffffffffffffff16141515611d99576040517f08c379a00000000000000000000000000000000000000000000000000000000081526004018080602001828103825260038152602001807f453036000000000000000000000000000000000000000000000000000000000081525060200191505060405180910390fd5b8215156005600086815260200190815260200160002060040160009054906101000a900460ff1615151415611dd15760019150611e7e565b826005600086815260200190815260200160002060040160006101000a81548160ff0219169083151502179055508215611e41577f70fdc37312cccdca7197defdb32fc4d258bd47ff742f1ffc41819b7e0259c175846040518082815260200191505060405180910390a1611e79565b7fb93d7d9b4f24e58ec11830debc7491343d539976ca95c822b22e90b4a4dd8423846040518082815260200191505060405180910390a15b600191505b5092915050565b6000809054906101000a900473ffffffffffffffffffffffffffffffffffffffff1681565b6000806000809054906101000a900473ffffffffffffffffffffffffffffffffffffffff1673ffffffffffffffffffffffffffffffffffffffff163373ffffffffffffffffffffffffffffffffffffffff16141515611f0857600080fd5b600760008773ffffffffffffffffffffffffffffffffffffffff1673ffffffffffffffffffffffffffffffffffffffff16815260200190815260200160002090508415158160000160009054906101000a900460ff161515141515611f8457848160000160006101000a81548160ff0219169083151502179055505b8315158160000160019054906101000a900460ff161515141515611fbf57838160000160016101000a81548160ff0219169083151502179055505b8215158160000160029054906101000a900460ff161515141515611ffa57828160000160026101000a81548160ff0219169083151502179055505b8573ffffffffffffffffffffffffffffffffffffffff167fb53551be1e3243fb12d8da7dd09cce514ef048ad93f83eb3994432b10606c1a586868660405180841515151581526020018315151515815260200182151515158152602001935050505060405180910390a26001915050949350505050565b6000806000809054906101000a900473ffffffffffffffffffffffffffffffffffffffff1673ffffffffffffffffffffffffffffffffffffffff163373ffffffffffffffffffffffffffffffffffffffff161415156120cf57600080fd5b600090505b83518110156121285761211a84828151811015156120ee57fe5b90602001906020020151848381518110151561210657fe5b906020019060200201516000806000611937565b5080806001019150506120d4565b600191505092915050565b6000600760008373ffffffffffffffffffffffffffffffffffffffff1673ffffffffffffffffffffffffffffffffffffffff16815260200190815260200160002060000160019054906101000a900460ff169050919050565b60006005600084815260200190815260200160002060070160008373ffffffffffffffffffffffffffffffffffffffff1673ffffffffffffffffffffffffffffffffffffffff16815260200190815260200160002060009054906101000a900460ff16905092915050565b6000600760003373ffffffffffffffffffffffffffffffffffffffff1673ffffffffffffffffffffffffffffffffffffffff16815260200190815260200160002060000160019054906101000a900460ff1615156122bd576040517f08c379a00000000000000000000000000000000000000000000000000000000081526004018080602001828103825260038152602001807f453032000000000000000000000000000000000000000000000000000000000081525060200191505060405180910390fd5b6122c682612b02565b9050919050565b60008060009054906101000a900473ffffffffffffffffffffffffffffffffffffffff1673ffffffffffffffffffffffffffffffffffffffff163373ffffffffffffffffffffffffffffffffffffffff1614151561232a57600080fd5b82600181905550816002819055507fef1efc2eb4c3919acff49f1baa43e65b34b152dd75ac70025e825092d576ed68600154600254604051808381526020018281526020019250505060405180910390a16001905092915050565b6000600760003373ffffffffffffffffffffffffffffffffffffffff1673ffffffffffffffffffffffffffffffffffffffff16815260200190815260200160002060000160019054906101000a900460ff16151561244b576040517f08c379a00000000000000000000000000000000000000000000000000000000081526004018080602001828103825260038152602001807f453032000000000000000000000000000000000000000000000000000000000081525060200191505060405180910390fd5b61245482612f79565b9050919050565b60065481565b60006005600083815260200190815260200160002060040160019054906101000a900460ff169050919050565b6000600360008373ffffffffffffffffffffffffffffffffffffffff1673ffffffffffffffffffffffffffffffffffffffff168152602001908152602001600020600001549050919050565b60006005600083815260200190815260200160002060040160029054906101000a900473ffffffffffffffffffffffffffffffffffffffff169050919050565b600042612548600254600560008681526020019081526020016000206005015461331390919063ffffffff16565b109050919050565b600060056000838152602001908152602001600020600501549050919050565b6000809054906101000a900473ffffffffffffffffffffffffffffffffffffffff1673ffffffffffffffffffffffffffffffffffffffff163373ffffffffffffffffffffffffffffffffffffffff161415156125cb57600080fd5b6125d48161332f565b50565b6000612604600254600560008581526020019081526020016000206005015461331390919063ffffffff16565b9050919050565b60006005600083815260200190815260200160002060040160009054906101000a900460ff169050919050565b6000600760003373ffffffffffffffffffffffffffffffffffffffff1673ffffffffffffffffffffffffffffffffffffffff16815260200190815260200160002060000160029054906101000a900460ff1615156126fe576040517f08c379a00000000000000000000000000000000000000000000000000000000081526004018080602001828103825260038152602001807f453033000000000000000000000000000000000000000000000000000000000081525060200191505060405180910390fd5b61270782613429565b9050919050565b6000806000809054906101000a900473ffffffffffffffffffffffffffffffffffffffff1673ffffffffffffffffffffffffffffffffffffffff163373ffffffffffffffffffffffffffffffffffffffff1614151561276c57600080fd5b600090505b83518110156127c0576127b2848281518110151561278b57fe5b9060200190602002015184838151811015156127a357fe5b90602001906020020151610fff565b508080600101915050612771565b600191505092915050565b6000610120604051908101604052808573ffffffffffffffffffffffffffffffffffffffff168152602001848152602001838152602001600081526020016000151581526020016000151581526020013373ffffffffffffffffffffffffffffffffffffffff1681526020014281526020016000151581525060056000600654815260200190815260200160002060008201518160000160006101000a81548173ffffffffffffffffffffffffffffffffffffffff021916908373ffffffffffffffffffffffffffffffffffffffff1602179055506020820151816001015560408201518160020190805190602001906128c692919061389d565b506060820151816003015560808201518160040160006101000a81548160ff02191690831515021790555060a08201518160040160016101000a81548160ff02191690831515021790555060c08201518160040160026101000a81548173ffffffffffffffffffffffffffffffffffffffff021916908373ffffffffffffffffffffffffffffffffffffffff16021790555060e082015181600501556101008201518160060160006101000a81548160ff0219169083151502179055509050506006600081548092919060010191905055507fbe5d398e1f60a26f14ee5d56c44adcb6e833f644dfbe3dd0927d59fadbf8b2336001600654036040518082815260200191505060405180910390a1600190509392505050565b60008060009054906101000a900473ffffffffffffffffffffffffffffffffffffffff1673ffffffffffffffffffffffffffffffffffffffff163373ffffffffffffffffffffffffffffffffffffffff16141515612a3c57600080fd5b60206040519081016040528083815250600360008573ffffffffffffffffffffffffffffffffffffffff1673ffffffffffffffffffffffffffffffffffffffff168152602001908152602001600020600082015181600001559050506004600081548092919060010191905055508273ffffffffffffffffffffffffffffffffffffffff167f287ab65235aa9a0baeed5b973fda48c77ebdc6f3dd931cfda1c082c0aecc1e73836040518082815260200191505060405180910390a26001905092915050565b60008082612b0f8161251a565b151515612b84576040517f08c379a00000000000000000000000000000000000000000000000000000000081526004018080602001828103825260038152602001807f453031000000000000000000000000000000000000000000000000000000000081525060200191505060405180910390fd5b6005600082815260200190815260200160002060040160019054906101000a900460ff16151515612c1d576040517f08c379a00000000000000000000000000000000000000000000000000000000081526004018080602001828103825260038152602001807f453032000000000000000000000000000000000000000000000000000000000081525060200191505060405180910390fd5b6005600082815260200190815260200160002060060160009054906101000a900460ff16151515612cb6576040517f08c379a00000000000000000000000000000000000000000000000000000000081526004018080602001828103825260038152602001807f453033000000000000000000000000000000000000000000000000000000000081525060200191505060405180910390fd5b60065484101515612d2f576040517f08c379a00000000000000000000000000000000000000000000000000000000081526004018080602001828103825260038152602001807f453039000000000000000000000000000000000000000000000000000000000081525060200191505060405180910390fd5b6005600085815260200190815260200160002091508160070160003373ffffffffffffffffffffffffffffffffffffffff1673ffffffffffffffffffffffffffffffffffffffff16815260200190815260200160002060009054906101000a900460ff161515612e07576040517f08c379a00000000000000000000000000000000000000000000000000000000081526004018080602001828103825260038152602001807f453130000000000000000000000000000000000000000000000000000000000081525060200191505060405180910390fd5b612e60600360003373ffffffffffffffffffffffffffffffffffffffff1673ffffffffffffffffffffffffffffffffffffffff16815260200190815260200160002060000154836003015461388490919063ffffffff16565b826003018190555060008260070160003373ffffffffffffffffffffffffffffffffffffffff1673ffffffffffffffffffffffffffffffffffffffff16815260200190815260200160002060006101000a81548160ff0219169083151502179055506001548260030154108015612f315750600154612f2e600360003373ffffffffffffffffffffffffffffffffffffffff1673ffffffffffffffffffffffffffffffffffffffff16815260200190815260200160002060000154846003015461331390919063ffffffff16565b10155b15612f6e577f7bb089bc5225944997a26324bf52623a51631b7c5171f0dfb1c49bb396f3081a846040518082815260200191505060405180910390a15b600192505050919050565b60008082612f868161251a565b151515612ffb576040517f08c379a00000000000000000000000000000000000000000000000000000000081526004018080602001828103825260038152602001807f453031000000000000000000000000000000000000000000000000000000000081525060200191505060405180910390fd5b6005600082815260200190815260200160002060040160019054906101000a900460ff16151515613094576040517f08c379a00000000000000000000000000000000000000000000000000000000081526004018080602001828103825260038152602001807f453032000000000000000000000000000000000000000000000000000000000081525060200191505060405180910390fd5b6005600082815260200190815260200160002060060160009054906101000a900460ff1615151561312d576040517f08c379a00000000000000000000000000000000000000000000000000000000081526004018080602001828103825260038152602001807f453033000000000000000000000000000000000000000000000000000000000081525060200191505060405180910390fd5b6005600085815260200190815260200160002091508160070160003373ffffffffffffffffffffffffffffffffffffffff1673ffffffffffffffffffffffffffffffffffffffff16815260200190815260200160002060009054906101000a900460ff16151515613206576040517f08c379a00000000000000000000000000000000000000000000000000000000081526004018080602001828103825260038152602001807f453038000000000000000000000000000000000000000000000000000000000081525060200191505060405180910390fd5b61325f600360003373ffffffffffffffffffffffffffffffffffffffff1673ffffffffffffffffffffffffffffffffffffffff16815260200190815260200160002060000154836003015461331390919063ffffffff16565b826003018190555060018260070160003373ffffffffffffffffffffffffffffffffffffffff1673ffffffffffffffffffffffffffffffffffffffff16815260200190815260200160002060006101000a81548160ff0219169083151502179055506001548260030154101515613308577fef524c298d730e7d5714dbe2fce9d4eca7de755a12628704719170afda39678b846040518082815260200191505060405180910390a15b600192505050919050565b6000818301905082811015151561332657fe5b80905092915050565b600073ffffffffffffffffffffffffffffffffffffffff168173ffffffffffffffffffffffffffffffffffffffff161415151561336b57600080fd5b8073ffffffffffffffffffffffffffffffffffffffff166000809054906101000a900473ffffffffffffffffffffffffffffffffffffffff1673ffffffffffffffffffffffffffffffffffffffff167f8be0079c531659141344cd1fd0a4f28419497f9722a3daafe3b4186f6b6457e060405160405180910390a3806000806101000a81548173ffffffffffffffffffffffffffffffffffffffff021916908373ffffffffffffffffffffffffffffffffffffffff16021790555050565b600080826134368161251a565b1515156134ab576040517f08c379a00000000000000000000000000000000000000000000000000000000081526004018080602001828103825260038152602001807f453031000000000000000000000000000000000000000000000000000000000081525060200191505060405180910390fd5b6005600082815260200190815260200160002060040160019054906101000a900460ff16151515613544576040517f08c379a00000000000000000000000000000000000000000000000000000000081526004018080602001828103825260038152602001807f453032000000000000000000000000000000000000000000000000000000000081525060200191505060405180910390fd5b6005600082815260200190815260200160002060060160009054906101000a900460ff161515156135dd576040517f08c379a00000000000000000000000000000000000000000000000000000000081526004018080602001828103825260038152602001807f453033000000000000000000000000000000000000000000000000000000000081525060200191505060405180910390fd5b6005600085815260200190815260200160002060040160009054906101000a900460ff16151515613676576040517f08c379a00000000000000000000000000000000000000000000000000000000081526004018080602001828103825260038152602001807f453034000000000000000000000000000000000000000000000000000000000081525060200191505060405180910390fd5b600154600560008681526020019081526020016000206003015410151515613706576040517f08c379a00000000000000000000000000000000000000000000000000000000081526004018080602001828103825260038152602001807f453035000000000000000000000000000000000000000000000000000000000081525060200191505060405180910390fd5b60056000858152602001908152602001600020915060018260060160006101000a81548160ff0219169083151502179055508160000160009054906101000a900473ffffffffffffffffffffffffffffffffffffffff1673ffffffffffffffffffffffffffffffffffffffff1682600101548360020160405180828054600181600116156101000203166002900480156137e15780601f106137b6576101008083540402835291602001916137e1565b820191906000526020600020905b8154815290600101906020018083116137c457829003601f168201915b505091505060006040518083038185875af1925050501561382e57837f33e13ecb54c3076d8e8bb8c2881800a4d972b792045ffae98fdf46df365fed7560405160405180910390a2613879565b60008260060160006101000a81548160ff021916908315150217905550837f526441bb6c1aba3c9a4a6ca1d6545da9c2333c8c48343ef398eb858d72b7923660405160405180910390a25b600192505050919050565b600082821115151561389257fe5b818303905092915050565b828054600181600116156101000203166002900490600052602060002090601f016020900481019282601f106138de57805160ff191683800117855561390c565b8280016001018555821561390c579182015b8281111561390b5782518255916020019190600101906138f0565b5b509050613919919061391d565b5090565b61393f91905b8082111561393b576000816000905550600101613923565b5090565b905600a165627a7a72305820d98d7d2c9034d73fcf9cc61ebd94f34f0a257b1566de2ce1c9c4a91b53c88fe20029",
  "source": "pragma solidity ^0.4.24;\n\nimport \"./MultiSig.sol\";\n\n\n/**\n * @title MultiSigWithRBAC\n * @dev MultiSigWithRBAC contract\n * @author Cyril Lapinte - <cyril.lapinte@mtpelerin.com>\n *\n * Error messages\n * E01: msg.sender is not a suggester\n * E02: msg.sender is not an approver\n * E03: msg.sender is not an executer\n */\ncontract MultiSigWithRBAC is MultiSig {\n\n  struct ParticipantRBAC {\n    bool suggester;\n    bool approver;\n    bool executer;\n  }\n  mapping(address => ParticipantRBAC) internal participantRBACs;\n\n  /**\n   * @dev Modifier for suggester only\n   */\n  modifier onlySuggester() {\n    require(participantRBACs[msg.sender].suggester, \"E01\");\n    _;\n  }\n\n  /**\n   * @dev Modifier for approver only\n   */\n  modifier onlyApprover() {\n    require(participantRBACs[msg.sender].approver, \"E02\");\n    _;\n  }\n\n  /**\n   * @dev Modifier for executer only\n   */\n  modifier onlyExecuter() {\n    require(participantRBACs[msg.sender].executer, \"E03\");\n    _;\n  }\n\n  /**\n   * @dev contructor\n   **/\n  constructor(\n    uint256 _threshold,\n    uint256 _duration,\n    address[] _participants,\n    uint256[] _weights,\n    bool[] _suggesters,\n    bool[] _approvers,\n    bool[] _executers)\n    MultiSig(_threshold, _duration, _participants, _weights) public\n  {\n    updateManyParticipantsRBAC(\n      _participants,\n      _suggesters,\n      _approvers,\n      _executers\n    );\n  }\n\n  function isParticipantSuggester(address _address)\n    public view returns (bool)\n  {\n    return participantRBACs[_address].suggester;\n  }\n\n  function isParticipantApprover(address _address) public view returns (bool) {\n    return participantRBACs[_address].approver;\n  }\n\n  function isParticipantExecuter(address _address) public view returns (bool) {\n    return participantRBACs[_address].executer;\n  }\n\n  function execute(uint256 _transactionId) public onlyExecuter returns (bool) {\n    return super.execute(_transactionId);\n  }\n\n  function suggest(\n    address _destination,\n    uint256 _value,\n    bytes _data) public onlySuggester returns (bool)\n  {\n    return super.suggest(_destination, _value, _data);\n  }\n\n  function approve(\n    uint256 _transactionId) public onlyApprover returns (bool)\n  {\n    return super.approve(_transactionId);\n  }\n\n  function revokeApproval(\n    uint256 _transactionId) public onlyApprover returns (bool)\n  {\n    return super.revokeApproval(_transactionId);\n  }\n\n  function addParticipant(\n    address _participant,\n    uint256 _weight) public onlyOwner returns (bool)\n  {\n    return addParticipantWithRBAC(\n      _participant,\n      _weight,\n      false,\n      false,\n      false\n    );\n  }\n\n  function addManyParticipants(\n    address[] _participants,\n    uint256[] _weights) public onlyOwner returns (bool)\n  {\n    for (uint256 i = 0; i < _participants.length; i++) {\n      addParticipantWithRBAC(\n        _participants[i],\n        _weights[i],\n        false,\n        false,\n        false\n      );\n    }\n    return true;\n  }\n\n  function addParticipantWithRBAC(\n    address _participant,\n    uint256 _weight,\n    bool _suggester,\n    bool _approver,\n    bool _executer) public onlyOwner returns (bool)\n  {\n    super.addParticipant(_participant, _weight);\n    updateParticipantRBAC(\n      _participant,\n      _suggester,\n      _approver,\n      _executer\n    );\n    return true;\n  }\n\n  function addManyParticipantsWithRBAC(\n    address[] _participants,\n    uint256[] _weights,\n    bool[] _suggesters,\n    bool[] _approvers,\n    bool[] _executers) public onlyOwner returns (bool)\n  {\n    super.addManyParticipants(_participants, _weights);\n    updateManyParticipantsRBAC(\n      _participants,\n      _suggesters,\n      _approvers,\n      _executers\n    );\n    return true;\n  }\n\n  function updateParticipantRBAC(\n    address _participant, \n    bool _suggester,\n    bool _approver,\n    bool _executer) public onlyOwner returns (bool)\n  {\n    ParticipantRBAC storage participantRBAC = participantRBACs[_participant];\n\n    if (participantRBAC.suggester != _suggester) {\n      participantRBAC.suggester = _suggester;\n    }\n\n    if (participantRBAC.approver != _approver) {\n      participantRBAC.approver = _approver;\n    }\n\n    if (participantRBAC.executer != _executer) {\n      participantRBAC.executer = _executer;\n    }\n    emit ParticipantRolesUpdated(\n      _participant,\n      _suggester,\n      _approver,\n      _executer\n    );\n    return true;\n  }\n\n  function updateManyParticipantsRBAC(\n    address[] _participants,\n    bool[] _suggesters,\n    bool[] _approvers,\n    bool[] _executers) public onlyOwner returns (bool)\n  {\n    for (uint256 i = 0; i < _participants.length; i++) {\n      updateParticipantRBAC(\n        _participants[i],\n        _suggesters[i],\n        _approvers[i],\n        _executers[i]\n      );\n    }\n    return true;\n  }\n\n  event ParticipantRolesUpdated(\n    address indexed participant,\n    bool _suggester,\n    bool _approver,\n    bool _executer\n  );\n}\n",
  "sourcePath": "/home/node/project/contracts/multisig/MultiSigWithRBAC.sol",
  "compiler": {
    "name": "solc",
    "version": "0.4.24+commit.e67f0147.Emscripten.clang"
  },
  "schemaVersion": "2.0.1",
  "updatedAt": "2018-08-15T14:19:55.973Z"
}