{
  "contractName": "PayableProxy",
  "abi": [
    {
      "constant": false,
      "inputs": [],
      "name": "renounceOwnership",
      "outputs": [],
      "payable": false,
      "stateMutability": "nonpayable",
      "type": "function"
    },
    {
      "constant": true,
      "inputs": [],
      "name": "owner",
      "outputs": [
        {
          "name": "",
          "type": "address"
        }
      ],
      "payable": false,
      "stateMutability": "view",
      "type": "function"
    },
    {
      "constant": false,
      "inputs": [
        {
          "name": "_newOwner",
          "type": "address"
        }
      ],
      "name": "transferOwnership",
      "outputs": [],
      "payable": false,
      "stateMutability": "nonpayable",
      "type": "function"
    },
    {
      "inputs": [
        {
          "name": "_payableAddr",
          "type": "address"
        },
        {
          "name": "_payableAbi",
          "type": "string"
        },
        {
          "name": "_startAt",
          "type": "uint256"
        }
      ],
      "payable": false,
      "stateMutability": "nonpayable",
      "type": "constructor"
    },
    {
      "payable": true,
      "stateMutability": "payable",
      "type": "fallback"
    },
    {
      "anonymous": false,
      "inputs": [
        {
          "indexed": false,
          "name": "payableAddr",
          "type": "address"
        },
        {
          "indexed": false,
          "name": "payableAbi",
          "type": "string"
        },
        {
          "indexed": false,
          "name": "startAt",
          "type": "uint256"
        }
      ],
      "name": "NewConfig",
      "type": "event"
    },
    {
      "anonymous": false,
      "inputs": [],
      "name": "ConfigLocked",
      "type": "event"
    },
    {
      "anonymous": false,
      "inputs": [
        {
          "indexed": true,
          "name": "previousOwner",
          "type": "address"
        }
      ],
      "name": "OwnershipRenounced",
      "type": "event"
    },
    {
      "anonymous": false,
      "inputs": [
        {
          "indexed": true,
          "name": "previousOwner",
          "type": "address"
        },
        {
          "indexed": true,
          "name": "newOwner",
          "type": "address"
        }
      ],
      "name": "OwnershipTransferred",
      "type": "event"
    },
    {
      "constant": true,
      "inputs": [],
      "name": "payableAddr",
      "outputs": [
        {
          "name": "",
          "type": "address"
        }
      ],
      "payable": false,
      "stateMutability": "view",
      "type": "function"
    },
    {
      "constant": true,
      "inputs": [],
      "name": "payableFunction",
      "outputs": [
        {
          "name": "",
          "type": "bytes4"
        }
      ],
      "payable": false,
      "stateMutability": "view",
      "type": "function"
    },
    {
      "constant": true,
      "inputs": [],
      "name": "startAt",
      "outputs": [
        {
          "name": "",
          "type": "uint256"
        }
      ],
      "payable": false,
      "stateMutability": "view",
      "type": "function"
    },
    {
      "constant": true,
      "inputs": [],
      "name": "isConfigLocked",
      "outputs": [
        {
          "name": "",
          "type": "bool"
        }
      ],
      "payable": false,
      "stateMutability": "view",
      "type": "function"
    },
    {
      "constant": false,
      "inputs": [
        {
          "name": "_payableAddr",
          "type": "address"
        },
        {
          "name": "_payableAbi",
          "type": "string"
        },
        {
          "name": "_startAt",
          "type": "uint256"
        }
      ],
      "name": "configure",
      "outputs": [],
      "payable": false,
      "stateMutability": "nonpayable",
      "type": "function"
    },
    {
      "constant": false,
      "inputs": [],
      "name": "lockConfig",
      "outputs": [],
      "payable": false,
      "stateMutability": "nonpayable",
      "type": "function"
    },
    {
      "constant": false,
      "inputs": [],
      "name": "dryRun",
      "outputs": [],
      "payable": false,
      "stateMutability": "nonpayable",
      "type": "function"
    }
  ],
  "bytecode": "0x608060405234801561001057600080fd5b506040516111ba3803806111ba833981018060405281019080805190602001909291908051820192919060200180519060200190929190505050336000806101000a81548173ffffffffffffffffffffffffffffffffffffffff021916908373ffffffffffffffffffffffffffffffffffffffff1602179055506100a48383836100ac640100000000026401000000009004565b5050506103ba565b6000809054906101000a900473ffffffffffffffffffffffffffffffffffffffff1673ffffffffffffffffffffffffffffffffffffffff163373ffffffffffffffffffffffffffffffffffffffff1614151561010757600080fd5b600360009054906101000a900460ff1615151561018c576040517f08c379a00000000000000000000000000000000000000000000000000000000081526004018080602001828103825260108152602001807f50415941424c455f50524f58595f30310000000000000000000000000000000081525060200191505060405180910390fd5b82600160006101000a81548173ffffffffffffffffffffffffffffffffffffffff021916908373ffffffffffffffffffffffffffffffffffffffff160217905550816040516020018082805190602001908083835b60208310151561020657805182526020820191506020810190506020830392506101e1565b6001836020036101000a0380198251168184511680821785525050505050509050019150506040516020818303038152906040526040518082805190602001908083835b60208310151561026f578051825260208201915060208101905060208303925061024a565b6001836020036101000a0380198251168184511680821785525050505050509050019150506040518091039020600160146101000a81548163ffffffff02191690837c010000000000000000000000000000000000000000000000000000000090040217905550806002819055507f439a175183ce7832c68fa0eb668ee4bda602d160a31f2f91d2248c575fc6765b838383604051808473ffffffffffffffffffffffffffffffffffffffff1673ffffffffffffffffffffffffffffffffffffffff16815260200180602001838152602001828103825284818151815260200191508051906020019080838360005b8381101561037957808201518184015260208101905061035e565b50505050905090810190601f1680156103a65780820380516001836020036101000a031916815260200191505b5094505050505060405180910390a1505050565b610df1806103c96000396000f3006080604052600436106100a4576000357c0100000000000000000000000000000000000000000000000000000000900463ffffffff16806306f1fcbb146101e15780632537f355146101f85780634a6a74071461024f578063715018a6146102b857806387178cde146102cf5780638da5cb5b146102e657806398823f551461033d578063b5ffcd951461036c578063c7446565146103ff578063f2fde38b1461042a575b600360009054906101000a900460ff161515610128576040517f08c379a00000000000000000000000000000000000000000000000000000000081526004018080602001828103825260108152602001807f50415941424c455f50524f58595f30320000000000000000000000000000000081525060200191505060405180910390fd5b600254421115156101a1576040517f08c379a00000000000000000000000000000000000000000000000000000000081526004018080602001828103825260108152602001807f50415941424c455f50524f58595f30330000000000000000000000000000000081525060200191505060405180910390fd5b6101df34336000368080601f01602080910402602001604051908101604052809392919081815260200183838082843782019150505050505061046d565b005b3480156101ed57600080fd5b506101f661063d565b005b34801561020457600080fd5b5061020d61076e565b604051808273ffffffffffffffffffffffffffffffffffffffff1673ffffffffffffffffffffffffffffffffffffffff16815260200191505060405180910390f35b34801561025b57600080fd5b50610264610798565b60405180827bffffffffffffffffffffffffffffffffffffffffffffffffffffffff19167bffffffffffffffffffffffffffffffffffffffffffffffffffffffff1916815260200191505060405180910390f35b3480156102c457600080fd5b506102cd6107cb565b005b3480156102db57600080fd5b506102e46108cd565b005b3480156102f257600080fd5b506102fb610910565b604051808273ffffffffffffffffffffffffffffffffffffffff1673ffffffffffffffffffffffffffffffffffffffff16815260200191505060405180910390f35b34801561034957600080fd5b50610352610935565b604051808215151515815260200191505060405180910390f35b34801561037857600080fd5b506103fd600480360381019080803573ffffffffffffffffffffffffffffffffffffffff169060200190929190803590602001908201803590602001908080601f01602080910402602001604051908101604052809392919081815260200183838082843782019150505050505091929192908035906020019092919050505061094c565b005b34801561040b57600080fd5b50610414610c5a565b6040518082815260200191505060405180910390f35b34801561043657600080fd5b5061046b600480360381019080803573ffffffffffffffffffffffffffffffffffffffff169060200190929190505050610c64565b005b600160009054906101000a900473ffffffffffffffffffffffffffffffffffffffff1673ffffffffffffffffffffffffffffffffffffffff1683600160149054906101000a90047c0100000000000000000000000000000000000000000000000000000000027c010000000000000000000000000000000000000000000000000000000090049084846040518463ffffffff167c0100000000000000000000000000000000000000000000000000000000028152600401808373ffffffffffffffffffffffffffffffffffffffff1673ffffffffffffffffffffffffffffffffffffffff168152602001828051906020019080838360005b83811015610580578082015181840152602081019050610565565b50505050905090810190601f1680156105ad5780820380516001836020036101000a031916815260200191505b509250505060006040518083038185885af193505050501515610638576040517f08c379a00000000000000000000000000000000000000000000000000000000081526004018080602001828103825260108152602001807f50415941424c455f50524f58595f30340000000000000000000000000000000081525060200191505060405180910390fd5b505050565b6000809054906101000a900473ffffffffffffffffffffffffffffffffffffffff1673ffffffffffffffffffffffffffffffffffffffff163373ffffffffffffffffffffffffffffffffffffffff1614151561069857600080fd5b600360009054906101000a900460ff1615151561071d576040517f08c379a00000000000000000000000000000000000000000000000000000000081526004018080602001828103825260108152602001807f50415941424c455f50524f58595f30310000000000000000000000000000000081525060200191505060405180910390fd5b6107256108cd565b6001600360006101000a81548160ff0219169083151502179055507fb5d7e1004436657384a8509fb2028c36d5074a7be73e3feb9928641b95c6e4ee60405160405180910390a1565b6000600160009054906101000a900473ffffffffffffffffffffffffffffffffffffffff16905090565b6000600160149054906101000a90047c010000000000000000000000000000000000000000000000000000000002905090565b6000809054906101000a900473ffffffffffffffffffffffffffffffffffffffff1673ffffffffffffffffffffffffffffffffffffffff163373ffffffffffffffffffffffffffffffffffffffff1614151561082657600080fd5b6000809054906101000a900473ffffffffffffffffffffffffffffffffffffffff1673ffffffffffffffffffffffffffffffffffffffff167ff8df31144d9c2f0f6b59d69b8b98abd5459d07f2742c4df920b25aae33c6482060405160405180910390a260008060006101000a81548173ffffffffffffffffffffffffffffffffffffffff021916908373ffffffffffffffffffffffffffffffffffffffff160217905550565b61090e6000336040805190810160405280600481526020017f746573740000000000000000000000000000000000000000000000000000000081525061046d565b565b6000809054906101000a900473ffffffffffffffffffffffffffffffffffffffff1681565b6000600360009054906101000a900460ff16905090565b6000809054906101000a900473ffffffffffffffffffffffffffffffffffffffff1673ffffffffffffffffffffffffffffffffffffffff163373ffffffffffffffffffffffffffffffffffffffff161415156109a757600080fd5b600360009054906101000a900460ff16151515610a2c576040517f08c379a00000000000000000000000000000000000000000000000000000000081526004018080602001828103825260108152602001807f50415941424c455f50524f58595f30310000000000000000000000000000000081525060200191505060405180910390fd5b82600160006101000a81548173ffffffffffffffffffffffffffffffffffffffff021916908373ffffffffffffffffffffffffffffffffffffffff160217905550816040516020018082805190602001908083835b602083101515610aa65780518252602082019150602081019050602083039250610a81565b6001836020036101000a0380198251168184511680821785525050505050509050019150506040516020818303038152906040526040518082805190602001908083835b602083101515610b0f5780518252602082019150602081019050602083039250610aea565b6001836020036101000a0380198251168184511680821785525050505050509050019150506040518091039020600160146101000a81548163ffffffff02191690837c010000000000000000000000000000000000000000000000000000000090040217905550806002819055507f439a175183ce7832c68fa0eb668ee4bda602d160a31f2f91d2248c575fc6765b838383604051808473ffffffffffffffffffffffffffffffffffffffff1673ffffffffffffffffffffffffffffffffffffffff16815260200180602001838152602001828103825284818151815260200191508051906020019080838360005b83811015610c19578082015181840152602081019050610bfe565b50505050905090810190601f168015610c465780820380516001836020036101000a031916815260200191505b5094505050505060405180910390a1505050565b6000600254905090565b6000809054906101000a900473ffffffffffffffffffffffffffffffffffffffff1673ffffffffffffffffffffffffffffffffffffffff163373ffffffffffffffffffffffffffffffffffffffff16141515610cbf57600080fd5b610cc881610ccb565b50565b600073ffffffffffffffffffffffffffffffffffffffff168173ffffffffffffffffffffffffffffffffffffffff1614151515610d0757600080fd5b8073ffffffffffffffffffffffffffffffffffffffff166000809054906101000a900473ffffffffffffffffffffffffffffffffffffffff1673ffffffffffffffffffffffffffffffffffffffff167f8be0079c531659141344cd1fd0a4f28419497f9722a3daafe3b4186f6b6457e060405160405180910390a3806000806101000a81548173ffffffffffffffffffffffffffffffffffffffff021916908373ffffffffffffffffffffffffffffffffffffffff160217905550505600a165627a7a723058206199835a741155f732e69ecea13d0f382147aa2f37a18bd502fedaa41004c9240029",
  "source": "pragma solidity ^0.4.24;\n\nimport \"./zeppelin/ownership/Ownable.sol\";\n\n\n/**\n * @title PayableProxy\n * @dev PayableProxy is a proxy which redirect all incoming transaction\n * to either one account or one payable function of a contract.\n * In the first case, the transaction data will contains the incoming msg.data.\n * In the second case, the payable function will be called with two parameters \n * the incoming message msg.sender and msg.data\n *\n * To avoid abuse the configuration need to be locked before the redirection is active\n *\n * Error messages\n * PAYABLE_PROXY_01: configuration is locked\n * PAYABLE_PROXY_02: configuration has not been locked\n * PAYABLE_PROXY_03: redirection is not started yet\n * PAYABLE_PROXY_04: redirection has failed\n *\n * @author Cyril Lapinte - <cyril.lapinte@mtpelerin.com>\n */\ncontract PayableProxy is Ownable {\n\n  // Address of the targeted account contract \n  address public payableAddr;\n\n  // Encoded abi of the payable function to be called if the target is a contract\n  bytes4 public payableFunction;\n\n  // Redirection start datetime\n  uint256 public startAt;\n\n  // Is configuration locked\n  bool private configLocked;\n\n  modifier configNotLocked() {\n    require(!configLocked, \"PAYABLE_PROXY_01\");\n    _;\n  }\n\n  constructor(address _payableAddr, string _payableAbi, uint256 _startAt)\n    public\n  {\n    configure(_payableAddr, _payableAbi, _startAt);\n  }\n\n  function () external payable {\n    require(configLocked, \"PAYABLE_PROXY_02\");\n    // solium-disable-next-line security/no-block-members\n    require(now > startAt, \"PAYABLE_PROXY_03\");\n    callPayable(msg.value, msg.sender, msg.data);\n  }\n\n  function payableAddr() public view returns (address) {\n    return payableAddr;\n  }\n\n  function payableFunction() public view returns (bytes4) {\n    return payableFunction;\n  }\n\n  function startAt() public view returns (uint256) {\n    return startAt;\n  }\n\n  function isConfigLocked() public view returns (bool) {\n    return configLocked;\n  }\n\n  /* @dev configure the proxy with the following parameters\n   * @param _payableAddr Address of the  to be redirected to\n   * @param _abi ABI of the function to be executed.\n   *        Example 'function(address,bytes)'\n   * @param _startAt seconds at which the will start redirecting\n   *        to the real contract\n   */\n  function configure(\n    address _payableAddr,\n    string _payableAbi,\n    uint256 _startAt\n    ) public onlyOwner configNotLocked\n  {\n    payableAddr = _payableAddr;\n    payableFunction = bytes4(keccak256(abi.encodePacked(_payableAbi)));\n    startAt = _startAt;\n\n    emit NewConfig(_payableAddr, _payableAbi, _startAt);\n  }\n\n  /* @dev Lock the configuration\n   */\n  function lockConfig() public onlyOwner configNotLocked {\n    dryRun();\n    configLocked = true;\n    emit ConfigLocked();\n  }\n\n  /*\n   * @dev Allow to quick check the configuration\n   * while the configuration is still unlocked\n   */\n  function dryRun() public {\n    callPayable(0, msg.sender, \"test\");\n  }\n\n  /*\n   * @dev Send the received ETH to the configured and locked contract address\n   * The call can be done only when the redirection has started\n   */\n  function callPayable(uint256 _value, address _sender, bytes _data)\n    internal\n  {\n    require(\n      // solium-disable-next-line security/no-call-value\n      payableAddr.call.value(_value)(payableFunction, _sender, _data),\n      \"PAYABLE_PROXY_04\");\n  }\n\n  event NewConfig(address payableAddr, string payableAbi, uint256 startAt);\n  event ConfigLocked();\n}\n",
  "sourcePath": "/home/node/project/contracts/PayableProxy.sol",
  "compiler": {
    "name": "solc",
    "version": "0.4.24+commit.e67f0147.Emscripten.clang"
  },
  "schemaVersion": "2.0.1",
  "updatedAt": "2018-08-15T14:19:55.827Z"
}