{
  "contractName": "Rates",
  "abi": [
    {
      "constant": false,
      "inputs": [],
      "name": "renounceOwnership",
      "outputs": [],
      "payable": false,
      "stateMutability": "nonpayable",
      "type": "function"
    },
    {
      "constant": true,
      "inputs": [],
      "name": "owner",
      "outputs": [
        {
          "name": "",
          "type": "address"
        }
      ],
      "payable": false,
      "stateMutability": "view",
      "type": "function"
    },
    {
      "constant": false,
      "inputs": [
        {
          "name": "_newOwner",
          "type": "address"
        }
      ],
      "name": "transferOwnership",
      "outputs": [],
      "payable": false,
      "stateMutability": "nonpayable",
      "type": "function"
    },
    {
      "inputs": [
        {
          "name": "_referenceToken",
          "type": "address"
        },
        {
          "name": "_tokens",
          "type": "address[]"
        },
        {
          "name": "_rates",
          "type": "uint256[]"
        },
        {
          "name": "_invertedRates",
          "type": "uint256[]"
        }
      ],
      "payable": false,
      "stateMutability": "nonpayable",
      "type": "constructor"
    },
    {
      "anonymous": false,
      "inputs": [
        {
          "indexed": true,
          "name": "previousOwner",
          "type": "address"
        }
      ],
      "name": "OwnershipRenounced",
      "type": "event"
    },
    {
      "anonymous": false,
      "inputs": [
        {
          "indexed": true,
          "name": "previousOwner",
          "type": "address"
        },
        {
          "indexed": true,
          "name": "newOwner",
          "type": "address"
        }
      ],
      "name": "OwnershipTransferred",
      "type": "event"
    },
    {
      "constant": false,
      "inputs": [
        {
          "name": "_tokenIds",
          "type": "uint256[]"
        },
        {
          "name": "_rates",
          "type": "uint256[]"
        },
        {
          "name": "_invertedRates",
          "type": "uint256[]"
        }
      ],
      "name": "updateManyRates",
      "outputs": [],
      "payable": false,
      "stateMutability": "nonpayable",
      "type": "function"
    },
    {
      "constant": true,
      "inputs": [],
      "name": "referenceToken",
      "outputs": [
        {
          "name": "",
          "type": "address"
        }
      ],
      "payable": false,
      "stateMutability": "view",
      "type": "function"
    },
    {
      "constant": true,
      "inputs": [],
      "name": "ratePrecision",
      "outputs": [
        {
          "name": "",
          "type": "uint256"
        }
      ],
      "payable": false,
      "stateMutability": "view",
      "type": "function"
    },
    {
      "constant": true,
      "inputs": [],
      "name": "tokens",
      "outputs": [
        {
          "name": "",
          "type": "address[]"
        }
      ],
      "payable": false,
      "stateMutability": "view",
      "type": "function"
    },
    {
      "constant": true,
      "inputs": [
        {
          "name": "",
          "type": "uint256"
        }
      ],
      "name": "tokens",
      "outputs": [
        {
          "name": "",
          "type": "address"
        }
      ],
      "payable": false,
      "stateMutability": "view",
      "type": "function"
    },
    {
      "constant": true,
      "inputs": [
        {
          "name": "_token",
          "type": "address"
        }
      ],
      "name": "rate",
      "outputs": [
        {
          "name": "",
          "type": "uint256"
        }
      ],
      "payable": false,
      "stateMutability": "view",
      "type": "function"
    },
    {
      "constant": true,
      "inputs": [
        {
          "name": "_token",
          "type": "address"
        }
      ],
      "name": "invertedRate",
      "outputs": [
        {
          "name": "",
          "type": "uint256"
        }
      ],
      "payable": false,
      "stateMutability": "view",
      "type": "function"
    },
    {
      "constant": true,
      "inputs": [
        {
          "name": "_token",
          "type": "address"
        }
      ],
      "name": "updatedAt",
      "outputs": [
        {
          "name": "",
          "type": "uint256"
        }
      ],
      "payable": false,
      "stateMutability": "view",
      "type": "function"
    },
    {
      "constant": false,
      "inputs": [
        {
          "name": "_tokenId",
          "type": "uint256"
        },
        {
          "name": "_rate",
          "type": "uint256"
        },
        {
          "name": "_invertedRate",
          "type": "uint256"
        }
      ],
      "name": "updateRate",
      "outputs": [],
      "payable": false,
      "stateMutability": "nonpayable",
      "type": "function"
    },
    {
      "constant": false,
      "inputs": [
        {
          "name": "_token",
          "type": "address"
        },
        {
          "name": "_rate",
          "type": "uint256"
        },
        {
          "name": "_invertedRate",
          "type": "uint256"
        }
      ],
      "name": "addToken",
      "outputs": [],
      "payable": false,
      "stateMutability": "nonpayable",
      "type": "function"
    },
    {
      "constant": false,
      "inputs": [
        {
          "name": "_tokens",
          "type": "address[]"
        },
        {
          "name": "_rates",
          "type": "uint256[]"
        },
        {
          "name": "_invertedRates",
          "type": "uint256[]"
        }
      ],
      "name": "addManyTokens",
      "outputs": [],
      "payable": false,
      "stateMutability": "nonpayable",
      "type": "function"
    },
    {
      "constant": false,
      "inputs": [
        {
          "name": "_tokenId",
          "type": "uint256"
        }
      ],
      "name": "removeToken",
      "outputs": [],
      "payable": false,
      "stateMutability": "nonpayable",
      "type": "function"
    },
    {
      "constant": false,
      "inputs": [
        {
          "name": "_tokenIds",
          "type": "uint256[]"
        }
      ],
      "name": "removeManyTokens",
      "outputs": [],
      "payable": false,
      "stateMutability": "nonpayable",
      "type": "function"
    },
    {
      "constant": false,
      "inputs": [
        {
          "name": "_referenceToken",
          "type": "address"
        }
      ],
      "name": "updateReferenceToken",
      "outputs": [],
      "payable": false,
      "stateMutability": "nonpayable",
      "type": "function"
    },
    {
      "constant": false,
      "inputs": [
        {
          "name": "_ratePrecision",
          "type": "uint256"
        }
      ],
      "name": "updateRatePrecision",
      "outputs": [],
      "payable": false,
      "stateMutability": "nonpayable",
      "type": "function"
    }
  ],
  "bytecode": "0x6080604052600280553480156200001557600080fd5b5060405162001ef038038062001ef083398101806040528101908080519060200190929190805182019291906020018051820192919060200180518201929190505050336000806101000a81548173ffffffffffffffffffffffffffffffffffffffff021916908373ffffffffffffffffffffffffffffffffffffffff160217905550600073ffffffffffffffffffffffffffffffffffffffff168473ffffffffffffffffffffffffffffffffffffffff16141515156200013e576040517f08c379a00000000000000000000000000000000000000000000000000000000081526004018080602001828103825260038152602001807f453031000000000000000000000000000000000000000000000000000000000081525060200191505060405180910390fd5b83600160006101000a81548173ffffffffffffffffffffffffffffffffffffffff021916908373ffffffffffffffffffffffffffffffffffffffff1602179055506200019b838383620001a5640100000000026401000000009004565b5050505062000567565b60008060009054906101000a900473ffffffffffffffffffffffffffffffffffffffff1673ffffffffffffffffffffffffffffffffffffffff163373ffffffffffffffffffffffffffffffffffffffff161415156200020357600080fd5b825184511415156200027d576040517f08c379a00000000000000000000000000000000000000000000000000000000081526004018080602001828103825260038152602001807f453036000000000000000000000000000000000000000000000000000000000081525060200191505060405180910390fd5b81518451141515620002f7576040517f08c379a00000000000000000000000000000000000000000000000000000000081526004018080602001828103825260038152602001807f453037000000000000000000000000000000000000000000000000000000000081525060200191505060405180910390fd5b600090505b835181101562000378576200036a84828151811015156200031957fe5b9060200190602002015184838151811015156200033257fe5b9060200190602002015184848151811015156200034b57fe5b906020019060200201516200037e640100000000026401000000009004565b8080600101915050620002fc565b50505050565b6000809054906101000a900473ffffffffffffffffffffffffffffffffffffffff1673ffffffffffffffffffffffffffffffffffffffff163373ffffffffffffffffffffffffffffffffffffffff16141515620003da57600080fd5b600073ffffffffffffffffffffffffffffffffffffffff168373ffffffffffffffffffffffffffffffffffffffff161415151562000480576040517f08c379a00000000000000000000000000000000000000000000000000000000081526004018080602001828103825260038152602001807f453035000000000000000000000000000000000000000000000000000000000081525060200191505060405180910390fd5b60606040519081016040528083815260200182815260200142815250600360008573ffffffffffffffffffffffffffffffffffffffff1673ffffffffffffffffffffffffffffffffffffffff16815260200190815260200160002060008201518160000155602082015181600101556040820151816002015590505060048390806001815401808255809150509060018203906000526020600020016000909192909190916101000a81548173ffffffffffffffffffffffffffffffffffffffff021916908373ffffffffffffffffffffffffffffffffffffffff16021790555050505050565b61197980620005776000396000f3006080604052600436106100fc576000357c0100000000000000000000000000000000000000000000000000000000900463ffffffff1680630ba9d8ca146101015780631265b651146101585780632a53511c146101af57806336c5d724146101f25780634f64b2be1461021f578063715018a61461028c57806383ce2ea2146102a35780638da5cb5b146102d0578063903f16db146103275780639d63848a1461037e578063ac5115c5146103ea578063dee1f2af146104d6578063e46f7d511461052d578063f200abc214610584578063f2fde38b146105c5578063f40a044814610608578063f48e9fab14610633578063fe2a48621461069e575b600080fd5b34801561010d57600080fd5b50610142600480360381019080803573ffffffffffffffffffffffffffffffffffffffff169060200190929190505050610704565b6040518082815260200191505060405180910390f35b34801561016457600080fd5b5061016d610750565b604051808273ffffffffffffffffffffffffffffffffffffffff1673ffffffffffffffffffffffffffffffffffffffff16815260200191505060405180910390f35b3480156101bb57600080fd5b506101f0600480360381019080803573ffffffffffffffffffffffffffffffffffffffff16906020019092919050505061077a565b005b3480156101fe57600080fd5b5061021d600480360381019080803590602001909291905050506108be565b005b34801561022b57600080fd5b5061024a60048036038101908080359060200190929190505050610c05565b604051808273ffffffffffffffffffffffffffffffffffffffff1673ffffffffffffffffffffffffffffffffffffffff16815260200191505060405180910390f35b34801561029857600080fd5b506102a1610c43565b005b3480156102af57600080fd5b506102ce60048036038101908080359060200190929190505050610d45565b005b3480156102dc57600080fd5b506102e5610daa565b604051808273ffffffffffffffffffffffffffffffffffffffff1673ffffffffffffffffffffffffffffffffffffffff16815260200191505060405180910390f35b34801561033357600080fd5b50610368600480360381019080803573ffffffffffffffffffffffffffffffffffffffff169060200190929190505050610dcf565b6040518082815260200191505060405180910390f35b34801561038a57600080fd5b50610393610e1b565b6040518080602001828103825283818151815260200191508051906020019060200280838360005b838110156103d65780820151818401526020810190506103bb565b505050509050019250505060405180910390f35b3480156103f657600080fd5b506104d4600480360381019080803590602001908201803590602001908080602002602001604051908101604052809392919081815260200183836020028082843782019150505050505091929192908035906020019082018035906020019080806020026020016040519081016040528093929190818152602001838360200280828437820191505050505050919291929080359060200190820180359060200190808060200260200160405190810160405280939291908181526020018383602002808284378201915050505050509192919290505050610ea9565b005b3480156104e257600080fd5b5061052b600480360381019080803573ffffffffffffffffffffffffffffffffffffffff1690602001909291908035906020019092919080359060200190929190505050611069565b005b34801561053957600080fd5b5061056e600480360381019080803573ffffffffffffffffffffffffffffffffffffffff169060200190929190505050611250565b6040518082815260200191505060405180910390f35b34801561059057600080fd5b506105c360048036038101908080359060200190929190803590602001909291908035906020019092919050505061129c565b005b3480156105d157600080fd5b50610606600480360381019080803573ffffffffffffffffffffffffffffffffffffffff169060200190929190505050611531565b005b34801561061457600080fd5b5061061d611598565b6040518082815260200191505060405180910390f35b34801561063f57600080fd5b5061069c6004803603810190808035906020019082018035906020019190919293919293908035906020019082018035906020019190919293919293908035906020019082018035906020019190919293919293905050506115a2565b005b3480156106aa57600080fd5b5061070260048036038101908080359060200190820180359060200190808060200260200160405190810160405280939291908181526020018383602002808284378201915050505050509192919290505050611766565b005b6000600360008373ffffffffffffffffffffffffffffffffffffffff1673ffffffffffffffffffffffffffffffffffffffff168152602001908152602001600020600001549050919050565b6000600160009054906101000a900473ffffffffffffffffffffffffffffffffffffffff16905090565b6000809054906101000a900473ffffffffffffffffffffffffffffffffffffffff1673ffffffffffffffffffffffffffffffffffffffff163373ffffffffffffffffffffffffffffffffffffffff161415156107d557600080fd5b600073ffffffffffffffffffffffffffffffffffffffff168173ffffffffffffffffffffffffffffffffffffffff161415151561087a576040517f08c379a00000000000000000000000000000000000000000000000000000000081526004018080602001828103825260038152602001807f453031000000000000000000000000000000000000000000000000000000000081525060200191505060405180910390fd5b80600160006101000a81548173ffffffffffffffffffffffffffffffffffffffff021916908373ffffffffffffffffffffffffffffffffffffffff16021790555050565b6000809054906101000a900473ffffffffffffffffffffffffffffffffffffffff1673ffffffffffffffffffffffffffffffffffffffff163373ffffffffffffffffffffffffffffffffffffffff1614151561091957600080fd5b60048054905081101515610995576040517f08c379a00000000000000000000000000000000000000000000000000000000081526004018080602001828103825260038152602001807f453034000000000000000000000000000000000000000000000000000000000081525060200191505060405180910390fd5b600073ffffffffffffffffffffffffffffffffffffffff166004828154811015156109bc57fe5b9060005260206000200160009054906101000a900473ffffffffffffffffffffffffffffffffffffffff1673ffffffffffffffffffffffffffffffffffffffff1614151515610a73576040517f08c379a00000000000000000000000000000000000000000000000000000000081526004018080602001828103825260038152602001807f453035000000000000000000000000000000000000000000000000000000000081525060200191505060405180910390fd5b60036000600483815481101515610a8657fe5b9060005260206000200160009054906101000a900473ffffffffffffffffffffffffffffffffffffffff1673ffffffffffffffffffffffffffffffffffffffff1673ffffffffffffffffffffffffffffffffffffffff168152602001908152602001600020600080820160009055600182016000905560028201600090555050600481815481101515610b1557fe5b9060005260206000200160006101000a81549073ffffffffffffffffffffffffffffffffffffffff0219169055600160048054905003811015610bec576004600160048054905003815481101515610b6957fe5b9060005260206000200160009054906101000a900473ffffffffffffffffffffffffffffffffffffffff16600482815481101515610ba357fe5b9060005260206000200160006101000a81548173ffffffffffffffffffffffffffffffffffffffff021916908373ffffffffffffffffffffffffffffffffffffffff1602179055505b6004805480919060019003610c0191906118fc565b5050565b600481815481101515610c1457fe5b906000526020600020016000915054906101000a900473ffffffffffffffffffffffffffffffffffffffff1681565b6000809054906101000a900473ffffffffffffffffffffffffffffffffffffffff1673ffffffffffffffffffffffffffffffffffffffff163373ffffffffffffffffffffffffffffffffffffffff16141515610c9e57600080fd5b6000809054906101000a900473ffffffffffffffffffffffffffffffffffffffff1673ffffffffffffffffffffffffffffffffffffffff167ff8df31144d9c2f0f6b59d69b8b98abd5459d07f2742c4df920b25aae33c6482060405160405180910390a260008060006101000a81548173ffffffffffffffffffffffffffffffffffffffff021916908373ffffffffffffffffffffffffffffffffffffffff160217905550565b6000809054906101000a900473ffffffffffffffffffffffffffffffffffffffff1673ffffffffffffffffffffffffffffffffffffffff163373ffffffffffffffffffffffffffffffffffffffff16141515610da057600080fd5b8060028190555050565b6000809054906101000a900473ffffffffffffffffffffffffffffffffffffffff1681565b6000600360008373ffffffffffffffffffffffffffffffffffffffff1673ffffffffffffffffffffffffffffffffffffffff168152602001908152602001600020600101549050919050565b60606004805480602002602001604051908101604052809291908181526020018280548015610e9f57602002820191906000526020600020905b8160009054906101000a900473ffffffffffffffffffffffffffffffffffffffff1673ffffffffffffffffffffffffffffffffffffffff1681526020019060010190808311610e55575b5050505050905090565b60008060009054906101000a900473ffffffffffffffffffffffffffffffffffffffff1673ffffffffffffffffffffffffffffffffffffffff163373ffffffffffffffffffffffffffffffffffffffff16141515610f0657600080fd5b82518451141515610f7f576040517f08c379a00000000000000000000000000000000000000000000000000000000081526004018080602001828103825260038152602001807f453036000000000000000000000000000000000000000000000000000000000081525060200191505060405180910390fd5b81518451141515610ff8576040517f08c379a00000000000000000000000000000000000000000000000000000000081526004018080602001828103825260038152602001807f453037000000000000000000000000000000000000000000000000000000000081525060200191505060405180910390fd5b600090505b835181101561106357611056848281518110151561101757fe5b90602001906020020151848381518110151561102f57fe5b90602001906020020151848481518110151561104757fe5b90602001906020020151611069565b8080600101915050610ffd565b50505050565b6000809054906101000a900473ffffffffffffffffffffffffffffffffffffffff1673ffffffffffffffffffffffffffffffffffffffff163373ffffffffffffffffffffffffffffffffffffffff161415156110c457600080fd5b600073ffffffffffffffffffffffffffffffffffffffff168373ffffffffffffffffffffffffffffffffffffffff1614151515611169576040517f08c379a00000000000000000000000000000000000000000000000000000000081526004018080602001828103825260038152602001807f453035000000000000000000000000000000000000000000000000000000000081525060200191505060405180910390fd5b60606040519081016040528083815260200182815260200142815250600360008573ffffffffffffffffffffffffffffffffffffffff1673ffffffffffffffffffffffffffffffffffffffff16815260200190815260200160002060008201518160000155602082015181600101556040820151816002015590505060048390806001815401808255809150509060018203906000526020600020016000909192909190916101000a81548173ffffffffffffffffffffffffffffffffffffffff021916908373ffffffffffffffffffffffffffffffffffffffff16021790555050505050565b6000600360008373ffffffffffffffffffffffffffffffffffffffff1673ffffffffffffffffffffffffffffffffffffffff168152602001908152602001600020600201549050919050565b60008060009054906101000a900473ffffffffffffffffffffffffffffffffffffffff1673ffffffffffffffffffffffffffffffffffffffff163373ffffffffffffffffffffffffffffffffffffffff161415156112f957600080fd5b60048054905084101515611375576040517f08c379a00000000000000000000000000000000000000000000000000000000081526004018080602001828103825260038152602001807f453034000000000000000000000000000000000000000000000000000000000081525060200191505060405180910390fd5b60048481548110151561138457fe5b9060005260206000200160009054906101000a900473ffffffffffffffffffffffffffffffffffffffff169050600073ffffffffffffffffffffffffffffffffffffffff168173ffffffffffffffffffffffffffffffffffffffff1614151515611456576040517f08c379a00000000000000000000000000000000000000000000000000000000081526004018080602001828103825260038152602001807f453035000000000000000000000000000000000000000000000000000000000081525060200191505060405180910390fd5b82600360008373ffffffffffffffffffffffffffffffffffffffff1673ffffffffffffffffffffffffffffffffffffffff1681526020019081526020016000206000018190555081600360008373ffffffffffffffffffffffffffffffffffffffff1673ffffffffffffffffffffffffffffffffffffffff1681526020019081526020016000206001018190555042600360008373ffffffffffffffffffffffffffffffffffffffff1673ffffffffffffffffffffffffffffffffffffffff1681526020019081526020016000206002018190555050505050565b6000809054906101000a900473ffffffffffffffffffffffffffffffffffffffff1673ffffffffffffffffffffffffffffffffffffffff163373ffffffffffffffffffffffffffffffffffffffff1614151561158c57600080fd5b61159581611802565b50565b6000600254905090565b60008060009054906101000a900473ffffffffffffffffffffffffffffffffffffffff1673ffffffffffffffffffffffffffffffffffffffff163373ffffffffffffffffffffffffffffffffffffffff161415156115ff57600080fd5b848490508787905014151561167c576040517f08c379a00000000000000000000000000000000000000000000000000000000081526004018080602001828103825260038152602001807f453032000000000000000000000000000000000000000000000000000000000081525060200191505060405180910390fd5b82829050878790501415156116f9576040517f08c379a00000000000000000000000000000000000000000000000000000000081526004018080602001828103825260038152602001807f453033000000000000000000000000000000000000000000000000000000000081525060200191505060405180910390fd5b600090505b8686905081101561175d57611750878783818110151561171a57fe5b90506020020135868684818110151561172f57fe5b90506020020135858585818110151561174457fe5b9050602002013561129c565b80806001019150506116fe565b50505050505050565b60008060009054906101000a900473ffffffffffffffffffffffffffffffffffffffff1673ffffffffffffffffffffffffffffffffffffffff163373ffffffffffffffffffffffffffffffffffffffff161415156117c357600080fd5b600090505b81518110156117fe576117f182828151811015156117e257fe5b906020019060200201516108be565b80806001019150506117c8565b5050565b600073ffffffffffffffffffffffffffffffffffffffff168173ffffffffffffffffffffffffffffffffffffffff161415151561183e57600080fd5b8073ffffffffffffffffffffffffffffffffffffffff166000809054906101000a900473ffffffffffffffffffffffffffffffffffffffff1673ffffffffffffffffffffffffffffffffffffffff167f8be0079c531659141344cd1fd0a4f28419497f9722a3daafe3b4186f6b6457e060405160405180910390a3806000806101000a81548173ffffffffffffffffffffffffffffffffffffffff021916908373ffffffffffffffffffffffffffffffffffffffff16021790555050565b815481835581811115611923578183600052602060002091820191016119229190611928565b5b505050565b61194a91905b8082111561194657600081600090555060010161192e565b5090565b905600a165627a7a723058207ddc11c8a94a2054e28d1289a402890c066a912fd8e99f86f4549436f5bd4dba0029",
  "source": "pragma solidity ^0.4.24;\n\nimport \"./zeppelin/ownership/Ownable.sol\";\nimport \"./interface/IRates.sol\";\n\n\n/**\n * @title Rates\n * @dev Rates contract\n *\n * Stores the rates between a reference token and other tokens\n *\n * @author Cyril Lapinte - <cyril.lapinte@mtpelerin.com>\n *\n * Error messages\n * E01: Address of the reference token must be defined\n * E02: Cannot update more rates than tokens\n * E03: Cannot update more inverted rates than tokens\n * E04: Token Id does not exists\n * E05: Token address is not defined\n * E06: Cannot add more rates than tokens\n * E07: Cannot add more inverted rates than tokens\n*/\ncontract Rates is IRates, Ownable {\n\n  address public referenceToken;\n  uint256 public ratePrecision = 2;\n\n  struct Rate {\n    uint256 rate;\n    uint256 invertedRate;\n    uint256 updatedAt;\n  }\n  mapping(address => Rate) internal rates;\n  address[] public tokens;\n\n  /**\n   * @dev Constructor\n   */\n  constructor(\n    address _referenceToken,\n    address[] _tokens,\n    uint256[] _rates,\n    uint256[] _invertedRates) public\n  {\n    require(_referenceToken != address(0), \"E01\");\n    referenceToken = _referenceToken;\n    addManyTokens(_tokens, _rates, _invertedRates);\n  }\n\n  /**\n   * @dev Update many rates\n   */\n  function updateManyRates(\n    uint256[] _tokenIds,\n    uint256[] _rates,\n    uint256[] _invertedRates) external onlyOwner\n  {\n    require(_tokenIds.length == _rates.length, \"E02\");\n    require(_tokenIds.length == _invertedRates.length, \"E03\");\n\n    for (uint256 i = 0; i < _tokenIds.length ; i++) {\n      updateRate(_tokenIds[i], _rates[i], _invertedRates[i]);\n    }\n  }\n\n  /**\n   * @dev Return the reference token used to define the token rate against\n   */\n  function referenceToken() public view returns (address) {\n    return referenceToken;\n  }\n\n  /**\n   * @dev Return the number of digits after the decimal point for rate and invertedRate values\n   */\n  function ratePrecision() public view returns (uint256) {\n    return ratePrecision;\n  }\n\n  /**\n   * @dev Return the list of tokens inside the contract\n   */\n  function tokens() public view returns (address[]) {\n    return tokens;\n  }\n\n  /**\n   * @dev Return the rate for a token respectfully to the reference token\n   */\n  function rate(address _token) public view returns (uint256) {\n    return rates[_token].rate;\n  }\n\n  /**\n   * @dev Return the inverted rate for a token respectfully to the reference token\n   */\n  function invertedRate(address _token) public view returns (uint256) {\n    return rates[_token].invertedRate;\n  }\n\n  /**\n   * @dev Return the last time the rate was updated for a token\n   */\n  function updatedAt(address _token) public view returns (uint256) {\n    return rates[_token].updatedAt;\n  }\n\n  /**\n   * @dev Update a rate\n   */\n  function updateRate(uint256 _tokenId, uint256 _rate, uint256 _invertedRate)\n    public onlyOwner\n  {\n    require(_tokenId < tokens.length, \"E04\");\n    address token = tokens[_tokenId];\n    require(token != address(0), \"E05\");\n\n    rates[token].rate = _rate;\n    rates[token].invertedRate = _invertedRate;\n    // solium-disable-next-line security/no-block-members\n    rates[token].updatedAt = now;\n  }\n\n  /**\n   * @dev Add a token\n   */\n  function addToken(address _token, uint256 _rate, uint256 _invertedRate)\n    public onlyOwner\n  {\n    require(_token != address(0), \"E05\");\n    // solium-disable-next-line security/no-block-members\n    rates[_token] = Rate(_rate, _invertedRate, now);\n    tokens.push(_token);\n  }\n\n  /**\n   * @dev Add many tokens\n   */\n  function addManyTokens(\n    address[] _tokens,\n    uint256[] _rates,\n    uint256[] _invertedRates) public onlyOwner\n  {\n    require(_tokens.length == _rates.length, \"E06\");\n    require(_tokens.length == _invertedRates.length, \"E07\");\n\n    for (uint256 i = 0; i < _tokens.length ; i++) {\n      addToken(_tokens[i], _rates[i], _invertedRates[i]);\n    }\n  }\n\n  /**\n   * @dev Remove a token\n   */\n  function removeToken(uint256 _tokenId) public onlyOwner {\n    require(_tokenId < tokens.length, \"E04\");\n    require(tokens[_tokenId] != address(0), \"E05\");\n    delete rates[tokens[_tokenId]];\n    delete tokens[_tokenId];\n\n    if (_tokenId < tokens.length-1) {\n      tokens[_tokenId] = tokens[tokens.length-1];\n    }\n    tokens.length--;\n  }\n\n  /**\n   * @dev Remove many tokens\n   */\n  function removeManyTokens(uint256[] _tokenIds) public onlyOwner {\n    for (uint256 i = 0; i < _tokenIds.length; i++) {\n      removeToken(_tokenIds[i]);\n    }\n  }\n\n  /**\n   * @dev Update the reference token\n   */\n  function updateReferenceToken(address _referenceToken) public onlyOwner {\n    require(_referenceToken != address(0), \"E01\");\n    referenceToken = _referenceToken;\n  }\n\n  /**\n   * @dev Update the precision of rate values\n   */\n  function updateRatePrecision(uint256 _ratePrecision) public onlyOwner {\n    ratePrecision = _ratePrecision;\n  }\n}\n",
  "sourcePath": "/home/node/project/contracts/Rates.sol",
  "compiler": {
    "name": "solc",
    "version": "0.4.24+commit.e67f0147.Emscripten.clang"
  },
  "schemaVersion": "2.0.1",
  "updatedAt": "2018-08-15T14:19:55.847Z"
}