{
  "contractName": "Registry",
  "abi": [
    {
      "constant": false,
      "inputs": [],
      "name": "renounceOwnership",
      "outputs": [],
      "payable": false,
      "stateMutability": "nonpayable",
      "type": "function"
    },
    {
      "constant": true,
      "inputs": [],
      "name": "owner",
      "outputs": [
        {
          "name": "",
          "type": "address"
        }
      ],
      "payable": false,
      "stateMutability": "view",
      "type": "function"
    },
    {
      "constant": false,
      "inputs": [
        {
          "name": "_newOwner",
          "type": "address"
        }
      ],
      "name": "transferOwnership",
      "outputs": [],
      "payable": false,
      "stateMutability": "nonpayable",
      "type": "function"
    },
    {
      "inputs": [
        {
          "name": "_name",
          "type": "string"
        },
        {
          "name": "_addresses",
          "type": "address[]"
        }
      ],
      "payable": false,
      "stateMutability": "nonpayable",
      "type": "constructor"
    },
    {
      "anonymous": false,
      "inputs": [
        {
          "indexed": true,
          "name": "previousOwner",
          "type": "address"
        }
      ],
      "name": "OwnershipRenounced",
      "type": "event"
    },
    {
      "anonymous": false,
      "inputs": [
        {
          "indexed": true,
          "name": "previousOwner",
          "type": "address"
        },
        {
          "indexed": true,
          "name": "newOwner",
          "type": "address"
        }
      ],
      "name": "OwnershipTransferred",
      "type": "event"
    },
    {
      "anonymous": false,
      "inputs": [
        {
          "indexed": false,
          "name": "id",
          "type": "uint256"
        },
        {
          "indexed": false,
          "name": "newValue",
          "type": "address"
        }
      ],
      "name": "AddressAdded",
      "type": "event"
    },
    {
      "anonymous": false,
      "inputs": [
        {
          "indexed": false,
          "name": "id",
          "type": "uint256"
        },
        {
          "indexed": false,
          "name": "oldValue",
          "type": "address"
        }
      ],
      "name": "AddressRemoved",
      "type": "event"
    },
    {
      "anonymous": false,
      "inputs": [
        {
          "indexed": false,
          "name": "id",
          "type": "uint256"
        },
        {
          "indexed": false,
          "name": "newValue",
          "type": "address"
        },
        {
          "indexed": false,
          "name": "oldValue",
          "type": "address"
        }
      ],
      "name": "AddressReplaced",
      "type": "event"
    },
    {
      "constant": true,
      "inputs": [],
      "name": "name",
      "outputs": [
        {
          "name": "",
          "type": "string"
        }
      ],
      "payable": false,
      "stateMutability": "view",
      "type": "function"
    },
    {
      "constant": true,
      "inputs": [],
      "name": "addressLength",
      "outputs": [
        {
          "name": "",
          "type": "uint256"
        }
      ],
      "payable": false,
      "stateMutability": "view",
      "type": "function"
    },
    {
      "constant": true,
      "inputs": [
        {
          "name": "_id",
          "type": "uint256"
        }
      ],
      "name": "addressById",
      "outputs": [
        {
          "name": "",
          "type": "address"
        }
      ],
      "payable": false,
      "stateMutability": "view",
      "type": "function"
    },
    {
      "constant": false,
      "inputs": [
        {
          "name": "_address",
          "type": "address"
        }
      ],
      "name": "addAddress",
      "outputs": [
        {
          "name": "",
          "type": "uint256"
        }
      ],
      "payable": false,
      "stateMutability": "nonpayable",
      "type": "function"
    },
    {
      "constant": false,
      "inputs": [
        {
          "name": "_id",
          "type": "uint256"
        }
      ],
      "name": "removeAddressById",
      "outputs": [
        {
          "name": "",
          "type": "address"
        }
      ],
      "payable": false,
      "stateMutability": "nonpayable",
      "type": "function"
    },
    {
      "constant": false,
      "inputs": [
        {
          "name": "_id",
          "type": "uint256"
        },
        {
          "name": "_address",
          "type": "address"
        }
      ],
      "name": "replaceAddressById",
      "outputs": [
        {
          "name": "",
          "type": "address"
        }
      ],
      "payable": false,
      "stateMutability": "nonpayable",
      "type": "function"
    },
    {
      "constant": false,
      "inputs": [
        {
          "name": "_indexes",
          "type": "uint256[]"
        },
        {
          "name": "_addresses",
          "type": "address[]"
        }
      ],
      "name": "replaceManyAddressesByIds",
      "outputs": [],
      "payable": false,
      "stateMutability": "nonpayable",
      "type": "function"
    }
  ],
  "bytecode": "0x60806040523480156200001157600080fd5b5060405162001377380380620013778339810180604052810190808051820192919060200180518201929190505050336000806101000a81548173ffffffffffffffffffffffffffffffffffffffff021916908373ffffffffffffffffffffffffffffffffffffffff160217905550816002908051906020019062000098929190620000ba565b508060019080519060200190620000b192919062000141565b5050506200023e565b828054600181600116156101000203166002900490600052602060002090601f016020900481019282601f10620000fd57805160ff19168380011785556200012e565b828001600101855582156200012e579182015b828111156200012d57825182559160200191906001019062000110565b5b5090506200013d9190620001d0565b5090565b828054828255906000526020600020908101928215620001bd579160200282015b82811115620001bc5782518260006101000a81548173ffffffffffffffffffffffffffffffffffffffff021916908373ffffffffffffffffffffffffffffffffffffffff1602179055509160200191906001019062000162565b5b509050620001cc9190620001f8565b5090565b620001f591905b80821115620001f1576000816000905550600101620001d7565b5090565b90565b6200023b91905b808211156200023757600081816101000a81549073ffffffffffffffffffffffffffffffffffffffff021916905550600101620001ff565b5090565b90565b611129806200024e6000396000f3006080604052600436106100a4576000357c0100000000000000000000000000000000000000000000000000000000900463ffffffff16806306fdde03146100a957806311ec47cd1461013957806338eada1c146101a657806341576020146101fd578063715018a61461028a57806387d3a024146102a15780638da5cb5b1461030e578063dc88188814610365578063ef5344f614610390578063f2fde38b14610439575b600080fd5b3480156100b557600080fd5b506100be61047c565b6040518080602001828103825283818151815260200191508051906020019080838360005b838110156100fe5780820151818401526020810190506100e3565b50505050905090810190601f16801561012b5780820380516001836020036101000a031916815260200191505b509250505060405180910390f35b34801561014557600080fd5b506101646004803603810190808035906020019092919050505061051e565b604051808273ffffffffffffffffffffffffffffffffffffffff1673ffffffffffffffffffffffffffffffffffffffff16815260200191505060405180910390f35b3480156101b257600080fd5b506101e7600480360381019080803573ffffffffffffffffffffffffffffffffffffffff169060200190929190505050610766565b6040518082815260200191505060405180910390f35b34801561020957600080fd5b5061024860048036038101908080359060200190929190803573ffffffffffffffffffffffffffffffffffffffff1690602001909291905050506108a6565b604051808273ffffffffffffffffffffffffffffffffffffffff1673ffffffffffffffffffffffffffffffffffffffff16815260200191505060405180910390f35b34801561029657600080fd5b5061029f610abd565b005b3480156102ad57600080fd5b506102cc60048036038101908080359060200190929190505050610bbf565b604051808273ffffffffffffffffffffffffffffffffffffffff1673ffffffffffffffffffffffffffffffffffffffff16815260200191505060405180910390f35b34801561031a57600080fd5b50610323610c02565b604051808273ffffffffffffffffffffffffffffffffffffffff1673ffffffffffffffffffffffffffffffffffffffff16815260200191505060405180910390f35b34801561037157600080fd5b5061037a610c27565b6040518082815260200191505060405180910390f35b34801561039c57600080fd5b506104376004803603810190808035906020019082018035906020019080806020026020016040519081016040528093929190818152602001838360200280828437820191505050505050919291929080359060200190820180359060200190808060200260200160405190810160405280939291908181526020018383602002808284378201915050505050509192919290505050610c34565b005b34801561044557600080fd5b5061047a600480360381019080803573ffffffffffffffffffffffffffffffffffffffff169060200190929190505050610f4b565b005b606060028054600181600116156101000203166002900480601f0160208091040260200160405190810160405280929190818152602001828054600181600116156101000203166002900480156105145780601f106104e957610100808354040283529160200191610514565b820191906000526020600020905b8154815290600101906020018083116104f757829003601f168201915b5050505050905090565b6000806000809054906101000a900473ffffffffffffffffffffffffffffffffffffffff1673ffffffffffffffffffffffffffffffffffffffff163373ffffffffffffffffffffffffffffffffffffffff1614151561057c57600080fd5b600180549050831015156105f8576040517f08c379a00000000000000000000000000000000000000000000000000000000081526004018080602001828103825260038152602001807f453031000000000000000000000000000000000000000000000000000000000081525060200191505060405180910390fd5b60018381548110151561060757fe5b9060005260206000200160009054906101000a900473ffffffffffffffffffffffffffffffffffffffff1690506001808054905003831415156106dc5760018080805490500381548110151561065957fe5b9060005260206000200160009054906101000a900473ffffffffffffffffffffffffffffffffffffffff1660018481548110151561069357fe5b9060005260206000200160006101000a81548173ffffffffffffffffffffffffffffffffffffffff021916908373ffffffffffffffffffffffffffffffffffffffff1602179055505b60018054809190600190036106f191906110ac565b507fc7120a00a251890416360c3add60c9843cb4a5ed80a7761c3b3be917c24f71e28382604051808381526020018273ffffffffffffffffffffffffffffffffffffffff1673ffffffffffffffffffffffffffffffffffffffff1681526020019250505060405180910390a180915050919050565b60008060009054906101000a900473ffffffffffffffffffffffffffffffffffffffff1673ffffffffffffffffffffffffffffffffffffffff163373ffffffffffffffffffffffffffffffffffffffff161415156107c357600080fd5b60018290806001815401808255809150509060018203906000526020600020016000909192909190916101000a81548173ffffffffffffffffffffffffffffffffffffffff021916908373ffffffffffffffffffffffffffffffffffffffff160217905550507fedec6416a94b784dc98025e70b146d8d8628117664f0da05822fc95132bc4f5860018054905083604051808381526020018273ffffffffffffffffffffffffffffffffffffffff1673ffffffffffffffffffffffffffffffffffffffff1681526020019250505060405180910390a16001805490509050919050565b6000806000809054906101000a900473ffffffffffffffffffffffffffffffffffffffff1673ffffffffffffffffffffffffffffffffffffffff163373ffffffffffffffffffffffffffffffffffffffff1614151561090457600080fd5b60018054905084101515610980576040517f08c379a00000000000000000000000000000000000000000000000000000000081526004018080602001828103825260038152602001807f453031000000000000000000000000000000000000000000000000000000000081525060200191505060405180910390fd5b60018481548110151561098f57fe5b9060005260206000200160009054906101000a900473ffffffffffffffffffffffffffffffffffffffff169050826001858154811015156109cc57fe5b9060005260206000200160006101000a81548173ffffffffffffffffffffffffffffffffffffffff021916908373ffffffffffffffffffffffffffffffffffffffff1602179055507f15165ce1e8a3d170bd3d5c2ec665fbc9c097e98ee7b39b56ee102d5cc9a7a5b7848483604051808481526020018373ffffffffffffffffffffffffffffffffffffffff1673ffffffffffffffffffffffffffffffffffffffff1681526020018273ffffffffffffffffffffffffffffffffffffffff1673ffffffffffffffffffffffffffffffffffffffff168152602001935050505060405180910390a18091505092915050565b6000809054906101000a900473ffffffffffffffffffffffffffffffffffffffff1673ffffffffffffffffffffffffffffffffffffffff163373ffffffffffffffffffffffffffffffffffffffff16141515610b1857600080fd5b6000809054906101000a900473ffffffffffffffffffffffffffffffffffffffff1673ffffffffffffffffffffffffffffffffffffffff167ff8df31144d9c2f0f6b59d69b8b98abd5459d07f2742c4df920b25aae33c6482060405160405180910390a260008060006101000a81548173ffffffffffffffffffffffffffffffffffffffff021916908373ffffffffffffffffffffffffffffffffffffffff160217905550565b6000600182815481101515610bd057fe5b9060005260206000200160009054906101000a900473ffffffffffffffffffffffffffffffffffffffff169050919050565b6000809054906101000a900473ffffffffffffffffffffffffffffffffffffffff1681565b6000600180549050905090565b6000806000809054906101000a900473ffffffffffffffffffffffffffffffffffffffff1673ffffffffffffffffffffffffffffffffffffffff163373ffffffffffffffffffffffffffffffffffffffff16141515610c9257600080fd5b60008451111515610d0b576040517f08c379a00000000000000000000000000000000000000000000000000000000081526004018080602001828103825260038152602001807f453032000000000000000000000000000000000000000000000000000000000081525060200191505060405180910390fd5b82518451141515610d84576040517f08c379a00000000000000000000000000000000000000000000000000000000081526004018080602001828103825260038152602001807f453033000000000000000000000000000000000000000000000000000000000081525060200191505060405180910390fd5b600091505b8351821015610f455760018483815181101515610da257fe5b90602001906020020151815481101515610db857fe5b9060005260206000200160009054906101000a900473ffffffffffffffffffffffffffffffffffffffff1690508282815181101515610df357fe5b9060200190602002015160018584815181101515610e0d57fe5b90602001906020020151815481101515610e2357fe5b9060005260206000200160006101000a81548173ffffffffffffffffffffffffffffffffffffffff021916908373ffffffffffffffffffffffffffffffffffffffff1602179055507f15165ce1e8a3d170bd3d5c2ec665fbc9c097e98ee7b39b56ee102d5cc9a7a5b78483815181101515610e9a57fe5b906020019060200201518484815181101515610eb257fe5b9060200190602002015183604051808481526020018373ffffffffffffffffffffffffffffffffffffffff1673ffffffffffffffffffffffffffffffffffffffff1681526020018273ffffffffffffffffffffffffffffffffffffffff1673ffffffffffffffffffffffffffffffffffffffff168152602001935050505060405180910390a18180600101925050610d89565b50505050565b6000809054906101000a900473ffffffffffffffffffffffffffffffffffffffff1673ffffffffffffffffffffffffffffffffffffffff163373ffffffffffffffffffffffffffffffffffffffff16141515610fa657600080fd5b610faf81610fb2565b50565b600073ffffffffffffffffffffffffffffffffffffffff168173ffffffffffffffffffffffffffffffffffffffff1614151515610fee57600080fd5b8073ffffffffffffffffffffffffffffffffffffffff166000809054906101000a900473ffffffffffffffffffffffffffffffffffffffff1673ffffffffffffffffffffffffffffffffffffffff167f8be0079c531659141344cd1fd0a4f28419497f9722a3daafe3b4186f6b6457e060405160405180910390a3806000806101000a81548173ffffffffffffffffffffffffffffffffffffffff021916908373ffffffffffffffffffffffffffffffffffffffff16021790555050565b8154818355818111156110d3578183600052602060002091820191016110d291906110d8565b5b505050565b6110fa91905b808211156110f65760008160009055506001016110de565b5090565b905600a165627a7a723058203c63ae8ad8cf2d8d8c2e29a4de07f9b26b6cdacac1e168547edb91858b3271c60029",
  "source": "pragma solidity ^0.4.24;\n\nimport \"./interface/IRegistry.sol\";\nimport \"./zeppelin/ownership/Ownable.sol\";\n\n\n/**\n * @title Registry\n * @dev Registry contract\n * This contract store addresses only updatable by the owner.\n *\n * @author Cyril Lapinte - <cyril.lapinte@mtpelerin.com>\n *\n * Error messages\n * E01: address Id does not exist\n * E02: ids cannot be empty\n * E03: addresses must match with ids\n*/\ncontract Registry is IRegistry, Ownable {\n  address[] internal addresses;\n  string public name;\n\n  /**\n   * @dev Constructor\n   */\n  constructor(string _name, address[] _addresses) public {\n    name = _name;\n    addresses = _addresses;\n  }\n\n  /**\n   * @dev getter need to be declared to comply with IRegistry interface\n   */\n  function name() public view returns (string) {\n    return name;\n  }\n\n   /**\n   * @dev called to get the count of addresses in the Registry\n   */\n  function addressLength() public view returns (uint256) {\n    return addresses.length;\n  }\n\n  /**\n   * @dev called to get the address at a specific index \n   **/\n  function addressById(uint256 _id) public view returns (address) {\n    return addresses[_id];\n  }\n\n  /**\n   * @dev called by the owner to add an address to the registry\n   **/\n  function addAddress(address _address) public onlyOwner returns (uint256) {\n    addresses.push(_address);\n    emit AddressAdded(addresses.length, _address);\n    return addresses.length;\n  }\n\n  /**\n   * @dev called by the owner to remove an address at a specific index \n   **/\n  function removeAddressById(uint256 _id) public onlyOwner returns (address) {\n    require(_id < addresses.length, \"E01\");\n    address result = addresses[_id];\n\n    if (_id != addresses.length-1) {\n      addresses[_id] = addresses[addresses.length-1];\n    }\n    addresses.length--;\n    emit AddressRemoved(_id, result);\n    return result;\n  }\n\n  /**\n   * @dev called by the owner to replace the address at a specific index \n   **/\n  function replaceAddressById(uint256 _id, address _address)\n    public onlyOwner returns (address)\n  {\n    require(_id < addresses.length, \"E01\");\n    address result = addresses[_id];\n\n    addresses[_id] = _address;\n    emit AddressReplaced(_id, _address, result);\n    return result;\n  }\n\n  /**\n   * @dev called by the owner to replace many the addresses at specific indexes\n   **/\n  function replaceManyAddressesByIds(uint256[] _indexes, address[] _addresses)\n    public onlyOwner\n  {\n    require(_indexes.length > 0, \"E02\");\n    require(_indexes.length == _addresses.length, \"E03\");\n    for (uint256 i = 0; i<_indexes.length ; i++) {\n      address result = addresses[_indexes[i]];\n      addresses[_indexes[i]] = _addresses[i];\n      emit AddressReplaced(_indexes[i], _addresses[i], result);\n    }\n  }\n}\n",
  "sourcePath": "/home/node/project/contracts/Registry.sol",
  "compiler": {
    "name": "solc",
    "version": "0.4.24+commit.e67f0147.Emscripten.clang"
  },
  "schemaVersion": "2.0.1",
  "updatedAt": "2018-08-15T14:19:55.830Z"
}