{
  "contractName": "SaleConfigMock",
  "abi": [
    {
      "constant": true,
      "inputs": [],
      "name": "tokensaleLot2SharePercent",
      "outputs": [
        {
          "name": "",
          "type": "uint256"
        }
      ],
      "payable": false,
      "stateMutability": "pure",
      "type": "function"
    },
    {
      "constant": true,
      "inputs": [],
      "name": "duration",
      "outputs": [
        {
          "name": "",
          "type": "uint256"
        }
      ],
      "payable": false,
      "stateMutability": "view",
      "type": "function"
    },
    {
      "constant": true,
      "inputs": [],
      "name": "tokensaleLot1HardCapCHF",
      "outputs": [
        {
          "name": "",
          "type": "uint256"
        }
      ],
      "payable": false,
      "stateMutability": "pure",
      "type": "function"
    },
    {
      "constant": true,
      "inputs": [],
      "name": "TOKENIZED_SHARE_PERCENT",
      "outputs": [
        {
          "name": "",
          "type": "uint256"
        }
      ],
      "payable": false,
      "stateMutability": "view",
      "type": "function"
    },
    {
      "constant": true,
      "inputs": [],
      "name": "DURATION",
      "outputs": [
        {
          "name": "",
          "type": "uint256"
        }
      ],
      "payable": false,
      "stateMutability": "view",
      "type": "function"
    },
    {
      "constant": true,
      "inputs": [],
      "name": "termsOfSaleHash",
      "outputs": [
        {
          "name": "",
          "type": "bytes32"
        }
      ],
      "payable": false,
      "stateMutability": "pure",
      "type": "function"
    },
    {
      "constant": true,
      "inputs": [],
      "name": "TOKENSALE_LOT1_HARDCAP_CHF_CENT",
      "outputs": [
        {
          "name": "",
          "type": "uint256"
        }
      ],
      "payable": false,
      "stateMutability": "view",
      "type": "function"
    },
    {
      "constant": true,
      "inputs": [],
      "name": "RESERVED_SUPPLY",
      "outputs": [
        {
          "name": "",
          "type": "uint256"
        }
      ],
      "payable": false,
      "stateMutability": "view",
      "type": "function"
    },
    {
      "constant": true,
      "inputs": [],
      "name": "MINT_DELAY",
      "outputs": [
        {
          "name": "",
          "type": "uint256"
        }
      ],
      "payable": false,
      "stateMutability": "view",
      "type": "function"
    },
    {
      "constant": true,
      "inputs": [],
      "name": "reservedSupply",
      "outputs": [
        {
          "name": "",
          "type": "uint256"
        }
      ],
      "payable": false,
      "stateMutability": "pure",
      "type": "function"
    },
    {
      "constant": true,
      "inputs": [],
      "name": "closingTime",
      "outputs": [
        {
          "name": "",
          "type": "uint256"
        }
      ],
      "payable": false,
      "stateMutability": "view",
      "type": "function"
    },
    {
      "constant": true,
      "inputs": [],
      "name": "OPENING_TIME",
      "outputs": [
        {
          "name": "",
          "type": "uint256"
        }
      ],
      "payable": false,
      "stateMutability": "view",
      "type": "function"
    },
    {
      "constant": true,
      "inputs": [],
      "name": "TOKENSALE_LOT2_SUPPLY",
      "outputs": [
        {
          "name": "",
          "type": "uint256"
        }
      ],
      "payable": false,
      "stateMutability": "view",
      "type": "function"
    },
    {
      "constant": true,
      "inputs": [],
      "name": "TOKENS_AMOUNT_PER_CHF_CENT",
      "outputs": [
        {
          "name": "",
          "type": "uint256"
        }
      ],
      "payable": false,
      "stateMutability": "view",
      "type": "function"
    },
    {
      "constant": true,
      "inputs": [],
      "name": "MINIMAL_ETH_INVESTMENT",
      "outputs": [
        {
          "name": "",
          "type": "uint256"
        }
      ],
      "payable": false,
      "stateMutability": "view",
      "type": "function"
    },
    {
      "constant": true,
      "inputs": [],
      "name": "tokensAmountPerCHF",
      "outputs": [
        {
          "name": "",
          "type": "uint256"
        }
      ],
      "payable": false,
      "stateMutability": "pure",
      "type": "function"
    },
    {
      "constant": true,
      "inputs": [],
      "name": "tokensaleLot1SharePercent",
      "outputs": [
        {
          "name": "",
          "type": "uint256"
        }
      ],
      "payable": false,
      "stateMutability": "pure",
      "type": "function"
    },
    {
      "constant": true,
      "inputs": [],
      "name": "tokensaleLot1Supply",
      "outputs": [
        {
          "name": "",
          "type": "uint256"
        }
      ],
      "payable": false,
      "stateMutability": "pure",
      "type": "function"
    },
    {
      "constant": true,
      "inputs": [],
      "name": "tokenSupply",
      "outputs": [
        {
          "name": "",
          "type": "uint256"
        }
      ],
      "payable": false,
      "stateMutability": "pure",
      "type": "function"
    },
    {
      "constant": true,
      "inputs": [],
      "name": "tokensaleLot2Supply",
      "outputs": [
        {
          "name": "",
          "type": "uint256"
        }
      ],
      "payable": false,
      "stateMutability": "pure",
      "type": "function"
    },
    {
      "constant": true,
      "inputs": [],
      "name": "TERMS_OF_SALE_HASH",
      "outputs": [
        {
          "name": "",
          "type": "bytes32"
        }
      ],
      "payable": false,
      "stateMutability": "view",
      "type": "function"
    },
    {
      "constant": true,
      "inputs": [],
      "name": "TOKEN_SUPPLY",
      "outputs": [
        {
          "name": "",
          "type": "uint256"
        }
      ],
      "payable": false,
      "stateMutability": "view",
      "type": "function"
    },
    {
      "constant": true,
      "inputs": [],
      "name": "openingTime",
      "outputs": [
        {
          "name": "",
          "type": "uint256"
        }
      ],
      "payable": false,
      "stateMutability": "view",
      "type": "function"
    },
    {
      "constant": true,
      "inputs": [],
      "name": "tokenizedSharePercent",
      "outputs": [
        {
          "name": "",
          "type": "uint256"
        }
      ],
      "payable": false,
      "stateMutability": "pure",
      "type": "function"
    },
    {
      "constant": true,
      "inputs": [],
      "name": "TOKENSALE_LOT1_SHARE_PERCENT",
      "outputs": [
        {
          "name": "",
          "type": "uint256"
        }
      ],
      "payable": false,
      "stateMutability": "view",
      "type": "function"
    },
    {
      "constant": true,
      "inputs": [],
      "name": "TOKENSALE_LOT2_SHARE_PERCENT",
      "outputs": [
        {
          "name": "",
          "type": "uint256"
        }
      ],
      "payable": false,
      "stateMutability": "view",
      "type": "function"
    },
    {
      "constant": true,
      "inputs": [],
      "name": "TOKENSALE_LOT1_SUPPLY",
      "outputs": [
        {
          "name": "",
          "type": "uint256"
        }
      ],
      "payable": false,
      "stateMutability": "view",
      "type": "function"
    },
    {
      "constant": true,
      "inputs": [],
      "name": "mintingDelay",
      "outputs": [
        {
          "name": "",
          "type": "uint256"
        }
      ],
      "payable": false,
      "stateMutability": "view",
      "type": "function"
    },
    {
      "constant": true,
      "inputs": [],
      "name": "minimalETHInvestment",
      "outputs": [
        {
          "name": "",
          "type": "uint256"
        }
      ],
      "payable": false,
      "stateMutability": "pure",
      "type": "function"
    }
  ],
  "bytecode": "0x608060405234801561001057600080fd5b506108b2806100206000396000f300608060405260043610610174576000357c0100000000000000000000000000000000000000000000000000000000900463ffffffff168062ecf1ed146101795780630fb5a6b4146101a45780631924f551146101cf5780631bb8d2f2146101fa5780631be052891461022557806325cf7f161461025057806327d95ce81461028357806331a53e9a146102ae57806344439244146102d957806344d19d2b146103045780634b6753bc1461032f5780635200d6431461035a5780635bcdb342146103855780635becf4b7146103b057806363265a0a146103db578063686054ac14610406578063699eb5e3146104315780636b5724ff1461045c5780636e493cfe146104875780637824407f146104b257806399c04e05146104dd578063a5e717c114610508578063b152f6cf1461053b578063b7a8807c14610566578063cea1c81514610591578063d9080011146105bc578063dd9dd56f146105e7578063fa2d41bc14610612578063ffbfb7c71461063d575b600080fd5b34801561018557600080fd5b5061018e610668565b6040518082815260200191505060405180910390f35b3480156101b057600080fd5b506101b961067e565b6040518082815260200191505060405180910390f35b3480156101db57600080fd5b506101e4610689565b6040518082815260200191505060405180910390f35b34801561020657600080fd5b5061020f610695565b6040518082815260200191505060405180910390f35b34801561023157600080fd5b5061023a61069a565b6040518082815260200191505060405180910390f35b34801561025c57600080fd5b506102656106a1565b60405180826000191660001916815260200191505060405180910390f35b34801561028f57600080fd5b506102986106cc565b6040518082815260200191505060405180910390f35b3480156102ba57600080fd5b506102c36106d4565b6040518082815260200191505060405180910390f35b3480156102e557600080fd5b506102ee6106fd565b6040518082815260200191505060405180910390f35b34801561031057600080fd5b50610319610704565b6040518082815260200191505060405180910390f35b34801561033b57600080fd5b50610344610731565b6040518082815260200191505060405180910390f35b34801561036657600080fd5b5061036f610742565b6040518082815260200191505060405180910390f35b34801561039157600080fd5b5061039a61074a565b6040518082815260200191505060405180910390f35b3480156103bc57600080fd5b506103c5610753565b6040518082815260200191505060405180910390f35b3480156103e757600080fd5b506103f0610762565b6040518082815260200191505060405180910390f35b34801561041257600080fd5b5061041b610780565b6040518082815260200191505060405180910390f35b34801561043d57600080fd5b5061044661078c565b6040518082815260200191505060405180910390f35b34801561046857600080fd5b506104716107ae565b6040518082815260200191505060405180910390f35b34801561049357600080fd5b5061049c6107c4565b6040518082815260200191505060405180910390f35b3480156104be57600080fd5b506104c76107d7565b6040518082815260200191505060405180910390f35b3480156104e957600080fd5b506104f26107ea565b6040518082815260200191505060405180910390f35b34801561051457600080fd5b5061051d6107fd565b60405180826000191660001916815260200191505060405180910390f35b34801561054757600080fd5b50610550610824565b6040518082815260200191505060405180910390f35b34801561057257600080fd5b5061057b610833565b6040518082815260200191505060405180910390f35b34801561059d57600080fd5b506105a661083f565b6040518082815260200191505060405180910390f35b3480156105c857600080fd5b506105d1610848565b6040518082815260200191505060405180910390f35b3480156105f357600080fd5b506105fc61085a565b6040518082815260200191505060405180910390f35b34801561061e57600080fd5b5061062761086c565b6040518082815260200191505060405180910390f35b34801561064957600080fd5b5061065261087b565b6040518082815260200191505060405180910390f35b6000601561057881151561067857fe5b04905090565b60006202a300905090565b6000630ee6b280905090565b601581565b6202a30081565b60007fe3b0c44298fc1c149afbf4c8996fb92427ae41e4649b934ca495991b7852b855600102905090565b630ee6b28081565b6a0b949d854f34fece0000006a0422ca8b0a00a425000000016a115eec47f6cf7e350000000381565b6202a30081565b60006a0b949d854f34fece0000006a0422ca8b0a00a425000000016a115eec47f6cf7e3500000003905090565b60006202a300635c2aad8001905090565b635c2aad8081565b6000600a905090565b6a0b949d854f34fece00000081565b630ee6b2806a0422ca8b0a00a42500000081151561077c57fe5b0481565b67016345785d8a000081565b6000630ee6b2806a0422ca8b0a00a4250000008115156107a857fe5b04905090565b600060156101f48115156107be57fe5b04905090565b60006a0422ca8b0a00a425000000905090565b60006a115eec47f6cf7e35000000905090565b60006a0b949d854f34fece000000905090565b7fe3b0c44298fc1c149afbf4c8996fb92427ae41e4649b934ca495991b7852b85560010281565b6a115eec47f6cf7e3500000081565b6000635c2aad80905090565b60006015905090565b60156101f481151561085657fe5b0481565b601561057881151561086857fe5b0481565b6a0422ca8b0a00a42500000081565b60006202a3009050905600a165627a7a72305820b45a5cedbda86550647cf4fbc59b4f9cc519a0db1929e09481689f5d0458eac30029",
  "source": "pragma solidity ^0.4.24;\n\nimport \"../tokensale/MPLSaleConfig.sol\";\n\n\n/**\n * @title SaleConfigMock\n * @dev SaleConfigMock contract\n * The contract is a configuration mock for a tokensale\n *\n * @author Cyril Lapinte - <cyril.lapinte@mtpelerin.com>\n */\ncontract SaleConfigMock is MPLSaleConfig {\n\n/*  function tokensaleLot1HardCapCHF() public pure returns (uint256) {\n    return 500000000;\n  }\n\n  function tokensaleLot1Supply() public pure returns (uint256) {\n    return 5 * 10 ** 24;\n  }\n */\n  function minimalETHInvestment() public pure returns (uint256) {\n    return 10;\n  }\n}\n",
  "sourcePath": "/home/node/project/contracts/mock/SaleConfigMock.sol",
  "compiler": {
    "name": "solc",
    "version": "0.4.24+commit.e67f0147.Emscripten.clang"
  },
  "schemaVersion": "2.0.1",
  "updatedAt": "2018-08-15T14:19:55.916Z"
}