{
  "contractName": "SecretVoting",
  "abi": [
    {
      "constant": true,
      "inputs": [],
      "name": "proposalsCount",
      "outputs": [
        {
          "name": "",
          "type": "uint256"
        }
      ],
      "payable": false,
      "stateMutability": "view",
      "type": "function"
    },
    {
      "constant": true,
      "inputs": [
        {
          "name": "_proposalId",
          "type": "uint256"
        }
      ],
      "name": "isOnGoing",
      "outputs": [
        {
          "name": "",
          "type": "bool"
        }
      ],
      "payable": false,
      "stateMutability": "view",
      "type": "function"
    },
    {
      "constant": true,
      "inputs": [],
      "name": "areAnyOnGoing",
      "outputs": [
        {
          "name": "",
          "type": "bool"
        }
      ],
      "payable": false,
      "stateMutability": "view",
      "type": "function"
    },
    {
      "constant": false,
      "inputs": [
        {
          "name": "_proposalId",
          "type": "uint256"
        },
        {
          "name": "_option",
          "type": "uint8"
        }
      ],
      "name": "lockVote",
      "outputs": [],
      "payable": false,
      "stateMutability": "nonpayable",
      "type": "function"
    },
    {
      "constant": true,
      "inputs": [],
      "name": "defaultDuration",
      "outputs": [
        {
          "name": "",
          "type": "uint256"
        }
      ],
      "payable": false,
      "stateMutability": "view",
      "type": "function"
    },
    {
      "constant": true,
      "inputs": [],
      "name": "latestVotingTime",
      "outputs": [
        {
          "name": "",
          "type": "uint256"
        }
      ],
      "payable": false,
      "stateMutability": "view",
      "type": "function"
    },
    {
      "constant": true,
      "inputs": [
        {
          "name": "_proposalId",
          "type": "uint256"
        }
      ],
      "name": "result",
      "outputs": [
        {
          "name": "",
          "type": "uint256"
        }
      ],
      "payable": false,
      "stateMutability": "view",
      "type": "function"
    },
    {
      "constant": true,
      "inputs": [
        {
          "name": "_proposalId",
          "type": "uint256"
        }
      ],
      "name": "voteQuorum",
      "outputs": [
        {
          "name": "",
          "type": "uint256"
        }
      ],
      "payable": false,
      "stateMutability": "view",
      "type": "function"
    },
    {
      "constant": true,
      "inputs": [
        {
          "name": "_proposalId",
          "type": "uint256"
        }
      ],
      "name": "participation",
      "outputs": [
        {
          "name": "",
          "type": "uint256"
        }
      ],
      "payable": false,
      "stateMutability": "view",
      "type": "function"
    },
    {
      "constant": true,
      "inputs": [
        {
          "name": "_proposalId",
          "type": "uint256"
        }
      ],
      "name": "proposalHash",
      "outputs": [
        {
          "name": "",
          "type": "uint256"
        }
      ],
      "payable": false,
      "stateMutability": "view",
      "type": "function"
    },
    {
      "constant": true,
      "inputs": [
        {
          "name": "_proposalId",
          "type": "uint256"
        }
      ],
      "name": "proposalCreatedAt",
      "outputs": [
        {
          "name": "",
          "type": "uint256"
        }
      ],
      "payable": false,
      "stateMutability": "view",
      "type": "function"
    },
    {
      "constant": true,
      "inputs": [
        {
          "name": "_proposalId",
          "type": "uint256"
        }
      ],
      "name": "voteMinScore",
      "outputs": [
        {
          "name": "",
          "type": "uint256"
        }
      ],
      "payable": false,
      "stateMutability": "view",
      "type": "function"
    },
    {
      "constant": false,
      "inputs": [
        {
          "name": "_proposalId",
          "type": "uint256"
        }
      ],
      "name": "closeVote",
      "outputs": [],
      "payable": false,
      "stateMutability": "nonpayable",
      "type": "function"
    },
    {
      "constant": true,
      "inputs": [],
      "name": "defaultQuorum",
      "outputs": [
        {
          "name": "",
          "type": "uint256"
        }
      ],
      "payable": false,
      "stateMutability": "view",
      "type": "function"
    },
    {
      "constant": false,
      "inputs": [],
      "name": "renounceOwnership",
      "outputs": [],
      "payable": false,
      "stateMutability": "nonpayable",
      "type": "function"
    },
    {
      "constant": true,
      "inputs": [
        {
          "name": "_proposalId",
          "type": "uint256"
        }
      ],
      "name": "voteDuration",
      "outputs": [
        {
          "name": "",
          "type": "uint256"
        }
      ],
      "payable": false,
      "stateMutability": "view",
      "type": "function"
    },
    {
      "constant": true,
      "inputs": [
        {
          "name": "_proposalId",
          "type": "uint256"
        }
      ],
      "name": "proposalUrl",
      "outputs": [
        {
          "name": "",
          "type": "string"
        }
      ],
      "payable": false,
      "stateMutability": "view",
      "type": "function"
    },
    {
      "constant": true,
      "inputs": [
        {
          "name": "_proposalId",
          "type": "uint256"
        },
        {
          "name": "_participant",
          "type": "address"
        }
      ],
      "name": "optionVoted",
      "outputs": [
        {
          "name": "",
          "type": "uint8"
        }
      ],
      "payable": false,
      "stateMutability": "view",
      "type": "function"
    },
    {
      "constant": true,
      "inputs": [],
      "name": "defaultMinScore",
      "outputs": [
        {
          "name": "",
          "type": "uint256"
        }
      ],
      "payable": false,
      "stateMutability": "view",
      "type": "function"
    },
    {
      "constant": true,
      "inputs": [],
      "name": "owner",
      "outputs": [
        {
          "name": "",
          "type": "address"
        }
      ],
      "payable": false,
      "stateMutability": "view",
      "type": "function"
    },
    {
      "constant": false,
      "inputs": [
        {
          "name": "_question",
          "type": "string"
        },
        {
          "name": "_url",
          "type": "string"
        },
        {
          "name": "_hash",
          "type": "uint256"
        },
        {
          "name": "_optionsAvailable",
          "type": "uint8"
        }
      ],
      "name": "addProposal",
      "outputs": [],
      "payable": false,
      "stateMutability": "nonpayable",
      "type": "function"
    },
    {
      "constant": false,
      "inputs": [
        {
          "name": "_proposalId",
          "type": "uint256"
        },
        {
          "name": "_option",
          "type": "uint8"
        }
      ],
      "name": "vote",
      "outputs": [],
      "payable": false,
      "stateMutability": "nonpayable",
      "type": "function"
    },
    {
      "constant": true,
      "inputs": [
        {
          "name": "_proposalId",
          "type": "uint256"
        }
      ],
      "name": "proposalOptionsAvailable",
      "outputs": [
        {
          "name": "",
          "type": "uint8"
        }
      ],
      "payable": false,
      "stateMutability": "view",
      "type": "function"
    },
    {
      "constant": true,
      "inputs": [
        {
          "name": "_proposalId",
          "type": "uint256"
        }
      ],
      "name": "proposalQuestion",
      "outputs": [
        {
          "name": "",
          "type": "string"
        }
      ],
      "payable": false,
      "stateMutability": "view",
      "type": "function"
    },
    {
      "constant": true,
      "inputs": [
        {
          "name": "_proposalId",
          "type": "uint256"
        },
        {
          "name": "_participant",
          "type": "address"
        }
      ],
      "name": "isDeclared",
      "outputs": [
        {
          "name": "",
          "type": "bool"
        }
      ],
      "payable": false,
      "stateMutability": "view",
      "type": "function"
    },
    {
      "constant": true,
      "inputs": [
        {
          "name": "_proposalId",
          "type": "uint256"
        }
      ],
      "name": "ballot",
      "outputs": [
        {
          "name": "",
          "type": "uint256[]"
        }
      ],
      "payable": false,
      "stateMutability": "view",
      "type": "function"
    },
    {
      "constant": false,
      "inputs": [
        {
          "name": "_duration",
          "type": "uint256"
        },
        {
          "name": "_quorum",
          "type": "uint256"
        },
        {
          "name": "_minScore",
          "type": "uint256"
        }
      ],
      "name": "updateVotingRule",
      "outputs": [],
      "payable": false,
      "stateMutability": "nonpayable",
      "type": "function"
    },
    {
      "constant": false,
      "inputs": [
        {
          "name": "_newOwner",
          "type": "address"
        }
      ],
      "name": "transferOwnership",
      "outputs": [],
      "payable": false,
      "stateMutability": "nonpayable",
      "type": "function"
    },
    {
      "constant": true,
      "inputs": [
        {
          "name": "_proposalId",
          "type": "uint256"
        },
        {
          "name": "_participant",
          "type": "address"
        }
      ],
      "name": "isVoteLocked",
      "outputs": [
        {
          "name": "",
          "type": "bool"
        }
      ],
      "payable": false,
      "stateMutability": "view",
      "type": "function"
    },
    {
      "anonymous": false,
      "inputs": [
        {
          "indexed": false,
          "name": "duration",
          "type": "uint256"
        },
        {
          "indexed": false,
          "name": "quorum",
          "type": "uint256"
        },
        {
          "indexed": false,
          "name": "minScore",
          "type": "uint256"
        }
      ],
      "name": "VotingRuleUpdated",
      "type": "event"
    },
    {
      "anonymous": false,
      "inputs": [
        {
          "indexed": false,
          "name": "proposalId",
          "type": "uint256"
        }
      ],
      "name": "VoteClosed",
      "type": "event"
    },
    {
      "anonymous": false,
      "inputs": [
        {
          "indexed": false,
          "name": "proposalId",
          "type": "uint256"
        }
      ],
      "name": "ProposalAdded",
      "type": "event"
    },
    {
      "anonymous": false,
      "inputs": [
        {
          "indexed": true,
          "name": "previousOwner",
          "type": "address"
        }
      ],
      "name": "OwnershipRenounced",
      "type": "event"
    },
    {
      "anonymous": false,
      "inputs": [
        {
          "indexed": true,
          "name": "previousOwner",
          "type": "address"
        },
        {
          "indexed": true,
          "name": "newOwner",
          "type": "address"
        }
      ],
      "name": "OwnershipTransferred",
      "type": "event"
    },
    {
      "constant": false,
      "inputs": [
        {
          "name": "_proposalId",
          "type": "uint256"
        },
        {
          "name": "_hash",
          "type": "bytes32"
        }
      ],
      "name": "lockHash",
      "outputs": [],
      "payable": false,
      "stateMutability": "nonpayable",
      "type": "function"
    },
    {
      "constant": false,
      "inputs": [
        {
          "name": "_proposalId",
          "type": "uint256"
        },
        {
          "name": "_option",
          "type": "uint8"
        },
        {
          "name": "_salt",
          "type": "uint256"
        }
      ],
      "name": "revealHash",
      "outputs": [],
      "payable": false,
      "stateMutability": "nonpayable",
      "type": "function"
    }
  ],
  "bytecode": "0x60806040526212750060035560006004556000600555336000806101000a81548173ffffffffffffffffffffffffffffffffffffffff021916908373ffffffffffffffffffffffffffffffffffffffff160217905550612448806100646000396000f30060806040526004361061018b576000357c0100000000000000000000000000000000000000000000000000000000900463ffffffff1680630a9f46ad146101905780630b5e5094146101bb57806317cac3fb14610200578063187334951461022f5780632af7e2ea146102695780632d19f9a6146102945780633c594059146102bf5780634f080f2514610300578063508f93551461034157806357044c0a146103825780635f9103b2146103c3578063671ddabd146104045780636e48a0351461044557806370af96fb14610472578063715018a61461049d578063768c35a1146104b45780637916b882146104f55780637dfe69f51461059b578063826e56c2146106025780638da5cb5b1461062d57806392a546f014610684578063943e82161461074a5780639e83851914610784578063a4e0d4e4146107c8578063b4706d421461080f578063c656d3cb146108b5578063cb5f643c1461091a578063e794273414610955578063edb9f0c3146109d7578063f2fde38b14610a18578063ffc5027014610a5b575b600080fd5b34801561019c57600080fd5b506101a5610ac0565b6040518082815260200191505060405180910390f35b3480156101c757600080fd5b506101e660048036038101908080359060200190929190505050610aca565b604051808215151515815260200191505060405180910390f35b34801561020c57600080fd5b50610215610b1b565b604051808215151515815260200191505060405180910390f35b34801561023b57600080fd5b5061026760048036038101908080359060200190929190803560ff169060200190929190505050610b2e565b005b34801561027557600080fd5b5061027e610baa565b6040518082815260200191505060405180910390f35b3480156102a057600080fd5b506102a9610bb4565b6040518082815260200191505060405180910390f35b3480156102cb57600080fd5b506102ea60048036038101908080359060200190929190505050610bbe565b6040518082815260200191505060405180910390f35b34801561030c57600080fd5b5061032b60048036038101908080359060200190929190505050610d3f565b6040518082815260200191505060405180910390f35b34801561034d57600080fd5b5061036c60048036038101908080359060200190929190505050610d5f565b6040518082815260200191505060405180910390f35b34801561038e57600080fd5b506103ad60048036038101908080359060200190929190505050610d7f565b6040518082815260200191505060405180910390f35b3480156103cf57600080fd5b506103ee60048036038101908080359060200190929190505050610d9f565b6040518082815260200191505060405180910390f35b34801561041057600080fd5b5061042f60048036038101908080359060200190929190505050610dbf565b6040518082815260200191505060405180910390f35b34801561045157600080fd5b5061047060048036038101908080359060200190929190505050610ddf565b005b34801561047e57600080fd5b50610487610f31565b6040518082815260200191505060405180910390f35b3480156104a957600080fd5b506104b2610f3b565b005b3480156104c057600080fd5b506104df6004803603810190808035906020019092919050505061103d565b6040518082815260200191505060405180910390f35b34801561050157600080fd5b506105206004803603810190808035906020019092919050505061105d565b6040518080602001828103825283818151815260200191508051906020019080838360005b83811015610560578082015181840152602081019050610545565b50505050905090810190601f16801561058d5780820380516001836020036101000a031916815260200191505b509250505060405180910390f35b3480156105a757600080fd5b506105e660048036038101908080359060200190929190803573ffffffffffffffffffffffffffffffffffffffff169060200190929190505050611115565b604051808260ff1660ff16815260200191505060405180910390f35b34801561060e57600080fd5b50610617611183565b6040518082815260200191505060405180910390f35b34801561063957600080fd5b5061064261118d565b604051808273ffffffffffffffffffffffffffffffffffffffff1673ffffffffffffffffffffffffffffffffffffffff16815260200191505060405180910390f35b34801561069057600080fd5b50610748600480360381019080803590602001908201803590602001908080601f0160208091040260200160405190810160405280939291908181526020018383808284378201915050505050509192919290803590602001908201803590602001908080601f016020809104026020016040519081016040528093929190818152602001838380828437820191505050505050919291929080359060200190929190803560ff1690602001909291905050506111b2565b005b34801561075657600080fd5b5061078260048036038101908080359060200190929190803560ff1690602001909291905050506112c1565b005b34801561079057600080fd5b506107c660048036038101908080359060200190929190803560ff1690602001909291908035906020019092919050505061134e565b005b3480156107d457600080fd5b506107f360048036038101908080359060200190929190505050611600565b604051808260ff1660ff16815260200191505060405180910390f35b34801561081b57600080fd5b5061083a60048036038101908080359060200190929190505050611625565b6040518080602001828103825283818151815260200191508051906020019080838360005b8381101561087a57808201518184015260208101905061085f565b50505050905090810190601f1680156108a75780820380516001836020036101000a031916815260200191505b509250505060405180910390f35b3480156108c157600080fd5b5061090060048036038101908080359060200190929190803573ffffffffffffffffffffffffffffffffffffffff1690602001909291905050506116dd565b604051808215151515815260200191505060405180910390f35b34801561092657600080fd5b5061095360048036038101908080359060200190929190803560001916906020019092919050505061174b565b005b34801561096157600080fd5b50610980600480360381019080803590602001909291905050506118ef565b6040518080602001828103825283818151815260200191508051906020019060200280838360005b838110156109c35780820151818401526020810190506109a8565b505050509050019250505060405180910390f35b3480156109e357600080fd5b50610a1660048036038101908080359060200190929190803590602001909291908035906020019092919050505061195d565b005b348015610a2457600080fd5b50610a59600480360381019080803573ffffffffffffffffffffffffffffffffffffffff169060200190929190505050611a19565b005b348015610a6757600080fd5b50610aa660048036038101908080359060200190929190803573ffffffffffffffffffffffffffffffffffffffff169060200190929190505050611a80565b604051808215151515815260200191505060405180910390f35b6000600254905090565b6000610b0b60066000848152602001908152602001600020600001546001600085815260200190815260200160002060040154611aee90919063ffffffff16565b610b13611b0a565b109050919050565b6000600754610b28611b0a565b10905090565b610b3882826112c1565b600180600084815260200190815260200160002060060160003373ffffffffffffffffffffffffffffffffffffffff1673ffffffffffffffffffffffffffffffffffffffff16815260200190815260200160002060000160026101000a81548160ff0219169083151502179055505050565b6000600354905090565b6000600754905090565b600080600080600080610bd087610aca565b151515610c45576040517f08c379a00000000000000000000000000000000000000000000000000000000081526004018080602001828103825260038152602001807f453031000000000000000000000000000000000000000000000000000000000081525060200191505060405180910390fd5b6001600088815260200190815260200160002094506006600088815260200190815260200160002093508360010154610ca7866005016000815481101515610c8957fe5b90600052602060002001548760030154611b1290919063ffffffff16565b1015610cb65760009550610d35565b600190505b8460050180549050811015610d1c57828560050182815481101515610cdc57fe5b90600052602060002001541115610d0f578091508460050181815481101515610d0157fe5b906000526020600020015492505b8080600101915050610cbb565b8360020154831015610d315760009550610d35565b8195505b5050505050919050565b600060066000838152602001908152602001600020600101549050919050565b600060016000838152602001908152602001600020600301549050919050565b600060016000838152602001908152602001600020600201549050919050565b600060016000838152602001908152602001600020600401549050919050565b600060066000838152602001908152602001600020600201549050919050565b60008060009054906101000a900473ffffffffffffffffffffffffffffffffffffffff1673ffffffffffffffffffffffffffffffffffffffff163373ffffffffffffffffffffffffffffffffffffffff16141515610e3c57600080fd5b610e4582610aca565b1515610eb9576040517f08c379a00000000000000000000000000000000000000000000000000000000081526004018080602001828103825260038152602001807f453032000000000000000000000000000000000000000000000000000000000081525060200191505060405180910390fd5b6001600083815260200190815260200160002060040154610ed8611b0a565b0390508060066000848152602001908152602001600020600001819055507fbc12589e76c0d59fd5a7c6f642c154830f0b46718b5ac07d1a0bdf29e124cbd8826040518082815260200191505060405180910390a15050565b6000600454905090565b6000809054906101000a900473ffffffffffffffffffffffffffffffffffffffff1673ffffffffffffffffffffffffffffffffffffffff163373ffffffffffffffffffffffffffffffffffffffff16141515610f9657600080fd5b6000809054906101000a900473ffffffffffffffffffffffffffffffffffffffff1673ffffffffffffffffffffffffffffffffffffffff167ff8df31144d9c2f0f6b59d69b8b98abd5459d07f2742c4df920b25aae33c6482060405160405180910390a260008060006101000a81548173ffffffffffffffffffffffffffffffffffffffff021916908373ffffffffffffffffffffffffffffffffffffffff160217905550565b600060066000838152602001908152602001600020600001549050919050565b6060600160008381526020019081526020016000206001018054600181600116156101000203166002900480601f0160208091040260200160405190810160405280929190818152602001828054600181600116156101000203166002900480156111095780601f106110de57610100808354040283529160200191611109565b820191906000526020600020905b8154815290600101906020018083116110ec57829003601f168201915b50505050509050919050565b60006001600084815260200190815260200160002060060160008373ffffffffffffffffffffffffffffffffffffffff1673ffffffffffffffffffffffffffffffffffffffff16815260200190815260200160002060000160009054906101000a900460ff16905092915050565b6000600554905090565b6000809054906101000a900473ffffffffffffffffffffffffffffffffffffffff1681565b60008060009054906101000a900473ffffffffffffffffffffffffffffffffffffffff1673ffffffffffffffffffffffffffffffffffffffff163373ffffffffffffffffffffffffffffffffffffffff1614151561120f57600080fd5b61121b85858585611b2b565b606060405190810160405280600354815260200160045481526020016005548152506006600060016002540381526020019081526020016000206000820151816000015560208201518160010155604082015181600201559050506112a660035460016000600160025403815260200190815260200160002060040154611aee90919063ffffffff16565b90506007548111156112ba57806007819055505b5050505050565b6112ca82610aca565b151561133e576040517f08c379a00000000000000000000000000000000000000000000000000000000081526004018080602001828103825260038152602001807f453032000000000000000000000000000000000000000000000000000000000081525060200191505060405180910390fd5b61134a82826001611e35565b5050565b6001600084815260200190815260200160002060060160003373ffffffffffffffffffffffffffffffffffffffff1673ffffffffffffffffffffffffffffffffffffffff16815260200190815260200160002060000160029054906101000a900460ff161515611426576040517f08c379a00000000000000000000000000000000000000000000000000000000081526004018080602001828103825260038152602001807f453032000000000000000000000000000000000000000000000000000000000081525060200191505060405180910390fd5b6008600084815260200190815260200160002060003373ffffffffffffffffffffffffffffffffffffffff1673ffffffffffffffffffffffffffffffffffffffff168152602001908152602001600020546000191683833384604051602001808581526020018460ff1660ff167f01000000000000000000000000000000000000000000000000000000000000000281526001018373ffffffffffffffffffffffffffffffffffffffff1673ffffffffffffffffffffffffffffffffffffffff166c010000000000000000000000000281526014018281526020019450505050506040516020818303038152906040526040518082805190602001908083835b60208310151561154b5780518252602082019150602081019050602083039250611526565b6001836020036101000a0380198251168184511680821785525050505050509050019150506040518091039020600019161415156115f1576040517f08c379a00000000000000000000000000000000000000000000000000000000081526004018080602001828103825260038152602001807f453033000000000000000000000000000000000000000000000000000000000081525060200191505060405180910390fd5b6115fb83836112c1565b505050565b6000600180600084815260200190815260200160002060050180549050039050919050565b6060600160008381526020019081526020016000206000018054600181600116156101000203166002900480601f0160208091040260200160405190810160405280929190818152602001828054600181600116156101000203166002900480156116d15780601f106116a6576101008083540402835291602001916116d1565b820191906000526020600020905b8154815290600101906020018083116116b457829003601f168201915b50505050509050919050565b60006001600084815260200190815260200160002060060160008373ffffffffffffffffffffffffffffffffffffffff1673ffffffffffffffffffffffffffffffffffffffff16815260200190815260200160002060000160019054906101000a900460ff16905092915050565b6001600083815260200190815260200160002060060160003373ffffffffffffffffffffffffffffffffffffffff1673ffffffffffffffffffffffffffffffffffffffff16815260200190815260200160002060000160029054906101000a900460ff16151515611824576040517f08c379a00000000000000000000000000000000000000000000000000000000081526004018080602001828103825260038152602001807f453031000000000000000000000000000000000000000000000000000000000081525060200191505060405180910390fd5b806008600084815260200190815260200160002060003373ffffffffffffffffffffffffffffffffffffffff1673ffffffffffffffffffffffffffffffffffffffff1681526020019081526020016000208160001916905550600180600084815260200190815260200160002060060160003373ffffffffffffffffffffffffffffffffffffffff1673ffffffffffffffffffffffffffffffffffffffff16815260200190815260200160002060000160026101000a81548160ff0219169083151502179055505050565b60606001600083815260200190815260200160002060050180548060200260200160405190810160405280929190818152602001828054801561195157602002820191906000526020600020905b81548152602001906001019080831161193d575b50505050509050919050565b6000809054906101000a900473ffffffffffffffffffffffffffffffffffffffff1673ffffffffffffffffffffffffffffffffffffffff163373ffffffffffffffffffffffffffffffffffffffff161415156119b857600080fd5b8260038190555081600481905550806005819055507f6a66e31456dd9cd88d5884033ee7f19b9e2d1928de00674350b5943dd823d7f883838360405180848152602001838152602001828152602001935050505060405180910390a1505050565b6000809054906101000a900473ffffffffffffffffffffffffffffffffffffffff1673ffffffffffffffffffffffffffffffffffffffff163373ffffffffffffffffffffffffffffffffffffffff16141515611a7457600080fd5b611a7d81612230565b50565b60006001600084815260200190815260200160002060060160008373ffffffffffffffffffffffffffffffffffffffff1673ffffffffffffffffffffffffffffffffffffffff16815260200190815260200160002060000160029054906101000a900460ff16905092915050565b60008183019050828110151515611b0157fe5b80905092915050565b600042905090565b6000828211151515611b2057fe5b818303905092915050565b6000809054906101000a900473ffffffffffffffffffffffffffffffffffffffff1673ffffffffffffffffffffffffffffffffffffffff163373ffffffffffffffffffffffffffffffffffffffff16141515611b8657600080fd5b60008451111515611bff576040517f08c379a00000000000000000000000000000000000000000000000000000000081526004018080602001828103825260038152602001807f453031000000000000000000000000000000000000000000000000000000000081525060200191505060405180910390fd5b60008351111515611c78576040517f08c379a00000000000000000000000000000000000000000000000000000000081526004018080602001828103825260038152602001807f453032000000000000000000000000000000000000000000000000000000000081525060200191505060405180910390fd5b600082111515611cf0576040517f08c379a00000000000000000000000000000000000000000000000000000000081526004018080602001828103825260038152602001807f453033000000000000000000000000000000000000000000000000000000000081525060200191505060405180910390fd5b60c060405190810160405280858152602001848152602001838152602001600081526020014281526020016001830160ff16604051908082528060200260200182016040528015611d505781602001602082028038833980820191505090505b508152506001600060025481526020019081526020016000206000820151816000019080519060200190611d8592919061232a565b506020820151816001019080519060200190611da292919061232a565b5060408201518160020155606082015181600301556080820151816004015560a0820151816005019080519060200190611ddd9291906123aa565b509050506002600081548092919060010191905055507f3f802220982dbddc337f1811180e73513e775b18380401997927fd1454cfd0bd6001600254036040518082815260200191505060405180910390a150505050565b6000806001600086815260200190815260200160002091508160060160003373ffffffffffffffffffffffffffffffffffffffff1673ffffffffffffffffffffffffffffffffffffffff168152602001908152602001600020905060016000868152602001908152602001600020600501805490508460ff16101515611f23576040517f08c379a00000000000000000000000000000000000000000000000000000000081526004018080602001828103825260038152602001807f453034000000000000000000000000000000000000000000000000000000000081525060200191505060405180910390fd5b60025485101515611f9c576040517f08c379a00000000000000000000000000000000000000000000000000000000081526004018080602001828103825260038152602001807f453035000000000000000000000000000000000000000000000000000000000081525060200191505060405180910390fd5b8360ff168160000160009054906101000a900460ff1660ff161415151561202b576040517f08c379a00000000000000000000000000000000000000000000000000000000081526004018080602001828103825260038152602001807f453036000000000000000000000000000000000000000000000000000000000081525060200191505060405180910390fd5b8160060160003373ffffffffffffffffffffffffffffffffffffffff1673ffffffffffffffffffffffffffffffffffffffff16815260200190815260200160002060000160019054906101000a900460ff16156120fc576120c483836005018360000160009054906101000a900460ff1660ff168154811015156120ab57fe5b9060005260206000200154611b1290919063ffffffff16565b826005018260000160009054906101000a900460ff1660ff168154811015156120e957fe5b9060005260206000200181905550612179565b612113838360030154611aee90919063ffffffff16565b826003018190555060018260060160003373ffffffffffffffffffffffffffffffffffffffff1673ffffffffffffffffffffffffffffffffffffffff16815260200190815260200160002060000160016101000a81548160ff0219169083151502179055505b6121aa83836005018660ff1681548110151561219157fe5b9060005260206000200154611aee90919063ffffffff16565b826005018560ff168154811015156121be57fe5b9060005260206000200181905550838260060160003373ffffffffffffffffffffffffffffffffffffffff1673ffffffffffffffffffffffffffffffffffffffff16815260200190815260200160002060000160006101000a81548160ff021916908360ff1602179055505050505050565b600073ffffffffffffffffffffffffffffffffffffffff168173ffffffffffffffffffffffffffffffffffffffff161415151561226c57600080fd5b8073ffffffffffffffffffffffffffffffffffffffff166000809054906101000a900473ffffffffffffffffffffffffffffffffffffffff1673ffffffffffffffffffffffffffffffffffffffff167f8be0079c531659141344cd1fd0a4f28419497f9722a3daafe3b4186f6b6457e060405160405180910390a3806000806101000a81548173ffffffffffffffffffffffffffffffffffffffff021916908373ffffffffffffffffffffffffffffffffffffffff16021790555050565b828054600181600116156101000203166002900490600052602060002090601f016020900481019282601f1061236b57805160ff1916838001178555612399565b82800160010185558215612399579182015b8281111561239857825182559160200191906001019061237d565b5b5090506123a691906123f7565b5090565b8280548282559060005260206000209081019282156123e6579160200282015b828111156123e55782518255916020019190600101906123ca565b5b5090506123f391906123f7565b5090565b61241991905b808211156124155760008160009055506001016123fd565b5090565b905600a165627a7a723058209c35002de86bc086f73057b262c375e3bda4614dd2e476476b5d2c4943cf2cd00029",
  "source": "pragma solidity ^0.4.24;\n\nimport \"./Voting.sol\";\n\n\n/**\n * @title SecretVoting\n * @dev SecretVoting contract\n * @author Cyril Lapinte - <cyril.lapinte@mtpelerin.com>\n *\n * Error messages\n * E01: Vote must not be locked\n * E02: Vote must be locked\n * E03: Vote revealed must matched the vote locked\n */\ncontract SecretVoting is Voting {\n\n  mapping(uint256 => mapping(address => bytes32)) hashes;\n\n  /**\n   * @dev lock the participant vote hash for a proposal\n   */\n  function lockHash(uint256 _proposalId, bytes32 _hash) public {\n    require(!proposals[_proposalId].votes[msg.sender].locked, \"E01\");\n    hashes[_proposalId][msg.sender] = _hash;\n    proposals[_proposalId].votes[msg.sender].locked = true;\n  }\n\n  /**\n   * @dev reveal the vote\n   */\n  function revealHash(\n    uint256 _proposalId,\n    uint8 _option,\n    uint256 _salt) public\n  {\n    require(proposals[_proposalId].votes[msg.sender].locked, \"E02\");\n    require(\n      keccak256(\n        abi.encodePacked(\n          _proposalId,\n          _option,\n          msg.sender,\n          _salt\n        )\n      ) == hashes[_proposalId][msg.sender],\n      \"E03\"\n    );\n    vote(_proposalId, _option);\n  }\n}\n",
  "sourcePath": "/home/node/project/contracts/voting/SecretVoting.sol",
  "compiler": {
    "name": "solc",
    "version": "0.4.24+commit.e67f0147.Emscripten.clang"
  },
  "schemaVersion": "2.0.1",
  "updatedAt": "2018-08-15T14:19:56.031Z"
}