{
  "contractName": "StateMachineMock",
  "abi": [
    {
      "constant": true,
      "inputs": [],
      "name": "stepsCount",
      "outputs": [
        {
          "name": "",
          "type": "uint256"
        }
      ],
      "payable": false,
      "stateMutability": "view",
      "type": "function"
    },
    {
      "constant": true,
      "inputs": [
        {
          "name": "_stepId",
          "type": "uint256"
        }
      ],
      "name": "stepTime",
      "outputs": [
        {
          "name": "",
          "type": "uint256"
        }
      ],
      "payable": false,
      "stateMutability": "view",
      "type": "function"
    },
    {
      "constant": true,
      "inputs": [
        {
          "name": "_stepId",
          "type": "uint256"
        }
      ],
      "name": "transitionEndTime",
      "outputs": [
        {
          "name": "",
          "type": "uint256"
        }
      ],
      "payable": false,
      "stateMutability": "view",
      "type": "function"
    },
    {
      "constant": true,
      "inputs": [],
      "name": "currentStep",
      "outputs": [
        {
          "name": "",
          "type": "uint256"
        }
      ],
      "payable": false,
      "stateMutability": "view",
      "type": "function"
    },
    {
      "constant": true,
      "inputs": [
        {
          "name": "_stepId",
          "type": "uint256"
        },
        {
          "name": "_startedAt",
          "type": "uint256"
        }
      ],
      "name": "stepEndTime",
      "outputs": [
        {
          "name": "",
          "type": "uint256"
        }
      ],
      "payable": false,
      "stateMutability": "view",
      "type": "function"
    },
    {
      "constant": false,
      "inputs": [],
      "name": "renounceOwnership",
      "outputs": [],
      "payable": false,
      "stateMutability": "nonpayable",
      "type": "function"
    },
    {
      "constant": true,
      "inputs": [],
      "name": "owner",
      "outputs": [
        {
          "name": "",
          "type": "address"
        }
      ],
      "payable": false,
      "stateMutability": "view",
      "type": "function"
    },
    {
      "constant": false,
      "inputs": [
        {
          "name": "_newOwner",
          "type": "address"
        }
      ],
      "name": "transferOwnership",
      "outputs": [],
      "payable": false,
      "stateMutability": "nonpayable",
      "type": "function"
    },
    {
      "constant": true,
      "inputs": [
        {
          "name": "_stepId",
          "type": "uint256"
        }
      ],
      "name": "transitionDelay",
      "outputs": [
        {
          "name": "",
          "type": "uint256"
        }
      ],
      "payable": false,
      "stateMutability": "view",
      "type": "function"
    },
    {
      "anonymous": false,
      "inputs": [
        {
          "indexed": true,
          "name": "previousOwner",
          "type": "address"
        }
      ],
      "name": "OwnershipRenounced",
      "type": "event"
    },
    {
      "anonymous": false,
      "inputs": [
        {
          "indexed": true,
          "name": "previousOwner",
          "type": "address"
        },
        {
          "indexed": true,
          "name": "newOwner",
          "type": "address"
        }
      ],
      "name": "OwnershipTransferred",
      "type": "event"
    },
    {
      "constant": false,
      "inputs": [
        {
          "name": "_transitionEndTime",
          "type": "uint256"
        },
        {
          "name": "_transitionDelay",
          "type": "uint256"
        }
      ],
      "name": "addStepPublic",
      "outputs": [
        {
          "name": "",
          "type": "uint256"
        }
      ],
      "payable": false,
      "stateMutability": "nonpayable",
      "type": "function"
    },
    {
      "constant": false,
      "inputs": [
        {
          "name": "_stepTime",
          "type": "uint256"
        },
        {
          "name": "_transitionEndTime",
          "type": "uint256"
        },
        {
          "name": "_transitionDelay",
          "type": "uint256"
        }
      ],
      "name": "addHistoricalStepPublic",
      "outputs": [
        {
          "name": "",
          "type": "uint256"
        }
      ],
      "payable": false,
      "stateMutability": "nonpayable",
      "type": "function"
    },
    {
      "constant": false,
      "inputs": [
        {
          "name": "_transitionEndTime",
          "type": "uint256"
        },
        {
          "name": "_transitionDelay",
          "type": "uint256"
        }
      ],
      "name": "updateCurrentStepPublic",
      "outputs": [],
      "payable": false,
      "stateMutability": "nonpayable",
      "type": "function"
    },
    {
      "constant": false,
      "inputs": [],
      "name": "nextStepPublic",
      "outputs": [],
      "payable": false,
      "stateMutability": "nonpayable",
      "type": "function"
    }
  ],
  "bytecode": "0x6080604052336000806101000a81548173ffffffffffffffffffffffffffffffffffffffff021916908373ffffffffffffffffffffffffffffffffffffffff1602179055506111ce806100536000396000f3006080604052600436106100c5576000357c0100000000000000000000000000000000000000000000000000000000900463ffffffff1680631daf65f8146100ca578063390b5c42146100f55780633c6d9ce81461014a57806345ed72d714610181578063467bb355146101c25780635bc34f711461020357806368b080a41461022e578063715018a6146102795780638da5cb5b14610290578063e4e9db06146102e7578063f2fde38b14610332578063f93bf62514610375578063ff581094146103b6575b600080fd5b3480156100d657600080fd5b506100df6103cd565b6040518082815260200191505060405180910390f35b34801561010157600080fd5b506101346004803603810190808035906020019092919080359060200190929190803590602001909291905050506103da565b6040518082815260200191505060405180910390f35b34801561015657600080fd5b5061017f600480360381019080803590602001909291908035906020019092919050505061044b565b005b34801561018d57600080fd5b506101ac600480360381019080803590602001909291905050506104b4565b6040518082815260200191505060405180910390f35b3480156101ce57600080fd5b506101ed600480360381019080803590602001909291905050506104de565b6040518082815260200191505060405180910390f35b34801561020f57600080fd5b50610218610508565b6040518082815260200191505060405180910390f35b34801561023a57600080fd5b506102636004803603810190808035906020019092919080359060200190929190505050610636565b6040518082815260200191505060405180910390f35b34801561028557600080fd5b5061028e6106e7565b005b34801561029c57600080fd5b506102a56107e9565b604051808273ffffffffffffffffffffffffffffffffffffffff1673ffffffffffffffffffffffffffffffffffffffff16815260200191505060405180910390f35b3480156102f357600080fd5b5061031c600480360381019080803590602001909291908035906020019092919050505061080e565b6040518082815260200191505060405180910390f35b34801561033e57600080fd5b50610373600480360381019080803573ffffffffffffffffffffffffffffffffffffffff16906020019092919050505061087d565b005b34801561038157600080fd5b506103a0600480360381019080803590602001909291905050506108e4565b6040518082815260200191505060405180910390f35b3480156103c257600080fd5b506103cb61090e565b005b6000600180549050905090565b60008060009054906101000a900473ffffffffffffffffffffffffffffffffffffffff1673ffffffffffffffffffffffffffffffffffffffff163373ffffffffffffffffffffffffffffffffffffffff1614151561043757600080fd5b610442848484610973565b90509392505050565b6000809054906101000a900473ffffffffffffffffffffffffffffffffffffffff1673ffffffffffffffffffffffffffffffffffffffff163373ffffffffffffffffffffffffffffffffffffffff161415156104a657600080fd5b6104b08282610b37565b5050565b60006001828154811015156104c557fe5b9060005260206000209060030201600001549050919050565b60006001828154811015156104ef57fe5b9060005260206000209060030201600101549050919050565b60008060008060008060018054905011151561058c576040517f08c379a00000000000000000000000000000000000000000000000000000000081526004018080602001828103825260038152602001807f453031000000000000000000000000000000000000000000000000000000000081525060200191505060405180910390fd5b600260009054906101000a900460ff1660ff1693506001600260009054906101000a900460ff1660ff168154811015156105c257fe5b90600052602060002090600302016000015492508391505b60018054905082101561062c576105f18284610636565b90506105fb610daf565b8110158061060f5750600180805490500382145b1561061c5781935061062c565b80925081806001019250506105da565b8394505050505090565b600080610641611180565b600019915060018581548110151561065557fe5b90600052602060002090600302016060604051908101604052908160008201548152602001600182015481526020016002820154815250509050600081604001511415156106b7576106b4816040015185610db790919063ffffffff16565b91505b60008160200151141580156106cf5750818160200151105b156106dc57806020015191505b819250505092915050565b6000809054906101000a900473ffffffffffffffffffffffffffffffffffffffff1673ffffffffffffffffffffffffffffffffffffffff163373ffffffffffffffffffffffffffffffffffffffff1614151561074257600080fd5b6000809054906101000a900473ffffffffffffffffffffffffffffffffffffffff1673ffffffffffffffffffffffffffffffffffffffff167ff8df31144d9c2f0f6b59d69b8b98abd5459d07f2742c4df920b25aae33c6482060405160405180910390a260008060006101000a81548173ffffffffffffffffffffffffffffffffffffffff021916908373ffffffffffffffffffffffffffffffffffffffff160217905550565b6000809054906101000a900473ffffffffffffffffffffffffffffffffffffffff1681565b60008060009054906101000a900473ffffffffffffffffffffffffffffffffffffffff1673ffffffffffffffffffffffffffffffffffffffff163373ffffffffffffffffffffffffffffffffffffffff1614151561086b57600080fd5b6108758383610dd3565b905092915050565b6000809054906101000a900473ffffffffffffffffffffffffffffffffffffffff1673ffffffffffffffffffffffffffffffffffffffff163373ffffffffffffffffffffffffffffffffffffffff161415156108d857600080fd5b6108e181610ec9565b50565b60006001828154811015156108f557fe5b9060005260206000209060030201600201549050919050565b6000809054906101000a900473ffffffffffffffffffffffffffffffffffffffff1673ffffffffffffffffffffffffffffffffffffffff163373ffffffffffffffffffffffffffffffffffffffff1614151561096957600080fd5b610971610fc3565b565b6000806000809054906101000a900473ffffffffffffffffffffffffffffffffffffffff1673ffffffffffffffffffffffffffffffffffffffff163373ffffffffffffffffffffffffffffffffffffffff161415156109d157600080fd5b6109d9610daf565b85101515610a4f576040517f08c379a00000000000000000000000000000000000000000000000000000000081526004018080602001828103825260038152602001807f453032000000000000000000000000000000000000000000000000000000000081525060200191505060405180910390fd5b60006001805490501115610afb57600180808054905003815481101515610a7257fe5b90600052602060002090600302016000015485111515610afa576040517f08c379a00000000000000000000000000000000000000000000000000000000081526004018080602001828103825260038152602001807f453033000000000000000000000000000000000000000000000000000000000081525060200191505060405180910390fd5b5b610b058484610dd3565b905084600182815481101515610b1757fe5b906000526020600020906003020160000181905550809150509392505050565b60008060009054906101000a900473ffffffffffffffffffffffffffffffffffffffff1673ffffffffffffffffffffffffffffffffffffffff163373ffffffffffffffffffffffffffffffffffffffff16141515610b9457600080fd5b610b9c610508565b90506000831115610ce3576000600182815481101515610bb857fe5b906000526020600020906003020160010154111515610c3f576040517f08c379a00000000000000000000000000000000000000000000000000000000081526004018080602001828103825260038152602001807f453034000000000000000000000000000000000000000000000000000000000081525060200191505060405180910390fd5b610c47610daf565b83111515610cbd576040517f08c379a00000000000000000000000000000000000000000000000000000000081526004018080602001828103825260038152602001807f453035000000000000000000000000000000000000000000000000000000000081525060200191505060405180910390fd5b82600182815481101515610ccd57fe5b9060005260206000209060030201600101819055505b6000821115610daa576000600182815481101515610cfd57fe5b906000526020600020906003020160020154111515610d84576040517f08c379a00000000000000000000000000000000000000000000000000000000081526004018080602001828103825260038152602001807f453034000000000000000000000000000000000000000000000000000000000081525060200191505060405180910390fd5b81600182815481101515610d9457fe5b9060005260206000209060030201600201819055505b505050565b600042905090565b60008183019050828110151515610dca57fe5b80905092915050565b6000806000809054906101000a900473ffffffffffffffffffffffffffffffffffffffff1673ffffffffffffffffffffffffffffffffffffffff163373ffffffffffffffffffffffffffffffffffffffff16141515610e3157600080fd5b6000905060006001805490501415610e4e57610e4b610daf565b90505b60016060604051908101604052808381526020018681526020018581525090806001815401808255809150509060018203906000526020600020906003020160009091929091909150600082015181600001556020820151816001015560408201518160020155505050600180805490500391505092915050565b600073ffffffffffffffffffffffffffffffffffffffff168173ffffffffffffffffffffffffffffffffffffffff1614151515610f0557600080fd5b8073ffffffffffffffffffffffffffffffffffffffff166000809054906101000a900473ffffffffffffffffffffffffffffffffffffffff1673ffffffffffffffffffffffffffffffffffffffff167f8be0079c531659141344cd1fd0a4f28419497f9722a3daafe3b4186f6b6457e060405160405180910390a3806000806101000a81548173ffffffffffffffffffffffffffffffffffffffff021916908373ffffffffffffffffffffffffffffffffffffffff16021790555050565b6000610fcd610508565b905060018080549050038110151561104d576040517f08c379a000000000000000000000000000000000000000000000000000000000815260040180806020018281038252600f8152602001807f534154455f4d414348494e455f3036000000000000000000000000000000000081525060200191505060405180910390fd5b600060018281548110151561105e57fe5b90600052602060002090600302016001015414801561109d5750600060018281548110151561108957fe5b906000526020600020906003020160020154145b1515611111576040517f08c379a00000000000000000000000000000000000000000000000000000000081526004018080602001828103825260038152602001807f453037000000000000000000000000000000000000000000000000000000000081525060200191505060405180910390fd5b611125600182610db790919063ffffffff16565b600260006101000a81548160ff021916908360ff160217905550611147610daf565b6001600260009054906101000a900460ff1660ff1681548110151561116857fe5b90600052602060002090600302016000018190555050565b60606040519081016040528060008152602001600081526020016000815250905600a165627a7a72305820bef62d881a8e305a7f5965a53beecac946e791b37a64cf085865906e23e36d660029",
  "source": "pragma solidity ^0.4.24;\n\nimport \"../StateMachine.sol\";\n\n\n/**\n * @title StateMachineMock\n * @dev StateMachineMock contract\n *\n * @author Cyril Lapinte - <cyril.lapinte@mtpelerin.com>\n */\ncontract StateMachineMock is StateMachine {\n\n  function addStepPublic(\n    uint256 _transitionEndTime,\n    uint256 _transitionDelay) public onlyOwner returns (uint256)\n  {\n    return addStep(_transitionEndTime, _transitionDelay);\n  }\n\n  function addHistoricalStepPublic(\n    uint256 _stepTime,\n    uint256 _transitionEndTime,\n    uint256 _transitionDelay) public onlyOwner returns (uint256)\n  {\n    return addHistoricalStep(\n      _stepTime, _transitionEndTime, _transitionDelay);\n  }\n\n  function updateCurrentStepPublic(\n    uint256 _transitionEndTime,\n    uint256 _transitionDelay) public onlyOwner\n  {\n    updateCurrentStep(\n      _transitionEndTime, _transitionDelay);\n  }\n\n  function nextStepPublic() public onlyOwner {\n    nextStep();\n  }\n\n}\n",
  "sourcePath": "/home/node/project/contracts/mock/StateMachineMock.sol",
  "compiler": {
    "name": "solc",
    "version": "0.4.24+commit.e67f0147.Emscripten.clang"
  },
  "schemaVersion": "2.0.1",
  "updatedAt": "2018-08-15T14:19:55.919Z"
}