{
  "contractName": "StateMachine",
  "abi": [
    {
      "constant": false,
      "inputs": [],
      "name": "renounceOwnership",
      "outputs": [],
      "payable": false,
      "stateMutability": "nonpayable",
      "type": "function"
    },
    {
      "constant": true,
      "inputs": [],
      "name": "owner",
      "outputs": [
        {
          "name": "",
          "type": "address"
        }
      ],
      "payable": false,
      "stateMutability": "view",
      "type": "function"
    },
    {
      "constant": false,
      "inputs": [
        {
          "name": "_newOwner",
          "type": "address"
        }
      ],
      "name": "transferOwnership",
      "outputs": [],
      "payable": false,
      "stateMutability": "nonpayable",
      "type": "function"
    },
    {
      "anonymous": false,
      "inputs": [
        {
          "indexed": true,
          "name": "previousOwner",
          "type": "address"
        }
      ],
      "name": "OwnershipRenounced",
      "type": "event"
    },
    {
      "anonymous": false,
      "inputs": [
        {
          "indexed": true,
          "name": "previousOwner",
          "type": "address"
        },
        {
          "indexed": true,
          "name": "newOwner",
          "type": "address"
        }
      ],
      "name": "OwnershipTransferred",
      "type": "event"
    },
    {
      "constant": true,
      "inputs": [
        {
          "name": "_stepId",
          "type": "uint256"
        }
      ],
      "name": "stepTime",
      "outputs": [
        {
          "name": "",
          "type": "uint256"
        }
      ],
      "payable": false,
      "stateMutability": "view",
      "type": "function"
    },
    {
      "constant": true,
      "inputs": [
        {
          "name": "_stepId",
          "type": "uint256"
        }
      ],
      "name": "transitionEndTime",
      "outputs": [
        {
          "name": "",
          "type": "uint256"
        }
      ],
      "payable": false,
      "stateMutability": "view",
      "type": "function"
    },
    {
      "constant": true,
      "inputs": [
        {
          "name": "_stepId",
          "type": "uint256"
        }
      ],
      "name": "transitionDelay",
      "outputs": [
        {
          "name": "",
          "type": "uint256"
        }
      ],
      "payable": false,
      "stateMutability": "view",
      "type": "function"
    },
    {
      "constant": true,
      "inputs": [],
      "name": "stepsCount",
      "outputs": [
        {
          "name": "",
          "type": "uint256"
        }
      ],
      "payable": false,
      "stateMutability": "view",
      "type": "function"
    },
    {
      "constant": true,
      "inputs": [
        {
          "name": "_stepId",
          "type": "uint256"
        },
        {
          "name": "_startedAt",
          "type": "uint256"
        }
      ],
      "name": "stepEndTime",
      "outputs": [
        {
          "name": "",
          "type": "uint256"
        }
      ],
      "payable": false,
      "stateMutability": "view",
      "type": "function"
    },
    {
      "constant": true,
      "inputs": [],
      "name": "currentStep",
      "outputs": [
        {
          "name": "",
          "type": "uint256"
        }
      ],
      "payable": false,
      "stateMutability": "view",
      "type": "function"
    }
  ],
  "bytecode": "0x6080604052336000806101000a81548173ffffffffffffffffffffffffffffffffffffffff021916908373ffffffffffffffffffffffffffffffffffffffff160217905550610817806100536000396000f300608060405260043610610099576000357c0100000000000000000000000000000000000000000000000000000000900463ffffffff1680631daf65f81461009e57806345ed72d7146100c9578063467bb3551461010a5780635bc34f711461014b57806368b080a414610176578063715018a6146101c15780638da5cb5b146101d8578063f2fde38b1461022f578063f93bf62514610272575b600080fd5b3480156100aa57600080fd5b506100b36102b3565b6040518082815260200191505060405180910390f35b3480156100d557600080fd5b506100f4600480360381019080803590602001909291905050506102c0565b6040518082815260200191505060405180910390f35b34801561011657600080fd5b50610135600480360381019080803590602001909291905050506102ea565b6040518082815260200191505060405180910390f35b34801561015757600080fd5b50610160610314565b6040518082815260200191505060405180910390f35b34801561018257600080fd5b506101ab6004803603810190808035906020019092919080359060200190929190505050610442565b6040518082815260200191505060405180910390f35b3480156101cd57600080fd5b506101d66104f3565b005b3480156101e457600080fd5b506101ed6105f5565b604051808273ffffffffffffffffffffffffffffffffffffffff1673ffffffffffffffffffffffffffffffffffffffff16815260200191505060405180910390f35b34801561023b57600080fd5b50610270600480360381019080803573ffffffffffffffffffffffffffffffffffffffff16906020019092919050505061061a565b005b34801561027e57600080fd5b5061029d60048036038101908080359060200190929190505050610681565b6040518082815260200191505060405180910390f35b6000600180549050905090565b60006001828154811015156102d157fe5b9060005260206000209060030201600001549050919050565b60006001828154811015156102fb57fe5b9060005260206000209060030201600101549050919050565b600080600080600080600180549050111515610398576040517f08c379a00000000000000000000000000000000000000000000000000000000081526004018080602001828103825260038152602001807f453031000000000000000000000000000000000000000000000000000000000081525060200191505060405180910390fd5b600260009054906101000a900460ff1660ff1693506001600260009054906101000a900460ff1660ff168154811015156103ce57fe5b90600052602060002090600302016000015492508391505b600180549050821015610438576103fd8284610442565b90506104076106ab565b8110158061041b5750600180805490500382145b1561042857819350610438565b80925081806001019250506103e6565b8394505050505090565b60008061044d6107c9565b600019915060018581548110151561046157fe5b90600052602060002090600302016060604051908101604052908160008201548152602001600182015481526020016002820154815250509050600081604001511415156104c3576104c08160400151856106b390919063ffffffff16565b91505b60008160200151141580156104db5750818160200151105b156104e857806020015191505b819250505092915050565b6000809054906101000a900473ffffffffffffffffffffffffffffffffffffffff1673ffffffffffffffffffffffffffffffffffffffff163373ffffffffffffffffffffffffffffffffffffffff1614151561054e57600080fd5b6000809054906101000a900473ffffffffffffffffffffffffffffffffffffffff1673ffffffffffffffffffffffffffffffffffffffff167ff8df31144d9c2f0f6b59d69b8b98abd5459d07f2742c4df920b25aae33c6482060405160405180910390a260008060006101000a81548173ffffffffffffffffffffffffffffffffffffffff021916908373ffffffffffffffffffffffffffffffffffffffff160217905550565b6000809054906101000a900473ffffffffffffffffffffffffffffffffffffffff1681565b6000809054906101000a900473ffffffffffffffffffffffffffffffffffffffff1673ffffffffffffffffffffffffffffffffffffffff163373ffffffffffffffffffffffffffffffffffffffff1614151561067557600080fd5b61067e816106cf565b50565b600060018281548110151561069257fe5b9060005260206000209060030201600201549050919050565b600042905090565b600081830190508281101515156106c657fe5b80905092915050565b600073ffffffffffffffffffffffffffffffffffffffff168173ffffffffffffffffffffffffffffffffffffffff161415151561070b57600080fd5b8073ffffffffffffffffffffffffffffffffffffffff166000809054906101000a900473ffffffffffffffffffffffffffffffffffffffff1673ffffffffffffffffffffffffffffffffffffffff167f8be0079c531659141344cd1fd0a4f28419497f9722a3daafe3b4186f6b6457e060405160405180910390a3806000806101000a81548173ffffffffffffffffffffffffffffffffffffffff021916908373ffffffffffffffffffffffffffffffffffffffff16021790555050565b60606040519081016040528060008152602001600081526020016000815250905600a165627a7a7230582071fb8bd144ddbec20d13f4c4de9863ac665d499f536e2f8ec330c87dd6dbc05a0029",
  "source": "pragma solidity ^0.4.24;\n\nimport \"./zeppelin/math/SafeMath.sol\";\nimport \"./zeppelin/ownership/Ownable.sol\";\nimport \"./interface/IStateMachine.sol\";\n\n\n/**\n * @title StateMachine\n * @dev StateMachine contract\n * Implements a programmable state machine\n * The machine can follow automatically transition from\n * one state to another if one of the condition is matched:\n * - transitionEndTime is not 0 and lower than current time\n * - transitionDelay is not 0 and lower than the delay since\n *   the beginning of the step (ie stepTime)\n * @author Cyril Lapinte - <cyril.lapinte@mtpelerin.com>\n *\n * Error messages\n * E01: No plans are configured\n * E02: Historical steps must happened in the past\n * E03: New step must be no earlier the previous one\n * E04: There is no transitions to update\n * E05: Transition update must be in the future\n * E06: Current step is already the last step\n * E07: The current step has already a transition\n*/\ncontract StateMachine is IStateMachine, Ownable {\n  using SafeMath for uint256;\n\n  struct Step {\n    uint256 stepTime;\n\n    // Automatic transition attributes\n    uint256 transitionEndTime;\n    uint256 transitionDelay;\n  }\n  Step[] private steps;\n  uint8 private manualStepId;\n\n  /**\n   * @dev stepTime\n   **/\n  function stepTime(uint256 _stepId) public view returns (uint256) {\n    return steps[_stepId].stepTime;\n  }\n\n  /**\n   * @dev transitionEndTime\n   **/\n  function transitionEndTime(uint256 _stepId) public view returns (uint256) {\n    return steps[_stepId].transitionEndTime;\n  }\n\n  /**\n   * @dev transitionDelay\n   **/\n  function transitionDelay(uint256 _stepId) public view returns (uint256) {\n    return steps[_stepId].transitionDelay;\n  }\n\n  /**\n   * @dev stepsCount\n   **/\n  function stepsCount() public view returns (uint256) {\n    return steps.length;\n  }\n\n  /**\n   * @dev stepEndTime\n   * returns the step end time based on its start time\n   **/\n  function stepEndTime(uint256 _stepId, uint256 _startedAt)\n    public view returns (uint256)\n  {\n    uint256 endTime = ~uint256(0);\n    Step memory step = steps[_stepId];\n\n    if (step.transitionDelay != 0) {\n      endTime = _startedAt.add(step.transitionDelay);\n    }\n    if (step.transitionEndTime != 0 && step.transitionEndTime < endTime) {\n      endTime = step.transitionEndTime;\n    }\n    return endTime;\n  }\n\n  /**\n   * @dev currentStep\n   * returns the current step\n   **/\n  function currentStep() public view returns (uint256) {\n    require(steps.length > 0, \"E01\");\n    uint256 currentStepId = manualStepId;\n\n    uint256 currentStepTime = steps[manualStepId].stepTime;\n    for (uint256 i = currentStepId; i < steps.length; i++) {\n      uint256 endTime = stepEndTime(i, currentStepTime);\n      if (endTime >= currentTime() || (i == steps.length-1)) {\n        currentStepId = i;\n        break;\n      }\n      currentStepTime = endTime;\n    }\n\n    return currentStepId;\n  }\n\n  /**\n   * @dev addStep\n   * If there will be automatically a transition to the next step\n   * when either the end time or the delay after the begining of that step\n   * expires\n   * @param _transitionEndTime plan end time for the step\n   * @param _transitionDelay plan delay for that step\n   **/\n  function addStep(\n    uint256 _transitionEndTime,\n    uint256 _transitionDelay) internal onlyOwner returns (uint256)\n  {\n    uint256 _stepTime = 0;\n    if (steps.length == 0) {\n      _stepTime = currentTime();\n    }\n    steps.push(Step(_stepTime, _transitionEndTime, _transitionDelay));\n    return steps.length-1;\n  }\n\n  /**\n   * @dev addHistoricalStep\n   * Allow to add step in the past\n   *\n   * @param _stepTime historical step time\n   * @param _transitionEndTime plan end time for the step\n   * @param _transitionDelay plan delay for that step\n   **/\n  function addHistoricalStep(\n    uint256 _stepTime,\n    uint256 _transitionEndTime,\n    uint256 _transitionDelay) internal onlyOwner returns (uint256)\n  {\n    // the stepTime must be in the past and consecutive to previous steps\n    require(_stepTime < currentTime(), \"E02\");\n    if (steps.length > 0) {\n      require(_stepTime > steps[steps.length-1].stepTime, \"E03\");\n    }\n\n    uint256 newId = addStep(_transitionEndTime, _transitionDelay);\n    steps[newId].stepTime = _stepTime;\n    return newId;\n  }\n\n  /**\n   * @dev updateCurrentStep\n   * Allow adjustement of the current step planning\n   * It is restricted to the following cases:\n   * - There is already a transition planned\n   * - The adjustement must be in the future\n   *   if the transition EndTime is updated.\n   *   The check on the transition Delay is too costly\n   **/\n  function updateCurrentStep(\n    uint256 _transitionEndTime,\n    uint256 _transitionDelay) internal onlyOwner\n  {\n    uint256 currentStepId = currentStep();\n\n    if (_transitionEndTime > 0) {\n      require(steps[currentStepId].transitionEndTime > 0, \"E04\");\n      require(_transitionEndTime > currentTime(), \"E05\");\n      steps[currentStepId].transitionEndTime = _transitionEndTime;\n    }\n\n    if (_transitionDelay > 0) {\n      require(steps[currentStepId].transitionDelay > 0, \"E04\");\n      steps[currentStepId].transitionDelay = _transitionDelay;\n    }\n  }\n\n  /**\n   * @dev nextStep\n   * progress to the next step\n   * cannnot be done when either:\n   * - the current step is the last step\n   * - the current step has already a planned transition\n   **/\n  function nextStep() internal {\n    uint256 currentStepId = currentStep();\n    require(currentStepId < steps.length - 1, \"SATE_MACHINE_06\");\n\n    // Prevent manual iteration over next steps\n    require(\n      steps[currentStepId].transitionEndTime == 0 &&\n      steps[currentStepId].transitionDelay == 0, \"E07\");\n\n    manualStepId = uint8(currentStepId.add(1));\n    steps[manualStepId].stepTime = currentTime();\n  }\n\n  function currentTime() internal view returns (uint256) {\n    // solium-disable-next-line security/no-block-members\n    return block.timestamp;\n  }\n}\n",
  "sourcePath": "/home/node/project/contracts/StateMachine.sol",
  "compiler": {
    "name": "solc",
    "version": "0.4.24+commit.e67f0147.Emscripten.clang"
  },
  "schemaVersion": "2.0.1",
  "updatedAt": "2018-08-15T14:19:55.839Z"
}