{
  "contractName": "StrategicInvestorsRule",
  "abi": [
    {
      "constant": false,
      "inputs": [],
      "name": "renounceOwnership",
      "outputs": [],
      "payable": false,
      "stateMutability": "nonpayable",
      "type": "function"
    },
    {
      "constant": true,
      "inputs": [],
      "name": "owner",
      "outputs": [
        {
          "name": "",
          "type": "address"
        }
      ],
      "payable": false,
      "stateMutability": "view",
      "type": "function"
    },
    {
      "constant": false,
      "inputs": [
        {
          "name": "_newOwner",
          "type": "address"
        }
      ],
      "name": "transferOwnership",
      "outputs": [],
      "payable": false,
      "stateMutability": "nonpayable",
      "type": "function"
    },
    {
      "inputs": [
        {
          "name": "_userRegistry",
          "type": "address"
        },
        {
          "name": "_token",
          "type": "address"
        },
        {
          "name": "_strategicThreshold",
          "type": "uint256"
        },
        {
          "name": "_userIds",
          "type": "uint256[]"
        }
      ],
      "payable": false,
      "stateMutability": "nonpayable",
      "type": "constructor"
    },
    {
      "anonymous": false,
      "inputs": [
        {
          "indexed": false,
          "name": "strategicThreshold",
          "type": "uint256"
        }
      ],
      "name": "StrategicThresholdUpdated",
      "type": "event"
    },
    {
      "anonymous": false,
      "inputs": [
        {
          "indexed": true,
          "name": "userId",
          "type": "uint256"
        },
        {
          "indexed": false,
          "name": "status",
          "type": "bool"
        }
      ],
      "name": "StrategicInvestorUpdated",
      "type": "event"
    },
    {
      "anonymous": false,
      "inputs": [
        {
          "indexed": true,
          "name": "previousOwner",
          "type": "address"
        }
      ],
      "name": "OwnershipRenounced",
      "type": "event"
    },
    {
      "anonymous": false,
      "inputs": [
        {
          "indexed": true,
          "name": "previousOwner",
          "type": "address"
        },
        {
          "indexed": true,
          "name": "newOwner",
          "type": "address"
        }
      ],
      "name": "OwnershipTransferred",
      "type": "event"
    },
    {
      "constant": true,
      "inputs": [],
      "name": "userRegistry",
      "outputs": [
        {
          "name": "",
          "type": "address"
        }
      ],
      "payable": false,
      "stateMutability": "view",
      "type": "function"
    },
    {
      "constant": true,
      "inputs": [],
      "name": "token",
      "outputs": [
        {
          "name": "",
          "type": "address"
        }
      ],
      "payable": false,
      "stateMutability": "view",
      "type": "function"
    },
    {
      "constant": true,
      "inputs": [],
      "name": "strategicThreshold",
      "outputs": [
        {
          "name": "",
          "type": "uint256"
        }
      ],
      "payable": false,
      "stateMutability": "view",
      "type": "function"
    },
    {
      "constant": true,
      "inputs": [
        {
          "name": "_userId",
          "type": "uint256"
        }
      ],
      "name": "isStrategicInvestor",
      "outputs": [
        {
          "name": "",
          "type": "bool"
        }
      ],
      "payable": false,
      "stateMutability": "view",
      "type": "function"
    },
    {
      "constant": true,
      "inputs": [
        {
          "name": "_address",
          "type": "address"
        }
      ],
      "name": "isAddressValid",
      "outputs": [
        {
          "name": "",
          "type": "bool"
        }
      ],
      "payable": false,
      "stateMutability": "view",
      "type": "function"
    },
    {
      "constant": true,
      "inputs": [
        {
          "name": "",
          "type": "address"
        },
        {
          "name": "_to",
          "type": "address"
        },
        {
          "name": "_amount",
          "type": "uint256"
        }
      ],
      "name": "isTransferValid",
      "outputs": [
        {
          "name": "",
          "type": "bool"
        }
      ],
      "payable": false,
      "stateMutability": "view",
      "type": "function"
    },
    {
      "constant": false,
      "inputs": [
        {
          "name": "_userId",
          "type": "uint256"
        },
        {
          "name": "_isStrategicInvestor",
          "type": "bool"
        }
      ],
      "name": "updateStrategicInvestor",
      "outputs": [],
      "payable": false,
      "stateMutability": "nonpayable",
      "type": "function"
    },
    {
      "constant": false,
      "inputs": [
        {
          "name": "_userIds",
          "type": "uint256[]"
        },
        {
          "name": "_isStrategicInvestor",
          "type": "bool"
        }
      ],
      "name": "updateManyStrategicInvestors",
      "outputs": [],
      "payable": false,
      "stateMutability": "nonpayable",
      "type": "function"
    },
    {
      "constant": false,
      "inputs": [
        {
          "name": "_strategicThreshold",
          "type": "uint256"
        }
      ],
      "name": "updateStrategicThreshold",
      "outputs": [],
      "payable": false,
      "stateMutability": "nonpayable",
      "type": "function"
    }
  ],
  "bytecode": "0x608060405234801561001057600080fd5b506040516110e03803806110e083398101806040528101908080519060200190929190805190602001909291908051906020019092919080518201929190505050336000806101000a81548173ffffffffffffffffffffffffffffffffffffffff021916908373ffffffffffffffffffffffffffffffffffffffff16021790555083600160006101000a81548173ffffffffffffffffffffffffffffffffffffffff021916908373ffffffffffffffffffffffffffffffffffffffff16021790555082600260006101000a81548173ffffffffffffffffffffffffffffffffffffffff021916908373ffffffffffffffffffffffffffffffffffffffff1602179055508160038190555061013481600161013d640100000000026401000000009004565b5050505061024f565b60008060009054906101000a900473ffffffffffffffffffffffffffffffffffffffff1673ffffffffffffffffffffffffffffffffffffffff163373ffffffffffffffffffffffffffffffffffffffff1614151561019a57600080fd5b600090505b825181101561024a57816004600085848151811015156101bb57fe5b90602001906020020151815260200190815260200160002060006101000a81548160ff02191690831515021790555082818151811015156101f857fe5b906020019060200201517f943f4c072c5f02dc289a11ff574f8074df3b830758895487099dccfa33a283e683604051808215151515815260200191505060405180910390a2808060010191505061019f565b505050565b610e828061025e6000396000f3006080604052600436106100ba576000357c0100000000000000000000000000000000000000000000000000000000900463ffffffff16806301dd8a58146100bf578063174d13a3146100f857806340ecb7f21461013d57806353084d11146101c25780635c7460d614610234578063715018a61461028b5780637bd6b622146102a25780638da5cb5b146102cd578063a56a567614610324578063cf31ff8614610351578063f2fde38b146103ac578063fc0c546a146103ef575b600080fd5b3480156100cb57600080fd5b506100f660048036038101908080359060200190929190803515159060200190929190505050610446565b005b34801561010457600080fd5b506101236004803603810190808035906020019092919050505061050c565b604051808215151515815260200191505060405180910390f35b34801561014957600080fd5b506101a8600480360381019080803573ffffffffffffffffffffffffffffffffffffffff169060200190929190803573ffffffffffffffffffffffffffffffffffffffff16906020019092919080359060200190929190505050610536565b604051808215151515815260200191505060405180910390f35b3480156101ce57600080fd5b5061023260048036038101908080359060200190820180359060200190808060200260200160405190810160405280939291908181526020018383602002808284378201915050505050509192919290803515159060200190929190505050610777565b005b34801561024057600080fd5b50610249610889565b604051808273ffffffffffffffffffffffffffffffffffffffff1673ffffffffffffffffffffffffffffffffffffffff16815260200191505060405180910390f35b34801561029757600080fd5b506102a06108b3565b005b3480156102ae57600080fd5b506102b76109b5565b6040518082815260200191505060405180910390f35b3480156102d957600080fd5b506102e26109bf565b604051808273ffffffffffffffffffffffffffffffffffffffff1673ffffffffffffffffffffffffffffffffffffffff16815260200191505060405180910390f35b34801561033057600080fd5b5061034f600480360381019080803590602001909291905050506109e4565b005b34801561035d57600080fd5b50610392600480360381019080803573ffffffffffffffffffffffffffffffffffffffff169060200190929190505050610a82565b604051808215151515815260200191505060405180910390f35b3480156103b857600080fd5b506103ed600480360381019080803573ffffffffffffffffffffffffffffffffffffffff169060200190929190505050610caf565b005b3480156103fb57600080fd5b50610404610d16565b604051808273ffffffffffffffffffffffffffffffffffffffff1673ffffffffffffffffffffffffffffffffffffffff16815260200191505060405180910390f35b6000809054906101000a900473ffffffffffffffffffffffffffffffffffffffff1673ffffffffffffffffffffffffffffffffffffffff163373ffffffffffffffffffffffffffffffffffffffff161415156104a157600080fd5b806004600084815260200190815260200160002060006101000a81548160ff021916908315150217905550817f943f4c072c5f02dc289a11ff574f8074df3b830758895487099dccfa33a283e682604051808215151515815260200191505060405180910390a25050565b60006004600083815260200190815260200160002060009054906101000a900460ff169050919050565b600060035461064583600260009054906101000a900473ffffffffffffffffffffffffffffffffffffffff1673ffffffffffffffffffffffffffffffffffffffff166370a08231876040518263ffffffff167c0100000000000000000000000000000000000000000000000000000000028152600401808273ffffffffffffffffffffffffffffffffffffffff1673ffffffffffffffffffffffffffffffffffffffff168152602001915050602060405180830381600087803b1580156105fc57600080fd5b505af1158015610610573d6000803e3d6000fd5b505050506040513d602081101561062657600080fd5b8101908080519060200190929190505050610d4090919063ffffffff16565b10151561076b5760046000600160009054906101000a900473ffffffffffffffffffffffffffffffffffffffff1673ffffffffffffffffffffffffffffffffffffffff1663376fe102866040518263ffffffff167c0100000000000000000000000000000000000000000000000000000000028152600401808273ffffffffffffffffffffffffffffffffffffffff1673ffffffffffffffffffffffffffffffffffffffff168152602001915050602060405180830381600087803b15801561070d57600080fd5b505af1158015610721573d6000803e3d6000fd5b505050506040513d602081101561073757600080fd5b8101908080519060200190929190505050815260200190815260200160002060009054906101000a900460ff169050610770565b600190505b9392505050565b60008060009054906101000a900473ffffffffffffffffffffffffffffffffffffffff1673ffffffffffffffffffffffffffffffffffffffff163373ffffffffffffffffffffffffffffffffffffffff161415156107d457600080fd5b600090505b825181101561088457816004600085848151811015156107f557fe5b90602001906020020151815260200190815260200160002060006101000a81548160ff021916908315150217905550828181518110151561083257fe5b906020019060200201517f943f4c072c5f02dc289a11ff574f8074df3b830758895487099dccfa33a283e683604051808215151515815260200191505060405180910390a280806001019150506107d9565b505050565b6000600160009054906101000a900473ffffffffffffffffffffffffffffffffffffffff16905090565b6000809054906101000a900473ffffffffffffffffffffffffffffffffffffffff1673ffffffffffffffffffffffffffffffffffffffff163373ffffffffffffffffffffffffffffffffffffffff1614151561090e57600080fd5b6000809054906101000a900473ffffffffffffffffffffffffffffffffffffffff1673ffffffffffffffffffffffffffffffffffffffff167ff8df31144d9c2f0f6b59d69b8b98abd5459d07f2742c4df920b25aae33c6482060405160405180910390a260008060006101000a81548173ffffffffffffffffffffffffffffffffffffffff021916908373ffffffffffffffffffffffffffffffffffffffff160217905550565b6000600354905090565b6000809054906101000a900473ffffffffffffffffffffffffffffffffffffffff1681565b6000809054906101000a900473ffffffffffffffffffffffffffffffffffffffff1673ffffffffffffffffffffffffffffffffffffffff163373ffffffffffffffffffffffffffffffffffffffff16141515610a3f57600080fd5b806003819055507fa75e3f62145e123d821ba60efe22b1856b3ba82e25f2941add66b35a8c4b11356003546040518082815260200191505060405180910390a150565b6000600354600260009054906101000a900473ffffffffffffffffffffffffffffffffffffffff1673ffffffffffffffffffffffffffffffffffffffff166370a08231846040518263ffffffff167c0100000000000000000000000000000000000000000000000000000000028152600401808273ffffffffffffffffffffffffffffffffffffffff1673ffffffffffffffffffffffffffffffffffffffff168152602001915050602060405180830381600087803b158015610b4457600080fd5b505af1158015610b58573d6000803e3d6000fd5b505050506040513d6020811015610b6e57600080fd5b8101908080519060200190929190505050101515610ca55760046000600160009054906101000a900473ffffffffffffffffffffffffffffffffffffffff1673ffffffffffffffffffffffffffffffffffffffff1663376fe102856040518263ffffffff167c0100000000000000000000000000000000000000000000000000000000028152600401808273ffffffffffffffffffffffffffffffffffffffff1673ffffffffffffffffffffffffffffffffffffffff168152602001915050602060405180830381600087803b158015610c4757600080fd5b505af1158015610c5b573d6000803e3d6000fd5b505050506040513d6020811015610c7157600080fd5b8101908080519060200190929190505050815260200190815260200160002060009054906101000a900460ff169050610caa565b600190505b919050565b6000809054906101000a900473ffffffffffffffffffffffffffffffffffffffff1673ffffffffffffffffffffffffffffffffffffffff163373ffffffffffffffffffffffffffffffffffffffff16141515610d0a57600080fd5b610d1381610d5c565b50565b6000600260009054906101000a900473ffffffffffffffffffffffffffffffffffffffff16905090565b60008183019050828110151515610d5357fe5b80905092915050565b600073ffffffffffffffffffffffffffffffffffffffff168173ffffffffffffffffffffffffffffffffffffffff1614151515610d9857600080fd5b8073ffffffffffffffffffffffffffffffffffffffff166000809054906101000a900473ffffffffffffffffffffffffffffffffffffffff1673ffffffffffffffffffffffffffffffffffffffff167f8be0079c531659141344cd1fd0a4f28419497f9722a3daafe3b4186f6b6457e060405160405180910390a3806000806101000a81548173ffffffffffffffffffffffffffffffffffffffff021916908373ffffffffffffffffffffffffffffffffffffffff160217905550505600a165627a7a723058204a94a4c245c0b6d428426a9efbf67b2249e31a847672f307b64aa7ceaa4c2bae0029",
  "source": "pragma solidity ^0.4.24;\n\nimport \"../interface/IRule.sol\";\nimport \"../interface/IUserRegistry.sol\";\nimport \"../zeppelin/token/ERC20/ERC20.sol\";\nimport \"../zeppelin/ownership/Ownable.sol\";\nimport \"../zeppelin/math/SafeMath.sol\";\n\n\n/**\n * @title StrategicInvestorsRule\n * @dev StrategicInvestorsRule interface\n * @author Cyril Lapinte - <cyril.lapinte@mtpelerin.com>\n *\n * The rule check if the holder is going to reach the shares ownership level\n * where he does become a strategic investors.\n * In this case, he must become registred before\n*/\ncontract StrategicInvestorsRule is IRule, Ownable {\n  using SafeMath for uint256;\n\n  IUserRegistry public userRegistry;\n  ERC20 public token;\n\n  // Number of token to hold to become a strategic investor\n  uint256 public strategicThreshold;\n\n  // Strategic investors whitelist\n  mapping(uint256 => bool) internal strategicInvestors;\n\n  /**\n   * @dev constructor\n   */\n  constructor(IUserRegistry _userRegistry, ERC20 _token,\n          uint256 _strategicThreshold, uint256[] _userIds) public {\n    userRegistry = _userRegistry;\n    token = _token;\n    strategicThreshold = _strategicThreshold;\n    updateManyStrategicInvestors(_userIds, true);\n  }\n\n  /**\n   * @dev returns the user registry\n   */\n  function userRegistry() public view returns (IUserRegistry) {\n    return userRegistry;\n  }\n\n  /**\n   * @dev returns the user registry\n   */\n  function token() public view returns (ERC20) {\n    return token;\n  }\n\n  /**\n   * @dev returns the strategic threshold\n   */\n  function strategicThreshold() public view returns (uint256) {\n    return strategicThreshold;\n  }\n\n  /**\n   * @dev does the user belongs to strategic investors\n   */\n  function isStrategicInvestor(uint256 _userId) public view returns (bool) {\n    return strategicInvestors[_userId];\n  }\n\n  /**\n   * @dev validates an address\n   */\n  function isAddressValid(address _address) public view returns (bool) {\n    if (token.balanceOf(_address) >= strategicThreshold) {\n      return strategicInvestors[userRegistry.userId(_address)];\n    }\n    return true;\n  }\n\n  /**\n   * @dev validates a transfer of ownership\n   */\n  function isTransferValid(address /* _from */, address _to, uint256 _amount)\n    public view returns (bool)\n  {\n    if (token.balanceOf(_to).add(_amount) >= strategicThreshold) {\n      return strategicInvestors[userRegistry.userId(_to)];\n    }\n    return true;\n  }\n\n  /**\n   * @dev update the strategic investor status\n   */\n  function updateStrategicInvestor(uint256 _userId, bool _isStrategicInvestor)\n    public onlyOwner\n  {\n    strategicInvestors[_userId] = _isStrategicInvestor;\n    emit StrategicInvestorUpdated(_userId, _isStrategicInvestor);\n  }\n\n  /**\n   * @dev update the strategic investor status\n   */\n  function updateManyStrategicInvestors(\n    uint256[] _userIds,\n    bool _isStrategicInvestor)\n    public onlyOwner\n  {\n    for (uint256 i = 0; i < _userIds.length; i++) {\n      strategicInvestors[_userIds[i]] = _isStrategicInvestor;\n      emit StrategicInvestorUpdated(_userIds[i], _isStrategicInvestor);\n    }\n  }\n\n  /**\n   * @dev update the strategic threshold\n   */\n  function updateStrategicThreshold(uint256 _strategicThreshold)\n    public onlyOwner\n  {\n    strategicThreshold = _strategicThreshold;\n    emit StrategicThresholdUpdated(strategicThreshold);\n  }\n\n  event StrategicThresholdUpdated(uint256 strategicThreshold);\n  event StrategicInvestorUpdated(uint256 indexed userId, bool status);\n}\n",
  "sourcePath": "/home/node/project/contracts/rule/StrategicInvestorsRule.sol",
  "compiler": {
    "name": "solc",
    "version": "0.4.24+commit.e67f0147.Emscripten.clang"
  },
  "schemaVersion": "2.0.1",
  "updatedAt": "2018-08-15T14:19:55.925Z"
}