{
  "contractName": "TokenizedVotingWithRules",
  "abi": [
    {
      "constant": true,
      "inputs": [],
      "name": "proposalsCount",
      "outputs": [
        {
          "name": "",
          "type": "uint256"
        }
      ],
      "payable": false,
      "stateMutability": "view",
      "type": "function"
    },
    {
      "constant": false,
      "inputs": [
        {
          "name": "_rules",
          "type": "address[]"
        }
      ],
      "name": "addManyRules",
      "outputs": [],
      "payable": false,
      "stateMutability": "nonpayable",
      "type": "function"
    },
    {
      "constant": true,
      "inputs": [
        {
          "name": "_proposalId",
          "type": "uint256"
        }
      ],
      "name": "isOnGoing",
      "outputs": [
        {
          "name": "",
          "type": "bool"
        }
      ],
      "payable": false,
      "stateMutability": "view",
      "type": "function"
    },
    {
      "constant": true,
      "inputs": [],
      "name": "areAnyOnGoing",
      "outputs": [
        {
          "name": "",
          "type": "bool"
        }
      ],
      "payable": false,
      "stateMutability": "view",
      "type": "function"
    },
    {
      "constant": false,
      "inputs": [
        {
          "name": "_proposalId",
          "type": "uint256"
        },
        {
          "name": "_option",
          "type": "uint8"
        }
      ],
      "name": "lockVote",
      "outputs": [],
      "payable": false,
      "stateMutability": "nonpayable",
      "type": "function"
    },
    {
      "constant": true,
      "inputs": [],
      "name": "defaultDuration",
      "outputs": [
        {
          "name": "",
          "type": "uint256"
        }
      ],
      "payable": false,
      "stateMutability": "view",
      "type": "function"
    },
    {
      "constant": true,
      "inputs": [],
      "name": "latestVotingTime",
      "outputs": [
        {
          "name": "",
          "type": "uint256"
        }
      ],
      "payable": false,
      "stateMutability": "view",
      "type": "function"
    },
    {
      "constant": true,
      "inputs": [
        {
          "name": "_proposalId",
          "type": "uint256"
        }
      ],
      "name": "result",
      "outputs": [
        {
          "name": "",
          "type": "uint256"
        }
      ],
      "payable": false,
      "stateMutability": "view",
      "type": "function"
    },
    {
      "constant": true,
      "inputs": [
        {
          "name": "_proposalId",
          "type": "uint256"
        }
      ],
      "name": "voteQuorum",
      "outputs": [
        {
          "name": "",
          "type": "uint256"
        }
      ],
      "payable": false,
      "stateMutability": "view",
      "type": "function"
    },
    {
      "constant": true,
      "inputs": [
        {
          "name": "_proposalId",
          "type": "uint256"
        }
      ],
      "name": "participation",
      "outputs": [
        {
          "name": "",
          "type": "uint256"
        }
      ],
      "payable": false,
      "stateMutability": "view",
      "type": "function"
    },
    {
      "constant": true,
      "inputs": [
        {
          "name": "_proposalId",
          "type": "uint256"
        }
      ],
      "name": "proposalHash",
      "outputs": [
        {
          "name": "",
          "type": "uint256"
        }
      ],
      "payable": false,
      "stateMutability": "view",
      "type": "function"
    },
    {
      "constant": true,
      "inputs": [
        {
          "name": "_address",
          "type": "address"
        }
      ],
      "name": "validateAddress",
      "outputs": [
        {
          "name": "",
          "type": "bool"
        }
      ],
      "payable": false,
      "stateMutability": "view",
      "type": "function"
    },
    {
      "constant": true,
      "inputs": [
        {
          "name": "_proposalId",
          "type": "uint256"
        }
      ],
      "name": "proposalCreatedAt",
      "outputs": [
        {
          "name": "",
          "type": "uint256"
        }
      ],
      "payable": false,
      "stateMutability": "view",
      "type": "function"
    },
    {
      "constant": true,
      "inputs": [
        {
          "name": "_proposalId",
          "type": "uint256"
        },
        {
          "name": "_holder",
          "type": "address"
        },
        {
          "name": "_proofId",
          "type": "uint256"
        }
      ],
      "name": "votesAvailableWithProof",
      "outputs": [
        {
          "name": "",
          "type": "uint256"
        }
      ],
      "payable": false,
      "stateMutability": "view",
      "type": "function"
    },
    {
      "constant": true,
      "inputs": [
        {
          "name": "_proposalId",
          "type": "uint256"
        }
      ],
      "name": "voteMinScore",
      "outputs": [
        {
          "name": "",
          "type": "uint256"
        }
      ],
      "payable": false,
      "stateMutability": "view",
      "type": "function"
    },
    {
      "constant": false,
      "inputs": [
        {
          "name": "_proposalId",
          "type": "uint256"
        }
      ],
      "name": "closeVote",
      "outputs": [],
      "payable": false,
      "stateMutability": "nonpayable",
      "type": "function"
    },
    {
      "constant": true,
      "inputs": [],
      "name": "defaultQuorum",
      "outputs": [
        {
          "name": "",
          "type": "uint256"
        }
      ],
      "payable": false,
      "stateMutability": "view",
      "type": "function"
    },
    {
      "constant": false,
      "inputs": [],
      "name": "renounceOwnership",
      "outputs": [],
      "payable": false,
      "stateMutability": "nonpayable",
      "type": "function"
    },
    {
      "constant": true,
      "inputs": [
        {
          "name": "_proposalId",
          "type": "uint256"
        }
      ],
      "name": "voteDuration",
      "outputs": [
        {
          "name": "",
          "type": "uint256"
        }
      ],
      "payable": false,
      "stateMutability": "view",
      "type": "function"
    },
    {
      "constant": true,
      "inputs": [
        {
          "name": "_proposalId",
          "type": "uint256"
        }
      ],
      "name": "proposalUrl",
      "outputs": [
        {
          "name": "",
          "type": "string"
        }
      ],
      "payable": false,
      "stateMutability": "view",
      "type": "function"
    },
    {
      "constant": false,
      "inputs": [
        {
          "name": "_token",
          "type": "address"
        }
      ],
      "name": "updateToken",
      "outputs": [],
      "payable": false,
      "stateMutability": "nonpayable",
      "type": "function"
    },
    {
      "constant": true,
      "inputs": [
        {
          "name": "_proposalId",
          "type": "uint256"
        },
        {
          "name": "_holder",
          "type": "address"
        }
      ],
      "name": "votesAvailable",
      "outputs": [
        {
          "name": "",
          "type": "uint256"
        }
      ],
      "payable": false,
      "stateMutability": "view",
      "type": "function"
    },
    {
      "constant": true,
      "inputs": [
        {
          "name": "_proposalId",
          "type": "uint256"
        },
        {
          "name": "_participant",
          "type": "address"
        }
      ],
      "name": "optionVoted",
      "outputs": [
        {
          "name": "",
          "type": "uint8"
        }
      ],
      "payable": false,
      "stateMutability": "view",
      "type": "function"
    },
    {
      "constant": true,
      "inputs": [],
      "name": "defaultMinScore",
      "outputs": [
        {
          "name": "",
          "type": "uint256"
        }
      ],
      "payable": false,
      "stateMutability": "view",
      "type": "function"
    },
    {
      "constant": true,
      "inputs": [],
      "name": "owner",
      "outputs": [
        {
          "name": "",
          "type": "address"
        }
      ],
      "payable": false,
      "stateMutability": "view",
      "type": "function"
    },
    {
      "constant": false,
      "inputs": [
        {
          "name": "_question",
          "type": "string"
        },
        {
          "name": "_url",
          "type": "string"
        },
        {
          "name": "_hash",
          "type": "uint256"
        },
        {
          "name": "_optionsAvailable",
          "type": "uint8"
        }
      ],
      "name": "addProposal",
      "outputs": [],
      "payable": false,
      "stateMutability": "nonpayable",
      "type": "function"
    },
    {
      "constant": true,
      "inputs": [
        {
          "name": "_proposalId",
          "type": "uint256"
        }
      ],
      "name": "proposalOptionsAvailable",
      "outputs": [
        {
          "name": "",
          "type": "uint8"
        }
      ],
      "payable": false,
      "stateMutability": "view",
      "type": "function"
    },
    {
      "constant": true,
      "inputs": [],
      "name": "ruleLength",
      "outputs": [
        {
          "name": "",
          "type": "uint256"
        }
      ],
      "payable": false,
      "stateMutability": "view",
      "type": "function"
    },
    {
      "constant": true,
      "inputs": [
        {
          "name": "_proposalId",
          "type": "uint256"
        }
      ],
      "name": "proposalQuestion",
      "outputs": [
        {
          "name": "",
          "type": "string"
        }
      ],
      "payable": false,
      "stateMutability": "view",
      "type": "function"
    },
    {
      "constant": true,
      "inputs": [
        {
          "name": "_proposalId",
          "type": "uint256"
        },
        {
          "name": "_participant",
          "type": "address"
        }
      ],
      "name": "isDeclared",
      "outputs": [
        {
          "name": "",
          "type": "bool"
        }
      ],
      "payable": false,
      "stateMutability": "view",
      "type": "function"
    },
    {
      "constant": true,
      "inputs": [
        {
          "name": "_from",
          "type": "address"
        },
        {
          "name": "_to",
          "type": "address"
        },
        {
          "name": "_amount",
          "type": "uint256"
        }
      ],
      "name": "validateTransfer",
      "outputs": [
        {
          "name": "",
          "type": "bool"
        }
      ],
      "payable": false,
      "stateMutability": "view",
      "type": "function"
    },
    {
      "constant": false,
      "inputs": [
        {
          "name": "_ruleId",
          "type": "uint256"
        }
      ],
      "name": "removeRule",
      "outputs": [],
      "payable": false,
      "stateMutability": "nonpayable",
      "type": "function"
    },
    {
      "constant": true,
      "inputs": [
        {
          "name": "_ruleId",
          "type": "uint256"
        }
      ],
      "name": "rule",
      "outputs": [
        {
          "name": "",
          "type": "address"
        }
      ],
      "payable": false,
      "stateMutability": "view",
      "type": "function"
    },
    {
      "constant": false,
      "inputs": [
        {
          "name": "_rule",
          "type": "address"
        }
      ],
      "name": "addRule",
      "outputs": [],
      "payable": false,
      "stateMutability": "nonpayable",
      "type": "function"
    },
    {
      "constant": true,
      "inputs": [
        {
          "name": "_proposalId",
          "type": "uint256"
        }
      ],
      "name": "ballot",
      "outputs": [
        {
          "name": "",
          "type": "uint256[]"
        }
      ],
      "payable": false,
      "stateMutability": "view",
      "type": "function"
    },
    {
      "constant": false,
      "inputs": [
        {
          "name": "_duration",
          "type": "uint256"
        },
        {
          "name": "_quorum",
          "type": "uint256"
        },
        {
          "name": "_minScore",
          "type": "uint256"
        }
      ],
      "name": "updateVotingRule",
      "outputs": [],
      "payable": false,
      "stateMutability": "nonpayable",
      "type": "function"
    },
    {
      "constant": false,
      "inputs": [
        {
          "name": "_newOwner",
          "type": "address"
        }
      ],
      "name": "transferOwnership",
      "outputs": [],
      "payable": false,
      "stateMutability": "nonpayable",
      "type": "function"
    },
    {
      "constant": true,
      "inputs": [],
      "name": "token",
      "outputs": [
        {
          "name": "",
          "type": "address"
        }
      ],
      "payable": false,
      "stateMutability": "view",
      "type": "function"
    },
    {
      "constant": true,
      "inputs": [
        {
          "name": "_proposalId",
          "type": "uint256"
        },
        {
          "name": "_participant",
          "type": "address"
        }
      ],
      "name": "isVoteLocked",
      "outputs": [
        {
          "name": "",
          "type": "bool"
        }
      ],
      "payable": false,
      "stateMutability": "view",
      "type": "function"
    },
    {
      "inputs": [
        {
          "name": "_token",
          "type": "address"
        },
        {
          "name": "_rules",
          "type": "address[]"
        }
      ],
      "payable": false,
      "stateMutability": "nonpayable",
      "type": "constructor"
    },
    {
      "anonymous": false,
      "inputs": [
        {
          "indexed": false,
          "name": "ruleId",
          "type": "uint256"
        }
      ],
      "name": "RuleAdded",
      "type": "event"
    },
    {
      "anonymous": false,
      "inputs": [
        {
          "indexed": false,
          "name": "ruleId",
          "type": "uint256"
        }
      ],
      "name": "RuleRemoved",
      "type": "event"
    },
    {
      "anonymous": false,
      "inputs": [
        {
          "indexed": false,
          "name": "duration",
          "type": "uint256"
        },
        {
          "indexed": false,
          "name": "quorum",
          "type": "uint256"
        },
        {
          "indexed": false,
          "name": "minScore",
          "type": "uint256"
        }
      ],
      "name": "VotingRuleUpdated",
      "type": "event"
    },
    {
      "anonymous": false,
      "inputs": [
        {
          "indexed": false,
          "name": "proposalId",
          "type": "uint256"
        }
      ],
      "name": "VoteClosed",
      "type": "event"
    },
    {
      "anonymous": false,
      "inputs": [
        {
          "indexed": false,
          "name": "proposalId",
          "type": "uint256"
        }
      ],
      "name": "ProposalAdded",
      "type": "event"
    },
    {
      "anonymous": false,
      "inputs": [
        {
          "indexed": true,
          "name": "previousOwner",
          "type": "address"
        }
      ],
      "name": "OwnershipRenounced",
      "type": "event"
    },
    {
      "anonymous": false,
      "inputs": [
        {
          "indexed": true,
          "name": "previousOwner",
          "type": "address"
        },
        {
          "indexed": true,
          "name": "newOwner",
          "type": "address"
        }
      ],
      "name": "OwnershipTransferred",
      "type": "event"
    },
    {
      "constant": false,
      "inputs": [
        {
          "name": "_proposalId",
          "type": "uint256"
        },
        {
          "name": "_option",
          "type": "uint8"
        }
      ],
      "name": "vote",
      "outputs": [],
      "payable": false,
      "stateMutability": "nonpayable",
      "type": "function"
    },
    {
      "constant": false,
      "inputs": [
        {
          "name": "_proposalId",
          "type": "uint256"
        },
        {
          "name": "_option",
          "type": "uint8"
        },
        {
          "name": "_proofId",
          "type": "uint256"
        }
      ],
      "name": "voteWithProof",
      "outputs": [],
      "payable": false,
      "stateMutability": "nonpayable",
      "type": "function"
    }
  ],
  "bytecode": "0x608060405262127500600355600060045560006005553480156200002257600080fd5b50604051620033ca380380620033ca83398101806040528101908080519060200190929190805182019291905050508082336000806101000a81548173ffffffffffffffffffffffffffffffffffffffff021916908373ffffffffffffffffffffffffffffffffffffffff16021790555080600860006101000a81548173ffffffffffffffffffffffffffffffffffffffff021916908373ffffffffffffffffffffffffffffffffffffffff160217905550508060099080519060200190620000ed929190620000f7565b50505050620001cc565b82805482825590600052602060002090810192821562000173579160200282015b82811115620001725782518260006101000a81548173ffffffffffffffffffffffffffffffffffffffff021916908373ffffffffffffffffffffffffffffffffffffffff1602179055509160200191906001019062000118565b5b50905062000182919062000186565b5090565b620001c991905b80821115620001c557600081816101000a81549073ffffffffffffffffffffffffffffffffffffffff0219169055506001016200018d565b5090565b90565b6131ee80620001dc6000396000f3006080604052600436106101f9576000357c0100000000000000000000000000000000000000000000000000000000900463ffffffff1680630a9f46ad146101fe5780630ad8f8ee146102295780630b5e50941461028f57806317cac3fb146102d457806318733495146103035780632af7e2ea1461033d5780632d19f9a6146103685780633c594059146103935780634f080f25146103d4578063508f93551461041557806357044c0a146104565780635e8e30a6146104975780635f9103b2146104f25780636063d4d614610533578063671ddabd1461059e5780636e48a035146105df57806370af96fb1461060c578063715018a614610637578063768c35a11461064e5780637916b8821461068f5780637ad3def2146107355780637c7a7bfa146107785780637dfe69f5146107d9578063826e56c2146108405780638da5cb5b1461086b5780638f8e632f146108c257806392a546f014610906578063943e8216146109cc578063a4e0d4e414610a06578063b462741614610a4d578063b4706d4214610a78578063c656d3cb14610b1e578063c6946a1214610b83578063d70da38b14610c08578063db18af6c14610c35578063e3c4602c14610ca2578063e794273414610ce5578063edb9f0c314610d67578063f2fde38b14610da8578063fc0c546a14610deb578063ffc5027014610e42575b600080fd5b34801561020a57600080fd5b50610213610ea7565b6040518082815260200191505060405180910390f35b34801561023557600080fd5b5061028d60048036038101908080359060200190820180359060200190808060200260200160405190810160405280939291908181526020018383602002808284378201915050505050509192919290505050610eb1565b005b34801561029b57600080fd5b506102ba60048036038101908080359060200190929190505050610f5d565b604051808215151515815260200191505060405180910390f35b3480156102e057600080fd5b506102e9610fae565b604051808215151515815260200191505060405180910390f35b34801561030f57600080fd5b5061033b60048036038101908080359060200190929190803560ff169060200190929190505050610fc1565b005b34801561034957600080fd5b5061035261103d565b6040518082815260200191505060405180910390f35b34801561037457600080fd5b5061037d611047565b6040518082815260200191505060405180910390f35b34801561039f57600080fd5b506103be60048036038101908080359060200190929190505050611051565b6040518082815260200191505060405180910390f35b3480156103e057600080fd5b506103ff600480360381019080803590602001909291905050506111d2565b6040518082815260200191505060405180910390f35b34801561042157600080fd5b50610440600480360381019080803590602001909291905050506111f2565b6040518082815260200191505060405180910390f35b34801561046257600080fd5b5061048160048036038101908080359060200190929190505050611212565b6040518082815260200191505060405180910390f35b3480156104a357600080fd5b506104d8600480360381019080803573ffffffffffffffffffffffffffffffffffffffff169060200190929190505050611232565b604051808215151515815260200191505060405180910390f35b3480156104fe57600080fd5b5061051d6004803603810190808035906020019092919050505061137d565b6040518082815260200191505060405180910390f35b34801561053f57600080fd5b5061058860048036038101908080359060200190929190803573ffffffffffffffffffffffffffffffffffffffff1690602001909291908035906020019092919050505061139d565b6040518082815260200191505060405180910390f35b3480156105aa57600080fd5b506105c9600480360381019080803590602001909291905050506114c6565b6040518082815260200191505060405180910390f35b3480156105eb57600080fd5b5061060a600480360381019080803590602001909291905050506114e6565b005b34801561061857600080fd5b50610621611638565b6040518082815260200191505060405180910390f35b34801561064357600080fd5b5061064c611642565b005b34801561065a57600080fd5b5061067960048036038101908080359060200190929190505050611744565b6040518082815260200191505060405180910390f35b34801561069b57600080fd5b506106ba60048036038101908080359060200190929190505050611764565b6040518080602001828103825283818151815260200191508051906020019080838360005b838110156106fa5780820151818401526020810190506106df565b50505050905090810190601f1680156107275780820380516001836020036101000a031916815260200191505b509250505060405180910390f35b34801561074157600080fd5b50610776600480360381019080803573ffffffffffffffffffffffffffffffffffffffff16906020019092919050505061181c565b005b34801561078457600080fd5b506107c360048036038101908080359060200190929190803573ffffffffffffffffffffffffffffffffffffffff1690602001909291905050506118bb565b6040518082815260200191505060405180910390f35b3480156107e557600080fd5b5061082460048036038101908080359060200190929190803573ffffffffffffffffffffffffffffffffffffffff169060200190929190505050611adc565b604051808260ff1660ff16815260200191505060405180910390f35b34801561084c57600080fd5b50610855611b4a565b6040518082815260200191505060405180910390f35b34801561087757600080fd5b50610880611b54565b604051808273ffffffffffffffffffffffffffffffffffffffff1673ffffffffffffffffffffffffffffffffffffffff16815260200191505060405180910390f35b3480156108ce57600080fd5b5061090460048036038101908080359060200190929190803560ff16906020019092919080359060200190929190505050611b79565b005b34801561091257600080fd5b506109ca600480360381019080803590602001908201803590602001908080601f0160208091040260200160405190810160405280939291908181526020018383808284378201915050505050509192919290803590602001908201803590602001908080601f016020809104026020016040519081016040528093929190818152602001838380828437820191505050505050919291929080359060200190929190803560ff169060200190929190505050611c08565b005b3480156109d857600080fd5b50610a0460048036038101908080359060200190929190803560ff169060200190929190505050611d17565b005b348015610a1257600080fd5b50610a3160048036038101908080359060200190929190505050611da4565b604051808260ff1660ff16815260200191505060405180910390f35b348015610a5957600080fd5b50610a62611dc9565b6040518082815260200191505060405180910390f35b348015610a8457600080fd5b50610aa360048036038101908080359060200190929190505050611dd6565b6040518080602001828103825283818151815260200191508051906020019080838360005b83811015610ae3578082015181840152602081019050610ac8565b50505050905090810190601f168015610b105780820380516001836020036101000a031916815260200191505b509250505060405180910390f35b348015610b2a57600080fd5b50610b6960048036038101908080359060200190929190803573ffffffffffffffffffffffffffffffffffffffff169060200190929190505050611e8e565b604051808215151515815260200191505060405180910390f35b348015610b8f57600080fd5b50610bee600480360381019080803573ffffffffffffffffffffffffffffffffffffffff169060200190929190803573ffffffffffffffffffffffffffffffffffffffff16906020019092919080359060200190929190505050611efc565b604051808215151515815260200191505060405180910390f35b348015610c1457600080fd5b50610c3360048036038101908080359060200190929190505050612085565b005b348015610c4157600080fd5b50610c6060048036038101908080359060200190929190505050612293565b604051808273ffffffffffffffffffffffffffffffffffffffff1673ffffffffffffffffffffffffffffffffffffffff16815260200191505060405180910390f35b348015610cae57600080fd5b50610ce3600480360381019080803573ffffffffffffffffffffffffffffffffffffffff1690602001909291905050506122d6565b005b348015610cf157600080fd5b50610d1060048036038101908080359060200190929190505050612415565b6040518080602001828103825283818151815260200191508051906020019060200280838360005b83811015610d53578082015181840152602081019050610d38565b505050509050019250505060405180910390f35b348015610d7357600080fd5b50610da6600480360381019080803590602001909291908035906020019092919080359060200190929190505050612483565b005b348015610db457600080fd5b50610de9600480360381019080803573ffffffffffffffffffffffffffffffffffffffff16906020019092919050505061253f565b005b348015610df757600080fd5b50610e006125a6565b604051808273ffffffffffffffffffffffffffffffffffffffff1673ffffffffffffffffffffffffffffffffffffffff16815260200191505060405180910390f35b348015610e4e57600080fd5b50610e8d60048036038101908080359060200190929190803573ffffffffffffffffffffffffffffffffffffffff1690602001909291905050506125d0565b604051808215151515815260200191505060405180910390f35b6000600254905090565b60008060009054906101000a900473ffffffffffffffffffffffffffffffffffffffff1673ffffffffffffffffffffffffffffffffffffffff163373ffffffffffffffffffffffffffffffffffffffff16141515610f0e57600080fd5b60008251111515610f1e57600080fd5b600090505b8151811015610f5957610f4c8282815181101515610f3d57fe5b906020019060200201516122d6565b8080600101915050610f23565b5050565b6000610f9e6006600084815260200190815260200160002060000154600160008581526020019081526020016000206004015461263e90919063ffffffff16565b610fa661265a565b109050919050565b6000600754610fbb61265a565b10905090565b610fcb8282611d17565b600180600084815260200190815260200160002060060160003373ffffffffffffffffffffffffffffffffffffffff1673ffffffffffffffffffffffffffffffffffffffff16815260200190815260200160002060000160026101000a81548160ff0219169083151502179055505050565b6000600354905090565b6000600754905090565b60008060008060008061106387610f5d565b1515156110d8576040517f08c379a00000000000000000000000000000000000000000000000000000000081526004018080602001828103825260038152602001807f453031000000000000000000000000000000000000000000000000000000000081525060200191505060405180910390fd5b600160008881526020019081526020016000209450600660008881526020019081526020016000209350836001015461113a86600501600081548110151561111c57fe5b9060005260206000200154876003015461266290919063ffffffff16565b101561114957600095506111c8565b600190505b84600501805490508110156111af5782856005018281548110151561116f57fe5b906000526020600020015411156111a257809150846005018181548110151561119457fe5b906000526020600020015492505b808060010191505061114e565b83600201548310156111c457600095506111c8565b8195505b5050505050919050565b600060066000838152602001908152602001600020600101549050919050565b600060016000838152602001908152602001600020600301549050919050565b600060016000838152602001908152602001600020600201549050919050565b600080600090505b6009805490508110156113725760098181548110151561125657fe5b9060005260206000200160009054906101000a900473ffffffffffffffffffffffffffffffffffffffff1673ffffffffffffffffffffffffffffffffffffffff1663cf31ff86846040518263ffffffff167c0100000000000000000000000000000000000000000000000000000000028152600401808273ffffffffffffffffffffffffffffffffffffffff1673ffffffffffffffffffffffffffffffffffffffff168152602001915050602060405180830381600087803b15801561131b57600080fd5b505af115801561132f573d6000803e3d6000fd5b505050506040513d602081101561134557600080fd5b810190808051906020019092919050505015156113655760009150611377565b808060010191505061123a565b600191505b50919050565b600060016000838152602001908152602001600020600401549050919050565b6000600860009054906101000a900473ffffffffffffffffffffffffffffffffffffffff1673ffffffffffffffffffffffffffffffffffffffff1663a7341e75848460016000898152602001908152602001600020600401546040518463ffffffff167c0100000000000000000000000000000000000000000000000000000000028152600401808473ffffffffffffffffffffffffffffffffffffffff1673ffffffffffffffffffffffffffffffffffffffff1681526020018381526020018281526020019350505050602060405180830381600087803b15801561148257600080fd5b505af1158015611496573d6000803e3d6000fd5b505050506040513d60208110156114ac57600080fd5b810190808051906020019092919050505090509392505050565b600060066000838152602001908152602001600020600201549050919050565b60008060009054906101000a900473ffffffffffffffffffffffffffffffffffffffff1673ffffffffffffffffffffffffffffffffffffffff163373ffffffffffffffffffffffffffffffffffffffff1614151561154357600080fd5b61154c82610f5d565b15156115c0576040517f08c379a00000000000000000000000000000000000000000000000000000000081526004018080602001828103825260038152602001807f453032000000000000000000000000000000000000000000000000000000000081525060200191505060405180910390fd5b60016000838152602001908152602001600020600401546115df61265a565b0390508060066000848152602001908152602001600020600001819055507fbc12589e76c0d59fd5a7c6f642c154830f0b46718b5ac07d1a0bdf29e124cbd8826040518082815260200191505060405180910390a15050565b6000600454905090565b6000809054906101000a900473ffffffffffffffffffffffffffffffffffffffff1673ffffffffffffffffffffffffffffffffffffffff163373ffffffffffffffffffffffffffffffffffffffff1614151561169d57600080fd5b6000809054906101000a900473ffffffffffffffffffffffffffffffffffffffff1673ffffffffffffffffffffffffffffffffffffffff167ff8df31144d9c2f0f6b59d69b8b98abd5459d07f2742c4df920b25aae33c6482060405160405180910390a260008060006101000a81548173ffffffffffffffffffffffffffffffffffffffff021916908373ffffffffffffffffffffffffffffffffffffffff160217905550565b600060066000838152602001908152602001600020600001549050919050565b6060600160008381526020019081526020016000206001018054600181600116156101000203166002900480601f0160208091040260200160405190810160405280929190818152602001828054600181600116156101000203166002900480156118105780601f106117e557610100808354040283529160200191611810565b820191906000526020600020905b8154815290600101906020018083116117f357829003601f168201915b50505050509050919050565b6000809054906101000a900473ffffffffffffffffffffffffffffffffffffffff1673ffffffffffffffffffffffffffffffffffffffff163373ffffffffffffffffffffffffffffffffffffffff1614151561187757600080fd5b80600860006101000a81548173ffffffffffffffffffffffffffffffffffffffff021916908373ffffffffffffffffffffffffffffffffffffffff16021790555050565b60006001600084815260200190815260200160002060040154600860009054906101000a900473ffffffffffffffffffffffffffffffffffffffff1673ffffffffffffffffffffffffffffffffffffffff166318ec53b2846040518263ffffffff167c0100000000000000000000000000000000000000000000000000000000028152600401808273ffffffffffffffffffffffffffffffffffffffff1673ffffffffffffffffffffffffffffffffffffffff168152602001915050602060405180830381600087803b15801561199157600080fd5b505af11580156119a5573d6000803e3d6000fd5b505050506040513d60208110156119bb57600080fd5b81019080805190602001909291905050501015611ad157600860009054906101000a900473ffffffffffffffffffffffffffffffffffffffff1673ffffffffffffffffffffffffffffffffffffffff166370a08231836040518263ffffffff167c0100000000000000000000000000000000000000000000000000000000028152600401808273ffffffffffffffffffffffffffffffffffffffff1673ffffffffffffffffffffffffffffffffffffffff168152602001915050602060405180830381600087803b158015611a8f57600080fd5b505af1158015611aa3573d6000803e3d6000fd5b505050506040513d6020811015611ab957600080fd5b81019080805190602001909291905050509050611ad6565b600090505b92915050565b60006001600084815260200190815260200160002060060160008373ffffffffffffffffffffffffffffffffffffffff1673ffffffffffffffffffffffffffffffffffffffff16815260200190815260200160002060000160009054906101000a900460ff16905092915050565b6000600554905090565b6000809054906101000a900473ffffffffffffffffffffffffffffffffffffffff1681565b33611b8381611232565b1515611bf7576040517f08c379a000000000000000000000000000000000000000000000000000000000815260040180806020018281038252600c8152602001807f5749544852554c45535f3031000000000000000000000000000000000000000081525060200191505060405180910390fd5b611c0284848461267b565b50505050565b60008060009054906101000a900473ffffffffffffffffffffffffffffffffffffffff1673ffffffffffffffffffffffffffffffffffffffff163373ffffffffffffffffffffffffffffffffffffffff16141515611c6557600080fd5b611c7185858585612791565b60606040519081016040528060035481526020016004548152602001600554815250600660006001600254038152602001908152602001600020600082015181600001556020820151816001015560408201518160020155905050611cfc6003546001600060016002540381526020019081526020016000206004015461263e90919063ffffffff16565b9050600754811115611d1057806007819055505b5050505050565b33611d2181611232565b1515611d95576040517f08c379a000000000000000000000000000000000000000000000000000000000815260040180806020018281038252600c8152602001807f5749544852554c45535f3031000000000000000000000000000000000000000081525060200191505060405180910390fd5b611d9f8383612a9b565b505050565b6000600180600084815260200190815260200160002060050180549050039050919050565b6000600980549050905090565b6060600160008381526020019081526020016000206000018054600181600116156101000203166002900480601f016020809104026020016040519081016040528092919081815260200182805460018160011615610100020316600290048015611e825780601f10611e5757610100808354040283529160200191611e82565b820191906000526020600020905b815481529060010190602001808311611e6557829003601f168201915b50505050509050919050565b60006001600084815260200190815260200160002060060160008373ffffffffffffffffffffffffffffffffffffffff1673ffffffffffffffffffffffffffffffffffffffff16815260200190815260200160002060000160019054906101000a900460ff16905092915050565b600080600090505b60098054905081101561207857600981815481101515611f2057fe5b9060005260206000200160009054906101000a900473ffffffffffffffffffffffffffffffffffffffff1673ffffffffffffffffffffffffffffffffffffffff166340ecb7f28686866040518463ffffffff167c0100000000000000000000000000000000000000000000000000000000028152600401808473ffffffffffffffffffffffffffffffffffffffff1673ffffffffffffffffffffffffffffffffffffffff1681526020018373ffffffffffffffffffffffffffffffffffffffff1673ffffffffffffffffffffffffffffffffffffffff1681526020018281526020019350505050602060405180830381600087803b15801561202157600080fd5b505af1158015612035573d6000803e3d6000fd5b505050506040513d602081101561204b57600080fd5b8101908080519060200190929190505050151561206b576000915061207d565b8080600101915050611f04565b600191505b509392505050565b6000809054906101000a900473ffffffffffffffffffffffffffffffffffffffff1673ffffffffffffffffffffffffffffffffffffffff163373ffffffffffffffffffffffffffffffffffffffff161415156120e057600080fd5b6009805490508110151561215c576040517f08c379a000000000000000000000000000000000000000000000000000000000815260040180806020018281038252600c8152602001807f5749544852554c45535f3033000000000000000000000000000000000000000081525060200191505060405180910390fd5b60098181548110151561216b57fe5b9060005260206000200160006101000a81549073ffffffffffffffffffffffffffffffffffffffff0219169055600160098054905003811415156122435760096001600980549050038154811015156121c057fe5b9060005260206000200160009054906101000a900473ffffffffffffffffffffffffffffffffffffffff166009828154811015156121fa57fe5b9060005260206000200160006101000a81548173ffffffffffffffffffffffffffffffffffffffff021916908373ffffffffffffffffffffffffffffffffffffffff1602179055505b600980548091906001900361225891906130a4565b507f77541af0dd2301e15fec88d72dd3f4aa2f9e5aaaaf8bb55c947241b8aa6d2960816040518082815260200191505060405180910390a150565b60006009828154811015156122a457fe5b9060005260206000200160009054906101000a900473ffffffffffffffffffffffffffffffffffffffff169050919050565b6000809054906101000a900473ffffffffffffffffffffffffffffffffffffffff1673ffffffffffffffffffffffffffffffffffffffff163373ffffffffffffffffffffffffffffffffffffffff1614151561233157600080fd5b600073ffffffffffffffffffffffffffffffffffffffff168173ffffffffffffffffffffffffffffffffffffffff161415151561236d57600080fd5b60098190806001815401808255809150509060018203906000526020600020016000909192909190916101000a81548173ffffffffffffffffffffffffffffffffffffffff021916908373ffffffffffffffffffffffffffffffffffffffff160217905550507fa88439494cfc042ca92b5192ccdaed0691a1321dffd0c4cda4df3b052c73c9186001600980549050036040518082815260200191505060405180910390a150565b60606001600083815260200190815260200160002060050180548060200260200160405190810160405280929190818152602001828054801561247757602002820191906000526020600020905b815481526020019060010190808311612463575b50505050509050919050565b6000809054906101000a900473ffffffffffffffffffffffffffffffffffffffff1673ffffffffffffffffffffffffffffffffffffffff163373ffffffffffffffffffffffffffffffffffffffff161415156124de57600080fd5b8260038190555081600481905550806005819055507f6a66e31456dd9cd88d5884033ee7f19b9e2d1928de00674350b5943dd823d7f883838360405180848152602001838152602001828152602001935050505060405180910390a1505050565b6000809054906101000a900473ffffffffffffffffffffffffffffffffffffffff1673ffffffffffffffffffffffffffffffffffffffff163373ffffffffffffffffffffffffffffffffffffffff1614151561259a57600080fd5b6125a381612baf565b50565b6000600860009054906101000a900473ffffffffffffffffffffffffffffffffffffffff16905090565b60006001600084815260200190815260200160002060060160008373ffffffffffffffffffffffffffffffffffffffff1673ffffffffffffffffffffffffffffffffffffffff16815260200190815260200160002060000160029054906101000a900460ff16905092915050565b6000818301905082811015151561265157fe5b80905092915050565b600042905090565b600082821115151561267057fe5b818303905092915050565b600061268684610f5d565b15156126fa576040517f08c379a00000000000000000000000000000000000000000000000000000000081526004018080602001828103825260038152602001807f453031000000000000000000000000000000000000000000000000000000000081525060200191505060405180910390fd5b61270584338461139d565b905060008114151515612780576040517f08c379a00000000000000000000000000000000000000000000000000000000081526004018080602001828103825260038152602001807f453032000000000000000000000000000000000000000000000000000000000081525060200191505060405180910390fd5b61278b848483612ca9565b50505050565b6000809054906101000a900473ffffffffffffffffffffffffffffffffffffffff1673ffffffffffffffffffffffffffffffffffffffff163373ffffffffffffffffffffffffffffffffffffffff161415156127ec57600080fd5b60008451111515612865576040517f08c379a00000000000000000000000000000000000000000000000000000000081526004018080602001828103825260038152602001807f453031000000000000000000000000000000000000000000000000000000000081525060200191505060405180910390fd5b600083511115156128de576040517f08c379a00000000000000000000000000000000000000000000000000000000081526004018080602001828103825260038152602001807f453032000000000000000000000000000000000000000000000000000000000081525060200191505060405180910390fd5b600082111515612956576040517f08c379a00000000000000000000000000000000000000000000000000000000081526004018080602001828103825260038152602001807f453033000000000000000000000000000000000000000000000000000000000081525060200191505060405180910390fd5b60c060405190810160405280858152602001848152602001838152602001600081526020014281526020016001830160ff166040519080825280602002602001820160405280156129b65781602001602082028038833980820191505090505b5081525060016000600254815260200190815260200160002060008201518160000190805190602001906129eb9291906130d0565b506020820151816001019080519060200190612a089291906130d0565b5060408201518160020155606082015181600301556080820151816004015560a0820151816005019080519060200190612a43929190613150565b509050506002600081548092919060010191905055507f3f802220982dbddc337f1811180e73513e775b18380401997927fd1454cfd0bd6001600254036040518082815260200191505060405180910390a150505050565b6000612aa683610f5d565b1515612b1a576040517f08c379a00000000000000000000000000000000000000000000000000000000081526004018080602001828103825260038152602001807f453031000000000000000000000000000000000000000000000000000000000081525060200191505060405180910390fd5b612b2483336118bb565b905060008114151515612b9f576040517f08c379a00000000000000000000000000000000000000000000000000000000081526004018080602001828103825260038152602001807f453032000000000000000000000000000000000000000000000000000000000081525060200191505060405180910390fd5b612baa838383612ca9565b505050565b600073ffffffffffffffffffffffffffffffffffffffff168173ffffffffffffffffffffffffffffffffffffffff1614151515612beb57600080fd5b8073ffffffffffffffffffffffffffffffffffffffff166000809054906101000a900473ffffffffffffffffffffffffffffffffffffffff1673ffffffffffffffffffffffffffffffffffffffff167f8be0079c531659141344cd1fd0a4f28419497f9722a3daafe3b4186f6b6457e060405160405180910390a3806000806101000a81548173ffffffffffffffffffffffffffffffffffffffff021916908373ffffffffffffffffffffffffffffffffffffffff16021790555050565b6000806001600086815260200190815260200160002091508160060160003373ffffffffffffffffffffffffffffffffffffffff1673ffffffffffffffffffffffffffffffffffffffff168152602001908152602001600020905060016000868152602001908152602001600020600501805490508460ff16101515612d97576040517f08c379a00000000000000000000000000000000000000000000000000000000081526004018080602001828103825260038152602001807f453034000000000000000000000000000000000000000000000000000000000081525060200191505060405180910390fd5b60025485101515612e10576040517f08c379a00000000000000000000000000000000000000000000000000000000081526004018080602001828103825260038152602001807f453035000000000000000000000000000000000000000000000000000000000081525060200191505060405180910390fd5b8360ff168160000160009054906101000a900460ff1660ff1614151515612e9f576040517f08c379a00000000000000000000000000000000000000000000000000000000081526004018080602001828103825260038152602001807f453036000000000000000000000000000000000000000000000000000000000081525060200191505060405180910390fd5b8160060160003373ffffffffffffffffffffffffffffffffffffffff1673ffffffffffffffffffffffffffffffffffffffff16815260200190815260200160002060000160019054906101000a900460ff1615612f7057612f3883836005018360000160009054906101000a900460ff1660ff16815481101515612f1f57fe5b906000526020600020015461266290919063ffffffff16565b826005018260000160009054906101000a900460ff1660ff16815481101515612f5d57fe5b9060005260206000200181905550612fed565b612f8783836003015461263e90919063ffffffff16565b826003018190555060018260060160003373ffffffffffffffffffffffffffffffffffffffff1673ffffffffffffffffffffffffffffffffffffffff16815260200190815260200160002060000160016101000a81548160ff0219169083151502179055505b61301e83836005018660ff1681548110151561300557fe5b906000526020600020015461263e90919063ffffffff16565b826005018560ff1681548110151561303257fe5b9060005260206000200181905550838260060160003373ffffffffffffffffffffffffffffffffffffffff1673ffffffffffffffffffffffffffffffffffffffff16815260200190815260200160002060000160006101000a81548160ff021916908360ff1602179055505050505050565b8154818355818111156130cb578183600052602060002091820191016130ca919061319d565b5b505050565b828054600181600116156101000203166002900490600052602060002090601f016020900481019282601f1061311157805160ff191683800117855561313f565b8280016001018555821561313f579182015b8281111561313e578251825591602001919060010190613123565b5b50905061314c919061319d565b5090565b82805482825590600052602060002090810192821561318c579160200282015b8281111561318b578251825591602001919060010190613170565b5b509050613199919061319d565b5090565b6131bf91905b808211156131bb5760008160009055506001016131a3565b5090565b905600a165627a7a7230582046a747d7147bf7a0abe68e192ec290f55ad9c56fd09cee737a91f6015bee8b6b0029",
  "source": "pragma solidity ^0.4.24;\n\nimport \"./TokenizedVoting.sol\";\nimport \"../rule/WithRules.sol\";\n\n\n/**\n * @title TokenizedVotingWithRules\n * @dev TokenizedVotingWithRules contract\n * @author Cyril Lapinte - <cyril.lapinte@mtpelerin.com>\n*/\ncontract TokenizedVotingWithRules is TokenizedVoting, WithRules {\n\n  /**\n   * @dev constructor\n   */\n  constructor(ProvableOwnershipToken _token, IRule[] _rules)\n    public TokenizedVoting(_token) WithRules(_rules)\n  { }\n\n  /**\n   * @dev vote without proof of ownership\n   */\n  function vote(uint256 _proposalId, uint8 _option)\n    public whenAddressRulesAreValid(msg.sender) \n  {\n    super.vote(_proposalId, _option);\n  }\n\n  /**\n   * @dev vote with proof of ownership\n   */\n  function voteWithProof(\n    uint256 _proposalId,\n    uint8 _option,\n    uint256 _proofId) public whenAddressRulesAreValid(msg.sender)\n  {\n    super.voteWithProof(_proposalId, _option, _proofId);\n  }\n}\n",
  "sourcePath": "/home/node/project/contracts/voting/TokenizedVotingWithRules.sol",
  "compiler": {
    "name": "solc",
    "version": "0.4.24+commit.e67f0147.Emscripten.clang"
  },
  "schemaVersion": "2.0.1",
  "updatedAt": "2018-08-15T14:19:56.034Z"
}