{
  "contractName": "TokenWithClaims",
  "abi": [
    {
      "constant": false,
      "inputs": [
        {
          "name": "_spender",
          "type": "address"
        },
        {
          "name": "_value",
          "type": "uint256"
        }
      ],
      "name": "approve",
      "outputs": [
        {
          "name": "",
          "type": "bool"
        }
      ],
      "payable": false,
      "stateMutability": "nonpayable",
      "type": "function"
    },
    {
      "constant": true,
      "inputs": [
        {
          "name": "_address",
          "type": "address"
        }
      ],
      "name": "totalSentAmount",
      "outputs": [
        {
          "name": "",
          "type": "uint256"
        }
      ],
      "payable": false,
      "stateMutability": "view",
      "type": "function"
    },
    {
      "constant": true,
      "inputs": [],
      "name": "totalSupply",
      "outputs": [
        {
          "name": "",
          "type": "uint256"
        }
      ],
      "payable": false,
      "stateMutability": "view",
      "type": "function"
    },
    {
      "constant": true,
      "inputs": [
        {
          "name": "_address",
          "type": "address"
        }
      ],
      "name": "lastTransactionAt",
      "outputs": [
        {
          "name": "",
          "type": "uint256"
        }
      ],
      "payable": false,
      "stateMutability": "view",
      "type": "function"
    },
    {
      "constant": true,
      "inputs": [
        {
          "name": "_address",
          "type": "address"
        }
      ],
      "name": "totalReceivedAmount",
      "outputs": [
        {
          "name": "",
          "type": "uint256"
        }
      ],
      "payable": false,
      "stateMutability": "view",
      "type": "function"
    },
    {
      "constant": true,
      "inputs": [
        {
          "name": "_holder",
          "type": "address"
        },
        {
          "name": "_proofId",
          "type": "uint256"
        }
      ],
      "name": "proofDateFrom",
      "outputs": [
        {
          "name": "",
          "type": "uint256"
        }
      ],
      "payable": false,
      "stateMutability": "view",
      "type": "function"
    },
    {
      "constant": false,
      "inputs": [
        {
          "name": "_holder",
          "type": "address"
        }
      ],
      "name": "createProof",
      "outputs": [],
      "payable": false,
      "stateMutability": "nonpayable",
      "type": "function"
    },
    {
      "constant": true,
      "inputs": [
        {
          "name": "_address",
          "type": "address"
        }
      ],
      "name": "receivedCount",
      "outputs": [
        {
          "name": "",
          "type": "uint256"
        }
      ],
      "payable": false,
      "stateMutability": "view",
      "type": "function"
    },
    {
      "constant": true,
      "inputs": [
        {
          "name": "_holder",
          "type": "address"
        },
        {
          "name": "_proofId",
          "type": "uint256"
        }
      ],
      "name": "proofDateTo",
      "outputs": [
        {
          "name": "",
          "type": "uint256"
        }
      ],
      "payable": false,
      "stateMutability": "view",
      "type": "function"
    },
    {
      "constant": false,
      "inputs": [
        {
          "name": "_spender",
          "type": "address"
        },
        {
          "name": "_subtractedValue",
          "type": "uint256"
        }
      ],
      "name": "decreaseApproval",
      "outputs": [
        {
          "name": "",
          "type": "bool"
        }
      ],
      "payable": false,
      "stateMutability": "nonpayable",
      "type": "function"
    },
    {
      "constant": true,
      "inputs": [
        {
          "name": "_owner",
          "type": "address"
        }
      ],
      "name": "balanceOf",
      "outputs": [
        {
          "name": "",
          "type": "uint256"
        }
      ],
      "payable": false,
      "stateMutability": "view",
      "type": "function"
    },
    {
      "constant": false,
      "inputs": [],
      "name": "renounceOwnership",
      "outputs": [],
      "payable": false,
      "stateMutability": "nonpayable",
      "type": "function"
    },
    {
      "constant": true,
      "inputs": [
        {
          "name": "_address",
          "type": "address"
        }
      ],
      "name": "lastSentAt",
      "outputs": [
        {
          "name": "",
          "type": "uint256"
        }
      ],
      "payable": false,
      "stateMutability": "view",
      "type": "function"
    },
    {
      "constant": true,
      "inputs": [
        {
          "name": "_holder",
          "type": "address"
        }
      ],
      "name": "proofLength",
      "outputs": [
        {
          "name": "",
          "type": "uint256"
        }
      ],
      "payable": false,
      "stateMutability": "view",
      "type": "function"
    },
    {
      "constant": true,
      "inputs": [],
      "name": "owner",
      "outputs": [
        {
          "name": "",
          "type": "address"
        }
      ],
      "payable": false,
      "stateMutability": "view",
      "type": "function"
    },
    {
      "constant": true,
      "inputs": [
        {
          "name": "_address",
          "type": "address"
        }
      ],
      "name": "transactionCount",
      "outputs": [
        {
          "name": "",
          "type": "uint256"
        }
      ],
      "payable": false,
      "stateMutability": "view",
      "type": "function"
    },
    {
      "constant": true,
      "inputs": [
        {
          "name": "_holder",
          "type": "address"
        },
        {
          "name": "_proofId",
          "type": "uint256"
        }
      ],
      "name": "proofAmount",
      "outputs": [
        {
          "name": "",
          "type": "uint256"
        }
      ],
      "payable": false,
      "stateMutability": "view",
      "type": "function"
    },
    {
      "constant": true,
      "inputs": [
        {
          "name": "_holder",
          "type": "address"
        },
        {
          "name": "_proofId",
          "type": "uint256"
        },
        {
          "name": "_at",
          "type": "uint256"
        }
      ],
      "name": "checkProof",
      "outputs": [
        {
          "name": "",
          "type": "uint256"
        }
      ],
      "payable": false,
      "stateMutability": "view",
      "type": "function"
    },
    {
      "constant": true,
      "inputs": [
        {
          "name": "_address",
          "type": "address"
        }
      ],
      "name": "auditCreatedAt",
      "outputs": [
        {
          "name": "",
          "type": "uint256"
        }
      ],
      "payable": false,
      "stateMutability": "view",
      "type": "function"
    },
    {
      "constant": true,
      "inputs": [
        {
          "name": "_address",
          "type": "address"
        }
      ],
      "name": "lastReceivedAt",
      "outputs": [
        {
          "name": "",
          "type": "uint256"
        }
      ],
      "payable": false,
      "stateMutability": "view",
      "type": "function"
    },
    {
      "constant": true,
      "inputs": [
        {
          "name": "_address",
          "type": "address"
        }
      ],
      "name": "sentCount",
      "outputs": [
        {
          "name": "",
          "type": "uint256"
        }
      ],
      "payable": false,
      "stateMutability": "view",
      "type": "function"
    },
    {
      "constant": false,
      "inputs": [
        {
          "name": "_spender",
          "type": "address"
        },
        {
          "name": "_addedValue",
          "type": "uint256"
        }
      ],
      "name": "increaseApproval",
      "outputs": [
        {
          "name": "",
          "type": "bool"
        }
      ],
      "payable": false,
      "stateMutability": "nonpayable",
      "type": "function"
    },
    {
      "constant": true,
      "inputs": [
        {
          "name": "_owner",
          "type": "address"
        },
        {
          "name": "_spender",
          "type": "address"
        }
      ],
      "name": "allowance",
      "outputs": [
        {
          "name": "",
          "type": "uint256"
        }
      ],
      "payable": false,
      "stateMutability": "view",
      "type": "function"
    },
    {
      "constant": false,
      "inputs": [
        {
          "name": "_newOwner",
          "type": "address"
        }
      ],
      "name": "transferOwnership",
      "outputs": [],
      "payable": false,
      "stateMutability": "nonpayable",
      "type": "function"
    },
    {
      "inputs": [
        {
          "name": "_claimables",
          "type": "address[]"
        }
      ],
      "payable": false,
      "stateMutability": "nonpayable",
      "type": "constructor"
    },
    {
      "anonymous": false,
      "inputs": [
        {
          "indexed": false,
          "name": "claimableId",
          "type": "uint256"
        }
      ],
      "name": "ClaimableAdded",
      "type": "event"
    },
    {
      "anonymous": false,
      "inputs": [
        {
          "indexed": false,
          "name": "claimableId",
          "type": "uint256"
        }
      ],
      "name": "ClaimableRemoved",
      "type": "event"
    },
    {
      "anonymous": false,
      "inputs": [
        {
          "indexed": true,
          "name": "holder",
          "type": "address"
        },
        {
          "indexed": false,
          "name": "proofId",
          "type": "uint256"
        }
      ],
      "name": "ProofOfOwnership",
      "type": "event"
    },
    {
      "anonymous": false,
      "inputs": [
        {
          "indexed": true,
          "name": "previousOwner",
          "type": "address"
        }
      ],
      "name": "OwnershipRenounced",
      "type": "event"
    },
    {
      "anonymous": false,
      "inputs": [
        {
          "indexed": true,
          "name": "previousOwner",
          "type": "address"
        },
        {
          "indexed": true,
          "name": "newOwner",
          "type": "address"
        }
      ],
      "name": "OwnershipTransferred",
      "type": "event"
    },
    {
      "anonymous": false,
      "inputs": [
        {
          "indexed": true,
          "name": "owner",
          "type": "address"
        },
        {
          "indexed": true,
          "name": "spender",
          "type": "address"
        },
        {
          "indexed": false,
          "name": "value",
          "type": "uint256"
        }
      ],
      "name": "Approval",
      "type": "event"
    },
    {
      "anonymous": false,
      "inputs": [
        {
          "indexed": true,
          "name": "from",
          "type": "address"
        },
        {
          "indexed": true,
          "name": "to",
          "type": "address"
        },
        {
          "indexed": false,
          "name": "value",
          "type": "uint256"
        }
      ],
      "name": "Transfer",
      "type": "event"
    },
    {
      "constant": true,
      "inputs": [],
      "name": "claimableLength",
      "outputs": [
        {
          "name": "",
          "type": "uint256"
        }
      ],
      "payable": false,
      "stateMutability": "view",
      "type": "function"
    },
    {
      "constant": true,
      "inputs": [
        {
          "name": "_claimableId",
          "type": "uint256"
        }
      ],
      "name": "claimable",
      "outputs": [
        {
          "name": "",
          "type": "address"
        }
      ],
      "payable": false,
      "stateMutability": "view",
      "type": "function"
    },
    {
      "constant": true,
      "inputs": [
        {
          "name": "_holder",
          "type": "address"
        }
      ],
      "name": "hasClaims",
      "outputs": [
        {
          "name": "",
          "type": "bool"
        }
      ],
      "payable": false,
      "stateMutability": "view",
      "type": "function"
    },
    {
      "constant": false,
      "inputs": [
        {
          "name": "_to",
          "type": "address"
        },
        {
          "name": "_value",
          "type": "uint256"
        }
      ],
      "name": "transfer",
      "outputs": [
        {
          "name": "",
          "type": "bool"
        }
      ],
      "payable": false,
      "stateMutability": "nonpayable",
      "type": "function"
    },
    {
      "constant": false,
      "inputs": [
        {
          "name": "_from",
          "type": "address"
        },
        {
          "name": "_to",
          "type": "address"
        },
        {
          "name": "_value",
          "type": "uint256"
        }
      ],
      "name": "transferFrom",
      "outputs": [
        {
          "name": "",
          "type": "bool"
        }
      ],
      "payable": false,
      "stateMutability": "nonpayable",
      "type": "function"
    },
    {
      "constant": false,
      "inputs": [
        {
          "name": "_to",
          "type": "address"
        },
        {
          "name": "_value",
          "type": "uint256"
        },
        {
          "name": "_proofFrom",
          "type": "bool"
        },
        {
          "name": "_proofTo",
          "type": "bool"
        }
      ],
      "name": "transferWithProofs",
      "outputs": [
        {
          "name": "",
          "type": "bool"
        }
      ],
      "payable": false,
      "stateMutability": "nonpayable",
      "type": "function"
    },
    {
      "constant": false,
      "inputs": [
        {
          "name": "_from",
          "type": "address"
        },
        {
          "name": "_to",
          "type": "address"
        },
        {
          "name": "_value",
          "type": "uint256"
        },
        {
          "name": "_proofFrom",
          "type": "bool"
        },
        {
          "name": "_proofTo",
          "type": "bool"
        }
      ],
      "name": "transferFromWithProofs",
      "outputs": [
        {
          "name": "",
          "type": "bool"
        }
      ],
      "payable": false,
      "stateMutability": "nonpayable",
      "type": "function"
    },
    {
      "constant": false,
      "inputs": [
        {
          "name": "_claimable",
          "type": "address"
        }
      ],
      "name": "addClaimable",
      "outputs": [],
      "payable": false,
      "stateMutability": "nonpayable",
      "type": "function"
    },
    {
      "constant": false,
      "inputs": [
        {
          "name": "_claimables",
          "type": "address[]"
        }
      ],
      "name": "addManyClaimables",
      "outputs": [],
      "payable": false,
      "stateMutability": "nonpayable",
      "type": "function"
    },
    {
      "constant": false,
      "inputs": [
        {
          "name": "_claimableId",
          "type": "uint256"
        }
      ],
      "name": "removeClaimable",
      "outputs": [],
      "payable": false,
      "stateMutability": "nonpayable",
      "type": "function"
    }
  ],
  "bytecode": "0x60806040523480156200001157600080fd5b5060405162002fb938038062002fb98339810180604052810190808051820192919050505033600460006101000a81548173ffffffffffffffffffffffffffffffffffffffff021916908373ffffffffffffffffffffffffffffffffffffffff16021790555080600790805190602001906200008f92919062000097565b50506200016c565b82805482825590600052602060002090810192821562000113579160200282015b82811115620001125782518260006101000a81548173ffffffffffffffffffffffffffffffffffffffff021916908373ffffffffffffffffffffffffffffffffffffffff16021790555091602001919060010190620000b8565b5b50905062000122919062000126565b5090565b6200016991905b808211156200016557600081816101000a81549073ffffffffffffffffffffffffffffffffffffffff0219169055506001016200012d565b5090565b90565b612e3d806200017c6000396000f3006080604052600436106101ac576000357c0100000000000000000000000000000000000000000000000000000000900463ffffffff168063095ea7b3146101b15780630c6a44e61461021657806318160ddd1461026d57806318ec53b21461029857806323b872dd146102ef578063291dfe561461037457806333a925c1146103a1578063407c333f146103fc578063468795c71461043f57806346be8d8b146104a557806349e1b59d146104fc5780634add1b7014610579578063539e5c3c146105da578063607928291461061d5780636416745f1461067457806366188463146106d557806370a082311461073a578063715018a6146107915780638826ff30146107a8578063884465e6146107ff5780638da5cb5b1461085657806399be3375146108ad5780639c3c1f6214610904578063a7341e7514610965578063a9059cbb146109d0578063aa2e150914610a35578063d18508ce14610a8c578063d1d58b2514610b29578063d359c3a014610b96578063d6d8a23a14610bed578063d73dd62314610c44578063dd62ed3e14610ca9578063f2fde38b14610d20578063fc86246614610d63575b600080fd5b3480156101bd57600080fd5b506101fc600480360381019080803573ffffffffffffffffffffffffffffffffffffffff16906020019092919080359060200190929190505050610d8e565b604051808215151515815260200191505060405180910390f35b34801561022257600080fd5b50610257600480360381019080803573ffffffffffffffffffffffffffffffffffffffff169060200190929190505050610e80565b6040518082815260200191505060405180910390f35b34801561027957600080fd5b50610282610ecc565b6040518082815260200191505060405180910390f35b3480156102a457600080fd5b506102d9600480360381019080803573ffffffffffffffffffffffffffffffffffffffff169060200190929190505050610ed6565b6040518082815260200191505060405180910390f35b3480156102fb57600080fd5b5061035a600480360381019080803573ffffffffffffffffffffffffffffffffffffffff169060200190929190803573ffffffffffffffffffffffffffffffffffffffff16906020019092919080359060200190929190505050610ff6565b604051808215151515815260200191505060405180910390f35b34801561038057600080fd5b5061039f60048036038101908080359060200190929190505050611029565b005b3480156103ad57600080fd5b506103e2600480360381019080803573ffffffffffffffffffffffffffffffffffffffff169060200190929190505050611238565b604051808215151515815260200191505060405180910390f35b34801561040857600080fd5b5061043d600480360381019080803573ffffffffffffffffffffffffffffffffffffffff169060200190929190505050611398565b005b34801561044b57600080fd5b506104a360048036038101908080359060200190820180359060200190808060200260200160405190810160405280939291908181526020018383602002808284378201915050505050509192919290505050611541565b005b3480156104b157600080fd5b506104e6600480360381019080803573ffffffffffffffffffffffffffffffffffffffff169060200190929190505050611657565b6040518082815260200191505060405180910390f35b34801561050857600080fd5b5061055f600480360381019080803573ffffffffffffffffffffffffffffffffffffffff169060200190929190803590602001909291908035151590602001909291908035151590602001909291905050506116a3565b604051808215151515815260200191505060405180910390f35b34801561058557600080fd5b506105c4600480360381019080803573ffffffffffffffffffffffffffffffffffffffff169060200190929190803590602001909291905050506116e6565b6040518082815260200191505060405180910390f35b3480156105e657600080fd5b5061061b600480360381019080803573ffffffffffffffffffffffffffffffffffffffff169060200190929190505050611744565b005b34801561062957600080fd5b5061065e600480360381019080803573ffffffffffffffffffffffffffffffffffffffff169060200190929190505050611759565b6040518082815260200191505060405180910390f35b34801561068057600080fd5b506106bf600480360381019080803573ffffffffffffffffffffffffffffffffffffffff169060200190929190803590602001909291905050506117a5565b6040518082815260200191505060405180910390f35b3480156106e157600080fd5b50610720600480360381019080803573ffffffffffffffffffffffffffffffffffffffff16906020019092919080359060200190929190505050611803565b604051808215151515815260200191505060405180910390f35b34801561074657600080fd5b5061077b600480360381019080803573ffffffffffffffffffffffffffffffffffffffff169060200190929190505050611a94565b6040518082815260200191505060405180910390f35b34801561079d57600080fd5b506107a6611adc565b005b3480156107b457600080fd5b506107e9600480360381019080803573ffffffffffffffffffffffffffffffffffffffff169060200190929190505050611be1565b6040518082815260200191505060405180910390f35b34801561080b57600080fd5b50610840600480360381019080803573ffffffffffffffffffffffffffffffffffffffff169060200190929190505050611c2d565b6040518082815260200191505060405180910390f35b34801561086257600080fd5b5061086b611c76565b604051808273ffffffffffffffffffffffffffffffffffffffff1673ffffffffffffffffffffffffffffffffffffffff16815260200191505060405180910390f35b3480156108b957600080fd5b506108ee600480360381019080803573ffffffffffffffffffffffffffffffffffffffff169060200190929190505050611c9c565b6040518082815260200191505060405180910390f35b34801561091057600080fd5b5061094f600480360381019080803573ffffffffffffffffffffffffffffffffffffffff16906020019092919080359060200190929190505050611d2c565b6040518082815260200191505060405180910390f35b34801561097157600080fd5b506109ba600480360381019080803573ffffffffffffffffffffffffffffffffffffffff1690602001909291908035906020019092919080359060200190929190505050611d8a565b6040518082815260200191505060405180910390f35b3480156109dc57600080fd5b50610a1b600480360381019080803573ffffffffffffffffffffffffffffffffffffffff16906020019092919080359060200190929190505050611e5d565b604051808215151515815260200191505060405180910390f35b348015610a4157600080fd5b50610a76600480360381019080803573ffffffffffffffffffffffffffffffffffffffff169060200190929190505050611e8e565b6040518082815260200191505060405180910390f35b348015610a9857600080fd5b50610b0f600480360381019080803573ffffffffffffffffffffffffffffffffffffffff169060200190929190803573ffffffffffffffffffffffffffffffffffffffff16906020019092919080359060200190929190803515159060200190929190803515159060200190929190505050611eda565b604051808215151515815260200191505060405180910390f35b348015610b3557600080fd5b50610b5460048036038101908080359060200190929190505050611f1f565b604051808273ffffffffffffffffffffffffffffffffffffffff1673ffffffffffffffffffffffffffffffffffffffff16815260200191505060405180910390f35b348015610ba257600080fd5b50610bd7600480360381019080803573ffffffffffffffffffffffffffffffffffffffff169060200190929190505050611f62565b6040518082815260200191505060405180910390f35b348015610bf957600080fd5b50610c2e600480360381019080803573ffffffffffffffffffffffffffffffffffffffff169060200190929190505050611fae565b6040518082815260200191505060405180910390f35b348015610c5057600080fd5b50610c8f600480360381019080803573ffffffffffffffffffffffffffffffffffffffff16906020019092919080359060200190929190505050611ffa565b604051808215151515815260200191505060405180910390f35b348015610cb557600080fd5b50610d0a600480360381019080803573ffffffffffffffffffffffffffffffffffffffff169060200190929190803573ffffffffffffffffffffffffffffffffffffffff1690602001909291905050506121f6565b6040518082815260200191505060405180910390f35b348015610d2c57600080fd5b50610d61600480360381019080803573ffffffffffffffffffffffffffffffffffffffff16906020019092919050505061227d565b005b348015610d6f57600080fd5b50610d786122e5565b6040518082815260200191505060405180910390f35b600081600260003373ffffffffffffffffffffffffffffffffffffffff1673ffffffffffffffffffffffffffffffffffffffff16815260200190815260200160002060008573ffffffffffffffffffffffffffffffffffffffff1673ffffffffffffffffffffffffffffffffffffffff168152602001908152602001600020819055508273ffffffffffffffffffffffffffffffffffffffff163373ffffffffffffffffffffffffffffffffffffffff167f8c5be1e5ebec7d5bd14f71427d1e84f3dd0314c0f7b2291e5b200ac8c7c3b925846040518082815260200191505060405180910390a36001905092915050565b6000600360008373ffffffffffffffffffffffffffffffffffffffff1673ffffffffffffffffffffffffffffffffffffffff168152602001908152602001600020600601549050919050565b6000600154905090565b6000600360008373ffffffffffffffffffffffffffffffffffffffff1673ffffffffffffffffffffffffffffffffffffffff16815260200190815260200160002060020154600360008473ffffffffffffffffffffffffffffffffffffffff1673ffffffffffffffffffffffffffffffffffffffff1681526020019081526020016000206001015411610fab57600360008373ffffffffffffffffffffffffffffffffffffffff1673ffffffffffffffffffffffffffffffffffffffff16815260200190815260200160002060020154610fef565b600360008373ffffffffffffffffffffffffffffffffffffffff1673ffffffffffffffffffffffffffffffffffffffff168152602001908152602001600020600101545b9050919050565b600080600061100486611238565b915061100f85611238565b905061101e86868685856122f2565b925050509392505050565b600460009054906101000a900473ffffffffffffffffffffffffffffffffffffffff1673ffffffffffffffffffffffffffffffffffffffff163373ffffffffffffffffffffffffffffffffffffffff1614151561108557600080fd5b60078054905081101515611101576040517f08c379a00000000000000000000000000000000000000000000000000000000081526004018080602001828103825260038152602001807f453033000000000000000000000000000000000000000000000000000000000081525060200191505060405180910390fd5b60078181548110151561111057fe5b9060005260206000200160006101000a81549073ffffffffffffffffffffffffffffffffffffffff0219169055600160078054905003811415156111e857600760016007805490500381548110151561116557fe5b9060005260206000200160009054906101000a900473ffffffffffffffffffffffffffffffffffffffff1660078281548110151561119f57fe5b9060005260206000200160006101000a81548173ffffffffffffffffffffffffffffffffffffffff021916908373ffffffffffffffffffffffffffffffffffffffff1602179055505b60078054809190600190036111fd9190612dc0565b507f6f39fd244055addce341029bcd313dec4bb27faf8621d993047251a6fd19fffc816040518082815260200191505060405180910390a150565b600080600061124684610ed6565b9150600090505b60078054905081101561138c5760078181548110151561126957fe5b9060005260206000200160009054906101000a900473ffffffffffffffffffffffffffffffffffffffff1673ffffffffffffffffffffffffffffffffffffffff1663f63ae8f385846040518363ffffffff167c0100000000000000000000000000000000000000000000000000000000028152600401808373ffffffffffffffffffffffffffffffffffffffff1673ffffffffffffffffffffffffffffffffffffffff16815260200182815260200192505050602060405180830381600087803b15801561133657600080fd5b505af115801561134a573d6000803e3d6000fd5b505050506040513d602081101561136057600080fd5b81019080805190602001909291905050501561137f5760019250611391565b808060010191505061124d565b600092505b5050919050565b600460009054906101000a900473ffffffffffffffffffffffffffffffffffffffff1673ffffffffffffffffffffffffffffffffffffffff163373ffffffffffffffffffffffffffffffffffffffff161415156113f457600080fd5b600073ffffffffffffffffffffffffffffffffffffffff168173ffffffffffffffffffffffffffffffffffffffff1614151515611499576040517f08c379a00000000000000000000000000000000000000000000000000000000081526004018080602001828103825260038152602001807f453031000000000000000000000000000000000000000000000000000000000081525060200191505060405180910390fd5b60078190806001815401808255809150509060018203906000526020600020016000909192909190916101000a81548173ffffffffffffffffffffffffffffffffffffffff021916908373ffffffffffffffffffffffffffffffffffffffff160217905550507f09e69b3c07827b2ffe40e059dd141097b3f2b0077a2654ccc4e9b9984d143a1c6001600780549050036040518082815260200191505060405180910390a150565b6000600460009054906101000a900473ffffffffffffffffffffffffffffffffffffffff1673ffffffffffffffffffffffffffffffffffffffff163373ffffffffffffffffffffffffffffffffffffffff1614151561159f57600080fd5b60008251111515611618576040517f08c379a00000000000000000000000000000000000000000000000000000000081526004018080602001828103825260038152602001807f453032000000000000000000000000000000000000000000000000000000000081525060200191505060405180910390fd5b600090505b815181101561165357611646828281518110151561163757fe5b90602001906020020151611398565b808060010191505061161d565b5050565b6000600360008373ffffffffffffffffffffffffffffffffffffffff1673ffffffffffffffffffffffffffffffffffffffff168152602001908152602001600020600501549050919050565b600080600084806116b957506116b833611238565b5b915083806116cc57506116cb87611238565b5b90506116da8787848461234d565b92505050949350505050565b6000600560008473ffffffffffffffffffffffffffffffffffffffff1673ffffffffffffffffffffffffffffffffffffffff168152602001908152602001600020600083815260200190815260200160002060010154905092915050565b6117568161175183611a94565b6123a6565b50565b6000600360008373ffffffffffffffffffffffffffffffffffffffff1673ffffffffffffffffffffffffffffffffffffffff168152602001908152602001600020600301549050919050565b6000600560008473ffffffffffffffffffffffffffffffffffffffff1673ffffffffffffffffffffffffffffffffffffffff168152602001908152602001600020600083815260200190815260200160002060020154905092915050565b600080600260003373ffffffffffffffffffffffffffffffffffffffff1673ffffffffffffffffffffffffffffffffffffffff16815260200190815260200160002060008573ffffffffffffffffffffffffffffffffffffffff1673ffffffffffffffffffffffffffffffffffffffff16815260200190815260200160002054905080831115611914576000600260003373ffffffffffffffffffffffffffffffffffffffff1673ffffffffffffffffffffffffffffffffffffffff16815260200190815260200160002060008673ffffffffffffffffffffffffffffffffffffffff1673ffffffffffffffffffffffffffffffffffffffff168152602001908152602001600020819055506119a8565b611927838261251990919063ffffffff16565b600260003373ffffffffffffffffffffffffffffffffffffffff1673ffffffffffffffffffffffffffffffffffffffff16815260200190815260200160002060008673ffffffffffffffffffffffffffffffffffffffff1673ffffffffffffffffffffffffffffffffffffffff168152602001908152602001600020819055505b8373ffffffffffffffffffffffffffffffffffffffff163373ffffffffffffffffffffffffffffffffffffffff167f8c5be1e5ebec7d5bd14f71427d1e84f3dd0314c0f7b2291e5b200ac8c7c3b925600260003373ffffffffffffffffffffffffffffffffffffffff1673ffffffffffffffffffffffffffffffffffffffff16815260200190815260200160002060008873ffffffffffffffffffffffffffffffffffffffff1673ffffffffffffffffffffffffffffffffffffffff168152602001908152602001600020546040518082815260200191505060405180910390a3600191505092915050565b60008060008373ffffffffffffffffffffffffffffffffffffffff1673ffffffffffffffffffffffffffffffffffffffff168152602001908152602001600020549050919050565b600460009054906101000a900473ffffffffffffffffffffffffffffffffffffffff1673ffffffffffffffffffffffffffffffffffffffff163373ffffffffffffffffffffffffffffffffffffffff16141515611b3857600080fd5b600460009054906101000a900473ffffffffffffffffffffffffffffffffffffffff1673ffffffffffffffffffffffffffffffffffffffff167ff8df31144d9c2f0f6b59d69b8b98abd5459d07f2742c4df920b25aae33c6482060405160405180910390a26000600460006101000a81548173ffffffffffffffffffffffffffffffffffffffff021916908373ffffffffffffffffffffffffffffffffffffffff160217905550565b6000600360008373ffffffffffffffffffffffffffffffffffffffff1673ffffffffffffffffffffffffffffffffffffffff168152602001908152602001600020600201549050919050565b6000600660008373ffffffffffffffffffffffffffffffffffffffff1673ffffffffffffffffffffffffffffffffffffffff168152602001908152602001600020549050919050565b600460009054906101000a900473ffffffffffffffffffffffffffffffffffffffff1681565b6000600360008373ffffffffffffffffffffffffffffffffffffffff1673ffffffffffffffffffffffffffffffffffffffff16815260200190815260200160002060040154600360008473ffffffffffffffffffffffffffffffffffffffff1673ffffffffffffffffffffffffffffffffffffffff16815260200190815260200160002060030154019050919050565b6000600560008473ffffffffffffffffffffffffffffffffffffffff1673ffffffffffffffffffffffffffffffffffffffff168152602001908152602001600020600083815260200190815260200160002060000154905092915050565b600080600660008673ffffffffffffffffffffffffffffffffffffffff1673ffffffffffffffffffffffffffffffffffffffff16815260200190815260200160002054841015611e5057600560008673ffffffffffffffffffffffffffffffffffffffff1673ffffffffffffffffffffffffffffffffffffffff1681526020019081526020016000206000858152602001908152602001600020905082816001015411158015611e3e575080600201548311155b15611e4f5780600001549150611e55565b5b600091505b509392505050565b6000806000611e6b33611238565b9150611e7685611238565b9050611e848585848461234d565b9250505092915050565b6000600360008373ffffffffffffffffffffffffffffffffffffffff1673ffffffffffffffffffffffffffffffffffffffff168152602001908152602001600020600001549050919050565b60008060008480611ef05750611eef88611238565b5b91508380611f035750611f0287611238565b5b9050611f1288888885856122f2565b9250505095945050505050565b6000600782815481101515611f3057fe5b9060005260206000200160009054906101000a900473ffffffffffffffffffffffffffffffffffffffff169050919050565b6000600360008373ffffffffffffffffffffffffffffffffffffffff1673ffffffffffffffffffffffffffffffffffffffff168152602001908152602001600020600101549050919050565b6000600360008373ffffffffffffffffffffffffffffffffffffffff1673ffffffffffffffffffffffffffffffffffffffff168152602001908152602001600020600401549050919050565b600061208b82600260003373ffffffffffffffffffffffffffffffffffffffff1673ffffffffffffffffffffffffffffffffffffffff16815260200190815260200160002060008673ffffffffffffffffffffffffffffffffffffffff1673ffffffffffffffffffffffffffffffffffffffff1681526020019081526020016000205461253290919063ffffffff16565b600260003373ffffffffffffffffffffffffffffffffffffffff1673ffffffffffffffffffffffffffffffffffffffff16815260200190815260200160002060008573ffffffffffffffffffffffffffffffffffffffff1673ffffffffffffffffffffffffffffffffffffffff168152602001908152602001600020819055508273ffffffffffffffffffffffffffffffffffffffff163373ffffffffffffffffffffffffffffffffffffffff167f8c5be1e5ebec7d5bd14f71427d1e84f3dd0314c0f7b2291e5b200ac8c7c3b925600260003373ffffffffffffffffffffffffffffffffffffffff1673ffffffffffffffffffffffffffffffffffffffff16815260200190815260200160002060008773ffffffffffffffffffffffffffffffffffffffff1673ffffffffffffffffffffffffffffffffffffffff168152602001908152602001600020546040518082815260200191505060405180910390a36001905092915050565b6000600260008473ffffffffffffffffffffffffffffffffffffffff1673ffffffffffffffffffffffffffffffffffffffff16815260200190815260200160002060008373ffffffffffffffffffffffffffffffffffffffff1673ffffffffffffffffffffffffffffffffffffffff16815260200190815260200160002054905092915050565b600460009054906101000a900473ffffffffffffffffffffffffffffffffffffffff1673ffffffffffffffffffffffffffffffffffffffff163373ffffffffffffffffffffffffffffffffffffffff161415156122d957600080fd5b6122e28161254e565b50565b6000600780549050905090565b600080600061230088611a94565b915061230b87611a94565b905061231888888861264a565b15156123275760009250612342565b61233288838761267e565b61233d87828661267e565b600192505b505095945050505050565b600080600061235b33611a94565b915061236687611a94565b90506123728787612694565b1515612381576000925061239c565b61238c33838761267e565b61239787828661267e565b600192505b5050949350505050565b6000600660008473ffffffffffffffffffffffffffffffffffffffff1673ffffffffffffffffffffffffffffffffffffffff16815260200190815260200160002054905060606040519081016040528083815260200161240585610ed6565b815260200142815250600560008573ffffffffffffffffffffffffffffffffffffffff1673ffffffffffffffffffffffffffffffffffffffff168152602001908152602001600020600083815260200190815260200160002060008201518160000155602082015181600101556040820151816002015590505060018101600660008573ffffffffffffffffffffffffffffffffffffffff1673ffffffffffffffffffffffffffffffffffffffff168152602001908152602001600020819055508273ffffffffffffffffffffffffffffffffffffffff167f624dc8dd99b85719c6f1854ebf43cf6c8490b7e347b94743cdf580b663a07ca1826040518082815260200191505060405180910390a2505050565b600082821115151561252757fe5b818303905092915050565b6000818301905082811015151561254557fe5b80905092915050565b600073ffffffffffffffffffffffffffffffffffffffff168173ffffffffffffffffffffffffffffffffffffffff161415151561258a57600080fd5b8073ffffffffffffffffffffffffffffffffffffffff16600460009054906101000a900473ffffffffffffffffffffffffffffffffffffffff1673ffffffffffffffffffffffffffffffffffffffff167f8be0079c531659141344cd1fd0a4f28419497f9722a3daafe3b4186f6b6457e060405160405180910390a380600460006101000a81548173ffffffffffffffffffffffffffffffffffffffff021916908373ffffffffffffffffffffffffffffffffffffffff16021790555050565b60006126578484846126c6565b15156126665760009050612677565b612671848484612a80565b50600190505b9392505050565b801561268f5761268e83836123a6565b5b505050565b60006126a08383612ba1565b15156126af57600090506126c0565b6126ba338484612a80565b50600190505b92915050565b60008073ffffffffffffffffffffffffffffffffffffffff168373ffffffffffffffffffffffffffffffffffffffff161415151561270357600080fd5b6000808573ffffffffffffffffffffffffffffffffffffffff1673ffffffffffffffffffffffffffffffffffffffff16815260200190815260200160002054821115151561275057600080fd5b600260008573ffffffffffffffffffffffffffffffffffffffff1673ffffffffffffffffffffffffffffffffffffffff16815260200190815260200160002060003373ffffffffffffffffffffffffffffffffffffffff1673ffffffffffffffffffffffffffffffffffffffff1681526020019081526020016000205482111515156127db57600080fd5b61282c826000808773ffffffffffffffffffffffffffffffffffffffff1673ffffffffffffffffffffffffffffffffffffffff1681526020019081526020016000205461251990919063ffffffff16565b6000808673ffffffffffffffffffffffffffffffffffffffff1673ffffffffffffffffffffffffffffffffffffffff168152602001908152602001600020819055506128bf826000808673ffffffffffffffffffffffffffffffffffffffff1673ffffffffffffffffffffffffffffffffffffffff1681526020019081526020016000205461253290919063ffffffff16565b6000808573ffffffffffffffffffffffffffffffffffffffff1673ffffffffffffffffffffffffffffffffffffffff1681526020019081526020016000208190555061299082600260008773ffffffffffffffffffffffffffffffffffffffff1673ffffffffffffffffffffffffffffffffffffffff16815260200190815260200160002060003373ffffffffffffffffffffffffffffffffffffffff1673ffffffffffffffffffffffffffffffffffffffff1681526020019081526020016000205461251990919063ffffffff16565b600260008673ffffffffffffffffffffffffffffffffffffffff1673ffffffffffffffffffffffffffffffffffffffff16815260200190815260200160002060003373ffffffffffffffffffffffffffffffffffffffff1673ffffffffffffffffffffffffffffffffffffffff168152602001908152602001600020819055508273ffffffffffffffffffffffffffffffffffffffff168473ffffffffffffffffffffffffffffffffffffffff167fddf252ad1be2c89b69c2b068fc378daa952ba7f163c4a11628f55a4df523b3ef846040518082815260200191505060405180910390a3600190509392505050565b600080600080429250600360008873ffffffffffffffffffffffffffffffffffffffff1673ffffffffffffffffffffffffffffffffffffffff16815260200190815260200160002091508282600201819055508160040160008154809291906001019190505550848260060160008282540192505081905550600082600001541415612b10578282600001819055505b600360008773ffffffffffffffffffffffffffffffffffffffff1673ffffffffffffffffffffffffffffffffffffffff16815260200190815260200160002090508281600101819055508060030160008154809291906001019190505550848160050160008282540192505081905550600081600001541415612b97578281600001819055505b5050509392505050565b60008073ffffffffffffffffffffffffffffffffffffffff168373ffffffffffffffffffffffffffffffffffffffff1614151515612bde57600080fd5b6000803373ffffffffffffffffffffffffffffffffffffffff1673ffffffffffffffffffffffffffffffffffffffff168152602001908152602001600020548211151515612c2b57600080fd5b612c7c826000803373ffffffffffffffffffffffffffffffffffffffff1673ffffffffffffffffffffffffffffffffffffffff1681526020019081526020016000205461251990919063ffffffff16565b6000803373ffffffffffffffffffffffffffffffffffffffff1673ffffffffffffffffffffffffffffffffffffffff16815260200190815260200160002081905550612d0f826000808673ffffffffffffffffffffffffffffffffffffffff1673ffffffffffffffffffffffffffffffffffffffff1681526020019081526020016000205461253290919063ffffffff16565b6000808573ffffffffffffffffffffffffffffffffffffffff1673ffffffffffffffffffffffffffffffffffffffff168152602001908152602001600020819055508273ffffffffffffffffffffffffffffffffffffffff163373ffffffffffffffffffffffffffffffffffffffff167fddf252ad1be2c89b69c2b068fc378daa952ba7f163c4a11628f55a4df523b3ef846040518082815260200191505060405180910390a36001905092915050565b815481835581811115612de757818360005260206000209182019101612de69190612dec565b5b505050565b612e0e91905b80821115612e0a576000816000905550600101612df2565b5090565b905600a165627a7a7230582064fae69a4bf2fa87c3481885df7c74522d543654114eaf80b4648da542f710330029",
  "source": "pragma solidity ^0.4.24;\n\nimport \"./ProvableOwnershipToken.sol\";\nimport \"../interface/IClaimable.sol\";\nimport \"../interface/IWithClaims.sol\";\n\n\n/**\n * @title TokenWithClaims\n * @dev TokenWithClaims contract\n * TokenWithClaims is a token that will create a\n * proofOfOwnership during transfers if a claim can be made.\n * Holder may ask for the claim later using the proofOfOwnership\n * @author Cyril Lapinte - <cyril.lapinte@mtpelerin.com>\n *\n * Error messages\n * E01: Claimable address must be defined\n * E02: Claimables parameter must not be empty\n * E03: Claimable does not exist\n**/\ncontract TokenWithClaims is IWithClaims, ProvableOwnershipToken {\n\n  IClaimable[] claimables;\n\n  /**\n   * @dev Constructor\n   */\n  constructor(IClaimable[] _claimables) public {\n    claimables = _claimables;\n  }\n\n  /**\n   * @dev Returns the number of claimables\n   */\n  function claimableLength() public view returns (uint256) {\n    return claimables.length;\n  }\n\n  /**\n   * @dev Returns the Claimable associated to the specified claimableId\n   */\n  function claimable(uint256 _claimableId) public view returns (IClaimable) {\n    return claimables[_claimableId];\n  }\n\n  /**\n   * @dev Returns true if there are any claims associated to this token\n   * to be made at this time for the _holder\n   */\n  function hasClaims(address _holder) public view returns (bool) {\n    uint256 lastTransaction = lastTransactionAt(_holder);\n    for (uint256 i = 0; i < claimables.length; i++) {\n      if (claimables[i].hasClaimsSince(_holder, lastTransaction)) {\n        return true;\n      }\n    }\n    return false;\n  }\n\n  /**\n   * @dev Override the transfer function with transferWithProofs\n   * A proof of ownership will be made if any claims can be made by the participants\n   */\n  function transfer(address _to, uint256 _value) public returns (bool) {\n    bool proofFrom = hasClaims(msg.sender);\n    bool proofTo = hasClaims(_to);\n\n    return super.transferWithProofs(\n      _to,\n      _value,\n      proofFrom,\n      proofTo\n    );\n  }\n\n  /**\n   * @dev Override the transfer function with transferWithProofs\n   * A proof of ownership will be made if any claims can be made by the participants\n   */\n  function transferFrom(address _from, address _to, uint256 _value)\n    public returns (bool)\n  {\n    bool proofFrom = hasClaims(_from);\n    bool proofTo = hasClaims(_to);\n\n    return super.transferFromWithProofs(\n      _from,\n      _to,\n      _value,\n      proofFrom,\n      proofTo\n    );\n  }\n\n  /**\n   * @dev transfer with proofs\n   */\n  function transferWithProofs(\n    address _to,\n    uint256 _value,\n    bool _proofFrom,\n    bool _proofTo\n  ) public returns (bool)\n  {\n    bool proofFrom = _proofFrom || hasClaims(msg.sender);\n    bool proofTo = _proofTo || hasClaims(_to);\n\n    return super.transferWithProofs(\n      _to,\n      _value,\n      proofFrom,\n      proofTo\n    );\n  }\n\n  /**\n   * @dev transfer from with proofs\n   */\n  function transferFromWithProofs(\n    address _from,\n    address _to,\n    uint256 _value,\n    bool _proofFrom,\n    bool _proofTo\n  ) public returns (bool)\n  {\n    bool proofFrom = _proofFrom || hasClaims(_from);\n    bool proofTo = _proofTo || hasClaims(_to);\n\n    return super.transferFromWithProofs(\n      _from,\n      _to,\n      _value,\n      proofFrom,\n      proofTo\n    );\n  }\n\n  /**\n   * @dev add a claimable contract to this token\n   */\n  function addClaimable(IClaimable _claimable) public onlyOwner {\n    require(_claimable != address(0), \"E01\");\n    claimables.push(_claimable);\n    emit ClaimableAdded(claimables.length-1);\n  }\n\n  /**\n   * @dev add several claimables\n   */\n  function addManyClaimables(IClaimable[] _claimables) public onlyOwner {\n    require(_claimables.length > 0, \"E02\");\n    for (uint256 i = 0; i < _claimables.length; i++) {\n      addClaimable(_claimables[i]);\n    }\n  }\n\n  /**\n   * @dev remove the claimable at claimableId\n   */\n  function removeClaimable(uint256 _claimableId) public onlyOwner {\n    require(_claimableId < claimables.length, \"E03\");\n\n    delete claimables[_claimableId];\n    if (_claimableId != claimables.length-1) {\n      claimables[_claimableId] = claimables[claimables.length-1];\n    }\n    claimables.length--;\n    emit ClaimableRemoved(_claimableId);\n  }\n\n  event ClaimableAdded(uint256 claimableId);\n  event ClaimableRemoved(uint256 claimableId);\n}\n",
  "sourcePath": "/home/node/project/contracts/token/TokenWithClaims.sol",
  "compiler": {
    "name": "solc",
    "version": "0.4.24+commit.e67f0147.Emscripten.clang"
  },
  "schemaVersion": "2.0.1",
  "updatedAt": "2018-08-15T14:19:55.985Z"
}