{
  "contractName": "TokenizedVoting",
  "abi": [
    {
      "constant": true,
      "inputs": [],
      "name": "proposalsCount",
      "outputs": [
        {
          "name": "",
          "type": "uint256"
        }
      ],
      "payable": false,
      "stateMutability": "view",
      "type": "function"
    },
    {
      "constant": true,
      "inputs": [
        {
          "name": "_proposalId",
          "type": "uint256"
        }
      ],
      "name": "isOnGoing",
      "outputs": [
        {
          "name": "",
          "type": "bool"
        }
      ],
      "payable": false,
      "stateMutability": "view",
      "type": "function"
    },
    {
      "constant": true,
      "inputs": [],
      "name": "areAnyOnGoing",
      "outputs": [
        {
          "name": "",
          "type": "bool"
        }
      ],
      "payable": false,
      "stateMutability": "view",
      "type": "function"
    },
    {
      "constant": false,
      "inputs": [
        {
          "name": "_proposalId",
          "type": "uint256"
        },
        {
          "name": "_option",
          "type": "uint8"
        }
      ],
      "name": "lockVote",
      "outputs": [],
      "payable": false,
      "stateMutability": "nonpayable",
      "type": "function"
    },
    {
      "constant": true,
      "inputs": [],
      "name": "defaultDuration",
      "outputs": [
        {
          "name": "",
          "type": "uint256"
        }
      ],
      "payable": false,
      "stateMutability": "view",
      "type": "function"
    },
    {
      "constant": true,
      "inputs": [],
      "name": "latestVotingTime",
      "outputs": [
        {
          "name": "",
          "type": "uint256"
        }
      ],
      "payable": false,
      "stateMutability": "view",
      "type": "function"
    },
    {
      "constant": true,
      "inputs": [
        {
          "name": "_proposalId",
          "type": "uint256"
        }
      ],
      "name": "result",
      "outputs": [
        {
          "name": "",
          "type": "uint256"
        }
      ],
      "payable": false,
      "stateMutability": "view",
      "type": "function"
    },
    {
      "constant": true,
      "inputs": [
        {
          "name": "_proposalId",
          "type": "uint256"
        }
      ],
      "name": "voteQuorum",
      "outputs": [
        {
          "name": "",
          "type": "uint256"
        }
      ],
      "payable": false,
      "stateMutability": "view",
      "type": "function"
    },
    {
      "constant": true,
      "inputs": [
        {
          "name": "_proposalId",
          "type": "uint256"
        }
      ],
      "name": "participation",
      "outputs": [
        {
          "name": "",
          "type": "uint256"
        }
      ],
      "payable": false,
      "stateMutability": "view",
      "type": "function"
    },
    {
      "constant": true,
      "inputs": [
        {
          "name": "_proposalId",
          "type": "uint256"
        }
      ],
      "name": "proposalHash",
      "outputs": [
        {
          "name": "",
          "type": "uint256"
        }
      ],
      "payable": false,
      "stateMutability": "view",
      "type": "function"
    },
    {
      "constant": true,
      "inputs": [
        {
          "name": "_proposalId",
          "type": "uint256"
        }
      ],
      "name": "proposalCreatedAt",
      "outputs": [
        {
          "name": "",
          "type": "uint256"
        }
      ],
      "payable": false,
      "stateMutability": "view",
      "type": "function"
    },
    {
      "constant": true,
      "inputs": [
        {
          "name": "_proposalId",
          "type": "uint256"
        }
      ],
      "name": "voteMinScore",
      "outputs": [
        {
          "name": "",
          "type": "uint256"
        }
      ],
      "payable": false,
      "stateMutability": "view",
      "type": "function"
    },
    {
      "constant": false,
      "inputs": [
        {
          "name": "_proposalId",
          "type": "uint256"
        }
      ],
      "name": "closeVote",
      "outputs": [],
      "payable": false,
      "stateMutability": "nonpayable",
      "type": "function"
    },
    {
      "constant": true,
      "inputs": [],
      "name": "defaultQuorum",
      "outputs": [
        {
          "name": "",
          "type": "uint256"
        }
      ],
      "payable": false,
      "stateMutability": "view",
      "type": "function"
    },
    {
      "constant": false,
      "inputs": [],
      "name": "renounceOwnership",
      "outputs": [],
      "payable": false,
      "stateMutability": "nonpayable",
      "type": "function"
    },
    {
      "constant": true,
      "inputs": [
        {
          "name": "_proposalId",
          "type": "uint256"
        }
      ],
      "name": "voteDuration",
      "outputs": [
        {
          "name": "",
          "type": "uint256"
        }
      ],
      "payable": false,
      "stateMutability": "view",
      "type": "function"
    },
    {
      "constant": true,
      "inputs": [
        {
          "name": "_proposalId",
          "type": "uint256"
        }
      ],
      "name": "proposalUrl",
      "outputs": [
        {
          "name": "",
          "type": "string"
        }
      ],
      "payable": false,
      "stateMutability": "view",
      "type": "function"
    },
    {
      "constant": true,
      "inputs": [
        {
          "name": "_proposalId",
          "type": "uint256"
        },
        {
          "name": "_participant",
          "type": "address"
        }
      ],
      "name": "optionVoted",
      "outputs": [
        {
          "name": "",
          "type": "uint8"
        }
      ],
      "payable": false,
      "stateMutability": "view",
      "type": "function"
    },
    {
      "constant": true,
      "inputs": [],
      "name": "defaultMinScore",
      "outputs": [
        {
          "name": "",
          "type": "uint256"
        }
      ],
      "payable": false,
      "stateMutability": "view",
      "type": "function"
    },
    {
      "constant": true,
      "inputs": [],
      "name": "owner",
      "outputs": [
        {
          "name": "",
          "type": "address"
        }
      ],
      "payable": false,
      "stateMutability": "view",
      "type": "function"
    },
    {
      "constant": false,
      "inputs": [
        {
          "name": "_question",
          "type": "string"
        },
        {
          "name": "_url",
          "type": "string"
        },
        {
          "name": "_hash",
          "type": "uint256"
        },
        {
          "name": "_optionsAvailable",
          "type": "uint8"
        }
      ],
      "name": "addProposal",
      "outputs": [],
      "payable": false,
      "stateMutability": "nonpayable",
      "type": "function"
    },
    {
      "constant": true,
      "inputs": [
        {
          "name": "_proposalId",
          "type": "uint256"
        }
      ],
      "name": "proposalOptionsAvailable",
      "outputs": [
        {
          "name": "",
          "type": "uint8"
        }
      ],
      "payable": false,
      "stateMutability": "view",
      "type": "function"
    },
    {
      "constant": true,
      "inputs": [
        {
          "name": "_proposalId",
          "type": "uint256"
        }
      ],
      "name": "proposalQuestion",
      "outputs": [
        {
          "name": "",
          "type": "string"
        }
      ],
      "payable": false,
      "stateMutability": "view",
      "type": "function"
    },
    {
      "constant": true,
      "inputs": [
        {
          "name": "_proposalId",
          "type": "uint256"
        },
        {
          "name": "_participant",
          "type": "address"
        }
      ],
      "name": "isDeclared",
      "outputs": [
        {
          "name": "",
          "type": "bool"
        }
      ],
      "payable": false,
      "stateMutability": "view",
      "type": "function"
    },
    {
      "constant": true,
      "inputs": [
        {
          "name": "_proposalId",
          "type": "uint256"
        }
      ],
      "name": "ballot",
      "outputs": [
        {
          "name": "",
          "type": "uint256[]"
        }
      ],
      "payable": false,
      "stateMutability": "view",
      "type": "function"
    },
    {
      "constant": false,
      "inputs": [
        {
          "name": "_duration",
          "type": "uint256"
        },
        {
          "name": "_quorum",
          "type": "uint256"
        },
        {
          "name": "_minScore",
          "type": "uint256"
        }
      ],
      "name": "updateVotingRule",
      "outputs": [],
      "payable": false,
      "stateMutability": "nonpayable",
      "type": "function"
    },
    {
      "constant": false,
      "inputs": [
        {
          "name": "_newOwner",
          "type": "address"
        }
      ],
      "name": "transferOwnership",
      "outputs": [],
      "payable": false,
      "stateMutability": "nonpayable",
      "type": "function"
    },
    {
      "constant": true,
      "inputs": [
        {
          "name": "_proposalId",
          "type": "uint256"
        },
        {
          "name": "_participant",
          "type": "address"
        }
      ],
      "name": "isVoteLocked",
      "outputs": [
        {
          "name": "",
          "type": "bool"
        }
      ],
      "payable": false,
      "stateMutability": "view",
      "type": "function"
    },
    {
      "inputs": [
        {
          "name": "_token",
          "type": "address"
        }
      ],
      "payable": false,
      "stateMutability": "nonpayable",
      "type": "constructor"
    },
    {
      "anonymous": false,
      "inputs": [
        {
          "indexed": false,
          "name": "duration",
          "type": "uint256"
        },
        {
          "indexed": false,
          "name": "quorum",
          "type": "uint256"
        },
        {
          "indexed": false,
          "name": "minScore",
          "type": "uint256"
        }
      ],
      "name": "VotingRuleUpdated",
      "type": "event"
    },
    {
      "anonymous": false,
      "inputs": [
        {
          "indexed": false,
          "name": "proposalId",
          "type": "uint256"
        }
      ],
      "name": "VoteClosed",
      "type": "event"
    },
    {
      "anonymous": false,
      "inputs": [
        {
          "indexed": false,
          "name": "proposalId",
          "type": "uint256"
        }
      ],
      "name": "ProposalAdded",
      "type": "event"
    },
    {
      "anonymous": false,
      "inputs": [
        {
          "indexed": true,
          "name": "previousOwner",
          "type": "address"
        }
      ],
      "name": "OwnershipRenounced",
      "type": "event"
    },
    {
      "anonymous": false,
      "inputs": [
        {
          "indexed": true,
          "name": "previousOwner",
          "type": "address"
        },
        {
          "indexed": true,
          "name": "newOwner",
          "type": "address"
        }
      ],
      "name": "OwnershipTransferred",
      "type": "event"
    },
    {
      "constant": true,
      "inputs": [],
      "name": "token",
      "outputs": [
        {
          "name": "",
          "type": "address"
        }
      ],
      "payable": false,
      "stateMutability": "view",
      "type": "function"
    },
    {
      "constant": true,
      "inputs": [
        {
          "name": "_proposalId",
          "type": "uint256"
        },
        {
          "name": "_holder",
          "type": "address"
        }
      ],
      "name": "votesAvailable",
      "outputs": [
        {
          "name": "",
          "type": "uint256"
        }
      ],
      "payable": false,
      "stateMutability": "view",
      "type": "function"
    },
    {
      "constant": true,
      "inputs": [
        {
          "name": "_proposalId",
          "type": "uint256"
        },
        {
          "name": "_holder",
          "type": "address"
        },
        {
          "name": "_proofId",
          "type": "uint256"
        }
      ],
      "name": "votesAvailableWithProof",
      "outputs": [
        {
          "name": "",
          "type": "uint256"
        }
      ],
      "payable": false,
      "stateMutability": "view",
      "type": "function"
    },
    {
      "constant": false,
      "inputs": [
        {
          "name": "_proposalId",
          "type": "uint256"
        },
        {
          "name": "_option",
          "type": "uint8"
        }
      ],
      "name": "vote",
      "outputs": [],
      "payable": false,
      "stateMutability": "nonpayable",
      "type": "function"
    },
    {
      "constant": false,
      "inputs": [
        {
          "name": "_proposalId",
          "type": "uint256"
        },
        {
          "name": "_option",
          "type": "uint8"
        },
        {
          "name": "_proofId",
          "type": "uint256"
        }
      ],
      "name": "voteWithProof",
      "outputs": [],
      "payable": false,
      "stateMutability": "nonpayable",
      "type": "function"
    },
    {
      "constant": false,
      "inputs": [
        {
          "name": "_token",
          "type": "address"
        }
      ],
      "name": "updateToken",
      "outputs": [],
      "payable": false,
      "stateMutability": "nonpayable",
      "type": "function"
    }
  ],
  "bytecode": "0x6080604052621275006003556000600455600060055534801561002157600080fd5b506040516020806127c383398101806040528101908080519060200190929190505050336000806101000a81548173ffffffffffffffffffffffffffffffffffffffff021916908373ffffffffffffffffffffffffffffffffffffffff16021790555080600860006101000a81548173ffffffffffffffffffffffffffffffffffffffff021916908373ffffffffffffffffffffffffffffffffffffffff160217905550506126ee806100d56000396000f3006080604052600436106101ac576000357c0100000000000000000000000000000000000000000000000000000000900463ffffffff1680630a9f46ad146101b15780630b5e5094146101dc57806317cac3fb1461022157806318733495146102505780632af7e2ea1461028a5780632d19f9a6146102b55780633c594059146102e05780634f080f2514610321578063508f93551461036257806357044c0a146103a35780635f9103b2146103e45780636063d4d614610425578063671ddabd146104905780636e48a035146104d157806370af96fb146104fe578063715018a614610529578063768c35a1146105405780637916b882146105815780637ad3def2146106275780637c7a7bfa1461066a5780637dfe69f5146106cb578063826e56c2146107325780638da5cb5b1461075d5780638f8e632f146107b457806392a546f0146107f8578063943e8216146108be578063a4e0d4e4146108f8578063b4706d421461093f578063c656d3cb146109e5578063e794273414610a4a578063edb9f0c314610acc578063f2fde38b14610b0d578063fc0c546a14610b50578063ffc5027014610ba7575b600080fd5b3480156101bd57600080fd5b506101c6610c0c565b6040518082815260200191505060405180910390f35b3480156101e857600080fd5b5061020760048036038101908080359060200190929190505050610c16565b604051808215151515815260200191505060405180910390f35b34801561022d57600080fd5b50610236610c67565b604051808215151515815260200191505060405180910390f35b34801561025c57600080fd5b5061028860048036038101908080359060200190929190803560ff169060200190929190505050610c7a565b005b34801561029657600080fd5b5061029f610cf6565b6040518082815260200191505060405180910390f35b3480156102c157600080fd5b506102ca610d00565b6040518082815260200191505060405180910390f35b3480156102ec57600080fd5b5061030b60048036038101908080359060200190929190505050610d0a565b6040518082815260200191505060405180910390f35b34801561032d57600080fd5b5061034c60048036038101908080359060200190929190505050610e8b565b6040518082815260200191505060405180910390f35b34801561036e57600080fd5b5061038d60048036038101908080359060200190929190505050610eab565b6040518082815260200191505060405180910390f35b3480156103af57600080fd5b506103ce60048036038101908080359060200190929190505050610ecb565b6040518082815260200191505060405180910390f35b3480156103f057600080fd5b5061040f60048036038101908080359060200190929190505050610eeb565b6040518082815260200191505060405180910390f35b34801561043157600080fd5b5061047a60048036038101908080359060200190929190803573ffffffffffffffffffffffffffffffffffffffff16906020019092919080359060200190929190505050610f0b565b6040518082815260200191505060405180910390f35b34801561049c57600080fd5b506104bb60048036038101908080359060200190929190505050611034565b6040518082815260200191505060405180910390f35b3480156104dd57600080fd5b506104fc60048036038101908080359060200190929190505050611054565b005b34801561050a57600080fd5b506105136111a6565b6040518082815260200191505060405180910390f35b34801561053557600080fd5b5061053e6111b0565b005b34801561054c57600080fd5b5061056b600480360381019080803590602001909291905050506112b2565b6040518082815260200191505060405180910390f35b34801561058d57600080fd5b506105ac600480360381019080803590602001909291905050506112d2565b6040518080602001828103825283818151815260200191508051906020019080838360005b838110156105ec5780820151818401526020810190506105d1565b50505050905090810190601f1680156106195780820380516001836020036101000a031916815260200191505b509250505060405180910390f35b34801561063357600080fd5b50610668600480360381019080803573ffffffffffffffffffffffffffffffffffffffff16906020019092919050505061138a565b005b34801561067657600080fd5b506106b560048036038101908080359060200190929190803573ffffffffffffffffffffffffffffffffffffffff169060200190929190505050611429565b6040518082815260200191505060405180910390f35b3480156106d757600080fd5b5061071660048036038101908080359060200190929190803573ffffffffffffffffffffffffffffffffffffffff16906020019092919050505061164a565b604051808260ff1660ff16815260200191505060405180910390f35b34801561073e57600080fd5b506107476116b8565b6040518082815260200191505060405180910390f35b34801561076957600080fd5b506107726116c2565b604051808273ffffffffffffffffffffffffffffffffffffffff1673ffffffffffffffffffffffffffffffffffffffff16815260200191505060405180910390f35b3480156107c057600080fd5b506107f660048036038101908080359060200190929190803560ff169060200190929190803590602001909291905050506116e7565b005b34801561080457600080fd5b506108bc600480360381019080803590602001908201803590602001908080601f0160208091040260200160405190810160405280939291908181526020018383808284378201915050505050509192919290803590602001908201803590602001908080601f016020809104026020016040519081016040528093929190818152602001838380828437820191505050505050919291929080359060200190929190803560ff1690602001909291905050506117fd565b005b3480156108ca57600080fd5b506108f660048036038101908080359060200190929190803560ff16906020019092919050505061190c565b005b34801561090457600080fd5b5061092360048036038101908080359060200190929190505050611a20565b604051808260ff1660ff16815260200191505060405180910390f35b34801561094b57600080fd5b5061096a60048036038101908080359060200190929190505050611a45565b6040518080602001828103825283818151815260200191508051906020019080838360005b838110156109aa57808201518184015260208101905061098f565b50505050905090810190601f1680156109d75780820380516001836020036101000a031916815260200191505b509250505060405180910390f35b3480156109f157600080fd5b50610a3060048036038101908080359060200190929190803573ffffffffffffffffffffffffffffffffffffffff169060200190929190505050611afd565b604051808215151515815260200191505060405180910390f35b348015610a5657600080fd5b50610a7560048036038101908080359060200190929190505050611b6b565b6040518080602001828103825283818151815260200191508051906020019060200280838360005b83811015610ab8578082015181840152602081019050610a9d565b505050509050019250505060405180910390f35b348015610ad857600080fd5b50610b0b600480360381019080803590602001909291908035906020019092919080359060200190929190505050611bd9565b005b348015610b1957600080fd5b50610b4e600480360381019080803573ffffffffffffffffffffffffffffffffffffffff169060200190929190505050611c95565b005b348015610b5c57600080fd5b50610b65611cfc565b604051808273ffffffffffffffffffffffffffffffffffffffff1673ffffffffffffffffffffffffffffffffffffffff16815260200191505060405180910390f35b348015610bb357600080fd5b50610bf260048036038101908080359060200190929190803573ffffffffffffffffffffffffffffffffffffffff169060200190929190505050611d26565b604051808215151515815260200191505060405180910390f35b6000600254905090565b6000610c5760066000848152602001908152602001600020600001546001600085815260200190815260200160002060040154611d9490919063ffffffff16565b610c5f611db0565b109050919050565b6000600754610c74611db0565b10905090565b610c84828261190c565b600180600084815260200190815260200160002060060160003373ffffffffffffffffffffffffffffffffffffffff1673ffffffffffffffffffffffffffffffffffffffff16815260200190815260200160002060000160026101000a81548160ff0219169083151502179055505050565b6000600354905090565b6000600754905090565b600080600080600080610d1c87610c16565b151515610d91576040517f08c379a00000000000000000000000000000000000000000000000000000000081526004018080602001828103825260038152602001807f453031000000000000000000000000000000000000000000000000000000000081525060200191505060405180910390fd5b6001600088815260200190815260200160002094506006600088815260200190815260200160002093508360010154610df3866005016000815481101515610dd557fe5b90600052602060002001548760030154611db890919063ffffffff16565b1015610e025760009550610e81565b600190505b8460050180549050811015610e6857828560050182815481101515610e2857fe5b90600052602060002001541115610e5b578091508460050181815481101515610e4d57fe5b906000526020600020015492505b8080600101915050610e07565b8360020154831015610e7d5760009550610e81565b8195505b5050505050919050565b600060066000838152602001908152602001600020600101549050919050565b600060016000838152602001908152602001600020600301549050919050565b600060016000838152602001908152602001600020600201549050919050565b600060016000838152602001908152602001600020600401549050919050565b6000600860009054906101000a900473ffffffffffffffffffffffffffffffffffffffff1673ffffffffffffffffffffffffffffffffffffffff1663a7341e75848460016000898152602001908152602001600020600401546040518463ffffffff167c0100000000000000000000000000000000000000000000000000000000028152600401808473ffffffffffffffffffffffffffffffffffffffff1673ffffffffffffffffffffffffffffffffffffffff1681526020018381526020018281526020019350505050602060405180830381600087803b158015610ff057600080fd5b505af1158015611004573d6000803e3d6000fd5b505050506040513d602081101561101a57600080fd5b810190808051906020019092919050505090509392505050565b600060066000838152602001908152602001600020600201549050919050565b60008060009054906101000a900473ffffffffffffffffffffffffffffffffffffffff1673ffffffffffffffffffffffffffffffffffffffff163373ffffffffffffffffffffffffffffffffffffffff161415156110b157600080fd5b6110ba82610c16565b151561112e576040517f08c379a00000000000000000000000000000000000000000000000000000000081526004018080602001828103825260038152602001807f453032000000000000000000000000000000000000000000000000000000000081525060200191505060405180910390fd5b600160008381526020019081526020016000206004015461114d611db0565b0390508060066000848152602001908152602001600020600001819055507fbc12589e76c0d59fd5a7c6f642c154830f0b46718b5ac07d1a0bdf29e124cbd8826040518082815260200191505060405180910390a15050565b6000600454905090565b6000809054906101000a900473ffffffffffffffffffffffffffffffffffffffff1673ffffffffffffffffffffffffffffffffffffffff163373ffffffffffffffffffffffffffffffffffffffff1614151561120b57600080fd5b6000809054906101000a900473ffffffffffffffffffffffffffffffffffffffff1673ffffffffffffffffffffffffffffffffffffffff167ff8df31144d9c2f0f6b59d69b8b98abd5459d07f2742c4df920b25aae33c6482060405160405180910390a260008060006101000a81548173ffffffffffffffffffffffffffffffffffffffff021916908373ffffffffffffffffffffffffffffffffffffffff160217905550565b600060066000838152602001908152602001600020600001549050919050565b6060600160008381526020019081526020016000206001018054600181600116156101000203166002900480601f01602080910402602001604051908101604052809291908181526020018280546001816001161561010002031660029004801561137e5780601f106113535761010080835404028352916020019161137e565b820191906000526020600020905b81548152906001019060200180831161136157829003601f168201915b50505050509050919050565b6000809054906101000a900473ffffffffffffffffffffffffffffffffffffffff1673ffffffffffffffffffffffffffffffffffffffff163373ffffffffffffffffffffffffffffffffffffffff161415156113e557600080fd5b80600860006101000a81548173ffffffffffffffffffffffffffffffffffffffff021916908373ffffffffffffffffffffffffffffffffffffffff16021790555050565b60006001600084815260200190815260200160002060040154600860009054906101000a900473ffffffffffffffffffffffffffffffffffffffff1673ffffffffffffffffffffffffffffffffffffffff166318ec53b2846040518263ffffffff167c0100000000000000000000000000000000000000000000000000000000028152600401808273ffffffffffffffffffffffffffffffffffffffff1673ffffffffffffffffffffffffffffffffffffffff168152602001915050602060405180830381600087803b1580156114ff57600080fd5b505af1158015611513573d6000803e3d6000fd5b505050506040513d602081101561152957600080fd5b8101908080519060200190929190505050101561163f57600860009054906101000a900473ffffffffffffffffffffffffffffffffffffffff1673ffffffffffffffffffffffffffffffffffffffff166370a08231836040518263ffffffff167c0100000000000000000000000000000000000000000000000000000000028152600401808273ffffffffffffffffffffffffffffffffffffffff1673ffffffffffffffffffffffffffffffffffffffff168152602001915050602060405180830381600087803b1580156115fd57600080fd5b505af1158015611611573d6000803e3d6000fd5b505050506040513d602081101561162757600080fd5b81019080805190602001909291905050509050611644565b600090505b92915050565b60006001600084815260200190815260200160002060060160008373ffffffffffffffffffffffffffffffffffffffff1673ffffffffffffffffffffffffffffffffffffffff16815260200190815260200160002060000160009054906101000a900460ff16905092915050565b6000600554905090565b6000809054906101000a900473ffffffffffffffffffffffffffffffffffffffff1681565b60006116f284610c16565b1515611766576040517f08c379a00000000000000000000000000000000000000000000000000000000081526004018080602001828103825260038152602001807f453031000000000000000000000000000000000000000000000000000000000081525060200191505060405180910390fd5b611771843384610f0b565b9050600081141515156117ec576040517f08c379a00000000000000000000000000000000000000000000000000000000081526004018080602001828103825260038152602001807f453032000000000000000000000000000000000000000000000000000000000081525060200191505060405180910390fd5b6117f7848483611dd1565b50505050565b60008060009054906101000a900473ffffffffffffffffffffffffffffffffffffffff1673ffffffffffffffffffffffffffffffffffffffff163373ffffffffffffffffffffffffffffffffffffffff1614151561185a57600080fd5b611866858585856121cc565b606060405190810160405280600354815260200160045481526020016005548152506006600060016002540381526020019081526020016000206000820151816000015560208201518160010155604082015181600201559050506118f160035460016000600160025403815260200190815260200160002060040154611d9490919063ffffffff16565b905060075481111561190557806007819055505b5050505050565b600061191783610c16565b151561198b576040517f08c379a00000000000000000000000000000000000000000000000000000000081526004018080602001828103825260038152602001807f453031000000000000000000000000000000000000000000000000000000000081525060200191505060405180910390fd5b6119958333611429565b905060008114151515611a10576040517f08c379a00000000000000000000000000000000000000000000000000000000081526004018080602001828103825260038152602001807f453032000000000000000000000000000000000000000000000000000000000081525060200191505060405180910390fd5b611a1b838383611dd1565b505050565b6000600180600084815260200190815260200160002060050180549050039050919050565b6060600160008381526020019081526020016000206000018054600181600116156101000203166002900480601f016020809104026020016040519081016040528092919081815260200182805460018160011615610100020316600290048015611af15780601f10611ac657610100808354040283529160200191611af1565b820191906000526020600020905b815481529060010190602001808311611ad457829003601f168201915b50505050509050919050565b60006001600084815260200190815260200160002060060160008373ffffffffffffffffffffffffffffffffffffffff1673ffffffffffffffffffffffffffffffffffffffff16815260200190815260200160002060000160019054906101000a900460ff16905092915050565b606060016000838152602001908152602001600020600501805480602002602001604051908101604052809291908181526020018280548015611bcd57602002820191906000526020600020905b815481526020019060010190808311611bb9575b50505050509050919050565b6000809054906101000a900473ffffffffffffffffffffffffffffffffffffffff1673ffffffffffffffffffffffffffffffffffffffff163373ffffffffffffffffffffffffffffffffffffffff16141515611c3457600080fd5b8260038190555081600481905550806005819055507f6a66e31456dd9cd88d5884033ee7f19b9e2d1928de00674350b5943dd823d7f883838360405180848152602001838152602001828152602001935050505060405180910390a1505050565b6000809054906101000a900473ffffffffffffffffffffffffffffffffffffffff1673ffffffffffffffffffffffffffffffffffffffff163373ffffffffffffffffffffffffffffffffffffffff16141515611cf057600080fd5b611cf9816124d6565b50565b6000600860009054906101000a900473ffffffffffffffffffffffffffffffffffffffff16905090565b60006001600084815260200190815260200160002060060160008373ffffffffffffffffffffffffffffffffffffffff1673ffffffffffffffffffffffffffffffffffffffff16815260200190815260200160002060000160029054906101000a900460ff16905092915050565b60008183019050828110151515611da757fe5b80905092915050565b600042905090565b6000828211151515611dc657fe5b818303905092915050565b6000806001600086815260200190815260200160002091508160060160003373ffffffffffffffffffffffffffffffffffffffff1673ffffffffffffffffffffffffffffffffffffffff168152602001908152602001600020905060016000868152602001908152602001600020600501805490508460ff16101515611ebf576040517f08c379a00000000000000000000000000000000000000000000000000000000081526004018080602001828103825260038152602001807f453034000000000000000000000000000000000000000000000000000000000081525060200191505060405180910390fd5b60025485101515611f38576040517f08c379a00000000000000000000000000000000000000000000000000000000081526004018080602001828103825260038152602001807f453035000000000000000000000000000000000000000000000000000000000081525060200191505060405180910390fd5b8360ff168160000160009054906101000a900460ff1660ff1614151515611fc7576040517f08c379a00000000000000000000000000000000000000000000000000000000081526004018080602001828103825260038152602001807f453036000000000000000000000000000000000000000000000000000000000081525060200191505060405180910390fd5b8160060160003373ffffffffffffffffffffffffffffffffffffffff1673ffffffffffffffffffffffffffffffffffffffff16815260200190815260200160002060000160019054906101000a900460ff16156120985761206083836005018360000160009054906101000a900460ff1660ff1681548110151561204757fe5b9060005260206000200154611db890919063ffffffff16565b826005018260000160009054906101000a900460ff1660ff1681548110151561208557fe5b9060005260206000200181905550612115565b6120af838360030154611d9490919063ffffffff16565b826003018190555060018260060160003373ffffffffffffffffffffffffffffffffffffffff1673ffffffffffffffffffffffffffffffffffffffff16815260200190815260200160002060000160016101000a81548160ff0219169083151502179055505b61214683836005018660ff1681548110151561212d57fe5b9060005260206000200154611d9490919063ffffffff16565b826005018560ff1681548110151561215a57fe5b9060005260206000200181905550838260060160003373ffffffffffffffffffffffffffffffffffffffff1673ffffffffffffffffffffffffffffffffffffffff16815260200190815260200160002060000160006101000a81548160ff021916908360ff1602179055505050505050565b6000809054906101000a900473ffffffffffffffffffffffffffffffffffffffff1673ffffffffffffffffffffffffffffffffffffffff163373ffffffffffffffffffffffffffffffffffffffff1614151561222757600080fd5b600084511115156122a0576040517f08c379a00000000000000000000000000000000000000000000000000000000081526004018080602001828103825260038152602001807f453031000000000000000000000000000000000000000000000000000000000081525060200191505060405180910390fd5b60008351111515612319576040517f08c379a00000000000000000000000000000000000000000000000000000000081526004018080602001828103825260038152602001807f453032000000000000000000000000000000000000000000000000000000000081525060200191505060405180910390fd5b600082111515612391576040517f08c379a00000000000000000000000000000000000000000000000000000000081526004018080602001828103825260038152602001807f453033000000000000000000000000000000000000000000000000000000000081525060200191505060405180910390fd5b60c060405190810160405280858152602001848152602001838152602001600081526020014281526020016001830160ff166040519080825280602002602001820160405280156123f15781602001602082028038833980820191505090505b5081525060016000600254815260200190815260200160002060008201518160000190805190602001906124269291906125d0565b5060208201518160010190805190602001906124439291906125d0565b5060408201518160020155606082015181600301556080820151816004015560a082015181600501908051906020019061247e929190612650565b509050506002600081548092919060010191905055507f3f802220982dbddc337f1811180e73513e775b18380401997927fd1454cfd0bd6001600254036040518082815260200191505060405180910390a150505050565b600073ffffffffffffffffffffffffffffffffffffffff168173ffffffffffffffffffffffffffffffffffffffff161415151561251257600080fd5b8073ffffffffffffffffffffffffffffffffffffffff166000809054906101000a900473ffffffffffffffffffffffffffffffffffffffff1673ffffffffffffffffffffffffffffffffffffffff167f8be0079c531659141344cd1fd0a4f28419497f9722a3daafe3b4186f6b6457e060405160405180910390a3806000806101000a81548173ffffffffffffffffffffffffffffffffffffffff021916908373ffffffffffffffffffffffffffffffffffffffff16021790555050565b828054600181600116156101000203166002900490600052602060002090601f016020900481019282601f1061261157805160ff191683800117855561263f565b8280016001018555821561263f579182015b8281111561263e578251825591602001919060010190612623565b5b50905061264c919061269d565b5090565b82805482825590600052602060002090810192821561268c579160200282015b8281111561268b578251825591602001919060010190612670565b5b509050612699919061269d565b5090565b6126bf91905b808211156126bb5760008160009055506001016126a3565b5090565b905600a165627a7a72305820f94e69d940df0ea7c2d6f7379c7c602973f7fb92d022b8944e1ee0adc3a175ee0029",
  "source": "pragma solidity ^0.4.24;\n\nimport \"../zeppelin/token/ERC20/ERC20.sol\";\nimport \"../zeppelin/ownership/Ownable.sol\";\nimport \"../zeppelin/math/SafeMath.sol\";\nimport \"../token/ProvableOwnershipToken.sol\";\nimport \"./Voting.sol\";\n\n\n/**\n * @title TokenizedVoting\n * @dev TokenizedVoting contract\n * @author Cyril Lapinte - <cyril.lapinte@mtpelerin.com>\n *\n * Error messages\n * E01: Vote must be opened\n * E02: Participant must have weight\n */\ncontract TokenizedVoting is Voting {\n\n  ProvableOwnershipToken public token;\n\n  /**\n   * @dev constructor\n   */\n  constructor(ProvableOwnershipToken _token) public {\n    token = _token;\n  }\n\n  /**\n   * @dev returns token\n   */\n  function token() public view returns (ProvableOwnershipToken) {\n    return token;\n  }\n\n  /**\n   * @dev votes available from the balance if no transactions was made since\n   * the beginning of the vote\n   */\n  function votesAvailable(uint256 _proposalId, address _holder)\n    public view returns (uint256)\n  {\n    if (token.lastTransactionAt(_holder) < proposals[_proposalId].createdAt) {\n      return token.balanceOf(_holder);\n    }\n    return 0;\n  }\n\n  /**\n   * @dev votes available with proof of ownership\n   */\n  function votesAvailableWithProof(\n    uint256 _proposalId,\n    address _holder,\n    uint256 _proofId) public view returns (uint256)\n  {\n    return token.checkProof(\n      _holder,\n      _proofId,\n      proposals[_proposalId].createdAt);\n  }\n\n  /**\n   * @dev vote without proof of ownership\n   */\n  function vote(uint256 _proposalId, uint8 _option) public {\n    require(isOnGoing(_proposalId), \"E01\");\n   \n    uint256 weight = votesAvailable(_proposalId, msg.sender);\n    require(weight != 0, \"E02\");\n    weightedVote(_proposalId, _option, weight);\n  }\n\n  /**\n   * @dev vote with proof of ownership\n   */\n  function voteWithProof(\n    uint256 _proposalId,\n    uint8 _option,\n    uint256 _proofId) public\n  {\n    require(isOnGoing(_proposalId), \"E01\");\n   \n    uint256 weight = votesAvailableWithProof(\n      _proposalId, msg.sender, _proofId);\n\n    require(weight != 0, \"E02\");\n    weightedVote(_proposalId, _option, weight);\n  }\n\n  /**\n   * @dev update token\n   */\n  function updateToken(ProvableOwnershipToken _token) public onlyOwner {\n    token = _token;\n  }\n}\n",
  "sourcePath": "/home/node/project/contracts/voting/TokenizedVoting.sol",
  "compiler": {
    "name": "solc",
    "version": "0.4.24+commit.e67f0147.Emscripten.clang"
  },
  "schemaVersion": "2.0.1",
  "updatedAt": "2018-08-15T14:19:56.032Z"
}