{
  "contractName": "TokenizedVotingClaimable",
  "abi": [
    {
      "constant": true,
      "inputs": [],
      "name": "proposalsCount",
      "outputs": [
        {
          "name": "",
          "type": "uint256"
        }
      ],
      "payable": false,
      "stateMutability": "view",
      "type": "function"
    },
    {
      "constant": true,
      "inputs": [
        {
          "name": "_proposalId",
          "type": "uint256"
        }
      ],
      "name": "isOnGoing",
      "outputs": [
        {
          "name": "",
          "type": "bool"
        }
      ],
      "payable": false,
      "stateMutability": "view",
      "type": "function"
    },
    {
      "constant": true,
      "inputs": [],
      "name": "areAnyOnGoing",
      "outputs": [
        {
          "name": "",
          "type": "bool"
        }
      ],
      "payable": false,
      "stateMutability": "view",
      "type": "function"
    },
    {
      "constant": false,
      "inputs": [
        {
          "name": "_proposalId",
          "type": "uint256"
        },
        {
          "name": "_option",
          "type": "uint8"
        }
      ],
      "name": "lockVote",
      "outputs": [],
      "payable": false,
      "stateMutability": "nonpayable",
      "type": "function"
    },
    {
      "constant": true,
      "inputs": [],
      "name": "defaultDuration",
      "outputs": [
        {
          "name": "",
          "type": "uint256"
        }
      ],
      "payable": false,
      "stateMutability": "view",
      "type": "function"
    },
    {
      "constant": true,
      "inputs": [],
      "name": "latestVotingTime",
      "outputs": [
        {
          "name": "",
          "type": "uint256"
        }
      ],
      "payable": false,
      "stateMutability": "view",
      "type": "function"
    },
    {
      "constant": true,
      "inputs": [
        {
          "name": "_proposalId",
          "type": "uint256"
        }
      ],
      "name": "result",
      "outputs": [
        {
          "name": "",
          "type": "uint256"
        }
      ],
      "payable": false,
      "stateMutability": "view",
      "type": "function"
    },
    {
      "constant": true,
      "inputs": [
        {
          "name": "_proposalId",
          "type": "uint256"
        }
      ],
      "name": "voteQuorum",
      "outputs": [
        {
          "name": "",
          "type": "uint256"
        }
      ],
      "payable": false,
      "stateMutability": "view",
      "type": "function"
    },
    {
      "constant": true,
      "inputs": [
        {
          "name": "_proposalId",
          "type": "uint256"
        }
      ],
      "name": "participation",
      "outputs": [
        {
          "name": "",
          "type": "uint256"
        }
      ],
      "payable": false,
      "stateMutability": "view",
      "type": "function"
    },
    {
      "constant": true,
      "inputs": [
        {
          "name": "_proposalId",
          "type": "uint256"
        }
      ],
      "name": "proposalHash",
      "outputs": [
        {
          "name": "",
          "type": "uint256"
        }
      ],
      "payable": false,
      "stateMutability": "view",
      "type": "function"
    },
    {
      "constant": true,
      "inputs": [
        {
          "name": "_proposalId",
          "type": "uint256"
        }
      ],
      "name": "proposalCreatedAt",
      "outputs": [
        {
          "name": "",
          "type": "uint256"
        }
      ],
      "payable": false,
      "stateMutability": "view",
      "type": "function"
    },
    {
      "constant": true,
      "inputs": [
        {
          "name": "_proposalId",
          "type": "uint256"
        },
        {
          "name": "_holder",
          "type": "address"
        },
        {
          "name": "_proofId",
          "type": "uint256"
        }
      ],
      "name": "votesAvailableWithProof",
      "outputs": [
        {
          "name": "",
          "type": "uint256"
        }
      ],
      "payable": false,
      "stateMutability": "view",
      "type": "function"
    },
    {
      "constant": true,
      "inputs": [
        {
          "name": "_proposalId",
          "type": "uint256"
        }
      ],
      "name": "voteMinScore",
      "outputs": [
        {
          "name": "",
          "type": "uint256"
        }
      ],
      "payable": false,
      "stateMutability": "view",
      "type": "function"
    },
    {
      "constant": false,
      "inputs": [
        {
          "name": "_proposalId",
          "type": "uint256"
        }
      ],
      "name": "closeVote",
      "outputs": [],
      "payable": false,
      "stateMutability": "nonpayable",
      "type": "function"
    },
    {
      "constant": true,
      "inputs": [],
      "name": "defaultQuorum",
      "outputs": [
        {
          "name": "",
          "type": "uint256"
        }
      ],
      "payable": false,
      "stateMutability": "view",
      "type": "function"
    },
    {
      "constant": false,
      "inputs": [],
      "name": "renounceOwnership",
      "outputs": [],
      "payable": false,
      "stateMutability": "nonpayable",
      "type": "function"
    },
    {
      "constant": true,
      "inputs": [
        {
          "name": "_proposalId",
          "type": "uint256"
        }
      ],
      "name": "voteDuration",
      "outputs": [
        {
          "name": "",
          "type": "uint256"
        }
      ],
      "payable": false,
      "stateMutability": "view",
      "type": "function"
    },
    {
      "constant": true,
      "inputs": [
        {
          "name": "_proposalId",
          "type": "uint256"
        }
      ],
      "name": "proposalUrl",
      "outputs": [
        {
          "name": "",
          "type": "string"
        }
      ],
      "payable": false,
      "stateMutability": "view",
      "type": "function"
    },
    {
      "constant": false,
      "inputs": [
        {
          "name": "_token",
          "type": "address"
        }
      ],
      "name": "updateToken",
      "outputs": [],
      "payable": false,
      "stateMutability": "nonpayable",
      "type": "function"
    },
    {
      "constant": true,
      "inputs": [
        {
          "name": "_proposalId",
          "type": "uint256"
        },
        {
          "name": "_holder",
          "type": "address"
        }
      ],
      "name": "votesAvailable",
      "outputs": [
        {
          "name": "",
          "type": "uint256"
        }
      ],
      "payable": false,
      "stateMutability": "view",
      "type": "function"
    },
    {
      "constant": true,
      "inputs": [
        {
          "name": "_proposalId",
          "type": "uint256"
        },
        {
          "name": "_participant",
          "type": "address"
        }
      ],
      "name": "optionVoted",
      "outputs": [
        {
          "name": "",
          "type": "uint8"
        }
      ],
      "payable": false,
      "stateMutability": "view",
      "type": "function"
    },
    {
      "constant": true,
      "inputs": [],
      "name": "defaultMinScore",
      "outputs": [
        {
          "name": "",
          "type": "uint256"
        }
      ],
      "payable": false,
      "stateMutability": "view",
      "type": "function"
    },
    {
      "constant": true,
      "inputs": [],
      "name": "owner",
      "outputs": [
        {
          "name": "",
          "type": "address"
        }
      ],
      "payable": false,
      "stateMutability": "view",
      "type": "function"
    },
    {
      "constant": false,
      "inputs": [
        {
          "name": "_proposalId",
          "type": "uint256"
        },
        {
          "name": "_option",
          "type": "uint8"
        },
        {
          "name": "_proofId",
          "type": "uint256"
        }
      ],
      "name": "voteWithProof",
      "outputs": [],
      "payable": false,
      "stateMutability": "nonpayable",
      "type": "function"
    },
    {
      "constant": false,
      "inputs": [
        {
          "name": "_question",
          "type": "string"
        },
        {
          "name": "_url",
          "type": "string"
        },
        {
          "name": "_hash",
          "type": "uint256"
        },
        {
          "name": "_optionsAvailable",
          "type": "uint8"
        }
      ],
      "name": "addProposal",
      "outputs": [],
      "payable": false,
      "stateMutability": "nonpayable",
      "type": "function"
    },
    {
      "constant": false,
      "inputs": [
        {
          "name": "_proposalId",
          "type": "uint256"
        },
        {
          "name": "_option",
          "type": "uint8"
        }
      ],
      "name": "vote",
      "outputs": [],
      "payable": false,
      "stateMutability": "nonpayable",
      "type": "function"
    },
    {
      "constant": true,
      "inputs": [
        {
          "name": "_proposalId",
          "type": "uint256"
        }
      ],
      "name": "proposalOptionsAvailable",
      "outputs": [
        {
          "name": "",
          "type": "uint8"
        }
      ],
      "payable": false,
      "stateMutability": "view",
      "type": "function"
    },
    {
      "constant": true,
      "inputs": [
        {
          "name": "_proposalId",
          "type": "uint256"
        }
      ],
      "name": "proposalQuestion",
      "outputs": [
        {
          "name": "",
          "type": "string"
        }
      ],
      "payable": false,
      "stateMutability": "view",
      "type": "function"
    },
    {
      "constant": true,
      "inputs": [
        {
          "name": "_proposalId",
          "type": "uint256"
        },
        {
          "name": "_participant",
          "type": "address"
        }
      ],
      "name": "isDeclared",
      "outputs": [
        {
          "name": "",
          "type": "bool"
        }
      ],
      "payable": false,
      "stateMutability": "view",
      "type": "function"
    },
    {
      "constant": true,
      "inputs": [
        {
          "name": "_proposalId",
          "type": "uint256"
        }
      ],
      "name": "ballot",
      "outputs": [
        {
          "name": "",
          "type": "uint256[]"
        }
      ],
      "payable": false,
      "stateMutability": "view",
      "type": "function"
    },
    {
      "constant": false,
      "inputs": [
        {
          "name": "_duration",
          "type": "uint256"
        },
        {
          "name": "_quorum",
          "type": "uint256"
        },
        {
          "name": "_minScore",
          "type": "uint256"
        }
      ],
      "name": "updateVotingRule",
      "outputs": [],
      "payable": false,
      "stateMutability": "nonpayable",
      "type": "function"
    },
    {
      "constant": false,
      "inputs": [
        {
          "name": "_newOwner",
          "type": "address"
        }
      ],
      "name": "transferOwnership",
      "outputs": [],
      "payable": false,
      "stateMutability": "nonpayable",
      "type": "function"
    },
    {
      "constant": true,
      "inputs": [],
      "name": "token",
      "outputs": [
        {
          "name": "",
          "type": "address"
        }
      ],
      "payable": false,
      "stateMutability": "view",
      "type": "function"
    },
    {
      "constant": true,
      "inputs": [
        {
          "name": "_proposalId",
          "type": "uint256"
        },
        {
          "name": "_participant",
          "type": "address"
        }
      ],
      "name": "isVoteLocked",
      "outputs": [
        {
          "name": "",
          "type": "bool"
        }
      ],
      "payable": false,
      "stateMutability": "view",
      "type": "function"
    },
    {
      "inputs": [
        {
          "name": "_token",
          "type": "address"
        }
      ],
      "payable": false,
      "stateMutability": "nonpayable",
      "type": "constructor"
    },
    {
      "anonymous": false,
      "inputs": [
        {
          "indexed": false,
          "name": "duration",
          "type": "uint256"
        },
        {
          "indexed": false,
          "name": "quorum",
          "type": "uint256"
        },
        {
          "indexed": false,
          "name": "minScore",
          "type": "uint256"
        }
      ],
      "name": "VotingRuleUpdated",
      "type": "event"
    },
    {
      "anonymous": false,
      "inputs": [
        {
          "indexed": false,
          "name": "proposalId",
          "type": "uint256"
        }
      ],
      "name": "VoteClosed",
      "type": "event"
    },
    {
      "anonymous": false,
      "inputs": [
        {
          "indexed": false,
          "name": "proposalId",
          "type": "uint256"
        }
      ],
      "name": "ProposalAdded",
      "type": "event"
    },
    {
      "anonymous": false,
      "inputs": [
        {
          "indexed": true,
          "name": "previousOwner",
          "type": "address"
        }
      ],
      "name": "OwnershipRenounced",
      "type": "event"
    },
    {
      "anonymous": false,
      "inputs": [
        {
          "indexed": true,
          "name": "previousOwner",
          "type": "address"
        },
        {
          "indexed": true,
          "name": "newOwner",
          "type": "address"
        }
      ],
      "name": "OwnershipTransferred",
      "type": "event"
    },
    {
      "constant": true,
      "inputs": [
        {
          "name": "_address",
          "type": "address"
        },
        {
          "name": "_at",
          "type": "uint256"
        }
      ],
      "name": "hasClaimsSince",
      "outputs": [
        {
          "name": "",
          "type": "bool"
        }
      ],
      "payable": false,
      "stateMutability": "view",
      "type": "function"
    }
  ],
  "bytecode": "0x6080604052621275006003556000600455600060055534801561002157600080fd5b5060405160208061285d8339810180604052810190808051906020019092919050505080336000806101000a81548173ffffffffffffffffffffffffffffffffffffffff021916908373ffffffffffffffffffffffffffffffffffffffff16021790555080600860006101000a81548173ffffffffffffffffffffffffffffffffffffffff021916908373ffffffffffffffffffffffffffffffffffffffff1602179055505050612786806100d76000396000f3006080604052600436106101b7576000357c0100000000000000000000000000000000000000000000000000000000900463ffffffff1680630a9f46ad146101bc5780630b5e5094146101e757806317cac3fb1461022c578063187334951461025b5780632af7e2ea146102955780632d19f9a6146102c05780633c594059146102eb5780634f080f251461032c578063508f93551461036d57806357044c0a146103ae5780635f9103b2146103ef5780636063d4d614610430578063671ddabd1461049b5780636e48a035146104dc57806370af96fb14610509578063715018a614610534578063768c35a11461054b5780637916b8821461058c5780637ad3def2146106325780637c7a7bfa146106755780637dfe69f5146106d6578063826e56c21461073d5780638da5cb5b146107685780638f8e632f146107bf57806392a546f014610803578063943e8216146108c9578063a4e0d4e414610903578063b4706d421461094a578063c656d3cb146109f0578063e794273414610a55578063edb9f0c314610ad7578063f2fde38b14610b18578063f63ae8f314610b5b578063fc0c546a14610bc0578063ffc5027014610c17575b600080fd5b3480156101c857600080fd5b506101d1610c7c565b6040518082815260200191505060405180910390f35b3480156101f357600080fd5b5061021260048036038101908080359060200190929190505050610c86565b604051808215151515815260200191505060405180910390f35b34801561023857600080fd5b50610241610cd7565b604051808215151515815260200191505060405180910390f35b34801561026757600080fd5b5061029360048036038101908080359060200190929190803560ff169060200190929190505050610cea565b005b3480156102a157600080fd5b506102aa610d66565b6040518082815260200191505060405180910390f35b3480156102cc57600080fd5b506102d5610d70565b6040518082815260200191505060405180910390f35b3480156102f757600080fd5b5061031660048036038101908080359060200190929190505050610d7a565b6040518082815260200191505060405180910390f35b34801561033857600080fd5b5061035760048036038101908080359060200190929190505050610efb565b6040518082815260200191505060405180910390f35b34801561037957600080fd5b5061039860048036038101908080359060200190929190505050610f1b565b6040518082815260200191505060405180910390f35b3480156103ba57600080fd5b506103d960048036038101908080359060200190929190505050610f3b565b6040518082815260200191505060405180910390f35b3480156103fb57600080fd5b5061041a60048036038101908080359060200190929190505050610f5b565b6040518082815260200191505060405180910390f35b34801561043c57600080fd5b5061048560048036038101908080359060200190929190803573ffffffffffffffffffffffffffffffffffffffff16906020019092919080359060200190929190505050610f7b565b6040518082815260200191505060405180910390f35b3480156104a757600080fd5b506104c6600480360381019080803590602001909291905050506110a4565b6040518082815260200191505060405180910390f35b3480156104e857600080fd5b50610507600480360381019080803590602001909291905050506110c4565b005b34801561051557600080fd5b5061051e611216565b6040518082815260200191505060405180910390f35b34801561054057600080fd5b50610549611220565b005b34801561055757600080fd5b5061057660048036038101908080359060200190929190505050611322565b6040518082815260200191505060405180910390f35b34801561059857600080fd5b506105b760048036038101908080359060200190929190505050611342565b6040518080602001828103825283818151815260200191508051906020019080838360005b838110156105f75780820151818401526020810190506105dc565b50505050905090810190601f1680156106245780820380516001836020036101000a031916815260200191505b509250505060405180910390f35b34801561063e57600080fd5b50610673600480360381019080803573ffffffffffffffffffffffffffffffffffffffff1690602001909291905050506113fa565b005b34801561068157600080fd5b506106c060048036038101908080359060200190929190803573ffffffffffffffffffffffffffffffffffffffff169060200190929190505050611499565b6040518082815260200191505060405180910390f35b3480156106e257600080fd5b5061072160048036038101908080359060200190929190803573ffffffffffffffffffffffffffffffffffffffff1690602001909291905050506116ba565b604051808260ff1660ff16815260200191505060405180910390f35b34801561074957600080fd5b50610752611728565b6040518082815260200191505060405180910390f35b34801561077457600080fd5b5061077d611732565b604051808273ffffffffffffffffffffffffffffffffffffffff1673ffffffffffffffffffffffffffffffffffffffff16815260200191505060405180910390f35b3480156107cb57600080fd5b5061080160048036038101908080359060200190929190803560ff16906020019092919080359060200190929190505050611757565b005b34801561080f57600080fd5b506108c7600480360381019080803590602001908201803590602001908080601f0160208091040260200160405190810160405280939291908181526020018383808284378201915050505050509192919290803590602001908201803590602001908080601f016020809104026020016040519081016040528093929190818152602001838380828437820191505050505050919291929080359060200190929190803560ff16906020019092919050505061186d565b005b3480156108d557600080fd5b5061090160048036038101908080359060200190929190803560ff16906020019092919050505061197c565b005b34801561090f57600080fd5b5061092e60048036038101908080359060200190929190505050611a90565b604051808260ff1660ff16815260200191505060405180910390f35b34801561095657600080fd5b5061097560048036038101908080359060200190929190505050611ab5565b6040518080602001828103825283818151815260200191508051906020019080838360005b838110156109b557808201518184015260208101905061099a565b50505050905090810190601f1680156109e25780820380516001836020036101000a031916815260200191505b509250505060405180910390f35b3480156109fc57600080fd5b50610a3b60048036038101908080359060200190929190803573ffffffffffffffffffffffffffffffffffffffff169060200190929190505050611b6d565b604051808215151515815260200191505060405180910390f35b348015610a6157600080fd5b50610a8060048036038101908080359060200190929190505050611bdb565b6040518080602001828103825283818151815260200191508051906020019060200280838360005b83811015610ac3578082015181840152602081019050610aa8565b505050509050019250505060405180910390f35b348015610ae357600080fd5b50610b16600480360381019080803590602001909291908035906020019092919080359060200190929190505050611c49565b005b348015610b2457600080fd5b50610b59600480360381019080803573ffffffffffffffffffffffffffffffffffffffff169060200190929190505050611d05565b005b348015610b6757600080fd5b50610ba6600480360381019080803573ffffffffffffffffffffffffffffffffffffffff16906020019092919080359060200190929190505050611d6c565b604051808215151515815260200191505060405180910390f35b348015610bcc57600080fd5b50610bd5611d94565b604051808273ffffffffffffffffffffffffffffffffffffffff1673ffffffffffffffffffffffffffffffffffffffff16815260200191505060405180910390f35b348015610c2357600080fd5b50610c6260048036038101908080359060200190929190803573ffffffffffffffffffffffffffffffffffffffff169060200190929190505050611dbe565b604051808215151515815260200191505060405180910390f35b6000600254905090565b6000610cc760066000848152602001908152602001600020600001546001600085815260200190815260200160002060040154611e2c90919063ffffffff16565b610ccf611e48565b109050919050565b6000600754610ce4611e48565b10905090565b610cf4828261197c565b600180600084815260200190815260200160002060060160003373ffffffffffffffffffffffffffffffffffffffff1673ffffffffffffffffffffffffffffffffffffffff16815260200190815260200160002060000160026101000a81548160ff0219169083151502179055505050565b6000600354905090565b6000600754905090565b600080600080600080610d8c87610c86565b151515610e01576040517f08c379a00000000000000000000000000000000000000000000000000000000081526004018080602001828103825260038152602001807f453031000000000000000000000000000000000000000000000000000000000081525060200191505060405180910390fd5b6001600088815260200190815260200160002094506006600088815260200190815260200160002093508360010154610e63866005016000815481101515610e4557fe5b90600052602060002001548760030154611e5090919063ffffffff16565b1015610e725760009550610ef1565b600190505b8460050180549050811015610ed857828560050182815481101515610e9857fe5b90600052602060002001541115610ecb578091508460050181815481101515610ebd57fe5b906000526020600020015492505b8080600101915050610e77565b8360020154831015610eed5760009550610ef1565b8195505b5050505050919050565b600060066000838152602001908152602001600020600101549050919050565b600060016000838152602001908152602001600020600301549050919050565b600060016000838152602001908152602001600020600201549050919050565b600060016000838152602001908152602001600020600401549050919050565b6000600860009054906101000a900473ffffffffffffffffffffffffffffffffffffffff1673ffffffffffffffffffffffffffffffffffffffff1663a7341e75848460016000898152602001908152602001600020600401546040518463ffffffff167c0100000000000000000000000000000000000000000000000000000000028152600401808473ffffffffffffffffffffffffffffffffffffffff1673ffffffffffffffffffffffffffffffffffffffff1681526020018381526020018281526020019350505050602060405180830381600087803b15801561106057600080fd5b505af1158015611074573d6000803e3d6000fd5b505050506040513d602081101561108a57600080fd5b810190808051906020019092919050505090509392505050565b600060066000838152602001908152602001600020600201549050919050565b60008060009054906101000a900473ffffffffffffffffffffffffffffffffffffffff1673ffffffffffffffffffffffffffffffffffffffff163373ffffffffffffffffffffffffffffffffffffffff1614151561112157600080fd5b61112a82610c86565b151561119e576040517f08c379a00000000000000000000000000000000000000000000000000000000081526004018080602001828103825260038152602001807f453032000000000000000000000000000000000000000000000000000000000081525060200191505060405180910390fd5b60016000838152602001908152602001600020600401546111bd611e48565b0390508060066000848152602001908152602001600020600001819055507fbc12589e76c0d59fd5a7c6f642c154830f0b46718b5ac07d1a0bdf29e124cbd8826040518082815260200191505060405180910390a15050565b6000600454905090565b6000809054906101000a900473ffffffffffffffffffffffffffffffffffffffff1673ffffffffffffffffffffffffffffffffffffffff163373ffffffffffffffffffffffffffffffffffffffff1614151561127b57600080fd5b6000809054906101000a900473ffffffffffffffffffffffffffffffffffffffff1673ffffffffffffffffffffffffffffffffffffffff167ff8df31144d9c2f0f6b59d69b8b98abd5459d07f2742c4df920b25aae33c6482060405160405180910390a260008060006101000a81548173ffffffffffffffffffffffffffffffffffffffff021916908373ffffffffffffffffffffffffffffffffffffffff160217905550565b600060066000838152602001908152602001600020600001549050919050565b6060600160008381526020019081526020016000206001018054600181600116156101000203166002900480601f0160208091040260200160405190810160405280929190818152602001828054600181600116156101000203166002900480156113ee5780601f106113c3576101008083540402835291602001916113ee565b820191906000526020600020905b8154815290600101906020018083116113d157829003601f168201915b50505050509050919050565b6000809054906101000a900473ffffffffffffffffffffffffffffffffffffffff1673ffffffffffffffffffffffffffffffffffffffff163373ffffffffffffffffffffffffffffffffffffffff1614151561145557600080fd5b80600860006101000a81548173ffffffffffffffffffffffffffffffffffffffff021916908373ffffffffffffffffffffffffffffffffffffffff16021790555050565b60006001600084815260200190815260200160002060040154600860009054906101000a900473ffffffffffffffffffffffffffffffffffffffff1673ffffffffffffffffffffffffffffffffffffffff166318ec53b2846040518263ffffffff167c0100000000000000000000000000000000000000000000000000000000028152600401808273ffffffffffffffffffffffffffffffffffffffff1673ffffffffffffffffffffffffffffffffffffffff168152602001915050602060405180830381600087803b15801561156f57600080fd5b505af1158015611583573d6000803e3d6000fd5b505050506040513d602081101561159957600080fd5b810190808051906020019092919050505010156116af57600860009054906101000a900473ffffffffffffffffffffffffffffffffffffffff1673ffffffffffffffffffffffffffffffffffffffff166370a08231836040518263ffffffff167c0100000000000000000000000000000000000000000000000000000000028152600401808273ffffffffffffffffffffffffffffffffffffffff1673ffffffffffffffffffffffffffffffffffffffff168152602001915050602060405180830381600087803b15801561166d57600080fd5b505af1158015611681573d6000803e3d6000fd5b505050506040513d602081101561169757600080fd5b810190808051906020019092919050505090506116b4565b600090505b92915050565b60006001600084815260200190815260200160002060060160008373ffffffffffffffffffffffffffffffffffffffff1673ffffffffffffffffffffffffffffffffffffffff16815260200190815260200160002060000160009054906101000a900460ff16905092915050565b6000600554905090565b6000809054906101000a900473ffffffffffffffffffffffffffffffffffffffff1681565b600061176284610c86565b15156117d6576040517f08c379a00000000000000000000000000000000000000000000000000000000081526004018080602001828103825260038152602001807f453031000000000000000000000000000000000000000000000000000000000081525060200191505060405180910390fd5b6117e1843384610f7b565b90506000811415151561185c576040517f08c379a00000000000000000000000000000000000000000000000000000000081526004018080602001828103825260038152602001807f453032000000000000000000000000000000000000000000000000000000000081525060200191505060405180910390fd5b611867848483611e69565b50505050565b60008060009054906101000a900473ffffffffffffffffffffffffffffffffffffffff1673ffffffffffffffffffffffffffffffffffffffff163373ffffffffffffffffffffffffffffffffffffffff161415156118ca57600080fd5b6118d685858585612264565b6060604051908101604052806003548152602001600454815260200160055481525060066000600160025403815260200190815260200160002060008201518160000155602082015181600101556040820151816002015590505061196160035460016000600160025403815260200190815260200160002060040154611e2c90919063ffffffff16565b905060075481111561197557806007819055505b5050505050565b600061198783610c86565b15156119fb576040517f08c379a00000000000000000000000000000000000000000000000000000000081526004018080602001828103825260038152602001807f453031000000000000000000000000000000000000000000000000000000000081525060200191505060405180910390fd5b611a058333611499565b905060008114151515611a80576040517f08c379a00000000000000000000000000000000000000000000000000000000081526004018080602001828103825260038152602001807f453032000000000000000000000000000000000000000000000000000000000081525060200191505060405180910390fd5b611a8b838383611e69565b505050565b6000600180600084815260200190815260200160002060050180549050039050919050565b6060600160008381526020019081526020016000206000018054600181600116156101000203166002900480601f016020809104026020016040519081016040528092919081815260200182805460018160011615610100020316600290048015611b615780601f10611b3657610100808354040283529160200191611b61565b820191906000526020600020905b815481529060010190602001808311611b4457829003601f168201915b50505050509050919050565b60006001600084815260200190815260200160002060060160008373ffffffffffffffffffffffffffffffffffffffff1673ffffffffffffffffffffffffffffffffffffffff16815260200190815260200160002060000160019054906101000a900460ff16905092915050565b606060016000838152602001908152602001600020600501805480602002602001604051908101604052809291908181526020018280548015611c3d57602002820191906000526020600020905b815481526020019060010190808311611c29575b50505050509050919050565b6000809054906101000a900473ffffffffffffffffffffffffffffffffffffffff1673ffffffffffffffffffffffffffffffffffffffff163373ffffffffffffffffffffffffffffffffffffffff16141515611ca457600080fd5b8260038190555081600481905550806005819055507f6a66e31456dd9cd88d5884033ee7f19b9e2d1928de00674350b5943dd823d7f883838360405180848152602001838152602001828152602001935050505060405180910390a1505050565b6000809054906101000a900473ffffffffffffffffffffffffffffffffffffffff1673ffffffffffffffffffffffffffffffffffffffff163373ffffffffffffffffffffffffffffffffffffffff16141515611d6057600080fd5b611d698161256e565b50565b6000600160006001600254038152602001908152602001600020600401548210905092915050565b6000600860009054906101000a900473ffffffffffffffffffffffffffffffffffffffff16905090565b60006001600084815260200190815260200160002060060160008373ffffffffffffffffffffffffffffffffffffffff1673ffffffffffffffffffffffffffffffffffffffff16815260200190815260200160002060000160029054906101000a900460ff16905092915050565b60008183019050828110151515611e3f57fe5b80905092915050565b600042905090565b6000828211151515611e5e57fe5b818303905092915050565b6000806001600086815260200190815260200160002091508160060160003373ffffffffffffffffffffffffffffffffffffffff1673ffffffffffffffffffffffffffffffffffffffff168152602001908152602001600020905060016000868152602001908152602001600020600501805490508460ff16101515611f57576040517f08c379a00000000000000000000000000000000000000000000000000000000081526004018080602001828103825260038152602001807f453034000000000000000000000000000000000000000000000000000000000081525060200191505060405180910390fd5b60025485101515611fd0576040517f08c379a00000000000000000000000000000000000000000000000000000000081526004018080602001828103825260038152602001807f453035000000000000000000000000000000000000000000000000000000000081525060200191505060405180910390fd5b8360ff168160000160009054906101000a900460ff1660ff161415151561205f576040517f08c379a00000000000000000000000000000000000000000000000000000000081526004018080602001828103825260038152602001807f453036000000000000000000000000000000000000000000000000000000000081525060200191505060405180910390fd5b8160060160003373ffffffffffffffffffffffffffffffffffffffff1673ffffffffffffffffffffffffffffffffffffffff16815260200190815260200160002060000160019054906101000a900460ff1615612130576120f883836005018360000160009054906101000a900460ff1660ff168154811015156120df57fe5b9060005260206000200154611e5090919063ffffffff16565b826005018260000160009054906101000a900460ff1660ff1681548110151561211d57fe5b90600052602060002001819055506121ad565b612147838360030154611e2c90919063ffffffff16565b826003018190555060018260060160003373ffffffffffffffffffffffffffffffffffffffff1673ffffffffffffffffffffffffffffffffffffffff16815260200190815260200160002060000160016101000a81548160ff0219169083151502179055505b6121de83836005018660ff168154811015156121c557fe5b9060005260206000200154611e2c90919063ffffffff16565b826005018560ff168154811015156121f257fe5b9060005260206000200181905550838260060160003373ffffffffffffffffffffffffffffffffffffffff1673ffffffffffffffffffffffffffffffffffffffff16815260200190815260200160002060000160006101000a81548160ff021916908360ff1602179055505050505050565b6000809054906101000a900473ffffffffffffffffffffffffffffffffffffffff1673ffffffffffffffffffffffffffffffffffffffff163373ffffffffffffffffffffffffffffffffffffffff161415156122bf57600080fd5b60008451111515612338576040517f08c379a00000000000000000000000000000000000000000000000000000000081526004018080602001828103825260038152602001807f453031000000000000000000000000000000000000000000000000000000000081525060200191505060405180910390fd5b600083511115156123b1576040517f08c379a00000000000000000000000000000000000000000000000000000000081526004018080602001828103825260038152602001807f453032000000000000000000000000000000000000000000000000000000000081525060200191505060405180910390fd5b600082111515612429576040517f08c379a00000000000000000000000000000000000000000000000000000000081526004018080602001828103825260038152602001807f453033000000000000000000000000000000000000000000000000000000000081525060200191505060405180910390fd5b60c060405190810160405280858152602001848152602001838152602001600081526020014281526020016001830160ff166040519080825280602002602001820160405280156124895781602001602082028038833980820191505090505b5081525060016000600254815260200190815260200160002060008201518160000190805190602001906124be929190612668565b5060208201518160010190805190602001906124db929190612668565b5060408201518160020155606082015181600301556080820151816004015560a08201518160050190805190602001906125169291906126e8565b509050506002600081548092919060010191905055507f3f802220982dbddc337f1811180e73513e775b18380401997927fd1454cfd0bd6001600254036040518082815260200191505060405180910390a150505050565b600073ffffffffffffffffffffffffffffffffffffffff168173ffffffffffffffffffffffffffffffffffffffff16141515156125aa57600080fd5b8073ffffffffffffffffffffffffffffffffffffffff166000809054906101000a900473ffffffffffffffffffffffffffffffffffffffff1673ffffffffffffffffffffffffffffffffffffffff167f8be0079c531659141344cd1fd0a4f28419497f9722a3daafe3b4186f6b6457e060405160405180910390a3806000806101000a81548173ffffffffffffffffffffffffffffffffffffffff021916908373ffffffffffffffffffffffffffffffffffffffff16021790555050565b828054600181600116156101000203166002900490600052602060002090601f016020900481019282601f106126a957805160ff19168380011785556126d7565b828001600101855582156126d7579182015b828111156126d65782518255916020019190600101906126bb565b5b5090506126e49190612735565b5090565b828054828255906000526020600020908101928215612724579160200282015b82811115612723578251825591602001919060010190612708565b5b5090506127319190612735565b5090565b61275791905b8082111561275357600081600090555060010161273b565b5090565b905600a165627a7a723058202f287523d0c90799d0a34b99fef9d821db6f8e46d664de5c384e6a130c4fb26e0029",
  "source": "pragma solidity ^0.4.24;\n\nimport \"../interface/IClaimable.sol\";\nimport \"../voting/TokenizedVoting.sol\";\n\n\n/**\n * @title TokenizedVotingClaimable\n * @dev TokenizedVotingClaimable contract\n *\n * @author Cyril Lapinte - <cyril.lapinte@mtpelerin.com>\n */\ncontract TokenizedVotingClaimable is IClaimable, TokenizedVoting {\n\n  /**\n   * @dev constructor\n   */\n  constructor(ProvableOwnershipToken _token)\n  TokenizedVoting(_token) public { }\n\n  /**\n   * @dev implements has claims\n   *\n   * Returns true if there was at least a vote created after that date\n   */\n  function hasClaimsSince(address _address, uint256 _at)\n    public view returns (bool)\n  {\n    _address;\n    return _at < proposals[proposalsCount-1].createdAt;\n  }\n}\n",
  "sourcePath": "/home/node/project/contracts/claimable/TokenizedVotingClaimable.sol",
  "compiler": {
    "name": "solc",
    "version": "0.4.24+commit.e67f0147.Emscripten.clang"
  },
  "schemaVersion": "2.0.1",
  "updatedAt": "2018-08-15T14:19:55.870Z"
}