{
  "contractName": "UserKycRule",
  "abi": [
    {
      "inputs": [
        {
          "name": "_userRegistry",
          "type": "address"
        }
      ],
      "payable": false,
      "stateMutability": "nonpayable",
      "type": "constructor"
    },
    {
      "constant": true,
      "inputs": [],
      "name": "userRegistry",
      "outputs": [
        {
          "name": "",
          "type": "address"
        }
      ],
      "payable": false,
      "stateMutability": "view",
      "type": "function"
    },
    {
      "constant": true,
      "inputs": [
        {
          "name": "_address",
          "type": "address"
        }
      ],
      "name": "isAddressValid",
      "outputs": [
        {
          "name": "",
          "type": "bool"
        }
      ],
      "payable": false,
      "stateMutability": "view",
      "type": "function"
    },
    {
      "constant": true,
      "inputs": [
        {
          "name": "_from",
          "type": "address"
        },
        {
          "name": "_to",
          "type": "address"
        },
        {
          "name": "",
          "type": "uint256"
        }
      ],
      "name": "isTransferValid",
      "outputs": [
        {
          "name": "",
          "type": "bool"
        }
      ],
      "payable": false,
      "stateMutability": "view",
      "type": "function"
    }
  ],
  "bytecode": "0x608060405234801561001057600080fd5b5060405160208061056c83398101806040528101908080519060200190929190505050806000806101000a81548173ffffffffffffffffffffffffffffffffffffffff021916908373ffffffffffffffffffffffffffffffffffffffff160217905550506104e9806100836000396000f300608060405260043610610057576000357c0100000000000000000000000000000000000000000000000000000000900463ffffffff16806340ecb7f21461005c5780635c7460d6146100e1578063cf31ff8614610138575b600080fd5b34801561006857600080fd5b506100c7600480360381019080803573ffffffffffffffffffffffffffffffffffffffff169060200190929190803573ffffffffffffffffffffffffffffffffffffffff16906020019092919080359060200190929190505050610193565b604051808215151515815260200191505060405180910390f35b3480156100ed57600080fd5b506100f6610394565b604051808273ffffffffffffffffffffffffffffffffffffffff1673ffffffffffffffffffffffffffffffffffffffff16815260200191505060405180910390f35b34801561014457600080fd5b50610179600480360381019080803573ffffffffffffffffffffffffffffffffffffffff1690602001909291905050506103bd565b604051808215151515815260200191505060405180910390f35b60008060009054906101000a900473ffffffffffffffffffffffffffffffffffffffff1673ffffffffffffffffffffffffffffffffffffffff1663cf31ff86856040518263ffffffff167c0100000000000000000000000000000000000000000000000000000000028152600401808273ffffffffffffffffffffffffffffffffffffffff1673ffffffffffffffffffffffffffffffffffffffff168152602001915050602060405180830381600087803b15801561025157600080fd5b505af1158015610265573d6000803e3d6000fd5b505050506040513d602081101561027b57600080fd5b8101908080519060200190929190505050801561038b57506000809054906101000a900473ffffffffffffffffffffffffffffffffffffffff1673ffffffffffffffffffffffffffffffffffffffff1663cf31ff86846040518263ffffffff167c0100000000000000000000000000000000000000000000000000000000028152600401808273ffffffffffffffffffffffffffffffffffffffff1673ffffffffffffffffffffffffffffffffffffffff168152602001915050602060405180830381600087803b15801561034f57600080fd5b505af1158015610363573d6000803e3d6000fd5b505050506040513d602081101561037957600080fd5b81019080805190602001909291905050505b90509392505050565b60008060009054906101000a900473ffffffffffffffffffffffffffffffffffffffff16905090565b60008060009054906101000a900473ffffffffffffffffffffffffffffffffffffffff1673ffffffffffffffffffffffffffffffffffffffff1663cf31ff86836040518263ffffffff167c0100000000000000000000000000000000000000000000000000000000028152600401808273ffffffffffffffffffffffffffffffffffffffff1673ffffffffffffffffffffffffffffffffffffffff168152602001915050602060405180830381600087803b15801561047b57600080fd5b505af115801561048f573d6000803e3d6000fd5b505050506040513d60208110156104a557600080fd5b810190808051906020019092919050505090509190505600a165627a7a72305820f87617cb0b90622479f5d09ff9175f6b367e85dacade2871f948c9e8700bbafd0029",
  "source": "pragma solidity ^0.4.24;\n\nimport \"../zeppelin/ownership/Ownable.sol\";\nimport \"../interface/IRule.sol\";\nimport \"../interface/IUserRegistry.sol\";\n\n\n/**\n * @title UserKycRule\n * @dev UserKycRule contract\n * @author Cyril Lapinte - <cyril.lapinte@mtpelerin.com>\n *\n *  UserRegistry with the implementation of IRule\n *\n * Error messages\n * E01: The owner of the address is not identified\n */\ncontract UserKycRule is IRule {\n\n  IUserRegistry public userRegistry;\n\n  /**\n   * @dev constructor\n   **/\n  constructor(IUserRegistry _userRegistry) public {\n    userRegistry = _userRegistry;\n  }\n\n  function userRegistry() public view returns (IUserRegistry) {\n    return userRegistry;\n  }\n\n  /**\n   * @dev Modifier requiring to make a function callable\n   * onlywhen the user KYC is valid\n   */\n  modifier whenKYCisValid(address _address) {\n    require(userRegistry.isAddressValid(_address), \"E01\");\n    _;\n  }\n\n  /**\n   * @dev validates an address\n   */\n  function isAddressValid(address _address) public view returns (bool) {\n    return userRegistry.isAddressValid(_address);\n  }\n\n   /**\n   * @dev validates a transfer of ownership\n   */\n  function isTransferValid(address _from, address _to, uint256 /* _amount */)\n    public view returns (bool)\n  {\n    return userRegistry.isAddressValid(_from) &&\n      userRegistry.isAddressValid(_to);\n  }\n}\n",
  "sourcePath": "/home/node/project/contracts/rule/UserKycRule.sol",
  "compiler": {
    "name": "solc",
    "version": "0.4.24+commit.e67f0147.Emscripten.clang"
  },
  "schemaVersion": "2.0.1",
  "updatedAt": "2018-08-15T14:19:55.929Z"
}