{
  "contractName": "UserRegistry",
  "abi": [
    {
      "constant": false,
      "inputs": [],
      "name": "renounceOwnership",
      "outputs": [],
      "payable": false,
      "stateMutability": "nonpayable",
      "type": "function"
    },
    {
      "constant": true,
      "inputs": [],
      "name": "owner",
      "outputs": [
        {
          "name": "",
          "type": "address"
        }
      ],
      "payable": false,
      "stateMutability": "view",
      "type": "function"
    },
    {
      "constant": false,
      "inputs": [
        {
          "name": "_newOwner",
          "type": "address"
        }
      ],
      "name": "transferOwnership",
      "outputs": [],
      "payable": false,
      "stateMutability": "nonpayable",
      "type": "function"
    },
    {
      "inputs": [
        {
          "name": "_addresses",
          "type": "address[]"
        },
        {
          "name": "_validUntilTime",
          "type": "uint256"
        }
      ],
      "payable": false,
      "stateMutability": "nonpayable",
      "type": "constructor"
    },
    {
      "anonymous": false,
      "inputs": [
        {
          "indexed": true,
          "name": "previousOwner",
          "type": "address"
        }
      ],
      "name": "OwnershipRenounced",
      "type": "event"
    },
    {
      "anonymous": false,
      "inputs": [
        {
          "indexed": true,
          "name": "previousOwner",
          "type": "address"
        },
        {
          "indexed": true,
          "name": "newOwner",
          "type": "address"
        }
      ],
      "name": "OwnershipTransferred",
      "type": "event"
    },
    {
      "constant": false,
      "inputs": [
        {
          "name": "_addresses",
          "type": "address[]"
        },
        {
          "name": "_validUntilTime",
          "type": "uint256"
        }
      ],
      "name": "registerManyUsers",
      "outputs": [],
      "payable": false,
      "stateMutability": "nonpayable",
      "type": "function"
    },
    {
      "constant": false,
      "inputs": [
        {
          "name": "_userIds",
          "type": "uint256[]"
        },
        {
          "name": "_addresses",
          "type": "address[]"
        }
      ],
      "name": "attachManyAddresses",
      "outputs": [],
      "payable": false,
      "stateMutability": "nonpayable",
      "type": "function"
    },
    {
      "constant": false,
      "inputs": [
        {
          "name": "_addresses",
          "type": "address[]"
        }
      ],
      "name": "detachManyAddresses",
      "outputs": [],
      "payable": false,
      "stateMutability": "nonpayable",
      "type": "function"
    },
    {
      "constant": true,
      "inputs": [],
      "name": "userCount",
      "outputs": [
        {
          "name": "",
          "type": "uint256"
        }
      ],
      "payable": false,
      "stateMutability": "view",
      "type": "function"
    },
    {
      "constant": true,
      "inputs": [
        {
          "name": "_address",
          "type": "address"
        }
      ],
      "name": "userId",
      "outputs": [
        {
          "name": "",
          "type": "uint256"
        }
      ],
      "payable": false,
      "stateMutability": "view",
      "type": "function"
    },
    {
      "constant": true,
      "inputs": [
        {
          "name": "_userId",
          "type": "uint256"
        }
      ],
      "name": "validUntilTime",
      "outputs": [
        {
          "name": "",
          "type": "uint256"
        }
      ],
      "payable": false,
      "stateMutability": "view",
      "type": "function"
    },
    {
      "constant": true,
      "inputs": [
        {
          "name": "_userId",
          "type": "uint256"
        }
      ],
      "name": "locked",
      "outputs": [
        {
          "name": "",
          "type": "bool"
        }
      ],
      "payable": false,
      "stateMutability": "view",
      "type": "function"
    },
    {
      "constant": true,
      "inputs": [
        {
          "name": "_userId",
          "type": "uint256"
        },
        {
          "name": "_key",
          "type": "uint256"
        }
      ],
      "name": "extended",
      "outputs": [
        {
          "name": "",
          "type": "uint256"
        }
      ],
      "payable": false,
      "stateMutability": "view",
      "type": "function"
    },
    {
      "constant": true,
      "inputs": [
        {
          "name": "_address",
          "type": "address"
        }
      ],
      "name": "isAddressValid",
      "outputs": [
        {
          "name": "",
          "type": "bool"
        }
      ],
      "payable": false,
      "stateMutability": "view",
      "type": "function"
    },
    {
      "constant": true,
      "inputs": [
        {
          "name": "_userId",
          "type": "uint256"
        }
      ],
      "name": "isValid",
      "outputs": [
        {
          "name": "",
          "type": "bool"
        }
      ],
      "payable": false,
      "stateMutability": "view",
      "type": "function"
    },
    {
      "constant": false,
      "inputs": [
        {
          "name": "_address",
          "type": "address"
        },
        {
          "name": "_validUntilTime",
          "type": "uint256"
        }
      ],
      "name": "registerUser",
      "outputs": [],
      "payable": false,
      "stateMutability": "nonpayable",
      "type": "function"
    },
    {
      "constant": false,
      "inputs": [
        {
          "name": "_userId",
          "type": "uint256"
        },
        {
          "name": "_address",
          "type": "address"
        }
      ],
      "name": "attachAddress",
      "outputs": [],
      "payable": false,
      "stateMutability": "nonpayable",
      "type": "function"
    },
    {
      "constant": false,
      "inputs": [
        {
          "name": "_address",
          "type": "address"
        }
      ],
      "name": "detachAddress",
      "outputs": [],
      "payable": false,
      "stateMutability": "nonpayable",
      "type": "function"
    },
    {
      "constant": false,
      "inputs": [
        {
          "name": "_userId",
          "type": "uint256"
        }
      ],
      "name": "lockUser",
      "outputs": [],
      "payable": false,
      "stateMutability": "nonpayable",
      "type": "function"
    },
    {
      "constant": false,
      "inputs": [
        {
          "name": "_userId",
          "type": "uint256"
        }
      ],
      "name": "unlockUser",
      "outputs": [],
      "payable": false,
      "stateMutability": "nonpayable",
      "type": "function"
    },
    {
      "constant": false,
      "inputs": [
        {
          "name": "_userIds",
          "type": "uint256[]"
        }
      ],
      "name": "lockManyUsers",
      "outputs": [],
      "payable": false,
      "stateMutability": "nonpayable",
      "type": "function"
    },
    {
      "constant": false,
      "inputs": [
        {
          "name": "_userIds",
          "type": "uint256[]"
        }
      ],
      "name": "unlockManyUsers",
      "outputs": [],
      "payable": false,
      "stateMutability": "nonpayable",
      "type": "function"
    },
    {
      "constant": false,
      "inputs": [
        {
          "name": "_userId",
          "type": "uint256"
        },
        {
          "name": "_validUntilTime",
          "type": "uint256"
        },
        {
          "name": "_locked",
          "type": "bool"
        }
      ],
      "name": "updateUser",
      "outputs": [],
      "payable": false,
      "stateMutability": "nonpayable",
      "type": "function"
    },
    {
      "constant": false,
      "inputs": [
        {
          "name": "_userIds",
          "type": "uint256[]"
        },
        {
          "name": "_validUntilTime",
          "type": "uint256"
        },
        {
          "name": "_locked",
          "type": "bool"
        }
      ],
      "name": "updateManyUsers",
      "outputs": [],
      "payable": false,
      "stateMutability": "nonpayable",
      "type": "function"
    },
    {
      "constant": false,
      "inputs": [
        {
          "name": "_userId",
          "type": "uint256"
        },
        {
          "name": "_key",
          "type": "uint256"
        },
        {
          "name": "_value",
          "type": "uint256"
        }
      ],
      "name": "updateUserExtended",
      "outputs": [],
      "payable": false,
      "stateMutability": "nonpayable",
      "type": "function"
    },
    {
      "constant": false,
      "inputs": [
        {
          "name": "_userIds",
          "type": "uint256[]"
        },
        {
          "name": "_key",
          "type": "uint256"
        },
        {
          "name": "_value",
          "type": "uint256"
        }
      ],
      "name": "updateManyUsersExtended",
      "outputs": [],
      "payable": false,
      "stateMutability": "nonpayable",
      "type": "function"
    }
  ],
  "bytecode": "0x60806040523480156200001157600080fd5b50604051620021023803806200210283398101806040528101908080518201929190602001805190602001909291905050506000336000806101000a81548173ffffffffffffffffffffffffffffffffffffffff021916908373ffffffffffffffffffffffffffffffffffffffff160217905550600090505b8251811015620000d557620000c78382815181101515620000a757fe5b9060200190602002015183620000de640100000000026401000000009004565b80806001019150506200008a565b505050620002a2565b6000809054906101000a900473ffffffffffffffffffffffffffffffffffffffff1673ffffffffffffffffffffffffffffffffffffffff163373ffffffffffffffffffffffffffffffffffffffff161415156200013a57600080fd5b6000600260008473ffffffffffffffffffffffffffffffffffffffff1673ffffffffffffffffffffffffffffffffffffffff16815260200190815260200160002054141515620001f2576040517f08c379a00000000000000000000000000000000000000000000000000000000081526004018080602001828103825260038152602001807f453033000000000000000000000000000000000000000000000000000000000081525060200191505060405180910390fd5b6040805190810160405280828152602001600015158152506001600060036000815460010191905081905581526020019081526020016000206000820151816000015560208201518160010160006101000a81548160ff021916908315150217905550905050600354600260008473ffffffffffffffffffffffffffffffffffffffff1673ffffffffffffffffffffffffffffffffffffffff168152602001908152602001600020819055505050565b611e5080620002b26000396000f30060806040526004361061013e576000357c0100000000000000000000000000000000000000000000000000000000900463ffffffff1680630446260814610143578063050e388f1461018457806307973ccf146101bf578063161b456b146101ea57806322a16d081461022b578063278d8a1e14610270578063322a3a54146102bd578063376fe1021461030057806360ff501314610357578063715018a61461038457806371d5ed7f1461039b5780638da5cb5b146103c85780639806dfab1461041f578063a319d2ab14610485578063a77c5265146104d8578063b45a3c0e14610523578063b9c777e614610568578063c250f1ea146105e4578063cf31ff8614610627578063d6f0cd0214610682578063e0a5c27f146106fc578063f2fde38b14610762578063f577a500146107a5578063fa0b5e55146107ea575b600080fd5b34801561014f57600080fd5b5061016e60048036038101908080359060200190929190505050610837565b6040518082815260200191505060405180910390f35b34801561019057600080fd5b506101bd6004803603810190808035906020019082018035906020019190919293919293905050506108dc565b005b3480156101cb57600080fd5b506101d461098e565b6040518082815260200191505060405180910390f35b3480156101f657600080fd5b50610229600480360381019080803590602001909291908035906020019092919080359060200190929190505050610998565b005b34801561023757600080fd5b5061026e60048036038101908080359060200190820180359060200191909192939192939080359060200190929190505050610aaa565b005b34801561027c57600080fd5b506102bb60048036038101908080359060200190929190803573ffffffffffffffffffffffffffffffffffffffff169060200190929190505050610b5e565b005b3480156102c957600080fd5b506102fe600480360381019080803573ffffffffffffffffffffffffffffffffffffffff169060200190929190505050610d3e565b005b34801561030c57600080fd5b50610341600480360381019080803573ffffffffffffffffffffffffffffffffffffffff169060200190929190505050610e97565b6040518082815260200191505060405180910390f35b34801561036357600080fd5b5061038260048036038101908080359060200190929190505050610ee0565b005b34801561039057600080fd5b5061039961108b565b005b3480156103a757600080fd5b506103c66004803603810190808035906020019092919050505061118d565b005b3480156103d457600080fd5b506103dd611338565b604051808273ffffffffffffffffffffffffffffffffffffffff1673ffffffffffffffffffffffffffffffffffffffff16815260200191505060405180910390f35b34801561042b57600080fd5b506104836004803603810190808035906020019082018035906020019080806020026020016040519081016040528093929190818152602001838360200280828437820191505050505050919291929050505061135d565b005b34801561049157600080fd5b506104d66004803603810190808035906020019082018035906020019190919293919293908035906020019082018035906020019190919293919293905050506113f9565b005b3480156104e457600080fd5b5061050d600480360381019080803590602001909291908035906020019092919050505061153f565b6040518082815260200191505060405180910390f35b34801561052f57600080fd5b5061054e600480360381019080803590602001909291905050506115f6565b604051808215151515815260200191505060405180910390f35b34801561057457600080fd5b506105e260048036038101908080359060200190820180359060200190808060200260200160405190810160405280939291908181526020018383602002808284378201915050505050509192919290803590602001909291908035151590602001909291905050506116a8565b005b3480156105f057600080fd5b506106256004803603810190808035906020019092919080359060200190929190803515159060200190929190505050611748565b005b34801561063357600080fd5b50610668600480360381019080803573ffffffffffffffffffffffffffffffffffffffff169060200190929190505050611877565b604051808215151515815260200191505060405180910390f35b34801561068e57600080fd5b506106fa6004803603810190808035906020019082018035906020019080806020026020016040519081016040528093929190818152602001838360200280828437820191505050505050919291929080359060200190929190803590602001909291905050506118c8565b005b34801561070857600080fd5b5061076060048036038101908080359060200190820180359060200190808060200260200160405190810160405280939291908181526020018383602002808284378201915050505050509192919290505050611968565b005b34801561076e57600080fd5b506107a3600480360381019080803573ffffffffffffffffffffffffffffffffffffffff169060200190929190505050611a04565b005b3480156107b157600080fd5b506107d060048036038101908080359060200190929190505050611a6b565b604051808215151515815260200191505060405180910390f35b3480156107f657600080fd5b50610835600480360381019080803573ffffffffffffffffffffffffffffffffffffffff16906020019092919080359060200190929190505050611b4a565b005b6000808211801561084a57506003548211155b15156108be576040517f08c379a00000000000000000000000000000000000000000000000000000000081526004018080602001828103825260038152602001807f453032000000000000000000000000000000000000000000000000000000000081525060200191505060405180910390fd5b60016000838152602001908152602001600020600001549050919050565b60008060009054906101000a900473ffffffffffffffffffffffffffffffffffffffff1673ffffffffffffffffffffffffffffffffffffffff163373ffffffffffffffffffffffffffffffffffffffff1614151561093957600080fd5b600090505b828290508110156109895761097c838383818110151561095a57fe5b9050602002013573ffffffffffffffffffffffffffffffffffffffff16610d3e565b808060010191505061093e565b505050565b6000600354905090565b6000809054906101000a900473ffffffffffffffffffffffffffffffffffffffff1673ffffffffffffffffffffffffffffffffffffffff163373ffffffffffffffffffffffffffffffffffffffff161415156109f357600080fd5b600083118015610a0557506003548311155b1515610a79576040517f08c379a00000000000000000000000000000000000000000000000000000000081526004018080602001828103825260038152602001807f453032000000000000000000000000000000000000000000000000000000000081525060200191505060405180910390fd5b8060016000858152602001908152602001600020600201600084815260200190815260200160002081905550505050565b60008060009054906101000a900473ffffffffffffffffffffffffffffffffffffffff1673ffffffffffffffffffffffffffffffffffffffff163373ffffffffffffffffffffffffffffffffffffffff16141515610b0757600080fd5b600090505b83839050811015610b5857610b4b8484838181101515610b2857fe5b9050602002013573ffffffffffffffffffffffffffffffffffffffff1683611b4a565b8080600101915050610b0c565b50505050565b6000809054906101000a900473ffffffffffffffffffffffffffffffffffffffff1673ffffffffffffffffffffffffffffffffffffffff163373ffffffffffffffffffffffffffffffffffffffff16141515610bb957600080fd5b600082118015610bcb57506003548211155b1515610c3f576040517f08c379a00000000000000000000000000000000000000000000000000000000081526004018080602001828103825260038152602001807f453032000000000000000000000000000000000000000000000000000000000081525060200191505060405180910390fd5b6000600260008373ffffffffffffffffffffffffffffffffffffffff1673ffffffffffffffffffffffffffffffffffffffff16815260200190815260200160002054141515610cf6576040517f08c379a00000000000000000000000000000000000000000000000000000000081526004018080602001828103825260038152602001807f453033000000000000000000000000000000000000000000000000000000000081525060200191505060405180910390fd5b81600260008373ffffffffffffffffffffffffffffffffffffffff1673ffffffffffffffffffffffffffffffffffffffff168152602001908152602001600020819055505050565b6000809054906101000a900473ffffffffffffffffffffffffffffffffffffffff1673ffffffffffffffffffffffffffffffffffffffff163373ffffffffffffffffffffffffffffffffffffffff16141515610d9957600080fd5b6000600260008373ffffffffffffffffffffffffffffffffffffffff1673ffffffffffffffffffffffffffffffffffffffff1681526020019081526020016000205414151515610e51576040517f08c379a00000000000000000000000000000000000000000000000000000000081526004018080602001828103825260038152602001807f453033000000000000000000000000000000000000000000000000000000000081525060200191505060405180910390fd5b600260008273ffffffffffffffffffffffffffffffffffffffff1673ffffffffffffffffffffffffffffffffffffffff1681526020019081526020016000206000905550565b6000600260008373ffffffffffffffffffffffffffffffffffffffff1673ffffffffffffffffffffffffffffffffffffffff168152602001908152602001600020549050919050565b6000809054906101000a900473ffffffffffffffffffffffffffffffffffffffff1673ffffffffffffffffffffffffffffffffffffffff163373ffffffffffffffffffffffffffffffffffffffff16141515610f3b57600080fd5b600081118015610f4d57506003548111155b1515610fc1576040517f08c379a00000000000000000000000000000000000000000000000000000000081526004018080602001828103825260038152602001807f453032000000000000000000000000000000000000000000000000000000000081525060200191505060405180910390fd5b6001600082815260200190815260200160002060010160009054906101000a900460ff1615151561105a576040517f08c379a00000000000000000000000000000000000000000000000000000000081526004018080602001828103825260038152602001807f453034000000000000000000000000000000000000000000000000000000000081525060200191505060405180910390fd5b600180600083815260200190815260200160002060010160006101000a81548160ff02191690831515021790555050565b6000809054906101000a900473ffffffffffffffffffffffffffffffffffffffff1673ffffffffffffffffffffffffffffffffffffffff163373ffffffffffffffffffffffffffffffffffffffff161415156110e657600080fd5b6000809054906101000a900473ffffffffffffffffffffffffffffffffffffffff1673ffffffffffffffffffffffffffffffffffffffff167ff8df31144d9c2f0f6b59d69b8b98abd5459d07f2742c4df920b25aae33c6482060405160405180910390a260008060006101000a81548173ffffffffffffffffffffffffffffffffffffffff021916908373ffffffffffffffffffffffffffffffffffffffff160217905550565b6000809054906101000a900473ffffffffffffffffffffffffffffffffffffffff1673ffffffffffffffffffffffffffffffffffffffff163373ffffffffffffffffffffffffffffffffffffffff161415156111e857600080fd5b6000811180156111fa57506003548111155b151561126e576040517f08c379a00000000000000000000000000000000000000000000000000000000081526004018080602001828103825260038152602001807f453032000000000000000000000000000000000000000000000000000000000081525060200191505060405180910390fd5b6001600082815260200190815260200160002060010160009054906101000a900460ff161515611306576040517f08c379a00000000000000000000000000000000000000000000000000000000081526004018080602001828103825260038152602001807f453035000000000000000000000000000000000000000000000000000000000081525060200191505060405180910390fd5b60006001600083815260200190815260200160002060010160006101000a81548160ff02191690831515021790555050565b6000809054906101000a900473ffffffffffffffffffffffffffffffffffffffff1681565b60008060009054906101000a900473ffffffffffffffffffffffffffffffffffffffff1673ffffffffffffffffffffffffffffffffffffffff163373ffffffffffffffffffffffffffffffffffffffff161415156113ba57600080fd5b600090505b81518110156113f5576113e882828151811015156113d957fe5b9060200190602002015161118d565b80806001019150506113bf565b5050565b60008060009054906101000a900473ffffffffffffffffffffffffffffffffffffffff1673ffffffffffffffffffffffffffffffffffffffff163373ffffffffffffffffffffffffffffffffffffffff1614151561145657600080fd5b84849050838390501415156114d3576040517f08c379a00000000000000000000000000000000000000000000000000000000081526004018080602001828103825260038152602001807f453031000000000000000000000000000000000000000000000000000000000081525060200191505060405180910390fd5b600090505b828290508110156115385761152b85858381811015156114f457fe5b90506020020135848484818110151561150957fe5b9050602002013573ffffffffffffffffffffffffffffffffffffffff16610b5e565b80806001019150506114d8565b5050505050565b6000808311801561155257506003548311155b15156115c6576040517f08c379a00000000000000000000000000000000000000000000000000000000081526004018080602001828103825260038152602001807f453031000000000000000000000000000000000000000000000000000000000081525060200191505060405180910390fd5b60016000848152602001908152602001600020600201600083815260200190815260200160002054905092915050565b6000808211801561160957506003548211155b151561167d576040517f08c379a00000000000000000000000000000000000000000000000000000000081526004018080602001828103825260038152602001807f453032000000000000000000000000000000000000000000000000000000000081525060200191505060405180910390fd5b6001600083815260200190815260200160002060010160009054906101000a900460ff169050919050565b60008060009054906101000a900473ffffffffffffffffffffffffffffffffffffffff1673ffffffffffffffffffffffffffffffffffffffff163373ffffffffffffffffffffffffffffffffffffffff1614151561170557600080fd5b600090505b835181101561174257611735848281518110151561172457fe5b906020019060200201518484611748565b808060010191505061170a565b50505050565b6000809054906101000a900473ffffffffffffffffffffffffffffffffffffffff1673ffffffffffffffffffffffffffffffffffffffff163373ffffffffffffffffffffffffffffffffffffffff161415156117a357600080fd5b6000831180156117b557506003548311155b1515611829576040517f08c379a00000000000000000000000000000000000000000000000000000000081526004018080602001828103825260038152602001807f453032000000000000000000000000000000000000000000000000000000000081525060200191505060405180910390fd5b816001600085815260200190815260200160002060000181905550806001600085815260200190815260200160002060010160006101000a81548160ff021916908315150217905550505050565b60006118c1600260008473ffffffffffffffffffffffffffffffffffffffff1673ffffffffffffffffffffffffffffffffffffffff16815260200190815260200160002054611a6b565b9050919050565b60008060009054906101000a900473ffffffffffffffffffffffffffffffffffffffff1673ffffffffffffffffffffffffffffffffffffffff163373ffffffffffffffffffffffffffffffffffffffff1614151561192557600080fd5b600090505b835181101561196257611955848281518110151561194457fe5b906020019060200201518484610998565b808060010191505061192a565b50505050565b60008060009054906101000a900473ffffffffffffffffffffffffffffffffffffffff1673ffffffffffffffffffffffffffffffffffffffff163373ffffffffffffffffffffffffffffffffffffffff161415156119c557600080fd5b600090505b8151811015611a00576119f382828151811015156119e457fe5b90602001906020020151610ee0565b80806001019150506119ca565b5050565b6000809054906101000a900473ffffffffffffffffffffffffffffffffffffffff1673ffffffffffffffffffffffffffffffffffffffff163373ffffffffffffffffffffffffffffffffffffffff16141515611a5f57600080fd5b611a6881611d0c565b50565b600080600083118015611a8057506003548311155b1515611af4576040517f08c379a00000000000000000000000000000000000000000000000000000000081526004018080602001828103825260038152602001807f453032000000000000000000000000000000000000000000000000000000000081525060200191505060405180910390fd5b600160008481526020019081526020016000209050611b4281604080519081016040529081600082015481526020016001820160009054906101000a900460ff161515151581525050611e06565b915050919050565b6000809054906101000a900473ffffffffffffffffffffffffffffffffffffffff1673ffffffffffffffffffffffffffffffffffffffff163373ffffffffffffffffffffffffffffffffffffffff16141515611ba557600080fd5b6000600260008473ffffffffffffffffffffffffffffffffffffffff1673ffffffffffffffffffffffffffffffffffffffff16815260200190815260200160002054141515611c5c576040517f08c379a00000000000000000000000000000000000000000000000000000000081526004018080602001828103825260038152602001807f453033000000000000000000000000000000000000000000000000000000000081525060200191505060405180910390fd5b6040805190810160405280828152602001600015158152506001600060036000815460010191905081905581526020019081526020016000206000820151816000015560208201518160010160006101000a81548160ff021916908315150217905550905050600354600260008473ffffffffffffffffffffffffffffffffffffffff1673ffffffffffffffffffffffffffffffffffffffff168152602001908152602001600020819055505050565b600073ffffffffffffffffffffffffffffffffffffffff168173ffffffffffffffffffffffffffffffffffffffff1614151515611d4857600080fd5b8073ffffffffffffffffffffffffffffffffffffffff166000809054906101000a900473ffffffffffffffffffffffffffffffffffffffff1673ffffffffffffffffffffffffffffffffffffffff167f8be0079c531659141344cd1fd0a4f28419497f9722a3daafe3b4186f6b6457e060405160405180910390a3806000806101000a81548173ffffffffffffffffffffffffffffffffffffffff021916908373ffffffffffffffffffffffffffffffffffffffff16021790555050565b60008160200151158015611e1d5750428260000151115b90509190505600a165627a7a7230582016deb6eccd179452dfb9dcbd4e32679de19da4977392fef3e4be48d8768a88fc0029",
  "source": "pragma solidity ^0.4.24;\n\nimport \"./zeppelin/ownership/Ownable.sol\";\nimport \"./interface/IRule.sol\";\nimport \"./interface/IUserRegistry.sol\";\n\n\n/**\n * @title UserRegistry\n * @dev UserRegistry contract\n * Configure and manage users\n * Extended may be used externaly to store data within a user context\n * @author Cyril Lapinte - <cyril.lapinte@mtpelerin.com>\n *\n * Error messages\n * E01: Users length does not match with Addresses\n * E02: UserId is invalid\n * E03: Address is invalid\n * E04: User is already locked\n * E05: User is not locked\n*/\ncontract UserRegistry is IUserRegistry, Ownable {\n\n  struct User {\n    uint256 validUntilTime;\n    bool locked;\n    mapping(uint256 => uint256) extended;\n  }\n  mapping(uint256 => User) internal users;\n  mapping(address => uint256) internal addresses;\n  uint256 public userCount;\n\n  /**\n   * @dev contructor\n   **/\n  constructor(address[] _addresses, uint256 _validUntilTime) public {\n    for (uint256 i = 0; i < _addresses.length; i++) {\n      registerUser(_addresses[i], _validUntilTime);\n    }\n  }\n\n  /**\n   * @dev register many users\n   */\n  function registerManyUsers(address[] _addresses, uint256 _validUntilTime)\n    external onlyOwner\n  {\n    for (uint256 i = 0; i < _addresses.length; i++) {\n      registerUser(_addresses[i], _validUntilTime);\n    }\n  }\n\n  /**\n   * @dev attach many addresses to many users\n   */\n  function attachManyAddresses(uint256[] _userIds, address[] _addresses)\n    external onlyOwner\n  {\n    require(_addresses.length == _userIds.length, \"E01\");\n    for (uint256 i = 0; i < _addresses.length; i++) {\n      attachAddress(_userIds[i], _addresses[i]);\n    }\n  }\n\n  /**\n   * @dev detach many addresses association between addresses and their respective users\n   */\n  function detachManyAddresses(address[] _addresses) external onlyOwner {\n    for (uint256 i = 0; i < _addresses.length; i++) {\n      detachAddress(_addresses[i]);\n    }\n  }\n\n  /**\n   * @dev number of user registred\n   */\n  function userCount() public view returns (uint256) {\n    return userCount;\n  }\n\n  /**\n   * @dev the userId associated to the provided address\n   */\n  function userId(address _address) public view returns (uint256) {\n    return addresses[_address];\n  }\n\n  /**\n   * @dev returns the time at which user validity ends\n   */\n  function validUntilTime(uint256 _userId) public view returns (uint256) {\n    require(_userId > 0 && _userId <= userCount, \"E02\");\n    return users[_userId].validUntilTime;\n  }\n\n  /**\n   * @dev is the user locked\n   */\n  function locked(uint256 _userId) public view returns (bool) {\n    require(_userId > 0 && _userId <= userCount, \"E02\");\n    return users[_userId].locked;\n  }\n\n  /**\n   * @dev access to extended user data\n   */\n  function extended(uint256 _userId, uint256 _key)\n    public view returns (uint256)\n  {\n    require(_userId > 0 && _userId <= userCount, \"E01\");\n    return users[_userId].extended[_key];\n  }\n\n  /**\n   * @dev validity of the current user\n   */\n  function isAddressValid(address _address) public view returns (bool) {\n    return isValid(addresses[_address]);\n  }\n\n  /**\n   * @dev validity of the current user\n   */\n  function isValid(uint256 _userId) public view returns (bool) {\n    require(_userId > 0 && _userId <= userCount, \"E02\");\n    User storage user = users[_userId];\n    return isValidInternal(user);\n  }\n\n  /**\n   * @dev register a user\n   */\n  function registerUser(address _address, uint256 _validUntilTime)\n    public onlyOwner\n  {\n    require(addresses[_address] == 0, \"E03\");\n    users[++userCount] = User(_validUntilTime, false);\n    addresses[_address] = userCount;\n  }\n\n  /**\n   * @dev attach an address with a user\n   */\n  function attachAddress(uint256 _userId, address _address) public onlyOwner {\n    require(_userId > 0 && _userId <= userCount, \"E02\");\n    require(addresses[_address] == 0, \"E03\");\n    addresses[_address] = _userId;\n  }\n\n  /**\n   * @dev detach the association between an address and its user\n   */\n  function detachAddress(address _address) public onlyOwner {\n    require(addresses[_address] != 0, \"E03\");\n    delete addresses[_address];\n  }\n\n  /**\n   * @dev lock a user\n   */\n  function lockUser(uint256 _userId) public onlyOwner {\n    require(_userId > 0 && _userId <= userCount, \"E02\");\n    require(!users[_userId].locked, \"E04\");\n    users[_userId].locked = true;\n  }\n\n  /**\n   * @dev unlock a user\n   */\n  function unlockUser(uint256 _userId) public onlyOwner {\n    require(_userId > 0 && _userId <= userCount, \"E02\");\n    require(users[_userId].locked, \"E05\");\n    users[_userId].locked = false;\n  }\n\n  /**\n   * @dev lock many users\n   */\n  function lockManyUsers(uint256[] _userIds) public onlyOwner {\n    for (uint256 i = 0; i < _userIds.length; i++) {\n      lockUser(_userIds[i]);\n    }\n  }\n\n  /**\n   * @dev unlock many users\n   */\n  function unlockManyUsers(uint256[] _userIds) public onlyOwner {\n    for (uint256 i = 0; i < _userIds.length; i++) {\n      unlockUser(_userIds[i]);\n    }\n  }\n\n  /**\n   * @dev update a user\n   */\n  function updateUser(uint256 _userId, uint256 _validUntilTime, bool _locked)\n    public onlyOwner\n  {\n    require(_userId > 0 && _userId <= userCount, \"E02\");\n    users[_userId].validUntilTime = _validUntilTime;\n    users[_userId].locked = _locked;\n  }\n\n  /**\n   * @dev update many users\n   */\n  function updateManyUsers(\n    uint256[] _userIds,\n    uint256 _validUntilTime,\n    bool _locked) public onlyOwner\n  {\n    for (uint256 i = 0; i < _userIds.length; i++) {\n      updateUser(_userIds[i], _validUntilTime, _locked);\n    }\n  }\n\n  /**\n   * @dev update user extended information\n   */\n  function updateUserExtended(uint256 _userId, uint256 _key, uint256 _value)\n    public onlyOwner\n  {\n    require(_userId > 0 && _userId <= userCount, \"E02\");\n    users[_userId].extended[_key] = _value;\n  }\n\n  /**\n   * @dev update many user extended informations\n   */\n  function updateManyUsersExtended(\n    uint256[] _userIds,\n    uint256 _key,\n    uint256 _value) public onlyOwner\n  {\n    for (uint256 i = 0; i < _userIds.length; i++) {\n      updateUserExtended(_userIds[i], _key, _value);\n    }\n  }\n\n  /**\n   * @dev validity of the current user\n   */\n  function isValidInternal(User user) internal view returns (bool) {\n    // solium-disable-next-line security/no-block-members\n    return !user.locked && user.validUntilTime > now;\n  }\n}\n",
  "sourcePath": "/home/node/project/contracts/UserRegistry.sol",
  "compiler": {
    "name": "solc",
    "version": "0.4.24+commit.e67f0147.Emscripten.clang"
  },
  "schemaVersion": "2.0.1",
  "updatedAt": "2018-08-15T14:19:55.856Z"
}