{
  "contractName": "Voting",
  "abi": [
    {
      "constant": true,
      "inputs": [],
      "name": "proposalsCount",
      "outputs": [
        {
          "name": "",
          "type": "uint256"
        }
      ],
      "payable": false,
      "stateMutability": "view",
      "type": "function"
    },
    {
      "constant": false,
      "inputs": [
        {
          "name": "_proposalId",
          "type": "uint256"
        },
        {
          "name": "_option",
          "type": "uint8"
        }
      ],
      "name": "lockVote",
      "outputs": [],
      "payable": false,
      "stateMutability": "nonpayable",
      "type": "function"
    },
    {
      "constant": true,
      "inputs": [
        {
          "name": "_proposalId",
          "type": "uint256"
        }
      ],
      "name": "participation",
      "outputs": [
        {
          "name": "",
          "type": "uint256"
        }
      ],
      "payable": false,
      "stateMutability": "view",
      "type": "function"
    },
    {
      "constant": true,
      "inputs": [
        {
          "name": "_proposalId",
          "type": "uint256"
        }
      ],
      "name": "proposalHash",
      "outputs": [
        {
          "name": "",
          "type": "uint256"
        }
      ],
      "payable": false,
      "stateMutability": "view",
      "type": "function"
    },
    {
      "constant": true,
      "inputs": [
        {
          "name": "_proposalId",
          "type": "uint256"
        }
      ],
      "name": "proposalCreatedAt",
      "outputs": [
        {
          "name": "",
          "type": "uint256"
        }
      ],
      "payable": false,
      "stateMutability": "view",
      "type": "function"
    },
    {
      "constant": false,
      "inputs": [],
      "name": "renounceOwnership",
      "outputs": [],
      "payable": false,
      "stateMutability": "nonpayable",
      "type": "function"
    },
    {
      "constant": true,
      "inputs": [
        {
          "name": "_proposalId",
          "type": "uint256"
        }
      ],
      "name": "proposalUrl",
      "outputs": [
        {
          "name": "",
          "type": "string"
        }
      ],
      "payable": false,
      "stateMutability": "view",
      "type": "function"
    },
    {
      "constant": true,
      "inputs": [
        {
          "name": "_proposalId",
          "type": "uint256"
        },
        {
          "name": "_participant",
          "type": "address"
        }
      ],
      "name": "optionVoted",
      "outputs": [
        {
          "name": "",
          "type": "uint8"
        }
      ],
      "payable": false,
      "stateMutability": "view",
      "type": "function"
    },
    {
      "constant": true,
      "inputs": [],
      "name": "owner",
      "outputs": [
        {
          "name": "",
          "type": "address"
        }
      ],
      "payable": false,
      "stateMutability": "view",
      "type": "function"
    },
    {
      "constant": true,
      "inputs": [
        {
          "name": "_proposalId",
          "type": "uint256"
        }
      ],
      "name": "proposalOptionsAvailable",
      "outputs": [
        {
          "name": "",
          "type": "uint8"
        }
      ],
      "payable": false,
      "stateMutability": "view",
      "type": "function"
    },
    {
      "constant": true,
      "inputs": [
        {
          "name": "_proposalId",
          "type": "uint256"
        }
      ],
      "name": "proposalQuestion",
      "outputs": [
        {
          "name": "",
          "type": "string"
        }
      ],
      "payable": false,
      "stateMutability": "view",
      "type": "function"
    },
    {
      "constant": true,
      "inputs": [
        {
          "name": "_proposalId",
          "type": "uint256"
        },
        {
          "name": "_participant",
          "type": "address"
        }
      ],
      "name": "isDeclared",
      "outputs": [
        {
          "name": "",
          "type": "bool"
        }
      ],
      "payable": false,
      "stateMutability": "view",
      "type": "function"
    },
    {
      "constant": true,
      "inputs": [
        {
          "name": "_proposalId",
          "type": "uint256"
        }
      ],
      "name": "ballot",
      "outputs": [
        {
          "name": "",
          "type": "uint256[]"
        }
      ],
      "payable": false,
      "stateMutability": "view",
      "type": "function"
    },
    {
      "constant": false,
      "inputs": [
        {
          "name": "_newOwner",
          "type": "address"
        }
      ],
      "name": "transferOwnership",
      "outputs": [],
      "payable": false,
      "stateMutability": "nonpayable",
      "type": "function"
    },
    {
      "constant": true,
      "inputs": [
        {
          "name": "_proposalId",
          "type": "uint256"
        },
        {
          "name": "_participant",
          "type": "address"
        }
      ],
      "name": "isVoteLocked",
      "outputs": [
        {
          "name": "",
          "type": "bool"
        }
      ],
      "payable": false,
      "stateMutability": "view",
      "type": "function"
    },
    {
      "anonymous": false,
      "inputs": [
        {
          "indexed": false,
          "name": "duration",
          "type": "uint256"
        },
        {
          "indexed": false,
          "name": "quorum",
          "type": "uint256"
        },
        {
          "indexed": false,
          "name": "minScore",
          "type": "uint256"
        }
      ],
      "name": "VotingRuleUpdated",
      "type": "event"
    },
    {
      "anonymous": false,
      "inputs": [
        {
          "indexed": false,
          "name": "proposalId",
          "type": "uint256"
        }
      ],
      "name": "VoteClosed",
      "type": "event"
    },
    {
      "anonymous": false,
      "inputs": [
        {
          "indexed": false,
          "name": "proposalId",
          "type": "uint256"
        }
      ],
      "name": "ProposalAdded",
      "type": "event"
    },
    {
      "anonymous": false,
      "inputs": [
        {
          "indexed": true,
          "name": "previousOwner",
          "type": "address"
        }
      ],
      "name": "OwnershipRenounced",
      "type": "event"
    },
    {
      "anonymous": false,
      "inputs": [
        {
          "indexed": true,
          "name": "previousOwner",
          "type": "address"
        },
        {
          "indexed": true,
          "name": "newOwner",
          "type": "address"
        }
      ],
      "name": "OwnershipTransferred",
      "type": "event"
    },
    {
      "constant": true,
      "inputs": [],
      "name": "defaultDuration",
      "outputs": [
        {
          "name": "",
          "type": "uint256"
        }
      ],
      "payable": false,
      "stateMutability": "view",
      "type": "function"
    },
    {
      "constant": true,
      "inputs": [],
      "name": "defaultQuorum",
      "outputs": [
        {
          "name": "",
          "type": "uint256"
        }
      ],
      "payable": false,
      "stateMutability": "view",
      "type": "function"
    },
    {
      "constant": true,
      "inputs": [],
      "name": "defaultMinScore",
      "outputs": [
        {
          "name": "",
          "type": "uint256"
        }
      ],
      "payable": false,
      "stateMutability": "view",
      "type": "function"
    },
    {
      "constant": true,
      "inputs": [],
      "name": "latestVotingTime",
      "outputs": [
        {
          "name": "",
          "type": "uint256"
        }
      ],
      "payable": false,
      "stateMutability": "view",
      "type": "function"
    },
    {
      "constant": true,
      "inputs": [
        {
          "name": "_proposalId",
          "type": "uint256"
        }
      ],
      "name": "voteDuration",
      "outputs": [
        {
          "name": "",
          "type": "uint256"
        }
      ],
      "payable": false,
      "stateMutability": "view",
      "type": "function"
    },
    {
      "constant": true,
      "inputs": [
        {
          "name": "_proposalId",
          "type": "uint256"
        }
      ],
      "name": "voteQuorum",
      "outputs": [
        {
          "name": "",
          "type": "uint256"
        }
      ],
      "payable": false,
      "stateMutability": "view",
      "type": "function"
    },
    {
      "constant": true,
      "inputs": [
        {
          "name": "_proposalId",
          "type": "uint256"
        }
      ],
      "name": "voteMinScore",
      "outputs": [
        {
          "name": "",
          "type": "uint256"
        }
      ],
      "payable": false,
      "stateMutability": "view",
      "type": "function"
    },
    {
      "constant": true,
      "inputs": [
        {
          "name": "_proposalId",
          "type": "uint256"
        }
      ],
      "name": "isOnGoing",
      "outputs": [
        {
          "name": "",
          "type": "bool"
        }
      ],
      "payable": false,
      "stateMutability": "view",
      "type": "function"
    },
    {
      "constant": true,
      "inputs": [],
      "name": "areAnyOnGoing",
      "outputs": [
        {
          "name": "",
          "type": "bool"
        }
      ],
      "payable": false,
      "stateMutability": "view",
      "type": "function"
    },
    {
      "constant": true,
      "inputs": [
        {
          "name": "_proposalId",
          "type": "uint256"
        }
      ],
      "name": "result",
      "outputs": [
        {
          "name": "",
          "type": "uint256"
        }
      ],
      "payable": false,
      "stateMutability": "view",
      "type": "function"
    },
    {
      "constant": false,
      "inputs": [
        {
          "name": "_question",
          "type": "string"
        },
        {
          "name": "_url",
          "type": "string"
        },
        {
          "name": "_hash",
          "type": "uint256"
        },
        {
          "name": "_optionsAvailable",
          "type": "uint8"
        }
      ],
      "name": "addProposal",
      "outputs": [],
      "payable": false,
      "stateMutability": "nonpayable",
      "type": "function"
    },
    {
      "constant": false,
      "inputs": [
        {
          "name": "_proposalId",
          "type": "uint256"
        },
        {
          "name": "_option",
          "type": "uint8"
        }
      ],
      "name": "vote",
      "outputs": [],
      "payable": false,
      "stateMutability": "nonpayable",
      "type": "function"
    },
    {
      "constant": false,
      "inputs": [
        {
          "name": "_proposalId",
          "type": "uint256"
        }
      ],
      "name": "closeVote",
      "outputs": [],
      "payable": false,
      "stateMutability": "nonpayable",
      "type": "function"
    },
    {
      "constant": false,
      "inputs": [
        {
          "name": "_duration",
          "type": "uint256"
        },
        {
          "name": "_quorum",
          "type": "uint256"
        },
        {
          "name": "_minScore",
          "type": "uint256"
        }
      ],
      "name": "updateVotingRule",
      "outputs": [],
      "payable": false,
      "stateMutability": "nonpayable",
      "type": "function"
    }
  ],
  "bytecode": "0x60806040526212750060035560006004556000600555336000806101000a81548173ffffffffffffffffffffffffffffffffffffffff021916908373ffffffffffffffffffffffffffffffffffffffff160217905550611f5d806100646000396000f300608060405260043610610175576000357c0100000000000000000000000000000000000000000000000000000000900463ffffffff1680630a9f46ad1461017a5780630b5e5094146101a557806317cac3fb146101ea57806318733495146102195780632af7e2ea146102535780632d19f9a61461027e5780633c594059146102a95780634f080f25146102ea578063508f93551461032b57806357044c0a1461036c5780635f9103b2146103ad578063671ddabd146103ee5780636e48a0351461042f57806370af96fb1461045c578063715018a614610487578063768c35a11461049e5780637916b882146104df5780637dfe69f514610585578063826e56c2146105ec5780638da5cb5b1461061757806392a546f01461066e578063943e821614610734578063a4e0d4e41461076e578063b4706d42146107b5578063c656d3cb1461085b578063e7942734146108c0578063edb9f0c314610942578063f2fde38b14610983578063ffc50270146109c6575b600080fd5b34801561018657600080fd5b5061018f610a2b565b6040518082815260200191505060405180910390f35b3480156101b157600080fd5b506101d060048036038101908080359060200190929190505050610a35565b604051808215151515815260200191505060405180910390f35b3480156101f657600080fd5b506101ff610a86565b604051808215151515815260200191505060405180910390f35b34801561022557600080fd5b5061025160048036038101908080359060200190929190803560ff169060200190929190505050610a99565b005b34801561025f57600080fd5b50610268610b15565b6040518082815260200191505060405180910390f35b34801561028a57600080fd5b50610293610b1f565b6040518082815260200191505060405180910390f35b3480156102b557600080fd5b506102d460048036038101908080359060200190929190505050610b29565b6040518082815260200191505060405180910390f35b3480156102f657600080fd5b5061031560048036038101908080359060200190929190505050610caa565b6040518082815260200191505060405180910390f35b34801561033757600080fd5b5061035660048036038101908080359060200190929190505050610cca565b6040518082815260200191505060405180910390f35b34801561037857600080fd5b5061039760048036038101908080359060200190929190505050610cea565b6040518082815260200191505060405180910390f35b3480156103b957600080fd5b506103d860048036038101908080359060200190929190505050610d0a565b6040518082815260200191505060405180910390f35b3480156103fa57600080fd5b5061041960048036038101908080359060200190929190505050610d2a565b6040518082815260200191505060405180910390f35b34801561043b57600080fd5b5061045a60048036038101908080359060200190929190505050610d4a565b005b34801561046857600080fd5b50610471610e9c565b6040518082815260200191505060405180910390f35b34801561049357600080fd5b5061049c610ea6565b005b3480156104aa57600080fd5b506104c960048036038101908080359060200190929190505050610fa8565b6040518082815260200191505060405180910390f35b3480156104eb57600080fd5b5061050a60048036038101908080359060200190929190505050610fc8565b6040518080602001828103825283818151815260200191508051906020019080838360005b8381101561054a57808201518184015260208101905061052f565b50505050905090810190601f1680156105775780820380516001836020036101000a031916815260200191505b509250505060405180910390f35b34801561059157600080fd5b506105d060048036038101908080359060200190929190803573ffffffffffffffffffffffffffffffffffffffff169060200190929190505050611080565b604051808260ff1660ff16815260200191505060405180910390f35b3480156105f857600080fd5b506106016110ee565b6040518082815260200191505060405180910390f35b34801561062357600080fd5b5061062c6110f8565b604051808273ffffffffffffffffffffffffffffffffffffffff1673ffffffffffffffffffffffffffffffffffffffff16815260200191505060405180910390f35b34801561067a57600080fd5b50610732600480360381019080803590602001908201803590602001908080601f0160208091040260200160405190810160405280939291908181526020018383808284378201915050505050509192919290803590602001908201803590602001908080601f016020809104026020016040519081016040528093929190818152602001838380828437820191505050505050919291929080359060200190929190803560ff16906020019092919050505061111d565b005b34801561074057600080fd5b5061076c60048036038101908080359060200190929190803560ff16906020019092919050505061122c565b005b34801561077a57600080fd5b50610799600480360381019080803590602001909291905050506112b9565b604051808260ff1660ff16815260200191505060405180910390f35b3480156107c157600080fd5b506107e0600480360381019080803590602001909291905050506112de565b6040518080602001828103825283818151815260200191508051906020019080838360005b83811015610820578082015181840152602081019050610805565b50505050905090810190601f16801561084d5780820380516001836020036101000a031916815260200191505b509250505060405180910390f35b34801561086757600080fd5b506108a660048036038101908080359060200190929190803573ffffffffffffffffffffffffffffffffffffffff169060200190929190505050611396565b604051808215151515815260200191505060405180910390f35b3480156108cc57600080fd5b506108eb60048036038101908080359060200190929190505050611404565b6040518080602001828103825283818151815260200191508051906020019060200280838360005b8381101561092e578082015181840152602081019050610913565b505050509050019250505060405180910390f35b34801561094e57600080fd5b50610981600480360381019080803590602001909291908035906020019092919080359060200190929190505050611472565b005b34801561098f57600080fd5b506109c4600480360381019080803573ffffffffffffffffffffffffffffffffffffffff16906020019092919050505061152e565b005b3480156109d257600080fd5b50610a1160048036038101908080359060200190929190803573ffffffffffffffffffffffffffffffffffffffff169060200190929190505050611595565b604051808215151515815260200191505060405180910390f35b6000600254905090565b6000610a766006600084815260200190815260200160002060000154600160008581526020019081526020016000206004015461160390919063ffffffff16565b610a7e61161f565b109050919050565b6000600754610a9361161f565b10905090565b610aa3828261122c565b600180600084815260200190815260200160002060060160003373ffffffffffffffffffffffffffffffffffffffff1673ffffffffffffffffffffffffffffffffffffffff16815260200190815260200160002060000160026101000a81548160ff0219169083151502179055505050565b6000600354905090565b6000600754905090565b600080600080600080610b3b87610a35565b151515610bb0576040517f08c379a00000000000000000000000000000000000000000000000000000000081526004018080602001828103825260038152602001807f453031000000000000000000000000000000000000000000000000000000000081525060200191505060405180910390fd5b6001600088815260200190815260200160002094506006600088815260200190815260200160002093508360010154610c12866005016000815481101515610bf457fe5b9060005260206000200154876003015461162790919063ffffffff16565b1015610c215760009550610ca0565b600190505b8460050180549050811015610c8757828560050182815481101515610c4757fe5b90600052602060002001541115610c7a578091508460050181815481101515610c6c57fe5b906000526020600020015492505b8080600101915050610c26565b8360020154831015610c9c5760009550610ca0565b8195505b5050505050919050565b600060066000838152602001908152602001600020600101549050919050565b600060016000838152602001908152602001600020600301549050919050565b600060016000838152602001908152602001600020600201549050919050565b600060016000838152602001908152602001600020600401549050919050565b600060066000838152602001908152602001600020600201549050919050565b60008060009054906101000a900473ffffffffffffffffffffffffffffffffffffffff1673ffffffffffffffffffffffffffffffffffffffff163373ffffffffffffffffffffffffffffffffffffffff16141515610da757600080fd5b610db082610a35565b1515610e24576040517f08c379a00000000000000000000000000000000000000000000000000000000081526004018080602001828103825260038152602001807f453032000000000000000000000000000000000000000000000000000000000081525060200191505060405180910390fd5b6001600083815260200190815260200160002060040154610e4361161f565b0390508060066000848152602001908152602001600020600001819055507fbc12589e76c0d59fd5a7c6f642c154830f0b46718b5ac07d1a0bdf29e124cbd8826040518082815260200191505060405180910390a15050565b6000600454905090565b6000809054906101000a900473ffffffffffffffffffffffffffffffffffffffff1673ffffffffffffffffffffffffffffffffffffffff163373ffffffffffffffffffffffffffffffffffffffff16141515610f0157600080fd5b6000809054906101000a900473ffffffffffffffffffffffffffffffffffffffff1673ffffffffffffffffffffffffffffffffffffffff167ff8df31144d9c2f0f6b59d69b8b98abd5459d07f2742c4df920b25aae33c6482060405160405180910390a260008060006101000a81548173ffffffffffffffffffffffffffffffffffffffff021916908373ffffffffffffffffffffffffffffffffffffffff160217905550565b600060066000838152602001908152602001600020600001549050919050565b6060600160008381526020019081526020016000206001018054600181600116156101000203166002900480601f0160208091040260200160405190810160405280929190818152602001828054600181600116156101000203166002900480156110745780601f1061104957610100808354040283529160200191611074565b820191906000526020600020905b81548152906001019060200180831161105757829003601f168201915b50505050509050919050565b60006001600084815260200190815260200160002060060160008373ffffffffffffffffffffffffffffffffffffffff1673ffffffffffffffffffffffffffffffffffffffff16815260200190815260200160002060000160009054906101000a900460ff16905092915050565b6000600554905090565b6000809054906101000a900473ffffffffffffffffffffffffffffffffffffffff1681565b60008060009054906101000a900473ffffffffffffffffffffffffffffffffffffffff1673ffffffffffffffffffffffffffffffffffffffff163373ffffffffffffffffffffffffffffffffffffffff1614151561117a57600080fd5b61118685858585611640565b606060405190810160405280600354815260200160045481526020016005548152506006600060016002540381526020019081526020016000206000820151816000015560208201518160010155604082015181600201559050506112116003546001600060016002540381526020019081526020016000206004015461160390919063ffffffff16565b905060075481111561122557806007819055505b5050505050565b61123582610a35565b15156112a9576040517f08c379a00000000000000000000000000000000000000000000000000000000081526004018080602001828103825260038152602001807f453032000000000000000000000000000000000000000000000000000000000081525060200191505060405180910390fd5b6112b58282600161194a565b5050565b6000600180600084815260200190815260200160002060050180549050039050919050565b6060600160008381526020019081526020016000206000018054600181600116156101000203166002900480601f01602080910402602001604051908101604052809291908181526020018280546001816001161561010002031660029004801561138a5780601f1061135f5761010080835404028352916020019161138a565b820191906000526020600020905b81548152906001019060200180831161136d57829003601f168201915b50505050509050919050565b60006001600084815260200190815260200160002060060160008373ffffffffffffffffffffffffffffffffffffffff1673ffffffffffffffffffffffffffffffffffffffff16815260200190815260200160002060000160019054906101000a900460ff16905092915050565b60606001600083815260200190815260200160002060050180548060200260200160405190810160405280929190818152602001828054801561146657602002820191906000526020600020905b815481526020019060010190808311611452575b50505050509050919050565b6000809054906101000a900473ffffffffffffffffffffffffffffffffffffffff1673ffffffffffffffffffffffffffffffffffffffff163373ffffffffffffffffffffffffffffffffffffffff161415156114cd57600080fd5b8260038190555081600481905550806005819055507f6a66e31456dd9cd88d5884033ee7f19b9e2d1928de00674350b5943dd823d7f883838360405180848152602001838152602001828152602001935050505060405180910390a1505050565b6000809054906101000a900473ffffffffffffffffffffffffffffffffffffffff1673ffffffffffffffffffffffffffffffffffffffff163373ffffffffffffffffffffffffffffffffffffffff1614151561158957600080fd5b61159281611d45565b50565b60006001600084815260200190815260200160002060060160008373ffffffffffffffffffffffffffffffffffffffff1673ffffffffffffffffffffffffffffffffffffffff16815260200190815260200160002060000160029054906101000a900460ff16905092915050565b6000818301905082811015151561161657fe5b80905092915050565b600042905090565b600082821115151561163557fe5b818303905092915050565b6000809054906101000a900473ffffffffffffffffffffffffffffffffffffffff1673ffffffffffffffffffffffffffffffffffffffff163373ffffffffffffffffffffffffffffffffffffffff1614151561169b57600080fd5b60008451111515611714576040517f08c379a00000000000000000000000000000000000000000000000000000000081526004018080602001828103825260038152602001807f453031000000000000000000000000000000000000000000000000000000000081525060200191505060405180910390fd5b6000835111151561178d576040517f08c379a00000000000000000000000000000000000000000000000000000000081526004018080602001828103825260038152602001807f453032000000000000000000000000000000000000000000000000000000000081525060200191505060405180910390fd5b600082111515611805576040517f08c379a00000000000000000000000000000000000000000000000000000000081526004018080602001828103825260038152602001807f453033000000000000000000000000000000000000000000000000000000000081525060200191505060405180910390fd5b60c060405190810160405280858152602001848152602001838152602001600081526020014281526020016001830160ff166040519080825280602002602001820160405280156118655781602001602082028038833980820191505090505b50815250600160006002548152602001908152602001600020600082015181600001908051906020019061189a929190611e3f565b5060208201518160010190805190602001906118b7929190611e3f565b5060408201518160020155606082015181600301556080820151816004015560a08201518160050190805190602001906118f2929190611ebf565b509050506002600081548092919060010191905055507f3f802220982dbddc337f1811180e73513e775b18380401997927fd1454cfd0bd6001600254036040518082815260200191505060405180910390a150505050565b6000806001600086815260200190815260200160002091508160060160003373ffffffffffffffffffffffffffffffffffffffff1673ffffffffffffffffffffffffffffffffffffffff168152602001908152602001600020905060016000868152602001908152602001600020600501805490508460ff16101515611a38576040517f08c379a00000000000000000000000000000000000000000000000000000000081526004018080602001828103825260038152602001807f453034000000000000000000000000000000000000000000000000000000000081525060200191505060405180910390fd5b60025485101515611ab1576040517f08c379a00000000000000000000000000000000000000000000000000000000081526004018080602001828103825260038152602001807f453035000000000000000000000000000000000000000000000000000000000081525060200191505060405180910390fd5b8360ff168160000160009054906101000a900460ff1660ff1614151515611b40576040517f08c379a00000000000000000000000000000000000000000000000000000000081526004018080602001828103825260038152602001807f453036000000000000000000000000000000000000000000000000000000000081525060200191505060405180910390fd5b8160060160003373ffffffffffffffffffffffffffffffffffffffff1673ffffffffffffffffffffffffffffffffffffffff16815260200190815260200160002060000160019054906101000a900460ff1615611c1157611bd983836005018360000160009054906101000a900460ff1660ff16815481101515611bc057fe5b906000526020600020015461162790919063ffffffff16565b826005018260000160009054906101000a900460ff1660ff16815481101515611bfe57fe5b9060005260206000200181905550611c8e565b611c2883836003015461160390919063ffffffff16565b826003018190555060018260060160003373ffffffffffffffffffffffffffffffffffffffff1673ffffffffffffffffffffffffffffffffffffffff16815260200190815260200160002060000160016101000a81548160ff0219169083151502179055505b611cbf83836005018660ff16815481101515611ca657fe5b906000526020600020015461160390919063ffffffff16565b826005018560ff16815481101515611cd357fe5b9060005260206000200181905550838260060160003373ffffffffffffffffffffffffffffffffffffffff1673ffffffffffffffffffffffffffffffffffffffff16815260200190815260200160002060000160006101000a81548160ff021916908360ff1602179055505050505050565b600073ffffffffffffffffffffffffffffffffffffffff168173ffffffffffffffffffffffffffffffffffffffff1614151515611d8157600080fd5b8073ffffffffffffffffffffffffffffffffffffffff166000809054906101000a900473ffffffffffffffffffffffffffffffffffffffff1673ffffffffffffffffffffffffffffffffffffffff167f8be0079c531659141344cd1fd0a4f28419497f9722a3daafe3b4186f6b6457e060405160405180910390a3806000806101000a81548173ffffffffffffffffffffffffffffffffffffffff021916908373ffffffffffffffffffffffffffffffffffffffff16021790555050565b828054600181600116156101000203166002900490600052602060002090601f016020900481019282601f10611e8057805160ff1916838001178555611eae565b82800160010185558215611eae579182015b82811115611ead578251825591602001919060010190611e92565b5b509050611ebb9190611f0c565b5090565b828054828255906000526020600020908101928215611efb579160200282015b82811115611efa578251825591602001919060010190611edf565b5b509050611f089190611f0c565b5090565b611f2e91905b80821115611f2a576000816000905550600101611f12565b5090565b905600a165627a7a72305820f37d9174164ec47497f4cfa12dbe5abffaec624347455bcd34f2acf62dc95d7b0029",
  "source": "pragma solidity ^0.4.24;\n\nimport \"../zeppelin/token/ERC20/ERC20.sol\";\nimport \"../zeppelin/ownership/Ownable.sol\";\nimport \"../zeppelin/math/SafeMath.sol\";\nimport \"../interface/IVoting.sol\";\nimport \"./VotingCore.sol\";\n\n\n/**\n * @title Voting\n * @dev Voting contract\n * @author Cyril Lapinte - <cyril.lapinte@mtpelerin.com>\n *\n * Error messages\n * E01: Vote must be closed\n * E02: Vote must be opened\n */\ncontract Voting is IVoting, VotingCore {\n\n  uint256 public defaultDuration = 2 weeks;\n  uint256 public defaultQuorum = 0;\n  uint256 public defaultMinScore = 0; \n\n  struct Rule {\n    uint256 duration;\n    uint256 quorum;\n    uint256 minScore;\n  }\n  mapping(uint256 => Rule) internal votingRules;\n  uint256 public latestVotingTime;\n\n  /**\n   * @dev returns the default duration rule to be used for new votes\n   */\n  function defaultDuration() public view returns (uint256) {\n    return defaultDuration;\n  }\n\n  /**\n   * @dev returns the default Quorum rule to be used for new votes\n   */\n  function defaultQuorum() public view returns (uint256) {\n    return defaultQuorum;\n  }\n\n  /**\n   * @dev returns the default minimum score rule to be used for new votes\n   */\n  function defaultMinScore() public view returns (uint256) {\n    return defaultMinScore;\n  }\n\n  /**\n   * @dev returns the latest time to vote\n   * Allows to quickly know if there are any votes going on.\n   */\n  function latestVotingTime() public view returns (uint256) {\n    return latestVotingTime;\n  }\n\n  /**\n   * @dev returns the vote duration rule used in the vote associated with a proposal\n   */\n  function voteDuration(uint256 _proposalId) public view returns (uint256) {\n    return votingRules[_proposalId].duration;\n  }\n\n  /**\n   * @dev returns the min participants rule used in the vote associated with a proposal\n   */\n  function voteQuorum(uint256 _proposalId) public view returns (uint256) {\n    return votingRules[_proposalId].quorum;\n  }\n\n  /**\n   * @dev returns the min relative majority rule used in the vote associated with a proposal\n   */\n  function voteMinScore(uint256 _proposalId) public view returns (uint256) {\n    return votingRules[_proposalId].minScore;\n  }\n\n  /**\n   * @dev return true if the vote associated with the proposalid is on going\n   */\n  function isOnGoing(uint256 _proposalId) public view returns (bool) {\n    return\n      currentTime() < proposals[_proposalId].createdAt.add(\n      votingRules[_proposalId].duration);\n  }\n\n  /**\n   * @dev return true if there are any votes on going\n   *\n   * Beware that this method does not take in consideration that the vote \n   * was closed sooner by the contract owner\n   */\n  function areAnyOnGoing() public view returns (bool) {\n    return currentTime() < latestVotingTime;\n  }\n\n  /**\n   * @dev provide the result of the vote\n   *\n   * fails if the vote is still ongoing\n   * returns 0 if the quorum or relative majority is not reached\n   */\n  function result(uint256 _proposalId) public view returns (uint256) {\n    require(!isOnGoing(_proposalId), \"E01\");\n    Proposal storage proposal = proposals[_proposalId];\n    Rule storage rule = votingRules[_proposalId];\n\n    if (proposal.participation.sub(proposal.ballot[0]) < rule.quorum) {\n      return 0;\n    }\n\n    uint256 score;\n    uint256 first;\n    for (uint256 i = 1; i < proposal.ballot.length; i++) {\n      if (proposal.ballot[i] > score) {\n        first = i;\n        score = proposal.ballot[i];\n      }\n    }\n\n    if (score < rule.minScore) {\n      return 0;\n    }\n    return first;\n  }\n\n  /**\n   * @dev add a proposal\n   */\n  function addProposal(\n    string _question,\n    string _url,\n    uint256 _hash,\n    uint8 _optionsAvailable\n  ) public onlyOwner\n  {\n    super.addProposal(\n      _question,\n      _url,\n      _hash,\n      _optionsAvailable\n    );\n    votingRules[proposalsCount-1] = Rule(\n      defaultDuration, defaultQuorum, defaultMinScore);\n\n    uint256 endVotingTime = proposals[proposalsCount-1]\n      .createdAt.add(defaultDuration);\n\n    if (endVotingTime > latestVotingTime) {\n      latestVotingTime = endVotingTime;\n    }\n  }\n\n  /**\n   * @dev override vote function\n   */\n  function vote(uint256 _proposalId, uint8 _option) public {\n    require(isOnGoing(_proposalId), \"E02\");\n    weightedVote(_proposalId, _option, 1);\n  }\n\n  /**\n   * @dev close vote\n   * Does not update latestVotingTime value\n   * which will eventually fixed itself\n   */\n  function closeVote(uint256 _proposalId) public onlyOwner {\n    require(isOnGoing(_proposalId), \"E02\");\n\n    uint256 newDuration = currentTime() - proposals[_proposalId].createdAt;\n    votingRules[_proposalId].duration = newDuration;\n\n    emit VoteClosed(_proposalId);\n  }\n\n  /**\n   * @dev update voting rule\n   * Existing votes are not affected by the new rule\n   */\n  function updateVotingRule(\n    uint256 _duration,\n    uint256 _quorum,\n    uint256 _minScore) public onlyOwner\n  {\n    defaultDuration = _duration;\n    defaultQuorum = _quorum;\n    defaultMinScore = _minScore;\n\n    emit VotingRuleUpdated(_duration, _quorum, _minScore);\n  }\n\n  /**\n   * @dev currentTime\n   */\n  function currentTime() internal view returns (uint256) {\n    // solium-disable-next-line security/no-block-members\n    return block.timestamp;\n  }\n\n  event VotingRuleUpdated(\n  uint256 duration,\n  uint256 quorum,\n  uint256 minScore);\n\n  event VoteClosed(uint256 proposalId);\n}\n",
  "sourcePath": "/home/node/project/contracts/voting/Voting.sol",
  "compiler": {
    "name": "solc",
    "version": "0.4.24+commit.e67f0147.Emscripten.clang"
  },
  "schemaVersion": "2.0.1",
  "updatedAt": "2018-08-15T14:19:56.035Z"
}