{
  "contractName": "VotingCore",
  "abi": [
    {
      "constant": false,
      "inputs": [],
      "name": "renounceOwnership",
      "outputs": [],
      "payable": false,
      "stateMutability": "nonpayable",
      "type": "function"
    },
    {
      "constant": true,
      "inputs": [],
      "name": "owner",
      "outputs": [
        {
          "name": "",
          "type": "address"
        }
      ],
      "payable": false,
      "stateMutability": "view",
      "type": "function"
    },
    {
      "constant": false,
      "inputs": [
        {
          "name": "_newOwner",
          "type": "address"
        }
      ],
      "name": "transferOwnership",
      "outputs": [],
      "payable": false,
      "stateMutability": "nonpayable",
      "type": "function"
    },
    {
      "anonymous": false,
      "inputs": [
        {
          "indexed": false,
          "name": "proposalId",
          "type": "uint256"
        }
      ],
      "name": "ProposalAdded",
      "type": "event"
    },
    {
      "anonymous": false,
      "inputs": [
        {
          "indexed": true,
          "name": "previousOwner",
          "type": "address"
        }
      ],
      "name": "OwnershipRenounced",
      "type": "event"
    },
    {
      "anonymous": false,
      "inputs": [
        {
          "indexed": true,
          "name": "previousOwner",
          "type": "address"
        },
        {
          "indexed": true,
          "name": "newOwner",
          "type": "address"
        }
      ],
      "name": "OwnershipTransferred",
      "type": "event"
    },
    {
      "constant": true,
      "inputs": [],
      "name": "proposalsCount",
      "outputs": [
        {
          "name": "",
          "type": "uint256"
        }
      ],
      "payable": false,
      "stateMutability": "view",
      "type": "function"
    },
    {
      "constant": true,
      "inputs": [
        {
          "name": "_proposalId",
          "type": "uint256"
        }
      ],
      "name": "proposalQuestion",
      "outputs": [
        {
          "name": "",
          "type": "string"
        }
      ],
      "payable": false,
      "stateMutability": "view",
      "type": "function"
    },
    {
      "constant": true,
      "inputs": [
        {
          "name": "_proposalId",
          "type": "uint256"
        }
      ],
      "name": "proposalUrl",
      "outputs": [
        {
          "name": "",
          "type": "string"
        }
      ],
      "payable": false,
      "stateMutability": "view",
      "type": "function"
    },
    {
      "constant": true,
      "inputs": [
        {
          "name": "_proposalId",
          "type": "uint256"
        }
      ],
      "name": "proposalHash",
      "outputs": [
        {
          "name": "",
          "type": "uint256"
        }
      ],
      "payable": false,
      "stateMutability": "view",
      "type": "function"
    },
    {
      "constant": true,
      "inputs": [
        {
          "name": "_proposalId",
          "type": "uint256"
        }
      ],
      "name": "proposalOptionsAvailable",
      "outputs": [
        {
          "name": "",
          "type": "uint8"
        }
      ],
      "payable": false,
      "stateMutability": "view",
      "type": "function"
    },
    {
      "constant": true,
      "inputs": [
        {
          "name": "_proposalId",
          "type": "uint256"
        }
      ],
      "name": "participation",
      "outputs": [
        {
          "name": "",
          "type": "uint256"
        }
      ],
      "payable": false,
      "stateMutability": "view",
      "type": "function"
    },
    {
      "constant": true,
      "inputs": [
        {
          "name": "_proposalId",
          "type": "uint256"
        }
      ],
      "name": "proposalCreatedAt",
      "outputs": [
        {
          "name": "",
          "type": "uint256"
        }
      ],
      "payable": false,
      "stateMutability": "view",
      "type": "function"
    },
    {
      "constant": true,
      "inputs": [
        {
          "name": "_proposalId",
          "type": "uint256"
        }
      ],
      "name": "ballot",
      "outputs": [
        {
          "name": "",
          "type": "uint256[]"
        }
      ],
      "payable": false,
      "stateMutability": "view",
      "type": "function"
    },
    {
      "constant": true,
      "inputs": [
        {
          "name": "_proposalId",
          "type": "uint256"
        },
        {
          "name": "_participant",
          "type": "address"
        }
      ],
      "name": "optionVoted",
      "outputs": [
        {
          "name": "",
          "type": "uint8"
        }
      ],
      "payable": false,
      "stateMutability": "view",
      "type": "function"
    },
    {
      "constant": true,
      "inputs": [
        {
          "name": "_proposalId",
          "type": "uint256"
        },
        {
          "name": "_participant",
          "type": "address"
        }
      ],
      "name": "isDeclared",
      "outputs": [
        {
          "name": "",
          "type": "bool"
        }
      ],
      "payable": false,
      "stateMutability": "view",
      "type": "function"
    },
    {
      "constant": true,
      "inputs": [
        {
          "name": "_proposalId",
          "type": "uint256"
        },
        {
          "name": "_participant",
          "type": "address"
        }
      ],
      "name": "isVoteLocked",
      "outputs": [
        {
          "name": "",
          "type": "bool"
        }
      ],
      "payable": false,
      "stateMutability": "view",
      "type": "function"
    },
    {
      "constant": false,
      "inputs": [
        {
          "name": "_question",
          "type": "string"
        },
        {
          "name": "_url",
          "type": "string"
        },
        {
          "name": "_hash",
          "type": "uint256"
        },
        {
          "name": "_optionsAvailable",
          "type": "uint8"
        }
      ],
      "name": "addProposal",
      "outputs": [],
      "payable": false,
      "stateMutability": "nonpayable",
      "type": "function"
    },
    {
      "constant": false,
      "inputs": [
        {
          "name": "_proposalId",
          "type": "uint256"
        },
        {
          "name": "_option",
          "type": "uint8"
        }
      ],
      "name": "vote",
      "outputs": [],
      "payable": false,
      "stateMutability": "nonpayable",
      "type": "function"
    },
    {
      "constant": false,
      "inputs": [
        {
          "name": "_proposalId",
          "type": "uint256"
        },
        {
          "name": "_option",
          "type": "uint8"
        }
      ],
      "name": "lockVote",
      "outputs": [],
      "payable": false,
      "stateMutability": "nonpayable",
      "type": "function"
    }
  ],
  "bytecode": "0x6080604052336000806101000a81548173ffffffffffffffffffffffffffffffffffffffff021916908373ffffffffffffffffffffffffffffffffffffffff160217905550611638806100536000396000f3006080604052600436106100f1576000357c0100000000000000000000000000000000000000000000000000000000900463ffffffff1680630a9f46ad146100f65780631873349514610121578063508f93551461015b57806357044c0a1461019c5780635f9103b2146101dd578063715018a61461021e5780637916b882146102355780637dfe69f5146102db5780638da5cb5b1461034257806392a546f014610399578063943e82161461045f578063a4e0d4e414610499578063b4706d42146104e0578063c656d3cb14610586578063e7942734146105eb578063f2fde38b1461066d578063ffc50270146106b0575b600080fd5b34801561010257600080fd5b5061010b610715565b6040518082815260200191505060405180910390f35b34801561012d57600080fd5b5061015960048036038101908080359060200190929190803560ff16906020019092919050505061071f565b005b34801561016757600080fd5b506101866004803603810190808035906020019092919050505061079b565b6040518082815260200191505060405180910390f35b3480156101a857600080fd5b506101c7600480360381019080803590602001909291905050506107bb565b6040518082815260200191505060405180910390f35b3480156101e957600080fd5b50610208600480360381019080803590602001909291905050506107db565b6040518082815260200191505060405180910390f35b34801561022a57600080fd5b506102336107fb565b005b34801561024157600080fd5b50610260600480360381019080803590602001909291905050506108fd565b6040518080602001828103825283818151815260200191508051906020019080838360005b838110156102a0578082015181840152602081019050610285565b50505050905090810190601f1680156102cd5780820380516001836020036101000a031916815260200191505b509250505060405180910390f35b3480156102e757600080fd5b5061032660048036038101908080359060200190929190803573ffffffffffffffffffffffffffffffffffffffff1690602001909291905050506109b5565b604051808260ff1660ff16815260200191505060405180910390f35b34801561034e57600080fd5b50610357610a23565b604051808273ffffffffffffffffffffffffffffffffffffffff1673ffffffffffffffffffffffffffffffffffffffff16815260200191505060405180910390f35b3480156103a557600080fd5b5061045d600480360381019080803590602001908201803590602001908080601f0160208091040260200160405190810160405280939291908181526020018383808284378201915050505050509192919290803590602001908201803590602001908080601f016020809104026020016040519081016040528093929190818152602001838380828437820191505050505050919291929080359060200190929190803560ff169060200190929190505050610a48565b005b34801561046b57600080fd5b5061049760048036038101908080359060200190929190803560ff169060200190929190505050610d52565b005b3480156104a557600080fd5b506104c460048036038101908080359060200190929190505050610d62565b604051808260ff1660ff16815260200191505060405180910390f35b3480156104ec57600080fd5b5061050b60048036038101908080359060200190929190505050610d87565b6040518080602001828103825283818151815260200191508051906020019080838360005b8381101561054b578082015181840152602081019050610530565b50505050905090810190601f1680156105785780820380516001836020036101000a031916815260200191505b509250505060405180910390f35b34801561059257600080fd5b506105d160048036038101908080359060200190929190803573ffffffffffffffffffffffffffffffffffffffff169060200190929190505050610e3f565b604051808215151515815260200191505060405180910390f35b3480156105f757600080fd5b5061061660048036038101908080359060200190929190505050610ead565b6040518080602001828103825283818151815260200191508051906020019060200280838360005b8381101561065957808201518184015260208101905061063e565b505050509050019250505060405180910390f35b34801561067957600080fd5b506106ae600480360381019080803573ffffffffffffffffffffffffffffffffffffffff169060200190929190505050610f1b565b005b3480156106bc57600080fd5b506106fb60048036038101908080359060200190929190803573ffffffffffffffffffffffffffffffffffffffff169060200190929190505050610f82565b604051808215151515815260200191505060405180910390f35b6000600254905090565b6107298282610d52565b600180600084815260200190815260200160002060060160003373ffffffffffffffffffffffffffffffffffffffff1673ffffffffffffffffffffffffffffffffffffffff16815260200190815260200160002060000160026101000a81548160ff0219169083151502179055505050565b600060016000838152602001908152602001600020600301549050919050565b600060016000838152602001908152602001600020600201549050919050565b600060016000838152602001908152602001600020600401549050919050565b6000809054906101000a900473ffffffffffffffffffffffffffffffffffffffff1673ffffffffffffffffffffffffffffffffffffffff163373ffffffffffffffffffffffffffffffffffffffff1614151561085657600080fd5b6000809054906101000a900473ffffffffffffffffffffffffffffffffffffffff1673ffffffffffffffffffffffffffffffffffffffff167ff8df31144d9c2f0f6b59d69b8b98abd5459d07f2742c4df920b25aae33c6482060405160405180910390a260008060006101000a81548173ffffffffffffffffffffffffffffffffffffffff021916908373ffffffffffffffffffffffffffffffffffffffff160217905550565b6060600160008381526020019081526020016000206001018054600181600116156101000203166002900480601f0160208091040260200160405190810160405280929190818152602001828054600181600116156101000203166002900480156109a95780601f1061097e576101008083540402835291602001916109a9565b820191906000526020600020905b81548152906001019060200180831161098c57829003601f168201915b50505050509050919050565b60006001600084815260200190815260200160002060060160008373ffffffffffffffffffffffffffffffffffffffff1673ffffffffffffffffffffffffffffffffffffffff16815260200190815260200160002060000160009054906101000a900460ff16905092915050565b6000809054906101000a900473ffffffffffffffffffffffffffffffffffffffff1681565b6000809054906101000a900473ffffffffffffffffffffffffffffffffffffffff1673ffffffffffffffffffffffffffffffffffffffff163373ffffffffffffffffffffffffffffffffffffffff16141515610aa357600080fd5b60008451111515610b1c576040517f08c379a00000000000000000000000000000000000000000000000000000000081526004018080602001828103825260038152602001807f453031000000000000000000000000000000000000000000000000000000000081525060200191505060405180910390fd5b60008351111515610b95576040517f08c379a00000000000000000000000000000000000000000000000000000000081526004018080602001828103825260038152602001807f453032000000000000000000000000000000000000000000000000000000000081525060200191505060405180910390fd5b600082111515610c0d576040517f08c379a00000000000000000000000000000000000000000000000000000000081526004018080602001828103825260038152602001807f453033000000000000000000000000000000000000000000000000000000000081525060200191505060405180910390fd5b60c060405190810160405280858152602001848152602001838152602001600081526020014281526020016001830160ff16604051908082528060200260200182016040528015610c6d5781602001602082028038833980820191505090505b508152506001600060025481526020019081526020016000206000820151816000019080519060200190610ca292919061151a565b506020820151816001019080519060200190610cbf92919061151a565b5060408201518160020155606082015181600301556080820151816004015560a0820151816005019080519060200190610cfa92919061159a565b509050506002600081548092919060010191905055507f3f802220982dbddc337f1811180e73513e775b18380401997927fd1454cfd0bd6001600254036040518082815260200191505060405180910390a150505050565b610d5e82826001610ff0565b5050565b6000600180600084815260200190815260200160002060050180549050039050919050565b6060600160008381526020019081526020016000206000018054600181600116156101000203166002900480601f016020809104026020016040519081016040528092919081815260200182805460018160011615610100020316600290048015610e335780601f10610e0857610100808354040283529160200191610e33565b820191906000526020600020905b815481529060010190602001808311610e1657829003601f168201915b50505050509050919050565b60006001600084815260200190815260200160002060060160008373ffffffffffffffffffffffffffffffffffffffff1673ffffffffffffffffffffffffffffffffffffffff16815260200190815260200160002060000160019054906101000a900460ff16905092915050565b606060016000838152602001908152602001600020600501805480602002602001604051908101604052809291908181526020018280548015610f0f57602002820191906000526020600020905b815481526020019060010190808311610efb575b50505050509050919050565b6000809054906101000a900473ffffffffffffffffffffffffffffffffffffffff1673ffffffffffffffffffffffffffffffffffffffff163373ffffffffffffffffffffffffffffffffffffffff16141515610f7657600080fd5b610f7f816113eb565b50565b60006001600084815260200190815260200160002060060160008373ffffffffffffffffffffffffffffffffffffffff1673ffffffffffffffffffffffffffffffffffffffff16815260200190815260200160002060000160029054906101000a900460ff16905092915050565b6000806001600086815260200190815260200160002091508160060160003373ffffffffffffffffffffffffffffffffffffffff1673ffffffffffffffffffffffffffffffffffffffff168152602001908152602001600020905060016000868152602001908152602001600020600501805490508460ff161015156110de576040517f08c379a00000000000000000000000000000000000000000000000000000000081526004018080602001828103825260038152602001807f453034000000000000000000000000000000000000000000000000000000000081525060200191505060405180910390fd5b60025485101515611157576040517f08c379a00000000000000000000000000000000000000000000000000000000081526004018080602001828103825260038152602001807f453035000000000000000000000000000000000000000000000000000000000081525060200191505060405180910390fd5b8360ff168160000160009054906101000a900460ff1660ff16141515156111e6576040517f08c379a00000000000000000000000000000000000000000000000000000000081526004018080602001828103825260038152602001807f453036000000000000000000000000000000000000000000000000000000000081525060200191505060405180910390fd5b8160060160003373ffffffffffffffffffffffffffffffffffffffff1673ffffffffffffffffffffffffffffffffffffffff16815260200190815260200160002060000160019054906101000a900460ff16156112b75761127f83836005018360000160009054906101000a900460ff1660ff1681548110151561126657fe5b90600052602060002001546114e590919063ffffffff16565b826005018260000160009054906101000a900460ff1660ff168154811015156112a457fe5b9060005260206000200181905550611334565b6112ce8383600301546114fe90919063ffffffff16565b826003018190555060018260060160003373ffffffffffffffffffffffffffffffffffffffff1673ffffffffffffffffffffffffffffffffffffffff16815260200190815260200160002060000160016101000a81548160ff0219169083151502179055505b61136583836005018660ff1681548110151561134c57fe5b90600052602060002001546114fe90919063ffffffff16565b826005018560ff1681548110151561137957fe5b9060005260206000200181905550838260060160003373ffffffffffffffffffffffffffffffffffffffff1673ffffffffffffffffffffffffffffffffffffffff16815260200190815260200160002060000160006101000a81548160ff021916908360ff1602179055505050505050565b600073ffffffffffffffffffffffffffffffffffffffff168173ffffffffffffffffffffffffffffffffffffffff161415151561142757600080fd5b8073ffffffffffffffffffffffffffffffffffffffff166000809054906101000a900473ffffffffffffffffffffffffffffffffffffffff1673ffffffffffffffffffffffffffffffffffffffff167f8be0079c531659141344cd1fd0a4f28419497f9722a3daafe3b4186f6b6457e060405160405180910390a3806000806101000a81548173ffffffffffffffffffffffffffffffffffffffff021916908373ffffffffffffffffffffffffffffffffffffffff16021790555050565b60008282111515156114f357fe5b818303905092915050565b6000818301905082811015151561151157fe5b80905092915050565b828054600181600116156101000203166002900490600052602060002090601f016020900481019282601f1061155b57805160ff1916838001178555611589565b82800160010185558215611589579182015b8281111561158857825182559160200191906001019061156d565b5b50905061159691906115e7565b5090565b8280548282559060005260206000209081019282156115d6579160200282015b828111156115d55782518255916020019190600101906115ba565b5b5090506115e391906115e7565b5090565b61160991905b808211156116055760008160009055506001016115ed565b5090565b905600a165627a7a72305820ea76990338dd55abcd7e4cd293b1de9b1d76e1915db31721d610e54c256d1ff70029",
  "source": "pragma solidity ^0.4.24;\n\nimport \"../zeppelin/token/ERC20/ERC20.sol\";\nimport \"../zeppelin/ownership/Ownable.sol\";\nimport \"../zeppelin/math/SafeMath.sol\";\n\n\n/**\n * @title VotingCore\n * @dev VotingCore contract\n * @author Cyril Lapinte - <cyril.lapinte@mtpelerin.com>\n *\n * Error messages\n * E01: Question must be defined\n * E02: Url must be defined\n * E03: Hash must be defined\n * E04: Option must exist\n * E05: Proposal must exist\n * E06: Vote must be new or changed\n *\n */\ncontract VotingCore is Ownable {\n  using SafeMath for uint256;\n\n  struct Vote {\n    uint8 option;\n    bool declared;\n    bool locked;\n  }\n\n  struct Proposal {\n    string question;\n    string url;\n    uint256 hash;\n    uint256 participation;\n    uint256 createdAt;\n    uint256[] ballot; // ballot[0] correspond to blank vote\n    mapping(address => Vote) votes;\n  }\n\n  mapping(uint256 => Proposal) internal proposals;\n  uint256 public proposalsCount;\n\n  /**\n   * @dev returns the count of proposals\n   */\n  function proposalsCount() public view returns (uint256) {\n    return proposalsCount;\n  }\n\n  /**\n   * @dev returns the question of the proposal _proposalId\n   */\n  function proposalQuestion(uint256 _proposalId) public view returns (string) {\n    return proposals[_proposalId].question;\n  }\n\n  /**\n   * @dev returns the url of the proposal _proposalId\n   */\n  function proposalUrl(uint256 _proposalId) public view returns (string) {\n    return proposals[_proposalId].url;\n  }\n\n  /**\n   * @dev returns the hash of the proposal _proposalId\n   */\n  function proposalHash(uint256 _proposalId) public view returns (uint256) {\n    return proposals[_proposalId].hash;\n  }\n\n  /**\n   * @dev returns the number of choices of the proposal _proposalId\n   */\n  function proposalOptionsAvailable(uint256 _proposalId)\n    public view returns (uint8)\n  {\n    return uint8(proposals[_proposalId].ballot.length-1);\n  }\n\n  /**\n   * @dev returns the participation of the proposal _proposalId\n   * The participation is the number of votes that has been used for this proposal\n   */\n  function participation(uint256 _proposalId) public view returns (uint256) {\n    return proposals[_proposalId].participation;\n  }\n\n  /**\n   * @dev returns the time of creation of the proposal _proposalId\n   */\n  function proposalCreatedAt(uint256 _proposalId)\n    public view returns (uint256)\n  {\n    return proposals[_proposalId].createdAt;\n  }\n\n  /**\n   * @dev returns the ballot of the proposal _proposalId\n   */\n  function ballot(uint256 _proposalId) public view returns (uint256[]) {\n    return proposals[_proposalId].ballot;\n  }\n\n  /**\n   * @dev returns the choice made by a participant for a proposal\n   */\n  function optionVoted(uint256 _proposalId, address _participant)\n    public view returns (uint8)\n  {\n    return proposals[_proposalId].votes[_participant].option;\n  }\n\n  /**\n   * @dev returns true if the participant is declared\n   */\n  function isDeclared(uint256 _proposalId, address _participant)\n    public view returns (bool)\n  {\n    return proposals[_proposalId].votes[_participant].declared;\n  }\n\n  /**\n   * @dev returns true if the participant is declared and lock his vote\n   */\n  function isVoteLocked(uint256 _proposalId, address _participant)\n    public view returns (bool)\n  {\n    return proposals[_proposalId].votes[_participant].locked;\n  }\n\n  /**\n   * @dev add a proposal\n   */\n  function addProposal(\n    string _question,\n    string _url,\n    uint256 _hash,\n    uint8 _optionsAvailable\n  ) public onlyOwner\n  {\n    require(bytes(_question).length > 0, \"E01\");\n    require(bytes(_url).length > 0, \"E02\");\n    require(_hash > 0, \"E03\");\n\n    proposals[proposalsCount] = Proposal(\n      _question,\n      _url,\n      _hash,\n      0,\n      // solium-disable-next-line security/no-block-members\n      block.timestamp,\n      new uint256[](_optionsAvailable+1)\n    );\n    proposalsCount++;\n    emit ProposalAdded(proposalsCount-1);\n  }\n\n  /**\n   * @dev vote for a proposal\n   */\n  function vote(uint256 _proposalId, uint8 _option) public {\n    weightedVote(_proposalId, _option, 1);\n  }\n\n  /**\n   * @dev vote for a proposal and lock it\n   */\n  function lockVote(uint256 _proposalId, uint8 _option) public {\n    vote(_proposalId, _option);\n    proposals[_proposalId].votes[msg.sender].locked = true;\n  }\n\n  /**\n   * @dev vote for a proposal with a weight\n   *\n   * Child contract must define the correct weight for the msg.sender\n   */\n  function weightedVote(\n    uint256 _proposalId,\n    uint8 _option,\n    uint256 _weight) internal\n  {\n    Proposal storage proposal = proposals[_proposalId];\n    Vote storage lastVote = proposal.votes[msg.sender];\n\n    require(_option < proposals[_proposalId].ballot.length, \"E04\");\n    require(_proposalId < proposalsCount, \"E05\");\n    require(lastVote.option != _option, \"E06\");\n\n    if (proposal.votes[msg.sender].declared) {\n      proposal.ballot[lastVote.option] = proposal\n        .ballot[lastVote.option].sub(_weight);\n    } else {\n      proposal.participation = proposal.participation.add(_weight);\n      proposal.votes[msg.sender].declared = true;\n    }\n\n    proposal.ballot[_option] = proposal.ballot[_option].add(_weight);\n    proposal.votes[msg.sender].option = _option;\n  }\n\n  event ProposalAdded(uint256 proposalId);\n}\n",
  "sourcePath": "/home/node/project/contracts/voting/VotingCore.sol",
  "compiler": {
    "name": "solc",
    "version": "0.4.24+commit.e67f0147.Emscripten.clang"
  },
  "schemaVersion": "2.0.1",
  "updatedAt": "2018-08-15T14:19:56.039Z"
}