{
  "contractName": "Whitelist",
  "abi": [
    {
      "constant": false,
      "inputs": [],
      "name": "renounceOwnership",
      "outputs": [],
      "payable": false,
      "stateMutability": "nonpayable",
      "type": "function"
    },
    {
      "constant": true,
      "inputs": [],
      "name": "owner",
      "outputs": [
        {
          "name": "",
          "type": "address"
        }
      ],
      "payable": false,
      "stateMutability": "view",
      "type": "function"
    },
    {
      "constant": false,
      "inputs": [
        {
          "name": "_newOwner",
          "type": "address"
        }
      ],
      "name": "transferOwnership",
      "outputs": [],
      "payable": false,
      "stateMutability": "nonpayable",
      "type": "function"
    },
    {
      "inputs": [
        {
          "name": "_addresses",
          "type": "address[]"
        }
      ],
      "payable": false,
      "stateMutability": "nonpayable",
      "type": "constructor"
    },
    {
      "anonymous": false,
      "inputs": [
        {
          "indexed": true,
          "name": "_address",
          "type": "address"
        }
      ],
      "name": "AddressApproved",
      "type": "event"
    },
    {
      "anonymous": false,
      "inputs": [
        {
          "indexed": true,
          "name": "_address",
          "type": "address"
        }
      ],
      "name": "AddressRejected",
      "type": "event"
    },
    {
      "anonymous": false,
      "inputs": [
        {
          "indexed": true,
          "name": "previousOwner",
          "type": "address"
        }
      ],
      "name": "OwnershipRenounced",
      "type": "event"
    },
    {
      "anonymous": false,
      "inputs": [
        {
          "indexed": true,
          "name": "previousOwner",
          "type": "address"
        },
        {
          "indexed": true,
          "name": "newOwner",
          "type": "address"
        }
      ],
      "name": "OwnershipTransferred",
      "type": "event"
    },
    {
      "constant": false,
      "inputs": [
        {
          "name": "_addresses",
          "type": "address[]"
        }
      ],
      "name": "approveManyAddresses",
      "outputs": [],
      "payable": false,
      "stateMutability": "nonpayable",
      "type": "function"
    },
    {
      "constant": false,
      "inputs": [
        {
          "name": "_addresses",
          "type": "address[]"
        }
      ],
      "name": "rejectManyAddresses",
      "outputs": [],
      "payable": false,
      "stateMutability": "nonpayable",
      "type": "function"
    },
    {
      "constant": true,
      "inputs": [],
      "name": "whitelistCount",
      "outputs": [
        {
          "name": "",
          "type": "uint256"
        }
      ],
      "payable": false,
      "stateMutability": "view",
      "type": "function"
    },
    {
      "constant": true,
      "inputs": [
        {
          "name": "_address",
          "type": "address"
        }
      ],
      "name": "isWhitelisted",
      "outputs": [
        {
          "name": "",
          "type": "bool"
        }
      ],
      "payable": false,
      "stateMutability": "view",
      "type": "function"
    },
    {
      "constant": false,
      "inputs": [
        {
          "name": "_address",
          "type": "address"
        }
      ],
      "name": "approveAddress",
      "outputs": [],
      "payable": false,
      "stateMutability": "nonpayable",
      "type": "function"
    },
    {
      "constant": false,
      "inputs": [
        {
          "name": "_address",
          "type": "address"
        }
      ],
      "name": "rejectAddress",
      "outputs": [],
      "payable": false,
      "stateMutability": "nonpayable",
      "type": "function"
    }
  ],
  "bytecode": "0x608060405234801561001057600080fd5b50604051610c38380380610c38833981018060405281019080805182019291905050506000336000806101000a81548173ffffffffffffffffffffffffffffffffffffffff021916908373ffffffffffffffffffffffffffffffffffffffff160217905550600090505b81518110156100bf576100b2828281518110151561009457fe5b906020019060200201516100c6640100000000026401000000009004565b808060010191505061007a565b5050610224565b6000809054906101000a900473ffffffffffffffffffffffffffffffffffffffff1673ffffffffffffffffffffffffffffffffffffffff163373ffffffffffffffffffffffffffffffffffffffff1614151561012157600080fd5b600160008273ffffffffffffffffffffffffffffffffffffffff1673ffffffffffffffffffffffffffffffffffffffff16815260200190815260200160002060009054906101000a900460ff1615156102215760018060008373ffffffffffffffffffffffffffffffffffffffff1673ffffffffffffffffffffffffffffffffffffffff16815260200190815260200160002060006101000a81548160ff0219169083151502179055506002600081548092919060010191905055508073ffffffffffffffffffffffffffffffffffffffff167f22ccae257baf5241d183f9fcd06432b49697e9576652b3f436249b101f32bf9460405160405180910390a25b50565b610a05806102336000396000f300608060405260043610610098576000357c0100000000000000000000000000000000000000000000000000000000900463ffffffff1680628656c01461009d57806308c1f105146100d85780633af32abf1461011b578063715018a6146101765780638da5cb5b1461018d578063d02bd37a146101e4578063f2624b5d1461021f578063f2fde38b1461024a578063fabf657a1461028d575b600080fd5b3480156100a957600080fd5b506100d66004803603810190808035906020019082018035906020019190919293919293905050506102d0565b005b3480156100e457600080fd5b50610119600480360381019080803573ffffffffffffffffffffffffffffffffffffffff169060200190929190505050610382565b005b34801561012757600080fd5b5061015c600480360381019080803573ffffffffffffffffffffffffffffffffffffffff1690602001909291905050506104e1565b604051808215151515815260200191505060405180910390f35b34801561018257600080fd5b5061018b610537565b005b34801561019957600080fd5b506101a2610639565b604051808273ffffffffffffffffffffffffffffffffffffffff1673ffffffffffffffffffffffffffffffffffffffff16815260200191505060405180910390f35b3480156101f057600080fd5b5061021d60048036038101908080359060200190820180359060200191909192939192939050505061065e565b005b34801561022b57600080fd5b50610234610710565b6040518082815260200191505060405180910390f35b34801561025657600080fd5b5061028b600480360381019080803573ffffffffffffffffffffffffffffffffffffffff16906020019092919050505061071a565b005b34801561029957600080fd5b506102ce600480360381019080803573ffffffffffffffffffffffffffffffffffffffff169060200190929190505050610781565b005b60008060009054906101000a900473ffffffffffffffffffffffffffffffffffffffff1673ffffffffffffffffffffffffffffffffffffffff163373ffffffffffffffffffffffffffffffffffffffff1614151561032d57600080fd5b600090505b8282905081101561037d57610370838383818110151561034e57fe5b9050602002013573ffffffffffffffffffffffffffffffffffffffff16610781565b8080600101915050610332565b505050565b6000809054906101000a900473ffffffffffffffffffffffffffffffffffffffff1673ffffffffffffffffffffffffffffffffffffffff163373ffffffffffffffffffffffffffffffffffffffff161415156103dd57600080fd5b600160008273ffffffffffffffffffffffffffffffffffffffff1673ffffffffffffffffffffffffffffffffffffffff16815260200190815260200160002060009054906101000a900460ff16156104de576000600160008373ffffffffffffffffffffffffffffffffffffffff1673ffffffffffffffffffffffffffffffffffffffff16815260200190815260200160002060006101000a81548160ff021916908315150217905550600260008154809291906001900391905055508073ffffffffffffffffffffffffffffffffffffffff167fea4e312ba0c689a06d39183bdbe4da8a13f666c2cae20bfcc77a93cf86dada1260405160405180910390a25b50565b6000600160008373ffffffffffffffffffffffffffffffffffffffff1673ffffffffffffffffffffffffffffffffffffffff16815260200190815260200160002060009054906101000a900460ff169050919050565b6000809054906101000a900473ffffffffffffffffffffffffffffffffffffffff1673ffffffffffffffffffffffffffffffffffffffff163373ffffffffffffffffffffffffffffffffffffffff1614151561059257600080fd5b6000809054906101000a900473ffffffffffffffffffffffffffffffffffffffff1673ffffffffffffffffffffffffffffffffffffffff167ff8df31144d9c2f0f6b59d69b8b98abd5459d07f2742c4df920b25aae33c6482060405160405180910390a260008060006101000a81548173ffffffffffffffffffffffffffffffffffffffff021916908373ffffffffffffffffffffffffffffffffffffffff160217905550565b6000809054906101000a900473ffffffffffffffffffffffffffffffffffffffff1681565b60008060009054906101000a900473ffffffffffffffffffffffffffffffffffffffff1673ffffffffffffffffffffffffffffffffffffffff163373ffffffffffffffffffffffffffffffffffffffff161415156106bb57600080fd5b600090505b8282905081101561070b576106fe83838381811015156106dc57fe5b9050602002013573ffffffffffffffffffffffffffffffffffffffff16610382565b80806001019150506106c0565b505050565b6000600254905090565b6000809054906101000a900473ffffffffffffffffffffffffffffffffffffffff1673ffffffffffffffffffffffffffffffffffffffff163373ffffffffffffffffffffffffffffffffffffffff1614151561077557600080fd5b61077e816108df565b50565b6000809054906101000a900473ffffffffffffffffffffffffffffffffffffffff1673ffffffffffffffffffffffffffffffffffffffff163373ffffffffffffffffffffffffffffffffffffffff161415156107dc57600080fd5b600160008273ffffffffffffffffffffffffffffffffffffffff1673ffffffffffffffffffffffffffffffffffffffff16815260200190815260200160002060009054906101000a900460ff1615156108dc5760018060008373ffffffffffffffffffffffffffffffffffffffff1673ffffffffffffffffffffffffffffffffffffffff16815260200190815260200160002060006101000a81548160ff0219169083151502179055506002600081548092919060010191905055508073ffffffffffffffffffffffffffffffffffffffff167f22ccae257baf5241d183f9fcd06432b49697e9576652b3f436249b101f32bf9460405160405180910390a25b50565b600073ffffffffffffffffffffffffffffffffffffffff168173ffffffffffffffffffffffffffffffffffffffff161415151561091b57600080fd5b8073ffffffffffffffffffffffffffffffffffffffff166000809054906101000a900473ffffffffffffffffffffffffffffffffffffffff1673ffffffffffffffffffffffffffffffffffffffff167f8be0079c531659141344cd1fd0a4f28419497f9722a3daafe3b4186f6b6457e060405160405180910390a3806000806101000a81548173ffffffffffffffffffffffffffffffffffffffff021916908373ffffffffffffffffffffffffffffffffffffffff160217905550505600a165627a7a723058207ed12116dea6a82909d688d8e7ee9f02eed0c6bc9a96184bf805a82ac0d17c830029",
  "source": "pragma solidity ^0.4.24;\n\nimport \"./zeppelin/ownership/Ownable.sol\";\nimport \"./interface/IWhitelist.sol\";\n\n\n/**\n * @title Whitelist\n * @dev Whitelist contract\n *\n * Whitelist a list of addresses only updatable by the owner\n *\n * @author Cyril Lapinte - <cyril.lapinte@mtpelerin.com>\n */\ncontract Whitelist is IWhitelist, Ownable {\n\n  mapping(address => bool) internal whitelist;\n  uint256 public whitelistCount;\n\n  /**\n   * @dev Constructor\n   */\n  constructor(address[] _addresses) public {\n    for (uint256 i = 0; i < _addresses.length; i++) {\n      approveAddress(_addresses[i]);\n    }\n  }\n\n  /**\n   * @dev Approve many addresses\n   **/\n  function approveManyAddresses(address[] _addresses) external onlyOwner {\n    for (uint256 i = 0; i < _addresses.length; i++) {\n      approveAddress(_addresses[i]);\n    }\n  }\n\n  /**\n   * @dev Reject many addresses\n   **/\n  function rejectManyAddresses(address[] _addresses) external onlyOwner {\n    for (uint256 i = 0; i < _addresses.length; i++) {\n      rejectAddress(_addresses[i]);\n    }\n  }\n\n  /**\n   * @dev getter need to be declared to comply with IWhitelist interface\n   */\n  function whitelistCount() public view returns (uint256) {\n    return whitelistCount;\n  }\n\n  /**\n   * @dev Is the address whitelisted\n   **/\n  function isWhitelisted(address _address) public view returns (bool) {\n    return whitelist[_address];\n  }\n\n  /** \n   * @dev Approve the provided address\n   **/\n  function approveAddress(address _address) public onlyOwner {\n    if (!whitelist[_address]) {\n      whitelist[_address] = true;\n      whitelistCount++;\n      emit AddressApproved(_address);\n    }\n  }\n\n  /**\n   * @dev Reject the provided address\n   **/\n  function rejectAddress(address _address) public onlyOwner {\n    if (whitelist[_address]) {\n      whitelist[_address] = false;\n      whitelistCount--;\n      emit AddressRejected(_address);\n    }\n  }\n\n  event AddressApproved(address indexed _address);\n  event AddressRejected(address indexed _address);\n}\n",
  "sourcePath": "/home/node/project/contracts/Whitelist.sol",
  "compiler": {
    "name": "solc",
    "version": "0.4.24+commit.e67f0147.Emscripten.clang"
  },
  "schemaVersion": "2.0.1",
  "updatedAt": "2018-08-15T14:19:55.835Z"
}