{
  "contractName": "WithRules",
  "abi": [
    {
      "constant": false,
      "inputs": [],
      "name": "renounceOwnership",
      "outputs": [],
      "payable": false,
      "stateMutability": "nonpayable",
      "type": "function"
    },
    {
      "constant": true,
      "inputs": [],
      "name": "owner",
      "outputs": [
        {
          "name": "",
          "type": "address"
        }
      ],
      "payable": false,
      "stateMutability": "view",
      "type": "function"
    },
    {
      "constant": false,
      "inputs": [
        {
          "name": "_newOwner",
          "type": "address"
        }
      ],
      "name": "transferOwnership",
      "outputs": [],
      "payable": false,
      "stateMutability": "nonpayable",
      "type": "function"
    },
    {
      "inputs": [
        {
          "name": "_rules",
          "type": "address[]"
        }
      ],
      "payable": false,
      "stateMutability": "nonpayable",
      "type": "constructor"
    },
    {
      "anonymous": false,
      "inputs": [
        {
          "indexed": false,
          "name": "ruleId",
          "type": "uint256"
        }
      ],
      "name": "RuleAdded",
      "type": "event"
    },
    {
      "anonymous": false,
      "inputs": [
        {
          "indexed": false,
          "name": "ruleId",
          "type": "uint256"
        }
      ],
      "name": "RuleRemoved",
      "type": "event"
    },
    {
      "anonymous": false,
      "inputs": [
        {
          "indexed": true,
          "name": "previousOwner",
          "type": "address"
        }
      ],
      "name": "OwnershipRenounced",
      "type": "event"
    },
    {
      "anonymous": false,
      "inputs": [
        {
          "indexed": true,
          "name": "previousOwner",
          "type": "address"
        },
        {
          "indexed": true,
          "name": "newOwner",
          "type": "address"
        }
      ],
      "name": "OwnershipTransferred",
      "type": "event"
    },
    {
      "constant": true,
      "inputs": [],
      "name": "ruleLength",
      "outputs": [
        {
          "name": "",
          "type": "uint256"
        }
      ],
      "payable": false,
      "stateMutability": "view",
      "type": "function"
    },
    {
      "constant": true,
      "inputs": [
        {
          "name": "_ruleId",
          "type": "uint256"
        }
      ],
      "name": "rule",
      "outputs": [
        {
          "name": "",
          "type": "address"
        }
      ],
      "payable": false,
      "stateMutability": "view",
      "type": "function"
    },
    {
      "constant": true,
      "inputs": [
        {
          "name": "_address",
          "type": "address"
        }
      ],
      "name": "validateAddress",
      "outputs": [
        {
          "name": "",
          "type": "bool"
        }
      ],
      "payable": false,
      "stateMutability": "view",
      "type": "function"
    },
    {
      "constant": true,
      "inputs": [
        {
          "name": "_from",
          "type": "address"
        },
        {
          "name": "_to",
          "type": "address"
        },
        {
          "name": "_amount",
          "type": "uint256"
        }
      ],
      "name": "validateTransfer",
      "outputs": [
        {
          "name": "",
          "type": "bool"
        }
      ],
      "payable": false,
      "stateMutability": "view",
      "type": "function"
    },
    {
      "constant": false,
      "inputs": [
        {
          "name": "_rule",
          "type": "address"
        }
      ],
      "name": "addRule",
      "outputs": [],
      "payable": false,
      "stateMutability": "nonpayable",
      "type": "function"
    },
    {
      "constant": false,
      "inputs": [
        {
          "name": "_rules",
          "type": "address[]"
        }
      ],
      "name": "addManyRules",
      "outputs": [],
      "payable": false,
      "stateMutability": "nonpayable",
      "type": "function"
    },
    {
      "constant": false,
      "inputs": [
        {
          "name": "_ruleId",
          "type": "uint256"
        }
      ],
      "name": "removeRule",
      "outputs": [],
      "payable": false,
      "stateMutability": "nonpayable",
      "type": "function"
    }
  ],
  "bytecode": "0x608060405234801561001057600080fd5b50604051610f32380380610f3283398101806040528101908080518201929190505050336000806101000a81548173ffffffffffffffffffffffffffffffffffffffff021916908373ffffffffffffffffffffffffffffffffffffffff1602179055508060019080519060200190610089929190610090565b505061015d565b828054828255906000526020600020908101928215610109579160200282015b828111156101085782518260006101000a81548173ffffffffffffffffffffffffffffffffffffffff021916908373ffffffffffffffffffffffffffffffffffffffff160217905550916020019190600101906100b0565b5b509050610116919061011a565b5090565b61015a91905b8082111561015657600081816101000a81549073ffffffffffffffffffffffffffffffffffffffff021916905550600101610120565b5090565b90565b610dc68061016c6000396000f3006080604052600436106100a4576000357c0100000000000000000000000000000000000000000000000000000000900463ffffffff1680630ad8f8ee146100a95780635e8e30a61461010f578063715018a61461016a5780638da5cb5b14610181578063b4627416146101d8578063c6946a1214610203578063d70da38b14610288578063db18af6c146102b5578063e3c4602c14610322578063f2fde38b14610365575b600080fd5b3480156100b557600080fd5b5061010d600480360381019080803590602001908201803590602001908080602002602001604051908101604052809392919081815260200183836020028082843782019150505050505091929192905050506103a8565b005b34801561011b57600080fd5b50610150600480360381019080803573ffffffffffffffffffffffffffffffffffffffff169060200190929190505050610454565b604051808215151515815260200191505060405180910390f35b34801561017657600080fd5b5061017f61059f565b005b34801561018d57600080fd5b506101966106a1565b604051808273ffffffffffffffffffffffffffffffffffffffff1673ffffffffffffffffffffffffffffffffffffffff16815260200191505060405180910390f35b3480156101e457600080fd5b506101ed6106c6565b6040518082815260200191505060405180910390f35b34801561020f57600080fd5b5061026e600480360381019080803573ffffffffffffffffffffffffffffffffffffffff169060200190929190803573ffffffffffffffffffffffffffffffffffffffff169060200190929190803590602001909291905050506106d3565b604051808215151515815260200191505060405180910390f35b34801561029457600080fd5b506102b36004803603810190808035906020019092919050505061085c565b005b3480156102c157600080fd5b506102e060048036038101908080359060200190929190505050610a67565b604051808273ffffffffffffffffffffffffffffffffffffffff1673ffffffffffffffffffffffffffffffffffffffff16815260200191505060405180910390f35b34801561032e57600080fd5b50610363600480360381019080803573ffffffffffffffffffffffffffffffffffffffff169060200190929190505050610aaa565b005b34801561037157600080fd5b506103a6600480360381019080803573ffffffffffffffffffffffffffffffffffffffff169060200190929190505050610be8565b005b60008060009054906101000a900473ffffffffffffffffffffffffffffffffffffffff1673ffffffffffffffffffffffffffffffffffffffff163373ffffffffffffffffffffffffffffffffffffffff1614151561040557600080fd5b6000825111151561041557600080fd5b600090505b815181101561045057610443828281518110151561043457fe5b90602001906020020151610aaa565b808060010191505061041a565b5050565b600080600090505b6001805490508110156105945760018181548110151561047857fe5b9060005260206000200160009054906101000a900473ffffffffffffffffffffffffffffffffffffffff1673ffffffffffffffffffffffffffffffffffffffff1663cf31ff86846040518263ffffffff167c0100000000000000000000000000000000000000000000000000000000028152600401808273ffffffffffffffffffffffffffffffffffffffff1673ffffffffffffffffffffffffffffffffffffffff168152602001915050602060405180830381600087803b15801561053d57600080fd5b505af1158015610551573d6000803e3d6000fd5b505050506040513d602081101561056757600080fd5b810190808051906020019092919050505015156105875760009150610599565b808060010191505061045c565b600191505b50919050565b6000809054906101000a900473ffffffffffffffffffffffffffffffffffffffff1673ffffffffffffffffffffffffffffffffffffffff163373ffffffffffffffffffffffffffffffffffffffff161415156105fa57600080fd5b6000809054906101000a900473ffffffffffffffffffffffffffffffffffffffff1673ffffffffffffffffffffffffffffffffffffffff167ff8df31144d9c2f0f6b59d69b8b98abd5459d07f2742c4df920b25aae33c6482060405160405180910390a260008060006101000a81548173ffffffffffffffffffffffffffffffffffffffff021916908373ffffffffffffffffffffffffffffffffffffffff160217905550565b6000809054906101000a900473ffffffffffffffffffffffffffffffffffffffff1681565b6000600180549050905090565b600080600090505b60018054905081101561084f576001818154811015156106f757fe5b9060005260206000200160009054906101000a900473ffffffffffffffffffffffffffffffffffffffff1673ffffffffffffffffffffffffffffffffffffffff166340ecb7f28686866040518463ffffffff167c0100000000000000000000000000000000000000000000000000000000028152600401808473ffffffffffffffffffffffffffffffffffffffff1673ffffffffffffffffffffffffffffffffffffffff1681526020018373ffffffffffffffffffffffffffffffffffffffff1673ffffffffffffffffffffffffffffffffffffffff1681526020018281526020019350505050602060405180830381600087803b1580156107f857600080fd5b505af115801561080c573d6000803e3d6000fd5b505050506040513d602081101561082257600080fd5b810190808051906020019092919050505015156108425760009150610854565b80806001019150506106db565b600191505b509392505050565b6000809054906101000a900473ffffffffffffffffffffffffffffffffffffffff1673ffffffffffffffffffffffffffffffffffffffff163373ffffffffffffffffffffffffffffffffffffffff161415156108b757600080fd5b60018054905081101515610933576040517f08c379a000000000000000000000000000000000000000000000000000000000815260040180806020018281038252600c8152602001807f5749544852554c45535f3033000000000000000000000000000000000000000081525060200191505060405180910390fd5b60018181548110151561094257fe5b9060005260206000200160006101000a81549073ffffffffffffffffffffffffffffffffffffffff0219169055600180805490500381141515610a175760018080805490500381548110151561099457fe5b9060005260206000200160009054906101000a900473ffffffffffffffffffffffffffffffffffffffff166001828154811015156109ce57fe5b9060005260206000200160006101000a81548173ffffffffffffffffffffffffffffffffffffffff021916908373ffffffffffffffffffffffffffffffffffffffff1602179055505b6001805480919060019003610a2c9190610d49565b507f77541af0dd2301e15fec88d72dd3f4aa2f9e5aaaaf8bb55c947241b8aa6d2960816040518082815260200191505060405180910390a150565b6000600182815481101515610a7857fe5b9060005260206000200160009054906101000a900473ffffffffffffffffffffffffffffffffffffffff169050919050565b6000809054906101000a900473ffffffffffffffffffffffffffffffffffffffff1673ffffffffffffffffffffffffffffffffffffffff163373ffffffffffffffffffffffffffffffffffffffff16141515610b0557600080fd5b600073ffffffffffffffffffffffffffffffffffffffff168173ffffffffffffffffffffffffffffffffffffffff1614151515610b4157600080fd5b60018190806001815401808255809150509060018203906000526020600020016000909192909190916101000a81548173ffffffffffffffffffffffffffffffffffffffff021916908373ffffffffffffffffffffffffffffffffffffffff160217905550507fa88439494cfc042ca92b5192ccdaed0691a1321dffd0c4cda4df3b052c73c91860018080549050036040518082815260200191505060405180910390a150565b6000809054906101000a900473ffffffffffffffffffffffffffffffffffffffff1673ffffffffffffffffffffffffffffffffffffffff163373ffffffffffffffffffffffffffffffffffffffff16141515610c4357600080fd5b610c4c81610c4f565b50565b600073ffffffffffffffffffffffffffffffffffffffff168173ffffffffffffffffffffffffffffffffffffffff1614151515610c8b57600080fd5b8073ffffffffffffffffffffffffffffffffffffffff166000809054906101000a900473ffffffffffffffffffffffffffffffffffffffff1673ffffffffffffffffffffffffffffffffffffffff167f8be0079c531659141344cd1fd0a4f28419497f9722a3daafe3b4186f6b6457e060405160405180910390a3806000806101000a81548173ffffffffffffffffffffffffffffffffffffffff021916908373ffffffffffffffffffffffffffffffffffffffff16021790555050565b815481835581811115610d7057818360005260206000209182019101610d6f9190610d75565b5b505050565b610d9791905b80821115610d93576000816000905550600101610d7b565b5090565b905600a165627a7a723058203e2b83a2021435ed58242816058941ebae684775d37ed39ddffd390270cf4e3c0029",
  "source": "pragma solidity ^0.4.24;\n\nimport \"../zeppelin/token/ERC20/StandardToken.sol\";\nimport \"../zeppelin/ownership/Ownable.sol\";\nimport \"../interface/IWithRules.sol\";\nimport \"../interface/IRule.sol\";\n\n\n/**\n * @title WithRules\n * @dev WithRules contract allows inheriting contract to use a set of validation rules\n * @dev contract owner may add or remove rules\n *\n * @author Cyril Lapinte - <cyril.lapinte@mtpelerin.com>\n *\n *\n * Error messages\n * WITHRULES_01: The address rules are not valid\n * WITHRULES_02: The transfer rules are not valid\n * WITHRULES_03: The rule does not exist\n **/\ncontract WithRules is IWithRules, Ownable {\n\n  IRule[] internal rules;\n\n  /**\n   * @dev Constructor\n   */\n  constructor(IRule[] _rules) public {\n    rules = _rules;\n  }\n\n  /**\n   * @dev Returns the number of rules\n   */\n  function ruleLength() public view returns (uint256) {\n    return rules.length;\n  }\n\n  /**\n   * @dev Returns the Rule associated to the specified ruleId\n   */\n  function rule(uint256 _ruleId) public view returns (IRule) {\n    return rules[_ruleId];\n  }\n\n  /**\n   * @dev Check if the rules are valid for an address\n   */\n  function validateAddress(address _address) public view returns (bool) {\n    for (uint256 i = 0; i < rules.length; i++) {\n      if (!rules[i].isAddressValid(_address)) {\n        return false;\n      }\n    }\n    return true;\n  }\n\n  /**\n   * @dev Check if the rules are valid\n   */\n  function validateTransfer(address _from, address _to, uint256 _amount)\n    public view returns (bool)\n  {\n    for (uint256 i = 0; i < rules.length; i++) {\n      if (!rules[i].isTransferValid(_from, _to, _amount)) {\n        return false;\n      }\n    }\n    return true;\n  }\n\n  /**\n   * @dev Modifier to make functions callable\n   * only when participants follow rules\n   */\n  modifier whenAddressRulesAreValid(address _address) {\n    require(validateAddress(_address), \"WITHRULES_01\");\n    _;\n  }\n\n  /**\n   * @dev Modifier to make transfer functions callable\n   * only when participants follow rules\n   */\n  modifier whenTransferRulesAreValid(\n    address _from,\n    address _to,\n    uint256 _amount)\n  {\n    require(validateTransfer(_from, _to, _amount), \"WITHRULES_02\");\n    _;\n  }\n\n  /**\n   * @dev Add a rule to the token\n   */\n  function addRule(IRule _rule) public onlyOwner {\n    require(address(_rule) != address(0));\n    rules.push(_rule);\n    emit RuleAdded(rules.length-1);\n  }\n\n  /**\n   * @dev Add rules to the token\n   */\n  function addManyRules(IRule[] _rules) public onlyOwner {\n    require(_rules.length > 0);\n    for (uint256 i = 0; i < _rules.length; i++) {\n      addRule(_rules[i]);\n    }\n  }\n\n  /**\n   * @dev Remove a rule from the token\n   */\n  function removeRule(uint256 _ruleId) public onlyOwner {\n    require(_ruleId < rules.length, \"WITHRULES_03\");\n\n    delete rules[_ruleId];\n    if (_ruleId != rules.length-1) {\n      rules[_ruleId] = rules[rules.length-1];\n    }\n    rules.length--;\n    emit RuleRemoved(_ruleId);\n  }\n\n  event RuleAdded(uint256 ruleId);\n  event RuleRemoved(uint256 ruleId);\n}\n",
  "sourcePath": "/home/node/project/contracts/rule/WithRules.sol",
  "compiler": {
    "name": "solc",
    "version": "0.4.24+commit.e67f0147.Emscripten.clang"
  },
  "schemaVersion": "2.0.1",
  "updatedAt": "2018-08-15T14:19:55.931Z"
}