{
  "contractName": "YesNoRule",
  "abi": [
    {
      "constant": true,
      "inputs": [],
      "name": "yesNo",
      "outputs": [
        {
          "name": "",
          "type": "bool"
        }
      ],
      "payable": false,
      "stateMutability": "view",
      "type": "function"
    },
    {
      "inputs": [
        {
          "name": "_yesNo",
          "type": "bool"
        }
      ],
      "payable": false,
      "stateMutability": "nonpayable",
      "type": "constructor"
    },
    {
      "constant": true,
      "inputs": [
        {
          "name": "",
          "type": "address"
        }
      ],
      "name": "isAddressValid",
      "outputs": [
        {
          "name": "",
          "type": "bool"
        }
      ],
      "payable": false,
      "stateMutability": "view",
      "type": "function"
    },
    {
      "constant": true,
      "inputs": [
        {
          "name": "",
          "type": "address"
        },
        {
          "name": "",
          "type": "address"
        },
        {
          "name": "",
          "type": "uint256"
        }
      ],
      "name": "isTransferValid",
      "outputs": [
        {
          "name": "",
          "type": "bool"
        }
      ],
      "payable": false,
      "stateMutability": "view",
      "type": "function"
    }
  ],
  "bytecode": "0x608060405234801561001057600080fd5b5060405160208061023783398101806040528101908080519060200190929190505050806000806101000a81548160ff021916908315150217905550506101db8061005c6000396000f300608060405260043610610057576000357c0100000000000000000000000000000000000000000000000000000000900463ffffffff16806340ecb7f21461005c578063644661f9146100e1578063cf31ff8614610110575b600080fd5b34801561006857600080fd5b506100c7600480360381019080803573ffffffffffffffffffffffffffffffffffffffff169060200190929190803573ffffffffffffffffffffffffffffffffffffffff1690602001909291908035906020019092919050505061016b565b604051808215151515815260200191505060405180910390f35b3480156100ed57600080fd5b506100f6610185565b604051808215151515815260200191505060405180910390f35b34801561011c57600080fd5b50610151600480360381019080803573ffffffffffffffffffffffffffffffffffffffff169060200190929190505050610197565b604051808215151515815260200191505060405180910390f35b60008060009054906101000a900460ff1690509392505050565b6000809054906101000a900460ff1681565b60008060009054906101000a900460ff1690509190505600a165627a7a72305820503b72ebd5a68c61e0d48d9f38e0714fea4ecb597370607895fcb60b9061509a0029",
  "source": "pragma solidity ^0.4.24;\n\nimport \"../interface/IRule.sol\";\n\n\n/**\n * @title YesNoRule\n * @dev YesNoRule interface\n * @author Cyril Lapinte - <cyril.lapinte@mtpelerin.com>\n *\n * The rule always answer the same response through isValid\n * Usefull for testing IWithRule implementation\n*/\ncontract YesNoRule is IRule {\n  bool public yesNo;\n\n  constructor(bool _yesNo) public {\n    yesNo = _yesNo;\n  }\n\n  function isAddressValid(address /* _from */) public view returns (bool) {\n    return yesNo;\n  }\n\n  function isTransferValid(\n    address /* _from */,\n    address /*_to */,\n    uint256 /*_amount */)\n    public view returns (bool)\n  {\n    return yesNo;\n  }\n}\n",
  "sourcePath": "/home/node/project/contracts/rule/YesNoRule.sol",
  "compiler": {
    "name": "solc",
    "version": "0.4.24+commit.e67f0147.Emscripten.clang"
  },
  "schemaVersion": "2.0.1",
  "updatedAt": "2018-08-15T14:19:55.936Z"
}